:020000040000FA
:20000000BFC20000E6C20000E4C20000E2C20000E0C20000DEC20000DCC20000DAC20000F1
:20002000D8C20000D6C2000009C50000D6C50000D0C20000CEC20000CCC20000CAC20000E9
:20004000C8C20000C6C20000C4C20000C2C20000C0C200000C945127BCC20000BAC20000F0
:20006000B8C200000C94703C0C94CE3B0C941A3BB0C200000C942A27ACC20000AAC20000DF
:20008000A8C20000A6C20000A4C20000A2C20000A0C200009EC20000789F000012034F0087
:2000A000700065006E004400650063006B00000022035300680061006E007400650061009D
:2000C000200043006F006E00740072006F006C00730000000403090409026500020100C065
:2000E000320904000000010100000924010001090001010904010002010300000724010045
:200100000141000624020101000624020202000924030103010201000924030204010101CE
:20012000000905020240000500000525010101090581024000050000052501010312010023
:20014000020000000809127284010001020001B401B101AF01AC01AA01A801A501A301A07D
:20016000019E019B01990161025902560253024D024A023F02340200000000000000002B01
:2001800002220216020E020502FB01F201E901DF01D101C201BD01B6014200412300410060
:2001A00047230047004623004600450044230044004323004300507265736574004E5250E3
:2001C0004E004D4D43205265636F7264204F6666004D4D43205265636F7264204F6E004DB4
:2001E0004D43205061757365004D4D432053746F70004D4D4320506C617900525420537989
:2002000073527374005254204153656E730052542053746F7000525420436F6E74696E7580
:200220006500525420537461727400525420436C6F636B00537973457820436F6E660050E1
:20024000697463682042656E64004154004348204154005043004343004E6F7465204F6EFC
:20026000004E6F7465204F6666005465656E73792B2B20322E3000207F010100000000008E
:200280000000000000065F5F0600000003070000070300147F7F147F7F140000242E6B6B20
:2002A0003A1200466630180C666200307A4F5D377A4800000004070300000000001C3E6310
:2002C000410000000041633E1C0000082A3E1C1C3E2A080008083E3E080800000080E0606B
:2002E000000000000808080808080000000060600000006030180C060301001C3E634963E7
:200300003E1C000040427F7F40400042637159496F660022634949497F3600181C16537FC5
:200320007F50002F6F4949497931003C7E4B4949783000030371790D070300367F494949F5
:200340007F3600064F4949693F1E000000006666000000000080E6660000000000081C3649
:20036000634100002424242424240000004163361C0800020301595D0702003E7F415D5D86
:200380001F1E007C7E0B090B7E7C00417F7F49497F36001C3E634141632200417F7F4163E0
:2003A0003E1C00417F7F495D416300417F7F491D0103001C3E6341513372007F7F080808A7
:2003C0007F7F000000417F7F410000307040417F3F0100417F7F081C776300417F7F4140C2
:2003E0006070007F7F0E1C0E7F7F007F7F060C187F7F003E7F4141417F3E00417F7F490905
:200400000F06003E7F4141E1FFBE00417F7F09197766000022674D597322000003417F7FA6
:200420004103003F7F4040407F3F001F3F6040603F1F003F7F6038607F3F0063771C081CF2
:2004400077630000074F78784F0700476371594D67730000007F7F414100000103060C18DD
:20046000306000000041417F7F0000080C0603060C0800808080808080808000000103062B
:20048000040000207454543C784000417F3F44447C3800387C4444446C2800387C44453F5D
:2004A0007F4000387C5454545C1800487E7F490903020098BCA4A4F87C0400417F7F08045E
:2004C0007C78000000447D7D4000000060E08080FD7D00417F7F10386C44000000417F7F7A
:2004E0004000007C7C0C780C7C7800047C7804047C7800387C4444447C380084FCF8A424D8
:200500003C1800183C24A4F8FC8400447C784C040C0800485C54545474240004043F7F4415
:200520006420003C7C40403C7C40001C3C6040603C1C003C7C6038607C3C00446C381038BF
:200540006C44009CBCA0A0A0FC7C00004C64745C4C64000008083E77414100000000EFEFE6
:20056000000000004141773E080800020301030203010070784C464C787000007D0DB23CFF
:2005800011241FBECFEFD0E2DEBFCDBF15E0A0E0B1E0E8E4FBE900E00BBF02C007900D9258
:2005A000A033B107D9F72AE0A0E3B5E001C01D92A534B207E1F712E0C0ECD2E004C0219718
:2005C000FE010E945F4ACE3BD107C9F7F9D40C94A24D16CDCF92DF92EF92FF920F931F93B9
:2005E000CF93DF93EC018B017A0195D1811132C0E114F10439F0F70180819181081B190BE4
:20060000C80FD91FC12CD12C0115110511F18091E80085FD15C08091E8008E778093E800AA
:20062000E114F10449F0F70180819181C80ED91ED182C08285E00EC06ED1882329F30AC027
:2006400089918093F10001501109FFEFCF1ADF0ADBCF80E0DF91CF911F910F91FF90EF9019
:20066000DF90CF900895CF92DF92EF92FF920F931F93CF93DF93EC018B017A014CD1811160
:2006800032C0E114F10439F0F70180819181081B190BC80FD91FC12CD12C0115110511F11C
:2006A0008091E80085FD15C08091E8008B778093E800E114F10449F0F70180819181C80EF0
:2006C000D91ED182C08285E00EC025D1882329F30AC08091F100899301501109FFEFCF1A74
:2006E000DF0ADBCF80E0DF91CF911F910F91FF90EF90DF90CF9008952091430A3091440A61
:200700002617370748F06115710539F42091E8002E772093E80001C0B901FC0120E0611546
:20072000710569F180913C0A8823E1F18530E1F18091E80083FD3AC08091E80082FD2CC0B7
:200740008091E80080FFEBCF8091F2009091F3006115710551F08830910538F42191209344
:20076000F100615071090196F3CF21E0089709F020E08091E8008E778093E800D0CF2111A1
:20078000D1CF0AC080913C0A882361F0853061F08091E80083FD0AC08091E80082FFF2CF18
:2007A00080E0089582E0089583E0089581E008952091430A3091440A2617370748F0611509
:2007C000710539F42091E8002E772093E80001C0B901FC0120E06115710581F180913C0A70
:2007E000882309F43EC0853009F43DC08091E80083FD3BC08091E80082FD2DC08091E800D2
:2008000080FFE9CF8091F2009091F3006115710559F08830910540F424912093F1003196B3
:20082000615071090196F2CF21E0089709F020E08091E8008E778093E800CDCF2111CECF38
:200840000AC080913C0A882361F0853061F08091E80083FD0AC08091E80082FFF2CF80E097
:20086000089582E0089583E0089581E00895982F973068F59093E900981739F07091EC0022
:200880002091ED005091F00003C0242F762F50E021FD02C09F5FECCF3091EB003E7F309339
:2008A000EB003091ED003D7F3093ED003091EB0031603093EB007093EC002093ED005093D6
:2008C000F0002091EE0027FDE5CF80E008958F708093E90081E0089580913D0A87FF11C00C
:2008E0008091E80082FD05C080913C0A8111F8CF11C08091E8008B770BC080913C0A882372
:2009000049F08091E80080FFF8CF8091E8008E778093E80008952091E4003091E50095E613
:200920004091EC00842F817040FF23C08091E80080FD1DC080913C0A882399F0853099F018
:200940008091EB0085FD11C04091E4005091E5002417350729F3915011F09A01E1CF84E0A9
:20096000089582E0089583E0089581E0089580E008954091E80042FFDDCF08950F931F9349
:20098000CF93DF934ED055D0C8EDD0E088818F77888388818068888388818F7D8883E7EDD1
:2009A000F0E080818068808319BC10923C0A1092380A10923A0A1092390A00EE10E0F80138
:2009C00080818B7F808388818160888342E060E080E04DDFE1EEF0E080818E7F8083E2EEA6
:2009E000F0E0808181608083808188608083F80180818E7F8083888180618883DF91CF9187
:200A00001F910F910895E8EDF0E080818F7E8083E7EDF0E080818160808381E080933B0AF1
:200A2000ADCFE8EDF0E080818C7F80831092E20008951092DA001092E10008951F920F9277
:200A40000FB60F9211240BB60F922F933F934F935F936F937F938F939F93AF93BF93EF93B3
:200A6000FF938091E10082FF0AC08091E20082FF06C08091E1008B7F8093E10057D2809143
:200A8000DA0080FF1DC08091D80080FF19C08091DA008E7F8093DA008091D90080FF0CC0C5
:200AA00084E189BD86E189BD09B400FEFDCF81E080933C0A3BD204C019BC10923C0A36D207
:200AC0008091E10080FF18C08091E20080FF14C08091E2008E7F8093E2008091E2008061BE
:200AE0008093E2008091D80080628093D80019BC85E080933C0A1AD28091E10084FF2FC068
:200B00008091E20084FF2BC084E189BD86E189BD09B400FEFDCF8091D8008F7D8093D800B5
:200B20008091E1008F7E8093E1008091E2008F7E8093E2008091E20081608093E2008091F3
:200B4000380A882311F084E007C08091E30087FD02C081E001C083E080933C0AE7D180919B
:200B6000E10083FF27C08091E20083FF23C08091E100877F8093E10082E080933C0A10928A
:200B8000380A8091E1008E7F8093E1008091E2008E7F8093E2008091E20080618093E20062
:200BA00042E060E080E063DE8091F00088608093F000BCD1FF91EF91BF91AF919F918F91C9
:200BC0007F916F915F914F913F912F910F900BBE0F900FBE0F901F9018951F920F920FB6BF
:200BE0000F9211240BB60F922F933F934F935F936F937F938F939F93AF93BF93CF93DF9385
:200C0000EF93FF93C091E900CF708091EC00D82FD17080FDD0E81092E9008091F000877F3B
:200C20008093F000789420D01092E9008091F00088608093F000CD2BCF70C093E900FF913B
:200C4000EF91DF91CF91BF91AF919F918F917F916F915F914F913F912F910F900BBE0F90ED
:200C60000FBE0F901F9018951F93CF93DF93CDB7DEB7AA970FB6F894DEBF0FBECDBFEDE3B5
:200C8000FAE08091F10081932AE0E534F207C9F74DD18091E80083FF31C180913D0A909184
:200CA0003E0A953009F483C030F49130A9F168F0933091F123C1983009F4EFC0993009F4AD
:200CC000FBC0963009F01AC194C0803821F0823809F014C108C08091390A90913A0A9923DD
:200CE00089F082600FC08091410A8F70873008F005C18093E9008091EB0085FB882780F95A
:200D00001092E9009091E800977F9093E8008093F1001092F100CCC0282F2D7F09F0EEC051
:200D2000882319F0823061F0E9C080913F0A813009F0E4C0933009F080E080933A0A2EC04A
:200D400080913F0A81112AC08091410A8F702FEF280F263008F0D2C08093E9002091EB0095
:200D600020FF1CC0933021F48091EB00806214C09091EB0090619093EB0021E030E0A90128
:200D800002C0440F551F8A95E2F74093EA001092EA008091EB0088608093EB001092E9001C
:200DA0008091E800877F8093E80096DDA7C08111A5C010913F0A1F778091E3008078812B50
:200DC0008093E3008091E800877F8093E80084DD8091E80080FFFCCF8091E3008068809390
:200DE000E300111102C082E001C083E080933C0A85C08058823008F081C080913F0A9091CA
:200E0000400A8C3D53E0950771F583E08A838AE289834FB7F894DE01139620E03EE051E237
:200E2000E32FF0E050935700E49120FF03C0E295EF703F5FEF708E2F90E0EA3010F0C796C8
:200E400001C0C0968D939D932F5F243149F74FBF8091E800877F8093E8006AE270E0CE0195
:200E600001964ADC14C06091410A7091420AAE014F5F5F4F5CD0BC01892B09F43FC0909193
:200E8000E800977F9093E80089819A8191DC8091E8008B778093E80031C0803879F5809199
:200EA000E800877F8093E8008091380A8093F1008091E8008E7777CF811120C080913F0AE2
:200EC0009091400A99270297CCF48091E800877F8093E80080913F0A8093380AFDDC8091FB
:200EE000380A811106C08091E30087FD02C081E001C084E080933C0A0E94D13C8091E80097
:200F000083FF0AC08091E800877F8093E8008091EB0080628093EB00AA960FB6F894DEBF81
:200F20000FBECDBFDF91CF911F9108950895292F33272230310559F02330310569F02130E8
:200F40003105E9F482E190E02DE331E01CC085E690E028ED30E017C099278130910549F097
:200F600028F0029761F4ECE9F0E005C0E4EDF0E002C0E0EBF0E0849190E09F0104C080E0BA
:200F800090E020E030E0FA0131832083089520913C0A243089F4FC0181818F708093E90020
:200FA0008091F2009091F300892B41F08091E8008E778093E800AFCC82E0089580E00895C5
:200FC00078D499D5FECFFC0180A10895EF92FF920F931F93E12CF12C8701E39425E030E02B
:200FE00040E065E00E94C9371F910F91FF90EF900895CF93DF93EC010E9415362E8D3F8DBA
:20100000821B930B6C8D7D8D621B730B0E94104A862FDF91CF910895DF92EF92FF920F9354
:201020001F93CF93DF93EC01D62EE3DFD816A8F5D8A260E070E0CE010E943D3A47E060E093
:2010400071E0CE010E949F34ED2CF12C00E010E020E030E041E060E0CE010E94C93746E0ED
:2010600065E071E0CE010E949F346E8D7F8D8C8D9D8D861B970B48A1489F9001499F300D83
:201080001124620F731FCE010E943D3AEA8DFB8D309729F08D2D099502C080E001C081E0B5
:2010A000DF91CF911F910F91FF90EF90DF900895EF92FF920F931F93CF93DF93EC01E62EBB
:2010C00060E070E00E943D3A47E060E071E0CE010E949F34F12C00E010E021E030E041E04C
:2010E00060E0CE010E94C93746E065E071E0CE010E949F346E8D7F8D8C8D9D8D861B970BB2
:2011000048A1489F9001499F300D1124620F731FCE01DF91CF911F910F91FF90EF900C9474
:201120003D3ACF92DF92EF92FF92CF93DF93EC0160E070E00E943D3A47E060E071E0CE0163
:201140000E949F3421E030E041E060E0CE010E94A0376B017C0146E065E071E0CE010E944A
:201160009F346E8D7F8D8C8D9D8D861B970B48A1489F9001499F300D1124620F731FCE0182
:201180000E943D3A81E0CD28CE28CF2809F480E0DF91CF91FF90EF90DF90CF900895FF92BC
:2011A0000F931F93CF93DF93EC0160E070E00E943D3A47E060E071E0CE010E949F34E0E0B5
:2011C000F1E080E090E000E010E06281062E000C770B20E030E02617370784F4A381B4819D
:2011E000A80FB91F1296FC9012974D915C914F0D511D040F151F2F5F3F4FEDCF3596099665
:201200008F33910511F746E065E071E0CE010E949F346E8D7F8D8C8D9D8D861B970B48A1F8
:20122000489F9001499F300D1124620F731FCE010E943D3AC80121E0822727E19227DF914D
:20124000CF911F910F91FF900895CF92DF92EF92FF92CF93DF93EC0160E070E00E943D3A64
:2012600047E060E071E0CE010E949F3420E030E040E060E0CE010E94A0376B017C0146E0AB
:2012800065E071E0CE010E949F346E8D7F8D8C8D9D8D861B970B48A1489F9001499F300D61
:2012A0001124620F731FCE010E943D3ACE0177DF21E08C159D0509F020E0822FDF91CF912B
:2012C000FF90EF90DF90CF900895EF92FF920F931F93CF93DF93EC017B0160E070E00E94C0
:2012E0003D3A47E060E071E0CE010E949F3400E010E020E030E040E060E0CE010E94C937CA
:2013000046E065E071E0CE010E949F346E8D7F8D8C8D9D8D861B970B48A1489F9001499FF7
:20132000300D1124620F731FCE01DF91CF911F910F91FF90EF900C943D3AFF920F931F933F
:20134000CF93DF93EC01F62E81E0681303C0CE010E94EB35CE0123DFBC01CE01B6DF00E0A6
:2013600010E0CE0146DE90E00817190764F4602FCE0152DE6F2DCE010E946B39CE0126DE71
:201380000F5F1F4FEECF60E0CE0146DE60E0CE01DF91CF911F910F91FF908ACE0F931F9317
:2013A000CF93DF93EC0160E070E00E943D3A47E060E071E0CE010E949F34182F882309F4D8
:2013C00048C0CE010E940F367D8F6C8F80910501909106019F8F8E8FCE0137DF082F811110
:2013E00004C061E0CE01A9DF34C0CE019ADE882359F160E070E0CE010E943D3A47E060E082
:2014000071E0CE010E949F3420E030E041E060E0CE010E94A03768A346E065E071E0CE01E8
:201420000E949F346E8D7F8D8C8D9D8D861B970B48A1489F9001499F300D1124620F731FEC
:20144000CE010E943D3A01C018A268A1CE01E4DD102F812FDF91CF911F910F910895FC01E7
:20146000738F628F0895462F682F80E395E079C7CF93C82F88EF95E00E942C1E60E16C0FCB
:20148000482F88EF95E0CF910C94761DEF920F931F93CF93DF93C82FEE24E39400E020E04D
:2014A000482F60EC85E596E00E94E42221E030E041E065E081ED98E00E94A037D62F20E006
:2014C00030E041E065E081ED98E00E94A03721E04D2F8AE996E00E940E4123E030E040E0AD
:2014E00065E081ED98E00E94A03721E0672B682B692B09F420E0622F8AE996E00E94174519
:2015000025E030E040E065E081ED98E00E94A0379B01AC01A8EEB3E00E94554AAB01BC01D6
:201520008AE996E00E94274524E030E040E065E081ED98E00E94A03721E0672B682B692B22
:2015400009F420E0622F8AE996E00E94333D2C2F30E0E12C00E010E048E160E08AE996E068
:201560000E947F3FDF91CF911F910F91EF9008954F925F926F927F92AF92BF92CF92DF9287
:20158000EF92FF920F931F93CF93DF93B82E682F81E598E00E943830C82F6B2D81E598E03F
:2015A0000E945630D82E6B2D81E598E00E946230D82F6B2D81E598E00E944430F82EC03C9E
:2015C00091F148F4C03979F1C03B69F1C03809F0E6C0D0E028C0C83F09F4CEC0CA3F09F4CE
:2015E000C7C0C03F09F0DBC06B2D81E598E00E947930C82F6B2D81E598E00E946E304C2FE8
:20160000BC0180E395E0DF91CF911F910F91FF90EF90DF90CF90BF90AF907F906F905F90AE
:201620004F900C941A2DE12C0F2D2D2F4D2D6C2F85E596E00E94E422C039F1F058F4C03884
:20164000B9F5EE24E394EF0C0D2F10E02D2D30E040E01AC0C03BF1F0C03C51F5EE24E39421
:20166000EF0C0D2F10E02D2D30E043E060E08AE996E00E947F3F1EC0EE24E394EF0C0D2F8F
:2016800010E02D2D30E041E060E08AE996E00E947F3F85C00D2F10E02D2D30E0EE24E394E2
:2016A000EF0C42E060E08AE996E00E947F3F17C0C03C91F46D2D81ED98E0DF91CF911F912C
:2016C0000F91FF90EF90DF90CF90BF90AF907F906F905F904F90A0CCC03B09F060C0A12CD7
:2016E000B12C4F2C512C612C712CCD2CD12CE12CF12C0D2F10E0950147E062E081ED98E0BA
:201700000E94A037672B682B692B51F1950142E062E081ED98E00E94A0376330710581056D
:201720009105F1F4950144E062E081ED98E00E94A037641575058605970591F4950143E07B
:2017400062E081ED98E00E94A0376C157D058E059F0531F4A8016A2D82E795E00E94AA1E01
:201760008FEFA81AB80A88E0A816B10421F617C085E596E00E94CE2461E085E596E0DF9199
:20178000CF911F910F91FF90EF90DF90CF90BF90AF907F906F905F904F900C944721DF91DB
:2017A000CF911F910F91FF90EF90DF90CF90BF90AF907F906F905F904F9008950F931F9342
:2017C000CF93DF93EC01798368835B834A833D832C831F830E8390E1FE013896DF01292F9E
:2017E0001D922A95E9F7709680E2DF011D928A95E9F788E0B096DF01282F1D922A95E9F772
:201800003896DF01282F1D922A95E9F73896DF01282F1D922A95E9F73896DF01282F1D926E
:201820002A95E9F73896DF01282F1D922A95E9F73896DF011D928A95E9F7DE01A859BF4F6C
:20184000E5E2F3E001900D929A95E1F7FE01E858FF4F8091350390913603A0913703B091DB
:20186000380380839183A283B38334968091390390913A03A0913B03B0913C038083918340
:20188000A283B383DE01A058BF4F86E0EDE3F3E001900D928A95E1F7E4EFF8E08FEF81939B
:2018A000B9E0E430FB07D9F7DF91CF911F910F910895CF930E94A32681ED98E06FDD80E38A
:2018C00095E006D5789480E395E00E945F160E94C3260E94732861E085E596E00E94A52469
:2018E00082E795E00E949B1E20E030E040E065E081ED98E00E94A037672B682B692B09F425
:2019000083C021E030E041E065E081ED98E00E94A037C62F20E030E041E065E081ED98E05D
:201920000E94A03720E04C2F8AE996E00E940E41882309F469C061E08AE996E00E942243D7
:2019400021E030E040E065E081ED98E00E94A037672B682B692B21F08AE996E00E94863D9A
:2019600022E030E040E065E081ED98E00E94A037672B682B692B29F060E08AE996E00E94F4
:20198000523E60E08AE996E00E9422438AE996E00E944B3D23E030E040E065E081ED98E016
:2019A0000E94A03721E0672B682B692B09F420E0622F8AE996E00E94174525E030E040E04A
:2019C00065E081ED98E00E94A0379B01AC01A8EEB3E00E94554AAB01BC018AE996E00E94BC
:2019E000274524E030E040E065E081ED98E00E94A03721E0672B682B692B09F420E0622F5B
:201A00008AE996E00E94333D83E39AE09093F3088093F20868E37AE088E296E00E942F1852
:201A200066E47AE081ED98E0CF9119CD80E395E05FD48823C9F00E945E25882341F088EFEF
:201A400095E00E94021E82E795E00E94091F88E296E00E94991760E085E596E00E9447214B
:201A60008AE996E00C941044089540E061E081E598E00E943134882311F081E079DD23E040
:201A800030E040E060E081ED98E00E94A037672B682B692B79F122E030E040E060E081ED74
:201AA00098E00E94A037672B682B692BC9F020E030E041E060E081ED98E00E94A03761157D
:201AC00071058105910531F0643071058105910539F0089541E060E081E598E00C94313423
:201AE00040E060E081E598E00E943134882311F080E03ECD0895B9DF99CFEF92FF920F9339
:201B00001F93CF93DF931092F3081092F20821ED38E01092D1081092D2081092D3081092CA
:201B2000D4081092D5081092D7081092D60888E0E3E4F3E0A8EDB8E001900D928A95E1F7F3
:201B40001092E1081092E00884EF96E29093E3088093E20884E197E29093E5088093E4088D
:201B60008DEF9FE09093E7088093E6081092E8089093EA088093E9081092EC081092EB0881
:201B80001092F10881E5E82E88E0F82E1092B5081092B6081092B7081092C3081092C208A7
:201BA0001092C4081092C6081092C5081092C8081092C7081092CA081092C9081092CC0898
:201BC0001092CB0848E0CAE9D6E0DE01E42F1D92EA95E9F71092A3061092A2061092A4061E
:201BE0001092A5061092A6061092A7061092A8061092A9061092AA061092AB061092AC0661
:201C00001092AD061092AE061092AF061092B00680EAE1EBF6E0DF01682F1D926A95E9F759
:201C2000E1E5F7E0DF011D928A95E9F780E1E1EFF7E0DF01682F1D926A95E9F7E1E0F8E0D3
:201C4000DF01682F1D926A95E9F7109211081092120810921308109214081092150851E09D
:201C6000509316081092170893E0909318081092190810921A0868E270E070931C086093B1
:201C80001B086CE0E5E4F8E0DF011D926A95E9F762E0609346089093470894E090934808EA
:201CA00060934A0890934B0896E090934C0805E516E03093560620935506E7E5F6E0DF01ED
:201CC000682F1D926A95E9F71092670610926906109268066BE0EBE4F3E0AAE6B6E001900B
:201CE0000D926A95E1F76BE0E6E5F3E0A5E7B6E001900D926A95E1F76BE0E0E8F6E0DF0193
:201D0000762F1D927A95E9F710928B0610928C0610928D0610928E06EFE8F6E0DF011D9272
:201D20006A95E9F73093290620932806F0922B06E0922A0610932D0600932C06D0932F0669
:201D4000C0932E0662EF78E070933106609330061092330610923206E4E3F6E0DF011D920F
:201D60008A95E9F7E4E4F6E0DF01842F1D928A95E9F7ECE4F6E0DF011D924A95E9F75093AE
:201D800054063093F9052093F805F092FB05E092FA051093FD050093FC05D093FF05C09392
:201DA000FE05709301066093000688E1E2E0F6E0DF011D928A95E9F710921A0610921B0609
:201DC00010921C0610921D0610921E0610921F061092200610922106E1E6F3E0A2E2B6E0A8
:201DE00001900D929A95E1F7E4EFF8E08FEF8193B9E0E430FB07D9F702EF18E02AE936E0DE
:201E000041E558E061ED78E082E795E0D7DC10923205109233051092350510923405109221
:201E200036051092410510924005109243051092420510924405109245051092460510925F
:201E400047051092480510924A051092490587E793E0909331058093300581ED98E09093DB
:201E60004C0580934B0581E598E090934E0580934D0588EF95E09093500580934F0582E7C1
:201E800095E0909352058093510588E296E0909354058093530585E596E0909356058093B2
:201EA00055058AE996E0909358058093570581E080935905DF91CF911F910F91FF90EF90F0
:201EC0000895CF93DF93EC0164E0888199810E94C02A60E0888199810E94C02A66E0888173
:201EE0009981DF91CF910C94C02ACF93DF93EC0161E0888199810E94C02A64E68881998150
:201F00000E94C02A68E0888199810E94C02A64E0888199810E94C02A61E0888199810E9445
:201F2000C02A60E0888199810E94C02A60E088819981DF91CF910C94C02AFB01642F70E02C
:201F400021E0AF01FC01858D968D0C94652DBC0180E00C94A03B682F80E00C944A3C0F9315
:201F60001F93CF93DF9300D000D01F92CDB7DEB78C01AE014B5F5F4FBE016F5F7F4F80E022
:201F80000E946B3A882339F08D81813F21F4CE0101960E940F3DC8010E94ED3C882329F097
:201FA00043EFB80180E00E94493A0F900F900F900F900F90DF91CF911F910F9108950F9337
:201FC0001F93CF93DF931F92CDB7DEB78C01AE014F5F5F4FBC0180E00E946B3A882349F0D1
:201FE0004981423F29F0B80180E00E94493A01C080E00F90DF91CF911F910F91089541EF92
:20200000BC0180E00C94493AFC018281238130E0220F331F87FF03C02F77216001C02E7773
:2020200020838F77818308959F92AF92BF92CF92DF92EF92FF920F931F93CF93DF93CDB703
:20204000DEB728970FB6F894DEBF0FBECDBF6C01F42E580119821A821B821C82623009F4FC
:20206000CEC030F46623C9F0613009F4B2C0FCC0643081F1FC01838D948D643008F46AC0C2
:20208000653009F0F1C0E42FF0E0E158FC4F8E010F5F1F4F408165E0EEC0F1E0F41720F48B
:2020A00042E0F41631F0EBC08E010F5F1F4F60E0DFC02115310531F4FC01838D948D0E947D
:2020C000E30722C02130310531F5FC01838D948D28D81AC0F1E04F1709F14F1778F044E05C
:2020E000F41619F1FC01838D948DF7E0FF1228C08E010F5F1F4F45E064E05DC0622FFC014F
:2021000085A196A10E94362290E0A0E0B0E089839A83AB83BC8399249394B2C0622FFC016E
:2021200085A196A10E947322EFCF822F0E94E324282F30E08E010F5F1F4F42E064E098C063
:20214000EF2DF0E0EF57FC4F8E010F5F1F4F408164E091C0F3E04F1790F148E04F1548F4BF
:20216000E9E0FE122CC08E010F5F1F4F46E063E022C0EF2DF0E0E757FC4F8E010F5F1F4F04
:20218000408163E00E945F36982E882309F477C089819A8198878F83CE01059635DFF5E0B6
:2021A000FF1609F44BC047E0F41609F447C083E0F8124DC043C00E945F36982E1CC0EF2D5B
:2021C000F0E0E757FC4F8E010F5F1F4F408163E052C0E42FF0E0E456FC4F8E010F5F1F4F52
:2021E000408161E0FC01838D948D0E945F36982EF4E0FF1245C0992009F441C02DC0E42F11
:20220000F0E0ED56FC4F8E010F5F1F4F408162E0FC01838D948D0E945F36982E882379F1B2
:202220008F2D8B7F8330A9F489819A8198878F83CE010596E9DEF3E0FF1209C08E8190E0D5
:20224000A0E0B0E089839A83AB83BC8319C08D81F6CF44E0F4125FCF89819A81AB81BC8146
:202260000196A11DB11DEECF8E010F5F1F4F4F2DF601838D948D0E945F36982E01C0912CF4
:20228000E12C00E010E020E030E047E060E0F60187A190A50E947F3F992029F08981F50164
:2022A000808381E003C0F501108280E028960FB6F894DEBF0FBECDBFDF91CF911F910F91EA
:2022C000FF90EF90DF90CF90BF90AF909F900895CF93DF93EC0146E069E572E00E94A528D2
:2022E0004BE063E472E0CE01DF91CF910C940629FC0181A508950F931F93CF93DF93EC01D7
:20230000CB01BA01122F40E00E944E3B8D8D9E8D112319F067EA7FE002C060E070E00E9484
:2023200087348D8D9E8D002319F06BEA7FE002C060E070E0DF91CF911F910F910C948D34EA
:20234000CF93DF93EC016DEE7CE38D8D9E8D0E9493346FE07DE38D8D9E8DDF91CF910C94F0
:202360009934BF92CF92DF92EF92FF920F931F93CF93DF9300D01F92CDB7DEB77C01062FE7
:20238000B42E0E942729182F882309F440C02FB7F89480914D0990914E09A0914F09B0915F
:2023A00050092FBF670124E0029FC00CD11C1124F60142A553A564A575A5841B950BA60BF2
:2023C000B70B853F9140A105B10508F189E489830A83BB82F701658D768D6A5C7F4F01E0AC
:2023E00023E0AE014F5F5F4FC7010E94D12A2FB7F89480914D0990914E09A0914F09B0914F
:2024000050092FBFF60182A793A7A4A7B5A7812F0F900F900F90DF91CF911F910F91FF9038
:20242000EF90DF90CF90BF900895EF92FF920F931F93CF93DF93CDB7DEB728970FB6F89400
:20244000DEBF0FBECDBF88E0E7E6F3E0DE01119601900D928A95E1F78E010F5F1F4F7E01E7
:2024600089E0E80EF11CF80161918F0180E00E944A3C0E151F05B9F780E00E94133B8823FB
:20248000D9F328960FB6F894DEBF0FBECDBFDF91CF911F910F91FF90EF9008950F93CF939C
:2024A000DF93EC01623009F1A0F4662309F459C0613009F05FC001E020E042E15AE760E0D0
:2024C00070E019DF61E080E0DF91CF910F910C940E3B633001F1643009F04CC000E021E0BB
:2024E00040E056E960E070E043C060E080E00E940E3B40E060E076E980E090E00E944E3BA5
:20250000CE0193DF6FEA7FE08D8D9E8D0E9493346FE07DE313C060E080E00E940E3B40E0E7
:2025200060E076E980E090E00E944E3B6FED7FE08D8D9E8D0E9493346FEF7FE08D8D9E8D96
:202540000E94993460E070E08D8D9E8D0E94873460E070E08D8D9E8DDF91CF910F910C94F5
:202560008D34EEDE01E021E042E15AE760E070E0CE01C1DEDF91CF910F9108953F924F92CB
:202580005F926F927F928F929F92AF92BF92CF92DF92EF92FF920F931F93CF93DF9300D078
:2025A00000D0CDB7DEB76C01A42E4901402E623009F40FC330F4662369F0613009F4E7C29D
:2025C00025C3643009F41CC108F4B9C0653009F448C21CC3411154C02130310541F088F01F
:2025E00022303105F9F023303105B1F043C361E0011101C060E0F601858D968D0E941430D4
:202600003BC3FC01858D968D002311F061E001C060E00E946E3430C301111CC080E00E94FD
:20262000333B2AC323E030E040E060E0F601838D948D0E94A037672B682B692BA1F161E09F
:20264000011101C060E0F601858D968D0E948933411009C001E021E042E15AE760E070E0ED
:20266000C60149DE09C320E030E041E060E0F601838D948D0E94A037633099F564E031C038
:20268000F1E04F1331C02115310579F423E030E040E060E0FC01838D948D0E94A037672B91
:2026A000682B692B39F46CE0EFC02330310508F0E1C2BBC222E030E040E060E0F601838DB1
:2026C000948D0E94A037672B682B692B61F3F4E0F01708F4B8C2F3E04F1202C034E0432E87
:2026E000642DC601DBDEC8C242E0A412C3C221153105A9F4FC01838D948D0E94F90790E099
:20270000202F002E000C330B281739070CF0BBC0602FF601838D948D0E940C0886C22130F6
:20272000310509F0A7C241E0401708F4A3C2602F6170FC01838D948D0E94580876C2F2E08E
:202740004F1709F440C0FC01838D948D242F30E0F2E04F1708F444C048E04A1508F440C0CA
:20276000F901E757FC4FB08094014B2D63E00E94A0377C836B83CE01019646DC65E0A61667
:2027800031F087E0A81619F093E0A91202C04A8201C0098389819A8180FF02C0906801C0C2
:2027A0009F779A8390E0959587958983E12CF12CF82E8A81E82AFC82EB8200E010E0940167
:2027C0004B2D63E02AC2B901FC0183A194A135D4E02E000FFF08000B110B940142E0F1CF77
:2027E000F9E0AF1201C04A94E42C440CFF08000B110BF901E757FC4F9401408163E010C224
:2028000043E0A41609F4E4C04A1568F061E0A616A9F06A15F8F0402F622FFC0185A196A12C
:202820000E949B2202C285E0A81609F4D1C0A81678F197E0A91208C14A94CAC0011102C066
:2028400040E001C045E0682DF60185A196A10E94D321EBC1F1E02F17B1F02F1720F042E017
:20286000241761F007C261E0601708F403C2602FFC0185A196A10E949824E7C1F1E0F017C3
:2028800008F4F8C1E2C16DE0C6010E945A2DF2C1A22E822F0E94E32460E00E94DE2440E0C2
:2028A000682FF60185A196A10E949B22882D0E94E32461E00E94DE2440E0682FF60185A1B7
:2028C00096A10E949B22882D0E94E32462E00E94DE2440E0682FF60185A196A10E949B22B4
:2028E000882D0E94E324E02E000FFF08000B110B282F30E042E064E0F601838D948D0E9498
:20290000C937182F442009F48EC1882309F4B2C1B12C940141E064E0F601838D948D0E9404
:20292000A0372B013C018A2D0E94E3246B2D0E94DE24282F30E08301720141E064E0F60101
:20294000838D948D0E94C937882309F493C1940143E064E0F601838D948D0E94A0372B01DF
:202960003C018A2D0E94E3246B2D0E94DE24282F30E08301720143E064E0F601838D948D91
:202980000E94C937882309F475C1940145E064E0F601838D948D0E94A0372B013C018A2DF8
:2029A0000E94E3246B2D0E94DE24282F30E08301720145E064E0F601838D948D0E94C937A1
:2029C000882309F457C1B394F3E0BF12A2CF2DC1382C882D0E94E324282F30E042E064E05E
:2029E000F601838D948D0E94A037EA2DF0E0042C000C550866087708672B682B692BF9F027
:202A0000912CCF018F579C4F5C01832D0E94E324692D0E94DE24282F30E083017201F50114
:202A2000408164E0F601838D948D0E94C937882309F420C19394F3E09F12E7CFF6C0EF57E1
:202A4000FC4F8301720109C0E02E000FFF08000B110BEA2DF0E0EF57FC4F9401408164E00E
:202A6000DCC0442329F0F1E04F1709F463C002C12330310520F42130310548F028C0243088
:202A80003105B1F148F125303105F1F1F3C0F1E0F01708F4EFC00023B1F021E030E041E08C
:202AA00065E0FC01838D948D0E94A037162F20E030E041E065E0F601838D948D0E94A037CE
:202AC00021E0412F4EC021E043E062E04AC0F1E0F01708F4CFC0C1C041E0401708F4CAC025
:202AE000602F6170F60187A190A50E941745B5C0F1E0F01708F4BEC0602F6170F60187A1DE
:202B000090A50E94333DA9C08FEF800F853008F0B1C028EE33E00203A001039F500D1124D7
:202B2000052E000C660B770BF60187A190A50E94274593C02115310521F021303105B9F001
:202B400099C042E0401708F495C021E030E041E065E0FC01838D948D0E94A037462F21E0BE
:202B6000602FF60187A190A50E940E4176C0F3E0F01708F47FC020E030E041E065E0FC01C3
:202B8000838D948D0E94A03721E0402FEACFF4E04F1301C04A94E42C440CFF08000B110BFF
:202BA000EA2DF0E0E456FC4F9401408161E0F601838D948D0E94C937882309F45BC0F1E0B4
:202BC000FA1598F1682DF601878D90A10E94321E2CC0F4E04F1301C04A94E42C440CFF0872
:202BE000000B110BEA2DF0E0ED56FC4F9401408162E0F601838D948D0E94C937182F682DFB
:202C0000F60181A192A10E94511E0DC0E42C440CFF08000B110B94014A2DF601838D948DC8
:202C20000E94C937182F112329F1E12C00E010E020E030E047E060E0F60187A190A50E9413
:202C40007F3F81E026C06AE01FCEE42C440CFF08000B110B940140E002CFE42C440CFF08BD
:202C6000000B110BEA2DF0E0E158FC4F9401408165E0D3CF80E00DC0E42C440CFF08000BE6
:202C8000110BEA2DF0E0EF55FC4F9401408160E0C4CF0F900F900F900F90DF91CF911F917D
:202CA0000F91FF90EF90DF90CF90BF90AF909F908F907F906F905F904F903F9008950F93D2
:202CC000CF93DF93EC0161E18D8D9E8D0E94913020E030E040E060E08B8D9C8D0E94A0371F
:202CE0008D8D9E8D0E946E3421E030E040E060E08B8D9C8D0E94A03721E0672B682B692B66
:202D000009F420E0622F8D8D9E8D0E94143061E08D8D9E8D0E948234CE0112DB23E030E04D
:202D200040E060E08B8D9C8D0E94A037672B682B692B09F441C022E030E040E060E08B8D38
:202D40009C8D0E94A03721E0672B682B692B09F420E0622F8D8D9E8D0E94893322E030E0D4
:202D600040E060E08B8D9C8D0E94A037672B682B692BB1F020E030E041E060E08B8D9C8D2D
:202D80000E94A037633039F400E021E040E056E960E070E00BC0CE01DF91CF910F917ECBD7
:202DA00001E021E042E15AE760E070E0CE01A3DADF91CF910F91089580E00E94333B60E034
:202DC00070E08D8D9E8D0E94873460E070E08D8D9E8DDF91CF910F910C948D34CF92DF9289
:202DE000EF920F931F93CF93DF9300D000D0CDB7DEB76C01162F9C838B839A8389836535CF
:202E0000A1F1C8F4643489F148F4623451F1633409F074C0CE01039654D823C06D3409F465
:202E200048C0603509F06AC0FC01838D948D0E94F907682F4AC0653609F45CC040F46635DE
:202E400061F0643609F05AC0FC0111A659C06D3609F43FC06F3749F051C0CE01039631D8A7
:202E60004FC0CE01019641D84BC0F60185A196A10E94632480E090E00196853CF9E09F0795
:202E800039F0EFE9FFE03197F1F700C00000F4CF143439F460E0F601838D948D0E949D09FA
:202EA00004C0153511F481E001C080E00E94B72627C068E10E94C02A68E0C6010E94C02AA7
:202EC00068E0C6010E94C02A60E1C6010E94C02A17C020E030E041E060E0FC01838D948D4D
:202EE0000E94A037633061F4C6019FDA63E0C601D5DA06C081E0F60181A702C080E00DC043
:202F0000E12C00E010E020E030E047E060E0F60187A190A50E947F3F81E00F900F900F906B
:202F20000F90DF91CF911F910F91EF90DF90CF900895BF92CF92DF92EF92FF920F931F935F
:202F4000CF93DF937C010E941926882309F46BC06701C0E0D0E09E0140E063E0D7018D91BC
:202F60009C910E94A037672B682B692B09F448C0BC2E8C2F0E940B268C019E0142E063E0E4
:202F8000F701808191810E94A037D7019C968C918823B1F00730110574F0093FB3E01B078C
:202FA0006CF4F601848595859695879515950795080F191F05C000E010E002C00FEF13E073
:202FC0006330A1F0623069F020F08CEF860F8430B8F4012E000C220B330B4B2DC70143D069
:202FE0000FC0A8016B2DC701A1D20AC0D7011A96ED91FC911B97309719F0B8018B2D099598
:203000002196B2E0CB0ED11CC830D10509F0A3CFDF91CF911F910F91FF90EF90DF90CF906C
:20302000BF900C941C26DF91CF911F910F91FF90EF90DF90CF90BF900895DC01A60FB71F0F
:2030400094961C9294976A5F7F4F660F771FFC01E60FF71F118210825C961C920895FC0164
:203060007387628708952F923F924F925F926F927F928F929F92AF92BF92CF92DF92EF9223
:20308000FF920F931F93CF93DF93CDB7DEB76D970FB6F894DEBF0FBECDBF1C016F874D872C
:2030A00068017901862F8550833038F01E8626E030E0EFE7AE2EB12C08C021E02E8721E000
:2030C00030E0AA24AA947FE3B72E4D85842F90E0AC01440F551FB101640F751F7C8F6B8F66
:2030E000DB011C968D909C901D972401612C712CC414D504E604F70410F012E001C011E0BC
:20310000F101E80FF91FFA8BE98B04A1002399F0101729F0FE85FF2311F0220F331FC60134
:203120008819990997FF03C09195819591098217930708F4E2C1950140E050E029873A87F4
:203140004B875C873FEFA31633E0B30609F458C04FEFA41643E0B40670F5A701960189846C
:203160009A84AB84BC846FEF861A960AA60AB60AC501B4010E94E8496D837E838F83988744
:20318000A3019201C501B4010E94E8492B013C013AE076946794579447943A95D1F78D80B8
:2031A0009E80AF80B8844AE0B694A794979487944A95D1F727C0A701960169857A858B85C7
:2031C0009C850E94E84944244A9423E0522E612C712CA30192010E94244A2D833B8B4F8B71
:2031E0005D8F9401D5010E94464AA30192010E94244A29013A018D809B88AF88BD8C02C028
:203200004601570184149504A604B70411F4011174C1CF8AD88EE98EFA8E0F856101A98947
:20322000BA8994961C93BD85EB2EF12C970144E063E0F101808191810E94A0376D837E838C
:203240008F8398872D813E81388B2F87970145E063E0D1018D919C910E94A0372B013C0158
:203260007A8B698B970143E063E0F101808191810E94A0376B8B7C8B8D8B9E8B2B883C8824
:20328000970146E063E0D6018D919C910E94A037162FBE85B11122C0EB89FC89FC83EB8380
:2032A000CE0101960E9404102A80312C2D813E813C832B83CE0101960E9404108A81482F73
:2032C00050E0588B4F875C824B82CE0101960E9404108A81682F70E07A8B698BE989FA895E
:2032E000CF01A0E0B0E02F8538892901612C712C411451046104710449F449855A856B85C7
:203300007C85481759076A077B0791F1BC01CD01641975098609970929853A854B855C85A5
:20332000621773078407950798F49B01AC012F5F3F4F4F4F5F4FC501B4010E94E84929853A
:203340003A854B855C852F5F3F4F4F4F5F4F08C0A50194010E94E84929853A854B855C85A1
:203360000E94244A53014201820E931EA41EB51E970141E063E0D6018D919C910E94A03739
:20338000672B682B692B51F029853A854B855C85281939094A095B0949015A01063028F4E4
:2033A000043030F5023038F0A8C0063009F47DC00730F1F0A2C0D60112968D919C91139794
:2033C000EE24E394E10E212F482D622D01110AC00E94FD2F8401910142E061E0F6018681FF
:2033E000978176C00E94DB2F8401910141E06AC03C822B82CE0101960E9404100730C1F002
:20340000212F498163E6F601828193810E94FD2F212F4A8162E6D60112968D919C91139796
:203420000E94FD2F043021F4212F482D66E02CC0FA802F2C312C9C828B82CE0101960E9419
:2034400004100730A1F4F0E62F16310408F042C0212F49816F2DD60112968D919C91139718
:203460000E94FD2F60E26F0D212F4A810DC0212F498166E0D60112968D919C9113970E9462
:20348000FD2F212F4A8166E2F601828193810E94FD2FEE24E394E10EC401073011F442E026
:2034A00001C047E18C0191010DC0412FB401F601828193810E940530EE24E394E10E840130
:2034C000910146E061E0D60116968D919C9117970E947F3FD6011896ED91FC911997019046
:2034E000F081E02D309719F06D8583E009952F89388DEB8DFC8D358724876D960FB6F89452
:20350000DEBF0FBECDBFDF91CF911F910F91FF90EF90DF90CF90BF90AF909F908F907F90CE
:203520006F905F904F903F902F9008954F925F926F927F928F929F92AF92BF92CF92DF92F9
:20354000EF92FF920F931F93CF93DF93EC01F62E5A01CA01A0E0B0E088329105A105B1053E
:2035600058F0853521E09207A105B10548F084E591E0A0E0B0E004C088E290E0A0E0B0E083
:203580008897A109B109BC01CD0127E0660F771F881F991F2A95D1F72DE231E040E050E0B5
:2035A0000E94244A29013A01CF2CD12CFE01EC0DFD1D848D232B242B252B71F1811166C074
:2035C00081E0848F960143E063E0888199810E94A037962E960146E063E0888199810E9455
:2035E000A037862E262F442D692D8A819B810E94DB2FEE24E394E80C292D30E0820141E08A
:2036000061E08E819F810E947F3FEE24E394082D242D492D60E92DC08823C1F1148E960189
:2036200043E063E0888199810E94A037762E960146E063E0888199810E94A037662E262F5F
:2036400040E0672D8A819B810E94E32FEE24E394E60C272D30E000E010E040E061E08E81BC
:203660009F810E947F3FEE24E394062D20E0472D60E88C819D81A8D7E885F9850190F081BB
:20368000E02D309719F06F2D83E0099586E0C80ED11CCC0CDD1CCC0DDD1DB982A882DF910E
:2036A000CF911F910F91FF90EF90DF90CF90BF90AF909F908F907F906F905F904F90089529
:2036C000AF92BF92CF92DF92EF92FF920F931F93CF93DF93EC01042F122FA62EB12C9501A4
:2036E00042E061E0888199810E94A037F62E950144E061E0888199810E94A037D62E950176
:2037000043E061E0888199810E94A037C62E133141F4950141E061E0888199810E94A037A8
:20372000162FFCA6002309F40CC1173009F4B0C010F5143048F4123008F083C01123C1F119
:20374000113009F468C05BC18A819B81AE01465D5F4F153009F48EC008F0E5C021E02EA7BD
:2037600066E070E00E94652D2CA530E0E12C00E010E043E13FC11B3009F4B1C088F48A815D
:203780009B81193009F497C008F09FC068EF0E94202FE12C00E010E020E030E04CE02AC1CD
:2037A0001D3009F4B4C008F4A6C01031E0F027C12D2D4C2D6F2D8A819B810E94DB2FEE249C
:2037C000E394ED0C0C2D10E02F2D30E041E061E08E819F810E947F3FEE24E3940D2D2C2DD7
:2037E0004F2D60E9F1C01130B1F08D2D90E0FC01EC50F74F20811E3029F42F3709F4FFC09A
:203800002F5F04C012160CF0FAC021502083FC01EC50F74FF0804D2D6F2D8A819B810E9496
:20382000F52FEE24E3940D2D20E04F2D60EC8C819D81CAD6ED0C2F2D30E000E010E043E0B6
:20384000D9C02D2D4C2D6F2D8A819B810E94FD2FEE24E394ED0C0C2D10E02F2D30E042E032
:2038600061E08E819F810E947F3FEE24E3940D2D2C2DA8C022E02EA721E066E070E00E94E4
:20388000652D2CA530E0E12C00E010E042E1B2C089E08EA7AE01465D5F4F21E066E070E00E
:2038A0008A819B810E94652D2CA530E0E12C00E010E044E19FC06AEF0E94202FE12C00E034
:2038C00010E020E030E04DE095C06BEF0E94202FE12C00E010E020E030E04EE08BC06CEF5A
:2038E0008A819B810E94202FE12C00E010E020E030E04FE07FC06EEF8A819B810E94202FE0
:20390000E12C00E010E020E030E040E173C06FEF8A819B810E94202FE12C00E010E020E013
:2039200030E041E167C026E02EA721E066E070E00E94652D2CA530E0E12C00E010E045E1A4
:2039400059C0133039F1163009F442C0111157C02D2D40E06F2D8A819B810E94E32F8A8167
:203960009B810E947334EE24E394ED0C2F2D30E041E0813009F440E000E010E061E08E81E5
:203980009F810E947F3FEE24E3940D2D20E04F2D60E81AC02D2D40E06F2D8A819B810E9467
:2039A000FD2FEE24E394ED0C2F2D30E000E010E042E061E08E819F810E947F3FEE24E394A2
:2039C0000D2D20E04F2D60EB8C819D81FDD517C087E08EA7AE01465D5F4F21E066E070E0DF
:2039E0008A819B810E94652D2CA530E0E12C00E010E046E161E08E819F810E947F3FDF9147
:203A0000CF911F910F91FF90EF90DF90CF90BF90AF9008959C01962F96959695969588E0A4
:203A2000989F60191124E92FF0E0E20FF31F81E090E0A0E0B0E004C0880F991FAA1FBB1F1F
:203A40006A95D2F7442319F022A1822B03C0809592A1892382A30895262F269526952695BF
:203A6000820F911DFC0182A190E0F8E02F9F6019112402C0959587956A95E2F781700895B5
:203A80009C01962F96959695969588E0989F60191124E92FF0E0E20FF31F81E090E0A0E0BA
:203AA000B0E004C0880F991FAA1FBB1F6A95D2F7442319F026A1822B03C0809596A1892359
:203AC00086A30895262F269526952695820F911DFC0186A190E0F8E02F9F6019112402C0B1
:203AE000959587956A95E2F781700895CF92DF92FF920F931F93CF93DF93EC01062FF42E4B
:203B0000ABDF8F1509F466C04F2D602FCE0182DFC02ED12C960141E061E0888199810E9470
:203B2000A037162F603109F444C0960140E061E0888199810E94A037163038F41430F8F4A1
:203B40008FEF810F823040F41AC0103118F4173028F015C01131D9F0613089F4FF20A9F045
:203B6000602FCE01AFDF882331F040E0602FCE0187DFF12C04C041E0602FCE0181DF212F99
:203B80004F2D602FCE019CDD14C0113161F4960142E061E0888199810E94A03788819981AE
:203BA0000E940C0806C0123121F440E0602FCE016BD0E885F9850190F081E02D309751F076
:203BC000602F81E0DF91CF911F910F91FF90DF90CF900994DF91CF911F910F91FF90DF90BD
:203BE000CF900895FC01E60FF11D9285990F406F492B428781E0403F21F04F3F11F080E03E
:203C0000089508950F931F93CF93DF938C01C0E08C2F43D7282F30E040E062E0F80180817D
:203C200091810E94A037672B682B692B69F48C2F1DD7D82F482F6C2FC801D4DF882321F0E3
:203C40004D2F6C2FC80152DFCF5FC03109F7DF91CF911F910F91089581E0693E734008F4C0
:203C600080E008951F93CF93DF93EC01162FFC01E60FF11D128640E0CDDE40E0612FCE01AD
:203C8000DF91CF911F91FCCE08952FB7F89460914D0970914E0980914F09909150092FBF5B
:203CA00008950F931F93CF93DF938C01C62FD0E09E0142E062E0FC01808191810E94A03781
:203CC0009E012C5F3F4F653071058105910559F4C901880F991FF801E80FF91F80E090E2C5
:203CE0009183808308C0C901880F991FF801E80FF91F11821082FE013696EE0FFF1FEE0FBC
:203D0000FF1FE00FF11F1082118212821382F801EC0FFD1F10AEDF01A85BBF4F1C9218961D
:203D20001C9218961C92E05AFF4F1082DF91CF911F910F9108950F931F93CF938C01C0E0BF
:203D40006C2FC801AEDFCF5FC830D1F7CF911F910F910895860F911D860F911DFC015187DC
:203D600040870895CF92DF92EF92FF920F931F93CF93FC01262F30E08C01020F131FD8013A
:203D8000A85ABF4F8C914370982F990F990F492B942F90689C9387FD02C080E032C04F7077
:203DA000DF01A40FB11DA859BF4F8C91D801A05ABF4F9C91C82FC90FCC9345E062E08081D2
:203DC00091810E94A0372C2FCC0F330B37FF03C03195219531096901330FEE08FF08C616B0
:203DE000D706E806F906CCF2F801E05AFF4F8081181614F082E001C081E0F801E05AFF4F82
:203E00001082CF911F910F91FF90EF90DF90CF9008952F923F924F925F926F927F928F9250
:203E20009F92AF92BF92CF92DF92EF92FF920F931F93CF93DF9300D000D0CDB7DEB76C018D
:203E40005C0148E3A40EB11C2C013C01812C912C940140E062E0D6018D919C910E94A037F5
:203E6000672B682B692B09F4C4C1882D18D6482F682DC60177DF382E08DFF201008D118DD0
:203E8000228D338DDC01CB01801B910BA20BB30BC397A105B10530F0D50158961C92589731
:203EA00050961C92332009F4A4C1940141E062E0F601808191810E94A037672B682B692B85
:203EC00041F0F1E03F1619F03324339402C032E0332ED50158968C915897843081F018968C
:203EE0008C911897381611F058961C92F501808D8F5F843011F0808F02C0108E308A9401A7
:203F000046E062E0F601808191810E94A037162F662351F1BADED20158962D913D914D91E3
:203F20005C915B97DC01CB01821B930BA40BB50BF5018C389105A105B105A8F440819601AF
:203F4000210F311DF901E858FF4F808190E03496208130E0840F911D281739070CF4C901E5
:203F6000D5018C9301C01082D50118963C928DDEF201608F718F828F938FD50150968C914E
:203F80008111382E940143E062E0F601808191810E94A037F62E940144E062E0D6018D9198
:203FA0009C910E94A037E62E940142E062E0F601808191810E94A037262ED5018C918111F2
:203FC00001C081E0B2E02B16E1F02B1650F0E3E02E1609F446C09BEF920D943008F0FCC0EF
:203FE0003CC0822D90E0FC01EE0FFF1FE80FF91FEC0DFD1DE30DF11DE058FF4F008110E077
:2040000049C0EE2DF0E041E0DF01AC50B74F8C91341204C08F3741F08F5F03C0181624F494
:2040200081508C9381E001C080E0EC50F74F6081062F062E000C110B882309F4CDC04E2D6A
:20404000D60112968D919C9113970E94F52FE3942F2D2F7730E043E02EC055E0251609F41F
:20406000DAC099EF920D923008F4D5C061E03612DFC0D30118962D913C911997F901E81B4A
:20408000F109F7FDCFC01996FC93EE931897F30100851185F5E02F1213C04E2DB801D60132
:2040A00012968D919C9113970E940530E3942F2D2F7730E046E061E0F6018481958178C052
:2040C0008AEF820D833008F05DC08F2D90E09C838B83CE0101960E9404102E2D498163E62D
:2040E000D60112968D919C9113970E94FD2F2E2D4A8162E6F601828193810E94FD2FF6E05E
:204100002F1209C02E2D402F66E0D60112968D919C9113972DC0FA801C830B83CE01019617
:204120000E940410B8E02B1213C0EFE5EF1508F497C02E2D49816F2DD60112968D919C916B
:2041400013970E94FD2F2E2D4A8160E26F0D0DC02E2D498166E0D60112968D919C91139757
:204160000E94FD2F2E2D4A8166E2F601828193810E94FD2FE3942F2D30E0F8E02F1689F0AE
:2041800047E110C0B4E02B16B1F02E2D402F6F2DF601828193810E94FD2FE3942F2D2F77F6
:2041A00030E042E061E0D60114968D919C9115970E947F3F11C0F601808191810E94E3074D
:2041C000F2E03F1611F06FEF01C061E0680FD6018D919C910E940C08D6011696ED91FC917A
:2041E00017970190F081E02D309719F0682D82E00995BFEF8B1A9B0AEFEFAE1ABE0AF4E063
:204200004F0E511C42E0640E711C58E08516910409F01ECE25C0823018F0880F880F19C0C0
:2042200081E017C0D30119961C921E9218972FCF4FE750E0F30120853185B901680F711D44
:20424000461757071CF07187608721CF518740871ECF71E0371609F40CCF4FEF5FE3EACF8D
:204260000F900F900F900F90DF91CF911F910F91FF90EF90DF90CF90BF90AF909F908F90EA
:204280007F906F905F904F903F902F900895CF92DF92FF920F931F93CF93DF93DC015396C6
:2042A0008D919C915497892B09F475C052968C915297882319F08130B9F16DC08FB7F894E6
:2042C00040914D0950914E0960914F09709150098FBFD6960D911D912D913C91D997401B80
:2042E000510B620B730B443651056105710508F452C08FB7F89440914D0950914E0960919B
:204300004F09709150098FBFD6964D935D936D937C93D99753964D915C915497FD0120E045
:2043200030E0FF24F39420C06111F4CF34C092AD9F2592AF13A684E0C82E89E0D82EBD0136
:20434000E601888181FD19C0DFEFCD1ADD0A6F5F7F4F84E1C81689E0D80691F72F5F3F4FB0
:2043600031962B303105B9F083A58F5F83A7EA019991AE018917D8F6F1CFEB010A8110E0A3
:204380000217130709F7992311F0846001C08B7FE6018883D9CFDF91CF911F910F91FF9035
:2043A000DF90CF900895DF92EF92FF920F931F93CF93DF9300D01F92CDB7DEB77C01062F9B
:2043C000142F862F00D3D82E282F30E042E064E0F701808191810E94A037672B682B692B02
:2043E00071F060E08D2DEAD2898361E08D2DE6D28A8362E08D2DE2D28B8343E004C00983A9
:204400000A830B8341E0BE016F5F7F4F9B0150E0D701A00FB11D1296C901861B970B841794
:204420009507CCF4F9018081E82FF0E0EC5FF64F8081112311F0866009C0982F9D7F9083D3
:2044400080FF03C09460908302C0897F80831C932F5F3F4FE1CF0F900F900F90DF91CF911E
:204460001F910F91FF90EF90DF9008951F93CF93DF93E62FF0E0EC5FF64F808180FF2CC06B
:2044800083FF2CC0862F9FD2182F60E097D2E82FF0E0EC5FF64FD08161E0812F8FD2E82F67
:2044A000F0E0EC5FF64FC08162E0812F87D2E82FD6FB882780F9C5FB992790F9880FC82F69
:2044C000C92BF0E0EC5FF64F808184FB992790F98C2F880F892B03C080E001C081E0DF9104
:2044E000CF911F910895E62FF0E0EC5FF64F80818695817008950F93E62FF0E0EC5FF64FD9
:2045000080814423A1F080FD80E0222339F0013051F038F0023049F08D600AC0877F8560B0
:2045200007C08D6105C08D6203C08D6401C080E080830F910895DF92EF92FF920F931F9326
:20454000CF93DF93EC01F62E142F862F3CD2082F282F30E042E064E0888199810E94A037D0
:20456000672B682B692BF9F060E0802F27D2D82E61E0802F23D2E82E62E0802F1FD2F82EA8
:2045800000E020E0412F41706D2DCE01B4DF41E011FF40E000E020E06E2DCE01ACDF41E0D7
:2045A00012FD05C003C041E0111101C040E000E020E06F2DCE019FDFDF91CF911F910F9157
:2045C000FF90EF90DF9008952F923F924F925F926F927F928F929F92AF92BF92CF92DF9295
:2045E000EF92FF920F931F93CF93DF93CDB7DEB72F970FB6F894DEBF0FBECDBF5C01162FB9
:20460000F22E242F22952F702D833F2C32949FE039228F2D6BE00E94F749982E3AE03817FE
:2046200010F48AE0982EC12CD12C802F90E0A0E0B0E08E839F83A887B987842F90E0A0E0E8
:20464000B0E089839A83AB83BC83222423942F0C2F2D30E040E050E02A873B874C875D8716
:20466000012F0F7E960145E064E0D5018D919C910E94A0372E813F814885598562177307D6
:204680008407950709F0EEC0960143E064E0D5018D919C910E94A037EE2041F16530A9F046
:2046A00040F4613059F0633009F04AC0E1E0EE8735C0663069F0683091F042C01039F1F1F6
:2046C000B1E0BE871038B9F537C0F1E0FE8731C00038B1F581E08F8791E09E8744C0103B96
:2046E00079F5A1E0AF87B1E0BE873DC06430F9F028F4662341F0623069F022C0663089F093
:20470000683091F01DC00038E9F021E02F87103BB9F41EC00038D1F031E03E87103B59F49E
:204720000BC0003869F416C0103B51F418C041E04E87103C09F01E861F8615C01F8611C00C
:204740001F8606C01F86E1E0EE870DC0F1E0FF871E8609C021E02F8731E03E8704C041E010
:204760004F8751E05E878C2C8C2D2DD1282F30E042E064E0D5018D919C910E94A0372B014B
:204780003C01BE85BB2309F444C0960141E064E0F501808191810E94A03729813A814B810B
:2047A0005C81621773078407950769F5103C31F4452846284728F1F07D8020C04528462850
:2047C0004728D9F43F85311118C0960144E064E0D5018D919C910E94A037772473942A85D5
:2047E0003B854C855D85261737074807590731F0712C04C07724739401C0732C472D682D8F
:20480000C50199DE07C0103C21F440E06C2DC50192DE712C3F85332329F1960141E064E077
:20482000D5018D919C910E94A03729813A814B815C816217730784079507A1F43E85332308
:2048400069F0FF2049F0772039F0422D50E1759E401911244B3018F040E001C0492D682D37
:20486000C501A1DD8FEFC81AD80A90E1C916D10409F0F8CE2F960FB6F894DEBF0FBECDBFC2
:20488000DF91CF911F910F91FF90EF90DF90CF90BF90AF909F908F907F906F905F904F9064
:2048A0003F902F9008950F931F93CF938C01C0E041E06C2FC8013FDECF5FC031C9F7CF9109
:2048C0001F910F9108950F931F93CF938C01C0E040E06C2FC8012FDECF5FC031C9F7CF9138
:2048E0001F910F910895CF93DF93EC01DCDF80E090E00196813D27E0920739F0EFE9FFE0AA
:204900003197F1F700C00000F4CFCE01DCDF80E090E00196813DF7E09F0739F0EFE9FFE058
:204920003197F1F700C00000F4CFDF91CF910895FC01662319F0613019F00895809601C03A
:204940004596948B838B628B0895CF93DF93EC01662371F022E030E040E064E08881998181
:204960000E94A037672B682B692B11F0CE01BBDF20E030E040E064E0888199810E94A0378B
:20498000CE01D6DFFE01FA96CB5BDF4F81E08193EC17FD07E1F7DF91CF910895FC01BB96A1
:2049A000C69621E011922687E817F907D9F70895E82FF0E0EC5FF64F80810895982F990F5A
:2049C000890F860F08959BEA899F812D11248695853008F084E00895EF92FF920F931F934E
:2049E000CF9308E119E0C0E0EE24E394F12C8C2FDFDF857091E0853009F090E090931709ED
:204A00008C2FA5D260931409709315098093160980911709F80190819817E9F0E0911409B0
:204A2000F091150990911609882349F04081970101C0220F9A95EAF7242B20830AC02081FB
:204A4000A70101C0440F9A95EAF7942F909592239083F8018083CF5F0F5F1F4FC03139F6B4
:204A6000CF911F910F91FF90EF900895982F969596959695E92FF0E0E25DF64F208130E076
:204A800048E0949F80191124A90102C0559547958A95E2F7CA018170089586950895CF9350
:204AA000DF93C82FCC0F8C2FE1DFD82FDD0F81E08C0FDCDF8D2BDF91CF91089580912B0923
:204AC000882339F19FB7F89480912C098F5F80932C09853011F410922C09E0912C09F0E09C
:204AE000EE0FFF1FE05DF64F808180932E09E0912C09F0E0EE0FFF1FE05DF64F81818093A6
:204B00002F0980912B09815080932B099FBF81E0089580E00895BF92CF92DF92EF92FF9272
:204B20000F931F93CF93DF93B12C00E010E0C12CD12C7601C394C0E0D0E08C2F8B0DFAD17A
:204B4000FB01609328097093290980932A093297808190E000902A0902C0959587950A9417
:204B6000E2F720912D0980FD15C0C801820F911D820F911DFC01E05DF64F2081D701C6011D
:204B80000C2E04C0880F991FAA1FBB1F0A94D2F7822B16C0C801820F911D820F911DFC01F7
:204BA000E05DF64F9081B701A6010C2E04C0440F551F661F771F0A94D2F74095842F892388
:204BC00080832196C830D10509F0B7CF0F5F1F4F38E0B30E80E1B812AECFDF91CF911F91F1
:204BE0000F91FF90EF90DF90CF90BF90089580912B09853078F480912D098F5F80932D0969
:204C0000853011F410922D0986DF80912B098F5F80932B0908952FB7F894E82FF0E0EE0F30
:204C2000FF1FE65CF64F80819181118210822FBF089580914A09089510924A0910924B0920
:204C4000EAE7F0E0808180648083089580914C09833021F08F5F80934C0929C010924C09CE
:204C6000209178003091790080914B09E82FF0E0EE0FFF1FE65CF64F40815181240F351FC9
:204C8000318320838F5F883019F080934B0905C010924B0981E080934A0980914B0944D1AB
:204CA00090917C00907F8F70892B80937C0080914A09811105C080917A00806480937A004F
:204CC00008951FBA10BE1CBC1DBA1092680010927A0010926E0010926F00109270001092E6
:204CE00071001092C8001092C9001092CA001092BC0012B815B818B81BB81EB811BA11B800
:204D000014B817B81AB81DB810BA0895F89484B7877F84BF80916000806180936000109273
:204D200060008FE19EE40197F1F700C00000C9DF98E088E10FB6F894A895809360000FBE8A
:204D400090936000FFCFF89484B7877F84BF0FB6F894A895809160008861809360001092F5
:204D600060000FBE36D186D10E94DB3CABC1882321F0813039F467E401C06FEF8FEF9FE082
:204D80000E94844DC3DF0F931F938DEF9FE00E94614D41E559E060E8772748E950E060E079
:204DA00070E06BBFFA0147915791679176914093510950935209609353097093540901E5BF
:204DC00019E020E833276BBFFA01679176918617970731F08DEF9FE00E94804D81E001C06C
:204DE00080E01F910F910895CF93DF93DC01CB01E901433028F0433069F40E94614D03C091
:204E00000E94544D90E0A0E0B0E088839983AA83BB8306C00E945C4D688379838A839B831A
:204E200081E0DF91CF9108950F93DC01CB01BA01033030F0033041F4B9010E94804D07C0F3
:204E4000622F0E94664D03C0A9010E94784D81E00F9108951F920F920FB60F9211240BB64C
:204E60000F922F933F934F935F936F937F938F939F93AF93BF93EF93FF93E8DEFF91EF9143
:204E8000BF91AF919F918F917F916F915F914F913F912F910F900BBE0F900FBE0F901F90A0
:204EA00018951F920F920FB60F9211240BB60F922F933F934F935F936F937F938F939F9326
:204EC000AF93BF93EF93FF939091240381E08927809324038823A1F080914D0990914E097C
:204EE000A0914F09B09150090196A11DB11D80934D0990934E09A0934F09B09350096CDD19
:204F000076DEFF91EF91BF91AF919F918F917F916F915F914F913F912F910F900BBE0F90D6
:204F20000FBE0F901F901895E82FF0E0EC5FFB4F8081089590E0FC01EE0FFF1F8E0F9F1FAC
:204F4000FC01EC52FC4F608171818281089590E0FC01EE0FFF1F8E0F9F1FFC01EC55FC4FEC
:204F6000608171818281089510927C0010927A00803269F030F4803171F480917A008460D0
:204F80000DC0803441F480917A00866007C080917A00856003C080917A00876080937A00F1
:204FA000923041F0933051F0913069F480917C00806407C080917C00806C03C080917C00DB
:204FC000806880937C0080917A00806880937A00089526982E9A25982D9A24982C9A239876
:204FE0002B9A22982A9A2198299A2098289A6F98779A6E98769A0898109A0D98159A09980B
:20500000119A0E98169A0A98129A0F98179A0B98139A279A2F98549A5C98559A5D98569A5B
:205020005E98579A5F98689A7098699A7198389A4098399A41983A9A42983B9A43983C9AF2
:2050400044983D9A45983E9A46983F9A47980C9A1498809888988198899882988A98839837
:205060008B9884988C9885988D9886988E9887988F98089580E891E077DF80E055DF909180
:205080007C00907F8F70892B80937C0083E090E020917A00206420937A0020917A0026FD46
:2050A000FCCF2091780030917900019789F780917A00886080937A0080917A008064809328
:2050C0007A00089514BC15BCEEE6F0E0108284B5826084BD85B5836085BD8CE787BD80816F
:2050E0008260808308959FB7F89423E030E0882399F05E984FEF59E668E141505040604088
:20510000E1F700C000005E9A4FEF59E668E1415050406040E1F712C05E9A4FEF53EC69E010
:20512000415050406040E1F700C000005E984FEF53EC69E0415050406040E1F700C0000001
:2051400021503109A1F69FBF08950F931F93CF93DF93FC01118A108A1282108E611571059A
:2051600009F44CC0442309F449C075836483468380E090E060E070E050E0641775070CF08E
:205180003FC020E030E0C0E0D0E0A481B581A80FB91F0C9110E0C017D10764F511960D90ED
:2051A000BC91A02DA20FB31F0D911C911197689414F8169507951694E1F714960C93A48120
:2051C000B581A80FB91F11960D90BC91A02DA20FB31F0D911C9111970F711127012B31F031
:2051E00014961C9114971F5F14961C9321962B5F3F4FCBCF6F5F7F4F0396BFCF80E001C089
:2052000081E0DF91CF911F910F910895FC0161157105D9F04423C9F0738B628B80E090E0E3
:20522000242F30E0821793076CF46E5F7F4FDB0112975C91563020F4138A128A148A05C035
:205240000196F0CF448B81E0089580E00895FC0182810895FC018FE0878383E0808782E04F
:2052600081871286138614861686158617860895DC015096ED91FC9151978181811107C0D9
:205280008281833521F481E09381933409F080E00895FC0191858085911106C08823C1F12F
:2052A0008230B1F18DE008958823A1F1823091F192858385A481B58123E0929FA00DB11DF6
:2052C000112411960D90BC91A02D95E0899FA00DB11D11242D913C91119721323105A8F09A
:2052E000848590E0BC016F5F7F4F14964C9150E06417750741F445E0880F991F4A95E1F7CE
:20530000281B390B02C020E230E08BE0820F08958CE008958BE00895DC011A968C911A972D
:205320001496ED91FC91159793E0899FE00DF11D112481E01B962C919081291708F080E0C9
:205340000895FC0180852485811117C082E8820F823088F1928583850480F581E02D33E03D
:20536000939FE00DF11D11240180F281E02D55E0859FE00DF11D112418C0823021F482E838
:20538000820F8230C0F04285338584819581FC0153E0459FE00DF11D11240180F281E02D3B
:2053A00085E0389FE00DF11D112481E09481291718F080E0089581E00895DF92EF92FF9245
:2053C0000F931F93CF93DF93FC010589083011F411E05CC0C089D1890B3098F112811111B4
:2053E00002C083E028C08D8184879E819087DF80D1868885828729852387933020F084E0F6
:205400008C8310E043C09681891710F086E0F8CF7F01CF0181DF182F811102C087E00BC029
:2054200031E03D1510F485E0EBCFC7018ADF182F811103C088E08C8329C0C7012ADF0817C9
:2054400011F08BE0DDCF81E08C83D70119968C9119978111BDCF5096ED91FC9151971C96C7
:205460008C912285B0E28B9FC0011124820F911DD7011E969C938E931D9718968C9118976D
:20548000813009F0A5CF83851F968C93812FDF91CF911F910F91FF90EF90DF900895FC012B
:2054A00092858385A481B58123E0929FA00DB11D112411960D90BC91A02D95E0899FA00DE6
:2054C000B11D112481E0458556852D913C914217530708F080E00895FC0192858385A4814F
:2054E000B58123E0929FA00DB11D112411960D90BC91A02D95E0899FA00DB11D112412963F
:205500008C91129713962C91821739F09785981734F081E0291724F402C081E0089580E0D5
:205520000895DC01611112C056968C9156975096ED91FC915197E80FF11D87EF8083569674
:205540008C9156978F5F56968C93569713968C911397882329F018968C91189781110FC04C
:2055600050966D917C915197ED91FC9111970680F781E02D56964C915697CD0109940895D6
:20558000FC0180899189009751F02689DC01A20FB11D6C9386898F5F868B81E0089580E09D
:2055A0000895CF92DF92EF92FF920F931F93CF93DF93EC017A01798B688B1E8A80EFFB01D0
:2055C00080838E898F5F8E8BE889F989E80FF11D10828E898F5F8E8BE889F989E80FF11D0A
:2055E00083E580838E898F5F8E8BE889F989E80FF11D83E480838E8991E0980F9E8B488997
:205600005989892F90E0FA01E80FF91F002319F031E0308301C010828E898F5F8E8BE889A4
:20562000F989E80FF11D10828E898F5F8E8B8701C22ED12CC8018E199F098C159D0534F43B
:20564000F80161918F01CE019BDFF4CF60E0CE01DF91CF911F910F91FF90EF90DF90CF90B8
:2056600060CF2F923F924F925F926F927F928F929F92AF92BF92CF92DF92EF92FF920F931B
:205680001F93CF93DF9300D000D0CDB7DEB77C01DC015696BC91BC83FC019085892F8D7F23
:2056A000C9F5248582E8820F8230D8F4328583850480F581E02D43E0349FE00DF11D11241E
:2056C0000180F281E02DA5E08A9FE00DF11D11248481B1E0BA832E3709F01A82E1E0EB83EF
:2056E00003C01B821A8281E09230B9F4D7015096ED91FC91519714825096ED91FC915197BE
:2057000091E0968318961C92189755969C9191509C8303C01B821A8281E0812C912C66248B
:205720006394712CC12CD12C282E312C821493040CF0DBC02C81F701268B3B81332329F0F3
:2057400084860088F189E02D8582D70119968C911997813011F51C96CC90B0E2CB9E6001B4
:205760001124F701928583850480F581E02D23E0929FE00DF11D11240180F281E02D35E05C
:20578000839FE00DF11D112480819181D60190963D018A179B0708F43C015601A614B70421
:2057A00008F09CC0F70190858185911140C0811114C0C70174DE882309F43FC01982F70126
:2057C000258536850190F081E02D0190F081E02D8E010F5F1F4FD7010CC01982D701019033
:2057E000F081E02D0190F081E02D8E010F5F1F4F95011B964C911B971A966C91C7010995C8
:20580000F7019789992329F00088F189E02D94830CC0811106C00088F189E02D8EE08483CD
:2058200004C06981C701ACDE55C080E07AC0811124C0C70134DE811107C0D7015096ED91D4
:20584000FC91519799E044C0C70146DE811107C0D7015096ED91FC9151979AE039C0F701F5
:20586000258536850190F081E02D0280F381E02DD7011F960C911F971AC0D701408851887E
:205880008A2D8C19F201E80FF11D02851F960C93C70122DE811103C09AE0F20119C0D7019E
:2058A000ED91FC9111970280F381E02D95011B964C911B971A966C91C701099581110AC0ED
:2058C000F70197890088F189E02D911101C09CE0948327C0FFEFAF1ABF0A60CF60E0C7010D
:2058E00020DE2FEF821A920A21CF3A813323C1F0D70156961C9260EFC70142DE60E0C701F1
:205900003FDE63E5C7013CDE63E4C70139DE61E0C70136DE6EE7C70133DE60E0C70101DEE8
:2059200081E00F900F900F900F90DF91CF911F910F91FF90EF90DF90CF90BF90AF909F90D1
:205940008F907F906F905F904F903F902F900895CF93DF93EC01E889F9898681823011F1B2
:2059600028F4882351F08130A9F02CC0843091F000F1853039F51B8213C08A81882309F4BD
:205980004EC01A8281E084838B81882309F44EC01B824CC081E08A839681943009F48B8336
:2059A00081E043C08A818823D1F181E0848361E006C08A81882399F181E0848360E2CE01E3
:2059C000DFDD34C06C8970E020E030E0261737075CF5A901440F551FAA89BB89A40FB51F87
:2059E0009C9189131EC08A81811104C011968C91811115C081E084838A899B89DC01A40F45
:205A0000B51FE881F9810480F581E02D6C91CE01099581110BC0E889F9898EE006C083E077
:205A200004C02F5F3F4FD2CF84E0848381E0DF91CF910895FF920F931F93CF93DF93EC0106
:205A40001F8A8C819D81892B79F18E81882361F1F42E8B01CE01FEDB198B088BFD8A86E0CE
:205A60008E8B87E08F1500F5CE0102DC8823E1F0F8018481882319F082E0848310C0CE012A
:205A80009CDC882351F08D89883019F4CE0160DF06C0CE01E6DD811105C0CE01DBDB60E045
:205AA000CE013FDD198A188ADF91CF911F910F91FF9008952EEF260F2C3018F4FC01678BC1
:205AC00008952CE0FC01278B08955F926F927F928F929F92AF92BF92CF92DF92EF92FF9206
:205AE0000F931F93CF93DF9300D000D0CDB7DEB77C016B018A01522E3C0186E7680E711C24
:205B0000D301ED91FC91309711F1211102C080EF0995580148018C0C9D1C8A149B0441F07B
:205B2000D301ED91FC91D5018D915D010995F5CF511005C0D301ED91FC9187EF0995F701C1
:205B4000EC59FF4F8081882311F034961082BAE7EB0EF11CF70180819181892B09F4DAC0AC
:205B6000552019F024E0B22E90C0B12C21E084E0A82E90EF992EF4E0CF16D10458F1D80165
:205B80009C9111968C91222399F0A9829A829B838C83D701ED91FC91CE01019609950E5F7E
:205BA0001F4FB2E0CB1AD108BB24B39420E0E3CFF8012281A9829A838B832C83D701ED9158
:205BC000FC91CE01019609950D5F1F4FB3E0CB1AD108ECCFE3E0CE16D104F1F4D8019C91E7
:205BE00011968C911197BB2041F012962C9134E039839A838B832C8321C024E0298320EF7E
:205C00002A839B838C83D701ED91FC91CE0101960995F80182812DC0B2E0CB16D10409F594
:205C2000F80190818181BB2019F027E0298329C024E0298320EF2A839B838C83D701ED91E9
:205C4000FC91CE010196099580916F0390917003A0917103B091720389839A83AB83BC83AB
:205C600053C0CA94CD2809F055C0F8018081BB2029F096E099838A8387EF3AC097E0998320
:205C800090EF9A838B8387EF27C0B4E0CB16D104A0F0F801208191818281B9822A839B836E
:205CA0008C83D701ED91FC91CE01019609950D5F1F4FB3E0CB1AD108E8CFE3E0CE16D10490
:205CC00069F4D8012C9111969C91119712968C9137E039832A839B838C8316C0B2E0CB169A
:205CE000D10441F4F8019081818126E029839A838B8309C0CA94CD2869F4F801808195E0C9
:205D000099838A831B821C82D701ED91FC91CE01019609950F900F900F900F90DF91CF91EC
:205D20001F910F91FF90EF90DF90CF90BF90AF909F908F907F906F905F900895FF920F938E
:205D40001F93CF93DF93EC01F62E8C010A581F4FD801ED91FC9181EF0995D801ED91FC9179
:205D60008F2D0995FE01EC59FF4F8081882319F0C859DF4F1882DF91CF911F910F91FF90EA
:205D80000895677050E1659F90011124642F6F70622BD4CFEF92FF920F931F93CF93DF93B8
:205DA000EC018B017C0186E7E80EF11CD701ED91FC9182EF0995D701ED91FC91802F8F77F3
:205DC0000995C801880F892F881F990B9195D701ED91FC918F770995FE01EC59FF4F808182
:205DE000882319F0C859DF4F1882DF91CF911F910F91FF90EF900895FF920F931F93CF93F4
:205E0000DF93EC01F62E8C010A581F4FD801ED91FC9183EF0995D801ED91FC918F2D8F7708
:205E20000995FE01EC59FF4F8081882319F0C859DF4F1882DF91CF911F910F91FF90089548
:205E4000EF92FF921F93CF93DF9300D000D0CDB7DEB76D3F28F46A3F28F4683F19F020C0D4
:205E60006E3FF0F0162F7C01FC01EA58FF4F0190F081E02D309711F0862F0995F701E658E6
:205E8000FF4F0190F081E02D309751F019821A821B821C828FE089831A83CE01019609950F
:205EA0000F900F900F900F90DF91CF911F91FF90EF900895AF92BF92CF92DF92EF92FF92C5
:205EC0000F931F93CF93DF9300D000D0CDB7DEB77C01162FFC01EA59FF4F8081882321F0D4
:205EE000003130F40F5F0EC08FEF800F803150F0F701EC59FF4F8081882309F44DC0349608
:205F000010824AC017FFF4CF113E08F040C04F77D42E2F77C22E0150012B570186E7A80E6F
:205F2000B11CD501ED91FC9111973097C9F052978C91882329F014968C91801719F00C93BB
:205F4000802F0995D501ED91FC918D2D0995812F8F7E803C29F0D501ED91FC918C2D0995F1
:205F6000F701E658FF4F0190F081E02D3097A1F0612F70E084E0759567958A95E1F7698309
:205F80000A83DB82CC82CE010196099505C0163F18F0612FC70154DF0F900F900F900F909C
:205FA000DF91CF911F910F91FF90EF90DF90CF90BF90AF9008950F93022F242F462F60E9D6
:205FC00079DF0F9108950F93022FFC01ED58FF4F2081213021F4242F462F60E803C0242F9C
:205FE000462F60E967DF0F9108950F93042F20E0462F60EC5FDF0F9108950F93022F242F29
:20600000462F60EB57DF0F9108950F937F739B01220F232F221F330B31956F77042F462FC7
:2060200060EE48DF0F9108958C599F4FFC0160830895FC01442319F0413071F015C0818148
:20604000882391F08058813688F48081681771F081E0613149F40BC083A9882329F0805865
:20606000813620F482A9F2CF80E0089581E00895662329F0613031F4FC0183A90895FC0153
:206080008181089580E00895FC01662321F0613059F492A901C09081992331F0EA59FF4F74
:2060A0008081981B892F08958FEF0895662329F0613031F4FC0184A90895FC018281089500
:2060C00080E00895662329F0613031F4FC0185A90895FC018381089580E00895662321F06E
:2060E000613021F4C69608950496089580E090E00895662341F0613051F4FC01EF58FF4F3B
:20610000808191810895FC013281238102C030E020E0832F922F8E32910510F08DE290E001
:2061200008952FEE260F223010F080E00895FC01E759FF4F608381E0089567FF0DC08CE016
:20614000860F823048F0862F8B7F893F29F0862F603F20F4807F089580E008950895862FCD
:206160008F7C803849F0603D39F081E0603E31F0603C21F080E0089581E0089508957F92E7
:206180008F929F92AF92BF92CF92DF92EF92FF920F931F93CF93DF931F92CDB7DEB78C01B8
:2061A00061119DC1FC01EC58FF4F0190F081E02D309709F49DC21982CE0101960995E82E99
:2061C000882309F495C2F98068012FE6C20ED11CD6018D919C91009709F0BAC04801BAE6F7
:2061E0008B0E911CF401F0825801F7E6AF0EB11CD5017C90672DC801A0DF682FC801AFDF86
:20620000882359F0F7FC09C0F40170823196F08281E090E0D6018D939C93F401F0806F2DB6
:20622000C8018BDFF801E359FF4F813F09F445C008F5803B09F444C048F4803909F440C03B
:20624000803AF1F1803809F040C03AC0803DA9F118F4803C91F139C0803E91F1803FA9F5C0
:206260002DE230E031832083D5011C92D80114968C9332C0883F69F030F4833FF1F000F1B8
:20628000863F39F022C08A3F00F18D3F10F08E3FE0F0D80111968C9311971C9212961C92C0
:2062A000129713961C92139781E0D1968C93D6011D921C92118210821CC222E030E002C042
:2062C00023E030E03183208307C0D6011D921C9211821082F50197C0D6012D913C914081C4
:2062E0005181BA01615071092617370758F1D80111968C9311978F2D8F70FF24F394F80E70
:20630000AA59BF4F8C91F81AD801FC92A559BF4F8C91D80112968C9312974330510539F46E
:20632000A459BF4F8C91D80113968C9303C0D80113961C92D6011D921C921182108281E0E7
:20634000F8011EC02F5F3F4FD6012D933C93BBC0F7FE34C0BCEFBF1550F0EAEFFE1650F490
:20636000F7EFFF1679F028EFF21228C003C0AEEFFA1620F1F801F18212821382108281E0AD
:2063800081ABB7C1D80114964C91403F99F59C012F5F3F4FF801E80FF91FF482F8014183F8
:2063A00022833383108281E081ABD6011D921C92E359FF4F1182108236977FC0D801A6599C
:2063C000BF4F2C91F801E80FF91F203FF1F4F4825801FDE6AF0EB11CF501808091809401CE
:2063E000215031098217930708F469C07C90F0EF7F120FC0F60111821082F801E359FF4FB0
:20640000118210823697108273C1E659FF4FF082DFCF672DC80191DEF82ED80111968C9386
:20642000682FC8019CDE882359F0872D8F708F5FF801EA59FF4F9081891BF801808302C0F0
:20644000D8011C92F801E559FF4F8081F8018283F3E08F16910441F4F801E459FF4F80816A
:20646000D80113968C9302C0F8011382D6011D921C92F5011182108281E0D801D1968C931C
:20648000F801E959FF4FB0EBFB16A9F0BF1550F020E9F21681F080EAF81669F0A0E8FA1233
:2064A0000CC009C0B0EDFB1631F020EEF21619F080ECF81202C070821CC110821AC101964E
:2064C000D6018D939C93F801EB59FF4F8081882309F40EC160E0C80152DEE82E0AC16130E8
:2064E00009F006C16C01BCE7CB0ED11CFC01E858FF4F0190F081E02DC6010995E82E882346
:2065000009F4F6C0F60180818295807F803909F480C068F58035F1F138F4803209F467C0CE
:20652000803409F48CC0E4C0803709F4B0C0803809F46FC0803609F0DBC0A8014F585F4F6A
:20654000FA0180819181D801A80FB91F980123583F4FF9012081D6962C93D69798012258DD
:206560003F4FF9012081D7962C930296B5C0803CF1F138F4803A09F44CC0803B09F0B8C000
:2065800048C0803F39F0823F09F443C0803E09F0AFC03FC0F801E358FF4F2081B8016D5983
:2065A0007F4FD801273F61F0D3962C93D397D2961C92D297D4961C92D497D5961C9214C0FC
:2065C000AF58BF4F8D919C911197A801480F591FFA0126AB01968D939C9380EFD801D396D8
:2065E0008C93D397D2961C9281E0FB017FC0F801E358FF4F8081D801D3968C93D3978F7013
:206600008F5FD2968C9331968081F80184AB15AA6AC0D801D3968C93D397F801E358FF4FDF
:2066200080818F708F5FF80182ABE258FF4F8081D4968C9331968081F80185AB54C0F80136
:20664000E358FF4F2081A8014F585F4F203F19F4DA011D921C92FA0180819181D801A80FD0
:20666000B91FD6962C93D697980122583F4FF9012081D7962C93D79701581F4FF801208173
:20668000D8962C930396DA018D939C9331C0F801E358FF4F2081A8014F585F4F203F19F48C
:2066A000DA011D921C92FA0180819181D801A80FB91FD6962C93D697980122583F4FF901F9
:2066C0002081D7962C93D797980121583F4FF9012081D8962C930396DA018D939C9380EFE5
:2066E000F80183AB12AAED59FF4F81E0808301C0E12C8E2D0F90DF91CF911F910F91FF90E8
:20670000EF90DF90CF90BF90AF909F908F907F9008958B599F4FFC01608308957F928F9223
:206720009F92AF92BF92CF92DF92EF92FF920F931F93CF93DF93222309F485C0FC014111B4
:20674000F2967C0136E7E30EF11CD701AD90BC906C01BAE7CB0ED11CD6018D909C90233071
:2067600089F028F4213059F0223039F06CC0253021F028F0263031F066C0D60101C0D701B8
:206780001D921C92742EEC01618180E8860F813660F40081DE01A759BF4F8C91081709F47C
:2067A00042C0813109F04BC03EC0663F21F1D0F4613F71F178F4603F79F5642FCE018EDC61
:2067C0008C01672DCE0195DC21E0A801BC01CE017CD922C0623F91F0633FF1F46281CE0190
:2067E0000BDB1AC06D3F28F46A3F28F4683F19F013C06E3F88F0CE0123DB0EC06381B0E88D
:206800006B9FB00111248281682BCE01C3DA04C043816281CE01B5DAF701B182A082D60199
:206820008D929C9210C02130B8F3243028F423814281CE013FDBF0CF2730C8F3EDCF215081
:20684000233050F7F4CFDF91CF911F910F91FF90EF90DF90CF90BF90AF909F908F907F90F4
:206860000895CF92DF92EF92FF920F931F93CF93DF936C0129E6C20ED11CF601208122314B
:2068800011F480E022C0662331F0613059F4FC01E858FF4F03C0FC01EC58FF4F20813181F9
:2068A000232B79F3F42E162FEC0169DC882349F3F601E080412F6E2DCE01BBDB082F2F2D44
:2068C000412F6E2DCE012ADF802FDF91CF911F910F91FF90EF90DF90CF9008958D589F4FBA
:2068E000FC01608308958D589F4FFC01808108958F776CE00C94034A8F776CE00E94034A2D
:20690000892F08958A599F4FFC01608308958C589F4FFC017183608308958A589F4FFC01C4
