:020000040000FA
:20000000BFC20000E6C20000E4C20000E2C20000E0C20000DEC20000DCC20000DAC20000F1
:20002000D8C20000D6C2000009C50000D6C50000D0C20000CEC20000CCC20000CAC20000E9
:20004000C8C20000C6C20000C4C20000C2C20000C0C200000C947B26BCC20000BAC20000C7
:20006000B8C200000C94853B0C94F93A0C94AC3AB0C200000C945426ACC20000AAC20000E7
:20008000A8C20000A6C20000A4C20000A2C20000A0C200009EC200003A9D000012034F00C7
:2000A000700065006E004400650063006B00000022035300680061006E007400650061009D
:2000C000200043006F006E00740072006F006C00730000000403090409026500020100C065
:2000E000320904000000010100000924010001090001010904010002010300000724010045
:200100000141000624020101000624020202000924030103010201000924030204010101CE
:20012000000905020240000500000525010101090581024000050000052501010312010023
:20014000020000000809127284010001020001B401B101AF01AC01AA01A801A501A301A07D
:20016000019E019B01990161025902560253024D024A023F02340200000000000000002B01
:2001800002220216020E020502FB01F201E901DF01D101C201BD01B6014200412300410060
:2001A00047230047004623004600450044230044004323004300507265736574004E5250E3
:2001C0004E004D4D43205265636F7264204F6666004D4D43205265636F7264204F6E004DB4
:2001E0004D43205061757365004D4D432053746F70004D4D4320506C617900525420537989
:2002000073527374005254204153656E730052542053746F7000525420436F6E74696E7580
:200220006500525420537461727400525420436C6F636B00537973457820436F6E660050E1
:20024000697463682042656E64004154004348204154005043004343004E6F7465204F6EFC
:20026000004E6F7465204F6666005465656E73792B2B20322E3000207F010100000000008E
:200280000000000000065F5F0600000003070000070300147F7F147F7F140000242E6B6B20
:2002A0003A1200466630180C666200307A4F5D377A4800000004070300000000001C3E6310
:2002C000410000000041633E1C0000082A3E1C1C3E2A080008083E3E080800000080E0606B
:2002E000000000000808080808080000000060600000006030180C060301001C3E634963E7
:200300003E1C000040427F7F40400042637159496F660022634949497F3600181C16537FC5
:200320007F50002F6F4949497931003C7E4B4949783000030371790D070300367F494949F5
:200340007F3600064F4949693F1E000000006666000000000080E6660000000000081C3649
:20036000634100002424242424240000004163361C0800020301595D0702003E7F415D5D86
:200380001F1E007C7E0B090B7E7C00417F7F49497F36001C3E634141632200417F7F4163E0
:2003A0003E1C00417F7F495D416300417F7F491D0103001C3E6341513372007F7F080808A7
:2003C0007F7F000000417F7F410000307040417F3F0100417F7F081C776300417F7F4140C2
:2003E0006070007F7F0E1C0E7F7F007F7F060C187F7F003E7F4141417F3E00417F7F490905
:200400000F06003E7F4141E1FFBE00417F7F09197766000022674D597322000003417F7FA6
:200420004103003F7F4040407F3F001F3F6040603F1F003F7F6038607F3F0063771C081CF2
:2004400077630000074F78784F0700476371594D67730000007F7F414100000103060C18DD
:20046000306000000041417F7F0000080C0603060C0800808080808080808000000103062B
:20048000040000207454543C784000417F3F44447C3800387C4444446C2800387C44453F5D
:2004A0007F4000387C5454545C1800487E7F490903020098BCA4A4F87C0400417F7F08045E
:2004C0007C78000000447D7D4000000060E08080FD7D00417F7F10386C44000000417F7F7A
:2004E0004000007C7C0C780C7C7800047C7804047C7800387C4444447C380084FCF8A424D8
:200500003C1800183C24A4F8FC8400447C784C040C0800485C54545474240004043F7F4415
:200520006420003C7C40403C7C40001C3C6040603C1C003C7C6038607C3C00446C381038BF
:200540006C44009CBCA0A0A0FC7C00004C64745C4C64000008083E77414100000000EFEFE6
:20056000000000004141773E080800020301030203010070784C464C78700000990DCB3BCB
:2005800011241FBECFEFD0E2DEBFCDBF15E0A0E0B1E0E8E0F9E900E00BBF02C007900D925E
:2005A000A233B107D9F72AE0A2E3B5E001C01D92AB33B207E1F712E0C0ECD2E004C021970F
:2005C000FE010E943F49CE3BD107C9F7F9D40C94824C16CDCF92DF92EF92FF920F931F93FB
:2005E000CF93DF93EC018B017A0195D1811132C0E114F10439F0F70180819181081B190BE4
:20060000C80FD91FC12CD12C0115110511F18091E80085FD15C08091E8008E778093E800AA
:20062000E114F10449F0F70180819181C80ED91ED182C08285E00EC06ED1882329F30AC027
:2006400089918093F10001501109FFEFCF1ADF0ADBCF80E0DF91CF911F910F91FF90EF9019
:20066000DF90CF900895CF92DF92EF92FF920F931F93CF93DF93EC018B017A014CD1811160
:2006800032C0E114F10439F0F70180819181081B190BC80FD91FC12CD12C0115110511F11C
:2006A0008091E80085FD15C08091E8008B778093E800E114F10449F0F70180819181C80EF0
:2006C000D91ED182C08285E00EC025D1882329F30AC08091F100899301501109FFEFCF1A74
:2006E000DF0ADBCF80E0DF91CF911F910F91FF90EF90DF90CF9008952091390A30913A0A75
:200700002617370748F06115710539F42091E8002E772093E80001C0B901FC0120E0611546
:20072000710569F18091320A8823E1F18530E1F18091E80083FD3AC08091E80082FD2CC0C1
:200740008091E80080FFEBCF8091F2009091F3006115710551F08830910538F42191209344
:20076000F100615071090196F3CF21E0089709F020E08091E8008E778093E800D0CF2111A1
:20078000D1CF0AC08091320A882361F0853061F08091E80083FD0AC08091E80082FFF2CF22
:2007A00080E0089582E0089583E0089581E008952091390A30913A0A2617370748F061151D
:2007C000710539F42091E8002E772093E80001C0B901FC0120E06115710581F18091320A7A
:2007E000882309F43EC0853009F43DC08091E80083FD3BC08091E80082FD2DC08091E800D2
:2008000080FFE9CF8091F2009091F3006115710559F08830910540F424912093F1003196B3
:20082000615071090196F2CF21E0089709F020E08091E8008E778093E800CDCF2111CECF38
:200840000AC08091320A882361F0853061F08091E80083FD0AC08091E80082FFF2CF80E0A1
:20086000089582E0089583E0089581E00895982F973068F59093E900981739F07091EC0022
:200880002091ED005091F00003C0242F762F50E021FD02C09F5FECCF3091EB003E7F309339
:2008A000EB003091ED003D7F3093ED003091EB0031603093EB007093EC002093ED005093D6
:2008C000F0002091EE0027FDE5CF80E008958F708093E90081E008958091330A87FF11C016
:2008E0008091E80082FD05C08091320A8111F8CF11C08091E8008B770BC08091320A882386
:2009000049F08091E80080FFF8CF8091E8008E778093E80008952091E4003091E50095E613
:200920004091EC00842F817040FF23C08091E80080FD1DC08091320A882399F0853099F022
:200940008091EB0085FD11C04091E4005091E5002417350729F3915011F09A01E1CF84E0A9
:20096000089582E0089583E0089581E0089580E008954091E80042FFDDCF08950F931F9349
:20098000CF93DF934ED055D0C8EDD0E088818F77888388818068888388818F7D8883E7EDD1
:2009A000F0E080818068808319BC1092320A10922E0A1092300A10922F0A00EE10E0F80160
:2009C00080818B7F808388818160888342E060E080E04DDFE1EEF0E080818E7F8083E2EEA6
:2009E000F0E0808181608083808188608083F80180818E7F8083888180618883DF91CF9187
:200A00001F910F910895E8EDF0E080818F7E8083E7EDF0E080818160808381E08093310AFB
:200A2000ADCFE8EDF0E080818C7F80831092E20008951092DA001092E10008951F920F9277
:200A40000FB60F9211240BB60F922F933F934F935F936F937F938F939F93AF93BF93EF93B3
:200A6000FF938091E10082FF0AC08091E20082FF06C08091E1008B7F8093E10057D2809143
:200A8000DA0080FF1DC08091D80080FF19C08091DA008E7F8093DA008091D90080FF0CC0C5
:200AA00084E189BD86E189BD09B400FEFDCF81E08093320A3BD204C019BC1092320A36D21B
:200AC0008091E10080FF18C08091E20080FF14C08091E2008E7F8093E2008091E2008061BE
:200AE0008093E2008091D80080628093D80019BC85E08093320A1AD28091E10084FF2FC072
:200B00008091E20084FF2BC084E189BD86E189BD09B400FEFDCF8091D8008F7D8093D800B5
:200B20008091E1008F7E8093E1008091E2008F7E8093E2008091E20081608093E2008091F3
:200B40002E0A882311F084E007C08091E30087FD02C081E001C083E08093320AE7D18091AF
:200B6000E10083FF27C08091E20083FF23C08091E100877F8093E10082E08093320A109294
:200B80002E0A8091E1008E7F8093E1008091E2008E7F8093E2008091E20080618093E2006C
:200BA00042E060E080E063DE8091F00088608093F000BCD1FF91EF91BF91AF919F918F91C9
:200BC0007F916F915F914F913F912F910F900BBE0F900FBE0F901F9018951F920F920FB6BF
:200BE0000F9211240BB60F922F933F934F935F936F937F938F939F93AF93BF93CF93DF9385
:200C0000EF93FF93C091E900CF708091EC00D82FD17080FDD0E81092E9008091F000877F3B
:200C20008093F000789420D01092E9008091F00088608093F000CD2BCF70C093E900FF913B
:200C4000EF91DF91CF91BF91AF919F918F917F916F915F914F913F912F910F900BBE0F90ED
:200C60000FBE0F901F9018951F93CF93DF93CDB7DEB7AA970FB6F894DEBF0FBECDBFE3E3BF
:200C8000FAE08091F10081932AE0EB33F207C9F74DD18091E80083FF31C18091330A909189
:200CA000340A953009F483C030F49130A9F168F0933091F123C1983009F4EFC0993009F4B7
:200CC000FBC0963009F01AC194C0803821F0823809F014C108C080912F0A9091300A9923F1
:200CE00089F082600FC08091370A8F70873008F005C18093E9008091EB0085FB882780F964
:200D00001092E9009091E800977F9093E8008093F1001092F100CCC0282F2D7F09F0EEC051
:200D2000882319F0823061F0E9C08091350A813009F0E4C0933009F080E08093300A2EC05E
:200D40008091350A81112AC08091370A8F702FEF280F263008F0D2C08093E9002091EB00A9
:200D600020FF1CC0933021F48091EB00806214C09091EB0090619093EB0021E030E0A90128
:200D800002C0440F551F8A95E2F74093EA001092EA008091EB0088608093EB001092E9001C
:200DA0008091E800877F8093E80096DDA7C08111A5C01091350A1F778091E3008078812B5A
:200DC0008093E3008091E800877F8093E80084DD8091E80080FFFCCF8091E3008068809390
:200DE000E300111102C082E001C083E08093320A85C08058823008F081C08091350A9091DE
:200E0000360A8C3D53E0950771F583E08A838AE289834FB7F894DE01139620E03EE051E241
:200E2000E32FF0E050935700E49120FF03C0E295EF703F5FEF708E2F90E0EA3010F0C796C8
:200E400001C0C0968D939D932F5F243149F74FBF8091E800877F8093E8006AE270E0CE0195
:200E600001964ADC14C06091370A7091380AAE014F5F5F4F5CD0BC01892B09F43FC09091A7
:200E8000E800977F9093E80089819A8191DC8091E8008B778093E80031C0803879F5809199
:200EA000E800877F8093E80080912E0A8093F1008091E8008E7777CF811120C08091350AF6
:200EC0009091360A99270297CCF48091E800877F8093E8008091350A80932E0AFDDC809119
:200EE0002E0A811106C08091E30087FD02C081E001C084E08093320A0E94E03B8091E8009D
:200F000083FF0AC08091E800877F8093E8008091EB0080628093EB00AA960FB6F894DEBF81
:200F20000FBECDBFDF91CF911F9108950895292F33272230310559F02330310569F02130E8
:200F40003105E9F482E190E02DE331E01CC085E690E028ED30E017C099278130910549F097
:200F600028F0029761F4ECE9F0E005C0E4EDF0E002C0E0EBF0E0849190E09F0104C080E0BA
:200F800090E020E030E0FA013183208308952091320A243089F4FC0181818F708093E9002A
:200FA0008091F2009091F300892B41F08091E8008E778093E800AFCC82E0089580E00895C5
:200FC00094D4B5D5FECFFC0180A10895EF92FF920F931F93E12CF12C8701E39425E030E0F3
:200FE00040E065E00E94F3361F910F91FF90EF900895CF93DF93EC010E943F352E8D3F8D68
:20100000821B930B6C8D7D8D621B730B0E94F048862FDF91CF910895DF92EF92FF920F9376
:201020001F93CF93DF93EC01D62EE3DFD816A8F5D8A260E070E0CE010E94673947E060E06A
:2010400071E0CE010E94C933ED2CF12C00E010E020E030E041E060E0CE010E94F33646E09B
:2010600065E071E0CE010E94C9336E8D7F8D8C8D9D8D861B970B48A1489F9001499F300D5A
:201080001124620F731FCE010E946739EA8DFB8D309729F08D2D099502C080E001C081E08C
:2010A000DF91CF911F910F91FF90EF90DF900895EF92FF920F931F93CF93DF93EC01E62EBB
:2010C00060E070E00E94673947E060E071E0CE010E94C933F12C00E010E021E030E041E0FA
:2010E00060E0CE010E94F33646E065E071E0CE010E94C9336E8D7F8D8C8D9D8D861B970B60
:2011000048A1489F9001499F300D1124620F731FCE01DF91CF911F910F91FF90EF900C9474
:201120006739CF92DF92EF92FF92CF93DF93EC0160E070E00E94673947E060E071E0CE0111
:201140000E94C93321E030E041E060E0CE010E94CA366B017C0146E065E071E0CE010E94F8
:20116000C9336E8D7F8D8C8D9D8D861B970B48A1489F9001499F300D1124620F731FCE0159
:201180000E94673981E0CD28CE28CF2809F480E0DF91CF91FF90EF90DF90CF900895FF9293
:2011A0000F931F93CF93DF93EC0160E070E00E94673947E060E071E0CE010E94C933E0E063
:2011C000F1E080E090E000E010E06281062E000C770B20E030E02617370784F4A381B4819D
:2011E000A80FB91F1296FC9012974D915C914F0D511D040F151F2F5F3F4FEDCF3596099665
:201200008F33910511F746E065E071E0CE010E94C9336E8D7F8D8C8D9D8D861B970B48A1CF
:20122000489F9001499F300D1124620F731FCE010E946739C80121E0822727E19227DF9124
:20124000CF911F910F91FF900895CF92DF92EF92FF92CF93DF93EC0160E070E00E9467393B
:2012600047E060E071E0CE010E94C93320E030E040E060E0CE010E94CA366B017C0146E059
:2012800065E071E0CE010E94C9336E8D7F8D8C8D9D8D861B970B48A1489F9001499F300D38
:2012A0001124620F731FCE010E946739CE0177DF21E08C159D0509F020E0822FDF91CF9102
:2012C000FF90EF90DF90CF900895EF92FF920F931F93CF93DF93EC017B0160E070E00E94C0
:2012E000673947E060E071E0CE010E94C93300E010E020E030E040E060E0CE010E94F3364F
:2013000046E065E071E0CE010E94C9336E8D7F8D8C8D9D8D861B970B48A1489F9001499FCE
:20132000300D1124620F731FCE01DF91CF911F910F91FF90EF900C946739FF920F931F9316
:20134000CF93DF93EC01F62E60E070E00E94673947E060E071E0CE010E94C93381E0F81246
:2013600003C0CE010E941535CE0119DFBC01CE01ACDF46E065E071E0CE010E94C9336E8DED
:201380007F8D8C8D9D8D861B970B48A1489F9001499F300D1124620F731FCE010E946739EC
:2013A00000E010E0CE0125DE90E00817190764F4602FCE0131DE6F2DCE010E949538CE016E
:2013C00005DE0F5F1F4FEECF60E0CE01DF91CF911F910F91FF9020CE0F931F93CF93DF93BD
:2013E000EC0160E070E00E94673947E060E071E0CE010E94C933182F882309F448C0CE0143
:201400000E9439357D8F6C8F80910501909106019F8F8E8FCE0119DF082F811104C061E096
:20142000CE018BDF34C0CE017CDE882359F160E070E0CE010E94673947E060E071E0CE0139
:201440000E94C93320E030E041E060E0CE010E94CA3668A346E065E071E0CE010E94C933D8
:201460006E8D7F8D8C8D9D8D861B970B48A1489F9001499F300D1124620F731FCE010E94B0
:20148000673901C018A268A1CE01C6DD102F812FDF91CF911F910F910895FC01738F628F1A
:2014A0000895462F682F82E395E029C7CF93C82F8CEF95E00E94931D60E16C0F482F8CEF70
:2014C00095E0CF910C94DD1CEF920F931F93CF93DF93C82FEE24E39400E020E0482F60ECD2
:2014E00088E596E00E940D2221E030E041E065E084ED98E00E94CA36D62F20E030E041E000
:2015000065E084ED98E00E94CA3621E04D2F8DE996E00E94F63F23E030E040E065E084EDD2
:2015200098E00E94CA3621E0672B682B692B09F420E0622F8DE996E00E94F74325E030E06C
:2015400040E065E084ED98E00E94CA369B01AC01A8EEB3E00E943549AB01BC018DE996E0B4
:201560000E94074424E030E040E065E084ED98E00E94CA3621E0672B682B692B09F420E0C3
:20158000622F8DE996E00E94423C2C2F30E0E12C00E010E048E160E08DE996E00E94683EC9
:2015A000DF91CF911F910F91EF9008954F925F926F927F92AF92BF92CF92DF92EF92FF9295
:2015C0000F931F93CF93DF93B82E682F84E598E00E94622FC82F6B2D84E598E00E94802F91
:2015E000D82E6B2D84E598E00E948C2FD82F6B2D84E598E00E946E2FF82EC03C91F148F470
:20160000C03979F1C03B69F1C03809F0E6C0D0E028C0C83F09F4CEC0CA3F09F4C7C0C03FC5
:2016200009F0DBC06B2D84E598E00E94A32FC82F6B2D84E598E00E94982F4C2FBC0182E3B3
:2016400095E0DF91CF911F910F91FF90EF90DF90CF90BF90AF907F906F905F904F900C940F
:20166000442CE12C0F2D2D2F4D2D6C2F88E596E00E940D22C039F1F058F4C038B9F5EE24AE
:20168000E394EF0C0D2F10E02D2D30E040E01AC0C03BF1F0C03C51F5EE24E394EF0C0D2F6A
:2016A00010E02D2D30E043E060E08DE996E00E94683E1EC0EE24E394EF0C0D2F10E02D2D51
:2016C00030E041E060E08DE996E00E94683E85C00D2F10E02D2D30E0EE24E394EF0C42E0E4
:2016E00060E08DE996E00E94683E17C0C03C91F46D2D84ED98E0DF91CF911F910F91FF90EC
:20170000EF90DF90CF90BF90AF907F906F905F904F9082CCC03B09F060C0A12CB12C4F2C8B
:20172000512C612C712CCD2CD12CE12CF12C0D2F10E0950147E062E084ED98E00E94CA362C
:20174000672B682B692B51F1950142E062E084ED98E00E94CA366330710581059105F1F4FF
:20176000950144E062E084ED98E00E94CA36641575058605970591F4950143E062E084EDD7
:2017800098E00E94CA366C157D058E059F0531F4A8016A2D84E795E00E94FE1D8FEFA81AB3
:2017A000B80A88E0A816B10421F617C088E596E00E94F62361E088E596E0DF91CF911F915C
:2017C0000F91FF90EF90DF90CF90BF90AF907F906F905F904F900C947020DF91CF911F9173
:2017E0000F91FF90EF90DF90CF90BF90AF907F906F905F904F900895EF92FF920F931F9300
:20180000CF93DF93EC01798368835B834A833D832C831F830E83F986E886FC013A9680E1B8
:20182000DF011D928A95E9F7709680E2DF011D928A95E9F788E0B096DF01982F1D929A95F1
:20184000E9F73896DF01982F1D929A95E9F73896DF01982F1D929A95E9F73896DF01982FCD
:201860001D929A95E9F73896DF01982F1D929A95E9F73896DF011D928A95E9F7DE01A6593D
:20188000BF4F80E1E6E2F3E001900D928A95E1F7FE01E658FF4F8091360390913703A091B6
:2018A0003803B091390380839183A283B383349680913A0390913B03A0913C03B0913D0396
:2018C00080839183A283B383DE01AE57BF4F86E0EEE3F3E001900D928A95E1F7DF91CF91A3
:2018E0001F910F91FF90EF900895CF930E94CD2584ED98E071DD82E395E0B8D4789482E3E9
:2019000095E00E941B160E94ED250E949D2761E088E596E00E94CD2384E795E00E94EF1D21
:2019200020E030E040E065E084ED98E00E94CA36672B682B692B09F483C021E030E041E07C
:2019400065E084ED98E00E94CA36C62F20E030E041E065E084ED98E00E94CA3620E04C2F46
:201960008DE996E00E94F63F882309F469C061E08DE996E00E94024221E030E040E065E04A
:2019800084ED98E00E94CA36672B682B692B21F08DE996E00E948A3C22E030E040E065E027
:2019A00084ED98E00E94CA36672B682B692B29F060E08DE996E00E944D3D60E08DE996E046
:2019C0000E9402428DE996E00E945A3C23E030E040E065E084ED98E00E94CA3621E0672B67
:2019E000682B692B09F420E0622F8DE996E00E94F74325E030E040E065E084ED98E00E9465
:201A0000CA369B01AC01A8EEB3E00E943549AB01BC018DE996E00E94074424E030E040E0BE
:201A200065E084ED98E00E94CA3621E0672B682B692B09F420E0622F8DE996E00E94423C82
:201A400081E59AE09093F6088093F50866E57AE08CE296E00E94C41764E67AE084ED98E0E2
:201A6000CF911BCD82E395E011D48823C9F00E948624882341F08CEF95E00E94691D84E750
:201A800095E00E945D1E8CE296E00E94551760E088E596E00E9470208DE996E00C94F042AF
:201AA000089540E061E084E598E00E945B33882311F081E07BDD23E030E040E060E084EDCE
:201AC00098E00E94CA36672B682B692B79F122E030E040E060E084ED98E00E94CA36672B3A
:201AE000682B692BC9F020E030E041E060E084ED98E00E94CA36611571058105910531F0E1
:201B0000643071058105910539F0089541E060E084E598E00C945B3340E060E084E598E028
:201B20000E945B33882311F080E040CD0895B9DF99CF3F924F925F926F927F928F929F92B8
:201B4000AF92BF92CF92DF92EF92FF920F931F93CF93DF931092F6081092F508C4EDD8E03F
:201B6000188219821A821B821C821E821D8288E0E4E4F3E0ABEDB8E001900D928A95E1F7C0
:201B8000188A1F868EE196E29A8B898B8EE396E29C8B8B8B8DEF9FE09E8B8D8B1F8A998FAB
:201BA000888F1B8E1A8E18A284E5482E88E0582E1092B8081092B9081092BA081092C6089D
:201BC0001092C5081092C7081092C9081092C8081092CB081092CA081092CD081092CC086A
:201BE0001092CF081092CE0898E02DE9C22E26E0D22ED601E92F1D92EA95E9F7D6011996ED
:201C00001C921E921897F60112861386148615861E961D921D921D921C925197128A138ACA
:201C2000148A158A168A80EAE4EBF6E0DF01282F1D922A95E9F7E4E5F7E0DF011D928A95E5
:201C4000E9F780E1E4EFF7E0DF01282F1D922A95E9F7E4E0F8E0DF01282F1D922A95E9F7F3
:201C60001092140810921508109216081092170810921808332433943092190810921A08DF
:201C800023E020931B0810921C0810921D0848E250E050931F0840931E083CE0E8E4F8E0C1
:201CA000DF011D923A95E9F732E03093490820934A0824E020934B0830934D0820934E0890
:201CC00026E020934F0838E5832E36E0932EF401D183C083EAE5F6E0DF01282F1D922A9579
:201CE000E9F7D40152961C92529754961C921E9253972BE0ECE4F3E0ADE6B6E001900D9277
:201D00002A95E1F72BE0E7E5F3E0A8E7B6E001900D922A95E1F72BE0E3E8F6E0DF01322FA9
:201D20001D923A95E9F7D401D6961D921D921D921C92D997E2E9F6E0DF011D922A95E9F70A
:201D40004CE2642E46E0742EF301D183C0835382428295828482D782C68225EF38E0318735
:201D6000208713861286E8E3F6E0DF011D928A95E9F7E8E4F6E0DF01892F1D928A95E9F774
:201D8000E0E5F6E0DF011D929A95E9F75CEFA52E55E0B52EF501D183C08353824282958297
:201DA0008482D782C6823187208788E1E6E0F6E0DF011D928A95E9F7F50112A213A214A275
:201DC00015A216A217A210A611A686E0E2E6F3E0A6E2B6E001900D928A95E1F77901860127
:201DE0009401A201BE0184E795E006DDE2E3F5E012821382158214821682118A108A138ACF
:201E0000128A148A158A168A178A108E128E118E88E793E091838083D48FC38F568E458E66
:201E2000B0A2A78E84E795E092A381A374A263A296A285A2D0A6C7A231A6DF91CF911F9132
:201E40000F91FF90EF90DF90CF90BF90AF909F908F907F906F905F904F903F900895CF9380
:201E6000DF93EC0164E0888199810E94EA2960E0888199810E94EA2961E088819981DF91FB
:201E8000CF910C94EA29CF93DF93EC0161E0888199810E94EA2964E6888199810E94EA2933
:201EA00068E0888199810E94EA2964E0888199810E94EA2961E0888199810E94EA2960E08D
:201EC000888199810E94EA2960E088819981DF91CF910C94EA29FB01642F70E021E0AF01B4
:201EE000FC01858D968D0C948F2CBC0180E00C94E33A682F80E00C945B3B0F931F93CF9398
:201F0000DF9300D000D01F92CDB7DEB78C01AE014B5F5F4FBE016F5F7F4F80E00E94953926
:201F2000882339F08D81813F21F4CE0101960E941E3CC8010E94FC3B882329F043EFB80137
:201F400080E00E9473390F900F900F900F900F90DF91CF911F910F9108950F931F93CF9345
:201F6000DF931F92CDB7DEB78C01AE014F5F5F4FBC0180E00E949539882349F04981423FD1
:201F800029F0B80180E00E94733901C080E00F90DF91CF911F910F91089541EFBC0180E0F7
:201FA0000C947339FC018281238130E0220F331F87FF03C02F77216001C02E7720838F771F
:201FC000818308959F92AF92BF92CF92DF92EF92FF920F931F93CF93DF93CDB7DEB72897B9
:201FE0000FB6F894DEBF0FBECDBF6C01F42E580119821A821B821C82623009F4CEC030F4FF
:202000006623C9F0613009F4B2C0FCC0643081F1FC01838D948D643008F46AC0653009F046
:20202000F1C0E42FF0E0E058FC4F8E010F5F1F4F408165E0EEC0F1E0F41720F442E0F4164E
:2020400031F0EBC08E010F5F1F4F60E0DFC02115310531F4FC01838D948D0E94E30722C03D
:202060002130310531F5FC01838D948D5AD81AC0F1E04F1709F14F1778F044E0F41619F142
:20208000FC01838D948DF7E0FF1228C08E010F5F1F4F45E064E05DC0622FFC0185A196A166
:2020A0000E945F2190E0A0E0B0E089839A83AB83BC8399249394B2C0622FFC0185A196A1A7
:2020C0000E949C21EFCF822F0E940B24282F30E08E010F5F1F4F42E064E098C0EF2DF0E0E5
:2020E000EE57FC4F8E010F5F1F4F408164E091C0F3E04F1790F148E04F1548F4E9E0FE1234
:202100002CC08E010F5F1F4F46E063E022C0EF2DF0E0E657FC4F8E010F5F1F4F408163E03A
:202120000E948935982E882309F477C089819A8198878F83CE01059635DFF5E0FF1609F4DF
:202140004BC047E0F41609F447C083E0F8124DC043C00E948935982E1CC0EF2DF0E0E65797
:20216000FC4F8E010F5F1F4F408163E052C0E42FF0E0E356FC4F8E010F5F1F4F408161E0BF
:20218000FC01838D948D0E948935982EF4E0FF1245C0992009F441C02DC0E42FF0E0EC5638
:2021A000FC4F8E010F5F1F4F408162E0FC01838D948D0E948935982E882379F18F2D8B7F37
:2021C0008330A9F489819A8198878F83CE010596E9DEF3E0FF1209C08E8190E0A0E0B0E0EC
:2021E00089839A83AB83BC8319C08D81F6CF44E0F4125FCF89819A81AB81BC810196A11D62
:20220000B11DEECF8E010F5F1F4F4F2DF601838D948D0E948935982E01C0912CE12C00E093
:2022200010E020E030E047E060E0F60187A190A50E94683E992029F08981F501808381E065
:2022400003C0F501108280E028960FB6F894DEBF0FBECDBFDF91CF911F910F91FF90EF90A0
:20226000DF90CF90BF90AF909F900895CF93DF93EC0146E069E572E00E94CF274BE063E4A5
:2022800072E0CE01DF91CF910C943028FC0181A508950F931F93CF93DF93EC01CB01BA01F9
:2022A000122F40E00E944B3A8D8D9E8D112319F065E77FE002C060E070E00E94B1338D8D77
:2022C0009E8D002319F069E77FE002C060E070E0DF91CF911F910F910C94B733CF93DF9328
:2022E000EC016CEF7BE38D8D9E8D0E94BD336EE17CE38D8D9E8DDF91CF910C94C333BF92B7
:20230000CF92DF92EF92FF920F931F93CF93DF9300D01F92CDB7DEB77C01062FB42E0E94E1
:202320005128182F882309F440C02FB7F89480914F0990915009A0915109B09152092FBFCB
:20234000670124E0029FC00CD11C1124F60142A553A564A575A5841B950BA60BB70B853F13
:202360009140A105B10508F189E489830A83BB82F701658D768D6A5C7F4F01E023E0AE01E0
:202380004F5F5F4FC7010E94FB292FB7F89480914F0990915009A0915109B09152092FBFE9
:2023A000F60182A793A7A4A7B5A7812F0F900F900F90DF91CF911F910F91FF90EF90DF90F2
:2023C000CF90BF900895EF92FF920F931F93CF93DF93CDB7DEB728970FB6F894DEBF0FBEE5
:2023E000CDBF88E0E8E6F3E0DE01119601900D928A95E1F78E010F5F1F4F7E0189E0E80E52
:20240000F11CF80161918F0180E00E945B3B0E151F05B9F780E00E948B3A8823D9F32896A9
:202420000FB6F894DEBF0FBECDBFDF91CF911F910F91FF90EF9008950F93CF93DF93EC0127
:20244000623009F1A0F4662309F459C0613009F05FC001E020E042E15AE760E070E019DF47
:2024600061E080E0DF91CF910F910C94203A633001F1643009F04CC000E021E040E056E9F3
:2024800060E070E043C060E080E00E94203A40E060E076E980E090E00E944B3ACE0193DF16
:2024A0006DE77FE08D8D9E8D0E94BD336EE17CE313C060E080E00E94203A40E060E076E9B6
:2024C00080E090E00E944B3A6DEA7FE08D8D9E8D0E94BD336DEC7FE08D8D9E8D0E94C333E3
:2024E00060E070E08D8D9E8D0E94B13360E070E08D8D9E8DDF91CF910F910C94B733EEDEE6
:2025000001E021E042E15AE760E070E0CE01C1DEDF91CF910F9108953F924F925F926F92C6
:202520007F928F929F92AF92BF92CF92DF92EF92FF920F931F93CF93DF9300D000D0CDB776
:20254000DEB76C01A42E4901402E623009F4FDC230F4662369F0613009F4E6C212C36430FC
:2025600009F41CC108F4B9C0653009F447C209C3411154C02130310541F088F02230310587
:20258000F9F023303105B1F031C361E0011101C060E0F601858D968D0E943E2F29C3FC01BC
:2025A000858D968D002311F061E001C060E00E9498331EC301111CC080E00E94253A18C308
:2025C00023E030E040E060E0F601838D948D0E94CA36672B682B692BA1F161E0011101C05F
:2025E00060E0F601858D968D0E94B332411009C001E021E042E15AE760E070E0C60149DE0A
:20260000F7C220E030E041E060E0F601838D948D0E94CA36633099F564E031C0F1E04F133D
:2026200031C02115310579F423E030E040E060E0FC01838D948D0E94CA36672B682B692BD4
:2026400039F46CE0EFC02330310508F0CFC2A8C222E030E040E060E0F601838D948D0E949A
:20266000CA36672B682B692B61F3F4E0F01708F4A5C2F3E04F1202C034E0432E642DC6013C
:20268000DBDEB6C242E0A412B1C221153105A9F4FC01838D948D0E94F90790E0202F002EF8
:2026A000000C330B281739070CF0BBC0602FF601838D948D0E940C0873C22130310509F0B8
:2026C00095C241E0401708F491C2602F6170FC01838D948D0E94580863C2F2E04F1709F4F2
:2026E00040C0FC01838D948D242F30E0F2E04F1708F444C048E04A1508F440C0F901E65757
:20270000FC4FB08094014B2D63E00E94CA367C836B83CE01019646DC65E0A61631F087E04E
:20272000A81619F093E0A91202C04A8201C0098389819A8180FF02C0906801C09F779A8377
:2027400090E0959587958983E12CF12CF82E8A81E82AFC82EB8200E010E094014B2D63E03F
:2027600017C2B901FC0183A194A1FCD3E02E000FFF08000B110B940142E0F1CFF9E0AF1245
:2027800001C04A94E42C440CFF08000B110BF901E657FC4F9401408163E0FDC143E0A41656
:2027A00009F4E4C04A1568F061E0A616A9F06A15F8F0402F622FFC0185A196A10E94C421E3
:2027C000EFC185E0A81609F4D1C0A81678F197E0A91208C14A94CAC0011102C040E001C059
:2027E00045E0682DF60185A196A10E94FC20D8C1F1E02F17B1F02F1720F042E0241761F0B8
:20280000F5C161E0601708F4F1C1602FFC0185A196A10E94C023D4C1F1E0F01708F4E6C11E
:20282000CFC16DE0C6010E94842CE0C1A22E822F0E940B2460E00E94062440E0682FF601F5
:2028400085A196A10E94C421882D0E940B2461E00E94062440E0682FF60185A196A10E9454
:20286000C421882D0E940B2462E00E94062440E0682FF60185A196A10E94C421882D0E94F6
:202880000B24E02E000FFF08000B110B282F30E042E064E0F601838D948D0E94F336182FB7
:2028A000442009F47BC1882309F4A0C1B12C940141E064E0F601838D948D0E94CA362B01A5
:2028C0003C018A2D0E940B246B2D0E940624282F30E08301720141E064E0F601838D948DE4
:2028E0000E94F336882309F481C1940143E064E0F601838D948D0E94CA362B013C018A2D3D
:202900000E940B246B2D0E940624282F30E08301720143E064E0F601838D948D0E94F336CA
:20292000882309F463C1940145E064E0F601838D948D0E94CA362B013C018A2D0E940B2412
:202940006B2D0E940624282F30E08301720145E064E0F601838D948D0E94F336882309F4B1
:2029600045C1B394F3E0BF12A2CF1AC1382C882D0E940B24282F30E042E064E0F601838D5C
:20298000948D0E94CA36EA2DF0E0042C000C550866087708672B682B692BF9F0912CCF01D8
:2029A0008E579C4F5C01832D0E940B24692D0E940624282F30E083017201F501408164E0AE
:2029C000F601838D948D0E94F336882309F40EC19394F3E09F12E7CFE3C0EE57FC4F830175
:2029E000720109C0E02E000FFF08000B110BEA2DF0E0EE57FC4F94014081E9C0442329F05A
:202A0000F1E04F1709F463C0F1C02330310520F42130310548F028C024303105B1F148F105
:202A200025303105F1F1E2C0F1E0F01708F4DEC00023B1F021E030E041E065E0FC01838DCD
:202A4000948D0E94CA36162F20E030E041E065E0F601838D948D0E94CA3621E0412F4EC0AF
:202A600021E043E062E04AC0F1E0F01708F4BEC0B0C041E0401708F4B9C0602F6170F601E0
:202A800087A190A50E94F743A4C0F1E0F01708F4ADC0602F6170F60187A190A50E94423C84
:202AA00098C08FEF800F853008F0A0C028EE33E00203A001039F500D1124052E000C660BF1
:202AC000770BF60187A190A50E94074482C02115310521F021303105B9F088C042E0401783
:202AE00008F484C021E030E041E065E0FC01838D948D0E94CA36462F21E0602FF60187A12B
:202B000090A50E94F63F65C0F3E0F01708F46EC020E030E041E065E0FC01838D948D0E943A
:202B2000CA3621E0402FEACFF4E04F1301C04A94E42C440CFF08000B110BEA2DF0E0E356E9
:202B4000FC4F9401408161E023C0F4E04F1301C04A94E42C440CFF08000B110BEA2DF0E066
:202B6000EC56FC4F9401408162E0F601838D948D0E94F336182F682DF60181A192A1E6D758
:202B80000DC0E42C440CFF08000B110B94014A2DF601838D948D0E94F336182F112331F13E
:202BA000E12C00E010E020E030E047E060E0F60187A190A50E94683E81E027C06AE032CE93
:202BC000E42C440CFF08000B110B940140E064E0DFCFE42C440CFF08000B110BEA2DF0E04B
:202BE000E058FC4F9401408165E0D2CF80E00DC0E42C440CFF08000B110BEA2DF0E0EE5531
:202C0000FC4F9401408160E0C3CF0F900F900F900F90DF91CF911F910F91FF90EF90DF9028
:202C2000CF90BF90AF909F908F907F906F905F904F903F9008950F93CF93DF93EC0161E16C
:202C40008D8D9E8D0E94BB2F20E030E040E060E08B8D9C8D0E94CA368D8D9E8D0E9498339E
:202C600021E030E040E060E08B8D9C8D0E94CA3621E0672B682B692B09F420E0622F8D8D9E
:202C80009E8D0E943E2F61E08D8D9E8D0E94AC33CE0124DB23E030E040E060E08B8D9C8D71
:202CA0000E94CA36672B682B692B09F441C022E030E040E060E08B8D9C8D0E94CA3621E065
:202CC000672B682B692B09F420E0622F8D8D9E8D0E94B33222E030E040E060E08B8D9C8D2E
:202CE0000E94CA36672B682B692BB1F020E030E041E060E08B8D9C8D0E94CA36633039F4C4
:202D000000E021E040E056E960E070E00BC0CE01DF91CF910F9190CB01E021E042E15AE738
:202D200060E070E0CE01B5DADF91CF910F91089580E00E94253A60E070E08D8D9E8D0E94C0
:202D4000B13360E070E08D8D9E8DDF91CF910F910C94B733CF92DF92EF920F931F93CF93B7
:202D6000DF9300D000D0CDB7DEB76C01162F9C838B839A8389836535A1F1C8F4643489F126
:202D800048F4623451F1633409F074C0CE01039666D823C06D3409F448C0603509F06AC074
:202DA000FC01838D948D0E94F907682F4AC0653609F45CC040F4663561F0643609F05AC021
:202DC000FC0111A659C06D3609F43FC06F3749F051C0CE01039643D84FC0CE01019653D874
:202DE0004BC0F60185A196A10E948B2380E090E00196853CF9E09F0739F0EFE9FFE03197D5
:202E0000F1F700C00000F4CF143439F460E0F601838D948D0E949D0904C0153511F481E0AE
:202E200001C080E00E94E12527C068E10E94EA2968E0C6010E94EA2968E0C6010E94EA295C
:202E400060E1C6010E94EA2917C020E030E041E060E0FC01838D948D0E94CA36633061F4B5
:202E6000C601B1DA63E0C601E7DA06C081E0F60181A702C080E00DC0E12C00E010E020E023
:202E800030E047E060E0F60187A190A50E94683E81E00F900F900F900F90DF91CF911F91C2
:202EA0000F91EF90DF90CF900895DF92EF92FF920F931F93CF93DF937C010E9441258823AD
:202EC00009F448C0C0E0D0E09E0140E063E0D7018D919C910E94CA36672B682B692B69F1C3
:202EE000DC2E8C2F0E9433258C019E0142E063E0F701808191810E94CA366330A1F062301F
:202F000069F020F08CEF860F8330B8F4012E000C220B330B4D2DC7013BD00FC0A8016C2FD3
:202F2000C7016ED20AC0D7011A96ED91FC911B97309719F0B8018C2F09952196C830D10513
:202F400019F6DF91CF911F910F91FF90EF90DF900C944825DF91CF911F910F91FF90EF908A
:202F6000DF900895DC01A60FB71F94961C9294976A5F7F4F660F771FFC01E60FF71F11829D
:202F800010825C961C920895FC017387628708952F923F924F925F926F927F928F929F921D
:202FA000AF92BF92CF92DF92EF92FF920F931F93CF93DF93CDB7DEB76C970FB6F894DEBF69
:202FC0000FBECDBF1C016D834F8728013901862F8550823038F421E030E0AA24AA94AFE33B
:202FE000BA2E05C026E030E0FFE7AF2EB12C6F85462F50E0BA01660F771FD101A60FB71FB2
:20300000BB8FAA8F1C968D909C901D976401E12CF12C4C145D046E047F0410F012E001C086
:2030200011E0F101E40FF51FF98BE88B04A1002391F0101721F0823010F4220F331FC20132
:203040008819990997FF03C09195819591098217930708F4BCC1950140E050E02B873C87F7
:203060004D875E873FEFA31633E0B30609F458C04FEFA41643E0B40670F5A30192018B844F
:203080009C84AD84BE846FEF861A960AA60AB60AC501B4010E94C8486F83788789879A8740
:2030A000A7019601C501B4010E94C8486B017C013AE0F694E794D794C7943A95D1F78F8030
:2030C0009884A984BA844AE0B694A794979487944A95D1F727C0A30192016B857C858D85AC
:2030E0009E850E94C848CC24CA9423E0D22EE12CF12CA70196010E9404492F833A8B4E8B02
:203100005C8F9401D5010E942649A70196010E94044969017A018F809A88AE88BC8C02C0C4
:2031200053014201C814D904EA04FB0411F401114EC14E8A5F8A688E798E0D81A889B9896D
:2031400094961C93BF85EB2EF12C970144E063E0F101808191810E94CA366F837887898775
:203160009A872F8138853E832D83970145E063E0D1018D919C910E94CA362B013C01798B24
:20318000688B970143E063E0F101808191810E94CA366A8B7B8B8C8B9D8BCA88DB88970110
:2031A00046E063E0D1018D919C910E94CA36162F023010F0043011F5EA89FB89FC83EB8352
:2031C000CE0101960E94D20FCA80D12C2F8138853C832B83CE0101960E94D20F8A81482F7A
:2031E00050E05E834D835C824B82CE0101960E94D20F8A81682F70E0798B688BE889F9897E
:20320000CF01A0E0B0E02D813E812901612C712C232B49F44B855C856D857E85481759071D
:203220006A077B0791F1BC01CD0164197509860997092B853C854D855E85621773078407C0
:20324000950798F49B01AC012F5F3F4F4F4F5F4FC501B4010E94C8482B853C854D855E8542
:203260002F5F3F4F4F4F5F4F08C0A50194010E94C8482B853C854D855E850E9404495301C8
:203280004201820E931EA41EB51E970141E063E0D1018D919C910E94CA36672B682B692BA1
:2032A00051F02B853C854D855E85281939094A095B0949015A01063028F4043088F5023093
:2032C00090F085C0063009F082C0412FB401F101828193810E942F2FEE24E394E10E84018D
:2032E000960146E059C0D10112968D919C911397EE24E394E10E212F482D6C2D01110AC0D7
:203300000E94272F8401960142E061E0F1018681978148C00E94052F8401960141E03CC00E
:20332000DC82CB82CE0101960E94D20F212F498163E6F101828193810E94272F212F4A817A
:2033400062E6D10112968D919C9113970E94272F043021F4212F482D66E013C09C828B826C
:20336000CE0101960E94D20F212F498166E0D10112968D919C9113970E94272F212F4A8182
:2033800066E2F101828193810E94272FEE24E394E10E8401960147E161E0D10116968D914B
:2033A0009C9117970E94683ED1011896ED91FC9119970190F081E02D309719F06F8583E079
:2033C00009952E893F89EA8DFB8D358724876C960FB6F894DEBF0FBECDBFDF91CF911F91A1
:2033E0000F91FF90EF90DF90CF90BF90AF909F908F907F906F905F904F903F902F9008956E
:203400004F925F926F927F928F929F92AF92BF92CF92DF92EF92FF920F931F93CF93DF93D8
:20342000EC01F62E5A01CA01A0E0B0E088329105A105B10558F0853521E09207A105B105A1
:2034400048F084E591E0A0E0B0E004C088E290E0A0E0B0E08897A109B109BC01CD0127E087
:20346000660F771F881F991F2A95D1F72DE231E040E050E00E94044929013A01CF2CD12C9F
:20348000FE01EC0DFD1D848D232B242B252B71F1811165C081E0848F960143E063E0888189
:2034A00099810E94CA36962E960146E063E0888199810E94CA36862E262F442D692D8A81AC
:2034C0009B810E94052FEE24E394E80C292D30E0820141E061E08E819F810E94683EEE24A9
:2034E000E394082D242D492D60E92CC08823B9F1148E960143E063E0888199810E94CA366B
:20350000162F960146E063E0888199810E94CA36762E262F40E0612F8A819B810E940D2FF3
:20352000EE24E394E70C212F30E000E010E040E061E08E819F810E94683EE12C01E0272DC5
:2035400040E060E88C819D8168D7E885F9850190F081E02D309719F06F2D83E0099586E0CC
:20356000C80ED11CCC0CDD1CCC0DDD1DB982A882DF91CF911F910F91FF90EF90DF90CF9083
:20358000BF90AF909F908F907F906F905F904F900895AF92BF92CF92DF92EF92FF920F93BE
:2035A0001F93CF93DF93EC01042F122FA62EB12C950142E061E0888199810E94CA36F62E91
:2035C000950144E061E0888199810E94CA36D62E950143E061E0888199810E94CA36C62E74
:2035E000133141F4950141E061E0888199810E94CA36162FFCA6002309F40BC1173009F47E
:20360000AFC010F5143048F4123008F081C01123C1F1113009F466C059C18A819B81AE0101
:20362000465D5F4F153009F48DC008F0E4C021E02EA766E070E00E948F2C2CA530E0E12C57
:2036400000E010E043E13DC11B3009F4B0C088F48A819B81193009F496C008F09EC068EFD4
:203660000E944A2EE12C00E010E020E030E04CE028C11D3009F4B3C008F4A5C01031E0F0FF
:2036800025C12D2D4C2D6F2D8A819B810E94052FEE24E394ED0C0C2D10E02F2D30E041E0A0
:2036A00061E08E819F810E94683EEE24E3940D2D2C2D4F2D60E9EFC01130A1F08D2D90E0C6
:2036C000FC01E950F74F20811E3021F42F3730F42F5F03C0222311F021502083FC01E950FF
:2036E000F74FF0804D2D6F2D8A819B810E941F2FEE24E3940D2D20E04F2D60EC8C819D8131
:203700008CD6ED0C2F2D30E000E010E043E0D9C02D2D4C2D6F2D8A819B810E94272FEE24B6
:20372000E394ED0C0C2D10E02F2D30E042E061E08E819F810E94683EEE24E3940D2D2C2D8E
:203740004F2DA8C022E02EA721E066E070E00E948F2C2CA530E0E12C00E010E042E1B1C068
:2037600089E08EA7AE01465D5F4F21E066E070E08A819B810E948F2C2CA530E0E12C00E0C2
:2037800010E044E19EC06AEF0E944A2EE12C00E010E020E030E04DE094C06BEF0E944A2E61
:2037A000E12C00E010E020E030E04EE08AC06CEF8A819B810E944A2EE12C00E010E020E02B
:2037C00030E04FE07EC06EEF8A819B810E944A2EE12C00E010E020E030E040E172C06FEF30
:2037E0008A819B810E944A2EE12C00E010E020E030E041E166C026E02EA721E066E070E0E1
:203800000E948F2C2CA530E0E12C00E010E045E158C0133039F1163009F441C0111156C066
:203820002D2D40E06F2D8A819B810E940D2F8A819B810E949D33EE24E394ED0C2F2D30E0E6
:2038400041E0813009F440E000E010E061E08E819F810E94683EEE24E3940D2D20E04F2DB2
:2038600060E819C02D2D40E06F2D8A819B810E94272FEE24E394ED0C2F2D30E000E010E034
:2038800042E061E08E819F810E94683EE12C01E02D2D40E060EB8C819D81BFD517C087E09E
:2038A0008EA7AE01465D5F4F21E066E070E08A819B810E948F2C2CA530E0E12C00E010E0FA
:2038C00046E161E08E819F810E94683EDF91CF911F910F91FF90EF90DF90CF90BF90AF907F
:2038E00008959C01962F96959695969588E0989F60191124E92FF0E0E20FF31F81E090E03F
:20390000A0E0B0E004C0880F991FAA1FBB1F6A95D2F7442319F022A1822B03C0809592A12E
:20392000892382A30895262F269526952695820F911DFC0182A190E0F8E02F9F6019112470
:2039400002C0959587956A95E2F7817008959C01962F96959695969588E0989F60191124C9
:20396000E92FF0E0E20FF31F81E090E0A0E0B0E004C0880F991FAA1FBB1F6A95D2F7442396
:2039800019F026A1822B03C0809596A1892386A30895262F269526952695820F911DFC0167
:2039A00086A190E0F8E02F9F6019112402C0959587956A95E2F781700895CF92DF92FF924B
:2039C0000F931F93CF93DF93EC01062FF42EABDF8F1509F466C04F2D602FCE0182DFC02E01
:2039E000D12C960141E061E0888199810E94CA36162F603109F444C0960140E061E0888134
:203A000099810E94CA36163038F41430F8F48FEF810F823040F41AC0103118F4173028F0CE
:203A200015C01131D9F0613089F4FF20A9F0602FCE01AFDF882331F040E0602FCE0187DF44
:203A4000F12C04C041E0602FCE0181DF212F4F2D602FCE019EDD14C0113161F4960142E0DD
:203A600061E0888199810E94CA36888199810E940C0806C0123121F440E0602FCE0159D0A2
:203A8000E885F9850190F081E02D309751F0602F81E0DF91CF911F910F91FF90DF90CF90B7
:203AA0000994DF91CF911F910F91FF90DF90CF900895FC01E60FF11D9285990F406F492B6D
:203AC000428781E0403F21F04F3F11F080E0089508950F931F93CF93DF938C01C0E08C2FF3
:203AE00004D7282F30E040E062E0F801808191810E94CA36672B682B692B69F48C2FDED6EF
:203B0000D82F482F6C2FC801D4DF882321F04D2F6C2FC80152DFCF5FC03109F7DF91CF9154
:203B20001F910F91089581E0693E734008F480E0089508952FB7F89460914F097091500932
:203B400080915109909152092FBF08950F931F93CF93DF938C01C62FD0E09E0142E062E096
:203B6000FC01808191810E94CA369E012B5F3F4F653071058105910559F4C901880F991F4F
:203B8000F801E80FF91F80E090E29183808308C0C901880F991FF801E80FF91F1182108226
:203BA000FE01EE0FFF1FEE0FFF1FE00FF11F128E138E148E158EF801EC0FFD1F12AEDF019B
:203BC000A65BBF4F1C9218961C9218961C92EE59FF4F1082DF91CF911F910F9108950F93EA
:203BE0001F93CF938C01C0E06C2FC801AFDFCF5FC830D1F7CF911F910F910895860F911D14
:203C0000860F911DFC01538742870895CF92DF92EF92FF920F931F93CF93FC01262F30E028
:203C20008C01020F131FD801A65ABF4F8C914370982F990F990F492B942F90689C9387FD04
:203C400002C080E032C04F70DF01A40FB11DA659BF4F8C91D801AE59BF4F9C91C82FC90F1C
:203C6000CC9345E062E0808191810E94CA362C2FCC0F330B37FF03C031952195310969013C
:203C8000330FEE08FF08C616D706E806F906CCF2F801EE59FF4F8081181614F082E001C09D
:203CA00081E0F801EE59FF4F1082CF911F910F91FF90EF90DF90CF9008952F923F924F92E7
:203CC0005F926F927F928F929F92AF92BF92CF92DF92EF92FF920F931F93CF93DF9300D021
:203CE00000D0CDB7DEB76C012C015C012AE3A20EB11C3C01812C912C940140E062E0D601E5
:203D00008D919C910E94CA36672B682B692B09F4BFC1882DECD5482F682DC60177DF382E7B
:203D200009DFF201028D138D248D358DDC01CB01801B910BA20BB30BC397A105B10530F0E5
:203D4000D50158961C92589750961C92332009F49FC1940141E062E0F601808191810E941A
:203D6000CA36672B682B692B41F0F1E03F1619F03324339402C032E0332ED50158968C91F6
:203D80005897843081F018968C911897381611F058961C92F501808D8F5F843011F0808FF5
:203DA00002C0108E308A940146E062E0F601808191810E94CA36162F662351F1BBDED201C4
:203DC0005A962D913D914D915C915D97DC01CB01821B930BA40BB50BF5018C389105A1055F
:203DE000B105A8F440819601210F311DF901E658FF4F808190E03496208130E0840F911DE8
:203E0000281739070CF4C901D5018C9301C01082D50118963C928EDEF201628F738F848F5A
:203E2000958FD50150968C918111382E940143E062E0F601808191810E94CA36262E9401FE
:203E400044E062E0D6018D919C910E94CA36E62E940142E062E0F601808191810E94CA367F
:203E6000F62ED5018C91811101C081E0B2E0FB16E1F0FB1650F0E3E0FE1609F43FC09BEF55
:203E80009F0D933008F0F7C039C08F2D90E0FC01EE0FFF1FE80FF91FEC0DFD1DE30DF11DA7
:203EA000EE57FF4F008110E06AC0EE2DF0E021E0DF01A950B74F8C91321204C08F3730F4FA
:203EC0008F5F03C0882311F081508C93E950F74F6081062F10E04E2DD60112968D919C91CB
:203EE00013970E941F2FE394822D8F77282F30E043E061E0F6018681978157C09F2D9D7F1C
:203F0000953031F4823018F0880F880F01C081E090E0F1E03F1211C0D3011A962D913C913B
:203F20001B97F901E81BF90BCF01F7FF1BC0D3011B961C921E921A971DC0B3E0FB1619F00F
:203F4000E6E0FE1203C02FE730E002C02FEF3FE3D3011A964D915C911B97840F951F281719
:203F600039072CF01B969C938E931A9703C0F30133872287D3011A960D911C911B97B5E003
:203F8000FB1216C04E2DB801F601828193810E942F2FE394822D8F77282F30E046E061E002
:203FA000D60116968D919C9117970E94683E63C08AEF8F0D8230E0F5312C3C822B82CE01E7
:203FC00001960E94D20F2E2D498163E6F601828193810E94272F2E2D4A8162E6D601129666
:203FE0008D919C9113970E94272FB6E0FB1204C02E2D402F66E013C01C830B83CE010196F7
:204000000E94D20F2E2D498166E0D60112968D919C9113970E94272F2E2D4A8166E2F601E1
:20402000828193810E94272FE394910147E1B7CFB4E0FB1679F02E2D402F622DF601828159
:2040400093810E94272FE394822D8F77282F30E042E0A5CFF601808191810E94E307F2E0C3
:204060003F1611F06FEF01C061E0680FD6018D919C910E940C08D6011896ED91FC911997FB
:204080000190F081E02D309719F0682D82E00995BFEF8B1A9B0AE2E06E0E711CFFEFAF1A32
:2040A000BF0A24E0420E511C48E08416910409F023CE0F900F900F900F90DF91CF911F9139
:2040C0000F91FF90EF90DF90CF90BF90AF909F908F907F906F905F904F903F902F90089581
:2040E000CF92DF92FF920F931F93CF93DF93DC0153968D919C915497892B09F475C052966B
:204100008C915297882319F08130B9F16DC08FB7F89440914F0950915009609151097091DC
:2041200052098FBFD6960D911D912D913C91D997401B510B620B730B4436510561057105D5
:2041400008F452C08FB7F89440914F095091500960915109709152098FBFD6964D935D93EB
:204160006D937C93D99753964D915C915497FD0120E030E0FF24F39420C06111F4CF34C060
:2041800092AD9F2592AF13A687E0C82E89E0D82EBD01E601888181FD19C0DFEFCD1ADD0AB5
:2041A0006F5F7F4F87E1C81689E0D80691F72F5F3F4F31962B303105B9F083A58F5F83A7F1
:2041C000EA019991AE018917D8F6F1CFEB010A8110E00217130709F7992311F0846001C0F1
:2041E0008B7FE6018883D9CFDF91CF911F910F91FF90DF90CF900895DF92EF92FF920F93DC
:204200001F93CF93DF9300D01F92CDB7DEB77C01062F142F862FFFD2D82E282F30E042E074
:2042200064E0F701808191810E94CA36672B682B692B71F060E08D2DE9D2898361E08D2DB7
:20424000E5D28A8362E08D2DE1D28B8343E004C009830A830B8341E0BE016F5F7F4F9B0137
:2042600050E0D701A00FB11D1296C901861B970B84179507CCF4F9018081E82FF0E0E95FE3
:20428000F64F8081112311F0866009C0982F9D7F908380FF03C09460908302C0897F8083E8
:2042A0001C932F5F3F4FE1CF0F900F900F90DF91CF911F910F91FF90EF90DF9008951F93BA
:2042C000CF93DF93E62FF0E0E95FF64F808180FF2CC083FF2CC0862F9ED2182F60E096D2AA
:2042E000E82FF0E0E95FF64FD08161E0812F8ED2E82FF0E0E95FF64FC08162E0812F86D2A9
:20430000E82FD6FB882780F9C5FB992790F9880FC82FC92BF0E0E95FF64F808184FB992765
:2043200090F98C2F880F892B03C080E001C081E0DF91CF911F910895E62FF0E0E95FF64F1A
:2043400080818695817008950F93E62FF0E0E95FF64F80814423A1F080FD80E0222339F05B
:20436000013051F038F0023049F08D600AC0877F856007C08D6105C08D6203C08D6401C0B8
:2043800080E080830F910895DF92EF92FF920F931F93CF93DF93EC01F62E142F862F3BD2BC
:2043A000082F282F30E042E064E0888199810E94CA36672B682B692BF9F060E0802F26D2AB
:2043C000D82E61E0802F22D2E82E62E0802F1ED2F82E00E020E0412F41706D2DCE01B4DFD9
:2043E00041E011FF40E000E020E06E2DCE01ACDF41E012FD05C003C041E0111101C040E0BB
:2044000000E020E06F2DCE019FDFDF91CF911F910F91FF90EF90DF9008952F923F924F9226
:204420005F926F927F928F929F92AF92BF92CF92DF92EF92FF920F931F93CF93DF93CDB705
:20444000DEB72F970FB6F894DEBF0FBECDBF5C01162FF22E242F22952F702D833F2C32946E
:204460008FE038228F2D37E73F1508F487E76AE00E94D748882EC12CD12C802F90E0A0E091
:20448000B0E08E839F83A887B987842F90E0A0E0B0E089839A83AB83BC83222423942F0CE9
:2044A0002F2D30E040E050E02A873B874C875D87012F0F7E960145E064E0D5018D919C9138
:2044C0000E94CA362E813F8148855985621773078407950709F0EEC0960143E064E0D5018B
:2044E0008D919C910E94CA36EE2041F16530A9F040F4613059F0633009F04AC0E1E0EE8787
:2045000035C0663069F0683091F042C01039F1F1B1E0BE871038B9F537C0F1E0FE8731C067
:204520000038B1F581E08F8791E09E8744C0103B79F5A1E0AF87B1E0BE873DC06430F9F0CC
:2045400028F4662341F0623069F022C0663089F0683091F01DC00038E9F021E02F87103BA0
:20456000B9F41EC00038D1F031E03E87103B59F40BC0003869F416C0103B51F418C041E08A
:204580004E87103C09F01E861F8615C01F8611C01F8606C01F86E1E0EE870DC0F1E0FF8703
:2045A0001E8609C021E02F8731E03E8704C041E04F8751E05E879C2C8C2D2DD1282F30E04A
:2045C00042E064E0D5018D919C910E94CA362B013C01BE85BB2309F444C0960141E064E02B
:2045E000F501808191810E94CA3629813A814B815C81621773078407950769F5103C31F419
:20460000452846284728F1F07D8020C0452846284728D9F43F85311118C0960144E064E09E
:20462000D5018D919C910E94CA36772473942A853B854C855D85261737074807590731F0A8
:20464000712C04C07724739401C0732C472D692DC5019ADE07C0103C21F440E06C2DC50108
:2046600093DE712C3F85332329F1960141E064E0D5018D919C910E94CA3629813A814B8108
:204680005C816217730784079507A1F43E85332369F0FF2049F0772039F0422D50E1759E51
:2046A000401911244B3018F040E001C0482D692DC501A2DD8FEFC81AD80A90E1C916D10451
:2046C00009F0F8CE2F960FB6F894DEBF0FBECDBFDF91CF911F910F91FF90EF90DF90CF9013
:2046E000BF90AF909F908F907F906F905F904F903F902F9008950F931F93CF938C01C0E0F4
:2047000041E06C2FC80140DECF5FC031C9F7CF911F910F9108950F931F93CF938C01C0E0E7
:2047200040E06C2FC80130DECF5FC031C9F7CF911F910F910895CF93DF93EC01DCDF80E0DF
:2047400090E00196813D27E0920739F0EFE9FFE03197F1F700C00000F4CFCE01DCDF80E0F7
:2047600090E00196813DF7E09F0739F0EFE9FFE03197F1F700C00000F4CFDF91CF91089577
:20478000FC01662319F0613019F00895809601C04596948B838B628B0895CF93DF93EC0129
:2047A000662371F022E030E040E064E0888199810E94CA36672B682B692B11F0CE01BBDFB1
:2047C00020E030E040E064E0888199810E94CA36CE01D6DFFE01FA96CB5BDF4F81E08193C4
:2047E000EC17FD07E1F7DF91CF910895FC01BB96C69621E011922687E817F907D9F7089506
:20480000E82FF0E0E95FF64F80810895982F990F890F860F08959BEA899F812D11248695A2
:20482000853008F084E00895EF92FF920F931F93CF930BE119E0C0E0EE24E394F12C8C2F1C
:20484000DFDF857091E0853009F090E090931A098C2FA7D260931709709318098093190930
:2048600080911A09F80190819817E9F0E0911709F091180990911909882349F040819701BF
:2048800001C0220F9A95EAF7242B20830AC02081A70101C0440F9A95EAF7942F9095922350
:2048A0009083F8018083CF5F0F5F1F4FC03139F6CF911F910F91FF90EF900895982F969572
:2048C00096959695E92FF0E0EF5CF64F208130E048E0949F80191124A90102C055954795FE
:2048E0008A95E2F7CA018170089586950895CF93DF93C82FCC0F8C2FE1DFD82FDD0F81E03A
:204900008C0FDCDF8D2BDF91CF91089580912E09882339F19FB7F89480912F098F5F8093D3
:204920002F09853011F410922F09E0912F09F0E0EE0FFF1FED5CF64F808180933109E091CA
:204940002F09F0E0EE0FFF1FED5CF64F81818093320980912E09815080932E099FBF81E034
:20496000089580E00895BF92CF92DF92EF92FF920F931F93CF93DF93B12C00E010E0C12CA6
:20498000D12C7601C394C0E0D0E08C2F8B0DFCD1FB0160932B0970932C0980932D0932976F
:2049A000808190E000902D0902C0959587950A94E2F72091300980FD15C0C801820F911DFD
:2049C000820F911DFC01ED5CF64F2081D701C6010C2E04C0880F991FAA1FBB1F0A94D2F776
:2049E000822B16C0C801820F911D820F911DFC01ED5CF64F9081B701A6010C2E04C0440FA1
:204A0000551F661F771F0A94D2F74095842F892380832196C830D10509F0B7CF0F5F1F4F89
:204A200038E0B30E80E1B812AECFDF91CF911F910F91FF90EF90DF90CF90BF9008958091FC
:204A40002E09853078F4809130098F5F80933009853011F41092300986DF80912E098F5F4A
:204A600080932E0908952FB7F894E82FF0E0EE0FFF1FE35CF64F80819181118210822FBF31
:204A8000089590914D0981E0913009F080E0089510924D0910924E09EAE7F0E08081806473
:204AA0008083089580912403811129C0209178003091790080914E09E82FF0E0EE0FFF1FD6
:204AC000E35CF64F40815181240F351F318320838F5F883019F080934E0907C010924E0908
:204AE00080914D098F5F80934D0980914E0946D190917C00907F8F70892B80937C0090916A
:204B0000240381E089278093240380914D09813029F080917A00806480937A0008951FBA80
:204B200010BE1CBC1DBA1092680010927A0010926E0010926F0010927000109271001092EA
:204B4000C9001092BC0012B815B818B81BB81EB811BA11B814B817B81AB81DB810BA0895E1
:204B6000F89484B7877F84BF80916000806180936000109260008FE19EE40197F1F700C02C
:204B80000000CDDF98E088E10FB6F894A895809360000FBE90936000FFCFF89484B7877F9C
:204BA00084BF0FB6F894A89580916000886180936000109260000FBE36D186D10E94EA3B63
:204BC000ABC1882321F0813039F467E401C06FEF8FEF9FE00E94644CC3DF0F931F938DEFA4
:204BE0009FE00E94414C43E559E060E8772748E950E060E070E06BBFFA01479157916791F2
:204C000076914093530950935409609355097093560903E519E020E833276BBFFA0167910B
:204C200076918617970731F08DEF9FE00E94604C81E001C080E01F910F910895CF93DF9385
:204C4000DC01CB01E901433028F0433069F40E94414C03C00E94344C90E0A0E0B0E08883C7
:204C60009983AA83BB8306C00E943C4C688379838A839B8381E0DF91CF9108950F93DC015E
:204C8000CB01BA01033030F0033041F4B9010E94604C07C0622F0E94464C03C0A9010E942F
:204CA000584C81E00F9108951F920F920FB60F9211240BB60F922F933F934F935F936F93F9
:204CC0007F938F939F93AF93BF93EF93FF93EADEFF91EF91BF91AF919F918F917F916F91FE
:204CE0005F914F913F912F910F900BBE0F900FBE0F901F9018951F920F920FB60F92112498
:204D00000BB60F922F933F934F935F936F937F938F939F93AF93BF93EF93FF939091250370
:204D200081E08927809325038823A1F080914F0990915009A0915109B09152090196A11D8C
:204D4000B11D80934F0990935009A0935109B09352096ADD74DEFF91EF91BF91AF919F910A
:204D60008F917F916F915F914F913F912F910F900BBE0F900FBE0F901F901895E82FF0E0ED
:204D8000EB5FFB4F8081089590E0FC01EE0FFF1F8E0F9F1FFC01EB52FC4F608171818281A3
:204DA000089590E0FC01EE0FFF1F8E0F9F1FFC01EB55FC4F608171818281089510927C005A
:204DC00010927A00803269F030F4803171F480917A0084600DC0803441F480917A008660DC
:204DE00007C080917A00856003C080917A00876080937A00923041F0933051F0913069F4A5
:204E000080917C00806407C080917C00806C03C080917C00806880937C0080917A008068A7
:204E200080937A00089526982E9A25982D9A24982C9A23982B9A22982A9A2198299A20988A
:204E4000289A6F98779A6E98769A0898109A0D98159A0998119A0E98169A0A98129A0F982D
:204E6000179A0B98139A279A2F98549A5C98559A5D98569A5E98579A5F98689A7098699A08
:204E80007198389A4098399A41983A9A42983B9A43983C9A44983D9A45983E9A46983F9A60
:204EA00047980C9A1498809888988198899882988A9883988B9884988C9885988D98869835
:204EC0008E9887988F98089580E891E077DF80E055DF90917C00907F8F70892B80937C0018
:204EE00083E090E020917A00206420937A0020917A0026FDFCCF20917800309179000197EF
:204F000089F780917A00886080937A0080917A00806480937A00089514BC15BCEEE6F0E033
:204F2000108284B5826084BD85B5836085BD8CE787BD80818260808308959FB7F89423E005
:204F400030E0882399F05E984FEF59E668E1415050406040E1F700C000005E9A4FEF59E683
:204F600068E1415050406040E1F712C05E9A4FEF53EC69E0415050406040E1F700C0000066
:204F80005E984FEF53EC69E0415050406040E1F700C0000021503109A1F69FBF08950F931D
:204FA0001F93CF93DF93FC01118A108A1282108E6115710509F44CC0442309F449C07583AD
:204FC0006483468380E090E060E070E050E0641775070CF03FC020E030E0C0E0D0E0A4811A
:204FE000B581A80FB91F0C9110E0C017D10764F511960D90BC91A02DA20FB31F0D911C912B
:205000001197689414F8169507951694E1F714960C93A481B581A80FB91F11960D90BC9153
:20502000A02DA20FB31F0D911C9111970F711127012B31F014961C9114971F5F14961C934F
:2050400021962B5F3F4FCBCF6F5F7F4F0396BFCF80E001C081E0DF91CF911F910F910895E5
:20506000FC0161157105D9F04423C9F0738B628B80E090E0242F30E0821793076CF46E5FE0
:205080007F4FDB0112975C91563020F4138A128A148A05C00196F0CF448B81E0089580E017
:2050A0000895FC0182810895FC018FE0878383E0808782E08187128613861486168615866A
:2050C00017860895DC015096ED91FC9151978181811107C08281833521F481E09381933479
:2050E00009F080E00895FC0191858085911106C08823C1F18230B1F18DE008958823A1F142
:20510000823091F192858385A481B58123E0929FA00DB11D112411960D90BC91A02D95E02A
:20512000899FA00DB11D11242D913C91119721323105A8F0848590E0BC016F5F7F4F1496C7
:205140004C9150E06417750741F445E0880F991F4A95E1F7281B390B02C020E230E08BE025
:20516000820F08958CE008958BE00895DC011A968C911A971496ED91FC91159793E0899F99
:20518000E00DF11D112481E01B962C919081291708F080E00895FC0180852485811117C0B6
:2051A00082E8820F823088F1928583850480F581E02D33E0939FE00DF11D11240180F2813A
:2051C000E02D55E0859FE00DF11D112418C0823021F482E8820F8230C0F0428533858481B9
:2051E0009581FC0153E0459FE00DF11D11240180F281E02D85E0389FE00DF11D112481E087
:205200009481291718F080E0089581E00895DF92EF92FF920F931F93CF93DF93FC01058900
:20522000083011F411E05CC0C089D1890B3098F11281111102C083E028C08D8184879E81C3
:205240009087DF80D1868885828729852387933020F084E08C8310E043C09681891710F023
:2052600086E0F8CF7F01CF0181DF182F811102C087E00BC031E03D1510F485E0EBCFC70136
:205280008ADF182F811103C088E08C8329C0C7012ADF081711F08BE0DDCF81E08C83D70159
:2052A00019968C9119978111BDCF5096ED91FC9151971C968C912285B0E28B9FC001112453
:2052C000820F911DD7011E969C938E931D9718968C911897813009F0A5CF83851F968C938B
:2052E000812FDF91CF911F910F91FF90EF90DF900895FC0192858385A481B58123E0929F19
:20530000A00DB11D112411960D90BC91A02D95E0899FA00DB11D112481E0458556852D916E
:205320003C914217530708F080E00895FC0192858385A481B58123E0929FA00DB11D11249D
:2053400011960D90BC91A02D95E0899FA00DB11D112412968C91129713962C91821739F00C
:205360009785981734F081E0291724F402C081E0089580E00895DC01611112C056968C919E
:2053800056975096ED91FC915197E80FF11D87EF808356968C9156978F5F56968C935697ED
:2053A00013968C911397882329F018968C91189781110FC050966D917C915197ED91FC91FA
:2053C00011970680F781E02D56964C915697CD0109940895FC0180899189009751F02689B5
:2053E000DC01A20FB11D6C9386898F5F868B81E0089580E00895CF92DF92EF92FF920F93C3
:205400001F93CF93DF93EC017A01798B688B1E8A80EFFB0180838E898F5F8E8BE889F98980
:20542000E80FF11D10828E898F5F8E8BE889F989E80FF11D83E580838E898F5F8E8BE889C5
:20544000F989E80FF11D83E480838E8991E0980F9E8B48895989892F90E0FA01E80FF91F1E
:20546000002319F031E0308301C010828E898F5F8E8BE889F989E80FF11D10828E898F5F3C
:205480008E8B8701C22ED12CC8018E199F098C159D0534F4F80161918F01CE019BDFF4CF74
:2054A00060E0CE01DF91CF911F910F91FF90EF90DF90CF9060CF2F923F924F925F926F924D
:2054C0007F928F929F92AF92BF92CF92DF92EF92FF920F931F93CF93DF9300D000D0CDB7A7
:2054E000DEB77C01DC015696BC91BC83FC019085892F8D7FC9F5248582E8820F8230D8F48F
:20550000328583850480F581E02D43E0349FE00DF11D11240180F281E02DA5E08A9FE00D03
:20552000F11D11248481B1E0BA832E3709F01A82E1E0EB8303C01B821A8281E09230B9F460
:20554000D7015096ED91FC91519714825096ED91FC91519791E0968318961C9218975596AB
:205560009C9191509C8303C01B821A8281E0812C912C66246394712CC12CD12C282E312C7C
:20558000821493040CF0DBC02C81F701268B3B81332329F084860088F189E02D8582D701CE
:2055A00019968C911997813011F51C96CC90B0E2CB9E60011124F701928583850480F58108
:2055C000E02D23E0929FE00DF11D11240180F281E02D35E0839FE00DF11D112480819181DF
:2055E000D60190963D018A179B0708F43C015601A614B70408F09CC0F7019085818591111F
:2056000040C0811114C0C70174DE882309F43FC01982F701258536850190F081E02D0190CB
:20562000F081E02D8E010F5F1F4FD7010CC01982D7010190F081E02D0190F081E02D8E01BD
:205640000F5F1F4F95011B964C911B971A966C91C7010995F7019789992329F00088F18996
:20566000E02D94830CC0811106C00088F189E02D8EE0848304C06981C701ACDE55C080E0E9
:205680007AC0811124C0C70134DE811107C0D7015096ED91FC91519799E044C0C70146DE0D
:2056A000811107C0D7015096ED91FC9151979AE039C0F701258536850190F081E02D02807F
:2056C000F381E02DD7011F960C911F971AC0D701408851888A2D8C19F201E80FF11D02853B
:2056E0001F960C93C70122DE811103C09AE0F20119C0D701ED91FC9111970280F381E02D65
:2057000095011B964C911B971A966C91C701099581110AC0F70197890088F189E02D91117B
:2057200001C09CE0948327C0FFEFAF1ABF0A60CF60E0C70120DE2FEF821A920A21CF3A8178
:205740003323C1F0D70156961C9260EFC70142DE60E0C7013FDE63E5C7013CDE63E4C7013B
:2057600039DE61E0C70136DE6EE7C70133DE60E0C70101DE81E00F900F900F900F90DF9193
:20578000CF911F910F91FF90EF90DF90CF90BF90AF909F908F907F906F905F904F903F90F6
:2057A0002F900895CF93DF93EC01E889F9898681823011F128F4882351F08130A9F02CC0E0
:2057C000843091F000F1853039F51B8213C08A81882309F44EC01A8281E084838B818823D4
:2057E00009F44EC01B824CC081E08A839681943009F48B8381E043C08A818823D1F181E064
:20580000848361E006C08A81882399F181E0848360E2CE01DFDD34C06C8970E020E030E0BC
:20582000261737075CF5A901440F551FAA89BB89A40FB51F9C9189131EC08A81811104C025
:2058400011968C91811115C081E084838A899B89DC01A40FB51FE881F9810480F581E02D30
:205860006C91CE01099581110BC0E889F9898EE006C083E004C02F5F3F4FD2CF84E08483EB
:2058800081E0DF91CF910895FF920F931F93CF93DF93EC011F8A8C819D81892B79F18E8193
:2058A000882361F1F42E8B01CE01FEDB198B088BFD8A86E08E8B87E08F1500F5CE0102DCAB
:2058C0008823E1F0F8018481882319F082E0848310C0CE019CDC882351F08D89883019F453
:2058E000CE0160DF06C0CE01E6DD811105C0CE01DBDB60E0CE013FDD198A188ADF91CF9126
:205900001F910F91FF9008952EEF260F2C3018F4FC01678B08952CE0FC01278B08955F927C
:205920006F927F928F929F92AF92BF92CF92DF92EF92FF920F931F93CF93DF9300D000D0C5
:20594000CDB7DEB77C016B018A01522E3C0186E7680E711CD301ED91FC91309711F12111B3
:2059600002C080EF0995580148018C0C9D1C8A149B0441F0D301ED91FC91D5018D915D01C6
:205980000995F5CF511005C0D301ED91FC9187EF0995F701EC59FF4F8081882311F034968A
:2059A0001082BAE7EB0EF11CF70180819181892B09F4DAC0552019F024E0B22E90C0B12CC9
:2059C00021E084E0A82E90EF992EF4E0CF16D10458F1D8019C9111968C91222399F0A982AC
:2059E0009A829B838C83D701ED91FC91CE01019609950E5F1F4FB2E0CB1AD108BB24B39426
:205A000020E0E3CFF8012281A9829A838B832C83D701ED91FC91CE01019609950D5F1F4F72
:205A2000B3E0CB1AD108ECCFE3E0CE16D104F1F4D8019C9111968C911197BB2041F01296D3
:205A40002C9134E039839A838B832C8321C024E0298320EF2A839B838C83D701ED91FC9182
:205A6000CE0101960995F80182812DC0B2E0CB16D10409F5F80190818181BB2019F027E0FC
:205A8000298329C024E0298320EF2A839B838C83D701ED91FC91CE0101960995809170036D
:205AA00090917103A0917203B091730389839A83AB83BC8353C0CA94CD2809F055C0F801F1
:205AC0008081BB2029F096E099838A8387EF3AC097E0998390EF9A838B8387EF27C0B4E094
:205AE000CB16D104A0F0F801208191818281B9822A839B838C83D701ED91FC91CE01019653
:205B000009950D5F1F4FB3E0CB1AD108E8CFE3E0CE16D10469F4D8012C9111969C9111971A
:205B200012968C9137E039832A839B838C8316C0B2E0CB16D10441F4F8019081818126E08E
:205B400029839A838B8309C0CA94CD2869F4F801808195E099838A831B821C82D701ED91CC
:205B6000FC91CE01019609950F900F900F900F90DF91CF911F910F91FF90EF90DF90CF901C
:205B8000BF90AF909F908F907F906F905F900895FF920F931F93CF93DF93EC01F62E8C0138
:205BA0000A581F4FD801ED91FC9181EF0995D801ED91FC918F2D0995FE01EC59FF4F808152
:205BC000882319F0C859DF4F1882DF91CF911F910F91FF900895677050E1659F900111240A
:205BE000642F6F70622BD4CFEF92FF920F931F93CF93DF93EC018B017C0186E7E80EF11C63
:205C0000D701ED91FC9182EF0995D701ED91FC91802F8F770995C801880F892F881F990BF9
:205C20009195D701ED91FC918F770995FE01EC59FF4F8081882319F0C859DF4F1882DF9117
:205C4000CF911F910F91FF90EF900895FF920F931F93CF93DF93EC01F62E8C010A581F4FC2
:205C6000D801ED91FC9183EF0995D801ED91FC918F2D8F770995FE01EC59FF4F80818823AE
:205C800019F0C859DF4F1882DF91CF911F910F91FF900895EF92FF921F93CF93DF9300D05E
:205CA00000D0CDB7DEB76D3F28F46A3F28F4683F19F020C06E3FF0F0162F7C01FC01EA5850
:205CC000FF4F0190F081E02D309711F0862F0995F701E658FF4F0190F081E02D309751F0B1
:205CE00019821A821B821C828FE089831A83CE01019609950F900F900F900F90DF91CF91CA
:205D00001F91FF90EF900895AF92BF92CF92DF92EF92FF920F931F93CF93DF9300D000D0EA
:205D2000CDB7DEB77C01162FFC01EA59FF4F8081882321F0003130F40F5F0EC08FEF800F9F
:205D4000803150F0F701EC59FF4F8081882309F44DC0349610824AC017FFF4CF113E08F08B
:205D600040C04F77D42E2F77C22E0150012B570186E7A80EB11CD501ED91FC9111973097B0
:205D8000C9F052978C91882329F014968C91801719F00C93802F0995D501ED91FC918D2D92
:205DA0000995812F8F7E803C29F0D501ED91FC918C2D0995F701E658FF4F0190F081E02DE8
:205DC0003097A1F0612F70E084E0759567958A95E1F769830A83DB82CC82CE010196099502
:205DE00005C0163F18F0612FC70154DF0F900F900F900F90DF91CF911F910F91FF90EF904C
:205E0000DF90CF90BF90AF9008950F93022F242F462F60E979DF0F9108950F93022FFC0140
:205E2000ED58FF4F2081213021F4242F462F60E803C0242F462F60E967DF0F9108950F93BF
:205E4000042F20E0462F60EC5FDF0F9108950F93022F242F462F60EB57DF0F9108950F93D8
:205E60007F739B01220F232F221F330B31956F77042F462F60EE48DF0F9108958C599F4FB9
:205E8000FC0160830895FC01442319F0413071F015C08181882391F08058813688F4808137
:205EA000681771F081E0613149F40BC083A9882329F08058813620F482A9F2CF80E008958B
:205EC00081E00895662329F0613031F4FC0183A90895FC018181089580E00895FC01662387
:205EE00021F0613059F492A901C09081992331F0EA59FF4F8081981B892F08958FEF089514
:205F0000662329F0613031F4FC0184A90895FC018281089580E00895662329F0613031F470
:205F2000FC0185A90895FC018381089580E00895662321F0613021F4C6960895049608958E
:205F400080E090E00895662341F0613051F4FC01EF58FF4F808191810895FC0132812381AE
:205F600002C030E020E0832F922F8E32910510F08DE290E008952FEE260F223010F080E006
:205F80000895FC01E759FF4F608381E0089567FF0DC08CE0860F823048F0862F8B7F893F53
:205FA00029F0862F603F20F4807F089580E008950895862F8F7C803849F0603D39F081E052
:205FC000603E31F0603C21F080E0089581E0089508957F928F929F92AF92BF92CF92DF92F6
:205FE000EF92FF920F931F93CF93DF931F92CDB7DEB78C0161119DC1FC01EC58FF4F019020
:20600000F081E02D309709F49DC21982CE0101960995E82E882309F495C2F98068012FE634
:20602000C20ED11CD6018D919C91009709F0BAC04801BAE68B0E911CF401F0825801F7E6AB
:20604000AF0EB11CD5017C90672DC801A0DF682FC801AFDF882359F0F7FC09C0F401708273
:206060003196F08281E090E0D6018D939C93F401F0806F2DC8018BDFF801E359FF4F813F79
:2060800009F445C008F5803B09F444C048F4803909F440C0803AF1F1803809F040C03AC00C
:2060A000803DA9F118F4803C91F139C0803E91F1803FA9F52DE230E031832083D5011C92AF
:2060C000D80114968C9332C0883F69F030F4833FF1F000F1863F39F022C08A3F00F18D3FFE
:2060E00010F08E3FE0F0D80111968C9311971C9212961C92129713961C92139781E0D19646
:206100008C93D6011D921C92118210821CC222E030E002C023E030E03183208307C0D6014D
:206120001D921C9211821082F50197C0D6012D913C9140815181BA0161507109261737073A
:2061400058F1D80111968C9311978F2D8F70FF24F394F80EAA59BF4F8C91F81AD801FC929D
:20616000A559BF4F8C91D80112968C9312974330510539F4A459BF4F8C91D80113968C93EE
:2061800003C0D80113961C92D6011D921C921182108281E0F8011EC02F5F3F4FD6012D93C8
:2061A0003C93BBC0F7FE34C0BCEFBF1550F0EAEFFE1650F4F7EFFF1679F028EFF21228C055
:2061C00003C0AEEFFA1620F1F801F18212821382108281E081ABB7C1D80114964C91403F33
:2061E00099F59C012F5F3F4FF801E80FF91FF482F801418322833383108281E081ABD601CC
:206200001D921C92E359FF4F1182108236977FC0D801A659BF4F2C91F801E80FF91F203F5C
:20622000F1F4F4825801FDE6AF0EB11CF501808091809401215031098217930708F469C09E
:206240007C90F0EF7F120FC0F60111821082F801E359FF4F118210823697108273C1E6595D
:20626000FF4FF082DFCF672DC80191DEF82ED80111968C93682FC8019CDE882359F0872D9D
:206280008F708F5FF801EA59FF4F9081891BF801808302C0D8011C92F801E559FF4F808107
:2062A000F8018283F3E08F16910441F4F801E459FF4F8081D80113968C9302C0F801138228
:2062C000D6011D921C92F5011182108281E0D801D1968C93F801E959FF4FB0EBFB16A9F0E1
:2062E000BF1550F020E9F21681F080EAF81669F0A0E8FA120CC009C0B0EDFB1631F020EE31
:20630000F21619F080ECF81202C070821CC110821AC10196D6018D939C93F801EB59FF4FB0
:206320008081882309F40EC160E0C80152DEE82E0AC1613009F006C16C01BCE7CB0ED11CA4
:20634000FC01E858FF4F0190F081E02DC6010995E82E882309F4F6C0F60180818295807FBC
:20636000803909F480C068F58035F1F138F4803209F467C0803409F48CC0E4C0803709F4DC
:20638000B0C0803809F46FC0803609F0DBC0A8014F585F4FFA0180819181D801A80FB91FEB
:2063A000980123583F4FF9012081D6962C93D697980122583F4FF9012081D7962C93029608
:2063C000B5C0803CF1F138F4803A09F44CC0803B09F0B8C048C0803F39F0823F09F443C0DE
:2063E000803E09F0AFC03FC0F801E358FF4F2081B8016D597F4FD801273F61F0D3962C9350
:20640000D397D2961C92D297D4961C92D497D5961C9214C0AF58BF4F8D919C911197A80172
:20642000480F591FFA0126AB01968D939C9380EFD801D3968C93D397D2961C9281E0FB012E
:206440007FC0F801E358FF4F8081D801D3968C93D3978F708F5FD2968C9331968081F8017A
:2064600084AB15AA6AC0D801D3968C93D397F801E358FF4F80818F708F5FF80182ABE25869
:20648000FF4F8081D4968C9331968081F80185AB54C0F801E358FF4F2081A8014F585F4FFE
:2064A000203F19F4DA011D921C92FA0180819181D801A80FB91FD6962C93D6979801225817
:2064C0003F4FF9012081D7962C93D79701581F4FF8012081D8962C930396DA018D939C93A8
:2064E00031C0F801E358FF4F2081A8014F585F4F203F19F4DA011D921C92FA0180819181D8
:20650000D801A80FB91FD6962C93D697980122583F4FF9012081D7962C93D7979801215893
:206520003F4FF9012081D8962C930396DA018D939C9380EFF80183AB12AAED59FF4F81E0FB
:20654000808301C0E12C8E2D0F90DF91CF911F910F91FF90EF90DF90CF90BF90AF909F9057
:206560008F907F9008958B599F4FFC01608308957F928F929F92AF92BF92CF92DF92EF92B9
:20658000FF920F931F93CF93DF93222309F485C0FC014111F2967C0136E7E30EF11CD70174
:2065A000AD90BC906C01BAE7CB0ED11CD6018D909C90233089F028F4213059F0223039F061
:2065C0006CC0253021F028F0263031F066C0D60101C0D7011D921C92742EEC01618180E8CE
:2065E000860F813660F40081DE01A759BF4F8C91081709F442C0813109F04BC03EC0663FF9
:2066000021F1D0F4613F71F178F4603F79F5642FCE018EDC8C01672DCE0195DC21E0A80152
:20662000BC01CE017CD922C0623F91F0633FF1F46281CE010BDB1AC06D3F28F46A3F28F4EF
:20664000683F19F013C06E3F88F0CE0123DB0EC06381B0E86B9FB00111248281682BCE0126
:20666000C3DA04C043816281CE01B5DAF701B182A082D6018D929C9210C02130B8F3243023
:2066800028F423814281CE013FDBF0CF2730C8F3EDCF2150233050F7F4CFDF91CF911F91B3
:2066A0000F91FF90EF90DF90CF90BF90AF909F908F907F900895CF92DF92EF92FF920F9350
:2066C0001F93CF93DF936C0129E6C20ED11CF6012081223111F480E022C0662331F061308E
:2066E00059F4FC01E858FF4F03C0FC01EC58FF4F20813181232B79F3F42E162FEC0169DCCA
:20670000882349F3F601E080412F6E2DCE01BBDB082F2F2D412F6E2DCE012ADF802FDF9136
:20672000CF911F910F91FF90EF90DF90CF9008958D589F4FFC01608308958D589F4FFC0110
:20674000808108958F776CE00C94E3488F776CE00E94E348892F08958A599F4FFC01608359
:2067600008958C589F4FFC017183608308958A589F4FFC0171836083089588589F4FFC012D
:2067800071836083089586589F4FFC017183608308958F929F92AF92BF92CF92DF92EF9211
:2067A000FF920F931F93CF93DF93DC0111961D921D921D921C9214976115710509F425C167
:2067C000442309F422C150967C936E931F974C9365E070E080E090E02C9130E08217930782
:2067E0000CF015C15B0115E0A11AB108812C912C40E050E01F96CD91DC9150979E012A0D0B
:206800003B1DF9011281E12E012E000CFF08238134814E155F050CF075C04115510521F430
:20682000F9011086178268C0E901C80DD91DFE013997F280EFEFE40F19E0E19FF0011124A1
:2068400011E0F11681F1F11668F012E0F116A1F113E0F11242C0E20FF31F20813181220F65
:20686000331F43C0E20FF31F20813181690117E0C122DD24EE24E394F12CCD2811F4E12C7B
:20688000F12C37FF02C0295F3F4F03E0359527950A95E1F7E20EF31E27813085E20EF31E8E
:2068A000F886EF8229C0E20FF31FE080F180278130852E0D3F1D1EC0E20FF31F2081318104
:2068C000790137FF03C01FEFE11AF10AF594E794217033272E0D3F1D08C0E20FF31F20814F
:2068E0003181220F331F220F331F0780F085E02D2E0F3F1F38872F834F5F5F4F29E0820ED6
:20690000911C78CFEFEFE10FA90119E0E19F400D511D1124FA011281408151812781308524
