:020000040000FA
:20000000B2C00000D7C00000D5C00000D3C00000D1C00000CFC00000CDC00000CBC0000077
:20002000C9C00000C7C00000FBC20000C4C30000C1C00000BFC00000BDC00000BBC0000074
:20004000B9C00000B7C00000B5C00000B3C00000B1C000000C94962BADC00000ABC000001E
:20006000A9C000000C9405330C944D330C948233A1C000000C94202C9DC000009BC00000C5
:2000800099C0000097C0000095C0000093C0000091C000008FC000008DC000008BC00000D0
:2000A00089C0000087C0000085C00000326B000012034F00700065006E004400650063001B
:2000C0006B00000022035300680061006E00740065006100200043006F006E0074007200A6
:2000E0006F006C00730000000403090409026500020100C0320904000000010100000924FD
:200100000100010900010109040100020103000007240100014100062402010100062402F6
:200120000202000924030103010201000924030204010101000905020240000500000525C9
:20014000010101090581024000050000052501010312010002000000080912728401000167
:2001600002000100FB0611241FBECFEFDAE0DEBFCDBF13E0A0E0B1E0E2EAF8E602C00590C3
:200180000D92A039B107D9F725E0A0E9B3E001C01D92AD3CB207E1F710E0C3EBD0E004C042
:2001A0002197FE010E94FB33C23BD107C9F7F4D40C944F3425CFCF92DF92EF92FF920F93BE
:2001C0001F93CF93DF93EC018B017A0199D1811132C0E114F10439F0F70180819181081B76
:2001E000190BC80FD91FC12CD12C0115110511F18091E80085FD15C08091E8008E77809393
:20020000E800E114F10449F0F70180819181C80ED91ED182C08285E00EC072D1882329F329
:200220000AC089918093F10001501109FFEFCF1ADF0ADBCF80E0DF91CF911F910F91FF90F2
:20024000EF90DF90CF900895CF92DF92EF92FF920F931F93CF93DF93EC018B017A0150D193
:20026000811132C0E114F10439F0F70180819181081B190BC80FD91FC12CD12C01151105B0
:2002800011F18091E80085FD15C08091E8008B778093E800E114F10449F0F70180819181E8
:2002A000C80ED91ED182C08285E00EC029D1882329F30AC08091F100899301501109FFEFA7
:2002C000CF1ADF0ADBCF80E0DF91CF911F910F91FF90EF90DF90CF9008952091CB05309167
:2002E000CC052617370748F06115710539F42091E8002E772093E80001C0B901FC0120E010
:200300006115710579F18091C4058823F1F18530F1F18091E80083FD3CC08091E80082FD9C
:200320002EC08091E80080FFEBCF2091F3008091F20090E0922B6115710551F0883091054E
:2003400038F421912093F100615071090196F3CF21E0089709F020E08091E8008E778093ED
:20036000E800CECF2111CFCF0AC08091C405882361F0853061F08091E80083FD0AC080912E
:20038000E80082FFF2CF80E0089582E0089583E0089581E008952091CB053091CC052617E9
:2003A000370748F06115710539F42091E8002E772093E80001C0B901FC0120E06115710571
:2003C00091F18091C405882309F440C0853009F43FC08091E80083FD3DC08091E80082FD7A
:2003E0002FC08091E80080FFE9CF2091F3008091F20090E0922B6115710559F08830910587
:2004000040F424912093F1003196615071090196F2CF21E0089709F020E08091E8008E776E
:200420008093E800CBCF2111CCCF0AC08091C405882361F0853061F08091E80083FD0AC071
:200440008091E80082FFF2CF80E0089582E0089583E0089581E00895982F973068F5909359
:20046000E900981739F07091EC002091ED005091F00003C0242F762F50E021FD02C09F5F96
:20048000ECCF3091EB003E7F3093EB003091ED003D7F3093ED003091EB0031603093EB0085
:2004A0007093EC002093ED005093F0002091EE0027FDE5CF80E008958F708093E90081E00A
:2004C00008958091C50587FF11C08091E80082FD05C08091C4058111F8CF11C08091E80013
:2004E0008B770BC08091C405882349F08091E80080FFF8CF8091E8008E778093E80008959C
:200500002091E4003091E50095E64091EC00842F817040FF23C08091E80080FD1DC080913E
:20052000C405882399F0853099F08091EB0085FD11C04091E4005091E5002417350729F323
:20054000915011F09A01E1CF84E0089582E0089583E0089581E0089580E008954091E800BA
:2005600042FFDDCF08950F931F93CF93DF934BD052D0C8EDD0E088818F778883888180681C
:20058000888388818F7D888319BC1092C4051092C0051092C2051092C10500EE10E0F801E1
:2005A00080818B7F808388818160888342E060E080E052DFE1EEF0E080818E7F8083E2EEC5
:2005C000F0E0808181608083808188608083F80180818E7F8083888180618883DF91CF91AB
:2005E0001F910F910895E8EDF0E080818F7E8083E7EDF0E080818160808384E082BF81E0C9
:200600008093C305B0CFE8EDF0E080818E7F80831092E20008951092DA001092E10008950D
:200620001F920F920FB60F9211242F933F934F935F936F937F938F939F93AF93BF93EF93E7
:20064000FF938091E10082FF0AC08091E20082FF06C08091E1008B7F8093E10051D280916D
:20066000DA0080FF1DC08091D80080FF19C08091DA008E7F8093DA008091D90080FF0CC0E9
:2006800080E189BD82E189BD09B400FEFDCF81E08093C40535D204C019BC1092C40530D239
:2006A0008091E10080FF18C08091E20080FF14C08091E2008E7F8093E2008091E2008061E2
:2006C0008093E2008091D80080628093D80019BC85E08093C40514D28091E10084FF2FC00F
:2006E0008091E20084FF2BC080E189BD82E189BD09B400FEFDCF8091D8008F7D8093D800E2
:200700008091E1008F7E8093E1008091E2008F7E8093E2008091E20081608093E200809117
:20072000C005882311F084E007C08091E30087FD02C081E001C083E08093C405E1D18091BF
:20074000E10083FF27C08091E20083FF23C08091E100877F8093E10082E08093C40510922B
:20076000C0058091E1008E7F8093E1008091E2008E7F8093E2008091E20080618093E20003
:2007800042E060E080E068DE8091F00088608093F000B6D1FF91EF91BF91AF919F918F91EE
:2007A0007F916F915F914F913F912F910F900FBE0F901F9018951F920F920FB60F92112475
:2007C0002F933F934F935F936F937F938F939F93AF93BF93CF93DF93EF93FF93C091E90093
:2007E000CF708091EC00D82FD17080FDD0E81092E9008091F000877F8093F00078941ED0B1
:200800001092E9008091F00088608093F000CD2BCF70C093E900FF91EF91DF91CF91BF91BE
:20082000AF919F918F917F916F915F914F913F912F910F900FBE0F901F9018951F93CF933D
:20084000DF93CDB7DEB7AA970FB6F894DEBF0FBECDBFE5ECF5E08091F100819325E0ED3C9B
:20086000F207C9F74DD18091E80083FF31C18091C5059091C605953009F483C030F4913083
:20088000A9F168F0933091F123C1983009F4EFC0993009F4FBC0963009F01AC194C08038A2
:2008A00021F0823809F014C108C08091C1059091C205992389F082600FC08091C9058F7054
:2008C000873008F005C18093E9008091EB0085FB882780F91092E9009091E800977F909336
:2008E000E8008093F1001092F100CCC0282F2D7F09F0EEC0882319F0823061F0E9C08091D2
:20090000C705813009F0E4C0933009F080E08093C2052EC08091C70581112AC08091C905A1
:200920008F702FEF280F263008F0D2C08093E9002091EB0020FF1CC0933021F48091EB001C
:20094000806214C09091EB0090619093EB0021E030E0A90102C0440F551F8A95E2F74093C7
:20096000EA001092EA008091EB0088608093EB001092E9008091E800877F8093E800A1DD1C
:20098000A7C08111A5C01091C7051F778091E3008078812B8093E3008091E800877F809356
:2009A000E8008FDD8091E80080FFFCCF8091E30080688093E300111102C082E001C083E064
:2009C0008093C40585C08058823008F081C08091C7059091C8058C3D53E0950771F583E007
:2009E0008A838AE289834FB7F894DE01139620E03EE051E2E32FF0E050935700E49120FF57
:200A000003C0E295EF703F5FEF708E2F90E0EA3010F0C79601C0C0968D939D932F5F243152
:200A200049F74FBF8091E800877F8093E8006AE270E0CE01019651DC14C06091C9057091AB
:200A4000CA05AE014F5F5F4F5CD0BC01892B09F43FC09091E800977F9093E80089819A81D4
:200A60009ADC8091E8008B778093E80031C0803879F58091E800877F8093E8008091C00523
:200A80008093F1008091E8008E7777CF811120C08091C7059091C80599270297CCF48091A7
:200AA000E800877F8093E8008091C7058093C00508DD8091C005811106C08091E30087FD0D
:200AC00002C081E001C084E08093C4050E94B5318091E80083FF0AC08091E800877F809313
:200AE000E8008091EB0080628093EB00AA960FB6F894DEBF0FBECDBFDF91CF911F9108958E
:200B00000895292F33272230310559F02330310569F021303105E9F482E190E021E531E085
:200B20001CC085E690E02CEE30E017C099278130910549F028F0029761F4E0EBF0E005C057
:200B4000E8EEF0E002C0E4ECF0E0849190E09F0104C080E090E020E030E0FA013183208372
:200B600008952091C405243099F4FC0181818F708093E9002091F3008091F20090E0922BAF
:200B8000892B41F08091E8008E778093E800B8CC82E0089580E0089580E993E099D080E949
:200BA00093E021D1FCCF462F682F83E993E00C94C918CF93C82F86EF93E00E94E61466E076
:200BC0006C0F482F86EF93E0CF910C943314EF920F93EE24E39400E020E0482F60EC88E23B
:200BE00094E00E94832F0F91EF900895EF92FF920F931F93CF93DF93D82F682F83E694E0BC
:200C00000E949E20C82F6D2F83E694E00E94BC20182F6D2F83E694E00E94C820F82E6D2F7A
:200C200083E694E00E94AA20C03C39F148F4C03921F1C03B11F1C03809F043C0F12C1DC013
:200C4000C83FA1F1CA3F71F1C03FD9F56D2F83E694E00E94DF20C82F6D2F83E694E00E9497
:200C6000D4204C2FBC0183E993E0DF91CF911F910F91FF90EF900C947729E12C082F2F2D5B
:200C8000412F6C2F88E294E00E94832FC03CC9F4612F83EE94E0DF91CF911F910F91FF903A
:200CA000EF900DC288E294E00E946D3161E088E294E0DF91CF911F910F91FF90EF900C94DB
:200CC000E12DDF91CF911F910F91FF90EF9008950E94982A83EE94E0AFD383E993E00E94EF
:200CE0008018789483E993E00E94A31C0E94B82A0E94682A61E088E294E00E94423182EDB5
:200D000093E00E94DD1683ED95E0909392038093910369ED75E080E194E00E94701067EE90
:200D200075E083EE94E0E1C383E993E00E9490188823A9F00E94122D882341F086EF93E0C3
:200D40000E94BB1482ED93E00E94F91480E194E00E940B1060E088E294E00C94E12D089596
:200D600040E061E083E694E00E949724882311F081E03CDF23E030E040E060E083EE94E058
:200D8000A7D6672B682B692B69F122E030E040E060E083EE94E09CD6672B682B692BC1F090
:200DA00020E030E041E060E083EE94E091D6611571058105910531F0633071058105910528
:200DC00039F0089541E060E083E694E00C94972440E060E083E694E00E949724882311F06E
:200DE00080E004CF0895CF93DF93EC01B9DFCE01DF91CF9199CFEF92FF920F931F93CF93FB
:200E0000DF9340EF5AE260ED7AE283EE94E071D323EE34E0D90151961C921E92509756960C
:200E20001C9263E674E01092C7041092C8041092C9041092D5041092D4041092D60410920A
:200E4000D8041092D7041092DA041092D9041092DC041092DB041092DE041092DD04C8E286
:200E6000D4E03983288316E0EAE2F4E0DF01812F1D928A95E9F718861A8619868BE0E4EF68
:200E8000F2E0A3E3B4E001900D928A95E1F78BE0EFEFF2E0AEE3B4E001900D928A95E1F7D8
:200EA0008BE0E9E4F4E0DF01982F1D929A95E9F71CA61DA61EA61FA6E8E5F4E0DF011D9283
:200EC0008A95E9F780E194E0FC013183208373836283D583C4831782168248E0E8E1F4E07A
:200EE000DF011D924A95E9F7FC01108A118A128A138A148A158A168A178A46EF53E0FA0158
:200F00003183208373836283D583C483AAE0ECEFEE2EE3E0FE2EF7011192AA95E9F7DA01FB
:200F200051961C921E92509753961C921E92529706E0EAE0F3E0AAE0B4E001900D920A95E5
:200F4000E1F7A2EDB3E011963C932E9313967C936E9312971596DC93CE931497F8EDEF2ED6
:200F6000F3E0FF2EF70111921A95E9F71CE00EEDE02E03E0F02EF70111921A95E9F7589629
:200F80001D921D921C925A975B961D921D921C925D975E961D921D921C92909791961D9266
:200FA0001D921C929397E3E9F3E012821382158214821682108A1786128A118A138A148A74
:200FC000158A168A178A118E108E0EE213E011830083338F228F758F648F578F468FB1A381
:200FE000A0A393A382A3D5A3C4A381E086A3DF91CF911F910F91FF90EF9008951FBA10BE78
:201000001CBC1DBA1092680010927A0010926E0010926F0010927100109272001092C90048
:201020001092BC0015B818B81BB81EB811BA14B817B81AB81DB810BA0895F89484B7877FCB
:2010400084BF80916000806180936000109260008FE19EE40197F1F700C00000CFDF98E02E
:2010600088E10FB6F894A895809360000FBE90936000FFCFFC0186890895EF92FF920F938B
:201080001F93E12CF12C8701E39425E030E040E065E047D51F910F91FF90EF900895FC01E7
:2010A000448955892DEF33E0C901841B950B62897389641B750B0E94AC33862F0895DF9223
:2010C000EF92FF920F931F93CF93DF93EC01D62EE6DFD81680F5DE8A60E070E0CE0190D78F
:2010E00047E060E071E0CE0118D2ED2CF12C00E010E020E030E041E060E0CE0112D546E02C
:2011000065E071E0CE0109D26C897D898A899B89861B970B4E89489F9001499F300D112471
:20112000620F731FCE016CD7E889F989309729F08D2D099502C080E001C081E0DF91CF915B
:201140001F910F91FF90EF90DF900895EF92FF920F931F93CF93DF93EC01E62E60E070E05A
:201160004FD747E060E071E0CE01D7D1F12C00E010E021E030E041E060E0CE01D2D446E020
:2011800065E071E0CE01C9D16C897D898A899B89861B970B4E89489F9001499F300D112432
:2011A000620F731FCE01DF91CF911F910F91FF90EF9026C7CF92DF92EF92FF92CF93DF938A
:2011C000EC0160E070E01CD747E060E071E0CE01A4D121E030E041E060E0CE0179D46B01A9
:2011E0007C0146E065E071E0CE0197D16C897D898A899B89861B970B4E89489F9001499FD3
:20120000300D1124620F731FCE01FAD681E0CD28CE28CF2809F480E0DF91CF91FF90EF903C
:20122000DF90CF900895FF920F931F93CF93DF93EC0160E070E0E4D647E060E071E0CE01CC
:201240006CD1E0E0F1E080E090E000E010E06281062E000C770B20E030E02617370784F478
:20126000A381B481A80FB91F1296FC9012974D915C914F0D511D040F151F2F5F3F4FEDCFF5
:20128000359609968F33910511F746E065E071E0CE0143D16C897D898A899B89861B970B70
:2012A0004E89489F9001499F300D1124620F731FCE01A6D6C80121E0822727E19227DF9193
:2012C000CF911F910F91FF900895CF92DF92EF92FF92CF93DF93EC0160E070E091D647E06F
:2012E00060E071E0CE0119D120E030E040E060E0CE01EED36B017C0146E065E071E0CE0130
:201300000CD16C897D898A899B89861B970B4E89489F9001499F300D1124620F731FCE0100
:201320006FD6CE0180DF21E08C159D0509F020E0822FDF91CF91FF90EF90DF90CF90089503
:20134000EF92FF920F931F93CF93DF93EC017B0160E070E055D647E060E071E0CE01DDD0FB
:2013600000E010E020E030E040E060E0CE01D9D346E065E071E0CE01D0D06C897D898A8979
:201380009B89861B970B4E89489F9001499F300D1124620F731FCE01DF91CF911F910F914B
:2013A000FF90EF902DC6FF920F931F93CF93DF93EC01F62E60E070E023D647E060E071E021
:2013C000CE01ABD081E0F81202C0CE01EDD1CE012ADFBC01CE01B4DF46E065E071E0CE0187
:2013E0009CD06C897D898A899B89861B970B4E89489F9001499F300D1124620F731FCE0191
:20140000FFD500E010E0CE014ADE90E0081719075CF4602FCE0153DE6F2DCE011FD5CE0175
:201420002CDE0F5F1F4FEFCF60E0CE01DF91CF911F910F91FF9043CE0F931F93CF93DF9311
:20144000EC0160E070E0DCD547E060E071E0CE0164D0182F882309F442C0CE01D2D17B8B3A
:201460006A8B80910501909106019D8B8C8BCE012CDF082F811104C061E0CE0194DF2FC020
:20148000CE0198DE882331F160E070E0CE01B8D547E060E071E0CE0140D020E030E041E086
:2014A00060E0CE0115D36E8B46E065E071E0CE0134D06C897D898A899B89861B970B4E8961
:2014C000489F9001499F300D1124620F731FCE0197D501C01E8A6E89CE01F1DD102F812F10
:2014E000DF91CF911F910F910895FC01718B608B0895FC011682158217828DEF93E09187E2
:2015000080871386128610821182128213821482758764875787468708958F929F92AF92ED
:20152000BF92CF92DF92EF92FF920F931F93CF93DF93DC0111961D921D921D921C92149764
:201540006115710509F420C1442309F41DC11B967C936E931A974C9365E070E080E090E0C9
:201560002C9130E0821793070CF010C15B0125E0A21AB10800E010E040E050E01A96CD919A
:20158000DC911B977E01EA0CFB1CF7012281C22E022E000CDD08E380F4804C155D050CF05E
:2015A00078C04115510521F4F701108617826CC0E701C00FD11FFE0139973281EFEFE40FE5
:2015C00029E0E29FF0011124313081F160F03230A1F1333009F049C0EE0DFF1D2081318175
:2015E000220F331F4AC0EE0DFF1D80809180640137E0C322DD24EE24E394F12CCD2811F434
:20160000E12CF12C940197FE02C0295F3F4F359527953595279535952795E20EF31E278163
:201620003085E20EF31EF886EF822EC0EE0DFF1DE080F1802781308515C06F01CE0CDF1CB8
:20164000F60120813181790137FF03C0FFEFEF1AFF0AF594E794217033272E0D3F1DF60150
:20166000E780F0842E0D3F1D0DC0EE0DFF1D20813181220F331F220F331F0780F085E02DB2
:201680002E0F3F1F38872F834F5F5F4F075F1F4F75CF2150F70139E0239FE00DF11D112456
:2016A00042812081318107811085413059F138F04230E9F0433049F5220F331F23C041E091
:2016C00050E0F901E770FF27EF2B11F440E050E0F90137FD37969F01F3E035952795FA9571
:2016E000E1F7FA01E20FF31F0E0F1F1F15C0A90137FF02C04F5F5F4F559547952170332735
:20170000240F351F020F131F07C0A901440F551F440F551F040F151F012E000C220B330B13
:20172000009711F4198218824C9150E0415051098417950784F41A964D915C911B97FA0109
:20174000E60FF71FEA01CA0DDB1D48815981400F511F518340831196CD90DD90ED90FC9051
:2017600014970C0D1D1D2E1D3F1D11960D931D932D933C9314976B5F7F4F0D3F1340210536
:20178000310510F40196ECCE80E001C081E0DF91CF911F910F91FF90EF90DF90CF90BF90F1
:2017A000AF909F908F900895CF92DF92EF92FF920F93CF93DF93FC0126853785232BC9F03A
:2017C000EC01C12CD12C7601EE85FF8501E020E030E0A901C701B6010995FFEFCF1ADF0A4C
:2017E000EF0AFF0A8DEFC81683E0D806E104F10459F7DF91CF910F91FF90EF90DF90CF90D6
:201800000895FC0161817281838194810895CF93DF93EC01EA85FB8585E0689FE00DF11D8C
:201820001124A381B48189E0489FA00DB11D112417968D919C91189720813181280F391F91
:201840008D819E81820F931FDF91CF9108958F929F92AF92BF92CF92DF92EF92FF920F9341
:201860001F93CF93DF936C01E62EF42EE901CFDFD6011A96ED91FC911B97B5E0EB9EE00D58
:20188000F11D11240380F481E02D29E0F29EE00DF11D11242281213009F46AC060F022307A
:2018A00009F480C0D6011C96ED91FC911D97233009F4BAC0CEC05E01B3E0B694A794BA9585
:2018C000E1F7BB247501E80EF91EF60180859185E816F90691F4A3E0AA0CBB1CAA95E1F713
:2018E000CA19DB09C45EDC4F98818781892341E050E060E070E0A9F531C0C701A0E0B0E0BF
:20190000F60184849584980140E0BC01CD01F4010995882309F4CEC0D8018C91F6018783AB
:2019200073E0AA0CBB1C7A95E1F7CA19DB09C45EDC4F888190E0A0E0B0E0F80140815181B7
:201940006281738184239523A623B72341E050E060E070E0892B8A2B8B2B19F440E050E051
:20196000BA01D8014D935D936D937C9313979BC07C01EC0EFD1EB70180E090E0D6011C964C
:20198000ED91FC911D97980141E00995882309F491C0F80180819181A281B3819927AA2743
:2019A000BB277DC07E01F694E794E80EF91ED60118968D919C911997E816F90679F41796E0
:2019C0008C9190E0A0E0B0E0C0FF5BC054E0B595A795979587955A95D1F753C0C701A0E07C
:2019E000B0E0F601A484B584980142E0BC01CD01F5010995882309F45DC0C0FF10C0F801D8
:201A000080819181A281B38144E0B595A795979587954A95D1F780839183A283B383D80178
:201A20008C91F601878332C0CC0FDD1F7E01E80EF91EB70180E090E0980143E009958823A6
:201A4000C9F1F80180819181A281B381AA27BB2726C0CC0FDD1FCC0FDD1FC80FD91FBE0194
:201A600080E090E0980144E0DF91CF911F910F91FF90EF90DF90CF90BF90AF909F908F9001
:201A80000994F80180839183A283B383F80180819181A281B3818F709927AA27BB27808366
:201AA0009183A283B383D6011996FC92EE92189781E001C080E0DF91CF911F910F91FF9043
:201AC000EF90DF90CF90BF90AF909F908F900895CF92DF92EF92FF920F931F93CF93DF9334
:201AE00000D000D0CDB7DEB7CC24CA94DC2C7601C982DA82EB82FC828E010F5F1F4FA7DEDE
:201B000069817A818B819C810F900F900F900F90DF91CF911F910F91FF90EF90DF90CF903F
:201B200008952F923F924F925F926F927F928F929F92AF92BF92CF92DF92EF92FF920F9328
:201B40001F93CF93DF93CDB7DEB728970FB6F894DEBF0FBECDBF5C01862E942E19012701CB
:201B6000380155DEAC01D5011A96ED91FC911B97B5E08B9EE00DF11D11240380F481E02D16
:201B800009E0909EE00DF11D11249281923009F490C030F4992359F0913009F46AC044C1C6
:201BA000933009F4F2C0943009F410C13DC18DEF93E0D50119969C938E931897810163E0EB
:201BC000169507956A95E1F7400F511D6A01E12CF12C1C96ED91FC911D979E012B5F3F4F6D
:201BE00040E0C701B6010995882309F41DC1822DB8E00B9F80191124282F30E04D815E814F
:201C00006F817885F901E45EFC4F40FE07C080818A019B01082BD901C8010DC0208130E0CF
:201C2000C90180959095092E000CAA0BBB0B84239523A623B7238D839E83AF83B8872D8190
:201C40003E814F815885D5011E96ED91FC911F9700E0C701B6010995882309F4E5C0D501AD
:201C60001C96ED91FC911D979E012F5F3F4F40E076C05524662477246A01C20CD31CE12C0F
:201C8000F12CD5011E96ED91FC911F9701E0A3019201C701B6010995882309F4C5C0D501A4
:201CA0001C96ED91FC911D979E012F5F3F4F41E0ACC08DEF93E0F50191878087C10196957A
:201CC0008795480F591F6A01E12CF12C0484F585E02D9E012B5F3F4F42E0C701B60109957F
:201CE000882309F4A1C0FFE04F225524662477248D819E81AF81B88520FE0CC08F709927AA
:201D0000AA27BB2724E0440C551C661C771C2A95D1F704C0807F9927AA27BB27482A592A84
:201D20006A2A7B2A4D825E826F8278862D813E814F815885D5011E96ED91FC911F9702E085
:201D4000C701B6010995882309F46EC0D5011C96ED91FC911D979E012F5F3F4F42E0C701A4
:201D6000B6010995882309F45FC081E00D811E812F81388549815A816B817C810417150787
:201D80002607370709F050C050C0662477249101220F331F6901C40ED51EE12CF12CD50156
:201DA0001E96ED91FC911F9703E0A3019201C701B60109958823C1F1D5011C96ED91FC9187
:201DC0001D979E012F5F3F4F43E01FC06101CC0CDD1CCC0CDD1CC40ED51EE12CF12CD501C9
:201DE0001E96ED91FC911F9704E0A3019201C701B60109958823C1F0D5011C96ED91FC9147
:201E00001D979E012F5F3F4F44E0C701B6010995882351F081E049815A816B817C814415DE
:201E200055056605770509F080E028960FB6F894DEBF0FBECDBFDF91CF911F910F91FF9054
:201E4000EF90DF90CF90BF90AF909F908F907F906F905F904F903F902F9008952F923F92C0
:201E60004F925F926F927F928F929F92AF92BF92CF92DF92EF92FF920F931F93CF93DF938E
:201E8000CDB7DEB729970FB6F894DEBF0FBECDBF998788876F831C821B82212C312CA885EF
:201EA000B9858C9190E0281639060CF090C01A821982C12CD12CA885B9851A96ED91FC9147
:201EC0001B978B819C81E80FF91F8281082E000C990BC816D9060CF071C00380F481E02D40
:201EE000A981BA81EA0FFB1F8381882321F0BF81BB2309F45AC084809580808191819E8328
:201F00008D838281823079F028F4882361F0813021F04BC0853008F048C0412C512C3201DC
:201F2000A12CB12C2BC0A12CB12C2401612C712C2BC0A885B9851A96ED91FC911B978B8144
:201F40009C81E80FF91F0380F481E02DA981BA81EA0FFB1F868185017401882321F0E40C2A
:201F6000F51C061D171D92014C2D622D88859985D8DDBFEF4B1A5B0A6B0A7B0AAD81BE819F
:201F80004A165B06B4F211C0ED81FE81AE16BF0664F48301720195014C2D622D888599857B
:201FA000C0DDFFEFAF1ABF0AEFCF8FEFC81AD80AA981BA811996BA83A9837DCFBFEF2B1A48
:201FC0003B0AEB81FC813596FC83EB8368CF29960FB6F894DEBF0FBECDBFDF91CF911F915E
:201FE0000F91FF90EF90DF90CF90BF90AF909F908F907F906F905F904F903F902F90089582
:202000006D3F23E0720728F4FC017683658381E0089580E00895DF92EF92FF920F931F93CC
:20202000CF93DF938C010E94C92C882309F443C0C0E0D0E09E0140E063E0D8018D919C9187
:2020400047DD672B682B692B49F1DC2E8C2F0E94852C7C019E0142E063E0F80180819181C4
:2020600037DD633089F0623051F020F08CEF860F8330A0F497014D2DC801D9D00FC0A7010B
:202080006C2FC80131D00AC0D8011696ED91FC911797309719F0B7018C2F09952196C43047
:2020A000D10541F6DF91CF911F910F91FF90EF90DF900C94D02CDF91CF911F910F91FF902B
:2020C000EF90DF900895FB013496EE0FFF1FE80FF91F11821082FC01E60FF71F108A089521
:2020E000FC017783668308959F92AF92BF92CF92DF92EF92FF920F931F93CF93DF935C0137
:20210000162F6A01483251053CF0CA01453551402CF084E591E002C088E290E09C01285294
:2021200031094FE7429FC001439F900D11246CE271E00E94AC33F62EC12FD0E0F501EC0F04
:20214000FD1F8089662311F181114EC081E0808B9E0143E063E0F50180819181B9DC962E5C
:202160009E0146E063E0F50180819181B1DC062F262F4F2D692DF501828193810E94412015
:20218000EE24E3942F2D492D60E920C0882361F1108A9E0143E063E0F5018081918198DCA2
:2021A000062F9E0146E063E0F5018081918190DCF62E262F40E0602FF501828193810E9496
:2021C0004920E12C01E02F2D40E060E8F501848195810E94832FE0919103F091920330979D
:2021E00019F0612F83E009952496CC0FDD1FCA0DDB1DD982C882DF91CF911F910F91FF9091
:20220000EF90DF90CF90BF90AF909F900895FC018281238130E0220F331F87FF03C02F77F1
:20222000216001C02E7720838F77818308952F923F924F925F926F927F928F929F92AF9264
:20224000BF92CF92DF92EF92FF920F931F93CF93DF93CDB7DEB76C970FB6F894DEBF0FBE4A
:20226000CDBF6C01962E842E89015BEF452E460E4B86242D223038F026E030E04FE750E03C
:202280005E834D8306C021E030E08FEF9FE39E838D83282C312CC101880F991F2601480E46
:2022A000591E598A488AD2011896ED90FC90199741E0E016F10608F040E0F601E20DF31D9C
:2022C0008489481711F0220F331FC8018E199F0997FF03C09195819591098217930708F498
:2022E00036C1448B6D807E802301612C712C4C865D866E867F862801612C712C2D813E8171
:202300002F3F43E0340759F0D8010E94E2332FEF33E040E050E00E94C03329013A0152014A
:2023200097018D819E818F3FA3E09A0751F09C01D7010E94E2332FEF33E040E050E00E9456
:20234000C033A216B30609F402C11C8F0B8F8A8EE92C8601910144E063E0F601808191815D
:20236000B7DB6A8B7B8B8C8B9D8B2A893B8938872F83910145E063E0D6018D919C91A8DB0A
:202380004B015C017A876987910143E063E0F601808191819DDB6E8B7F8B888F998FCE8891
:2023A000DF88910146E063E0D8018D919C9190DBF62EB1E0BE1518F4E4E0EE121FC02E893E
:2023C0003F893C832B83CE01019621DFCA80D12C4A895B895C834B83CE01019618DF8A814F
:2023E000A82FB0E0B887AF839C828B82CE0101960EDF8A81E82FF0E0FA87E98789859A8577
:202400009C0140E050E0AF81B8854D01A12CB12CC301B20188279927AB2B49F44C845D84C0
:202420006E847F84421653066406750691F0281939094A095B090E9491332C853D854E85AA
:202440005F850E94C033CA01B901680D791D8A1D9B1D2B01910141E063E0D8018D919C91CE
:2024600037DB672B682B692B41F0BB85B23028F46D807E8064187508230185E0782E7E147D
:2024800038F024E0E216F0F431E03E1570F45FC046E0E4125CC04F2DB201D80112968D9147
:2024A0009C9113970E946B2043C0D80112968D919C9113972F2D442D6C2DEE2019F10E947F
:2024C000412036C0DC82CB82CE010196A0DE2F2D498163E6F801828193810E9463202F2D16
:2024E0004A8162E6D80112968D919C9113970E946320B4E0EB1209C02F2D442D66E0F801C8
:20250000828193810E94632013C05C824B82CE0101967DDE2F2D498166E0D80112968D9135
:202520009C9113970E9463202F2D4A8166E2E7CFE0919103F0919203309719F06A8D83E035
:2025400009954B8C5C8CE889F989518640866C960FB6F894DEBF0FBECDBFDF91CF911F91C5
:202560000F91FF90EF90DF90CF90BF90AF909F908F907F906F905F904F903F902F900895FC
:20258000AF92BF92CF92DF92EF92FF920F931F93CF93DF93EC01042F122FA62EB12C9501F5
:2025A00042E061E08881998193DAD62E950144E061E0888199818CDAF62E950143E061E082
:2025C0008881998185DAC62E133139F4950141E061E0888199817CDA162FDE8A002309F4D6
:2025E00090C0173009F474C0C0F4143048F4123008F059C0112331F1113009F447C0BCC075
:202600008A819B81AE014C5E5F4F153009F458C008F058C021E0288F58C01B3009F45EC0EC
:2026200048F48A819B81193009F454C008F054C068EF5BC01D3009F455C008F451C01031B2
:2026400078F09AC02F2D4C2D6D2D8A819B810E944120EE24E3940F2D2C2D4D2D60E971C00D
:202660001130A1F08F2D90E0FC01E650FB4F20811E3021F42F3730F42F5F03C0222311F0BA
:2026800021502083FC01E650FB4FD0804F2D6D2D8A819B810E945B20EE24E3940F2D20E03A
:2026A0004D2D60EC4EC02F2D4C2D6D2D8A819B810E946320EE24E3940F2D2C2D4D2D40C0F3
:2026C00022E001C026E0288F21E066E070E048C089E03DC06AEF09C06BEF07C06CEF03C014
:2026E0006EEF01C06FEF8A819B81DF91CF911F910F91FF90EF90DF90CF90BF90AF900C940D
:20270000861F133091F0163009F1111135C02F2D40E06D2D8A819B810E944920EE24E39428
:202720000F2D20E04D2D60E80CC02F2D40E06D2D8A819B810E946320E12C01E02F2D40E003
:2027400060EB8C819D810E94832F16C087E0888FAE014C5E5F4F21E066E070E08A819B8196
:20276000DF91CF911F910F91FF90EF90DF90CF90BF90AF900C94CB1DDF91CF911F910F9127
:20278000FF90EF90DF90CF90BF90AF9008959C01962F96959695969588E0989F6019112402
:2027A000E92FF0E0E20FF31F81E090E0A0E0B0E004C0880F991FAA1FBB1F6A95D2F7442368
:2027C00019F02089822B03C0809590898923808B0895262F269526952695820F911DFC0193
:2027E000808990E0F8E02F9F6019112402C0959587956A95E2F7817008959C01962F969511
:202800009695969588E0989F60191124E92FF0E0E20FF31F81E090E0A0E0B0E004C0880FEE
:20282000991FAA1FBB1F6A95D2F7442319F02289822B03C0809592898923828B0895262F0F
:20284000269526952695820F911DFC01828990E0F8E02F9F6019112402C0959587956A9535
:20286000E2F781700895CF92DF92FF920F931F93CF93DF93EC01062FF42EABDF8F1509F4F7
:2028800062C04F2D602FCE0182DFC02ED12C960141E061E0888199811BD9162F603109F40D
:2028A00042C0960140E061E08881998111D9163038F41430F8F48FEF810F823040F41AC0A1
:2028C000103118F4173028F015C01131D9F0613089F4FF20A9F0602FCE01B1DF882331F0EC
:2028E00040E0602FCE0189DFF12C04C041E0602FCE0183DF212F4F2D602FCE0141DE13C014
:20290000113159F4960142E061E088819981E0D8888199810E945F0806C0123121F440E0E9
:20292000602FCE0159D0E0919103F0919203309751F0602F81E0DF91CF911F910F91FF904E
:20294000DF90CF900994DF91CF911F910F91FF90DF90CF900895FC01E60FF11D9681990F33
:20296000406F492B468381E0403F21F04F3F11F080E0089508950F931F93CF93DF938C019C
:20298000C0E08C2F0E949B31282F30E040E062E0F801808191819CD8672B682B692B71F407
:2029A0008C2F0E948431D82F482F6C2FC801D3DF882321F04D2F6C2FC80155DFCF5FC6307D
:2029C00001F7DF91CF911F910F91089581E0693E734008F480E0089508952FB7F89460918E
:2029E00010057091110580911205909113052FBF08952F923F924F925F926F927F928F9228
:202A00009F92AF92BF92CF92DF92EF92FF920F931F93CF93DF9300D000D0CDB7DEB78C01A1
:202A20003C017C015C01C12CD12C960140E062E0F801808191814CD8672B682B692B09F4B6
:202A40006FC1960145E062E0F8018081918140D88C2D0E949D31582EC0DFF301248535857F
:202A600046855785DC01CB01821B930BA40BB50BC397A105B10518F0F70111A2168E5520DA
:202A800009F44EC1960141E062E0F801808191811FD8672B682B692B41F0F1E05F1619F0F4
:202AA0005524539402C032E0532EF70181A1843069F0838D581211A2F70181A18F5F843051
:202AC00011F081A303C0F70111A2568E960146E062E0F801808191810E94680D672B682B38
:202AE000692BF9F07ADFF3012485358546855785DC01CB01821B930BA40BB50BF7018C38F3
:202B00009105A105B10560F4808D282F30E02236310514F48D5F01C084E6F701808F01C086
:202B2000108EF701538E59DFF3016487758786879787F701868D8111582E960143E062E0C1
:202B4000F801808191810E94680D262E960144E062E0F801808191810E94680D362E9601E3
:202B600042E062E0F801808191810E94680D462EF701808D811101C081E0F2E04F16C9F0B1
:202B80004F1648F023E0421681F19BEF940D933008F0BDC02AC0842D90E0FC01EE0FFF1F45
:202BA000E80FF91FEC5DFC4FE50DF11D8080912C53C0832D90E041E0FC01E650FB4F208143
:202BC000541204C02F3730F42F5F03C0222311F021502083FC01E650FB4F6081432DF801CF
:202BE000828193810E945B2092C0942D9D7F953031F4823018F0880F880F01C081E090E00E
:202C0000F1E05F120DC0F50126813781A901481B590BCA0157FF17C0F5011782168219C0E7
:202C2000F3E04F1619F026E0421203C02FE730E002C02FEF3FE3F50146815781840F951F32
:202C4000281739071CF09783868303C0F50137832683F50186809780F5E04F1208C0432D29
:202C6000B401F801828193810E946B2050C08AEF840D8230A0F5822D90E09C838B83CE01E6
:202C80000196C5DA232D498163E6F801828193810E946320232D4A8162E6F80182819381F3
:202CA0000E946320F6E04F1204C0232D482D66E010C09C828B82CE010196A9DA232D4981EB
:202CC00066E0F801828193810E946320232D4A8166E2F801828193810E94632018C0F4E035
:202CE0004F1621F0232D482D622DF3CFF801808191810E943A08F2E05F1611F06FEF01C0F1
:202D000061E0680FF801808191810E945F08E0919103F0919203309719F06C2D82E0099562
:202D2000FFEFCF1ADF0A22E0A20EB11C4FEFE41AF40A54E0650E711C83E0C816D10409F0D7
:202D400074CE0F900F900F900F90DF91CF911F910F91FF90EF90DF90CF90BF90AF909F90FC
:202D60008F907F906F905F904F903F902F9008950F931F93CF93DF938C01C62FD0E09E0134
:202D800042E062E0FC01808191810E94680D2396CC0FDD1FC00FD11F653071058105910532
:202DA00029F480E090E29983888302C019821882DF91CF911F910F910895CF93DF93EC0188
:202DC00060E0D6DF61E0CE01D3DF62E0CE01DF91CF91CECFFB01642F70E021E0AF01FC0131
:202DE000848D958DD8C6BC0180E00C94B932682F80E00C94CF320F931F93CF93DF9300D0CA
:202E000000D01F92CDB7DEB78C01AE014B5F5F4FBE016F5F7F4F80E00E94552D882339F0D1
:202E20008D81813F21F4CE0101960E94F531C8010E94D131882329F043EFB80180E00E9463
:202E4000332D0F900F900F900F900F90DF91CF911F910F9108950F931F93CF93DF931F9261
:202E6000CDB7DEB78C01AE014F5F5F4FBC0180E00E94552D882349F04981423F29F0B8015F
:202E800080E00E94332D01C080E00F90DF91CF911F910F91089541EFBC0180E00C94332D06
:202EA000AF92BF92CF92DF92FF920F931F93CF93DF93CDB7DEB728970FB6F894DEBF0FBE62
:202EC000CDBF6C01F42E580119821A821B821C82623009F4BEC030F4662379F0613009F45B
:202EE000A3C0EBC0643049F108F45EC0653009F0E4C06DE00E94B629EBC041E04F1520F498
:202F000082E0F81639F0E4C08E010F5F1F4F4F2D60E0D7C02115310531F4F601828D938DFF
:202F20000E943A08B7C02130310509F0D5C0F601828D938D0E94DA08ADC0F1E04F17C1F022
:202F40004F1778F044E0F416D1F0FC01828D938DF7E0FF121FC08E010F5F1F4F45E064E0ED
:202F600056C0622FFC0184A195A10E94D52E92C0622FFC0184A195A10E94122F8BC0822F93
:202F80000E947C31282F30E08E010F5F1F4F42E064E097C0EF2DF0E0EA5CFC4F8E010F5FD9
:202FA0001F4F408164E090C0FC01828D938DF3E04F1780F148E04F1548F4E9E0FE122AC0ED
:202FC0008E010F5F1F4F46E063E021C0EF2DF0E0E25CFC4F8E010F5F1F4F408163E00E94B6
:202FE000270C882309F474C089819A8198878F83CE0105960CD9F5E0FF1609F448C047E007
:20300000F41609F444C083E0F81243C040C00E94270C1BC0EF2DF0E0E25CFC4F8E010F5F13
:203020001F4F408163E050C0E42FF0E0E05BFC4F8E010F5F1F4F408161E0FC01828D938D0C
:203040000E94270CF4E0FF1241C0882309F440C02CC0E42FF0E0E85BFC4F8E010F5F1F4F45
:20306000408162E0FC01828D938D0E94270C882379F18F2D8B7F8330A9F489819A819887DD
:203080008F83CE010596C3D8F3E0FF1202C08E8101C08D8190E0A0E0B0E089839A83AB83BE
:2030A000BC831AC044E0F41217C089819A81AB81BC810196A11DB11DF0CF8E010F5F1F4F1B
:2030C0004F2DF601828D938D0E94270C811104C0F501108280E004C08981F501808381E013
:2030E00028960FB6F894DEBF0FBECDBFDF91CF911F910F91FF90DF90CF90BF90AF90089523
:20310000CF93DF93EC0146E060E572E00E94F6244BE06AE372E0CE01DF91CF910C945325F4
:20312000FC0186A108950F931F93CF93DF93EC01CB01BA01122F40E00E947A328C8D9D8D40
:20314000112319F063EF76E102C060E070E00E94DE248C8D9D8D002319F067EF76E102C0B5
:2031600060E070E0DF91CF911F910F910C94E424CF93DF93EC0161ED71E38C8D9D8D0E94AF
:20318000EA2465EF71E38C8D9D8DDF91CF910C94F024BF92CF92DF92EF92FF920F931F9329
:2031A000CF93DF9300D01F92CDB7DEB77C01062FB42E0E947425182F882309F440C02FB7FD
:2031C000F8948091100590911105A0911205B09113052FBF670124E0029FC00CD11C11247C
:2031E000F60147A150A561A572A5841B950BA60BB70B853F9140A105B10508F189E48983C9
:203200000A83BB82F701648D758D6A5C7F4F01E023E0AE014F5F5F4FC7010E9418272FB7E7
:20322000F8948091100590911105A0911205B09113052FBFF60187A390A7A1A7B2A7812F6D
:203240000F900F900F90DF91CF911F910F91FF90EF90DF90CF90BF900895EF92FF920F93F5
:203260001F93CF93DF93CDB7DEB728970FB6F894DEBF0FBECDBF88E0E0E1F3E0DE01119627
:2032800001900D928A95E1F78E010F5F1F4F7E0189E0E80EF11CF80161918F0180E00E9434
:2032A000CF320E151F05B9F780E00E94FE328823D9F328960FB6F894DEBF0FBECDBFDF91F8
:2032C000CF911F910F91FF90EF9008950F93CF93DF93EC016130A9F108F44DC06230B9F0C1
:2032E000633009F051C060E080E00E94F93240E060E076E980E090E00E947A326BE277E142
:203300008C8D9D8D0E94EA246BE477E115C060E080E00E94F93240E060E076E980E090E042
:203320000E947A32CE0199DF6BEF76E18C8D9D8D0E94EA2465EF71E38C8D9D8D0E94F024B3
:203340000BC040E062E17AE780E090E00E947A3261E080E00E94F93260E070E08C8D9D8D7F
:203360000E94DE2460E070E08C8D9D8DDF91CF910F910C94E424FCDE01E021E042E15AE79E
:2033800060E070E0CE01CFDEDF91CF910F9108953F924F925F926F927F928F929F92AF92CC
:2033A000BF92CF92DF92EF92FF920F931F93CF93DF9300D000D0CDB7DEB75C01C42E49015E
:2033C000402E623009F45EC230F4662369F0613009F447C273C2643009F412C108F4ADC031
:2033E000653009F439C26AC2411145C02130310541F080F02230310529F123303105A9F0D1
:203400007DC261E0011101C060E0F501848D958D71D676C2F501848D958D002311F061E0E3
:2034200001C060E00E94D4246BC2002339F001E021E042E15AE760E070E051C080E00E948F
:203440004C325EC223E030E040E060E0F501828D938D0E94680D672B682B692BF9F061E03C
:20346000011101C060E0F501848D958D0E94EF23411046C2DCCFF1E04F1334C021153105C5
:2034800079F423E030E040E060E0FC01828D938D0E94680D672B682B692B39F46CE0DDC139
:2034A0002330310508F02AC227C222E030E040E060E0F501828D938D0E94680D672B682BE3
:2034C000692B61F3F3E0F01708F40BC2F3E04F1204C200E021E040E056E960E070E0C501D1
:2034E00022DE0EC242E0C41209C221153105A9F4FC01828D938D0E944F0890E0202F002E1E
:20350000000C330B281739070CF0A6C1602FF501828D938D0E945F08EFC12130310509F092
:20352000EDC141E0401708F4E9C1602F6170FC01828D938D0E94A608DFC1F2E04F1709F40E
:2035400041C0FC01828D938D242F30E0F2E04F1708F446C048E04C1508F442C0F901E25CE2
:20356000FC4FD08094014D2D63E00E94680D7C836B83CE0101960E94071185E0C81631F0D6
:2035800097E0C91619F0E3E0CE1202C04A8201C0098389819A8180FF02C0906801C09F7719
:2035A0009A8390E0959587958983E12CF12CF82E8A81E82AFC82EB8200E010E094014D2DF5
:2035C00063E083C1B901FC0182A193A10E946310E02E000FFF08000B110B940142E0F0CF80
:2035E000F9E0CF1201C04A94E42C440CFF08000B110BF901E25CFC4F9401408163E068C19F
:2036000043E0C41609F4DFC04C1568F081E0C816A9F08C15F8F0402F622FF50184A195A1A6
:203620000E943A2F69C195E0C91609F4CCC0C91650F1E7E0CE1204C14A94C5C0011102C0B5
:2036400040E001C045E0682DF50184A195A10E946D2E52C12130310509F4FEC020F022308A
:20366000310561F04BC191E0901708F447C1602FF50184A195A10E94353135C1F1E0F017E5
:2036800008F43CC130C1C22E822F0E947C3160E00E94773140E0682FF50184A195A10E941C
:2036A0003A2F882D0E947C3161E00E94773140E0682FF50184A195A10E943A2F882D0E94A8
:2036C0007C3162E00E94773140E0682FF50184A195A10E943A2F882D0E947C31E02E000F7D
:2036E000FF08000B110B282F30E042E064E0F501828D938D0E94910D182F442009F4EBC017
:20370000882309F4FBC0D12C940141E064E0F501828D938D0E94680D2B013C018C2D0E944F
:203720007C316D2D0E947731282F30E08301720141E064E0F501828D938D0E94910D882325
:2037400009F4DCC0940143E064E0F501828D938D0E94680D2B013C018C2D0E947C316D2D8D
:203760000E947731282F30E08301720143E064E0F501828D938D0E94910D882309F4BEC0AF
:20378000940145E064E0F501828D938D0E94680D2B013C018C2D0E947C316D2D0E9477319A
:2037A000282F30E08301720145E064E0F501828D938D0E94910D882309F4A0C0D394F3E09B
:2037C000DF12A2CF99C0382C882D0E947C31282F30E042E064E0F501828D938D0E94680DBD
:2037E000EC2DF0E0042C000C550866087708672B682B692B01F1912CCF018A5C9C4F6C01E4
:20380000832D0E947C31692D0E947731282F30E083017201F601408164E0F501828D938D4A
:203820000E94910D182F882309F468C09394F3E09F12E6CF50C0EA5CFC4F8301720109C070
:20384000E02E000FFF08000B110BEC2DF0E0EA5CFC4F940140814EC06DE0C5010E94B629AB
:203860004DC0F4E04F1301C04A94E42C440CFF08000B110BEC2DF0E0E05BFC4F9401408113
:2038800061E023C0F4E04F1301C04A94E42C440CFF08000B110BEC2DF0E0E85BFC4F940195
:2038A000408162E0F501828D938D0E94910D182F682DF50180A191A15BDA0DC0E42C440C19
:2038C000FF08000B110B94014C2DF501828D938D0E94910D182F812F20C0642DC501F6DC47
:2038E0000FC06AE0BACFE42C440CFF08000B110B940140E064E0E9CF81E00FC080E00DC08A
:20390000E42C440CFF08000B110BEC2DF0E0EB5AFC4F9401408160E0D8CF0F900F900F9086
:203920000F90DF91CF911F910F91FF90EF90DF90CF90BF90AF909F908F907F906F905F9013
:203940004F903F9008950F93CF93DF93EC0161E18C8D9D8D4CD420E030E040E060E08A8D8D
:203960009B8D0E94680D8C8D9D8D0E94D42421E030E040E060E08A8D9B8D0E94680D21E063
:20398000672B682B692B09F420E0622F8C8D9D8DB1D361E08C8D9D8D0E94D924CE01E8DB64
:2039A00023E030E040E060E08A8D9B8D0E94680D672B682B692B09F440C022E030E040E056
:2039C00060E08A8D9B8D0E94680D21E0672B682B692B09F420E0622F8C8D9D8D00D722E0ED
:2039E00030E040E060E08A8D9B8D0E94680D672B682B692BB1F020E030E041E060E08A8D1F
:203A00009B8D0E94680D633039F400E021E040E056E960E070E00BC0CE01DF91CF910F91CD
:203A200055CC01E021E042E15AE760E070E0CE017ADBDF91CF910F91089580E00E944C32DE
:203A400060E070E08C8D9D8DB9D760E070E08C8D9D8DDF91CF910F91B7C71F93CF93DF93BC
:203A6000EC01162F653509F44AC008F5643409F446C088F46234A9F1633409F085C063E017
:203A80000E94072762E0CE010E94072761E0CE010E94072726C06D3409F453C0603509F070
:203AA00073C08A8D9B8D0E944F08682F56C0653609F467C038F4663559F0643609F064C068
:203AC0001EA264C06D3609F44CC06F37C1F05CC063E00E94072762E0CE010E94072761E0AE
:203AE0003CC063E0CE010E94072761E0CE010E94072760E0CE010E94072760E02EC08CA1CE
:203B00009DA10E94003180E090E00196853C29E0920739F0EFE9FFE03197F1F700C000007A
:203B2000F4CF143431F460E08A8D9B8D0E94D30904C0153511F481E001C080E00E94AB2A4C
:203B400025C06AE00E94072763E0CE010E94072764E0CE010E94072766E0CE010E940727BC
:203B600015C020E030E041E060E08A8D9B8D0E94680D633059F4CE0170DB63E0CE01A6DB1C
:203B800005C081E08EA303C080E001C081E0DF91CF911F9108955F926F927F928F929F9217
:203BA000AF92BF92CF92DF92EF92FF920F931F93CF93DF9300D000D0CDB7DEB77C016B01C5
:203BC0008A01522E3C0186E7680E711CD301ED91FC91309711F1211102C080EF099558012B
:203BE00048018C0C9D1C8A149B0441F0D301ED91FC91D5018D915D010995F5CF511005C004
:203C0000D301ED91FC9187EF0995F701EC59FF4F8081882311F034961082BAE7EB0EF11C76
:203C2000F70180819181892B09F4DAC0552019F024E0B22E90C0B12C21E084E0A82E90EFE5
:203C4000992EF4E0CF16D10458F1D8019C9111968C91222399F0A9829A829B838C83D701E2
:203C6000ED91FC91CE01019609950E5F1F4FB2E0CB1AD108BB24B39420E0E3CFF801228196
:203C8000A9829A838B832C83D701ED91FC91CE01019609950D5F1F4FB3E0CB1AD108ECCF52
:203CA000E3E0CE16D104F1F4D8019C9111968C911197BB2041F012962C9134E039839A83D3
:203CC0008B832C8321C024E0298320EF2A839B838C83D701ED91FC91CE0101960995F801CD
:203CE00082812DC0B2E0CB16D10409F5F80190818181BB2019F027E0298329C024E0298352
:203D000020EF2A839B838C83D701ED91FC91CE01019609958091180390911903A0911A031C
:203D2000B0911B0389839A83AB83BC8353C0CA94CD2809F055C0F8018081BB2029F096E0B6
:203D400099838A8387EF3AC097E0998390EF9A838B8387EF27C0B4E0CB16D104A0F0F8015D
:203D6000208191818281B9822A839B838C83D701ED91FC91CE01019609950D5F1F4FB3E024
:203D8000CB1AD108E8CFE3E0CE16D10469F4D8012C9111969C91119712968C9137E039832B
:203DA0002A839B838C8316C0B2E0CB16D10441F4F8019081818126E029839A838B8309C024
:203DC000CA94CD2869F4F801808195E099838A831B821C82D701ED91FC91CE010196099579
:203DE0000F900F900F900F90DF91CF911F910F91FF90EF90DF90CF90BF90AF909F908F906F
:203E00007F906F905F900895FF920F931F93CF93DF93EC01F62E8C010A581F4FD801ED918A
:203E2000FC9181EF0995D801ED91FC918F2D0995FE01EC59FF4F8081882319F0C859DF4F13
:203E40001882DF91CF911F910F91FF900895677050E1659F90011124642F6F70622BD4CF08
:203E6000EF92FF920F931F93CF93DF93EC018B017C0186E7E80EF11CD701ED91FC9182EF4E
:203E80000995D701ED91FC91802F8F770995C801880F892F881F990B9195D701ED91FC91E2
:203EA0008F770995FE01EC59FF4F8081882319F0C859DF4F1882DF91CF911F910F91FF907F
:203EC000EF900895FF920F931F93CF93DF93EC01F62E8C010A581F4FD801ED91FC9183EF49
:203EE0000995D801ED91FC918F2D8F770995FE01EC59FF4F8081882319F0C859DF4F1882B0
:203F0000DF91CF911F910F91FF900895EF92FF921F93CF93DF9300D000D0CDB7DEB76D3F58
:203F200028F46A3F28F4683F19F020C06E3FF0F0162F7C01FC01EA58FF4F0190F081E02D25
:203F4000309711F0862F0995F701E658FF4F0190F081E02D309751F019821A821B821C8239
:203F60008FE089831A83CE01019609950F900F900F900F90DF91CF911F91FF90EF9008957E
:203F8000AF92BF92CF92DF92EF92FF920F931F93CF93DF9300D000D0CDB7DEB77C01162F08
:203FA000FC01EA59FF4F8081882321F0003130F40F5F0EC08FEF800F803150F0F701EC59EA
:203FC000FF4F8081882309F44DC0349610824AC017FFF4CF113E08F040C04F77D42E2F77E9
:203FE000C22E0150012B570186E7A80EB11CD501ED91FC9111973097C9F052978C91882352
:2040000029F014968C91801719F00C93802F0995D501ED91FC918D2D0995812F8F7E803C82
:2040200029F0D501ED91FC918C2D0995F701E658FF4F0190F081E02D3097A1F0612F70E064
:2040400084E0759567958A95E1F769830A83DB82CC82CE010196099505C0163F18F0612F25
:20406000C70154DF0F900F900F900F90DF91CF911F910F91FF90EF90DF90CF90BF90AF903F
:2040800008950F93022F242F462F60E979DF0F9108950F93022FFC01ED58FF4F20812130B5
:2040A00021F4242F462F60E803C0242F462F60E967DF0F9108950F93042F20E0462F60ECEE
:2040C0005FDF0F9108950F93022F242F462F60EB57DF0F9108950F937F739B01220F232F59
:2040E000221F330B31956F77042F462F60EE48DF0F9108958C599F4FFC0160830895FC01EE
:20410000442319F0413071F015C08181882391F08058813688F48081681771F081E061317B
:2041200049F40BC083A9882329F08058813620F482A9F2CF80E0089581E00895662329F05B
:20414000613031F4FC0183A90895FC018181089580E00895FC01662321F0613059F492A99A
:2041600001C09081992331F0EA59FF4F8081981B892F08958FEF0895662329F0613031F483
:20418000FC0184A90895FC018281089580E00895662329F0613031F4FC0185A90895FC01A1
:2041A0008381089580E00895662321F0613021F4C69608950496089580E090E008956623FB
:2041C00041F0613051F4FC01EF58FF4F808191810895FC013281238102C030E020E0832FBE
:2041E000922F8E32910510F08DE290E008952FEE260F223010F080E00895FC01E759FF4F00
:20420000608381E0089567FF0DC08CE0860F823048F0862F8B7F893F29F0862F603F20F497
:20422000807F089580E008950895862F8F7C803849F0603D39F081E0603E31F0603C21F004
:2042400080E0089581E0089508957F928F929F92AF92BF92CF92DF92EF92FF920F931F9399
:20426000CF93DF931F92CDB7DEB78C0161119DC1FC01EC58FF4F0190F081E02D309709F4E1
:204280009DC21982CE0101960995E82E882309F495C2F98068012FE6C20ED11CD6018D9162
:2042A0009C91009709F0BAC04801BAE68B0E911CF401F0825801F7E6AF0EB11CD5017C908F
:2042C000672DC801A0DF682FC801AFDF882359F0F7FC09C0F40170823196F08281E090E073
:2042E000D6018D939C93F401F0806F2DC8018BDFF801E359FF4F813F09F445C008F5803B67
:2043000009F444C048F4803909F440C0803AF1F1803809F040C03AC0803DA9F118F4803C44
:2043200091F139C0803E91F1803FA9F52DE230E031832083D5011C92D80114968C9332C0D7
:20434000883F69F030F4833FF1F000F1863F39F022C08A3F00F18D3F10F08E3FE0F0D801B9
:2043600011968C9311971C9212961C92129713961C92139781E0D1968C93D6011D921C9206
:20438000118210821CC222E030E002C023E030E03183208307C0D6011D921C9211821082BC
:2043A000F50197C0D6012D913C9140815181BA01615071092617370758F1D80111968C9372
:2043C00011978F2D8F70FF24F394F80EAA59BF4F8C91F81AD801FC92A559BF4F8C91D80121
:2043E00012968C9312974330510539F4A459BF4F8C91D80113968C9303C0D80113961C929B
:20440000D6011D921C921182108281E0F8011EC02F5F3F4FD6012D933C93BBC0F7FE34C025
:20442000BCEFBF1550F0EAEFFE1650F4F7EFFF1679F028EFF21228C003C0AEEFFA1620F1A4
:20444000F801F18212821382108281E081ABB7C1D80114964C91403F99F59C012F5F3F4F0A
:20446000F801E80FF91FF482F801418322833383108281E081ABD6011D921C92E359FF4FC9
:204480001182108236977FC0D801A659BF4F2C91F801E80FF91F203FF1F4F4825801FDE64A
:2044A000AF0EB11CF501808091809401215031098217930708F469C07C90F0EF7F120FC088
:2044C000F60111821082F801E359FF4F118210823697108273C1E659FF4FF082DFCF672D44
:2044E000C80191DEF82ED80111968C93682FC8019CDE882359F0872D8F708F5FF801EA5914
:20450000FF4F9081891BF801808302C0D8011C92F801E559FF4F8081F8018283F3E08F1657
:20452000910441F4F801E459FF4F8081D80113968C9302C0F8011382D6011D921C92F50111
:204540001182108281E0D801D1968C93F801E959FF4FB0EBFB16A9F0BF1550F020E9F21683
:2045600081F080EAF81669F0A0E8FA120CC009C0B0EDFB1631F020EEF21619F080ECF8126C
:2045800002C070821CC110821AC10196D6018D939C93F801EB59FF4F8081882309F40EC15D
:2045A00060E0C80152DEE82E0AC1613009F006C16C01BCE7CB0ED11CFC01E858FF4F01909E
:2045C000F081E02DC6010995E82E882309F4F6C0F60180818295807F803909F480C068F523
:2045E0008035F1F138F4803209F467C0803409F48CC0E4C0803709F4B0C0803809F46FC079
:20460000803609F0DBC0A8014F585F4FFA0180819181D801A80FB91F980123583F4FF90140
:204620002081D6962C93D697980122583F4FF9012081D7962C930296B5C0803CF1F138F402
:20464000803A09F44CC0803B09F0B8C048C0803F39F0823F09F443C0803E09F0AFC03FC095
:20466000F801E358FF4F2081B8016D597F4FD801273F61F0D3962C93D397D2961C92D29729
:20468000D4961C92D497D5961C9214C0AF58BF4F8D919C911197A801480F591FFA0126AB5E
:2046A00001968D939C9380EFD801D3968C93D397D2961C9281E0FB017FC0F801E358FF4FA6
:2046C0008081D801D3968C93D3978F708F5FD2968C9331968081F80184AB15AA6AC0D801E8
:2046E000D3968C93D397F801E358FF4F80818F708F5FF80182ABE258FF4F8081D4968C9320
:2047000031968081F80185AB54C0F801E358FF4F2081A8014F585F4F203F19F4DA011D927D
:204720001C92FA0180819181D801A80FB91FD6962C93D697980122583F4FF9012081D79614
:204740002C93D79701581F4FF8012081D8962C930396DA018D939C9331C0F801E358FF4F68
:204760002081A8014F585F4F203F19F4DA011D921C92FA0180819181D801A80FB91FD69614
:204780002C93D697980122583F4FF9012081D7962C93D797980121583F4FF9012081D8966E
:2047A0002C930396DA018D939C9380EFF80183AB12AAED59FF4F81E0808301C0E12C8E2DA4
:2047C0000F90DF91CF911F910F91FF90EF90DF90CF90BF90AF909F908F907F9008958B59D2
:2047E0009F4FFC01608308957F928F929F92AF92BF92CF92DF92EF92FF920F931F93CF93BF
:20480000DF93222309F485C0FC014111F2967C0136E7E30EF11CD701AD90BC906C01BAE7C1
:20482000CB0ED11CD6018D909C90233089F028F4213059F0223039F06CC0253021F028F0EB
:20484000263031F066C0D60101C0D7011D921C92742EEC01618180E8860F813660F40081F4
:20486000DE01A759BF4F8C91081709F442C0813109F04BC03EC0663F21F1D0F4613F71F1DF
:2048800078F4603F79F5642FCE018EDC8C01672DCE0195DC21E0A801BC01CE017CD922C005
:2048A000623F91F0633FF1F46281CE010BDB1AC06D3F28F46A3F28F4683F19F013C06E3F20
:2048C00088F0CE0123DB0EC06381B0E86B9FB00111248281682BCE01C3DA04C043816281EC
:2048E000CE01B5DAF701B182A082D6018D929C9210C02130B8F3243028F423814281CE0177
:204900003FDBF0CF2730C8F3EDCF2150233050F7F4CFDF91CF911F910F91FF90EF90DF9085
:20492000CF90BF90AF909F908F907F900895CF92DF92EF92FF920F931F93CF93DF936C0117
:2049400029E6C20ED11CF6012081223111F480E022C0662331F0613059F4FC01E858FF4F46
:2049600003C0FC01EC58FF4F20813181232B79F3F42E162FEC0169DC882349F3F601E08001
:20498000412F6E2DCE01BBDB082F2F2D412F6E2DCE012ADF802FDF91CF911F910F91FF90D3
:2049A000EF90DF90CF9008958D589F4FFC01608308958A599F4FFC01608308958C589F4F9D
:2049C000FC017183608308958A589F4FFC0171836083089588589F4FFC01718360830895E6
:2049E00086589F4FFC017183608308950F931F93CF93DF93FC01108A17861282178A168A49
:204A00006115710509F447C0442309F444C075836483468320E030E0C0E0D0E050E0C4172B
:204A2000D507DCF560E070E000E010E0A481B581A20FB31F8C9190E00817190744F51196DF
:204A40000D90BC91A02DA60FB71F8C9187FD815E8595859585958595859513968C93A48125
:204A6000B581A20FB31F11960D90BC91A02DA60FB71F8C918F7131F013968C9113978F5FF8
:204A800013968C930F5F1F4F6C5F7F4FCFCF21962D5F3F4FC4CF80E001C081E0DF91CF9185
:204AA0001F910F910895FC0161157105D9F04423C9F0728B618B80E090E0242F30E0821782
:204AC00093076CF46E5F7F4FDB0112975C91563020F4128A118A138A05C00196F0CF438B78
:204AE00081E0089580E00895FC0182810895FC018FE0878383E0808782E0818712861386A3
:204B00001486158616860895DC011F96ED91FC9150978181811107C08281833521F481E017
:204B20009381933409F080E00895FC0191858085911106C08823C9F18230B9F18DE0089559
:204B40008823A9F1823099F192858385A481B58123E0929FA00DB11D112411960D90BC91E5
:204B6000A02D94E0899FA00DB11D11242C91022E000C330B21323105A8F0848590E0BC018E
:204B80006F5F7F4F13964C9150E06417750741F445E0880F991F4A95E1F7281B390B02C023
:204BA00020E230E08BE0820F08958CE008958BE00895DC011A968C911A971496ED91FC9129
:204BC000159793E0899FE00DF11D112481E01B962C919081291708F080E00895FC01808547
:204BE0002485811117C082E8820F823088F1928583850480F581E02D33E0939FE00DF11D17
:204C000011240180F281E02D54E0859FE00DF11D112418C0823021F482E8820F8230C0F0DA
:204C20004285338584819581FC0153E0459FE00DF11D11240180F281E02D84E0389FE00D6D
:204C4000F11D112481E09381291718F080E0089581E00895DF92EF92FF920F931F93CF9320
:204C6000DF93FC010489083011F411E059C0C785D0890B3098F11281111102C083E028C0C6
:204C80008D8184879E819087DF80D1868885828729852387933020F084E08C8310E040C06B
:204CA0009681891710F086E0F8CF7F01CF0181DF182F811102C087E00BC021E02D1510F44C
:204CC00085E0EBCFC7018ADF182F811103C088E08C8326C0C70129DF081711F08BE0DDCF84
:204CE00081E08C83D70119968C9119978111BDCF1F96ED91FC9150971C969C918285B0E2B3
:204D00009B9F800D1124D7011D968C931D9718968C911897813009F0A8CF83851E968C93C3
:204D2000812FDF91CF911F910F91FF90EF90DF900895FC0192858385A481B58123E0929FDE
:204D4000A00DB11D112411960D90BC91A02D94E0899FA00DB11D112481E025859C91291781
:204D60000CF080E00895FC0192858385A481B58123E0929FA00DB11D112411960D90BC914E
:204D8000A02D94E0899FA00DB11D112411968C91119712962C91821739F09685981734F079
:204DA00081E0291724F402C081E0089580E00895DC01611112C055968C9155971F96ED9135
:204DC000FC915097E80FF11D87EF808355968C9155978F5F55968C93559713968C91139799
:204DE000882329F018968C91189781110FC01F966D917C915097ED91FC9111970680F781BC
:204E0000E02D55964C915597CD0109940895FC0187859089009751F02589DC01A20FB11DC5
:204E20006C9385898F5F858B81E0089580E00895CF92DF92EF92FF920F931F93CF93DF9360
:204E4000EC017A01788B6F871D8A80EFFB0180838D898F5F8D8BEF85F889E80FF11D108234
:204E60008D898F5F8D8BEF85F889E80FF11D83E580838D898F5F8D8BEF85F889E80FF11D9B
:204E800083E480838D8991E0980F9D8B4F855889892F90E0FA01E80FF91F002319F031E02E
:204EA000308301C010828D898F5F8D8BEF85F889E80FF11D10828D898F5F8D8B8701C22EB0
:204EC000D12CC8018E199F098C159D0534F4F80161918F01CE019BDFF4CF60E0CE01DF914C
:204EE000CF911F910F91FF90EF90DF90CF9060CF2F923F924F925F926F927F928F929F922F
:204F0000AF92BF92CF92DF92EF92FF920F931F93CF93DF9300D000D0CDB7DEB77C01DC01E0
:204F20005596BC91BC83FC019085892F8D7FC9F5248582E8820F8230D8F432858385048001
:204F4000F581E02D43E0349FE00DF11D11240180F281E02DA4E08A9FE00DF11D11248381C6
:204F6000B1E0BA832E3709F01A82E1E0EB8303C01B821A8281E09230B9F4D7011F96ED9163
:204F8000FC91509714821F96ED91FC91509791E0968318961C92189754969C9191509C83B4
:204FA00003C01B821A8281E0812C912C66246394712CC12CD12C282E312C821493040CF046
:204FC000F1C02C81F701258B3B81332329F084860784F089E02D8582D70119968C9119972A
:204FE000813041F51C96CC90B0E2CB9E600111243601E0E26E0E711CD7011A969C911A97C3
:205000001B968C911B971496ED91FC911597B3E09B9FE00DF11D11240180F281E02D24E0AD
:20502000829FE00DF11D1124808186151CF4682E880F77085601A614B70408F0ACC0D701BF
:2050400018969C91189719968C91911145C0811116C0C7016EDE882309F444C01982F70198
:205060002585022E000C330B0190F081E02D0190F081E02D8E010F5F1F4FD7010CC0198244
:20508000D701ED91FC9111970190F081E02D8E010F5F1F4F95011B964C911B971A966C9188
:2050A000C7010995F7019689992341F00784F089E02D9483D70156961C920CC0811106C0C8
:2050C0000784F089E02D8EE0848304C06981C7019EDE5DC080E082C0811126C0C70129DE52
:2050E000811107C0D7011F96ED91FC91509799E04CC0C70138DE811107C0D7011F96ED9111
:20510000FC9150979AE041C0F7012585022E000C330B0190F081E02D0280F381E02DD7019A
:205120001E960C911E971BC0F701478450888A2D8C19F201E80FF11D0285D7011E960C93ED
:20514000C70111DE811103C09AE0F2011EC0D701ED91FC9111970280F381E02D95011B9623
:205160004C911B971A966C91C701099581110FC0F70196890784F089E02D992329F0948318
:20518000D70156961C922AC09CE0948327C0BFEFAB1ABB0A50CF60E0C7010ADEEFEF8E1A6C
:2051A0009E0A0BCFFA81FF23C1F0D70155961C9260EFC7012CDE60E0C70129DE63E5C7016E
:2051C00026DE63E4C70123DE61E0C70120DE6EE7C7011DDE60E0C701EBDD81E00F900F902D
:2051E0000F900F90DF91CF911F910F91FF90EF90DF90CF90BF90AF909F908F907F906F908B
:205200005F904F903F902F900895CF93DF93EC01EF85F8898681823011F128F4882351F01C
:205220008130A9F02CC0843091F000F1853039F51B8213C08A81882309F44EC01A8281E001
:2052400084838B81882309F44EC01B824CC081E08A839681943009F48B8381E043C08A8119
:205260008823D1F181E0848361E006C08A81882399F181E0848360E2CE01C9DD34C06B890B
:2052800070E020E030E0261737075CF5A901440F551FA989BA89A40FB51F9C9189131EC0CE
:2052A0008A81811104C011968C91811115C081E0848389899A89DC01A40FB51FE881F9817E
:2052C0000480F581E02D6C91CE01099581110BC0EF85F8898EE006C083E004C02F5F3F4F94
:2052E000D2CF84E0848381E0DF91CF910895FF920F931F93CF93DF93EC018C819D81892B4F
:2053000079F18E81882361F1F42E8B01CE01EFDB188B0F87FC8A86E08D8B87E08F1500F593
:20532000CE01F2DB8823E1F0F8018481882319F082E0848310C0CE018DDC882351F08C8931
:20534000883019F4CE0161DF06C0CE01D1DD811105C0CE01CCDB60E0CE012ADD188A1F860C
:20536000DF91CF911F910F91FF9008952EEF260F2C3018F4FC01668B08952CE0FC01268BE2
:20538000089510927C0010927A00803269F030F4803171F480917A0084600DC0803441F4CC
:2053A00080917A00866007C080917A00856003C080917A00876080937A00923041F09330CD
:2053C00051F0913069F480917C00806407C080917C00806C03C080917C00806880937C00F6
:2053E00080917A00806880937A0008955198599A5098589A54985C9A3E98469A57985F9ADA
:205400006E98769A249A2C98259A2D98269A2E98229A2A98239A2B98219A299887988F982A
:2054200086988E9885988D9884988C98209A559A289A5D9A089580E891E0A3DF80917B00C0
:205440008F7D80937B0080917C00807F876080937C0083E090E020917A00206420937A0001
:2054600020917A0026FDFCCF2091780030917900019789F780917A00886080937A00809187
:205480007A00806480937A00089514BC15BCEEE6F0E0108210928000109281001092900036
:2054A000109291001092C0001092C1001092C2001092C3001092C40084B5826084BD85B52F
:2054C000836085BD8CE787BD80818260808308959FB7F89423E030E05D98882369F0289ABD
:2054E0004FEF52E567E0415050406040E1F700C000005D9A28980CC028984FEF52E567E098
:20550000415050406040E1F700C000005D9A289A4FEF52E567E0415050406040E1F700C064
:20552000000021503109C1F69FBF089580E00895F89484B7877F84BF0FB6F894A895809162
:205540006000886180936000109260000FBE4EDF72DF15D79ACF882321F0813039F467E408
:2055600001C06FEF8FEF93E00E9431340C941D088DEF93E00E940E34ECEAF0E0459155911A
:2055800065917491FA01659174918617970731F08DEF93E00E942D3481E0089580E00895D1
:2055A000CF93DF93DC01CB01E901433028F0433069F40E940E3403C00E94013490E0A0E0BB
:2055C000B0E088839983AA83BB8306C00E940934688379838A839B8381E0DF91CF91089524
:2055E0000F93DC01CB01BA01033030F0033041F4B9010E942D3407C0622F0E94133403C029
:20560000A9010E94253481E00F910895CF92DF92EF92FF92AAE6B3E080E090E041E050E01F
:2056200060E070E0ED91FC9111973297208130E012960C90129702C0359527950A94E2F701
:20564000E0913105F0E0ED5CFA4F20FD0EC020816A017B01082E04C0CC0CDD1CEE1CFF1CDE
:205660000A94D2F7C22AC0820FC030816A017B01082E04C0CC0CDD1CEE1CFF1C0A94D2F7D7
:20568000C0942C2D23232083019613968630910549F6FF90EF90DF90CF900895EF92FF921E
:2056A0000F931F93CF93DF938EE3E82E85E0F82EA8E3B5E0E8E5F3E061E070E0E70189915D
:2056C0007E01857091E0853009F090E02C91921701F1853071F440815181EA0188819B0132
:2056E000028002C0220F331F0A94E2F7282B28830FC000811181E8012881AB01028002C00A
:20570000440F551F0A94E2F7842F8095822388839C9311963396D5E0AE33BD0779F6DF91FB
:20572000CF911F910F91FF90EF9008951F920F920FB60F9211242F933F934F935F936F93B7
:205740007F938F939F93AF93BF93EF93FF939091F30281E089278093F3028823D1F19EDF22
:205760008091100590911105A0911205B09113050196A11DB11D8093100590931105A09374
:205780001205B093130580910D05811136C080910B05811132C080910F05882331F0809145
:2057A0000F05815080930F0501C0289A80910C0581112CC080910A05811128C080910E05FC
:2057C000882331F080910E05815080930E0501C05D9A80912F05853010F5809131058F5FF6
:2057E00080933105853011F4109231050FDF80912F058F5F80932F0512C0289810920D0520
:2058000010920B0582E380930F05C5CF5D9810920C0510920A0582E380930E05CFCFFF91A4
:20582000EF91BF91AF919F918F917F916F915F914F913F912F910F900FBE0F901F90189531
:205840001F920F920FB60F9211242F933F934F935F938F939F93EF93FF938091F2028111F4
:2058600038C0209178003091790080912505E82FF0E0EE0FFF1FE45EFA4F40815181240F3F
:20588000351F318320838F5F843019F08093250507C010922505809124058F5F809324057E
:2058A000E0912505F0E0E458FC4F8081883028F0885090917B00906203C090917B009F7D44
:2058C00090937B0090917C00907F8F70892B80937C009091F20281E089278093F2028091FE
:2058E0002405813029F080917A00806480937A00FF91EF919F918F915F914F913F912F91F9
:205900000F900FBE0F901F9018954FB7F894282F30E0F901EE0FFF1FE45EFA4F8081918174
:20592000118210824FBFF901EC5EFA4F8B3C43E0940774F041E04083F901E85EFA4F1082BF
:205940004496811524E092071CF18FEF93E00895863B43E09407CCF41082F901E85EFA4F45
:205960008134910584F48233910544F421E020830F9797FF0DC080E090E0089520812223E1
:2059800039F00F9708951082089520812111449608959091240581E0913009F080E00895C0
:2059A0001092240510922505EAE7F0E0808180648083089590E0DC01A45DBA4FEC91EE0F59
:2059C000EE0FE62BEF70EC93F0E0E058FC4F2081211102C080E00895DC01A75DBA4F3C913F
:2059E000320F3C9331E012160CF030E0FC01EA5DFA4F8081308338132C932C91822F022E69
:205A0000000C990B97FF03C091958195910950E084179507FCF2121614F082E001C081E0A2
:205A20001C92089580912F058823D9F09FB7F894809130058F5F80933005853011F41092A8
:205A40003005E0913005F0E0ED5CFA4F80818093320580912F05815080932F059FBF81E0A2
:205A6000089580E00895CF93DF93EB01811119C0642F95D5688180E092D5698180E08FD506
:205A80006A8180E08CD56B8180E089D56881898168278A8168278B81682780E080D581E0E3
:205AA00001C080E0DF91CF910895EF92FF920F931F93CF93DF9300D0CDB7DEB7FA011082A8
:205AC000811175C09FB7F894809186059FBF863008F46DC07A018B011A82BE016E5F7F4F47
:205AE00080E047D58A81982F9D7F913FE1F5F7018083E12CF12CBE016E5F7F4F80E039D5A9
:205B0000F1E0EF16F104A1F03CF4E114F104B9F48A81F801808313C0E2E0EE16F10461F07C
:205B2000F3E0EF16F10459F48A81F801838307C08A81F801818303C08A81F8018283FFEFB8
:205B4000EF1AFF0A85E0E816F104A9F6F801908181819827828198278381982781E02A81E0
:205B6000921325C025C0823F11F51982BE016F5F7F4F80E0FED404E010E0BE016E5F7F4F99
:205B800080E0F7D401501109C1F78981813041F028F0823039F481E0DEDC04C081E001C0D3
:205BA00080E096DC82EFF701808381E001C080E00F900F90DF91CF911F910F91FF90EF90B9
:205BC0000895CF92DF92FF920F931F93CF93DF93DC0119968D919C911A97892B09F475C02F
:205BE00018968C911897882319F08130B9F16DC08FB7F89440911005509111056091120538
:205C0000709113058FBF9C960D911D912D913C919F97401B510B620B730B44365105610506
:205C2000710508F452C08FB7F894409110055091110560911205709113058FBF9C964D93B0
:205C40005D936D937C939F9719964D915C911A97FD0120E030E0FF24F39420C06111F4CF17
:205C600034C090A99F2590AB11A28EE3C82E85E0D82EBD01E601888181FD19C0DFEFCD1AB9
:205C8000DD0A6F5F7F4F84E4C81685E0D80691F72F5F3F4F31962B303105B9F081A18F5F43
:205CA00081A3EA019991AE018917D8F6F1CFEB010A8110E00217130709F7992311F0846093
:205CC00001C08B7FE6018883D9CFDF91CF911F910F91FF90DF90CF900895BF92CF92DF9222
:205CE000EF92FF920F931F93CF93DF9300D01F92CDB7DEB76C01062F142F862FFDD2B82E81
:205D0000E02EF12C970142E064E0F601808191810E94680D672B682B692B71F060E08B2D27
:205D2000E6D2898361E08B2DE2D28A8362E08B2DDED28B8363E004C009830A830B8361E03E
:205D40009E012F5F3F4FA90170E0D601AE0DBF1D1296CA01821B930B86179707CCF4FA017C
:205D60008081E82FF0E0E25CFA4F8081112311F0866009C0982F9D7F908380FF03C09460A3
:205D8000908302C0897F80831C934F5F5F4FE1CF0F900F900F90DF91CF911F910F91FF90DC
:205DA000EF90DF90CF90BF9008951F93CF93DF93E62FF0E0E25CFA4F808180FF2CC083FFCA
:205DC0002CC0862F99D2182F60E091D2E82FF0E0E25CFA4FD08161E0812F89D2E82FF0E0DB
:205DE000E25CFA4FC08162E0812F81D2E82FD6FB882780F9C5FB992790F9880FC82FC92BFB
:205E0000F0E0E25CFA4F808184FB992790F98C2F880F892B03C080E001C081E0DF91CF9147
:205E20001F910895E62FF0E0E25CFA4F80818695817008950F93E62FF0E0E25CFA4F8081F0
:205E40004423A1F080FD80E0222339F0013051F038F0023049F08D600AC0877F856007C091
:205E60008D6105C08D6203C08D6401C080E080830F910895DF92EF92FF920F931F93CF9332
:205E8000DF93EC01F62E142F862F36D2082F2F2D30E042E064E0888199810E94680D672BAA
:205EA000682B692BF9F060E0802F21D2D82E61E0802F1DD2E82E62E0802F19D2F82E00E013
:205EC00020E0412F41706D2DCE01B4DF41E011FF40E000E020E06E2DCE01ACDF41E012FD4F
:205EE00005C003C041E0111101C040E000E020E06F2DCE019FDFDF91CF911F910F91FF907E
:205F0000EF90DF9008952F923F924F925F926F927F928F929F92AF92BF92CF92DF92EF9249
:205F2000FF920F931F93CF93DF93CDB7DEB72F970FB6F894DEBF0FBECDBF5C01162FF22EC0
:205F4000242F22952F702D833F2C32948FE038228F2D37E73F1508F487E76AE0F1D3882E92
:205F6000C12CD12C802F90E0A0E0B0E08E839F83A887B987842F90E0A0E0B0E089839A830A
:205F8000AB83BC83222423942F0C2F2D30E040E050E02A873B874C875D87012F0F7E960122
:205FA00045E064E0D5018D919C910E94680D2E813F8148855985621773078407950709F013
:205FC000EEC0960143E064E0D5018D919C910E94680DEE2041F16530A9F040F4613059F061
:205FE000633009F04AC0E1E0EE8735C0663069F0683091F042C01039F1F1B1E0BE8710388D
:20600000B9F537C0F1E0FE8731C00038B1F581E08F8791E09E8744C0103B79F5A1E0AF8735
:20602000B1E0BE873DC06430F9F028F4662341F0623069F022C0663089F0683091F01DC068
:206040000038E9F021E02F87103BB9F41EC00038D1F031E03E87103B59F40BC0003869F4DB
:2060600016C0103B51F418C041E04E87103C09F01E861F8615C01F8611C01F8606C01F8603
:20608000E1E0EE870DC0F1E0FF871E8609C021E02F8731E03E8704C041E04F8751E05E87DB
:2060A0009C2C8C2D29D1282F30E042E064E0D5018D919C910E94680D2B013C01BE85BB23D6
:2060C00009F444C0960141E064E0F501808191810E94680D29813A814B815C8162177307A2
:2060E0008407950769F5103C31F4452846284728F1F07D8020C0452846284728D9F43F85C7
:20610000311118C0960144E064E0D5018D919C910E94680D772473942A853B854C855D856A
:20612000261737074807590731F0712C04C07724739401C0732C472D692DC5019BDE07C0A1
:20614000103C21F440E06C2DC50194DE712C3F85332329F1960141E064E0D5018D919C91FF
:206160000E94680D29813A814B815C816217730784079507A1F43E85332369F0FF2049F081
:20618000772039F0422D50E1759E401911244B3018F040E001C0482D692DC5019EDD8FEFD0
:2061A000C81AD80A96E0C916D10409F0F8CE2F960FB6F894DEBF0FBECDBFDF91CF911F91A6
:2061C0000F91FF90EF90DF90CF90BF90AF909F908F907F906F905F904F903F902F90089560
:2061E0000F931F93CF938C01C0E041E06C2FC80141DECF5FC630C9F7CF911F910F910895E7
:206200000F931F93CF938C01C0E040E06C2FC80131DECF5FC630C9F7CF911F910F910895D7
:20622000CF93DF93EC01DCDF80E090E00196813D27E0920739F0EFE9FFE03197F1F700C0CD
:206240000000F4CFCE01DCDF80E090E00196813DF7E09F0739F0EFE9FFE03197F1F700C0FF
:206260000000F4CFDF91CF910895FC01662319F0613019F00895469601C00B9692878187C9
:2062800060870895CF93DF93EC01662389F022E030E040E064E0888199810E94680D672B75
:2062A000682B692B29F042D9811102C0CE01B8DF20E030E040E064E0888199810E94680D1B
:2062C000CE01D3DFFE01F096EB9681E08193EC17FD07E1F7DF91CF910895FC01B1968C9610
:2062E00021E011922687E817F907D9F70895982F990F890F860F08959BEA899F812D112418
:20630000869509F081E00895982F969596959695E92FF0E0EE5CFA4F208130E048E0949F9C
:2063200080191124A90102C0559547958A95E2F7CA0181700895869508950F931F93CF939E
:20634000DF93D82F062F182F110F812FDDDFC82FCC0F81E0810FD8DF682F6C2B402F8D2FE9
:20636000DF91CF911F910F9125CB42E361E881E00E942C0242E360E882E00C942C02E4E409
:20638000F5E081E0808391E8918320E430E033832283858392E096833087278382870C942B
:2063A000F3022091C405243011F080E0089522E02093E9002091E80022FFF7CF40E050E0AE
:2063C00064E070E00E9424012091F3008091F20090E0922B892B29F48091E8008B778093AF
:2063E000E80081E080930D0508952091C405243011F080E00895209145052F702093E90090
:2064000040E050E064E070E00E94DB008111F1CF8091E80085FD05C08091E8008E77809378
:20642000E80084E495E00E94B10581E080930C050895FC01A2A9B3A96C9382A993A901967C
:2064400093AB82AB9F012E5C3F4F8217930711F4F3ABE2AB9FB7F89486A98F5F86AB9FBF28
:206460000895FC01A4A9B5A98D91B5ABA4AB9F012E5C3F4FA217B30711F4F5ABE4AB2FB7C5
:20648000F89496A9915096AB2FBF0895FC019FB7F89480819FBF089581112BC08FB7F8945A
:2064A0001092C8001092C9001092CA001092CD001092CC008FBF2FB7F89480E595E0909301
:2064C0008305809382059093850580938405109286052FBF2FB7F89487E895E09093BA05FE
:2064E0008093B9059093BC058093BB051092BD052FBF0895CF92DF92EF92FF92411134C0FB
:206500006B017C0180E0C8DFD701C601B695A79597958795BC01CD0160587B47814E9F4F5B
:20652000A70196012DD120FF0AC0213080E138074105510524F482E08093C80009C01092E8
:20654000C800DA01C901B595A795979587959C01215031093093CD002093CC0086E0809330
:20656000CA0088ED8093C900FF90EF90DF90CF900895CF93DF93FB011082882311F080E019
:206580000BC0EB0186E895E081DF8823C1F380E595E067DF888381E0DF91CF910895CF9347
:2065A000811124C0C62F8DEB95E070DF81110CC08091C80085FF08C08FB7F894C093CE00BE
:2065C0001092BE058FBF10C08DEB95E05FDF8233D9F36C2F87E895E02CDF1092BE0580918C
:2065E000C90080628093C90081E001C080E0CF910895811102C06093BF050895811103C098
:206600008091BE05089580E008951F920F920FB60F9211242F933F934F935F936F937F93A3
:206620008F939F93AF93BF93CF93EF93FF93C091CE008091BF0581110BC086E895E026DFC3
:206640008233C9F06C2F80E595E0F3DE81E011C08DEB95E01BDF823371F06C2F87E895E0D8
:20666000E8DE8091C90080628093C90081E080930A0580930B05FF91EF91CF91BF91AF9116
:206680009F918F917F916F915F914F913F912F910F900FBE0F901F9018951F920F920FB6BC
:2066A0000F9211242F933F934F935F936F937F938F939F93AF93BF93EF93FF938DEB95E09F
:2066C000E5DE811106C08091C9008F7D8093C90008C087E895E0C5DE8093CE0081E0809339
:2066E0000A05FF91EF91BF91AF919F918F917F916F915F914F913F912F910F900FBE0F9020
:206700001F9018951F920F920FB60F9211248F9381E08093BE058F910F900FBE0F901F90FD
:206720001895DB018F939F935CD0BF91AF91A29F800D911DA39F900DB29F900D11240895A5
:20674000991B79E004C0991F961708F0961B881F7A95C9F780950895AA1BBB1B51E107C09E
:20676000AA1FBB1FA617B70710F0A61BB70B881F991F5A95A9F780959095BC01CD01089528
:20678000A1E21A2EAA1BBB1BFD010DC0AA1FBB1FEE1FFF1FA217B307E407F50720F0A21BD3
:2067A000B30BE40BF50B661F771F881F991F1A9469F760957095809590959B01AC01BD0169
:2067C000CF010895A29FB001B39FC001A39F700D811D1124911DB29F700D811D1124911DB8
:2067E0000895F0DFA59F900DB49F900DA49F800D911D11240895EE0FFF1F0590F491E02DCA
:206800000994F999FECF92BD81BDF89A992780B50895A6E1B0E044E050E033C0A8E1B0E054
:2068200042E050E02EC0262FF999FECF92BD81BDF89A019700B4021639F01FBA20BD0FB63D
:20684000F894FA9AF99A0FBE08950396272FECDFEADF252FE9DF242FE7CF0196272FE4DFC3
:20686000E2CF262FF999FECF1FBA92BD81BD20BD0FB6F894FA9AF99A0FBE01960895DC011A
:20688000CB01FC01F999FECF06C0F2BDE1BDF89A319600B40D9241505040B8F70895F89418
:2068A000FFCF00000228020000021602000005E901000007AA010000076B01000006350174
:2068C000000002230107000100000000000002000100000000000003000100000000000083
:2068E000060001000000010000020000000000000000060002000000000000060001007F00
:20690000000000000600020000000000000400000000000000000400000000000000000463
