:020000040000FA
:2000000037C000005CC000005AC0000058C0000056C0000054C0000052C0000050C000004F
:200020004EC000004CC000004AC0000048C0000046C0000044C000000C946B1940C0000066
:200040003EC000003CC000000C941B2E0C94802D0C94CE2C0C94481932C0000030C00000F3
:200060002EC000002CC000001A6100005304592E11241FBECFEFD8E0DEBFCDBF13E0A0E029
:20008000B1E0E0E7FEE502C005900D92AA3AB107D9F726E0AAEAB3E001C01D92AE30B2078F
:2000A000E1F710E0C8E3D0E004C02197FE010E94E22EC633D107C9F703D00C94362FA0CF18
:2000C000BFD2EFD3FECFFC0180A10895CF93DF93EC010E94CE272E8D3F8D821B930B6C8D32
:2000E0007D8D621B730B0E94932E862FDF91CF910895DF92EF92FF920F931F93CF93DF93CB
:20010000EC01D62EE3DFD816A8F5D8A260E070E0CE010E94F62B46E060E071E0CE010E94DD
:200120005826ED2CF12C00E010E020E030E041E060E0CE010E94822945E065E071E0CE0124
:200140000E9458266E8D7F8D8C8D9D8D861B970B48A1489F9001499F300D1124620F731F34
:20016000CE010E94F62BEA8DFB8D309729F08D2D099502C080E001C081E0DF91CF911F91F2
:200180000F91FF90EF90DF900895EF92FF920F931F93CF93DF93EC01E62E60E070E00E9438
:2001A000F62B46E060E071E0CE010E945826F12C00E010E021E030E041E060E0CE010E94A8
:2001C000822945E065E071E0CE010E9458266E8D7F8D8C8D9D8D861B970B48A1489F9001DC
:2001E000499F300D1124620F731FCE01DF91CF911F910F91FF90EF900C94F62BCF92DF9212
:20020000EF92FF92CF93DF93EC0160E070E00E94F62B46E060E071E0CE010E94582621E011
:2002200030E041E060E0CE010E9459296B017C0145E065E071E0CE010E9458266E8D7F8DC0
:200240008C8D9D8D861B970B48A1489F9001499F300D1124620F731FCE010E94F62B81E067
:20026000CD28CE28CF2809F480E0DF91CF91FF90EF90DF90CF900895FF920F931F93CF93AF
:20028000DF93EC0160E070E00E94F62B46E060E071E0CE010E945826E0E0F1E080E090E0A5
:2002A00000E010E06281062E000C770B20E030E02617370784F4A381B481A80FB91F129636
:2002C000FC9012974D915C914F0D511D040F151F2F5F3F4FEDCF359609968633910511F774
:2002E00045E065E071E0CE010E9458266E8D7F8D8C8D9D8D861B970B48A1489F9001499F7E
:20030000300D1124620F731FCE010E94F62BC80121E0822727E19227DF91CF911F910F9182
:20032000FF900895CF92DF92EF92FF92CF93DF93EC0160E070E00E94F62B46E060E071E0E2
:20034000CE010E94582620E030E040E060E0CE010E9459296B017C0145E065E071E0CE01D8
:200360000E9458266E8D7F8D8C8D9D8D861B970B48A1489F9001499F300D1124620F731F12
:20038000CE010E94F62BCE0177DF21E08C159D0509F020E0822FDF91CF91FF90EF90DF906B
:2003A000CF900895EF92FF920F931F93CF93DF93EC017B0160E070E00E94F62B46E060E0E5
:2003C00071E0CE010E94582600E010E020E030E040E060E0CE010E94822945E065E071E0C6
:2003E000CE010E9458266E8D7F8D8C8D9D8D861B970B48A1489F9001499F300D1124620F55
:20040000731FCE01DF91CF911F910F91FF90EF900C94F62BFF920F931F93CF93DF93EC01E6
:20042000F62E81E0681303C0CE010E94A427CE0123DFBC01CE01B6DF00E010E0CE0146DE08
:2004400090E00817190754F4602FCE0152DE6F2DCE010E94242B0F5F1F4FF0CF60E0CE0111
:2004600048DE60E0CE01DF91CF911F910F91FF908CCE0F931F93CF93DF93EC0160E070E099
:200480000E94F62B46E060E071E0CE010E945826182F882309F448C0CE010E94C8277D8F90
:2004A0006C8F80910501909106019F8F8E8FCE0139DF082F811104C061E0CE01ABDF34C0B5
:2004C000CE019CDE882359F160E070E0CE010E94F62B46E060E071E0CE010E94582620E016
:2004E00030E041E060E0CE010E94592968A345E065E071E0CE010E9458266E8D7F8D8C8DC3
:200500009D8D861B970B48A1489F9001499F300D1124620F731FCE010E94F62B01C018A2A3
:2005200068A1CE01E6DD102F812FDF91CF911F910F910895FC01738F628F0895462F682FDB
:200540008AEA93E0CFC7CF93C82F8EE294E00E94BE1066E06C0F482F8EE294E0CF910C9455
:200560000610EF920F93EE24E39400E020E0482F60EC8FE694E00E9433150F91EF90089587
:20058000CF93DF93EC01798368835B834A833D832C8386E0FE013696DF01982F1D929A95E3
:2005A000E9F736969CE0DF011D929A95E9F7188E198E1A8E1B8E1C8E1D8E1E8E1F8E18A26F
:2005C00019A21AA21BA21CA21DA21EA21FA218A619A690E1EEE0F3E0DE019A9601900D921B
:2005E0009A95E1F740911E0350911F0360912003709121034AAF5BAF6CAF7DAFFE01FE96E9
:20060000409122035091230360912403709125034083518362837383DE01AE5BBF4FE6E26C
:20062000F3E001900D928A95E1F7EDE4F5E08FEF8193B5E0ED35FB07D9F7DF91CF91089592
:200640000E94C1188AE295E014DF8AEA93E01FD778948AEA93E0AAD70E94FA180E94411A49
:2006600061E08FE694E00E94F41686EE93E00E9426118EE992E090934C0580934B0563EAD7
:2006800072E08CE494E00E949C0B61EB72E08AE295E050CF8AEA93E00AD78823A1F00E9497
:2006A0005417882341F08EE294E00E94941086EE93E00E947F118CE494E0A8D760E08FE698
:2006C00094E00C94961308954F925F926F927F92AF92BF92CF92DF92EF92FF920F931F9312
:2006E000CF93DF9340E061E08AEA94E00E940526882309F4C7C061E08AEA94E00E941122E3
:20070000C82F61E08AEA94E00E942F22C82E61E08AEA94E00E943B22182F61E08AEA94E038
:200720000E941D22482EC03C91F148F4C03979F1C03B69F1C03809F0A5C010E028C0C83FBB
:2007400009F48DC0CA3F09F486C0C03F09F09AC061E08AEA94E00E945222C82F61E08AEAC6
:2007600094E00E9447224C2FBC018AEA93E0DF91CF911F910F91FF90EF90DF90CF90BF9090
:20078000AF907F906F905F904F900C94F31EE12C042D212F4C2D6C2F8FE694E00E94331518
:2007A000C03C91F46C2D8AE295E0DF91CF911F910F91FF90EF90DF90CF90BF90AF907F90A5
:2007C0006F905F904F9095CCC03B09F05BC0C0E0D0E0512C612C712CD12CE12CF12CA12EEF
:2007E000B12C9E0147E062E08AE295E00E945929672B682B692B51F19E0142E062E08AE2A5
:2008000095E00E9459296330710581059105F1F49E0144E062E08AE295E00E9459296415B2
:2008200075058605970591F49E0143E062E08AE295E00E9459296C157D058E059F0531F42A
:20084000A5016C2F86EE93E00E9433112196C330D10539F617C08FE694E00E941C1761E005
:200860008FE694E0DF91CF911F910F91FF90EF90DF90CF90BF90AF907F906F905F904F9029
:200880000C949613DF91CF911F910F91FF90EF90DF90CF90BF90AF907F906F905F904F90A9
:2008A000089512DFF7CE1F93CF93DF9310924C0510924B052AE235E010922A0510922B05B6
:2008C00010922C0510922D0510922E051092300510922F0588E0ECE2F3E0A1E3B5E001903C
:2008E0000D928A95E1F710923A051092390582E199E190933C0580933B0582E399E190930B
:200900003E0580933D058DEF93E09093400580933F05109241059093430580934205109242
:2009200045051092440510924A05CAEAD4E010920E0510920F051092100510921C051092A2
:200940001B0510921D0510921F0510921E0510922105109220051092230510922205109264
:200960002505109224056FE674E03093700420936F0486E0E1E7F4E0DF01182F1D921A95F5
:20098000E9F71092770410927904109278049BE0E4E3F3E0AAE7B4E001900D929A95E1F7AC
:2009A0009BE0EFE3F3E0A5E8B4E001900D929A95E1F79BE0E0E9F4E0DF01192F1D921A9521
:2009C000E9F710929B0410929C0410929D0410929E04EFE9F4E0DF011D929A95E9F7309320
:2009E0004D0420934C04D0934F04C0934E0470935104609350044BE455E050935304409338
:200A0000520410925504109254049CE0E6E5F4E0DF01192F1D921A95E9F7E2E6F4E0DF018E
:200A2000182F1D921A95E9F7E8E6F4E0DF01182F1D921A95E9F7E1E0E0936E0430932F048E
:200A400020932E04D0933104C093300470933304609332045093350440933404E6E3F4E06B
:200A6000DF011D929A95E9F710924304109242041092450410924404EAE4F3E0A6E4B4E073
:200A800001900D928A95E1F7EDE4F5E08FEF8193B5E0ED35FB07D9F72BE435E04AEA54E0E2
:200AA0006AE275E086EE93E06BDD1092AC031092AD031092AF031092AE031092B003109225
:200AC000BB031092BA031092BD031092BC031092BE031092BF031092C0031092C103109202
:200AE000C2031092C4031092C30388E593E09093AB038093AA038AE295E09093C60380930F
:200B0000C5038AEA94E09093C8038093C7038EE294E09093CA038093C90386EE93E090939D
:200B2000CC038093CB038CE494E09093CE038093CD038FE694E09093D0038093CF0381E025
:200B40008093D103DF91CF911F910895CF93DF93EC0164E0888199810E94991C60E08881C9
:200B600099810E94991C67E088819981DF91CF910C94991CCF93DF93EC0161E08881998150
:200B80000E94991C6BE0888199810E94991C68E7888199810E94991C62E3888199810E9466
:200BA000991C61E0888199810E94991C60E0888199810E94991C60E088819981DF91CF91D8
:200BC0000C94991CEF92FF921F93CF93DF9300D000D0CDB7DEB77C01162F9C838B839A8363
:200BE0008983603509F456C0C0F4633441F118F4623441F15FC0643451F16D3409F05AC043
:200C00006CE00E94991C63E0C7010E94991C66E0C7010E94991C66E042C0643609F447C084
:200C200048F46535A1F0663509F044C0CE0103968DDF0BC06536B9F16F3749F03BC0CE0128
:200C4000039684DFCE01019695DF81E034C0F70185A196A10E94B21680E090E00196853C82
:200C6000F9E09F0739F0EFE9FFE03197F1F700C00000F4CF143431F460E0F701838D948D0C
:200C8000C9DB04C0153511F481E001C080E00E94D318DBCFFC01838D948D18DA682FC70165
:200CA0000E94991CD2CF81E0F70187A304C0FC0117A2CBCF80E00F900F900F900F90DF9159
:200CC000CF911F91FF90EF900895FB01642F70E021E0AF01FC01858D968D0C943E1FCF9338
:200CE000DF931F92CDB7DEB7AE014F5F5F4FBC0180E00E94242C882329F081E09981913F8F
:200D000009F080E00F90DF91CF91089541EFBC0180E00C94022CFC018281238130E0220F6E
:200D2000331F87FF03C02F77216001C02E7720838F7781830895AF92BF92CF92DF92FF924C
:200D40000F931F93CF93DF93CDB7DEB728970FB6F894DEBF0FBECDBF6C01F42E58011982C9
:200D60001A821B821C82623009F4BCC030F4662379F0613009F4A1C0E9C0643039F108F429
:200D80005CC0653009F0E2C06DE00E94331FE9C041E04F1520F482E0F81639F0E2C08E01BA
:200DA0000F5F1F4F4F2D60E0D5C02115310529F4F601838D948D87D9B6C02130310509F0FF
:200DC000D4C0F601838D948D19DAADC0F1E04F17C1F04F1778F044E0F416D1F0FC01838D45
:200DE000948DF7E0FF121FC08E010F5F1F4F45E064E056C0622FFC0185A196A10E948514FB
:200E000092C0622FFC0185A196A10E94C2148BC0822F0E94E117282F30E08E010F5F1F4FB5
:200E200042E064E097C0EF2DF0E0E05AFC4F8E010F5F1F4F408164E090C0FC01838D948D96
:200E4000F3E04F1780F148E04F1548F4E9E0FE122AC08E010F5F1F4F46E063E021C0EF2D8C
:200E6000F0E0E859FC4F8E010F5F1F4F408163E00E941828882309F474C089819A819887A5
:200E80008F83CE01059647DFF5E0FF1609F448C047E0F41609F444C083E0F81243C040C01F
:200EA0000E9418281BC0EF2DF0E0E859FC4F8E010F5F1F4F408163E050C0E42FF0E0E5585E
:200EC000FC4F8E010F5F1F4F408161E0FC01838D948D0E941828F4E0FF1241C0882309F4BC
:200EE00040C02CC0E42FF0E0EE58FC4F8E010F5F1F4F408162E0FC01838D948D0E94182814
:200F0000882379F18F2D8B7F8330A9F489819A8198878F83CE010596FEDEF3E0FF1202C064
:200F20008E8101C08D8190E0A0E0B0E089839A83AB83BC831AC044E0F41217C089819A81BD
:200F4000AB81BC810196A11DB11DF0CF8E010F5F1F4F4F2DF601838D948D0E9418288111C3
:200F600004C0F501108280E004C08981F501808381E028960FB6F894DEBF0FBECDBFDF9128
:200F8000CF911F910F91FF90DF90CF90BF90AF9008953F924F925F926F927F928F929F9212
:200FA000AF92BF92CF92DF92EF92FF920F931F93CF93DF9300D000D0CDB7DEB75C01C42E8B
:200FC0004901402E623009F415C230F4662369F0613009F4EEC12AC2643009F4B7C008F4C0
:200FE00054C0653009F4E0C121C2411122C02130310509F4D9C148F02230310509F4D4C123
:201000002330310509F4D0C12BC2F501858D968D002311F061E001C060E00E944226E42C21
:20102000440CFF08000B110B20E030E040E060E004C2F1E04F1709F4B7C142E0C41210C286
:201040002115310599F4FC01838D948D3FD890E0202F002E000C330B281739070CF0A4C13B
:20106000602FF501838D948D44D8F8C12130310509F0F6C141E0401708F4F2C1602F617027
:20108000FC01838D948D81D8E9C1F2E04F1709F440C0FC01838D948D242F30E0F2E04F1721
:2010A00008F444C048E04C1508F440C0F901E859FC4FD08094014D2D63E00E9459297C8360
:2010C0006B83CE01019627DE85E0C81631F097E0C91619F0E3E0CE1202C04A8201C0098376
:2010E00089819A8180FF02C0906801C09F779A8390E0959587958983E12CF12CF82E8A8181
:20110000E82AFC82EB8200E010E094014D2D63E094C1B901FC0183A194A1FCD2E02E000F60
:20112000FF08000B110B940142E0F1CFF9E0CF1201C04A94E42C440CFF08000B110BF90129
:20114000E859FC4F9401408163E07AC143E0C41609F4E0C04C1568F081E0C816A9F08C1563
:20116000F8F0402F622FF50185A196A10E94EA1475C195E0C91609F4CDC0C91658F1E7E091
:20118000CE1206C14A94C6C0011102C040E001C045E0682DF50185A196A10E9422145EC18B
:2011A000F1E02F1709F400C12F1720F042E0241761F056C181E0801708F452C1602FF501B3
:2011C00085A196A10E94E71640C1F1E0F01708F447C13BC1C22E822F0E94E11760E00E941D
:2011E000DC1740E0682FF50185A196A10E94EA14882D0E94E11761E00E94DC1740E0682F76
:20120000F50185A196A10E94EA14882D0E94E11762E00E94DC1740E0682FF50185A196A1AB
:201220000E94EA14882D0E94E117E02E000FFF08000B110B282F30E042E064E0F501838DA1
:20124000948D0E948229182F442009F4FCC0882309F406C1D12C940141E064E0F501838D50
:20126000948D0E9459292B013C018C2D0E94E1176D2D0E94DC17282F30E08301720141E0BF
:2012800064E0F501838D948D0E948229882309F4E7C0940143E064E0F501838D948D0E9482
:2012A00059292B013C018C2D0E94E1176D2D0E94DC17282F30E08301720143E064E0F50106
:2012C000838D948D0E948229882309F4C9C0940145E064E0F501838D948D0E9459292B01EA
:2012E0003C018C2D0E94E1176D2D0E94DC17282F30E08301720145E064E0F501838D948D41
:201300000E948229882309F4ABC0D394F3E0DF12A2CFA4C0382C882D0E94E117282F30E053
:2013200042E064E0F501838D948D0E9459294C2D50E0042C000C550866087708672B682BA8
:20134000692B01F1912CCA01805A9C4F6C01832D0E94E117692D0E94DC17282F30E08301ED
:201360007201F601408164E0F501838D948D0E948229182F882309F473C09394F3E09F12BD
:20138000E6CF61C0FA01E05AFC4F8301720109C0E02E000FFF08000B110BEC2DF0E0E05AC9
:2013A000FC4F9401408158C06DE0C5010E94331F57C0F4E04F1301C04A94E42C440CFF081A
:2013C000000B110BEC2DF0E0E558FC4F9401408161E0F501838D948D0E948229882309F4C2
:2013E0003FC0F1E0FC15D0F1682DF501878D90A1CBD634C0F4E04F1301C04A94E42C440CB1
:20140000FF08000B110BEC2DF0E0EE58FC4F9401408162E0F501838D948D0E948229182FD1
:20142000682DF50181A192A1CED60DC0E42C440CFF08000B110B94014C2DF501838D948D98
:201440000E948229182F812F0CC0E42C440CFF08000B110B940140E064E0EFCF81E001C015
:2014600080E00F900F900F900F90DF91CF911F910F91FF90EF90DF90CF90BF90AF909F90D7
:201480008F907F906F905F904F903F900895CF93DF93EC0146E062E472E00E947E1A4BE001
:2014A0006CE272E0CE01DF91CF910C94DF1AFC0187A10895CF93DF93EC0140E060E076E912
:2014C00080E090E00E94022D6FE676E08D8D9E8D0E944C2666E876E08D8D9E8DDF91CF91AE
:2014E0000C945226BF92CF92DF92EF92FF920F931F93CF93DF9300D01F92CDB7DEB77C0160
:20150000062FB42E0E94001B182F882309F440C02FB7F8948091880590918905A0918A0589
:20152000B0918B052FBF670124E0029FC00CD11C1124F60140A551A562A573A5841B950BC1
:20154000A60BB70B853F9140A105B10508F189E489830A83BB82F701658D768D6A5C7F4F6A
:2015600001E023E0AE014F5F5F4FC7010E94AA1C2FB7F8948091880590918905A0918A05CD
:20158000B0918B052FBFF60180A791A7A2A7B3A7812F0F900F900F90DF91CF911F910F91E6
:2015A000FF90EF90DF90CF90BF900895CF93DF93EC0161E18D8D9E8D0E946A2220E030E0DD
:2015C00040E060E08B8D9C8D0E9459298D8D9E8D0E94422621E030E040E060E08B8D9C8D45
:2015E0000E94592921E0672B682B692B09F420E0622F8D8D9E8D0E94ED2161E08D8D9E8D04
:201600000E944726CE01DF91CF9154CFBF92CF92DF92EF92FF920F931F93CF93DF937C011F
:201620000E944118882309F46BC06701C0E0D0E09E0140E063E0D7018D919C910E945929DB
:20164000672B682B692B09F448C0BC2E8C2F0E9433188C019E0142E063E0F701808191819E
:201660000E945929D70192968C918823B1F00730110574F0093FB3E01B076CF4F6018285D1
:2016800093859695879515950795080F191F05C000E010E002C00FEF13E06330A1F0623058
:2016A00069F020F08CEF860F8430B8F4012E000C220B330B4B2DC70143D00FC0A8016B2D48
:2016C000C7017BD20AC0D7011896ED91FC911997309719F0B8018B2D09952196B2E0CB0EE9
:2016E000D11CC630D10509F0A3CFDF91CF911F910F91FF90EF90DF90CF90BF900C9444187F
:20170000DF91CF911F910F91FF90EF90DF90CF90BF900895DC01A60FB71F5C961C925C97E6
:201720006B5F7F4F660F771FFC01E60FF71F1182108256961C920895FC0171876087089529
:201740002F923F924F925F926F927F928F929F92AF92BF92CF92DF92EF92FF920F931F93F7
:20176000CF93DF93CDB7DEB76D970FB6F894DEBF0FBECDBF1C016A8B498B48015901862FF3
:201780008550833038F01A8E26E030E0EFE7EE2EF12C08C021E02A8F21E030E0EE24EA94A9
:2017A0007FE3F72E4989842F90E0AC01440F551FB101640F751F7C8F6B8FDB011A96CD9092
:2017C000DC901B972601612C712C84149504A604B70418F0B2E0BD8302C0E1E0ED83A10195
:2017E000480F591F5F8B4E8BDA015C96BC91BF83BB23A1F0ED81EB1729F0FA8DFF2311F059
:20180000220F331FC4018C199D0997FF03C09195819591098217930708F4B6C1970140E0A8
:2018200050E029873A874B875C873FEFE31633E0F30609F456C04FEFE41643E0F40670F552
:20184000A5019401C984DA84EB84FC846FEFC61AD60AE60AF60AC701B6010E94782E6D87EA
:201860007E878F87988BA3019201C701B6010E94782E2B013C013AE07694679457944794DE
:201880003A95D1F7CD84DE84EF84F8884AE0F694E794D794C7944A95D1F725C0A50194014F
:2018A00069857A858B859C850E94782E44244A9423E0522E612C712CA30192010E94A72E21
:2018C0002D873D8F8A019601D7010E94C92EA30192010E94A72E29013A01CD84DD8C7801AF
:2018E00002C075016401C414D504E604F70419F47F81711149C18D869E86AF86B88AAA883C
:201900004101ED81AE89BF895C96EC93F9892F2E312C910144E063E0D4018D919C910E9430
:2019200059296A8B7B8B8C8B9D8BEA89FB89F887EF83910145E063E0D4018D919C910E9447
:2019400059292B013C018B01910143E063E0F401808191810E9459296E8B7F8B888F998FAA
:201960002E893F893E832D83910146E063E0D4018D919C910E945929B62EBA8DB1111FC06C
:20198000EE89FF89FC83EB83CE010196C4D98A81282F30E03E832D834A895B895C834B8311
:2019A000CE010196B8D98A81682F70E078876F835C824B82CE010196AED90A8110E0C80171
:2019C000A0E0B0E0EF81F8852F01612C712C411451046104710449F429853A854B855C85D1
:2019E000281739074A075B0791F1BC01CD01641975098609970929853A854B855C856217E7
:201A000073078407950798F49B01AC012F5F3F4F4F4F5F4FC701B6010E94782E29853A85B4
:201A20004B855C852F5F3F4F4F4F5F4F08C0A70196010E94782E29853A854B855C850E947E
:201A4000A72E73016201C20ED31EE41EF51E910141E063E0D4018D919C910E945929672B38
:201A6000682B692B51F029853A854B855C852C193D094E095F0969017A0135E03A1538F025
:201A800044E0A416C8F451E05A1548F47DC066E0A61609F45FC077E0A71671F075C0D401F6
:201AA00012968D919C9113972B2D4C2D6D81AA2051F10E94B42155C0ED81FE81FC83EB8358
:201AC000CE01019628D9F7E0AF1601F12B2D498163E6D40112968D919C9113970E94D6219B
:201AE0002B2D4A8162E6F401828193810E94D621F4E0AF120BC02B2D4C2D66E0D4011296E2
:201B00008D919C9113970E94D6212BC01A81DC82CB82CE010196FFD8B7E0AB120FC0103660
:201B200000F52B2D4981612FF401828193810E94D62160E2610F2B2D4A81E0CF2B2D4981B3
:201B400066E0F401828193810E94D6212B2D4A8166E2D4CF4B2DB601F401828193810E94AF
:201B6000DE21D4011696ED91FC9117970190F081E02D309719F0698983E009952D853E85E5
:201B8000EB8DFC8D338722876D960FB6F894DEBF0FBECDBFDF91CF911F910F91FF90EF9069
:201BA000DF90CF90BF90AF909F908F907F906F905F904F903F902F9008954F925F926F92A1
:201BC0007F92AF92BF92CF92DF92EF92FF920F931F93CF93DF935C01162F6A01CA01A0E0FE
:201BE000B0E088329105A105B10558F0853521E09207A105B10548F084E591E0A0E0B0E08F
:201C000004C088E290E0A0E0B0E08897A109B109BC01CD0127E0660F771F881F991F2A95D8
:201C2000D1F72DE231E040E050E00E94A72E29013A01C12FD0E0F501EC0FFD1F8689232B86
:201C4000242B252B49F181115CC081E0868B9E0143E063E0D5018D919C910E945929F62E1D
:201C60009E0146E063E0F501808191810E945929062F262F442D6F2DD50112968D919C91CF
:201C800013970E94B421EE24E394242D4F2D60E9F5018481958127C0882399F1168A9E0118
:201CA00043E063E0F501808191810E945929762E9E0146E063E0D5018D919C910E945929A0
:201CC000062F262F40E0672DF501828193810E94BC21EE24E39420E0472D60E8D501149675
:201CE0008D919C911597BFD6D5011696ED91FC9117970190F081E02D309719F0612F83E04B
:201D000009952596CC0FDD1FCA0DDB1DD982C882DF91CF911F910F91FF90EF90DF90CF9023
:201D2000BF90AF907F906F905F904F900895BF92CF92DF92EF92FF920F931F93CF93DF933F
:201D4000EC01E42E122FC62ED12C960142E061E0888199810E945929F62E960144E061E0F1
:201D6000888199810E945929062F960143E061E0888199810E945929B62E133141F49601B1
:201D800041E061E0888199810E945929162FFA8EEE2009F48DC0173009F472C0C0F4143007
:201DA00048F4123008F059C0112331F1113009F448C0B6C08A819B81AE01485E5F4F153013
:201DC00009F456C008F056C021E02C8F56C01B3009F45CC048F48A819B81193009F452C0F1
:201DE00008F052C068EF59C01D3009F453C008F44FC0103170F094C0202F4B2D6F2D8A819E
:201E00009B810E94B421EE24E3942B2D4F2D60E96EC01130B1F0802F90E0FC01E35BFA4FD6
:201E200020811E3029F42F3709F47AC02F5F04C012160CF075C021502083FC01E35BFA4FB6
:201E4000F080402F6F2D8A819B810E94CE21EE24E39420E04F2D60EC4AC0202F4B2D6F2D91
:201E60008A819B810E94D621EE24E3942B2D3DC022E001C026E02C8F21E066E070E045C0A4
:201E800089E03AC06AEF09C06BEF07C06CEF03C06EEF01C06FEF8A819B81DF91CF911F915B
:201EA0000F91FF90EF90DF90CF90BF900C94F920133089F01630F9F0111132C0202F40E030
:201EC0006F2D8A819B810E94BC21EE24E39420E04F2D60E80CC0202F40E06F2D8A819B8175
:201EE0000E94D621EE24E39420E04F2D60EB8C819D81B9D515C087E08C8FAE01485E5F4FE6
:201F000021E066E070E08A819B81DF91CF911F910F91FF90EF90DF90CF90BF900C943E1FBB
:201F2000DF91CF911F910F91FF90EF90DF90CF90BF9008959C01962F96959695969588E06E
:201F4000989F60191124E92FF0E0E20FF31F81E090E0A0E0B0E004C0880F991FAA1FBB1F1A
:201F60006A95D2F7442319F02489822B03C0809594898923848B0895262F269526952695FC
:201F8000820F911DFC01848990E0F8E02F9F6019112402C0959587956A95E2F781700895C6
:201FA0009C01962F96959695969588E0989F60191124E92FF0E0E20FF31F81E090E0A0E0B5
:201FC000B0E004C0880F991FAA1FBB1F6A95D2F7442319F02689822B03C080959689892384
:201FE000868B0895262F269526952695820F911DFC01868990E0F8E02F9F6019112402C0DC
:20200000959587956A95E2F781700895CF92DF92FF920F931F93CF93DF93EC01062FF42E45
:20202000ABDF8F1509F468C04F2D602FCE0182DFC02ED12C960141E061E0888199810E9469
:202040005929162F603109F43DC0960140E061E0888199810E945929163038F41430F8F44D
:202060008FEF810F823040F41AC0103118F4173028F015C01131C9F0613089F4FF2099F15F
:20208000602FCE01AFDF882331F040E0602FCE0187DFF12C04C041E0602FCE0181DF212F94
:2020A0004F2D602FCE0143DE0DC0FF2059F0960142E061E0888199810E945929888199818C
:2020C0000E947900EE81FF810190F081E02D309799F0602F81E0DF91CF911F910F91FF90F8
:2020E000DF90CF900994113169F3123159F740E0602FCE015BD0E6CFDF91CF911F910F91C6
:20210000FF90DF90CF900895FC01E60FF11D9085990F406F492B408781E0403F21F04F3F9F
:2021200011F080E0089508950F931F93CF93DF938C01C0E08C2FA7D6282F30E040E062E0AE
:20214000F801808191810E945929672B682B692B69F48C2F81D6D82F482F6C2FC801D4DF92
:20216000882321F04D2F6C2FC80150DFCF5FC63009F7DF91CF911F910F91089581E0693EAB
:20218000734008F480E008951F93CF93DF93EC01162FFC01E60FF11D108640E0CBDE40E05C
:2021A000612FCE01DF91CF911F91FACE08952FB7F894609188057091890580918A0590919B
:2021C0008B052FBF08950F931F93CF93DF938C01C62FD0E09E0142E062E0FC018081918177
:2021E0000E9459299E012D5F3F4F653071058105910559F4C901880F991FF801E80FF91F6D
:2022000080E090E29183808308C0C901880F991FF801E80FF91F11821082FE013396EE0F02
:20222000FF1FEE0FFF1FE00FF11F1082118212821382F801EC0FFD1F108E168E11A214A25D
:2022400017A2DF91CF911F910F910895CF93DF93EC0160E0B8DF61E0CE01B5DF62E0CE01BB
:20226000DF91CF91B0CF860F911D860F911DFC015783468308950F931F93CF93DF93FC0127
:20228000262F30E0EC01C20FD31F8CA14370982F990F990F492B942F90689CA387FD02C07E
:2022A00080E028C04F70DF01A40FB11D9A968C919FA1182F190F1FA345E062E0808191817E
:2022C0000E945929212F110F330B37FF03C03195219531098901330F220B330B061717070B
:2022E00028073907ECF28FA1181614F082E001C081E01FA2DF91CF911F910F9108952F926C
:202300003F924F925F926F927F928F929F92AF92BF92CF92DF92EF92FF920F931F93CF938A
:20232000DF9300D000D0CDB7DEB78C014C013C017C01A12CB12C950140E062E0D8018D9145
:202340009C910E945929672B682B692B09F4A0C18A2D9BD5482F6A2DC8018DDF482E27DF2F
:20236000F3012485358546855785DC01CB01821B930BA40BB50BC397A105B10530F0D7015E
:2023800091961C9291975E961C92442009F480C1950141E062E0F801808191810E945929D3
:2023A000672B682B692B41F0F1E04F1619F04424439402C032E0432ED70191968C9191972C
:2023C000843081F05B968C915B97481611F091961C92F70181A18F5F843011F081A302C001
:2023E00011A2468E950146E062E0F801808191810E945929D62E662339F1D9DED3011C9634
:202400002D913D914D915C911F97DC01CB01821B930BA40BB50BF7018C389105A105B105AE
:2024200090F4408DF801ED0DF11D82AD90E026AD30E0840F911D281739070CF4C901D70166
:2024400058968C9301C0108ED7015B964C92AFDEF3016487758786879787D7015E968C91ED
:202460008111482E950143E062E0F801808191810E945929262E950144E062E0D8018D91E2
:202480009C910E945929362E950142E062E0F801808191810E945929562ED70158968C91F6
:2024A000811101C081E0B3E05B1609F441C0B51520F0E1E0E515E8F009C0F4E05F1609F4EA
:2024C00065C028E0251508F4D6C02EC0852D90E0FC01EE0FFF1FE80FF91FE00FF11FE40DDC
:2024E000F11DEE5BFF4FC080D12C42E0541243C024C0832D90E051E0FC01E35BFA4F208115
:20250000451205C02F3709F4B6C02F5F04C012160CF0B1C021502083FC01E35BFA4FC08007
:202520000C2C000CDD0809C065E0561609F4C2C099EF950D923058F4BDC0432D6C2DD801E2
:2025400012968D919C9113970E94CE2194C051E04512BDC0D40116962D913C911797F90140
:20256000E81BF109F7FDADC01796FC93EE931697F401C680D780B5E05B120AC0432DB6010E
:20258000F801828193810E94DE2175C0C12CD12C8AEF850D833008F051C0822D90E09C8366
:2025A0008B83CE0101960E948B06232D498163E6D80112968D919C9113970E94D621232DB2
:2025C0004A8162E6F801828193810E94D621F6E05F1204C0232D4C2D66E036C04A80DC8207
:2025E000CB82CE0101960E948B06B8E05B1213C0EFE5E41508F483C0232D4981642DD8018D
:2026000012968D919C9113970E94D62160E2640D232D4A810DC0232D498166E0D801129608
:202620008D919C9113970E94D621232D4A8166E2F801828193810E94D6211DC0F4E05F16DA
:2026400049F0232D4C2D622DD80112968D919C911397F1CFF801808191810E946300F2E0D0
:202660004F1611F06FEF01C061E0680FD8018D919C910E947900D8011496ED91FC911597A4
:202680000190F081E02D309719F06A2D82E00995BFEFAB1ABB0AEFEFEE1AFE0AF4E06F0E4D
:2026A000711C22E0820E911C43E0A416B10409F042CE25C0823018F0880F880F19C081E0AC
:2026C00017C0D40117961C921E92169751CF4FE750E0F40126813781B901680F711D4617A0
:2026E00057071CF07783668343CF5783468340CF61E0461609F42ECF4FEF5FE3EACF0F905A
:202700000F900F900F90DF91CF911F910F91FF90EF90DF90CF90BF90AF909F908F907F90F5
:202720006F905F904F903F902F900895CF92DF92FF920F931F93CF93DF93DC0119968D916C
:202740009C911A97892B09F475C018968C911897882319F08130B9F16DC08FB7F89440915C
:2027600088055091890560918A0570918B058FBF9C960D911D912D913C919F97401B510B08
:20278000620B730B443651056105710508F452C08FB7F894409188055091890560918A0575
:2027A00070918B058FBF9C964D935D936D937C939F9719964D915C911A97FD0120E030E0BA
:2027C000FF24F39420C06111F4CF34C090A99F2590AB11A28DE5C82E85E0D82EBD01E601E3
:2027E000888181FD19C0DFEFCD1ADD0A6F5F7F4F83E6C81685E0D80691F72F5F3F4F31964C
:202800002B303105B9F081A18F5F81A3EA019991AE018917D8F6F1CFEB010A8110E00217D8
:20282000130709F7992311F0846001C08B7FE6018883D9CFDF91CF911F910F91FF90DF905A
:20284000CF900895DF92EF92FF920F931F93CF93DF9300D01F92CDB7DEB77C01062F142F42
:20286000862FAFD3D82E282F30E042E064E0F701808191810E945929672B682B692B71F005
:2028800060E08D2D99D3898361E08D2D95D38A8362E08D2D91D38B8343E004C009830A83E8
:2028A0000B8341E0BE016F5F7F4F9B0150E0D701A00FB11D1296C901861B970B8417950701
:2028C000CCF4F9018081E82FF0E0E35AFA4F8081112311F0866009C0982F9D7F908380FF76
:2028E00003C09460908302C0897F80831C932F5F3F4FE1CF0F900F900F90DF91CF911F9169
:202900000F91FF90EF90DF9008951F93CF93DF93E62FF0E0E35AFA4F808180FF2CC083FF1E
:202920002CC0862F4ED3182F60E046D3E82FF0E0E35AFA4FD08161E0812F3ED3E82FF0E08E
:20294000E35AFA4FC08162E0812F36D3E82FD6FB882780F9C5FB992790F9880FC82FC92B1A
:20296000F0E0E35AFA4F808184FB992790F98C2F880F892B03C080E001C081E0DF91CF911D
:202980001F910895E62FF0E0E35AFA4F80818695817008950F93E62FF0E0E35AFA4F8081C7
:2029A0004423A1F080FD80E0222339F0013051F038F0023049F08D600AC0877F856007C066
:2029C0008D6105C08D6203C08D6401C080E080830F910895DF92EF92FF920F931F93CF9307
:2029E000DF93EC01F62E142F862FEBD2082F282F30E042E064E0888199810E945929672BC2
:202A0000682B692BF9F060E0802FD6D2D82E61E0802FD2D2E82E62E0802FCED2F82E00E0C8
:202A200020E0412F41706D2DCE01B4DF41E011FF40E000E020E06E2DCE01ACDF41E012FD23
:202A400005C003C041E0111101C040E000E020E06F2DCE019FDFDF91CF911F910F91FF9052
:202A6000EF90DF9008952F923F924F925F926F927F928F929F92AF92BF92CF92DF92EF921E
:202A8000FF920F931F93CF93DF93CDB7DEB72F970FB6F894DEBF0FBECDBF5C01162FF22E95
:202AA000242F22952F702D833F2C32949FE039228F2D6BE00E94872E982E3AE0381710F421
:202AC0008AE0982EC12CD12C802F90E0A0E0B0E08E839F83A887B987842F90E0A0E0B0E0D8
:202AE00089839A83AB83BC83222423942F0C2F2D30E040E050E02A873B874C875D87012FF2
:202B00000F7E960145E064E0D5018D919C910E9459292E813F81488559856217730784074B
:202B2000950709F0EEC0960143E064E0D5018D919C910E945929EE2041F16530A9F040F46D
:202B4000613059F0633009F04AC0E1E0EE8735C0663069F0683091F042C01039F1F1B1E014
:202B6000BE871038B9F537C0F1E0FE8731C00038B1F581E08F8791E09E8744C0103B79F534
:202B8000A1E0AF87B1E0BE873DC06430F9F028F4662341F0623069F022C0663089F06830E4
:202BA00091F01DC00038E9F021E02F87103BB9F41EC00038D1F031E03E87103B59F40BC0E7
:202BC000003869F416C0103B51F418C041E04E87103C09F01E861F8615C01F8611C01F86AE
:202BE00006C01F86E1E0EE870DC0F1E0FF871E8609C021E02F8731E03E8704C041E04F875B
:202C000051E05E878C2C8C2DDCD1282F30E042E064E0D5018D919C910E9459292B013C0105
:202C2000BE85BB2309F444C0960141E064E0F501808191810E94592929813A814B815C813B
:202C4000621773078407950769F5103C31F4452846284728F1F07D8020C045284628472839
:202C6000D9F43F85311118C0960144E064E0D5018D919C910E945929772473942A853B8554
:202C80004C855D85261737074807590731F0712C04C07724739401C0732C472D682DC50104
:202CA00099DE07C0103C21F440E06C2DC50192DE712C3F85332329F1960141E064E0D501E3
:202CC0008D919C910E94592929813A814B815C816217730784079507A1F43E85332369F056
:202CE000FF2049F0772039F0422D50E1759E401911244B3018F040E001C0492D682DC50146
:202D0000A1DD8FEFC81AD80A96E0C916D10409F0F8CE2F960FB6F894DEBF0FBECDBFDF918E
:202D2000CF911F910F91FF90EF90DF90CF90BF90AF909F908F907F906F905F904F903F9080
:202D40002F9008950F931F93CF938C01C0E041E06C2FC8013FDECF5FC630C9F7CF911F919E
:202D60000F9108950F931F93CF938C01C0E040E06C2FC8012FDECF5FC630C9F7CF911F91AE
:202D80000F910895CF93DF93EC01DCDF80E090E00196813D27E0920739F0EFE9FFE031970D
:202DA000F1F700C00000F4CFCE01DCDF80E090E00196813DF7E09F0739F0EFE9FFE03197D4
:202DC000F1F700C00000F4CFDF91CF910895FC01662319F0613019F00895469601C00B9617
:202DE0009287818760870895CF93DF93EC01662371F022E030E040E064E0888199810E9448
:202E00005929672B682B692B11F0CE01BBDF20E030E040E064E0888199810E945929CE0183
:202E2000D6DFFE01F096EB9681E08193EC17FD07E1F7DF91CF910895FC01B1968C9621E0AF
:202E400011922687E817F907D9F70895E82FF0E0E35AFA4F80810895982F96959695969563
:202E6000E92FF0E0E759FA4F208130E048E0949F80191124A90102C0559547958A95E2F7DD
:202E8000CA018170089586950895CF93DF93C82FCC0F8C2FE1DFD82FDD0F81E08C0FDCDF56
:202EA0008D2BDF91CF910895809166058823D9F09FB7F894809167058F5F8093670585307C
:202EC00011F410926705E0916705F0E0E659FA4F808180936905809166058150809366055D
:202EE0009FBF81E0089580E00895CF92DF92EF92FF92CF93DF93C0E0D0E0C12CD12C760110
:202F0000C394C630D105E9F18C2FDED2FB016093630570936405809365053297808190E0CF
:202F20000090650502C0959587950A94E2F780FF14C0E0916805F0E0E659FA4F9081B701C6
:202F4000A6010C2E04C0440F551F661F771F0A94D2F74095842F892311C0E0916805F0E0D0
:202F6000E659FA4F2081D701C6010C2E04C0880F991FAA1FBB1F0A94D2F7822B80832196CB
:202F8000C0CFDF91CF91FF90EF90DF90CF90089580916605853078F4809168058F5F80933D
:202FA0006805853011F4109268059FDF809166058F5F809366050895982F990F890F860F3C
:202FC00008959BEA899F812D1124869509F081E00895EF92FF920F931F93CF9303E715E00B
:202FE000C0E0EE24E394F12C8C2F30DF857091E0853009F090E0909372058C2F72D26093B1
:203000006F05709370058093710580917205F80190819817E9F0E0916F05F0917005909125
:203020007105882349F04081970101C0220F9A95EAF7242B20830AC02081A70101C0440FC2
:203040009A95EAF7942F909592239083F8018083CF5F0F5F1F4FC63039F6CF911F910F91D5
:20306000FF90EF9008952FB7F894E82FF0E0EE0FFF1FE758FA4F80819181118210822FBF83
:2030800008958091850508951092850510928605EAE7F0E08081806480830895809187053F
:2030A000833021F08F5F8093870529C010928705209178003091790080918605E82FF0E0C2
:2030C000EE0FFF1FE758FA4F40815181240F351F318320838F5F863019F08093860505C0CC
:2030E0001092860581E08093850580918605E6D190917C00907F8F70892B80937C00809153
:203100008505811105C080917A00806480937A000895F89484B7877F84BF809160008061D3
:2031200080936000109260008FE19EE40197F1F700C000001FBA10BE1CBC1DBA1092680088
:2031400010927A0010926E0010926F00109270001092C0001092C1001092C2001092BC0099
:2031600015B818B81BB814B817B81AB898E088E10FB6F894A895809360000FBE9093600040
:20318000FFCFF89484B7877F84BF0FB6F894A89580916000886180936000109260000FBE27
:2031A0000ED132D159C1CF93DF9300D000D0CDB7DEB7882341F08130E1F467E48FEF93E0E8
:2031C0000E94182F16C06FEF8FEF93E00E94182F83E089831A821B821C8242EFBE016F5FF4
:2031E0007F4F80E00E94022C80E00E94C72C8823D9F38FDF8DEF93E00E94F52EE8E6F0E0A5
:203200004591559165917491FA01659174918617970731F08DEF93E00E94142F81E00895D3
:2032200080E00895CF93DF93DC01CB01E901433028F0433069F40E94F52E03C00E94E82E8F
:2032400090E0A0E0B0E088839983AA83BB8306C00E94F02E688379838A839B8381E0DF91F3
:20326000CF9108950F93DC01CB01BA01033030F0033041F4B9010E94142F07C0622F0E94F7
:20328000FA2E03C0A9010E940C2F81E00F9108951F920F920FB60F9211242F933F934F93BB
:2032A0005F936F937F938F939F93AF93BF93EF93FF93F4DEFF91EF91BF91AF919F918F914A
:2032C0007F916F915F914F913F912F910F900FBE0F901F9018951F920F920FB60F9211242A
:2032E0002F933F934F935F936F937F938F939F93AF93BF93EF93FF9390910D0381E0892714
:2033000080930D038823A1F08091880590918905A0918A05B0918B050196A11DB11D80933A
:20332000880590938905A0938A05B0938B0551DE2FDEFF91EF91BF91AF919F918F917F917E
:203340006F915F914F913F912F910F900FBE0F901F90189510927C0010927A00803269F061
:2033600030F4803171F480917A0084600DC0803441F480917A00866007C080917A00856046
:2033800003C080917A00876080937A00923041F0933051F0913069F480917C00806407C01E
:2033A00080917C00806C03C080917C00806880937C0080917A00806880937A000895529846
:2033C0005A9A53985B9A54985C9A55985D9A56985E9A57985F9A209A2898219A2998229AD3
:2033E0002A98239A2B98249A2C98259A2D9838984098399841983A9842983B9843983C9805
:2034000044983D984598089580E891E0A3DF80E055D090917C00907F8F70892B80937C00B3
:2034200083E090E020917A00206420937A0020917A0026FDFCCF20917800309179000197C9
:2034400089F780917A00886080937A0080917A00806480937A00089514BC15BCEEE6F0E00E
:203460001082109280001092810084B5826084BD85B5836085BD8CE787BD8081826080831D
:203480000895CF93DF9300D000D0CDB7DEB7882311F0198202C081E089831A821B821C82B5
:2034A00042EFBE016F5F7F4F80E00E94022C0F900F900F900F90DF91CF910895E82FF0E080
:2034C000EC55FC4F8081089590E0FC01EE0FFF1F8E0F9F1FFC01EE56FC4F6081718182817D
:2034E000089590E0FC01EE0FFF1F8E0F9F1FFC01E058FC4F60817181828108950F931F9305
:20350000CF93DF93FC01118A108A1282108E6115710509F44CC0442309F449C07583648332
:20352000468380E090E060E070E050E0641775070CF03FC020E030E0C0E0D0E0A481B58185
:20354000A80FB91F0C9110E0C017D10764F511960D90BC91A02DA20FB31F0D911C91119773
:20356000689414F8169507951694E1F714960C93A481B581A80FB91F11960D90BC91A02DE9
:20358000A20FB31F0D911C9111970F711127012B31F014961C9114971F5F14961C93219620
:2035A0002B5F3F4FCBCF6F5F7F4F0396BFCF80E001C081E0DF91CF911F910F910895FC015A
:2035C00061157105D9F04423C9F0738B628B80E090E0242F30E0821793076CF46E5F7F4FCA
:2035E000DB0112975C91563020F4138A128A148A05C00196F0CF448B81E0089580E0089503
:20360000FC0182810895FC018FE0878383E0808782E0818712861386148616861586178624
:203620000895DC015096ED91FC9151978181811107C08281833521F481E09381933409F0D7
:2036400080E00895FC0191858085911106C08823C1F18230B1F18DE008958823A1F1823043
:2036600091F192858385A481B58123E0929FA00DB11D112411960D90BC91A02D95E0899F6F
:20368000A00DB11D11242D913C91119721323105A8F0848590E0BC016F5F7F4F14964C91CD
:2036A00050E06417750741F445E0880F991F4A95E1F7281B390B02C020E230E08BE0820F2C
:2036C00008958CE008958BE00895DC011A968C911A971496ED91FC91159793E0899FE00DF8
:2036E000F11D112481E01B962C919081291708F080E00895FC0180852485811117C082E8F4
:20370000820F823088F1928583850480F581E02D33E0939FE00DF11D11240180F281E02D51
:2037200055E0859FE00DF11D112418C0823021F482E8820F8230C0F042853385848195816A
:20374000FC0153E0459FE00DF11D11240180F281E02D85E0389FE00DF11D112481E0948142
:20376000291718F080E0089581E00895DF92EF92FF920F931F93CF93DF93FC010589083098
:2037800011F411E05CC0C089D1890B3098F11281111102C083E028C08D8184879E8190879F
:2037A000DF80D1868885828729852387933020F084E08C8310E043C09681891710F086E08F
:2037C000F8CF7F01CF0181DF182F811102C087E00BC031E03D1510F485E0EBCFC7018ADFEE
:2037E000182F811103C088E08C8329C0C7012ADF081711F08BE0DDCF81E08C83D7011996CE
:203800008C9119978111BDCF5096ED91FC9151971C968C912285B0E28B9FC0011124820F2B
:20382000911DD7011E969C938E931D9718968C911897813009F0A5CF83851F968C93812F26
:20384000DF91CF911F910F91FF90EF90DF900895FC0192858385A481B58123E0929FA00DD6
:20386000B11D112411960D90BC91A02D95E0899FA00DB11D112481E0458556852D913C9109
:203880004217530708F080E00895FC0192858385A481B58123E0929FA00DB11D112411967E
:2038A0000D90BC91A02D95E0899FA00DB11D112412968C91129713962C91821739F0978552
:2038C000981734F081E0291724F402C081E0089580E00895DC01611112C056968C91569788
:2038E0005096ED91FC915197E80FF11D87EF808356968C9156978F5F56968C9356971396EC
:203900008C911397882329F018968C91189781110FC050966D917C915197ED91FC911197B5
:203920000680F781E02D56964C915697CD0109940895FC0180899189009751F02689DC013A
:20394000A20FB11D6C9386898F5F868B81E0089580E00895CF92DF92EF92FF920F931F93A8
:20396000CF93DF93EC017A01798B688B1E8A80EFFB0180838E898F5F8E8BE889F989E80FF6
:20398000F11D10828E898F5F8E8BE889F989E80FF11D83E580838E898F5F8E8BE889F989F5
:2039A000E80FF11D83E480838E8991E0980F9E8B48895989892F90E0FA01E80FF91F002338
:2039C00019F031E0308301C010828E898F5F8E8BE889F989E80FF11D10828E898F5F8E8B01
:2039E0008701C22ED12CC8018E199F098C159D0534F4F80161918F01CE019BDFF4CF60E008
:203A0000CE01DF91CF911F910F91FF90EF90DF90CF9060CF2F923F924F925F926F927F9236
:203A20008F929F92AF92BF92CF92DF92EF92FF920F931F93CF93DF9300D000D0CDB7DEB7DD
:203A40007C01DC015696BC91BC83FC019085892F8D7FC9F5248582E8820F8230D8F4328527
:203A600083850480F581E02D43E0349FE00DF11D11240180F281E02DA5E08A9FE00DF11D67
:203A800011248481B1E0BA832E3709F01A82E1E0EB8303C01B821A8281E09230B9F4D70151
:203AA0005096ED91FC91519714825096ED91FC91519791E0968318961C92189755969C9111
:203AC00091509C8303C01B821A8281E0812C912C66246394712CC12CD12C282E312C8214CE
:203AE00093040CF0DBC02C81F701268B3B81332329F084860088F189E02D8582D701199670
:203B00008C911997813011F51C96CC90B0E2CB9E60011124F701928583850480F581E02D64
:203B200023E0929FE00DF11D11240180F281E02D35E0839FE00DF11D112480819181D601CF
:203B400090963D018A179B0708F43C015601A614B70408F09CC0F70190858185911140C0B0
:203B6000811114C0C70174DE882309F43FC01982F701258536850190F081E02D0190F08115
:203B8000E02D8E010F5F1F4FD7010CC01982D7010190F081E02D0190F081E02D8E010F5F7B
:203BA0001F4F95011B964C911B971A966C91C7010995F7019789992329F00088F189E02DB2
:203BC00094830CC0811106C00088F189E02D8EE0848304C06981C701ACDE55C080E07AC077
:203BE000811124C0C70134DE811107C0D7015096ED91FC91519799E044C0C70146DE811170
:203C000007C0D7015096ED91FC9151979AE039C0F701258536850190F081E02D0280F38157
:203C2000E02DD7011F960C911F971AC0D701408851888A2D8C19F201E80FF11D02851F96B4
:203C40000C93C70122DE811103C09AE0F20119C0D701ED91FC9111970280F381E02D95013E
:203C60001B964C911B971A966C91C701099581110AC0F70197890088F189E02D911101C00B
:203C80009CE0948327C0FFEFAF1ABF0A60CF60E0C70120DE2FEF821A920A21CF3A8133239E
:203CA000C1F0D70156961C9260EFC70142DE60E0C7013FDE63E5C7013CDE63E4C70139DE35
:203CC00061E0C70136DE6EE7C70133DE60E0C70101DE81E00F900F900F900F90DF91CF9105
:203CE0001F910F91FF90EF90DF90CF90BF90AF909F908F907F906F905F904F903F902F9052
:203D00000895CF93DF93EC01E889F9898681823011F128F4882351F08130A9F02CC08430A5
:203D200091F000F1853039F51B8213C08A81882309F44EC01A8281E084838B81882309F445
:203D40004EC01B824CC081E08A839681943009F48B8381E043C08A818823D1F181E0848314
:203D600061E006C08A81882399F181E0848360E2CE01DFDD34C06C8970E020E030E0261741
:203D800037075CF5A901440F551FAA89BB89A40FB51F9C9189131EC08A81811104C0119676
:203DA0008C91811115C081E084838A899B89DC01A40FB51FE881F9810480F581E02D6C9195
:203DC000CE01099581110BC0E889F9898EE006C083E004C02F5F3F4FD2CF84E0848381E042
:203DE000DF91CF910895FF920F931F93CF93DF93EC011F8A8C819D81892B79F18E81882304
:203E000061F1F42E8B01CE01FEDB198B088BFD8A86E08E8B87E08F1500F5CE0102DC882365
:203E2000E1F0F8018481882319F082E0848310C0CE019CDC882351F08D89883019F4CE01E9
:203E400060DF06C0CE01E6DD811105C0CE01DBDB60E0CE013FDD198A188ADF91CF911F91FF
:203E60000F91FF9008952EEF260F2C3018F4FC01678B08952CE0FC01278B08955F926F92E6
:203E80007F928F929F92AF92BF92CF92DF92EF92FF920F931F93CF93DF9300D000D0CDB7FD
:203EA000DEB77C016B018A01522E3C0186E7680E711CD301ED91FC91309711F1211102C030
:203EC00080EF0995580148018C0C9D1C8A149B0441F0D301ED91FC91D5018D915D010995A5
:203EE000F5CF511005C0D301ED91FC9187EF0995F701EC59FF4F8081882311F03496108251
:203F0000BAE7EB0EF11CF70180819181892B09F4DAC0552019F024E0B22E90C0B12C21E014
:203F200084E0A82E90EF992EF4E0CF16D10458F1D8019C9111968C91222399F0A9829A824B
:203F40009B838C83D701ED91FC91CE01019609950E5F1F4FB2E0CB1AD108BB24B39420E0FC
:203F6000E3CFF8012281A9829A838B832C83D701ED91FC91CE01019609950D5F1F4FB3E09A
:203F8000CB1AD108ECCFE3E0CE16D104F1F4D8019C9111968C911197BB2041F012962C9164
:203FA00034E039839A838B832C8321C024E0298320EF2A839B838C83D701ED91FC91CE012B
:203FC00001960995F80182812DC0B2E0CB16D10409F5F80190818181BB2019F027E02983DA
:203FE00029C024E0298320EF2A839B838C83D701ED91FC91CE0101960995809150039091D3
:204000005103A0915203B091530389839A83AB83BC8353C0CA94CD2809F055C0F80180812B
:20402000BB2029F096E099838A8387EF3AC097E0998390EF9A838B8387EF27C0B4E0CB166E
:20404000D104A0F0F801208191818281B9822A839B838C83D701ED91FC91CE010196099550
:204060000D5F1F4FB3E0CB1AD108E8CFE3E0CE16D10469F4D8012C9111969C9111971296CB
:204080008C9137E039832A839B838C8316C0B2E0CB16D10441F4F8019081818126E0298345
:2040A0009A838B8309C0CA94CD2869F4F801808195E099838A831B821C82D701ED91FC91A6
:2040C000CE01019609950F900F900F900F90DF91CF911F910F91FF90EF90DF90CF90BF9015
:2040E000AF909F908F907F906F905F900895FF920F931F93CF93DF93EC01F62E8C010A58E0
:204100001F4FD801ED91FC9181EF0995D801ED91FC918F2D0995FE01EC59FF4F80818823C3
:2041200019F0C859DF4F1882DF91CF911F910F91FF900895677050E1659F90011124642FDC
:204140006F70622BD4CFEF92FF920F931F93CF93DF93EC018B017C0186E7E80EF11CD701D8
:20416000ED91FC9182EF0995D701ED91FC91802F8F770995C801880F892F881F990B919566
:20418000D701ED91FC918F770995FE01EC59FF4F8081882319F0C859DF4F1882DF91CF9198
:2041A0001F910F91FF90EF900895FF920F931F93CF93DF93EC01F62E8C010A581F4FD80104
:2041C000ED91FC9183EF0995D801ED91FC918F2D8F770995FE01EC59FF4F8081882319F039
:2041E000C859DF4F1882DF91CF911F910F91FF900895EF92FF921F93CF93DF9300D000D052
:20420000CDB7DEB76D3F28F46A3F28F4683F19F020C06E3FF0F0162F7C01FC01EA58FF4F8C
:204220000190F081E02D309711F0862F0995F701E658FF4F0190F081E02D309751F019821E
:204240001A821B821C828FE089831A83CE01019609950F900F900F900F90DF91CF911F916F
:20426000FF90EF900895AF92BF92CF92DF92EF92FF920F931F93CF93DF9300D000D0CDB7D1
:20428000DEB77C01162FFC01EA59FF4F8081882321F0003130F40F5F0EC08FEF800F80312D
:2042A00050F0F701EC59FF4F8081882309F44DC0349610824AC017FFF4CF113E08F040C0F7
:2042C0004F77D42E2F77C22E0150012B570186E7A80EB11CD501ED91FC9111973097C9F0B2
:2042E00052978C91882329F014968C91801719F00C93802F0995D501ED91FC918D2D099568
:20430000812F8F7E803C29F0D501ED91FC918C2D0995F701E658FF4F0190F081E02D309779
:20432000A1F0612F70E084E0759567958A95E1F769830A83DB82CC82CE010196099505C0BE
:20434000163F18F0612FC70154DF0F900F900F900F90DF91CF911F910F91FF90EF90DF905C
:20436000CF90BF90AF9008950F93022F242F462F60E979DF0F9108950F93022FFC01ED5825
:20438000FF4F2081213021F4242F462F60E803C0242F462F60E967DF0F9108950F93042F8C
:2043A00020E0462F60EC5FDF0F9108950F93022F242F462F60EB57DF0F9108950F937F73D4
:2043C0009B01220F232F221F330B31956F77042F462F60EE48DF0F9108958C599F4FFC0169
:2043E00060830895FC01442319F0413071F015C08181882391F08058813688F48081681770
:2044000071F081E0613149F40BC083A9882329F08058813620F482A9F2CF80E0089581E063
:204420000895662329F0613031F4FC0183A90895FC018181089580E00895FC01662321F091
:20444000613059F492A901C09081992331F0EA59FF4F8081981B892F08958FEF0895662356
:2044600029F0613031F4FC0184A90895FC018281089580E00895662329F0613031F4FC01B7
:2044800085A90895FC018381089580E00895662321F0613021F4C69608950496089580E0E6
:2044A00090E00895662341F0613051F4FC01EF58FF4F808191810895FC013281238102C007
:2044C00030E020E0832F922F8E32910510F08DE290E008952FEE260F223010F080E00895E6
:2044E000FC01E759FF4F608381E0089567FF0DC08CE0860F823048F0862F8B7F893F29F092
:20450000862F603F20F4807F089580E008950895862F8F7C803849F0603D39F081E0603E87
:2045200031F0603C21F080E0089581E0089508957F928F929F92AF92BF92CF92DF92EF92CD
:20454000FF920F931F93CF93DF931F92CDB7DEB78C0161119DC1FC01EC58FF4F0190F081EA
:20456000E02D309709F49DC21982CE0101960995E82E882309F495C2F98068012FE6C20E90
:20458000D11CD6018D919C91009709F0BAC04801BAE68B0E911CF401F0825801F7E6AF0E79
:2045A000B11CD5017C90672DC801A0DF682FC801AFDF882359F0F7FC09C0F4017082319624
:2045C000F08281E090E0D6018D939C93F401F0806F2DC8018BDFF801E359FF4F813F09F4FE
:2045E00045C008F5803B09F444C048F4803909F440C0803AF1F1803809F040C03AC0803D07
:20460000A9F118F4803C91F139C0803E91F1803FA9F52DE230E031832083D5011C92D8014D
:2046200014968C9332C0883F69F030F4833FF1F000F1863F39F022C08A3F00F18D3F10F091
:204640008E3FE0F0D80111968C9311971C9212961C92129713961C92139781E0D1968C93E1
:20466000D6011D921C92118210821CC222E030E002C023E030E03183208307C0D6011D9278
:204680001C9211821082F50197C0D6012D913C9140815181BA01615071092617370758F15B
:2046A000D80111968C9311978F2D8F70FF24F394F80EAA59BF4F8C91F81AD801FC92A559A3
:2046C000BF4F8C91D80112968C9312974330510539F4A459BF4F8C91D80113968C9303C0E4
:2046E000D80113961C92D6011D921C921182108281E0F8011EC02F5F3F4FD6012D933C9377
:20470000BBC0F7FE34C0BCEFBF1550F0EAEFFE1650F4F7EFFF1679F028EFF21228C003C01B
:20472000AEEFFA1620F1F801F18212821382108281E081ABB7C1D80114964C91403F99F522
:204740009C012F5F3F4FF801E80FF91FF482F801418322833383108281E081ABD6011D9265
:204760001C92E359FF4F1182108236977FC0D801A659BF4F2C91F801E80FF91F203FF1F4E1
:20478000F4825801FDE6AF0EB11CF501808091809401215031098217930708F469C07C9032
:2047A000F0EF7F120FC0F60111821082F801E359FF4F118210823697108273C1E659FF4FD6
:2047C000F082DFCF672DC80191DEF82ED80111968C93682FC8019CDE882359F0872D8F70A7
:2047E0008F5FF801EA59FF4F9081891BF801808302C0D8011C92F801E559FF4F8081F801C8
:204800008283F3E08F16910441F4F801E459FF4F8081D80113968C9302C0F8011382D60104
:204820001D921C92F5011182108281E0D801D1968C93F801E959FF4FB0EBFB16A9F0BF159E
:2048400050F020E9F21681F080EAF81669F0A0E8FA120CC009C0B0EDFB1631F020EEF216B7
:2048600019F080ECF81202C070821CC110821AC10196D6018D939C93F801EB59FF4F808172
:20488000882309F40EC160E0C80152DEE82E0AC1613009F006C16C01BCE7CB0ED11CFC0163
:2048A000E858FF4F0190F081E02DC6010995E82E882309F4F6C0F60180818295807F8039BB
:2048C00009F480C068F58035F1F138F4803209F467C0803409F48CC0E4C0803709F4B0C0E0
:2048E000803809F46FC0803609F0DBC0A8014F585F4FFA0180819181D801A80FB91F98017D
:2049000023583F4FF9012081D6962C93D697980122583F4FF9012081D7962C930296B5C0E6
:20492000803CF1F138F4803A09F44CC0803B09F0B8C048C0803F39F0823F09F443C0803E4F
:2049400009F0AFC03FC0F801E358FF4F2081B8016D597F4FD801273F61F0D3962C93D3975E
:20496000D2961C92D297D4961C92D497D5961C9214C0AF58BF4F8D919C911197A801480F40
:20498000591FFA0126AB01968D939C9380EFD801D3968C93D397D2961C9281E0FB017FC001
:2049A000F801E358FF4F8081D801D3968C93D3978F708F5FD2968C9331968081F80184AB45
:2049C00015AA6AC0D801D3968C93D397F801E358FF4F80818F708F5FF80182ABE258FF4F05
:2049E0008081D4968C9331968081F80185AB54C0F801E358FF4F2081A8014F585F4F203FA8
:204A000019F4DA011D921C92FA0180819181D801A80FB91FD6962C93D697980122583F4FA2
:204A2000F9012081D7962C93D79701581F4FF8012081D8962C930396DA018D939C9331C0FF
:204A4000F801E358FF4F2081A8014F585F4F203F19F4DA011D921C92FA0180819181D801AA
:204A6000A80FB91FD6962C93D697980122583F4FF9012081D7962C93D797980121583F4F99
:204A8000F9012081D8962C930396DA018D939C9380EFF80183AB12AAED59FF4F81E0808341
:204AA00001C0E12C8E2D0F90DF91CF911F910F91FF90EF90DF90CF90BF90AF909F908F90F6
:204AC0007F9008957F928F929F92AF92BF92CF92DF92EF92FF920F931F93CF93DF932223E4
:204AE00009F485C0FC014111F2967C0136E7E30EF11CD701AD90BC906C01BAE7CB0ED11CD0
:204B0000D6018D909C90233089F028F4213059F0223039F06CC0253021F028F0263031F057
:204B200066C0D60101C0D7011D921C92742EEC01618180E8860F813660F40081DE01A759A9
:204B4000BF4F8C91081709F442C0813109F04BC03EC0663F21F1D0F4613F71F178F4603FD0
:204B600079F5642FCE0193DC8C01672DCE019ADC21E0A801BC01CE0181D922C0623F91F0FC
:204B8000633FF1F46281CE0110DB1AC06D3F28F46A3F28F4683F19F013C06E3F88F0CE0113
:204BA00028DB0EC06381B0E86B9FB00111248281682BCE01C8DA04C043816281CE01BADAE3
:204BC000F701B182A082D6018D929C9210C02130B8F3243028F423814281CE0144DBF0CF14
:204BE0002730C8F3EDCF2150233050F7F4CFDF91CF911F910F91FF90EF90DF90CF90BF90CE
:204C0000AF909F908F907F900895CF92DF92EF92FF920F931F93CF93DF936C0129E6C20E03
:204C2000D11CF6012081223111F480E022C0662331F0613059F4FC01E858FF4F03C0FC0182
:204C4000EC58FF4F20813181232B79F3F42E162FEC016EDC882349F3F601E080412F6E2DCE
:204C6000CE01C0DB082F2F2D412F6E2DCE012ADF802FDF91CF911F910F91FF90EF90DF9008
:204C8000CF9008958D589F4FFC01608308958A599F4FFC016083089588589F4FFC017183BB
:204CA0006083089586589F4FFC017183608308958F929F92AF92BF92CF92DF92EF92FF926F
:204CC0000F931F93CF93DF93DC0111961D921D921D921C9214976115710509F425C144238C
:204CE00009F422C150967C936E931F974C9365E070E080E090E02C9130E0821793070CF0E8
:204D000015C15B0115E0A11AB108812C912C40E050E01F96CD91DC9150979E012A0D3B1DA9
:204D2000F9011281E12E012E000CFF08238134814E155F050CF075C04115510521F4F90189
:204D40001086178268C0E901C80DD91DFE013997F280EFEFE40F19E0E19FF001112411E0A5
:204D6000F11681F1F11668F012E0F116A1F113E0F11242C0E20FF31F20813181220F331FFF
:204D800043C0E20FF31F20813181690117E0C122DD24EE24E394F12CCD2811F4E12CF12CAB
:204DA00037FF02C0295F3F4F03E0359527950A95E1F7E20EF31E27813085E20EF31EF88628
:204DC000EF8229C0E20FF31FE080F180278130852E0D3F1D1EC0E20FF31F20813181790103
:204DE00037FF03C01FEFE11AF10AF594E794217033272E0D3F1D08C0E20FF31F2081318112
:204E0000220F331F220F331F0780F085E02D2E0F3F1F38872F834F5F5F4F29E0820E911CD5
:204E200078CFEFEFE10FA90119E0E19F400D511D1124FA011281408151812781308511308B
:204E4000F1F040F01230E9F0133049F58A01000F111F2AC001E010E0FA01E770FF27EF2B8E
:204E600011F400E010E0020F131F57FF02C0495F5F4FF3E055954795FA95E1F70DC0890155
:204E80000BC08A0101701127020F131F57FF02C04F5F5F4F55954795040F151F07C08A01FD
:204EA000000F111F000F111F020F131F012E000C220B330B009711F4198218824C9150E0AD
:204EC000415051098417950784F41F964D915C915097FA01E60FF71FEA01CA0DDB1D488148
:204EE0005981400F511F518340831196CD90DD90ED90FC9014970C0D1D1D2E1D3F1D1196BC
:204F00000D931D932D933C9314976B5F7F4F5596CD90DC905697E12CF12C0C151D052E052E
:204F20003F0510F40196E7CE80E001C081E0DF91CF911F910F91FF90EF90DF90CF90BF9010
:204F4000AF909F908F900895EF92FF920F93CF93DF937C01C0E0D0E0D70155968D919C91C4
:204F60005697C817D90770F4BE0180E090E05396ED91FC91549701E020E030E0A90109957A
:204F80002196EACFDF91CF910F91FF90EF900895FC0161817281838194810895FC018589F3
:204FA00096890895DC015C91651700F51F96ED91FC915097B5E06B9FE00DF11D1124642FF1
:204FC00070E08281082E000C990B6817790774F40380F481E02D89E0489FE00DF11D1124AC
:204FE00081E0408151812417350708F080E00895CF93DF93EC01EF85F88985E0689FE00D42
:20500000F11D1124A381B48189E0489FA00DB11D112417968D919C91189720813181280FC3
:20502000391F8D819E81820F931FDF91CF9108956F927F929F92AF92BF92CF92DF92EF9213
:20504000FF920F931F93CF93DF936C01E62EF42EE901A8DF982E882309F41BC14F2D6E2D22
:20506000C601C6DFD6011F96ED91FC915097B5E0EB9EE00DF11D11240380F481E02D29E0EA
:20508000F29EE00DF11D11242281213009F46AC060F0223009F480C0D6015196ED91FC918D
:2050A0005297233009F4AFC0C3C05E01E3E0B694A794EA95E1F7BB247C01EA0CFB1CF60167
:2050C000808D918DE816F90691F473E0AA0CBB1C7A95E1F7CA19DB09CC0DDD1D9F81878992
:2050E000892341E050E060E070E0A9F531C0C701A0E0B0E0F60161887288980140E0BC016C
:20510000CD01F3010995882309F4C3C0D8018C91F601878B63E0AA0CBB1C6A95E1F7CA197B
:20512000DB09CC0DDD1D8F8190E0A0E0B0E0F801408151816281738184239523A623B723C3
:2051400041E050E060E070E0892B8A2B8B2B19F440E050E0BA01D8014D935D936D937C937F
:20516000139791C07E01E80EF91EB70180E090E0D6015196ED91FC915297980141E0099516
:20518000882309F486C0F80180819181A281B3819927AA27BB2773C07E01F694E794E80E9E
:2051A000F91ED60158968D919C915997E816F90641F457968C9190E0A0E0B0E0C0FF51C04C
:2051C0001AC0C701A0E0B0E0F601A188B288980142E0BC01CD01F5010995882309F459C028
:2051E000D8018C91F601878BC0FF40C08D919D910D90BC91A02D44E0B595A79597958795FC
:205200004A95D1F72EC0CC0FDD1F7E01E80EF91EB70180E090E0980143E009958823C9F14F
:20522000F80180819181A281B381AA27BB2727C0CC0FDD1FCC0FDD1FC80FD91FBE0180E0D5
:2052400090E0980144E0DF91CF911F910F91FF90EF90DF90CF90BF90AF909F907F906F905A
:205260000994F80180839183A283B383F80180819181A281B3818F709927AA27BB2780834E
:205280009183A283B383D6015996FC92EE92589701C0912C892DDF91CF911F910F91FF90F9
:2052A000EF90DF90CF90BF90AF909F907F906F900895CF92DF92EF92FF920F931F93CF939F
:2052C000DF9300D000D0CDB7DEB7CC24CA94DC2C7601C982DA82EB82FC828E010F5F1F4FD9
:2052E000A7DE69817A818B819C810F900F900F900F90DF91CF911F910F91FF90EF90DF9002
:20530000CF9008954F925F926F927F928F929F92AF92BF92CF92DF92EF92FF920F931F9391
:20532000CF93DF93CDB7DEB728970FB6F894DEBF0FBECDBFDC011F968D909C905097811423
:20534000910409F469C1670178018901742E662E5C0128DE882309F45FC1472D662DC501F8
:2053600047DEF401B5E06B9EE00DF11D11240380F481E02D29E0729EE00DF11D1124228154
:20538000223009F490C030F4222359F0213009F46AC042C1233009F4F1C0243009F40EC120
:2053A0003BC1D50155962D913C91569759963C932E935897480163E0969487946A95E1F7A2
:2053C0002C01480C511C612C712C5196ED91FC9152979E012B5F3F4F40E0C301B2010995EE
:2053E000882309F419C1B8E08B9E0019112410E04D815E816F817885F501E00FF11FC0FEDF
:2054000007C087818A019B01082BD901C8010DC0278130E0C90180959095092E000CAA0B3F
:20542000BB0B84239523A623B7238D839E83AF83B8872D813E814F815885D5015396ED91AB
:20544000FC91549700E0C301B2010995882309F4E3C0D5015196ED91FC9152979E012F5FB6
:205460003F4F40E075C0DD24EE24FF242801480E591E612C712CD5015396ED91FC9154973E
:2054800001E0A7019601C301B2010995882309F4C3C0D5015196ED91FC9152979E012F5FCE
:2054A0003F4F41E0AAC0F50125893689318F208F280156944794480E591E612C712C018893
:2054C000F289E02D9E012B5F3F4F42E0C301B2010995882309F4A0C0FFE0CF22DD24EE246B
:2054E000FF248D819E81AF81B88500FF0CC08F709927AA27BB2744E0CC0CDD1CEE1CFF1C98
:205500004A95D1F704C0807F9927AA27BB27C82AD92AEA2AFB2ACD82DE82EF82F8862D8134
:205520003E814F815885D5015396ED91FC91549702E0C301B2010995882309F46DC0D501A8
:205540005196ED91FC9152979E012F5F3F4F42E0C301B2010995882309F45EC081E00D81C9
:205560001E812F81388549815A816B817C81041715072607370709F04FC04FC0EE24FF24A3
:205580002801440C551C480E591E612C712CD5015396ED91FC91549703E0A7019601C3018F
:2055A000B20109958823C1F1D5015196ED91FC9152979E012F5F3F4F43E01FC02801440C56
:2055C000551C440C551C480E591E612C712CD5015396ED91FC91549704E0A7019601C30106
:2055E000B20109958823C1F0D5015196ED91FC9152979E012F5F3F4F44E0C301B201099559
:20560000882351F081E049815A816B817C814C155D056E057F0509F080E028960FB6F8948D
:20562000DEBF0FBECDBFDF91CF911F910F91FF90EF90DF90CF90BF90AF909F908F907F908D
:205640006F905F904F9008952F923F924F925F926F927F928F929F92AF92BF92CF92DF92B4
:20566000EF92FF920F931F93CF93DF93CDB7DEB729970FB6F894DEBF0FBECDBF99878887A1
:205680006F831C821B82212C312CA885B9858C9190E0281639060CF090C01A821982C12C4E
:2056A000D12CA885B9851F96ED91FC9150978B819C81E80FF91F8281082E000C990BC816DC
:2056C000D9060CF071C00380F481E02DA981BA81EA0FFB1F8381882321F0BF81BB2309F466
:2056E0005AC084809580808191819E838D838281823079F028F4882361F0813021F04BC030
:20570000853008F048C0412C512C3201A12CB12C2BC0A12CB12C2401612C712C2BC0A88511
:20572000B9851F96ED91FC9150978B819C81E80FF91F0380F481E02DA981BA81EA0FFB1FCF
:20574000868185017401882321F0E40CF51C061D171D92014C2D622D88859985D3DDBFEF0F
:205760004B1A5B0A6B0A7B0AAD81BE814A165B06B4F211C0ED81FE81AE16BF0664F483016E
:20578000720195014C2D622D88859985BBDDFFEFAF1ABF0AEFCF8FEFC81AD80AA981BA8150
:2057A0001996BA83A9837DCFBFEF2B1A3B0AEB81FC813596FC83EB8368CF29960FB6F89465
:2057C000DEBF0FBECDBFDF91CF911F910F91FF90EF90DF90CF90BF90AF909F908F907F90EC
:2057E0006F905F904F903F902F900895FC01258936896217730720F47683658381E0089561
:2058000080E00895CF93DF93EB01811119C0642FECD1688180E0E9D1698180E0E6D16A8121
:2058200080E0E3D16B8180E0E0D16881898168278A8168278B81682780E0D7D181E001C076
:2058400080E0DF91CF910895AF92BF92CF92DF92EF92FF920F931F93CF93DF931F92CDB7A8
:20586000DEB7882311F080E086C07A018B0186E0C82ED12C91E9A92E95E0B92EBE016F5FA7
:205880007F4F80E010D1882369F18981E0919705E630C0F022E935E04CE855E0DA01F901B9
:2058A00091919F019D93AA16BB06C9F7A1E9B5E0FA019191AF019D93AE16BF06C9F780933D
:2058C000960508C091E09E0F90939705F0E0EF56FA4F808380919705863021F0F1E0CF1AF9
:2058E000D10861F680919705863009F0BCCF80919105982F9D7F913F19F0823F09F0B3CFF2
:20590000F701808380919205309193052091940590919505F80180833183228393833827BC
:20592000232792272091960529139DCF10929705109291051092920510929305109294054C
:205940001092950510929605F7019081923F91F4813049F030F0823051F0833059F480E012
:2059600007C081E001C080E00E94411A03C081E00E94D31881E00F90DF91CF911F910F9110
:20598000FF90EF90DF90CF90BF90AF900895811103C080910C06089580E008951F920F929C
:2059A0000FB60F9211248F9381E080930C068F910F900FBE0F901F901895FC018FB7F8944E
:2059C00013AA12AA15AA14AA10AE8FBF0895811118C010920D068FB7F8941092C000109233
:2059E000C1001092C2001092C5001092C4008FBF8AE995E0E2DF83ED95E0DFDF81E08093A7
:205A00000C060895CF92DF92EF92FF92411134C06B017C0180E0DBDFD701C601B695A79584
:205A200097958795BC01CD0160587B47814E9F4FA70196018CD120FF0AC0213080E13807E6
:205A40004105510524F482E08093C00009C01092C000DA01C901B595A795979587959C0122
:205A6000215031093093C5002093C40086E08093C20088ED8093C100FF90EF90DF90CF901C
:205A80000895FC019FB7F89480AD882319F080E09FBF089581E042A953A924A935A9421702
:205AA0005307A9F7F5CFCF93DF93FB011082882311F080E022C0EB018AE995E0E2DF8111B1
:205AC000F8CF2FB7F894E091CE05F091CF05E656FA4F808188831092D2058091CE059091E5
:205AE000CF0501966091D0057091D1051CD19093CF058093CE052FBF81E0DF91CF91089518
:205B00001F920F920FB60F9211242F933F934F935F936F937F938F939F93AF93BF93EF93B2
:205B2000FF9383ED95E0ADDF81111DC03FB7F8948091070690910806FC01ED52FA4F2081FE
:205B400010920B0601966091090670910A06EBD090930806809307063FBF2093C60081E006
:205B60008093990505C08091C1008F7D8093C100FF91EF91BF91AF919F918F917F916F91FD
:205B80005F914F913F912F910F900FBE0F901F901895FC0180AD811126C0A2A9B3A9AE0F38
:205BA000BF1F6C934FB7F89480AD26A937A9882339F084A995A90196B901B5D095AB84AB16
:205BC00082A993A90196B901AED09C0193AB82AB91E064A975A96217730709F090E090AF50
:205BE0004FBF81E0089580E00895CF93811118C0C62F80910C06882329F083ED95E041DFEF
:205C0000811110C06C2F83ED95E0C3DF8823D1F310920C069091C10090629093C10009C05C
:205C200080E007C09FB7F894C093C60010920C069FBFCF9108951F920F920FB60F92112446
:205C40002F933F934F935F936F937F938F939F93AF93BF93EF93FF936091C60080910D06F1
:205C6000811107C08AE995E094DF882389F081E00DC083ED95E08DDF882351F08091C1000F
:205C800080628093C10081E08093990580939805FF91EF91BF91AF919F918F917F916F918C
:205CA0005F914F913F912F910F900FBE0F901F90189522E3E3EDF5E0DF01822F1D928A9514
:205CC000E9F713AA12AA15AA14AA82E390E097AB86AB10AEEAE9F5E0DF011D922A95E9F712
:205CE00013AA12AA15AA14AA97AB86AB10AE0895DB018F939F935CD0BF91AF91A29F800D26
:205D0000911DA39F900DB29F900D11240895991B79E004C0991F961708F0961B881F7A95A1
:205D2000C9F780950895AA1BBB1B51E107C0AA1FBB1FA617B70710F0A61BB70B881F991F5D
:205D40005A95A9F780959095BC01CD010895A1E21A2EAA1BBB1BFD010DC0AA1FBB1FEE1F71
:205D6000FF1FA217B307E407F50720F0A21BB30BE40BF50B661F771F881F991F1A9469F7A9
:205D800060957095809590959B01AC01BD01CF010895A29FB001B39FC001A39F700D811DF9
:205DA0001124911DB29F700D811D1124911D0895F0DFA59F900DB49F900DA49F800D911DF6
:205DC00011240895EE0FFF1F0590F491E02D0994F999FECF92BD81BDF89A992780B5089502
:205DE000A6E1B0E044E050E033C0A8E1B0E042E050E02EC0262FF999FECF92BD81BDF89A19
:205E0000019700B4021639F01FBA20BD0FB6F894FA9AF99A0FBE08950396272FECDFEADFDA
:205E2000252FE9DF242FE7CF0196272FE4DFE2CF262FF999FECF1FBA92BD81BD20BD0FB620
:205E4000F894FA9AF99A0FBE01960895DC01CB01FC01F999FECF06C0F2BDE1BDF89A31961D
:205E600000B40D9241505040B8F70895F894FFCF0000021A020000020802000005DB0100FD
:205E80000008930100000754010000061E01030001000000000000060001000000010000D9
:205EA000020000000000000000060002000000000000060001007F0000000006000200004A
:205EC0000000000006000000000000000006000000000000000006000200000000000006A8
:205EE000000300000001000006000300000000000006000300FF3F00000006000200000046
:205F0000000000030000000000000000030000000000000000030002000000000000030073
:205F200003000000010000030002000000000000030002000400000000030002000000004A
:205F400000000300000000000000000C00000000000000000C00010000000000000C000118
:205F60000000000100000C0001007F000000000C0002000000000000040000000000000082
:205F800000030002000000000000010003000000000000020001000000000000560142005C
:205FA00043017F01550144014D01650164016D00500103FE0205E50209B8020A8602085E01
:205FC000020254020700000000020000000006000007000600000100030000000006000041
:205FE0007F00060000010006000009000600017F0006000110000600000100060000010061
:2060000006000007000600007F000600007F000600007F000600007F000600007F000600D4
:20602000007F0006000110000300000100030000010003000008000300007F000300011021
:2060400000030002040003000004000300007F0003000001000C000001000C000012000C73
:2060600000007F000C00017F000C00011000040000010003000000000200000000010001EC
:20608000FF00FF000001010000FF00FF01000001020300050A64007F01003F410102040879
:2060A00010204080FF02030406090C12182430000102030405060708090AF07F7F0600F72D
:2060C00005F70000000000009B06C907E205650600000001020304050001020303040405DC
:2060E000050600010203040506030700010203042500002500012500022500032500042584
:1C61000000052B00022B00032B00042B00052B00062B00070001020304057B2AAD
:2078000034C0000057C0000055C0000053C0000051C000004FC000004DC000004BC00000FD
:2078200049C0000047C0000045C0000043C0000041C000003FC000003DC000003BC0000038
:2078400039C0000037C0000082C20000E5C1000031C100002FC000002DC000002BC0000095
:2078600029C0000027C00000E53E11241FBECFEFD8E0DEBFCDBF11E0A0E0B1E0E4EFFEE7AA
:2078800002C005900D92A830B107D9F721E0A8E0B1E001C01D92AF37B207E1F71CE3C5E3EA
:2078A000DCE303C02197FE0107D3C433D107D1F702D01EC3A5CFCF93DF9300D000D0CDB7FF
:2078C000DEB784B78D7F84BF84B7877F84BF0FB6F894A89580916000886180936000109208
:2078E00060000FBE2FEF81EE94E0215080409040E1F700C000008FEF93E0E4D2182F6FEF75
:207900008FEF93E0E7D2E0E0F0E085919491173419F0019609F059C0259A2D9890E080E899
:207920000FB6F89480936100909361000FBE81E085BF12E015BF40E060E076E980E090E037
:20794000EDD019831A821B821C8280E090E00196893EF3E09F0739F0EFE9FFE03197F1F7C0
:2079600000C00000F4CF42EFBE016F5F7F4F80E04BD27894809100018823E1F0BE016F5F54
:207980007F4F80E01CD18823C9F380910801863088F7E82FF0E0EF5FFE4F2081998129139D
:2079A00006C08F5F80930801863021F712D010920801E0CF9CE088E10FB6F894A895809367
:2079C00060000FBE90936000FFCFEE27FF270994A3CFDF92EF92FF920F931F93CF93DF9334
:2079E00000D0CDB7DEB7BE016E5F7F4F80E0E7D08823C9F3BE016F5F7F4F80E0E0D08823B0
:207A0000C9F3098110E0102F00278A81082B0F3F8FEF180719F41092000142C00115E8E70A
:207A20001E0708F03DC083E0F80180935700E89507B600FCFDCFE12CF12CDD24D394BE0113
:207A40006E5F7F4F80E0BBD08823C9F3BE016F5F7F4F80E0B4D08823C9F3F701EE0FFF1F80
:207A6000E00FF11F898190E0982F88272A81822B0C01D0925700E8951124FFEFEF1AFF0A47
:207A800080E4E816F104D9F685E0F80180935700E89507B600FCFDCF81E180935700E895AD
:207AA0000F900F90DF91CF911F910F91FF90EF90DF9008951F920F920FB60F9211248F933F
:207AC00081E080937D018F910F900FBE0F901F901895FC018FB7F89413AA12AA15AA14AA68
:207AE00010AE8FBF0895811118C010927E018FB7F8941092C0001092C1001092C2001092B5
:207B0000C5001092C4008FBF8BE091E0E2DF84E491E0DFDF81E080937D010895CF92DF9257
:207B2000EF92FF92411134C06B017C0180E0DBDFD701C601B695A79597958795BC01CD01F1
:207B400060587B47814E9F4FA701960193D120FF0AC0213080E138074105510524F482E05B
:207B60008093C00009C01092C000DA01C901B595A795979587959C01215031093093C500C4
:207B80002093C40086E08093C20088ED8093C100FF90EF90DF90CF900895FC019FB7F89492
:207BA00080AD882319F080E09FBF089581E042A953A924A935A942175307A9F7F5CFCF931D
:207BC000DF93FB011082882311F080E022C0EB018BE091E0E2DF8111F8CF2FB7F894E091F2
:207BE0003F01F0914001E55FFE4F808188831092430180913F019091400101966091410183
:207C00007091420123D19093400180933F012FBF81E0DF91CF9108951F920F920FB60F9201
:207C200011242F933F934F935F936F937F938F939F93AF93BF93EF93FF9384E491E0ADDF32
:207C400081111DC03FB7F8948091780190917901FC01EC5BFE4F208110927C010196609135
:207C60007A0170917B01F2D090937901809378013FBF2093C60081E080930A0105C0809155
:207C8000C1008F7D8093C100FF91EF91BF91AF919F918F917F916F915F914F913F912F91E3
:207CA0000F900FBE0F901F901895FC0180AD811126C0A2A9B3A9AE0FBF1F6C934FB7F894E8
:207CC00080AD26A937A9882339F084A995A90196B901BCD095AB84AB82A993A90196B90185
:207CE000B5D09C0193AB82AB91E064A975A96217730709F090E090AF4FBF81E0089580E054
:207D00000895CF93811118C0C62F80917D01882329F084E491E041DF811110C06C2F84E454
:207D200091E0C3DF8823D1F310927D019091C10090629093C10009C080E007C09FB7F89417
:207D4000C093C60010927D019FBFCF9108951F920F920FB60F9211242F933F934F935F933A
:207D60006F937F938F939F93AF93BF93EF93FF936091C60080917E01811107C08BE091E077
:207D800094DF882389F081E00DC084E491E08DDF882351F08091C10080628093C10081E004
:207DA00080930A0180930901FF91EF91BF91AF919F918F917F916F915F914F913F912F9128
:207DC0000F900FBE0F901F90189522E3E4E4F1E0DF01822F1D928A95E9F713AA12AA15AA27
:207DE00014AA82E390E097AB86AB10AEEBE0F1E0DF011D922A95E9F713AA12AA15AA14AAFF
:207E000097AB86AB10AE0895CF93DF93EB01811119C0642F76DF688180E073DF698180E09C
:207E200070DF6A8180E06DDF6B8180E06ADF6881898168278A8168278B81682780E061DF70
:207E400081E001C080E0DF91CF910895AA1BBB1B51E107C0AA1FBB1FA617B70710F0A61BC0
:207E6000B70B881F991F5A95A9F780959095BC01CD010895A1E21A2EAA1BBB1BFD010DC0BF
:207E8000AA1FBB1FEE1FFF1FA217B307E407F50720F0A21BB30BE40BF50B661F771F881F7E
:207EA000991F1A9469F760957095809590959B01AC01BD01CF010895EE0FFF1F0590F4911F
:207EC000E02D0994F999FECF92BD81BDF89A992780B50895262FF999FECF1FBA92BD81BDCE
:1C7EE00020BD0FB6F894FA9AF99A0FBE01960895F894FFCF0108040702847200CA
:04000005000078007F
:00000001FF
