:020000040000FA
:200000008BC20000B9C20000B7C20000B5C20000B3C20000B1C20000AFC20000ADC2000060
:20002000ABC20000A9C20000A7C20000A5C20000A3C20000A1C200009FC200009DC2000090
:200040009BC2000099C2000097C2000095C2000093C200000C941A238FC200008DC2000066
:200060008BC200000C94AB390C949F380C94963783C200000C94F3227FC200007DC2000051
:200080007BC2000079C2000077C2000075C200000C94ED390C94E1380C94A5376DC200004E
:2000A0006BC2000069C2000067C2000065C2000063C2000061C200005FC200005DC2000010
:2000C0005BC2000059C2000057C2000055C2000053C2000051C200004FC200004DC2000070
:2000E0004BC200000C9C00004D014A0148014501430141013E013C01390137013401320147
:20010000FA01F201EF01EC01E601E301D801CD010000000000000000C401BB01AF01A701C9
:200120009E0194018B01820178016A015B0156014F01420041230041004723004700462394
:20014000004600450044230044004323004300507265736574004E52504E004D4D432052C0
:2001600065636F7264204F6666004D4D43205265636F7264204F6E004D4D43205061757368
:2001800065004D4D432053746F70004D4D4320506C617900525420537973527374005254E0
:2001A000204153656E730052542053746F7000525420436F6E74696E756500525420537441
:2001C00061727400525420436C6F636B00537973457820436F6E66005069746368204265C5
:2001E0006E64004154004348204154005043004343004E6F7465204F6E004E6F7465204FC7
:2002000066660041726475696E6F204D65676100207F010100000000000000000000065FA0
:200220005F0600000003070000070300147F7F147F7F140000242E6B6B3A120046663018A5
:200240000C666200307A4F5D377A4800000004070300000000001C3E6341000000004163CB
:200260003E1C0000082A3E1C1C3E2A080008083E3E080800000080E0600000000008080898
:200280000808080000000060600000006030180C060301001C3E6349633E1C000040427F04
:2002A0007F40400042637159496F660022634949497F3600181C16537F7F50002F6F494982
:2002C000497931003C7E4B4949783000030371790D070300367F4949497F3600064F4949B9
:2002E000693F1E000000006666000000000080E6660000000000081C366341000024242436
:200300002424240000004163361C0800020301595D0702003E7F415D5D1F1E007C7E0B09AB
:200320000B7E7C00417F7F49497F36001C3E634141632200417F7F41633E1C00417F7F49A9
:200340005D416300417F7F491D0103001C3E6341513372007F7F0808087F7F000000417F2B
:200360007F410000307040417F3F0100417F7F081C776300417F7F41406070007F7F0E1CE8
:200380000E7F7F007F7F060C187F7F003E7F4141417F3E00417F7F49090F06003E7F414109
:2003A000E1FFBE00417F7F09197766000022674D597322000003417F7F4103003F7F4040D9
:2003C000407F3F001F3F6040603F1F003F7F6038607F3F0063771C081C77630000074F782D
:2003E000784F0700476371594D67730000007F7F414100000103060C1830600000004141D4
:200400007F7F0000080C0603060C080080808080808080800000010306040000207454545D
:200420003C784000417F3F44447C3800387C4444446C2800387C44453F7F4000387C5454E2
:20044000545C1800487E7F490903020098BCA4A4F87C0400417F7F08047C78000000447D24
:200460007D4000000060E08080FD7D00417F7F10386C44000000417F7F4000007C7C0C78D3
:200480000C7C7800047C7804047C7800387C4444447C380084FCF8A4243C1800183C24A484
:2004A000F8FC8400447C784C040C0800485C54545474240004043F7F446420003C7C40402A
:2004C0003C7C40001C3C6040603C1C003C7C6038607C3C00446C3810386C44009CBCA0A094
:2004E000A0FC7C00004C64745C4C64000008083E77414100000000EFEF0000000041417796
:200500003E080800020301030203010070784C464C7870006C082F3A11241FBECFEFD1E270
:20052000DEBFCDBF00E00CBF16E0A0E0B2E0E6E9F7E900E00BBF02C007900D92A637B107F9
:20054000D9F72DE0A6E7B6E001C01D92AE30B207E1F712E0CCE8D2E000E006C021970109FC
:20056000802FFE010E948748CA38D10780E00807A9F703D00C94C94B43CD80D4ABD5FECF3B
:20058000FC0180A10895EF92FF920F931F93E12CF12C8701E39425E030E040E065E00E94F5
:2005A00039341F910F91FF90EF900895CF93DF93EC010E9485322E8D3F8D821B930B6C8DFE
:2005C0007D8D621B730B0E943848862FDF91CF910895DF92EF92FF920F931F93CF93DF9327
:2005E000EC01D62EE3DFD816A8F5D8A260E070E0CE010E94AD3647E060E072E0CE010E9435
:200600000F31ED2CF12C00E010E020E030E041E060E0CE010E94393446E065E072E0CE01B9
:200620000E940F316E8D7F8D8C8D9D8D861B970B48A1489F9001499F300D1124620F731F8D
:20064000CE010E94AD36EA8DFB8D309729F08D2D199502C080E001C081E0DF91CF911F913B
:200660000F91FF90EF90DF900895EF92FF920F931F93CF93DF93EC01E62E60E070E00E9453
:20068000AD3647E060E072E0CE010E940F31F12C00E010E021E030E041E060E0CE010E943D
:2006A000393446E065E072E0CE010E940F316E8D7F8D8C8D9D8D861B970B48A1489F900171
:2006C000499F300D1124620F731FCE01DF91CF911F910F91FF90EF900C94AD36CF92DF926B
:2006E000EF92FF92CF93DF93EC0160E070E00E94AD3647E060E072E0CE010E940F3121E0A7
:2007000030E041E060E0CE010E9410346B017C0146E065E072E0CE010E940F316E8D7F8D55
:200720008C8D9D8D861B970B48A1489F9001499F300D1124620F731FCE010E94AD3681E0C0
:20074000CD28CE28CF2809F480E0DF91CF91FF90EF90DF90CF900895FF920F931F93CF93CA
:20076000DF93EC0160E070E00E94AD3647E060E072E0CE010E940F31E0E0F2E080E090E039
:2007800000E010E06281062E000C770B20E030E02617370784F4A381B481A80FB91F129651
:2007A000FC9012974D915C914F0D511D040F151F2F5F3F4FEDCF359609968F33910511F786
:2007C00046E065E072E0CE010E940F316E8D7F8D8C8D9D8D861B970B48A1489F9001499FD5
:2007E000300D1124620F731FCE010E94AD36C80121E0822727E19227DF91CF911F910F91DC
:20080000FF900895CF92DF92EF92FF92CF93DF93EC0160E070E00E94AD3647E060E072E039
:20082000CE010E940F3120E030E040E060E0CE010E9410346B017C0146E065E072E0CE016D
:200840000E940F316E8D7F8D8C8D9D8D861B970B48A1489F9001499F300D1124620F731F6B
:20086000CE010E94AD36CE0177DF21E08C159D0509F020E0822FDF91CF91FF90EF90DF90C4
:20088000CF900895EF92FF920F931F93CF93DF93EC017B0160E070E00E94AD3647E060E03D
:2008A00072E0CE010E940F3100E010E020E030E040E060E0CE010E94393446E065E072E05A
:2008C000CE010E940F316E8D7F8D8C8D9D8D861B970B48A1489F9001499F300D1124620FAE
:2008E000731FCE01DF91CF911F910F91FF90EF900C94AD36FF920F931F93CF93DF93EC0140
:20090000F62E81E0681303C0CE010E945B32CE0123DFBC01CE01B6DF00E010E0CE0146DE61
:2009200090E00817190764F4602FCE0152DE6F2DCE010E94DB35CE0126DE0F5F1F4FEECF99
:2009400060E0CE0146DE60E0CE01DF91CF911F910F91FF908ACE0F931F93CF93DF93EC0139
:2009600060E070E00E94AD3647E060E072E0CE010E940F31182F882309F448C0CE010E9490
:200980007F327D8F6C8F80910502909106029F8F8E8FCE0137DF082F811104C061E0CE0191
:2009A000A9DF34C0CE019ADE882359F160E070E0CE010E94AD3647E060E072E0CE010E9471
:2009C0000F3120E030E041E060E0CE010E94103468A346E065E072E0CE010E940F316E8D3D
:2009E0007F8D8C8D9D8D861B970B48A1489F9001499F300D1124620F731FCE010E94AD3653
:200A000001C018A268A1CE01E4DD102F812FDF91CF911F910F910895FC01738F628F089589
:200A2000462F682F86E796E0EEC7CF93C82F8EE997E00E94A71960E26C0F482F8EE997E047
:200A4000CF910C94F118462F60E3680F8EE997E00C94F118EF920F931F93CF93DF93C82F27
:200A6000EE24E39400E020E0482F60EC89E898E00E945E1E21E030E041E065E085E29BE0EA
:200A80000E941034D62F20E030E041E065E085E29BE00E94103421E04D2F8EEE98E00E941A
:200AA000533E23E030E040E065E085E29BE00E94103421E0672B682B692B09F420E0622F1D
:200AC0008EEE98E00E945B4225E030E040E065E085E29BE00E9410349B01AC01A8EEB3E02F
:200AE0000E947D48AB01BC018EEE98E00E946B4224E030E040E065E085E29BE00E941034A2
:200B000021E0672B682B692B09F420E0622F8EEE98E00E94783A2C2F30E0E12C00E010E0FD
:200B200048E160E08EEE98E00E94C43CDF91CF911F910F91EF9008954F925F926F927F9296
:200B4000AF92BF92CF92DF92EF92FF920F931F93CF93DF93B82E682F85EA9AE00E94A82C1B
:200B6000C82F6B2D85EA9AE00E94C62CD82E6B2D85EA9AE00E94D22CD82F6B2D85EA9AE0BA
:200B80000E94B42CF82EC03C91F148F4C03979F1C03B69F1C03809F0E6C0D0E028C0C83F05
:200BA00009F4CEC0CA3F09F4C7C0C03F09F0DBC06B2D85EA9AE00E94E92CC82F6B2D85EA54
:200BC0009AE00E94DE2C4C2FBC0186E796E0DF91CF911F910F91FF90EF90DF90CF90BF9089
:200BE000AF907F906F905F904F900C948A29E12C0F2D2D2F4D2D6C2F89E898E00E945E1EC6
:200C0000C039F1F058F4C038B9F5EE24E394EF0C0D2F10E02D2D30E040E01AC0C03BF1F018
:200C2000C03C51F5EE24E394EF0C0D2F10E02D2D30E043E060E08EEE98E00E94C43C1EC081
:200C4000EE24E394EF0C0D2F10E02D2D30E041E060E08EEE98E00E94C43C85C00D2F10E012
:200C60002D2D30E0EE24E394EF0C42E060E08EEE98E00E94C43C17C0C03C91F46D2D85E235
:200C80009BE0DF91CF911F910F91FF90EF90DF90CF90BF90AF907F906F905F904F9099CC0E
:200CA000C03B09F060C0A12CB12C4F2C512C612C712CCD2CD12CE12CF12C0D2F10E0950172
:200CC00047E062E085E29BE00E941034672B682B692B51F1950142E062E085E29BE00E946A
:200CE00010346330710581059105F1F4950144E062E085E29BE00E94103464157505860564
:200D0000970591F4950143E062E085E29BE00E9410346C157D058E059F0531F4A8016A2D50
:200D200088EB96E00E94251A8FEFA81AB80A80E1A816B10421F617C089E898E00E94482032
:200D400061E089E898E0DF91CF911F910F91FF90EF90DF90CF90BF90AF907F906F905F90E2
:200D60004F900C94C21CDF91CF911F910F91FF90EF90DF90CF90BF90AF907F906F905F908F
:200D80004F9008950F931F93CF93DF93EC01798368835B834A833D832C831F830E83FC0191
:200DA000389680E2DF011D928A95E9F7B09680E4DF011D928A95E9F7E05CFF4F80E1DF0172
:200DC000982F1D929A95E9F77096DF01982F1D929A95E9F77096DF01982F1D929A95E9F7B8
:200DE0007096DF01982F1D929A95E9F77096DF01982F1D929A95E9F77096DF01982F1D92C1
:200E00009A95E9F7DE01A853BF4FE5E2F4E001900D928A95E1F7FE01E852FF4F8091350448
:200E200090913604A0913704B091380480839183A283B38334968091390490913A04A09154
:200E40003B04B0913C0480839183A283B383DE01A052BF4F86E0EDE3F4E001900D928A9528
:200E6000E1F7E8E4FBE08FEF8193ABE0E835FA07D9F7DF91CF911F910F910895CF930E9427
:200E8000532285E29BE067DD86E796E06CD5789486E796E00E94B0110E948C220E94F82433
:200EA00061E089E898E00E941F2088EB96E00E94161A20E030E040E065E085E29BE00E9473
:200EC0001034672B682B692B09F483C021E030E041E065E085E29BE00E941034C62F20E0A1
:200EE00030E041E065E085E29BE00E94103420E04C2F8EEE98E00E94533E882309F469C041
:200F000061E08EEE98E00E94664021E030E040E065E085E29BE00E941034672B682B692B5D
:200F200021F08EEE98E00E94CB3A22E030E040E065E085E29BE00E941034672B682B692B0D
:200F400029F060E08EEE98E00E94973B60E08EEE98E00E9466408EEE98E00E94903A23E0F1
:200F600030E040E065E085E29BE00E94103421E0672B682B692B09F420E0622F8EEE98E0F8
:200F80000E945B4225E030E040E065E085E29BE00E9410349B01AC01A8EEB3E00E947D48F7
:200FA000AB01BC018EEE98E00E946B4224E030E040E065E085E29BE00E94103421E0672BB1
:200FC000682B692B09F420E0622F8EEE98E00E94783A80E195E09093470B8093460B65E11F
:200FE00075E08CE398E00E948A1363E275E08EEC98E00E945A476AE275E085E29BE0CF91C4
:201000000BCD86E796E0BFD48823E9F00E94D820882341F08EE997E00E947D1988EB96E079
:201020000E94841A8CE398E00E94EB1260E089E898E00E94C21C8EEE98E00E9454418EEC9C
:2010400098E00C942C47089540E061E085EA9AE00E94A130882311F081E06EDD23E030E040
:2010600040E060E085E29BE00E941034672B682B692B79F122E030E040E060E085E29BE0D1
:201080000E941034672B682B692BC9F020E030E041E060E085E29BE00E94103461157105D3
:2010A0008105910531F0643071058105910539F0089541E060E085EA9AE00C94A13040E02C
:2010C00060E085EA9AE00E94A130882311F080E033CD0895B9DF95CFCF92DF92EF92FF92EB
:2010E0000F931F93CF93DF931092470B1092460B25E23BE01092250B1092260B1092270B46
:201100001092280B1092290B10922B0B10922A0B88E0E3E4F4E0ACE2BBE001900D928A95FA
:20112000E1F71092350B1092340B8DEB92E29093370B8093360B8DED92E29093390B809307
:20114000380B8DEF9FE090933B0B80933A0B10923C0B90933E0B80933D0B1092400B109251
:201160003F0B1092450B05EA1AE01092090B10920A0B10920B0B1092170B1092160B1092FC
:20118000180B10921A0B1092190B10921C0B10921B0B10921E0B10921D0B1092200B10920A
:2011A0001F0BCEEED8E088E0DE011D928A95E9F71092F7081092F6081092F8081092F90816
:2011C0001092FA081092FB081092FC081092FD081092FE081092FF081092000910920109D1
:2011E00010920209109203091092040980EAE5E0F9E0DF01E82E1D92EA94E9F7E5EAF9E032
:20120000DF011D928A95E9F780E1E5E4FAE0DF01E82E1D92EA94E9F7E5E5FAE0DF01E82E9F
:201220001D92EA94E9F71092650A1092660A1092670A1092680A1092690AFF24F394F09216
:201240006A0A10926B0A93E090936C0A10926D0A10926E0A48E250E05093700A40936F0AC1
:201260004CE0E9E9FAE0DF011D924A95E9F742E040939A0A90939B0A94E090939C0A4093D7
:201280009E0A90939F0A96E09093A00A40E756E05093D4084093D30840914B0450914C047C
:2012A00060914D0470914E044093D5085093D6086093D7087093D80844E1E9EDF8E0DF01C0
:2012C0001D924A95E9F71092ED0843ED58E05093CF084093CE081092D1081092D0081092A7
:2012E000D20869E878E030938A0820938908EBE8F8E0DF01E82E1D92EA94E9F710929B08DF
:2013000010929D0810929C084BE0EFE4F4E0AEE9B8E001900D924A95E1F74BE0EAE5F4E08A
:20132000A9EAB8E001900D924A95E1F74BE0E4EBF8E0DF01E42E1D92EA94E9F71092BF0861
:201340001092C0081092C1081092C208E3ECF8E0DF011D924A95E9F730933D0820933C0858
:2013600010933F0800933E087093410860934008D0934308C093420846E45BE05093450843
:20138000409344081092470810924608A0E2E8E4CE2EE8E0DE2EF6011192AA95E9F7E8E6A8
:2013A000F8E0DF01E82E1D92EA94E9F7E8E7F8E0DF011D928A95E9F7F092880830939F07A2
:2013C00020939E071093A1070093A0077093A3076093A207D093A507C093A4075093A70749
:2013E0004093A60780E7E8EAF7E0DF011D928A95E9F78FE0E8E1F8E0DF01E82E1D92EA949C
:20140000E9F7E7E2F8E0DF011D928A95E9F7E5E6F4E0A6E3B8E001900D929A95E1F7E8E4FA
:20142000FBE08FEF8193BBE0E835FB07D9F706E41BE02EEE38E045EA5AE065E27BE088EB1E
:2014400096E0A0DC109278061092790610927B0610927A0610927C06109287061092860693
:20146000109289061092880610928A0610928B0610928C0610928D0610928E0610929006CF
:2014800010928F068BE794E0909377068093760685E29BE0909392068093910685EA9AE0D0
:2014A00090939406809393068EE997E0909396068093950688EB96E090939806809397060E
:2014C0008CE398E090939A068093990689E898E090939C0680939B068EEE98E090939E0693
:2014E00080939D0681E080939F06DF91CF911F910F91FF90EF90DF90CF900895CF93DF93B0
:20150000EC0164E0888199810E94302760E0888199810E94302766E088819981DF91CF91E9
:201520000C943027CF93DF93EC0161E0888199810E94302765E7888199810E9430276FE7D8
:20154000888199810E9430276FE5888199810E94302761E0888199810E94302760E0888159
:2015600099810E94302760E088819981DF91CF910C943027FB01642F70E021E0AF01FC01A1
:20158000858D968D0C94D529BC0181E00C949238682F81E00C945139CF93DF931F92CDB7C5
:2015A000DEB7AE014F5F5F4FBC0180E00E94DE36882329F081E09981913F09F080E00F90B1
:2015C000DF91CF9108950F931F93CF93DF9300D01F921F92CDB7DEB78C01AE014B5F5F4F97
:2015E000BE016F5F7F4F81E00E94DE36882351F08D81813F39F441EFBE016F5F7F4F80E0A7
:201600000E94B936AE014B5F5F4FB80180E00E94DE36882351F08D81813F31F443EFB80199
:2016200081E00E94B93601C080E00F900F900F900F900F90DF91CF911F910F91089541EF8F
:20164000BC0180E00C94B9360F931F93CF93DF931F92CDB7DEB78C01AE014F5F5F4FBC0197
:2016600081E00E94DE36882349F04981423F29F0B80181E00E94B93601C080E00F90DF9130
:20168000CF911F910F91089541EFBC0181E00C94B93641EFBC0180E00C94B936FC01828144
:2016A000238130E0220F331F87FF03C02F77216001C02E7720838F77818308959F92AF9261
:2016C000BF92CF92DF92EF92FF920F931F93CF93DF93CDB7DEB728970FB6F894DEBF0FBE1A
:2016E000CDBF6C01F42E580119821A821B821C82623009F4CFC030F46623C9F0613009F4F2
:20170000B3C0FDC0643089F1FC01838D948D643008F46BC0653009F0F2C0E42FF0E0ED573B
:20172000FB4F8E010F5F1F4F408165E0EFC0F1E0F41720F442E0F41631F0ECC08E010F5F59
:201740001F4F60E0E0C02115310531F4FC01838D948D0E94C00223C02130310539F5FC0183
:20176000838D948D0E946E031AC0F1E04F1709F14F1778F044E0F41619F1FC01838D948DE6
:20178000F7E0FF1228C08E010F5F1F4F45E064E05DC0622FFC0185A196A10E94B01D90E0BE
:2017A000A0E0B0E089839A83AB83BC8399249394B2C0622FFC0185A196A10E94ED1DEFCFD8
:2017C000822F0E945D20282F30E08E010F5F1F4F42E064E098C0EF2DF0E0EB57FB4F8E01A2
:2017E0000F5F1F4F408164E091C0F3E04F1790F148E04F1548F4E9E0FE122CC08E010F5F73
:201800001F4F46E063E022C0EF2DF0E0E357FB4F8E010F5F1F4F408163E00E94CF32982EC7
:20182000882309F477C089819A8198878F83CE01059634DFF5E0FF1609F44BC047E0F416D3
:2018400009F447C083E0F8124DC043C00E94CF32982E1CC0EF2DF0E0E357FB4F8E010F5F55
:201860001F4F408163E052C0E42FF0E0E056FB4F8E010F5F1F4F408161E0FC01838D948DE6
:201880000E94CF32982EF4E0FF1245C0992009F441C02DC0E42FF0E0E956FB4F8E010F5FE8
:2018A0001F4F408162E0FC01838D948D0E94CF32982E882379F18F2D8B7F8330A9F48981EB
:2018C0009A8198878F83CE010596E8DEF3E0FF1209C08E8190E0A0E0B0E089839A83AB83F9
:2018E000BC8319C08D81F6CF44E0F4125FCF89819A81AB81BC810196A11DB11DEECF8E01A8
:201900000F5F1F4F4F2DF601838D948D0E94CF32982E01C0912CE12C00E010E020E030E073
:2019200047E060E0F60187A190A50E94C43C992029F08981F501808381E003C0F5011082C9
:2019400080E028960FB6F894DEBF0FBECDBFDF91CF911F910F91FF90EF90DF90CF90BF90D7
:20196000AF909F900895CF93DF93EC0146E069E573E00E9415254BE063E473E0CE01DF91F4
:20198000CF910C947625FC0181A508950F931F93CF93DF93EC01CB01BA01122F41E00E944C
:2019A000FC378D8D9E8D112319F064EC7AE002C060E070E00E94F7308D8D9E8D002319F03C
:2019C00068EC7AE002C060E070E0DF91CF911F910F910C94FD30CF93DF93EC0140E060E0F9
:2019E00076E980E090E00E94FC376CEC7AE08D8D9E8D0E94033169E47BE08D8D9E8DDF91B9
:201A0000CF910C940931BF92CF92DF92EF92FF920F931F93CF93DF9300D0CDB7DEB77C01C9
:201A2000062FB42E0E949725182F882309F440C02FB7F8948091BD0B9091BE0BA091BF0B12
:201A4000B091C00B2FBF670124E0029FC00CD11C1124F60142A553A564A575A5841B950B59
:201A6000A60BB70B853F9140A105B10508F189E489830A83BB82F701658D768D6A5C7F4F45
:201A800001E023E0AE014F5F5F4FC7010E9441272FB7F8948091BD0B9091BE0BA091BF0B55
:201AA000B091C00B2FBFF60182A793A7A4A7B5A7812F0F900F900F90DF91CF911F910F917E
:201AC000FF90EF90DF90CF90BF900895EF92FF920F931F93CF93DF93CDB7DEB728970FB667
:201AE000F894DEBF0FBECDBF88E0EBE6F4E0DE01119601900D928A95E1F78E010F5F1F4F3F
:201B00007E0189E0E80EF11CF80161918F0181E00E9451390E151F05B9F781E00E948C3715
:201B20008823D9F328960FB6F894DEBF0FBECDBFDF91CF911F910F91FF90EF9008950F93BC
:201B4000CF93DF93EC01623009F1A0F4662309F459C0613009F05FC001E020E042E15AE717
:201B600060E070E013DF61E081E0DF91CF910F910C948437633001F1643009F04CC000E078
:201B800021E040E056E960E070E043C060E081E00E94843741E060E076E980E090E00E9422
:201BA000FC37CE0193DF63EE7AE08D8D9E8D0E9403316FE17BE013C060E081E00E9484376F
:201BC00041E060E076E980E090E00E94FC3764E27BE08D8D9E8D0E94033164E47BE08D8D27
:201BE0009E8D0E94093160E070E08D8D9E8D0E94F73060E070E08D8D9E8DDF91CF910F91FB
:201C00000C94FD30E8DE01E021E042E15AE760E070E0CE01BBDEDF91CF910F9108953F9215
:201C20004F925F926F927F928F929F92AF92BF92CF92DF92EF92FF920F931F93CF93DF93D0
:201C400000D01F92CDB7DEB76C01A42E4901402E623009F40FC330F4662369F0613009F4FE
:201C6000E7C225C3643009F41CC108F4B9C0653009F448C21CC3411154C02130310541F057
:201C800088F022303105F9F023303105B1F043C361E0011101C060E0F601858D968D0E9409
:201CA000842C3BC3FC01858D968D002311F061E001C060E00E94DE3030C301111CC081E0EC
:201CC0000E94BE372AC323E030E040E060E0F601838D948D0E941034672B682B692BA1F1B4
:201CE00061E0011101C060E0F601858D968D0E94F92F411009C001E021E042E15AE760E0FA
:201D000070E0C60143DE09C320E030E041E060E0F601838D948D0E941034633099F564E0DB
:201D200031C0F1E04F1331C02115310579F423E030E040E060E0FC01838D948D0E9410342E
:201D4000672B682B692B39F46CE0EFC02330310508F0E1C2BBC222E030E040E060E0F60198
:201D6000838D948D0E941034672B682B692B61F3F4E0F01708F4B8C2F3E04F1202C034E0E4
:201D8000432E642DC601DBDEC8C242E0A412C3C221153105A9F4FC01838D948D0E94D60229
:201DA00090E0202F002E000C330B281739070CF0BBC0602FF601838D948D0E94E90286C26A
:201DC0002130310509F0A7C241E0401708F4A3C2602F6170FC01838D948D0E94350376C2A1
:201DE000F2E04F1709F440C0FC01838D948D242F30E0F2E04F1708F444C048E04A1508F462
:201E000040C0F901E357FB4FB08094014B2D63E00E9410347C836B83CE0101963FDC65E02B
:201E2000A61631F087E0A81619F093E0A91202C04A8201C0098389819A8180FF02C0906830
:201E400001C09F779A8390E0959587958983E12CF12CF82E8A81E82AFC82EB8200E010E0A4
:201E600094014B2D63E02AC2B901FC0183A194A13FD4E02E000FFF08000B110B940142E001
:201E8000F1CFF9E0AF1201C04A94E42C440CFF08000B110BF901E357FB4F9401408163E0A4
:201EA00010C243E0A41609F4E4C04A1568F061E0A616A9F06A15F8F0402F622FFC0185A1FB
:201EC00096A10E94151E02C285E0A81609F4D1C0A81678F197E0A91208C14A94CAC00111E5
:201EE00002C040E001C045E0682DF60185A196A10E944E1DEBC1F1E02F17B1F02F1720F06A
:201F000042E0241761F007C261E0601708F403C2602FFC0185A196A10E941220E7C1F1E09B
:201F2000F01708F4F8C1E2C16DE0C6010E94CA29F2C1A22E822F0E945D2060E00E945820EC
:201F400040E0682FF60185A196A10E94151E882D0E945D2061E00E94582040E0682FF601C4
:201F600085A196A10E94151E882D0E945D2062E00E94582040E0682FF60185A196A10E9452
:201F8000151E882D0E945D20E02E000FFF08000B110B282F30E042E064E0F601838D948DFA
:201FA0000E943934182F442009F48EC1882309F4B2C1B12C940141E064E0F601838D948D01
:201FC0000E9410342B013C018A2D0E945D206B2D0E945820282F30E08301720141E064E067
:201FE000F601838D948D0E943934882309F493C1940143E064E0F601838D948D0E941034A4
:202000002B013C018A2D0E945D206B2D0E945820282F30E08301720143E064E0F601838D03
:20202000948D0E943934882309F475C1940145E064E0F601838D948D0E9410342B013C011D
:202040008A2D0E945D206B2D0E945820282F30E08301720145E064E0F601838D948D0E9467
:202060003934882309F457C1B394F3E0BF12A2CF2DC1382C882D0E945D20282F30E042E028
:2020800064E0F601838D948D0E941034EA2DF0E0042C000C550866087708672B682B692BC8
:2020A000F9F0912CCF018B579B4F5C01832D0E945D20692D0E945820282F30E083017201A4
:2020C000F501408164E0F601838D948D0E943934882309F420C19394F3E09F12E7CFF6C02E
:2020E000EB57FB4F8301720109C0E02E000FFF08000B110BEA2DF0E0EB57FB4F9401408180
:2021000064E0DCC0442329F0F1E04F1709F463C002C12330310520F42130310548F028C001
:2021200024303105B1F148F125303105F1F1F3C0F1E0F01708F4EFC00023B1F021E030E0C2
:2021400041E065E0FC01838D948D0E941034162F20E030E041E065E0F601838D948D0E9480
:20216000103421E0412F4EC021E043E062E04AC0F1E0F01708F4CFC0C1C041E0401708F4D4
:20218000CAC0602F6170F60187A190A50E945B42B5C0F1E0F01708F4BEC0602F6170F601A4
:2021A00087A190A50E94783AA9C08FEF800F853008F0B1C028EE33E00203A001039F500D0C
:2021C0001124052E000C660B770BF60187A190A50E946B4293C02115310521F0213031059E
:2021E000B9F099C042E0401708F495C021E030E041E065E0FC01838D948D0E941034462F13
:2022000021E0602FF60187A190A50E94533E76C0F3E0F01708F47FC020E030E041E065E0E6
:20222000FC01838D948D0E94103421E0402FEACFF4E04F1301C04A94E42C440CFF08000B1A
:20224000110BEA2DF0E0E056FB4F9401408161E0F601838D948D0E943934882309F45BC06A
:20226000F1E0FA1598F1682DF601878D90A10E94AD192CC0F4E04F1301C04A94E42C440C9B
:20228000FF08000B110BEA2DF0E0E956FB4F9401408162E0F601838D948D0E943934182F8A
:2022A000682DF60181A192A10E94CC190DC0E42C440CFF08000B110B94014A2DF601838D48
:2022C000948D0E943934182F112329F1E12C00E010E020E030E047E060E0F60187A190A591
:2022E0000E94C43C81E026C06AE01FCEE42C440CFF08000B110B940140E002CFE42C440C4A
:20230000FF08000B110BEA2DF0E0ED57FB4F9401408165E0D3CF80E00DC0E42C440CFF0849
:20232000000B110BEA2DF0E0EB55FB4F9401408160E0C4CF0F900F900F900F90DF91CF9190
:202340001F910F91FF90EF90DF90CF90BF90AF909F908F907F906F905F904F903F9008952D
:202360000F93CF93DF93EC0161E18D8D9E8D0E94012D20E030E040E060E08B8D9C8D0E9450
:2023800010348D8D9E8D0E94DE3021E030E040E060E08B8D9C8D0E94103421E0672B682B46
:2023A000692B09F420E0622F8D8D9E8D0E94842C61E08D8D9E8D0E94F230CE010CDB23E061
:2023C00030E040E060E08B8D9C8D0E941034672B682B692B09F441C022E030E040E060E03D
:2023E0008B8D9C8D0E94103421E0672B682B692B09F420E0622F8D8D9E8D0E94F92F22E05D
:2024000030E040E060E08B8D9C8D0E941034672B682B692BB1F020E030E041E060E08B8D42
:202420009C8D0E941034633039F400E021E040E056E960E070E00BC0CE01DF91CF910F91F3
:202440007ECB01E021E042E15AE760E070E0CE019DDADF91CF910F91089581E00E94BE3712
:2024600060E070E08D8D9E8D0E94F73060E070E08D8D9E8DDF91CF910F910C94FD30CF924B
:20248000DF92EF920F931F93CF93DF9300D01F92CDB7DEB76C01162F9C838B839A83898380
:2024A0006535A9F1C8F4643491F148F4623459F1633409F075C0CE01039620D824C06D344C
:2024C00009F449C0603509F06BC0FC01838D948D0E94D602682F4BC0653609F45DC040F40A
:2024E000663561F0643609F05BC0FC0111A65AC06D3609F440C06F3751F052C0CE01039673
:202500000E947E0A4FC0CE0101960CD84BC0F60185A196A10E94DD1F80E090E00196853C13
:20252000F9E09F0739F0EFE9FFE03197F1F700C00000F4CF143439F460E0F601838D948D2C
:202540000E947A0404C0153511F481E001C080E00E94652227C060E70E94302760E1C6016E
:202560000E94302760E1C6010E94302760E1C6010E94302717C020E030E041E060E0FC011B
:20258000838D948D0E941034633061F4C6019EDA63E0C601D4DA06C081E0F60181A702C03D
:2025A00080E00DC0E12C00E010E020E030E047E060E0F60187A190A50E94C43C81E00F90A4
:2025C0000F900F900F90DF91CF911F910F91EF90DF90CF9008959F92AF92BF92CF92DF927F
:2025E000EF92FF920F931F93CF93DF937C010E949521882309F470C06701C0E0D0E05701E4
:202600008CE4A80EB11C9E0140E063E0D7018D919C910E941034672B682B692B09F447C0FF
:202620009C2E8C2F0E9487218C019E0142E063E0F701808191810E941034D5018C918823AB
:20264000B1F00730110574F0093FB3E01B076CF4F601848595859695879515950795080F0D
:20266000191F05C000E010E002C00FEF13E06330A1F0623069F020F08CEF860F8430B8F44B
:20268000012E000C220B330B492DC70147D00FC0A801692DC701A5D20AC0D7011A96ED9122
:2026A000FC911B97309719F0B801892D19952196B2E0CB0ED11CC031D10509F0A4CFDF913C
:2026C000CF911F910F91FF90EF90DF90CF90BF90AF909F900C949821DF91CF911F910F9138
:2026E000FF90EF90DF90CF90BF90AF909F900895DC01A60FB71FDC961C92DC976A5F7F4F12
:20270000660F771FFC01E60FF71F118210829C961C920895FC017387628708952F923F92F5
:202720004F925F926F927F928F929F92AF92BF92CF92DF92EF92FF920F931F93CF93DF93C5
:20274000CDB7DEB76D970FB6F894DEBF0FBECDBF1C016F874D8768017901862F855083300E
:2027600038F01E8626E030E0EFE7AE2EB12C08C021E02E8721E030E0AA24AA947FE3B72E06
:202780004D85842F90E0AC01440F551FB101640F751F7C8F6B8FDB011C968D909C901D9787
:2027A0002401612C712CC414D504E604F70410F012E001C011E0F101E80FF91FFA8BE98B96
:2027C00004AD002399F0101729F0FE85FF2311F0220F331FC6018819990997FF03C09195AA
:2027E000819591098217930708F4E2C1950140E050E029873A874B875C873FEFA31633E051
:20280000B30609F458C04FEFA41643E0B40670F5A701960189849A84AB84BC846FEF861AD9
:20282000960AA60AB60AC501B4010E9410486D837E838F839887A3019201C501B4010E949D
:2028400010482B013C013AE076946794579447943A95D1F78D809E80AF80B8844AE0B69431
:20286000A794979487944A95D1F727C0A701960169857A858B859C850E94104844244A94AC
:2028800023E0522E612C712CA30192010E944C482D833B8B4F8B5D8F9401D5010E946E481F
:2028A000A30192010E944C4829013A018D809B88AF88BD8C02C04601570184149504A6045A
:2028C000B70411F4011174C1CF8AD88EE98EFA8E0F856101A989BA89DC961C93BD85EB2E4C
:2028E000F12C970144E063E0F101808191810E9410346D837E838F8398872D813E81388B7F
:202900002F87970145E063E0D1018D919C910E9410342B013C017A8B698B970143E063E09E
:20292000F101808191810E9410346B8B7C8B8D8B9E8B2B883C88970146E063E0D6018D9101
:202940009C910E941034162FBE85B11122C0EB89FC89FC83EB83CE0101960E944E0B2A8047
:20296000312C2D813E813C832B83CE0101960E944E0B8A81482F50E0588B4F875C824B82A9
:20298000CE0101960E944E0B8A81682F70E07A8B698BE989FA89CF01A0E0B0E02F853889A1
:2029A0002901612C712C411451046104710449F449855A856B857C85481759076A077B07B2
:2029C00091F1BC01CD01641975098609970929853A854B855C85621773078407950798F4FC
:2029E0009B01AC012F5F3F4F4F4F5F4FC501B4010E94104829853A854B855C852F5F3F4F77
:202A00004F4F5F4F08C0A50194010E94104829853A854B855C850E944C4853014201820EF2
:202A2000931EA41EB51E970141E063E0D6018D919C910E941034672B682B692B51F02985A4
:202A40003A854B855C85281939094A095B0949015A01063028F4043030F5023038F0A8C0BA
:202A6000063009F47DC00730F1F0A2C0D60112968D919C911397EE24E394E10E212F482DBB
:202A8000622D01110AC00E946D2C8401910142E061E0F6018681978176C00E944B2C84012C
:202AA000910141E06AC03C822B82CE0101960E944E0B0730C1F0212F498163E6F601828128
:202AC00093810E946D2C212F4A8162E6D60112968D919C9113970E946D2C043021F4212FFC
:202AE000482D66E02CC0FA802F2C312C9C828B82CE0101960E944E0B0730A1F4F0E62F168A
:202B0000310408F042C0212F49816F2DD60112968D919C9113970E946D2C60E26F0D212F13
:202B20004A810DC0212F498166E0D60112968D919C9113970E946D2C212F4A8166E2F60194
:202B4000828193810E946D2CEE24E394E10EC401073011F442E001C047E18C0191010DC0B3
:202B6000412FB401F601828193810E94752CEE24E394E10E8401910146E061E0D601169666
:202B80008D919C9117970E94C43CD6011896ED91FC9119970190F081E02D309719F06D8589
:202BA00083E019952F89388DEB8DFC8D358724876D960FB6F894DEBF0FBECDBFDF91CF9105
:202BC0001F910F91FF90EF90DF90CF90BF90AF909F908F907F906F905F904F903F902F9083
:202BE00008954F925F926F927F928F929F92AF92BF92CF92DF92EF92FF920F931F93CF93D6
:202C0000DF93EC01F62E5A01CA01A0E0B0E088329105A105B10558F0853521E09207A1050D
:202C2000B10548F084E591E0A0E0B0E004C088E290E0A0E0B0E08897A109B109BC01CD0100
:202C400027E0660F771F881F991F2A95D1F72DE231E040E050E00E944C4829013A01CF2C76
:202C6000D12CFE01EC0DFD1D84A5232B242B252B71F1811166C081E084A7960143E063E08C
:202C8000888199810E941034962E960146E063E0888199810E941034862E262F442D692D4E
:202CA0008A819B810E944B2CEE24E394E80C292D30E0820141E061E08E819F810E94C43C3B
:202CC000EE24E394082D242D492D60E92DC08823C1F114A6960143E063E0888199810E9460
:202CE0001034762E960146E063E0888199810E941034662E262F40E0672D8A819B810E947D
:202D0000532CEE24E394E60C272D30E000E010E040E061E08E819F810E94C43CEE24E394CA
:202D2000062D20E0472D60E88C819D81C7D7E885F9850190F081E02D309719F06F2D83E012
:202D4000199586E0C80ED11CCC0CDD1CCC0DDD1DB982A882DF91CF911F910F91FF90EF9065
:202D6000DF90CF90BF90AF909F908F907F906F905F904F900895AF92BF92CF92DF92EF924B
:202D8000FF920F931F93CF93DF93EC01042F122FA62EB12C950142E061E0888199810E94AA
:202DA0001034F62E950144E061E0888199810E941034D62E950143E061E0888199810E94E4
:202DC0001034C62E133141F4950141E061E0888199810E941034162F5E018AE9A80EB11CA7
:202DE000F501F082002309F41BC1173009F4B8C038F5143048F4123008F088C01123E9F176
:202E0000113009F46DC06EC1FE01E456FF4FAE0148565F4F153009F492C008F0F0C081E0F9
:202E2000808321E066E070E08A819B810E94D529F501208130E0E12C00E010E043E14DC17B
:202E40001B3009F4B8C088F48A819B81193009F49EC008F0A6C068EF0E94902BE12C00E06C
:202E600010E020E030E04CE038C11D3009F4BBC008F4ADC01031E0F035C12D2D4C2D6F2D89
:202E80008A819B810E944B2CEE24E394ED0C0C2D10E02F2D30E041E061E08E819F810E94A8
:202EA000C43CEE24E3940D2D2C2D4F2D60E9FBC01130B1F08D2D90E0FC01E85BF44F208146
:202EC0001E3029F42F3709F40DC12F5F04C012160CF008C121502083FC01E85BF44FF08010
:202EE0004D2D6F2D8A819B810E94652CEE24E3940D2D20E04F2D60EC8C819D81DFD6ED0CFE
:202F00002F2D30E000E010E043E0E7C02D2D4C2D6F2D8A819B810E946D2CEE24E394ED0C58
:202F20000C2D10E02F2D30E042E061E08E819F810E94C43CEE24E3940D2D2C2DB2C082E0D8
:202F4000808321E066E070E08A819B810E94D529F501208130E0E12C00E010E042E1BDC0EC
:202F6000FE01E456FF4F89E08083AE0148565F4F21E066E070E08A819B810E94D529F5010F
:202F8000208130E0E12C00E010E044E1A6C06AEF0E94902BE12C00E010E020E030E04DE048
:202FA0009CC06BEF0E94902BE12C00E010E020E030E04EE092C06CEF8A819B810E94902BB2
:202FC000E12C00E010E020E030E04FE086C06EEF8A819B810E94902BE12C00E010E020E0D1
:202FE00030E040E17AC06FEF8A819B810E94902BE12C00E010E020E030E041E16EC086E0E1
:20300000808321E066E070E08A819B810E94D529F501208130E0E12C00E010E045E15DC088
:20302000133039F1163009F442C011115BC02D2D40E06F2D8A819B810E94532C8A819B811C
:203040000E94E330EE24E394ED0C2F2D30E041E0813009F440E000E010E061E08E819F819E
:203060000E94C43CEE24E3940D2D20E04F2D60E81AC02D2D40E06F2D8A819B810E946D2CD5
:20308000EE24E394ED0C2F2D30E000E010E042E061E08E819F810E94C43CEE24E3940D2D7B
:2030A00020E04F2D60EB8C819D8108D61BC0FE01E456FF4F87E08083AE0148565F4F21E078
:2030C00066E070E08A819B810E94D529F501208130E0E12C00E010E046E161E08E819F8178
:2030E0000E94C43CDF91CF911F910F91FF90EF90DF90CF90BF90AF9008959C01962F96957A
:203100009695969588E0989F60191124E92FF0E0E20FF31FE658FF4F81E090E0A0E0B0E0B4
:2031200004C0880F991FAA1FBB1F6A95D2F7442319F02081822B03C08095908189238083BB
:203140000895262F269526952695820F911DFC01E658FF4F808190E038E0239F601911248B
:2031600002C0959587956A95E2F7817008959C01962F96959695969588E0989F60191124B1
:20318000E92FF0E0E20FF31FE757FF4F81E090E0A0E0B0E004C0880F991FAA1FBB1F6A9522
:2031A000D2F7442319F02081822B03C080959081892380830895262F269526952695820F3C
:2031C000911DFC01E757FF4F808190E038E0239F6019112402C0959587956A95E2F78170EE
:2031E0000895CF92DF92FF920F931F93CF93DF93EC01062FF42EA5DF8F1509F466C04F2D9C
:20320000602FCE017ADFC02ED12C960141E061E0888199810E941034162F603109F444C033
:20322000960140E061E0888199810E941034163038F41430F8F48FEF810F823040F41AC01D
:20324000103118F4173028F015C01131D9F0613089F4FF20A9F0602FCE01ADDF882331F066
:2032600040E0602FCE0183DFF12C04C041E0602FCE017DDF212F4F2D602FCE017CDD14C05B
:20328000113161F4960142E061E0888199810E941034888199810E94E90206C0123121F4C6
:2032A00040E0602FCE016BD0E885F9850190F081E02D309751F0602F81E0DF91CF911F91E3
:2032C0000F91FF90DF90CF901994DF91CF911F910F91FF90DF90CF900895FC01E60FF11D2A
:2032E0009285990F406F492B428781E0403F21F04F3F11F080E0089508950F931F93CF9353
:20330000DF938C01C0E08C2F42D7282F30E040E062E0F801808191810E941034672B682B5A
:20332000692B69F48C2F1CD7D82F482F6C2FC801D4DF882321F04D2F6C2FC80152DFCF5F5E
:20334000C03209F7DF91CF911F910F91089581E0693E734008F480E008951F93CF93DF9384
:20336000EC01162FFC01E60FF11D128640E0C5DE40E0612FCE01DF91CF911F91F8CE08955E
:203380002FB7F8946091BD0B7091BE0B8091BF0B9091C00B2FBF08950F931F93CF93DF93BE
:2033A0008C01C62FD0E09E0142E062E0FC01808191810E9410349E012C5F3F4F653071051F
:2033C0008105910559F4C901880F991FF801E80FF91F80E090E29183808308C0C901880F51
:2033E000991FF801E80FF91F11821082FE013A96EE0FFF1FEE0FFF1FE00FF11F10821182BF
:2034000012821382C8018C0F9D1FFC01E859FF4F1082B09610827096108270961082709637
:203420001082DF91CF911F910F9108950F931F93CF938C01C0E06C2FC801AEDFCF5FC0314A
:20344000D1F7CF911F910F910895860F911D860F911DFC01518740870895CF92DF92EF9245
:20346000FF920F931F93CF93FC01262F30E08C01020F131FD801A855BF4F8C914370982F58
:20348000990F990F492B942F90689C9387FD02C080E032C04F70DF01A40FB11DA853BF4FBD
:2034A0008C91D801A854BF4F9C91C82FC90FCC9345E062E0808191810E9410342C2FCC0F1B
:2034C000330B37FF03C03195219531096901330FEE08FF08C616D706E806F906CCF2F801F9
:2034E000E854FF4F8081181614F082E001C081E0F801E854FF4F1082CF911F910F91FF9037
:20350000EF90DF90CF9008952F923F924F925F926F927F928F929F92AF92BF92CF92DF9295
:20352000EF92FF920F931F93CF93DF9300D01F92CDB7DEB76C015C0148E6A40EB11C2C0113
:203540003C01812C912C940140E062E0D6018D919C910E941034672B682B692B09F4C4C18A
:20356000882D17D6482F682DC60177DF382E08DFF20100A511A522A533A5DC01CB01801B02
:20358000910BA20BB30BC397A105B10530F0D501D0961C92D09790961C92332009F4A4C174
:2035A000940141E062E0F601808191810E941034672B682B692B41F0F1E03F1619F03324B3
:2035C000339402C032E0332ED501D0968C91D097843081F050968C915097381611F0D0966B
:2035E0001C92F50180A98F5F843011F080AB02C010AA30A2940146E062E0F60180819181DB
:203600000E941034162F662351F1BADED20198962D913D914D915C919B97DC01CB01821B4C
:20362000930BA40BB50BF5018C389105A105B105A8F440819601210F311DF901E852FF4FDD
:20364000808190E03496208130E0840F911D281739070CF4C901D5018C9301C01082D501D6
:2036600050963C928DDEF20160A771A782A793A7D50190968C918111382E940143E062E0AB
:20368000F601808191810E941034F62E940144E062E0D6018D919C910E941034E62E94016A
:2036A00042E062E0F601808191810E941034262ED5018C91811101C081E0B2E02B16E1F017
:2036C0002B1650F0E3E02E1609F446C09BEF920D943008F0FCC03CC0822D90E0FC01EE0FA9
:2036E000FF1FE80FF91FEC0DFD1DE30DF11DE052FF4F008110E049C0EE2DF0E041E0DF01A6
:20370000A85BB44F8C91341204C08F3741F08F5F03C0181624F481508C9381E001C080E01C
:20372000E85BF44F6081062F062E000C110B882309F4CDC04E2DD60112968D919C9113976D
:203740000E94652CE3942F2D2F7730E043E02EC055E0251609F4DAC099EF920D923008F4B0
:20376000D5C061E03612DFC0D30118962D913C911997F901E81BF109F7FDCFC01996FC9317
:20378000EE931897F30100851185F5E02F1213C04E2DB801D60112968D919C9113970E94B7
:2037A000752CE3942F2D2F7730E046E061E0F6018481958178C08AEF820D833008F05DC05E
:2037C0008F2D90E09C838B83CE0101960E944E0B2E2D498163E6D60112968D919C9113974D
:2037E0000E946D2C2E2D4A8162E6F601828193810E946D2CF6E02F1209C02E2D402F66E0E7
:20380000D60112968D919C9113972DC0FA801C830B83CE0101960E944E0BB8E02B1213C097
:20382000EFE5EF1508F497C02E2D49816F2DD60112968D919C9113970E946D2C2E2D4A81C7
:2038400060E26F0D0DC02E2D498166E0D60112968D919C9113970E946D2C2E2D4A8166E255
:20386000F601828193810E946D2CE3942F2D30E0F8E02F1689F047E110C0B4E02B16B1F018
:203880002E2D402F6F2DF601828193810E946D2CE3942F2D2F7730E042E061E0D60114960C
:2038A0008D919C9115970E94C43C11C0F601808191810E94C002F2E03F1611F06FEF01C0E9
:2038C00061E0680FD6018D919C910E94E902D6011696ED91FC9117970190F081E02D30976F
:2038E00019F0682D82E01995BFEF8B1A9B0AEFEFAE1ABE0AF4E04F0E511C42E0640E711CF5
:2039000050E18516910409F01ECE25C0823018F0880F880F19C081E017C0D30119961C9252
:203920001E9218972FCF4FE750E0F30120853185B901680F711D461757071CF07187608710
:2039400021CF518740871ECF71E0371609F40CCF4FEF5FE3EACF0F900F900F900F90DF9150
:20396000CF911F910F91FF90EF90DF90CF90BF90AF909F908F907F906F905F904F903F9034
:203980002F900895CF92DF92FF920F931F93CF93DF93DC0153968D919C915497892B09F493
:2039A00075C052968C915297882319F08130B9F16DC08FB7F8944091BD0B5091BE0B6091A2
:2039C000BF0B7091C00B8FBFD6960D911D912D913C91D997401B510B620B730B44365105DE
:2039E0006105710508F452C08FB7F8944091BD0B5091BE0B6091BF0B7091C00B8FBFD69687
:203A00004D935D936D937C93D99753964D915C915497FD0120E030E0FF24F39420C06111AE
:203A2000F4CF34C092AD9F2592AF13A688E5C82E8BE0D82EBD01E601888181FD19C0DFEF2B
:203A4000CD1ADD0A6F5F7F4F88E6C8168BE0D80691F72F5F3F4F31962B303105B9F083A59A
:203A60008F5F83A7EA019991AE018917D8F6F1CFEB010A8110E00217130709F7992311F0E5
:203A8000846001C08B7FE6018883D9CFDF91CF911F910F91FF90DF90CF900895DF92EF92D1
:203AA000FF920F931F93CF93DF9300D0CDB7DEB77C01062F142F862F00D3D82E282F30E07A
:203AC00042E064E0F701808191810E941034672B682B692B71F060E08D2DEAD2898361E072
:203AE0008D2DE6D28A8362E08D2DE2D28B8343E004C009830A830B8341E0BE016F5F7F4F7F
:203B00009B0150E0D701A00FB11D1296C901861B970B84179507CCF4F9018081E82FF0E0F6
:203B2000E85AF44F8081112311F0866009C0982F9D7F908380FF03C09460908302C0897F12
:203B400080831C932F5F3F4FE1CF0F900F900F90DF91CF911F910F91FF90EF90DF900895D0
:203B60001F93CF93DF93E62FF0E0E85AF44F808180FF2CC083FF2CC0862F9FD2182F60E0CE
:203B800097D2E82FF0E0E85AF44FD08161E0812F8FD2E82FF0E0E85AF44FC08162E0812F0E
:203BA00087D2E82FD6FB882780F9C5FB992790F9880FC82FC92BF0E0E85AF44F808184FB3C
:203BC000992790F98C2F880F892B03C080E001C081E0DF91CF911F910895E62FF0E0E85A0D
:203BE000F44F80818695817008950F93E62FF0E0E85AF44F80814423A1F080FD80E02223B1
:203C000039F0013051F038F0023049F08D600AC0877F856007C08D6105C08D6203C08D64B7
:203C200001C080E080830F910895DF92EF92FF920F931F93CF93DF93EC01F62E142F862F6F
:203C40003CD2082F282F30E042E064E0888199810E941034672B682B692BF9F060E0802FB8
:203C600027D2D82E61E0802F23D2E82E62E0802F1FD2F82E00E020E0412F41706D2DCE01D8
:203C8000B4DF41E011FF40E000E020E06E2DCE01ACDF41E012FD05C003C041E0111101C0AF
:203CA00040E000E020E06F2DCE019FDFDF91CF911F910F91FF90EF90DF9008952F923F924F
:203CC0004F925F926F927F928F929F92AF92BF92CF92DF92EF92FF920F931F93CF93DF9310
:203CE000CDB7DEB72F970FB6F894DEBF0FBECDBF5C01162FF22E242F22952F702D833F2C18
:203D000032949FE039228F2D6BE00E941F48982E3AE0381710F48AE0982EC12CD12C802FF7
:203D200090E0A0E0B0E08E839F83A887B987842F90E0A0E0B0E089839A83AB83BC83222452
:203D400023942F0C2F2D30E040E050E02A873B874C875D87012F0F7E960145E064E0D501F8
:203D60008D919C910E9410342E813F8148855985621773078407950709F0EEC0960143E07D
:203D800064E0D5018D919C910E941034EE2041F16530A9F040F4613059F0633009F04AC0C6
:203DA000E1E0EE8735C0663069F0683091F042C01039F1F1B1E0BE871038B9F537C0F1E00F
:203DC000FE8731C00038B1F581E08F8791E09E8744C0103B79F5A1E0AF87B1E0BE873DC03B
:203DE0006430F9F028F4662341F0623069F022C0663089F0683091F01DC00038E9F021E08C
:203E00002F87103BB9F41EC00038D1F031E03E87103B59F40BC0003869F416C0103B51F4E9
:203E200018C041E04E87103C09F01E861F8615C01F8611C01F8606C01F86E1E0EE870DC0C8
:203E4000F1E0FF871E8609C021E02F8731E03E8704C041E04F8751E05E878C2C8C2D2DD1D1
:203E6000282F30E042E064E0D5018D919C910E9410342B013C01BE85BB2309F444C096014C
:203E800041E064E0F501808191810E94103429813A814B815C81621773078407950769F548
:203EA000103C31F4452846284728F1F07D8020C0452846284728D9F43F85311118C09601FD
:203EC00044E064E0D5018D919C910E941034772473942A853B854C855D85261737074807E5
:203EE000590731F0712C04C07724739401C0732C472D682DC50199DE07C0103C21F440E050
:203F00006C2DC50192DE712C3F85332329F1960141E064E0D5018D919C910E941034298154
:203F20003A814B815C816217730784079507A1F43E85332369F0FF2049F0772039F0422D75
:203F400050E1759E401911244B3018F040E001C0492D682DC501A2DD8FEFC81AD80A90E128
:203F6000C916D10409F0F8CE2F960FB6F894DEBF0FBECDBFDF91CF911F910F91FF90EF9094
:203F8000DF90CF90BF90AF909F908F907F906F905F904F903F902F9008950F931F93CF93BA
:203FA0008C01C0E041E06C2FC8013FDECF5FC031C9F7CF911F910F9108950F931F93CF9350
:203FC0008C01C0E040E06C2FC8012FDECF5FC031C9F7CF911F910F910895CF93DF93EC0136
:203FE000DCDF80E090E00196813D27E0920739F0EFE9FFE03197F1F700C00000F4CFCE015F
:20400000DCDF80E090E00196813DF7E09F0739F0EFE9FFE03197F1F700C00000F4CFDF91C0
:20402000CF910895FC01662319F0613019F00895809601C04596948B838B628B0895CF93F2
:20404000DF93EC01662371F022E030E040E064E0888199810E941034672B682B692B11F0DE
:20406000CE01BBDF20E030E040E064E0888199810E941034CE01D6DFFE01FA96CB5BDF4FF3
:2040800081E08193EC17FD07E1F7DF91CF910895FC01BB96C69621E011922687E817F90765
:2040A000D9F70895E82FF0E0E85AF44F80810895982F990F890F860F08959BEA899F812DF5
:2040C00011248695853008F084E00895EF92FF920F931F93CF930CE61BE0C0E0EE24E39404
:2040E000F12C8C2FDFDF857091E0853009F090E090936B0B8C2FF4D26093680B7093690BAF
:2041000080936A0B80916B0BF80190819817E9F0E091680BF091690B90916A0B882349F0AB
:204120004081970101C0220F9A95EAF7242B20830AC02081A70101C0440F9A95EAF7942F38
:20414000909592239083F8018083CF5F0F5F1F4FC03139F6CF911F910F91FF90EF900895F1
:20416000982F969596959695E92FF0E0EE57F44F208130E048E0949F80191124A90102C041
:20418000559547958A95E2F7CA018170089586950895CF93DF93C82FCC0F8C2FE1DFD82F28
:2041A000DD0F81E08C0FDCDF8D2BDF91CF91089580917F0B882339F12FB7F8948091800BB9
:2041C0008F5F8093800B853011F41092800BA2E8BBE080E090E03091800BFC0144E0349F37
:2041E000E00DF11D1124EA57F44F30813D9301968430910581F780917F0B815080937F0B28
:204200002FBF81E0089580E008958F929F92AF92BF92EF92FF921F93CF93DF9310E0E12C3C
:20422000F12C812C912C54018394C0E0D0E08C2F810F49D2FB0160937C0B70937D0B8093C1
:204240007E0B3297808190E000907E0B02C0959587950A94E2F780FD17C08091810BF7011A
:2042600034E0839FE00DF11D1124EA57F44F2081D501C4010C2E04C0880F991FAA1FBB1F28
:204280000A94D2F7822B18C08091810BF70194E0899FE00DF11D1124EA57F44F9081B50186
:2042A000A4010C2E04C0440F551F661F771F0A94D2F74095842F892380832196C830D10556
:2042C00009F0B5CF8FEFE81AF80A185F103209F0ACCFDF91CF911F91FF90EF90BF90AF9096
:2042E0009F908F90089580917F0B853078F48091810B8F5F8093810B853011F41092810B05
:2043000084DF80917F0B8F5F80937F0B08952FB7F894E82FF0E0EE0FFF1FE656F44F808183
:204320009181118210822FBF08958091BA0B08951092BA0B1092BB0BEAE7F0E080818064F3
:20434000808308958091BC0B833021F08F5F8093BC0B35C01092BC0B209178003091790098
:204360008091BB0BE82FF0E0EE0FFF1FE656F44F40815181240F351F318320838F5F8031D5
:2043800019F08093BB0B05C01092BB0B81E08093BA0B8091BB0B91D1883028F088509091D3
:2043A0007B00986003C090917B00977F90937B0090917C00907F8F70892B80937C00809178
:2043C000BA0B811105C080917A00806480937A0008951FBA10BE1CBC1DBA10926800109226
:2043E0007A0010926E0010926F00109270001092710010927200109273001092C0001092D0
:20440000C8001092D000109230011092C1001092C9001092D100109231011092C200109274
:20442000CA001092D200109232011092BC0012B815B818B81BB81EB811BA14BA10920201BD
:20444000109205011092080110920B0111B814B817B81AB81DB810BA13BA10920101109273
:2044600004011092070110920A010895F89484B7877F84BF809160008061809360001092CC
:2044800060008FE19EE40197F1F700C00000A1DF98E088E10FB6F894A895809360000FBE5B
:2044A00090936000FFCFF89484B7877F84BF0FB6F894A8958091600088618093600010929E
:2044C00060000FBE4FD147D27AC2CF93DF9300D01F92CDB7DEB7882341F08130E1F467E41F
:2044E0008FEF9FE00E94AB4B16C06FEF8FEF9FE00E94AB4B83E089831A821B821C8242EFE7
:20450000BE016F5F7F4F80E00E94B93680E00E948C378823D9F3AADF0F931F938DEF9FE03B
:204520000E94884B41EC5BE060E8772744EE50E060E070E06BBFFA014791579167917691E2
:204540004093C10B5093C20B6093C30B7093C40B01EC1BE020E833276BBFFA01679176910B
:204560008617970731F08DEF9FE00E94A74B81E001C080E01F910F910895CF93DF93DC0130
:20458000CB01E901433028F0433069F40E94884B03C00E947B4B90E0A0E0B0E088839983C3
:2045A000AA83BB8306C00E94834B688379838A839B8381E0DF91CF9108950F93DC01CB012F
:2045C000BA01033030F0033041F4B9010E94A74B07C0622F0E948D4B03C0A9010E949F4B4C
:2045E00081E00F9108951F920F920FB60F9211240BB60F922F933F934F935F936F937F9352
:204600008F939F93AF93BF93EF93FF939BDEFF91EF91BF91AF919F918F917F916F915F9135
:204620004F913F912F910F900BBE0F900FBE0F901F9018951F920F920FB60F9211240BB68D
:204640000F922F933F934F935F936F937F938F939F93AF93BF93EF93FF939091240481E097
:204660008927809324048823A1F08091BD0B9091BE0BA091BF0BB091C00B0196A11DB11D26
:204680008093BD0B9093BE0BA093BF0BB093C00B1DDD29DEFF91EF91BF91AF919F918F9157
:2046A0007F916F915F914F913F912F910F900BBE0F900FBE0F901F901895E82FF0E0E85C90
:2046C000FA4F8081089590E0FC01EE0FFF1F8E0F9F1FFC01E852FB4F60817181828108951C
:2046E00090E0FC01EE0FFF1F8E0F9F1FFC01E855FB4F608171818281089510927C00109220
:204700007A00803269F030F4803171F480917A0084600DC0803441F480917A00866007C07D
:2047200080917A00856003C080917A00876080937A00923041F0933051F0913069F4809121
:204740007C00806407C080917C00806C03C080917C00806880937C0080917A00806880936C
:204760007A000895CF93DF932198299A23982B9AAAE0B1E08C918D7F8C93EBE0F1E0808152
:20478000826080838C91877F8C938081886080838C918F7D8C938081806280838C918F77B5
:2047A0008C938081806880839998A19A57985F9A3998419A3B98439A3D98459A3F98479AD2
:2047C0000E98169A0C98149A0A98129A0898109A2098289A22982A9A8C918E7F8C93808157
:2047E000816080838C918B7F8C938081846080838C918F7E8C938081806180838C918F7B52
:204800008C938081806480839898A09A9A98A29A3898409A3A98429A3C98449A3E98469AF9
:204820000F98179A0D98159A0B98139A0998119AA1E0B1E08C9181608C93E2E0F1E080816D
:204840008E7F80838C9182608C9380818D7F808384E091E0EC0128812160288345E051E02D
:20486000EA0128812E7F2883EC01288122602883EA0188818D7F88836C9A74986D9A759858
:204880009D9AA5986B9A73988C9188608C938081877F80838C9180618C9380818F7E808338
:2048A0008C9180628C9380818F7D80838C9180648C9380818F7B8083249A2C98259A2D9896
:2048C000269A2E98279A2F98809888988198899882988A9883988B9884988C9885988D985C
:2048E00086988E9887988F98A7E0B1E08C918E7F8C93E8E0F1E080818E7F80838C918D7FFA
:204900008C9380818D7F80838C918B7F8C9380818B7F80838C91877F8C938081877F8083C8
:204920008C918F7E8C9380818F7E80838C918F7D8C9380818F7D80838C918F7B8C9380817E
:204940008F7B80838C918F778C9380818F778083DF91CF91089580E891E0CFDE80E0ADDE20
:20496000883028F0885090917B00986003C090917B00977F90937B0090917C00907F8F703D
:20498000892B80937C0083E090E020917A00206420937A0020917A0026FDFCCF20917800E3
:2049A00030917900019789F780917A00886080937A0080917A00806480937A00089514BC3C
:2049C00015BCEEE6F0E010821092800010928100109290001092910084B5826084BD85B590
:2049E000836085BD8CE787BD8081826080830895CF93DF9300D01F92CDB7DEB7882311F03E
:204A0000198202C081E089831A821B821C8242EFBE016F5F7F4F80E00E94B9360F900F903A
:204A20000F900F90DF91CF9108950F931F93CF93DF93FC01118A108A1282108E6115710553
:204A400009F44CC0442309F449C075836483468380E090E060E070E050E0641775070CF0B5
:204A60003FC020E030E0C0E0D0E0A481B581A80FB91F0C9110E0C017D10764F511960D9014
:204A8000BC91A02DA20FB31F0D911C911197689414F8169507951694E1F714960C93A48147
:204AA000B581A80FB91F11960D90BC91A02DA20FB31F0D911C9111970F711127012B31F058
:204AC00014961C9114971F5F14961C9321962B5F3F4FCBCF6F5F7F4F0396BFCF80E001C0B0
:204AE00081E0DF91CF911F910F910895FC0161157105D9F04423C9F0738B628B80E090E00B
:204B0000242F30E0821793076CF46E5F7F4FDB0112975C91563020F4138A128A148A05C05C
:204B20000196F0CF448B81E0089580E00895FC0182810895FC018FE0878383E0808782E076
:204B400081871286138614861686158617860895DC015096ED91FC9151978181811107C000
:204B60008281833521F481E09381933409F080E00895FC0191858085911106C08823C1F156
:204B80008230B1F18DE008958823A1F1823091F192858385A481B58123E0929FA00DB11D1D
:204BA000112411960D90BC91A02D95E0899FA00DB11D11242D913C91119721323105A8F0C1
:204BC000848590E0BC016F5F7F4F14964C9150E06417750741F445E0880F991F4A95E1F7F5
:204BE000281B390B02C020E230E08BE0820F08958CE008958BE00895DC011A968C911A9755
:204C00001496ED91FC91159793E0899FE00DF11D112481E01B962C919081291708F080E0F0
:204C20000895FC0180852485811117C082E8820F823088F1928583850480F581E02D33E064
:204C4000939FE00DF11D11240180F281E02D55E0859FE00DF11D112418C0823021F482E85F
:204C6000820F8230C0F04285338584819581FC0153E0459FE00DF11D11240180F281E02D62
:204C800085E0389FE00DF11D112481E09481291718F080E0089581E00895DF92EF92FF926C
:204CA0000F931F93CF93DF93FC010589083011F411E05CC0C089D1890B3098F112811111DB
:204CC00002C083E028C08D8184879E819087DF80D1868885828729852387933020F084E01D
:204CE0008C8310E043C09681891710F086E0F8CF7F01CF0181DF182F811102C087E00BC051
:204D000031E03D1510F485E0EBCFC7018ADF182F811103C088E08C8329C0C7012ADF0817F0
:204D200011F08BE0DDCF81E08C83D70119968C9119978111BDCF5096ED91FC9151971C96EE
:204D40008C912285B0E28B9FC0011124820F911DD7011E969C938E931D9718968C91189794
:204D6000813009F0A5CF83851F968C93812FDF91CF911F910F91FF90EF90DF900895FC0152
:204D800092858385A481B58123E0929FA00DB11D112411960D90BC91A02D95E0899FA00D0D
:204DA000B11D112481E0458556852D913C914217530708F080E00895FC0192858385A48176
:204DC000B58123E0929FA00DB11D112411960D90BC91A02D95E0899FA00DB11D1124129666
:204DE0008C91129713962C91821739F09785981734F081E0291724F402C081E0089580E0FD
:204E00000895DC01611112C056968C9156975096ED91FC915197E80FF11D87EF808356969B
:204E20008C9156978F5F56968C93569713968C911397882329F018968C91189781110FC073
:204E400050966D917C915197ED91FC9111970680F781E02D56964C915697CD0119940895ED
:204E6000FC0180899189009751F02689DC01A20FB11D6C9386898F5F868B81E0089580E0C4
:204E80000895CF92DF92EF92FF920F931F93CF93DF93EC017A01798B688B1E8A80EFFB01F7
:204EA00080838E898F5F8E8BE889F989E80FF11D10828E898F5F8E8BE889F989E80FF11D31
:204EC00083E580838E898F5F8E8BE889F989E80FF11D83E480838E8991E0980F9E8B4889BE
:204EE0005989892F90E0FA01E80FF91F002319F031E0308301C010828E898F5F8E8BE889CC
:204F0000F989E80FF11D10828E898F5F8E8B8701C22ED12CC8018E199F098C159D0534F462
:204F2000F80161918F01CE019BDFF4CF60E0CE01DF91CF911F910F91FF90EF90DF90CF90DF
:204F400060CF2F923F924F925F926F927F928F929F92AF92BF92CF92DF92EF92FF920F9342
:204F60001F93CF93DF9300D01F92CDB7DEB77C01DC015696BC91BC83FC019085892F8D7F69
:204F8000C9F5248582E8820F8230D8F4328583850480F581E02D43E0349FE00DF11D112445
:204FA0000180F281E02DA5E08A9FE00DF11D11248481B1E0BA832E3709F01A82E1E0EB8316
:204FC00003C01B821A8281E09230B9F4D7015096ED91FC91519714825096ED91FC915197E5
:204FE00091E0968318961C92189755969C9191509C8303C01B821A8281E0812C912C6624B3
:205000006394712CC12CD12C282E312C821493040CF0DBC02C81F701268B3B81332329F01A
:2050200084860088F189E02D8582D70119968C911997813011F51C96CC90B0E2CB9E6001DB
:205040001124F701928583850480F581E02D23E0929FE00DF11D11240180F281E02D35E083
:20506000839FE00DF11D112480819181D60190963D018A179B0708F43C015601A614B70448
:2050800008F09CC0F70190858185911140C0811114C0C70174DE882309F43FC01982F7014D
:2050A000258536850190F081E02D0190F081E02D8E010F5F1F4FD7010CC01982D70101905A
:2050C000F081E02D0190F081E02D8E010F5F1F4F95011B964C911B971A966C91C7011995DF
:2050E000F7019789992329F00088F189E02D94830CC0811106C00088F189E02D8EE08483F5
:2051000004C06981C701ACDE55C080E07AC0811124C0C70134DE811107C0D7015096ED91FB
:20512000FC91519799E044C0C70146DE811107C0D7015096ED91FC9151979AE039C0F7011C
:20514000258536850190F081E02D0280F381E02DD7011F960C911F971AC0D70140885188A5
:205160008A2D8C19F201E80FF11D02851F960C93C70122DE811103C09AE0F20119C0D701C5
:20518000ED91FC9111970280F381E02D95011B964C911B971A966C91C701199581110AC004
:2051A000F70197890088F189E02D911101C09CE0948327C0FFEFAF1ABF0A60CF60E0C70134
:2051C00020DE2FEF821A920A21CF3A813323C1F0D70156961C9260EFC70142DE60E0C70118
:2051E0003FDE63E5C7013CDE63E4C70139DE61E0C70136DE6EE7C70133DE60E0C70101DE10
:2052000081E00F900F900F900F90DF91CF911F910F91FF90EF90DF90CF90BF90AF909F90F8
:205220008F907F906F905F904F903F902F900895CF93DF93EC01E889F9898681823011F1D9
:2052400028F4882351F08130A9F02CC0843091F000F1853039F51B8213C08A81882309F4E4
:205260004EC01A8281E084838B81882309F44EC01B824CC081E08A839681943009F48B835D
:2052800081E043C08A818823D1F181E0848361E006C08A81882399F181E0848360E2CE010A
:2052A000DFDD34C06C8970E020E030E0261737075CF5A901440F551FAA89BB89A40FB51FAE
:2052C0009C9189131EC08A81811104C011968C91811115C081E084838A899B89DC01A40F6C
:2052E000B51FE881F9810480F581E02D6C91CE01199581110BC0E889F9898EE006C083E08F
:2053000004C02F5F3F4FD2CF84E0848381E0DF91CF910895FF920F931F93CF93DF93EC012D
:205320001F8A8C819D81892B79F18E81882361F1F42E8B01CE01FEDB198B088BFD8A86E0F5
:205340008E8B87E08F1500F5CE0102DC8823E1F0F8018481882319F082E0848310C0CE0151
:205360009CDC882351F08D89883019F4CE0160DF06C0CE01E6DD811105C0CE01DBDB60E06C
:20538000CE013FDD198A188ADF91CF911F910F91FF9008952EEF260F2C3018F4FC01678BE8
:2053A00008952CE0FC01278B08955F926F927F928F929F92AF92BF92CF92DF92EF92FF922D
:2053C0000F931F93CF93DF9300D01F92CDB7DEB77C016B018A01522E3C0186E7680E711C6A
:2053E000D301ED91FC91309711F1211102C080EF1995580148018C0C9D1C8A149B0441F093
:20540000D301ED91FC91D5018D915D011995F5CF511005C0D301ED91FC9187EF1995F701C8
:20542000EC59FF4F8081882311F034961082BAE7EB0EF11CF70180819181892B09F4DAC0D3
:20544000552019F024E0B22E90C0B12C21E084E0A82E90EF992EF4E0CF16D10458F1D8018C
:205460009C9111968C91222399F0A9829A829B838C83D701ED91FC91CE01019619950E5F95
:205480001F4FB2E0CB1AD108BB24B39420E0E3CFF8012281A9829A838B832C83D701ED917F
:2054A000FC91CE01019619950D5F1F4FB3E0CB1AD108ECCFE3E0CE16D104F1F4D8019C91FE
:2054C00011968C911197BB2041F012962C9134E039839A838B832C8321C024E0298320EFA5
:2054E0002A839B838C83D701ED91FC91CE0101961995F80182812DC0B2E0CB16D10409F5AC
:20550000F80190818181BB2019F027E0298329C024E0298320EF2A839B838C83D701ED9110
:20552000FC91CE01019619958091730490917404A0917504B091760489839A83AB83BC83AE
:2055400053C0CA94CD2809F055C0F8018081BB2029F096E099838A8387EF3AC097E0998347
:2055600090EF9A838B8387EF27C0B4E0CB16D104A0F0F801208191818281B9822A839B8395
:205580008C83D701ED91FC91CE01019619950D5F1F4FB3E0CB1AD108E8CFE3E0CE16D104A7
:2055A00069F4D8012C9111969C91119712968C9137E039832A839B838C8316C0B2E0CB16C1
:2055C000D10441F4F8019081818126E029839A838B8309C0CA94CD2869F4F801808195E0F0
:2055E00099838A831B821C82D701ED91FC91CE01019619950F900F900F900F90DF91CF9104
:205600001F910F91FF90EF90DF90CF90BF90AF909F908F907F906F905F900895FF920F93B5
:205620001F93CF93DF93EC01F62E8C010A581F4FD801ED91FC9181EF1995D801ED91FC9190
:205640008F2D1995FE01EC59FF4F8081882319F0C859DF4F1882DF91CF911F910F91FF9001
:205660000895677050E1659F90011124642F6F70622BD4CFEF92FF920F931F93CF93DF93DF
:20568000EC018B017C0186E7E80EF11CD701ED91FC9182EF1995D701ED91FC91802F8F770A
:2056A0001995C801880F892F881F990B9195D701ED91FC918F771995FE01EC59FF4F808189
:2056C000882319F0C859DF4F1882DF91CF911F910F91FF90EF900895FF920F931F93CF931B
:2056E000DF93EC01F62E8C010A581F4FD801ED91FC9183EF1995D801ED91FC918F2D8F7720
:205700001995FE01EC59FF4F8081882319F0C859DF4F1882DF91CF911F910F91FF9008955F
:20572000EF92FF921F93CF93DF9300D01F92CDB7DEB76D3F28F46A3F28F4683F19F020C01A
:205740006E3FF0F0162F7C01FC01EA58FF4F0190F081E02D309711F0862F1995F701E658FD
:20576000FF4F0190F081E02D309751F019821A821B821C828FE089831A83CE010196199526
:205780000F900F900F900F90DF91CF911F91FF90EF900895AF92BF92CF92DF92EF92FF92EC
:2057A0000F931F93CF93DF9300D01F92CDB7DEB77C01162FFC01EA59FF4F8081882321F01A
:2057C000003130F40F5F0EC08FEF800F803150F0F701EC59FF4F8081882309F44DC034962F
:2057E00010824AC017FFF4CF113E08F040C04F77D42E2F77C22E0150012B570186E7A80E97
:20580000B11CD501ED91FC9111973097C9F052978C91882329F014968C91801719F00C93E2
:20582000802F1995D501ED91FC918D2D1995812F8F7E803C29F0D501ED91FC918C2D1995E8
:20584000F701E658FF4F0190F081E02D3097A1F0612F70E084E0759567958A95E1F7698330
:205860000A83DB82CC82CE010196199505C0163F18F0612FC70154DF0F900F900F900F90B3
:20588000DF91CF911F910F91FF90EF90DF90CF90BF90AF9008950F93022F242F462F60E9FD
:2058A00079DF0F9108950F93022FFC01ED58FF4F2081213021F4242F462F60E803C0242FC3
:2058C000462F60E967DF0F9108950F93042F20E0462F60EC5FDF0F9108950F93022F242F50
:2058E000462F60EB57DF0F9108950F937F739B01220F232F221F330B31956F77042F462FEF
:2059000060EE48DF0F9108958C599F4FFC0160830895FC01442319F0413071F015C081816F
:20592000882391F08058813688F48081681771F081E0613149F40BC083A9882329F080588C
:20594000813620F482A9F2CF80E0089581E00895662329F0613031F4FC0183A90895FC017A
:205960008181089580E00895FC01662321F0613059F492A901C09081992331F0EA59FF4F9B
:205980008081981B892F08958FEF0895662329F0613031F4FC0184A90895FC018281089527
:2059A00080E00895662329F0613031F4FC0185A90895FC018381089580E00895662321F095
:2059C000613021F4C69608950496089580E090E00895662341F0613051F4FC01EF58FF4F62
:2059E000808191810895FC013281238102C030E020E0832F922F8E32910510F08DE290E029
:205A000008952FEE260F223010F080E00895FC01E759FF4F608381E0089567FF0DC08CE03D
:205A2000860F823048F0862F8B7F893F29F0862F603F20F4807F089580E008950895862FF4
:205A40008F7C803849F0603D39F081E0603E31F0603C21F080E0089581E0089508957F920E
:205A60008F929F92AF92BF92CF92DF92EF92FF920F931F93CF93DF931F92CDB7DEB78C01DF
:205A800061119DC1FC01EC58FF4F0190F081E02D309709F49DC21982CE0101961995E82EB0
:205AA000882309F495C2F98068012FE6C20ED11CD6018D919C91009709F0BAC04801BAE61E
:205AC0008B0E911CF401F0825801F7E6AF0EB11CD5017C90672DC801A0DF682FC801AFDFAD
:205AE000882359F0F7FC09C0F40170823196F08281E090E0D6018D939C93F401F0806F2DDE
:205B0000C8018BDFF801E359FF4F813F09F445C008F5803B09F444C048F4803909F440C062
:205B2000803AF1F1803809F040C03AC0803DA9F118F4803C91F139C0803E91F1803FA9F5E7
:205B40002DE230E031832083D5011C92D80114968C9332C0883F69F030F4833FF1F000F1DF
:205B6000863F39F022C08A3F00F18D3F10F08E3FE0F0D80111968C9311971C9212961C92E7
:205B8000129713961C92139781E0D1968C93D6011D921C92118210821CC222E030E002C069
:205BA00023E030E03183208307C0D6011D921C9211821082F50197C0D6012D913C914081EB
:205BC0005181BA01615071092617370758F1D80111968C9311978F2D8F70FF24F394F80E97
:205BE000AA59BF4F8C91F81AD801FC92A559BF4F8C91D80112968C9312974330510539F496
:205C0000A459BF4F8C91D80113968C9303C0D80113961C92D6011D921C921182108281E00E
:205C2000F8011EC02F5F3F4FD6012D933C93BBC0F7FE34C0BCEFBF1550F0EAEFFE1650F4B7
:205C4000F7EFFF1679F028EFF21228C003C0AEEFFA1620F1F801F18212821382108281E0D4
:205C600081ABB7C1D80114964C91403F99F59C012F5F3F4FF801E80FF91FF482F80141831F
:205C800022833383108281E081ABD6011D921C92E359FF4F1182108236977FC0D801A659C3
:205CA000BF4F2C91F801E80FF91F203FF1F4F4825801FDE6AF0EB11CF501808091809401F5
:205CC000215031098217930708F469C07C90F0EF7F120FC0F60111821082F801E359FF4FD7
:205CE000118210823697108273C1E659FF4FF082DFCF672DC80191DEF82ED80111968C93AE
:205D0000682FC8019CDE882359F0872D8F708F5FF801EA59FF4F9081891BF801808302C017
:205D2000D8011C92F801E559FF4F8081F8018283F3E08F16910441F4F801E459FF4F808191
:205D4000D80113968C9302C0F8011382D6011D921C92F5011182108281E0D801D1968C9343
:205D6000F801E959FF4FB0EBFB16A9F0BF1550F020E9F21681F080EAF81669F0A0E8FA125A
:205D80000CC009C0B0EDFB1631F020EEF21619F080ECF81202C070821CC110821AC1019675
:205DA000D6018D939C93F801EB59FF4F8081882309F40EC160E0C80152DEE82E0AC161300F
:205DC00009F006C16C01BCE7CB0ED11CFC01E858FF4F0190F081E02DC6011995E82E88235D
:205DE00009F4F6C0F60180818295807F803909F480C068F58035F1F138F4803209F467C0F6
:205E0000803409F48CC0E4C0803709F4B0C0803809F46FC0803609F0DBC0A8014F585F4F91
:205E2000FA0180819181D801A80FB91F980123583F4FF9012081D6962C93D6979801225804
:205E40003F4FF9012081D7962C930296B5C0803CF1F138F4803A09F44CC0803B09F0B8C027
:205E600048C0803F39F0823F09F443C0803E09F0AFC03FC0F801E358FF4F2081B8016D59AA
:205E80007F4FD801273F61F0D3962C93D397D2961C92D297D4961C92D497D5961C9214C023
:205EA000AF58BF4F8D919C911197A801480F591FFA0126AB01968D939C9380EFD801D396FF
:205EC0008C93D397D2961C9281E0FB017FC0F801E358FF4F8081D801D3968C93D3978F703A
:205EE0008F5FD2968C9331968081F80184AB15AA6AC0D801D3968C93D397F801E358FF4F07
:205F000080818F708F5FF80182ABE258FF4F8081D4968C9331968081F80185AB54C0F8015D
:205F2000E358FF4F2081A8014F585F4F203F19F4DA011D921C92FA0180819181D801A80FF7
:205F4000B91FD6962C93D697980122583F4FF9012081D7962C93D79701581F4FF80120819A
:205F6000D8962C930396DA018D939C9331C0F801E358FF4F2081A8014F585F4F203F19F4B3
:205F8000DA011D921C92FA0180819181D801A80FB91FD6962C93D697980122583F4FF90120
:205FA0002081D7962C93D797980121583F4FF9012081D8962C930396DA018D939C9380EF0C
:205FC000F80183AB12AAED59FF4F81E0808301C0E12C8E2D0F90DF91CF911F910F91FF900F
:205FE000EF90DF90CF90BF90AF909F908F907F9008958B599F4FFC01608308957F928F924B
:206000009F92AF92BF92CF92DF92EF92FF920F931F93CF93DF93222309F485C0FC014111DB
:20602000F2967C0136E7E30EF11CD701AD90BC906C01BAE7CB0ED11CD6018D909C90233098
:2060400089F028F4213059F0223039F06CC0253021F028F0263031F066C0D60101C0D701DF
:206060001D921C92742EEC01618180E8860F813660F40081DE01A759BF4F8C91081709F4A3
:2060800042C0813109F04BC03EC0663F21F1D0F4613F71F178F4603F79F5642FCE018EDC88
:2060A0008C01672DCE0195DC21E0A801BC01CE017CD922C0623F91F0633FF1F46281CE01B7
:2060C0000BDB1AC06D3F28F46A3F28F4683F19F013C06E3F88F0CE0123DB0EC06381B0E8B4
:2060E0006B9FB00111248281682BCE01C3DA04C043816281CE01B5DAF701B182A082D601C1
:206100008D929C9210C02130B8F3243028F423814281CE013FDBF0CF2730C8F3EDCF2150A8
:20612000233050F7F4CFDF91CF911F910F91FF90EF90DF90CF90BF90AF909F908F907F901B
:206140000895CF92DF92EF92FF920F931F93CF93DF936C0129E6C20ED11CF6012081223172
:2061600011F480E022C0662331F0613059F4FC01E858FF4F03C0FC01EC58FF4F2081318120
:20618000232B79F3F42E162FEC0169DC882349F3F601E080412F6E2DCE01BBDB082F2F2D6B
:2061A000412F6E2DCE012ADF802FDF91CF911F910F91FF90EF90DF90CF9008958D589F4FE1
:2061C000FC01608308958D589F4FFC01808108958F776CE00C942B488F776CE00E942B4808
:2061E000892F08958A599F4FFC01608308958C589F4FFC017183608308958A589F4FFC01EC
:2062000071836083089588589F4FFC0171836083089586589F4FFC017183608308958F926D
:206220009F92AF92BF92CF92DF92EF92FF920F931F93CF93DF93DC0111961D921D921D92FE
:206240001C9214976115710509F425C1442309F422C150967C936E931F974C9365E070E0AF
:2062600080E090E02C9130E0821793070CF015C15B0115E0A11AB108812C912C40E050E0FD
:206280001F96CD91DC9150979E012A0D3B1DF9011281E12E012E000CFF08238134814E15CF
:2062A0005F050CF075C04115510521F4F9011086178268C0E901C80DD91DFE013997F28041
:2062C000EFEFE40F19E0E19FF001112411E0F11681F1F11668F012E0F116A1F113E0F11204
:2062E00042C0E20FF31F20813181220F331F43C0E20FF31F20813181690117E0C122DD2425
:20630000EE24E394F12CCD2811F4E12CF12C37FF02C0295F3F4F03E0359527950A95E1F7C5
:20632000E20EF31E27813085E20EF31EF886EF8229C0E20FF31FE080F180278130852E0DBA
:206340003F1D1EC0E20FF31F20813181790137FF03C01FEFE11AF10AF594E7942170332747
:206360002E0D3F1D08C0E20FF31F20813181220F331F220F331F0780F085E02D2E0F3F1FBE
:2063800038872F834F5F5F4F29E0820E911C78CFEFEFE10FA90119E0E19F400D511D1124C2
:2063A000FA01128140815181278130851130F1F040F01230E9F0133049F58A01000F111FA7
:2063C0002AC001E010E0FA01E770FF27EF2B11F400E010E0020F131F57FF02C0495F5F4FEA
:2063E000F3E055954795FA95E1F70DC089010BC08A0101701127020F131F57FF02C04F5F3E
:206400005F4F55954795040F151F07C08A01000F111F000F111F020F131F012E000C220B46
:20642000330B009711F4198218824C9150E0415051098417950784F41F964D915C9150973F
:20644000FA01E60FF71FEA01CA0DDB1D48815981400F511F518340831196CD90DD90ED9095
:20646000FC9014970C0D1D1D2E1D3F1D11960D931D932D933C9314976B5F7F4F5596CD90DA
:20648000DC905697E12CF12C0C151D052E053F0510F40196E7CE80E001C081E0DF91CF911D
:2064A0001F910F91FF90EF90DF90CF90BF90AF909F908F900895EF92FF920F93CF93DF93AF
:2064C0007C01C0E0D0E0D70155968D919C915697C817D90770F4BE0180E090E05396ED91DB
:2064E000FC91549701E020E030E0A90119952196EACFDF91CF910F91FF90EF900895FC0153
:2065000061817281838194810895FC01858996890895DC015C91651700F51F96ED91FC912E
:206520005097B5E06B9FE00DF11D1124642F70E08281082E000C990B6817790774F40380EF
:20654000F481E02D89E0489FE00DF11D112481E0408151812417350708F080E00895CF9377
:20656000DF93EC01EF85F88985E0689FE00DF11D1124A381B48189E0489FA00DB11D1124D2
:2065800017968D919C91189720813181280F391F8D819E81820F931FDF91CF9108956F9294
:2065A0007F929F92AF92BF92CF92DF92EF92FF920F931F93CF93DF936C01E62EF42EE9016E
:2065C000A8DF982E882309F41BC14F2D6E2DC601C6DFD6011F96ED91FC915097B5E0EB9ECB
:2065E000E00DF11D11240380F481E02D29E0F29EE00DF11D11242281213009F46AC060F032
:20660000223009F480C0D6015196ED91FC915297233009F4AFC0C3C05E01E3E0B694A79450
:20662000EA95E1F7BB247C01EA0CFB1CF601808D918DE816F90691F473E0AA0CBB1C7A9507
:20664000E1F7CA19DB09CC0DDD1D9F818789892341E050E060E070E0A9F531C0C701A0E034
:20666000B0E0F60161887288980140E0BC01CD01F3011995882309F4C3C0D8018C91F601B2
:20668000878B63E0AA0CBB1C6A95E1F7CA19DB09CC0DDD1D8F8190E0A0E0B0E0F80140815D
:2066A00051816281738184239523A623B72341E050E060E070E0892B8A2B8B2B19F440E002
:2066C00050E0BA01D8014D935D936D937C93139791C07E01E80EF91EB70180E090E0D60131
:2066E0005196ED91FC915297980141E01995882309F486C0F80180819181A281B381992746
:20670000AA27BB2773C07E01F694E794E80EF91ED60158968D919C915997E816F90641F4D0
:2067200057968C9190E0A0E0B0E0C0FF51C01AC0C701A0E0B0E0F601A188B288980142E038
:20674000BC01CD01F5011995882309F459C0D8018C91F601878BC0FF40C08D919D910D90A2
:20676000BC91A02D44E0B595A795979587954A95D1F72EC0CC0FDD1F7E01E80EF91EB7015D
:2067800080E090E0980143E019958823C9F1F80180819181A281B381AA27BB2727C0CC0F82
:2067A000DD1FCC0FDD1FC80FD91FBE0180E090E0980144E0DF91CF911F910F91FF90EF90BD
:2067C000DF90CF90BF90AF909F907F906F901994F80180839183A283B383F80180819181FC
:2067E000A281B3818F709927AA27BB2780839183A283B383D6015996FC92EE92589701C0DA
:20680000912C892DDF91CF911F910F91FF90EF90DF90CF90BF90AF909F907F906F900895A1
:20682000CF92DF92EF92FF920F931F93CF93DF9300D01F92CDB7DEB7CC24CA94DC2C7601E5
:20684000C982DA82EB82FC828E010F5F1F4FA7DE69817A818B819C810F900F900F900F902C
:20686000DF91CF911F910F91FF90EF90DF90CF9008954F925F926F927F928F929F92AF9208
:20688000BF92CF92DF92EF92FF920F931F93CF93DF93CDB7DEB728970FB6F894DEBF0FBE08
:2068A000CDBFDC011F968D909C9050978114910409F469C1670178018901742E662E5C013B
:2068C00028DE882309F45FC1472D662DC50147DEF401B5E06B9EE00DF11D11240380F4813D
:2068E000E02D29E0729EE00DF11D11242281223009F490C030F4222359F0213009F46AC0D6
:2069000042C1233009F4F1C0243009F40EC13BC1D50155962D913C91569759963C932E939F
