:020000040000FA
:2000000037C000005CC000005AC0000058C0000056C0000054C0000052C0000050C000004F
:200020004EC000004CC000004AC0000048C0000046C0000044C000000C94871840C000004B
:200040003EC000003CC000000C941C2D0C94962C0C944A2C0C94641832C0000030C0000047
:200060002EC000002CC00000125F000011045E2D11241FBECFEFD8E0DEBFCDBF13E0A0E071
:20008000B1E0E6E6FCE502C005900D92AC3AB107D9F726E0ACEAB3E001C01D92A430B20792
:2000A000E1F710E0C8E3D0E004C02197FE010E94DD2DC633D107C9F703D00C94312EA0CF24
:2000C0007DD2ADD3FECFFC0180A10895CF93DF93EC010E94EA262E8D3F8D821B930B6C8D9B
:2000E0007D8D621B730B0E948E2D862FDF91CF910895DF92EF92FF920F931F93CF93DF93D1
:20010000EC01D62EE3DFD816A8F5D8A260E070E0CE010E94122B46E060E071E0CE010E94C1
:200120007425ED2CF12C00E010E020E030E041E060E0CE010E949E2845E065E071E0CE01EE
:200140000E9474256E8D7F8D8C8D9D8D861B970B48A1489F9001499F300D1124620F731F19
:20016000CE010E94122BEA8DFB8D309729F08D2D099502C080E001C081E0DF91CF911F91D6
:200180000F91FF90EF90DF900895EF92FF920F931F93CF93DF93EC01E62E60E070E00E9438
:2001A000122B46E060E071E0CE010E947425F12C00E010E021E030E041E060E0CE010E9471
:2001C0009E2845E065E071E0CE010E9474256E8D7F8D8C8D9D8D861B970B48A1489F9001A6
:2001E000499F300D1124620F731FCE01DF91CF911F910F91FF90EF900C94122BCF92DF92F6
:20020000EF92FF92CF93DF93EC0160E070E00E94122B46E060E071E0CE010E94742521E0DA
:2002200030E041E060E0CE010E9475286B017C0145E065E071E0CE010E9474256E8D7F8D8A
:200240008C8D9D8D861B970B48A1489F9001499F300D1124620F731FCE010E94122B81E04B
:20026000CD28CE28CF2809F480E0DF91CF91FF90EF90DF90CF900895FF920F931F93CF93AF
:20028000DF93EC0160E070E00E94122B46E060E071E0CE010E947425E0E0F1E080E090E06E
:2002A00000E010E06281062E000C770B20E030E02617370784F4A381B481A80FB91F129636
:2002C000FC9012974D915C914F0D511D040F151F2F5F3F4FEDCF359609968633910511F774
:2002E00045E065E071E0CE010E9474256E8D7F8D8C8D9D8D861B970B48A1489F9001499F63
:20030000300D1124620F731FCE010E94122BC80121E0822727E19227DF91CF911F910F9166
:20032000FF900895CF92DF92EF92FF92CF93DF93EC0160E070E00E94122B46E060E071E0C6
:20034000CE010E94742520E030E040E060E0CE010E9475286B017C0145E065E071E0CE01A2
:200360000E9474256E8D7F8D8C8D9D8D861B970B48A1489F9001499F300D1124620F731FF7
:20038000CE010E94122BCE0177DF21E08C159D0509F020E0822FDF91CF91FF90EF90DF904F
:2003A000CF900895EF92FF920F931F93CF93DF93EC017B0160E070E00E94122B46E060E0C9
:2003C00071E0CE010E94742500E010E020E030E040E060E0CE010E949E2845E065E071E090
:2003E000CE010E9474256E8D7F8D8C8D9D8D861B970B48A1489F9001499F300D1124620F3A
:20040000731FCE01DF91CF911F910F91FF90EF900C94122BFF920F931F93CF93DF93EC01CA
:20042000F62E60E070E00E94122B46E060E071E0CE010E94742581E0F81203C0CE010E94C9
:20044000C026CE0119DFBC01CE01ACDF45E065E071E0CE010E9474256E8D7F8D8C8D9D8DC9
:20046000861B970B48A1489F9001499F300D1124620F731FCE010E94122B00E010E0CE012E
:2004800025DE90E00817190754F4602FCE0131DE6F2DCE010E94402A0F5F1F4FF0CF60E0A3
:2004A000CE01DF91CF911F910F91FF9022CE0F931F93CF93DF93EC0160E070E00E94122B4A
:2004C00046E060E071E0CE010E947425182F882309F448C0CE010E94E4267D8F6C8F8091D1
:2004E0000501909106019F8F8E8FCE011BDF082F811104C061E0CE018DDF34C0CE017EDE92
:20050000882359F160E070E0CE010E94122B46E060E071E0CE010E94742520E030E041E0B6
:2005200060E0CE010E94752868A345E065E071E0CE010E9474256E8D7F8D8C8D9D8D861BB2
:20054000970B48A1489F9001499F300D1124620F731FCE010E94122B01C018A268A1CE013A
:20056000C8DD102F812FDF91CF911F910F910895FC01738F628F0895462F682F8CEA93E0A8
:2005800074C7CF93C82F82E394E00E94311066E06C0F482F82E394E0CF910C947B0FEF92EF
:2005A0000F93EE24E39400E020E0482F60EC82E794E00E9469140F91EF9008950E94F81704
:2005C0008DE295E074DF8CEA93E024D778948CEA93E0AFD70E9416180E947D1961E082E7D3
:2005E00094E00E94291688EE93E00E9486108CEB92E090934F0580934E0561EC72E080E5BB
:2006000094E00E94380B6FEC72E08DE295E0B0CF8CEA93E00FD78823A1F00E94E016882323
:2006200041F082E394E00E94071088EE93E00E94DF1080E594E0ADD760E082E794E00C9463
:20064000CC1208954F925F926F927F92AF92BF92CF92DF92EF92FF920F931F93CF93DF939D
:2006600040E061E08DEA94E00E942125882309F4C7C061E08DEA94E00E942D21C82F61E0C3
:200680008DEA94E00E944B21C82E61E08DEA94E00E945721182F61E08DEA94E00E943921B6
:2006A000482EC03C91F148F4C03979F1C03B69F1C03809F0A5C010E028C0C83F09F48DC0D3
:2006C000CA3F09F486C0C03F09F09AC061E08DEA94E00E946E21C82F61E08DEA94E00E945A
:2006E00063214C2FBC018CEA93E0DF91CF911F910F91FF90EF90DF90CF90BF90AF907F90BC
:200700006F905F904F900C940F1EE12C042D212F4C2D6C2F82E794E00E946914C03C91F420
:200720006C2D8DE295E0DF91CF911F910F91FF90EF90DF90CF90BF90AF907F906F905F90B5
:200740004F90D7CCC03B09F05BC0C0E0D0E0512C612C712CD12CE12CF12CA12EB12C9E019F
:2007600047E062E08DE295E00E947528672B682B692B51F19E0142E062E08DE295E00E9469
:2007800075286330710581059105F1F49E0144E062E08DE295E00E9475286415750586050C
:2007A000970591F49E0143E062E08DE295E00E9475286C157D058E059F0531F4A5016C2F51
:2007C00088EE93E00E9493102196C330D10539F617C082E794E00E94511661E082E794E061
:2007E000DF91CF911F910F91FF90EF90DF90CF90BF90AF907F906F905F904F900C94CC1215
:20080000DF91CF911F910F91FF90EF90DF90CF90BF90AF907F906F905F904F90089512DFE4
:20082000F7CECF92DF92EF92FF920F931F93CF93DF9310924F0510924E05CDE2D5E01882FE
:2008400019821A821B821C821E821D8288E0EFE0F3E0A4E3B5E001900D928A95E1F7188AF8
:200860001F868EE298E19A8B898B8EE498E19C8B8B8B8DEF93E09E8B8D8B1F8A998F888F71
:200880001B8E1A8E18A20DEA14E010921105109212051092130510921F0510921E0510920A
:2008A0002005109222051092210510922405109223051092260510922505109228051092E3
:2008C000270522E734E0D901CD93DC9386E0F82EE4E7F4E0DF018F2D1D928A95E9F7D901D7
:2008E00018961C9218971A961C921E9219978BE0E7E1F3E0ADE7B4E001900D928A95E1F7DA
:200900008BE0E2E2F3E0A8E8B4E001900D928A95E1F78BE0E3E9F4E0DF01982F1D929A95FA
:20092000E9F7D9019C961D921D921D921C929F97E2EAF4E0DF011D928A95E9F760E574E013
:20094000FB01D183C08313830283358324839EE4C92E95E0D92ED782C682118610864CE09B
:20096000E42EEAE5F4E0DF018E2D1D928A95E9F7E6E6F4E0DF018F2D1D928A95E9F7ECE6BD
:20098000F4E0DF018F2D1D928A95E9F742E354E0DA011196DC93CE9313961C930E931297EC
:2009A00015963C932E9314971796DC92CE921697EAE3F4E0DF018E2D1D928A95E9F7DA0164
:2009C00055961C921E92549757961C921E92569786E0EDE2F3E0AAE4B4E001900D928A9532
:2009E000E1F788EE93E0FC01D183C0831383028335832483D782C682E0EFF3E0DF011D9256
:200A0000FA94E9F7E6EFF3E0DF011D92EA94E9F7FC01128E138E148E158E168E178E10A255
:200A200011A212A213A214A215A216A217A210A611A612A613A6E0E1FE2EE3E3F3E0A4E1D3
:200A4000B4E001900D92FA94E1F7C0904303D0904403E0904503F0904603FC01C4AED5AEBC
:200A6000E6AEF7AEC0904703D0904803E0904903F0904A03C0922804D0922904E0922A04C2
:200A8000F0922B04F6E0FF2EEBE4F3E0ACE2B4E001900D92FA94E1F7ECEAF3E01282138276
:200AA000158214821682118A108A138A128A148A158A168A178A108E128E118EA9E5B3E087
:200AC000B183A083D48FC38F168F058F50A3478F92A381A374A363A336A325A381E087A366
:200AE000DF91CF911F910F91FF90EF90DF90CF900895CF93DF93EC0164E0888199810E9493
:200B0000B51B60E0888199810E94B51B62E088819981DF91CF910C94B51BCF93DF93EC01CA
:200B200061E0888199810E94B51B6BE0888199810E94B51B68E7888199810E94B51B62E3D6
:200B4000888199810E94B51B61E0888199810E94B51B60E0888199810E94B51B60E088810C
:200B60009981DF91CF910C94B51BEF92FF921F93CF93DF9300D000D0CDB7DEB77C01162F08
:200B80009C838B839A838983603509F456C0C0F4633441F118F4623441F15FC0643451F10D
:200BA0006D3409F05AC06CE00E94B51B63E0C7010E94B51B66E0C7010E94B51B66E042C07E
:200BC000643609F447C048F46535A1F0663509F044C0CE0103968DDF0BC06536B9F16F37EE
:200BE00049F03BC0CE01039684DFCE01019695DF81E034C0F70185A196A10E94E71580E074
:200C000090E00196853CF9E09F0739F0EFE9FFE03197F1F700C00000F4CF143431F460E0CD
:200C2000F701838D948DF6DB04C0153511F481E001C080E00E940A18DBCFFC01838D948D89
:200C400045DA682FC7010E94B51BD2CF81E0F70187A304C0FC0117A2CBCF80E00F900F90CE
:200C60000F900F90DF91CF911F91FF90EF900895FB01642F70E021E0AF01FC01858D968D49
:200C80000C945A1ECF93DF931F92CDB7DEB7AE014F5F5F4FBC0180E00E94402B882329F0A5
:200CA00081E09981913F09F080E00F90DF91CF91089541EFBC0180E00C941E2BFC0182814E
:200CC000238130E0220F331F87FF03C02F77216001C02E7720838F7781830895AF92BF922B
:200CE000CF92DF92FF920F931F93CF93DF93CDB7DEB728970FB6F894DEBF0FBECDBF6C01DD
:200D0000F42E580119821A821B821C82623009F4BCC030F4662379F0613009F4A1C0E9C02D
:200D2000643039F108F45CC0653009F0E2C06DE00E944F1EE9C041E04F1520F482E0F8169F
:200D400039F0E2C08E010F5F1F4F4F2D60E0D5C02115310529F4F601838D948DB4D9B6C058
:200D60002130310509F0D4C0F601838D948D46DAADC0F1E04F17C1F04F1778F044E0F416C6
:200D8000D1F0FC01838D948DF7E0FF121FC08E010F5F1F4F45E064E056C0622FFC0185A1FF
:200DA00096A10E94BB1392C0622FFC0185A196A10E94F8138BC0822F0E946616282F30E021
:200DC0008E010F5F1F4F42E064E097C0EF2DF0E0EF59FC4F8E010F5F1F4F408164E090C0AC
:200DE000FC01838D948DF3E04F1780F148E04F1548F4E9E0FE122AC08E010F5F1F4F46E0FF
:200E000063E021C0EF2DF0E0E759FC4F8E010F5F1F4F408163E00E943427882309F474C0EF
:200E200089819A8198878F83CE01059647DFF5E0FF1609F448C047E0F41609F444C083E048
:200E4000F81243C040C00E9434271BC0EF2DF0E0E759FC4F8E010F5F1F4F408163E050C0B7
:200E6000E42FF0E0E458FC4F8E010F5F1F4F408161E0FC01838D948D0E943427F4E0FF128B
:200E800041C0882309F440C02CC0E42FF0E0ED58FC4F8E010F5F1F4F408162E0FC01838DCF
:200EA000948D0E943427882379F18F2D8B7F8330A9F489819A8198878F83CE010596FEDE4D
:200EC000F3E0FF1202C08E8101C08D8190E0A0E0B0E089839A83AB83BC831AC044E0F41274
:200EE00017C089819A81AB81BC810196A11DB11DF0CF8E010F5F1F4F4F2DF601838D948D9C
:200F00000E943427811104C0F501108280E004C08981F501808381E028960FB6F894DEBFC2
:200F20000FBECDBFDF91CF911F910F91FF90DF90CF90BF90AF9008953F924F925F926F920C
:200F40007F928F929F92AF92BF92CF92DF92EF92FF920F931F93CF93DF9300D000D0CDB76C
:200F6000DEB75C01C42E4901402E623009F405C230F4662369F0613009F4EEC11AC26430CC
:200F800009F4B7C008F454C0653009F4E0C111C2411122C02130310509F4D9C148F02230EB
:200FA000310509F4D4C12330310509F4D0C119C2F501858D968D002311F061E001C060E0E6
:200FC0000E945E25E42C440CFF08000B110B20E030E040E060E0F4C1F1E04F1709F4B7C18D
:200FE00042E0C412FEC12115310599F4FC01838D948D6CD890E0202F002E000C330B281759
:2010000039070CF0A4C1602FF501838D948D71D8EAC12130310509F0E4C141E0401708F4EC
:20102000E0C1602F6170FC01838D948DAED8DBC1F2E04F1709F440C0FC01838D948D242FA9
:2010400030E0F2E04F1708F444C048E04C1508F440C0F901E759FC4FD08094014D2D63E09C
:201060000E9475287C836B83CE01019627DE85E0C81631F097E0C91619F0E3E0CE1202C0B1
:201080004A8201C0098389819A8180FF02C0906801C09F779A8390E0959587958983E12C16
:2010A000F12CF82E8A81E82AFC82EB8200E010E094014D2D63E084C1B901FC0183A194A16E
:2010C000C5D2E02E000FFF08000B110B940142E0F1CFF9E0CF1201C04A94E42C440CFF08F7
:2010E000000B110BF901E759FC4F9401408163E06AC143E0C41609F4E0C04C1568F081E0CC
:20110000C816A9F08C15F8F0402F622FF50185A196A10E94201467C195E0C91609F4CDC0A0
:20112000C91658F1E7E0CE1206C14A94C6C0011102C040E001C045E0682DF50185A196A1F3
:201140000E94581350C1F1E02F1709F400C12F1720F042E0241761F044C181E0801708F49F
:2011600040C1602FF50185A196A10E941C1630C1F1E0F01708F435C12BC1C22E822F0E94CE
:20118000661660E00E94611640E0682FF50185A196A10E942014882D0E94661661E00E94E4
:2011A000611640E0682FF50185A196A10E942014882D0E94661662E00E94611640E0682FF3
:2011C000F50185A196A10E942014882D0E946616E02E000FFF08000B110B282F30E042E03F
:2011E00064E0F501838D948D0E949E28182F442009F4ECC0882309F4F4C0D12C940141E0B9
:2012000064E0F501838D948D0E9475282B013C018C2D0E9466166D2D0E946116282F30E0CA
:201220008301720141E064E0F501838D948D0E949E28882309F4D5C0940143E064E0F50194
:20124000838D948D0E9475282B013C018C2D0E9466166D2D0E946116282F30E083017201CD
:2012600043E064E0F501838D948D0E949E28882309F4B7C0940145E064E0F501838D948D34
:201280000E9475282B013C018C2D0E9466166D2D0E946116282F30E08301720145E064E055
:2012A000F501838D948D0E949E28882309F499C0D394F3E0DF12A2CF96C0382C882D0E94F1
:2012C0006616282F30E042E064E0F501838D948D0E9475284C2D50E0042C000C55086608AF
:2012E0007708672B682B692B01F1912CCA018F599C4F6C01832D0E946616692D0E9461167F
:20130000282F30E083017201F601408164E0F501838D948D0E949E28182F882309F461C0D4
:201320009394F3E09F12E6CF51C0FA01EF59FC4F8301720109C0E02E000FFF08000B110BA3
:20134000EC2DF0E0EF59FC4F9401408148C06DE0C5010E944F1E45C0F4E04F1301C04A94B7
:20136000E42C440CFF08000B110BEC2DF0E0E458FC4F9401408161E023C0F4E04F1301C0FE
:201380004A94E42C440CFF08000B110BEC2DF0E0ED58FC4F9401408162E0F501838D948DA9
:2013A0000E949E28182F682DF50181A192A16CD60DC0E42C440CFF08000B110B94014C2DF3
:2013C000F501838D948D0E949E28182F812F0CC0E42C440CFF08000B110B940140E064E034
:2013E000EFCF80E001C081E00F900F900F900F90DF91CF911F910F91FF90EF90DF90CF9035
:20140000BF90AF909F908F907F906F905F904F903F900895CF93DF93EC0146E062E472E029
:201420000E949A194BE06CE272E0CE01DF91CF910C94FB19FC0187A10895CF93DF93EC01B6
:2014400040E060E076E980E090E00E94F12B62E476E08D8D9E8D0E94682569E576E08D8D71
:201460009E8DDF91CF910C946E25BF92CF92DF92EF92FF920F931F93CF93DF9300D01F9260
:20148000CDB7DEB77C01062FB42E0E941C1A182F882309F440C02FB7F89480918A059091A5
:2014A0008B05A0918C05B0918D052FBF670124E0029FC00CD11C1124F60140A551A562A545
:2014C00073A5841B950BA60BB70B853F9140A105B10508F189E489830A83BB82F701658D2B
:2014E000768D6A5C7F4F01E023E0AE014F5F5F4FC7010E94C61B2FB7F89480918A059091E8
:201500008B05A0918C05B0918D052FBFF60180A791A7A2A7B3A7812F0F900F900F90DF91C2
:20152000CF911F910F91FF90EF90DF90CF90BF900895CF93DF93EC0161E18D8D9E8D0E9449
:20154000862120E030E040E060E08B8D9C8D0E9475288D8D9E8D0E945E2521E030E040E059
:2015600060E08B8D9C8D0E94752821E0672B682B692B09F420E0622F8D8D9E8D0E94092152
:2015800061E08D8D9E8D0E946325CE01DF91CF9154CFDF92EF92FF920F931F93CF93DF932E
:2015A0007C010E947617882309F448C0C0E0D0E09E0140E063E0D7018D919C910E9475281B
:2015C000672B682B692B69F1DC2E8C2F0E9468178C019E0142E063E0F701808191810E94D4
:2015E00075286330A1F0623069F020F08CEF860F8330B8F4012E000C220B330B4D2DC701D8
:201600003BD00FC0A8016C2FC7014ED20AC0D7011896ED91FC911997309719F0B8018C2F75
:2016200009952196C630D10519F6DF91CF911F910F91FF90EF90DF900C947D17DF91CF91D9
:201640001F910F91FF90EF90DF900895DC01A60FB71F5C961C925C976B5F7F4F660F771F82
:20166000FC01E60FF71F1182108256961C920895FC017187608708952F923F924F925F9229
:201680006F927F928F929F92AF92BF92CF92DF92EF92FF920F931F93CF93DF93CDB7DEB72F
:2016A0006D970FB6F894DEBF0FBECDBF1C016F874D8328013901862F8550823038F421E030
:2016C00030E0AA24AA94AFE3BA2E05C026E030E0FFE7AF2EB12C6D81462F50E0BA01660F36
:2016E000771FD101A60FB71FBC8FAB8F1A968D909C901B976401E12CF12C4C145D046E0405
:201700007F0410F002E001C001E0F101E40FF51FFA8BE98B148D112391F0011721F082309F
:2017200010F4220F331FC2018819990997FF03C09195819591098217930708F49CC19501CB
:2017400040E050E02B873C874D875E873FEFA31633E0B30609F458C04FEFA41643E0B4066E
:2017600070F5A30192018B849C84AD84BE846FEF861A960AA60AB60AC501B4010E94732D60
:201780006F83788789879A87A7019601C501B4010E94732D6B017C013AE0F694E794D794B8
:2017A000C7943A95D1F78F809884A984BA844AE0B694A794979487944A95D1F727C0A3017A
:2017C00092016B857C858D859E850E94732DCC24CA9423E0D22EE12CF12CA70196010E94B2
:2017E000A22D2F833B8B4F8B5D8F9401D5010E94C42DA70196010E94A22D69017A018F803A
:201800009B88AF88BD8C02C053014201C814D904EA04FB0411F411112EC14F8A588E698E5A
:201820007A8EED801F856101A989BA895C960C932E2C312C910144E063E0F601808191816D
:201840000E9475286F83788789879A872F8138853E832D83910145E063E0D6018D919C912D
:201860000E9475282B013C017A8B698B910143E063E0F601808191810E9475286B8B7C8B89
:201880008D8B9E8B2B893C89388B2F87910146E063E0D6018D919C910E947528F62E123053
:2018A00010F0143011F5EB89FC89FC83EB83CE01019604DA8A81282F30E0388B2F874F81F9
:2018C00058855C834B83CE010196F8D98A81682F70E07E836D835C824B82CE010196EED98C
:2018E0000A81802F90E09A8B898BE989FA89CF01A0E0B0E02D813E812901612C712C232B21
:2019000049F44B855C856D857E85481759076A077B0791F1BC01CD016419750986099709FB
:201920002B853C854D855E85621773078407950798F49B01AC012F5F3F4F4F4F5F4FC50164
:20194000B4010E94732D2B853C854D855E852F5F3F4F4F4F5F4F08C0A50194010E94732DBD
:201960002B853C854D855E850E94A22D53014201820E931EA41EB51E910141E063E0D60196
:201980008D919C910E947528672B682B692B51F02B853C854D855E85281939094A095B0963
:2019A00049015A01163028F41430D8F4123060F062C0163009F05FC04F2DB401F6018281D3
:2019C00093810E94FA2044C0D60112968D919C9113972F2D482D6F85112331F10E94D02012
:2019E00037C0EF85F889FC83EB83CE01019666D92F2D498163E6D60112968D919C91139786
:201A00000E94F2202F2D4A8162E6F601828193810E94F220143059F42F2D482D66E0D60162
:201A200012968D919C9113970E94F22011C09C828B82CE01019642D92F2D498166E0F60175
:201A4000828193810E94F2202F2D4A8166E2E7CFD6011696ED91FC9117970190F081E02D4B
:201A6000309719F06E2D83E009952F89388DEB8DFC8D338722876D960FB6F894DEBF0FBE5B
:201A8000CDBFDF91CF911F910F91FF90EF90DF90CF90BF90AF909F908F907F906F905F90E5
:201AA0004F903F902F9008954F925F926F927F92AF92BF92CF92DF92EF92FF920F931F936E
:201AC000CF93DF935C01162F6A01CA01A0E0B0E088329105A105B10558F0853521E0920702
:201AE000A105B10548F084E591E0A0E0B0E004C088E290E0A0E0B0E08897A109B109BC017A
:201B0000CD0127E0660F771F881F991F2A95D1F72DE231E040E050E00E94A22D29013A01B9
:201B2000C12FD0E0F501EC0FFD1F8689232B242B252B49F181115CC081E0868B9E0143E0E0
:201B400063E0D5018D919C910E947528F62E9E0146E063E0F501808191810E947528062F39
:201B6000262F442D6F2DD50112968D919C9113970E94D020EE24E394242D4F2D60E9F50169
:201B80008481958127C0882399F1168A9E0143E063E0F501808191810E947528762E9E01DE
:201BA00046E063E0D5018D919C910E947528062F262F40E0672DF501828193810E94D82077
:201BC000EE24E39420E0472D60E8D50114968D919C9115977ED6D5011696ED91FC911797BA
:201BE0000190F081E02D309719F0612F83E009952596CC0FDD1FCA0DDB1DD982C882DF91FF
:201C0000CF911F910F91FF90EF90DF90CF90BF90AF907F906F905F904F900895BF92CF927F
:201C2000DF92EF92FF920F931F93CF93DF93EC01E42E122FC62ED12C960142E061E08881C5
:201C400099810E947528F62E960144E061E0888199810E947528062F960143E061E0888170
:201C600099810E947528B62E133141F4960141E061E0888199810E947528162FFA8EEE2078
:201C800009F48BC0173009F470C0C0F4143048F4123008F057C0112331F1113009F446C069
:201CA000B4C08A819B81AE01485E5F4F153009F454C008F054C021E02C8F54C01B3009F40C
:201CC0005AC048F48A819B81193009F450C008F050C068EF57C01D3009F451C008F44DC057
:201CE000103170F092C0202F4B2D6F2D8A819B810E94D020EE24E3942B2D4F2D60E96CC003
:201D00001130A1F0802F90E0FC01E05BFA4F20811E3021F42F3730F42F5F03C0222311F02C
:201D200021502083FC01E05BFA4FF080402F6F2D8A819B810E94EA20EE24E39420E04F2DBB
:201D400060EC4AC0202F4B2D6F2D8A819B810E94F220EE24E3942B2D3DC022E001C026E048
:201D60002C8F21E066E070E045C089E03AC06AEF09C06BEF07C06CEF03C06EEF01C06FEFCC
:201D80008A819B81DF91CF911F910F91FF90EF90DF90CF90BF900C941520133089F01630FA
:201DA000F9F0111132C0202F40E06F2D8A819B810E94D820EE24E39420E04F2D60E80CC041
:201DC000202F40E06F2D8A819B810E94F220EE24E39420E04F2D60EB8C819D817AD515C07E
:201DE00087E08C8FAE01485E5F4F21E066E070E08A819B81DF91CF911F910F91FF90EF9072
:201E0000DF90CF90BF900C945A1EDF91CF911F910F91FF90EF90DF90CF90BF9008959C0108
:201E2000962F96959695969588E0989F60191124E92FF0E0E20FF31F81E090E0A0E0B0E043
:201E400004C0880F991FAA1FBB1F6A95D2F7442319F02489822B03C0809594898923848B8A
:201E60000895262F269526952695820F911DFC01848990E0F8E02F9F6019112402C0959546
:201E800087956A95E2F7817008959C01962F96959695969588E0989F60191124E92FF0E0A8
:201EA000E20FF31F81E090E0A0E0B0E004C0880F991FAA1FBB1F6A95D2F7442319F02689A1
:201EC000822B03C0809596898923868B0895262F269526952695820F911DFC01868990E0C3
:201EE000F8E02F9F6019112402C0959587956A95E2F781700895CF92DF92FF920F931F9369
:201F0000CF93DF93EC01062FF42EABDF8F1509F466C04F2D602FCE0182DFC02ED12C96019B
:201F200041E061E0888199810E947528162F603109F444C0960140E061E0888199810E9449
:201F40007528163038F41430F8F48FEF810F823040F41AC0103118F4173028F015C01131B1
:201F6000D9F0613089F4FF20A9F0602FCE01AFDF882331F040E0602FCE0187DFF12C04C055
:201F800041E0602FCE0181DF212F4F2D602FCE0145DE14C0113161F4960142E061E08881A7
:201FA00099810E947528888199810E94790006C0123121F440E0602FCE0159D0EE81FF81D6
:201FC0000190F081E02D309751F0602F81E0DF91CF911F910F91FF90DF90CF900994DF9170
:201FE000CF911F910F91FF90DF90CF900895FC01E60FF11D9085990F406F492B408781E02F
:20200000403F21F04F3F11F080E0089508950F931F93CF93DF938C01C0E08C2FC0D6282F0A
:2020200030E040E062E0F801808191810E947528672B682B692B69F48C2F9AD6D82F482F24
:202040006C2FC801D4DF882321F04D2F6C2FC80152DFCF5FC63009F7DF91CF911F910F9158
:20206000089581E0693E734008F480E0089508952FB7F89460918A0570918B0580918C054D
:2020800090918D052FBF08950F931F93CF93DF938C01C62FD0E09E0142E062E0FC018081A7
:2020A00091810E9475289E012C5F3F4F653071058105910559F4C901880F991FF801E80F9A
:2020C000F91F80E090E29183808308C0C901880F991FF801E80FF91F11821082FE01EE0FF5
:2020E000FF1FEE0FFF1FE00FF11F16861786108A118AF801EC0FFD1F128E10A213A216A26B
:2021000011A6DF91CF911F910F910895CF93DF93EC0160E0B9DF61E0CE01B6DF62E0CE01FC
:20212000DF91CF91B1CF860F911D860F911DFC015187408708950F931F93CF93DF93FC016B
:20214000262F30E0EC01C20FD31F8EA14370982F990F990F492B942F90689EA387FD02C0BB
:2021600080E028C04F70DF01A40FB11D9C968C9199A5182F190F19A745E062E080819181C1
:202180000E947528212F110F330B37FF03C03195219531098901330F220B330B0617170731
:2021A00028073907ECF289A5181614F082E001C081E019A6DF91CF911F910F9108952F92B1
:2021C0003F924F925F926F927F928F929F92AF92BF92CF92DF92EF92FF920F931F93CF93CC
:2021E000DF9300D000D0CDB7DEB78C013C017C015C01C12CD12C960140E062E0D8018D9136
:202200009C910E947528672B682B692B09F49CC18C2DC7D5482F6C2DC8018DDF582E28DF18
:20222000F3012685378540895189DC01CB01821B930BA40BB50BC397A105B10530F0D7019F
:2022400093961C92939790961C92552009F47CC1960141E062E0F801808191810E947528B5
:20226000672B682B692B41F0F1E05F1619F05524539402C032E0532ED70193968C91939728
:20228000843081F05D968C915D97581611F093961C92F70183A18F5F843011F083A302C028
:2022A00013A250A2960146E062E0F801808191810E947528962E662349F1DADED3011E9666
:2022C0002D913D914D915C915197DC01CB01821B930BA40BB50BF7018C389105A105B105BE
:2022E000A0F4428DF801E90DF11D84AD90E0E05CFF4F208130E0840F911D281739070CF4E2
:20230000C901D7015A968C9301C0128ED7015D965C92AEDEF30166877787808B918BD70188
:2023200090968C918111582E960143E062E0F801808191810E947528262E960144E062E0AA
:20234000D8018D919C910E947528362E960142E062E0F801808191810E947528462ED70124
:202360005A968C91811101C081E0B2E04B16D9F04B1648F0E3E04E16C1F19BEF940D933080
:2023800008F0D5C032C0842D90E0FC01EE0FFF1FE80FF91FE00FF11FE50DF11DEC5BFF4FE2
:2023A0008080912C60C0832D90E0F1E05F1208C0FC01E05BFA4F20812F3750F42F5F07C0F5
:2023C000FC01E05BFA4F2081222311F021502083FC01E05BFA4F6081432DD80112968D9110
:2023E0009C9113970E94EA20A2C0942D9D7F953031F4823018F0880F880F01C081E090E0B7
:20240000B1E05B120EC0F50120853185A901481B590B57FD03C05187408720C0118610866B
:202420001DC0B3E04B1619F0E6E04E1203C02FE730E002C02FEF3FE3D50118964D915C9162
:202440001997840F951F281739072CF019969C938E93189703C0F50131872087D5011896A0
:202460008D909C901997B5E04B1208C0432DB401F801828193810E94FA2059C08AEF840D95
:202480008230D0F5822D90E09C838B83CE0101960E945E06232D498163E6D80112968D910B
:2024A0009C9113970E94F220232D4A8162E6F801828193810E94F220F6E04F1204C0232D1F
:2024C000482D66E011C09C828B82CE0101960E945E06232D498166E0F801828193810E94C7
:2024E000F220232D4A8166E2D80112968D919C9113970E94F2201BC0B4E04B1639F0232DF4
:20250000482D622DF80182819381F3CFD8018D919C910E946300B2E05B1611F06FEF01C099
:2025200061E0680FF801808191810E947900D8011696ED91FC9117970190F081E02D3097A8
:2025400019F06C2D82E00995BFEFCB1ADB0AE2E0AE0EB11CFFEFEF1AFF0A24E0620E711C15
:2025600043E0C416D10409F046CE0F900F900F900F90DF91CF911F910F91FF90EF90DF9063
:20258000CF90BF90AF909F908F907F906F905F904F903F902F900895CF92DF92FF920F93F4
:2025A0001F93CF93DF93DC0119968D919C911A97892B09F475C018968C911897882319F0F9
:2025C0008130B9F16DC08FB7F89440918A0550918B0560918C0570918D058FBF9C960D919D
:2025E0001D912D913C919F97401B510B620B730B443651056105710508F452C08FB7F8943E
:2026000040918A0550918B0560918C0570918D058FBF9C964D935D936D937C939F97199690
:202620004D915C911A97FD0120E030E0FF24F39420C06111F4CF34C090A99F2590AB11A272
:2026400080E6C82E85E0D82EBD01E601888181FD19C0DFEFCD1ADD0A6F5F7F4F86E6C8162C
:2026600085E0D80691F72F5F3F4F31962B303105B9F081A18F5F81A3EA019991AE018917DA
:20268000D8F6F1CFEB010A8110E00217130709F7992311F0846001C08B7FE6018883D9CF0C
:2026A000DF91CF911F910F91FF90DF90CF900895DF92EF92FF920F931F93CF93DF9300D085
:2026C0001F92CDB7DEB77C01062F142F862FFED2D82E282F30E042E064E0F70180819181D8
:2026E0000E947528672B682B692B71F060E08D2DE8D2898361E08D2DE4D28A8362E08D2D07
:20270000E0D28B8343E004C009830A830B8341E0BE016F5F7F4F9B0150E0D701A00FB11DCE
:202720001296C901861B970B84179507CCF4F9018081E82FF0E0E05AFA4F8081112311F052
:20274000866009C0982F9D7F908380FF03C09460908302C0897F80831C932F5F3F4FE1CF43
:202760000F900F900F90DF91CF911F910F91FF90EF90DF9008951F93CF93DF93E62FF0E0D7
:20278000E05AFA4F808180FF2CC083FF2CC0862F9DD2182F60E095D2E82FF0E0E05AFA4F60
:2027A000D08161E0812F8DD2E82FF0E0E05AFA4FC08162E0812F85D2E82FD6FB882780F974
:2027C000C5FB992790F9880FC82FC92BF0E0E05AFA4F808184FB992790F98C2F880F892B4C
:2027E00003C080E001C081E0DF91CF911F910895E62FF0E0E05AFA4F808186958170089565
:202800000F93E62FF0E0E05AFA4F80814423A1F080FD80E0222339F0013051F038F002309E
:2028200049F08D600AC0877F856007C08D6105C08D6203C08D6401C080E080830F9108953F
:20284000DF92EF92FF920F931F93CF93DF93EC01F62E142F862F3AD2082F282F30E042E0F8
:2028600064E0888199810E947528672B682B692BF9F060E0802F25D2D82E61E0802F21D241
:20288000E82E62E0802F1DD2F82E00E020E0412F41706D2DCE01B4DF41E011FF40E000E0EE
:2028A00020E06E2DCE01ACDF41E012FD05C003C041E0111101C040E000E020E06F2DCE01FC
:2028C0009FDFDF91CF911F910F91FF90EF90DF9008952F923F924F925F926F927F928F92A9
:2028E0009F92AF92BF92CF92DF92EF92FF920F931F93CF93DF93CDB7DEB72F970FB6F894D9
:20290000DEBF0FBECDBF5C01162FF22E242F22952F702D833F2C32948FE038228F2D37E7D2
:202920003F1508F487E76AE00E94822D882EC12CD12C802F90E0A0E0B0E08E839F83A8870D
:20294000B987842F90E0A0E0B0E089839A83AB83BC83222423942F0C2F2D30E040E050E07A
:202960002A873B874C875D87012F0F7E960145E064E0D5018D919C910E9475282E813F81A1
:2029800048855985621773078407950709F0EEC0960143E064E0D5018D919C910E9475286D
:2029A000EE2041F16530A9F040F4613059F0633009F04AC0E1E0EE8735C0663069F0683053
:2029C00091F042C01039F1F1B1E0BE871038B9F537C0F1E0FE8731C00038B1F581E08F87EA
:2029E00091E09E8744C0103B79F5A1E0AF87B1E0BE873DC06430F9F028F4662341F0623015
:202A000069F022C0663089F0683091F01DC00038E9F021E02F87103BB9F41EC00038D1F0DF
:202A200031E03E87103B59F40BC0003869F416C0103B51F418C041E04E87103C09F01E86AB
:202A40001F8615C01F8611C01F8606C01F86E1E0EE870DC0F1E0FF871E8609C021E02F87F8
:202A600031E03E8704C041E04F8751E05E879C2C8C2D2CD1282F30E042E064E0D5018D9170
:202A80009C910E9475282B013C01BE85BB2309F444C0960141E064E0F501808191810E9498
:202AA000752829813A814B815C81621773078407950769F5103C31F4452846284728F1F057
:202AC0007D8020C0452846284728D9F43F85311118C0960144E064E0D5018D919C910E9462
:202AE0007528772473942A853B854C855D85261737074807590731F0712C04C07724739427
:202B000001C0732C472D692DC5019ADE07C0103C21F440E06C2DC50193DE712C3F8533233E
:202B200029F1960141E064E0D5018D919C910E94752829813A814B815C8162177307840793
:202B40009507A1F43E85332369F0FF2049F0772039F0422D50E1759E401911244B3018F0F6
:202B600040E001C0482D692DC501A2DD8FEFC81AD80A96E0C916D10409F0F8CE2F960FB66F
:202B8000F894DEBF0FBECDBFDF91CF911F910F91FF90EF90DF90CF90BF90AF909F908F90DB
:202BA0007F906F905F904F903F902F9008950F931F93CF938C01C0E041E06C2FC80140DE88
:202BC000CF5FC630C9F7CF911F910F9108950F931F93CF938C01C0E040E06C2FC80130DE4F
:202BE000CF5FC630C9F7CF911F910F910895CF93DF93EC01DCDF80E090E00196813D27E0FC
:202C0000920739F0EFE9FFE03197F1F700C00000F4CFCE01DCDF80E090E00196813DF7E082
:202C20009F0739F0EFE9FFE03197F1F700C00000F4CFDF91CF910895FC01662319F061304E
:202C400019F00895469601C00B969287818760870895CF93DF93EC01662371F022E030E02E
:202C600040E064E0888199810E947528672B682B692B11F0CE01BBDF20E030E040E064E0F7
:202C8000888199810E947528CE01D6DFFE01F096EB9681E08193EC17FD07E1F7DF91CF9124
:202CA0000895FC01B1968C9621E011922687E817F907D9F70895E82FF0E0E05AFA4F8081E9
:202CC0000895982F990F890F860F08959BEA899F812D1124869509F081E00895EF92FF926A
:202CE0000F931F93CF930AE615E0C0E0EE24E394F12C8C2FE0DF857091E0853009F090E0F5
:202D0000909369058C2F55D260936605709367058093680580916905F80190819817E9F0E2
:202D2000E0916605F091670590916805882349F04081970101C0220F9A95EAF7242B20830B
:202D40000AC02081A70101C0440F9A95EAF7942F909592239083F8018083CF5F0F5F1F4F86
:202D6000C63039F6CF911F910F91FF90EF900895982F969596959695E92FF0E0EA58FA4F18
:202D8000208130E048E0949F80191124A90102C0559547958A95E2F7CA01817008958695BB
:202DA0000895CF93DF93C82FCC0F8C2FE1DFD82FDD0F81E08C0FDCDF8D2BDF91CF91089586
:202DC000809173058823D9F09FB7F894809174058F5F80937405853011F410927405E091CA
:202DE0007405F0E0E958FA4F808180937605809173058150809373059FBF81E0089580E0D0
:202E00000895CF92DF92EF92FF92CF93DF93C0E0D0E0C12CD12C7601C394C630D105E9F1AF
:202E20008C2FBAD1FB016093700570937105809372053297808190E00090720502C09595B8
:202E400087950A94E2F780FF14C0E0917505F0E0E958FA4F9081B701A6010C2E04C0440F86
:202E6000551F661F771F0A94D2F74095842F892311C0E0917505F0E0E958FA4F2081D70199
:202E8000C6010C2E04C0880F991FAA1FBB1F0A94D2F7822B80832196C0CFDF91CF91FF90BF
:202EA000EF90DF90CF90089580917305853078F4809175058F5F80937505853011F410921C
:202EC00075059FDF809173058F5F8093730508952FB7F894E82FF0E0EE0FFF1FE458FA4F62
:202EE00080819181118210822FBF08959091880581E0913009F080E0089510928805109278
:202F00008905EAE7F0E0808180648083089580910D03811129C020917800309179008091ED
:202F20008905E82FF0E0EE0FFF1FE458FA4F40815181240F351F318320838F5F863019F05E
:202F40008093890507C010928905809188058F5F809388058091890519D190917C00907F78
:202F60008F70892B80937C0090910D0381E0892780930D0380918805813029F080917A00B7
:202F8000806480937A000895F89484B7877F84BF80916000806180936000109260008FE1DC
:202FA0009EE40197F1F700C000001FBA10BE1CBC1DBA1092680010927A0010926E00109221
:202FC0006F00109270001092C1001092BC0015B818B81BB814B817B81AB898E088E10FB62C
:202FE000F894A895809360000FBE90936000FFCFF89484B7877F84BF0FB6F894A8958091C8
:203000006000886180936000109260000FBE13D137D15EC1882321F0813039F467E401C074
:203020006FEF8FEF93E00E94132EAEDF8DEF93E00E94F02DE8E6F0E04591559165917491CE
:20304000FA01659174918617970731F08DEF93E00E940F2E81E0089580E00895CF93DF9381
:20306000DC01CB01E901433028F0433069F40E94F02D03C00E94E32D90E0A0E0B0E08883A3
:203080009983AA83BB8306C00E94EB2D688379838A839B8381E0DF91CF9108950F93DC01CA
:2030A000CB01BA01033030F0033041F4B9010E940F2E07C0622F0E94F52D03C0A9010E940A
:2030C000072E81E00F9108951F920F920FB60F9211242F933F934F935F936F937F938F9392
:2030E0009F93AF93BF93EF93FF9311DFFF91EF91BF91AF919F918F917F916F915F914F9136
:203100003F912F910F900FBE0F901F9018951F920F920FB60F9211242F933F934F935F9363
:203120006F937F938F939F93AF93BF93EF93FF9390910E0381E0892780930E038823A1F0DC
:2031400080918A0590918B05A0918C05B0918D050196A11DB11D80938A0590938B05A093DE
:203160008C05B0938D05BADD9FDEFF91EF91BF91AF919F918F917F916F915F914F913F9135
:203180002F910F900FBE0F901F901895E82FF0E0EB55FC4F8081089590E0FC01EE0FFF1F70
:2031A0008E0F9F1FFC01ED56FC4F608171818281089590E0FC01EE0FFF1F8E0F9F1FFC01D6
:2031C000EF57FC4F608171818281089510927C0010927A00803269F030F4803171F480915B
:2031E0007A0084600DC0803441F480917A00866007C080917A00856003C080917A008760DE
:2032000080937A00923041F0933051F0913069F480917C00806407C080917C00806C03C098
:2032200080917C00806880937C0080917A00806880937A00089552985A9A53985B9A549843
:203240005C9A55985D9A56985E9A57985F9A209A2898219A2998229A2A98239A2B98249A14
:203260002C98259A2D9838984098399841983A9842983B9843983C9844983D98459808955B
:2032800080E891E0A3DF80E081DF90917C00907F8F70892B80937C0083E090E020917A0027
:2032A000206420937A0020917A0026FDFCCF2091780030917900019789F780917A00886056
:2032C00080937A0080917A00806480937A00089514BC15BCEEE6F0E010821092800010922D
:2032E000810084B5826084BD85B5836085BD8CE787BD8081826080830895CF93DF9300D0B4
:2033000000D0CDB7DEB7882311F0198202C081E089831A821B821C8242EFBE016F5F7F4FEB
:2033200080E00E941E2B0F900F900F900F90DF91CF9108950F931F93CF93DF93FC01118A99
:20334000108A1282108E6115710509F44CC0442309F449C075836483468380E090E060E087
:2033600070E050E0641775070CF03FC020E030E0C0E0D0E0A481B581A80FB91F0C9110E004
:20338000C017D10764F511960D90BC91A02DA20FB31F0D911C911197689414F81695079502
:2033A0001694E1F714960C93A481B581A80FB91F11960D90BC91A02DA20FB31F0D911C912C
:2033C00011970F711127012B31F014961C9114971F5F14961C9321962B5F3F4FCBCF6F5F30
:2033E0007F4F0396BFCF80E001C081E0DF91CF911F910F910895FC0161157105D9F0442380
:20340000C9F0738B628B80E090E0242F30E0821793076CF46E5F7F4FDB0112975C915630AF
:2034200020F4138A128A148A05C00196F0CF448B81E0089580E00895FC0182810895FC0122
:203440008FE0878383E0808782E081871286138614861686158617860895DC015096ED91A2
:20346000FC9151978181811107C08281833521F481E09381933409F080E00895FC01918567
:203480008085911106C08823C1F18230B1F18DE008958823A1F1823091F192858385A4814F
:2034A000B58123E0929FA00DB11D112411960D90BC91A02D95E0899FA00DB11D11242D9189
:2034C0003C91119721323105A8F0848590E0BC016F5F7F4F14964C9150E06417750741F4A1
:2034E00045E0880F991F4A95E1F7281B390B02C020E230E08BE0820F08958CE008958BE039
:203500000895DC011A968C911A971496ED91FC91159793E0899FE00DF11D112481E01B9675
:203520002C919081291708F080E00895FC0180852485811117C082E8820F823088F1928537
:2035400083850480F581E02D33E0939FE00DF11D11240180F281E02D55E0859FE00DF11D92
:20356000112418C0823021F482E8820F8230C0F04285338584819581FC0153E0459FE00D7F
:20358000F11D11240180F281E02D85E0389FE00DF11D112481E09481291718F080E00895C0
:2035A00081E00895DF92EF92FF920F931F93CF93DF93FC010589083011F411E05CC0C08944
:2035C000D1890B3098F11281111102C083E028C08D8184879E819087DF80D18688858287F0
:2035E00029852387933020F084E08C8310E043C09681891710F086E0F8CF7F01CF0181DFA6
:20360000182F811102C087E00BC031E03D1510F485E0EBCFC7018ADF182F811103C088E022
:203620008C8329C0C7012ADF081711F08BE0DDCF81E08C83D70119968C9119978111BDCFA8
:203640005096ED91FC9151971C968C912285B0E28B9FC0011124820F911DD7011E969C936F
:203660008E931D9718968C911897813009F0A5CF83851F968C93812FDF91CF911F910F9131
:20368000FF90EF90DF900895FC0192858385A481B58123E0929FA00DB11D112411960D9071
:2036A000BC91A02D95E0899FA00DB11D112481E0458556852D913C914217530708F080E007
:2036C0000895FC0192858385A481B58123E0929FA00DB11D112411960D90BC91A02D95E01F
:2036E000899FA00DB11D112412968C91129713962C91821739F09785981734F081E02917CC
:2037000024F402C081E0089580E00895DC01611112C056968C9156975096ED91FC915197E4
:20372000E80FF11D87EF808356968C9156978F5F56968C93569713968C911397882329F0FB
:2037400018968C91189781110FC050966D917C915197ED91FC9111970680F781E02D56960B
:203760004C915697CD0109940895FC0180899189009751F02689DC01A20FB11D6C93868966
:203780008F5F868B81E0089580E00895CF92DF92EF92FF920F931F93CF93DF93EC017A01BB
:2037A000798B688B1E8A80EFFB0180838E898F5F8E8BE889F989E80FF11D10828E898F5F4F
:2037C0008E8BE889F989E80FF11D83E580838E898F5F8E8BE889F989E80FF11D83E48083ED
:2037E0008E8991E0980F9E8B48895989892F90E0FA01E80FF91F002319F031E0308301C0DB
:2038000010828E898F5F8E8BE889F989E80FF11D10828E898F5F8E8B8701C22ED12CC80112
:203820008E199F098C159D0534F4F80161918F01CE019BDFF4CF60E0CE01DF91CF911F91B8
:203840000F91FF90EF90DF90CF9060CF2F923F924F925F926F927F928F929F92AF92BF9263
:20386000CF92DF92EF92FF920F931F93CF93DF9300D000D0CDB7DEB77C01DC015696BC91F0
:20388000BC83FC019085892F8D7FC9F5248582E8820F8230D8F4328583850480F581E02D6D
:2038A00043E0349FE00DF11D11240180F281E02DA5E08A9FE00DF11D11248481B1E0BA8330
:2038C0002E3709F01A82E1E0EB8303C01B821A8281E09230B9F4D7015096ED91FC91519742
:2038E00014825096ED91FC91519791E0968318961C92189755969C9191509C8303C01B824C
:203900001A8281E0812C912C66246394712CC12CD12C282E312C821493040CF0DBC02C8114
:20392000F701268B3B81332329F084860088F189E02D8582D70119968C911997813011F588
:203940001C96CC90B0E2CB9E60011124F701928583850480F581E02D23E0929FE00DF11D7B
:2039600011240180F281E02D35E0839FE00DF11D112480819181D60190963D018A179B0719
:2039800008F43C015601A614B70408F09CC0F70190858185911140C0811114C0C70174DE99
:2039A000882309F43FC01982F701258536850190F081E02D0190F081E02D8E010F5F1F4FDF
:2039C000D7010CC01982D7010190F081E02D0190F081E02D8E010F5F1F4F95011B964C9123
:2039E0001B971A966C91C7010995F7019789992329F00088F189E02D94830CC0811106C0CB
:203A00000088F189E02D8EE0848304C06981C701ACDE55C080E07AC0811124C0C70134DE23
:203A2000811107C0D7015096ED91FC91519799E044C0C70146DE811107C0D7015096ED917E
:203A4000FC9151979AE039C0F701258536850190F081E02D0280F381E02DD7011F960C91E5
:203A60001F971AC0D701408851888A2D8C19F201E80FF11D02851F960C93C70122DE8111B4
:203A800003C09AE0F20119C0D701ED91FC9111970280F381E02D95011B964C911B971A9609
:203AA0006C91C701099581110AC0F70197890088F189E02D911101C09CE0948327C0FFEF55
:203AC000AF1ABF0A60CF60E0C70120DE2FEF821A920A21CF3A813323C1F0D70156961C92A5
:203AE00060EFC70142DE60E0C7013FDE63E5C7013CDE63E4C70139DE61E0C70136DE6EE7A8
:203B0000C70133DE60E0C70101DE81E00F900F900F900F90DF91CF911F910F91FF90EF90DA
:203B2000DF90CF90BF90AF909F908F907F906F905F904F903F902F900895CF93DF93EC0113
:203B4000E889F9898681823011F128F4882351F08130A9F02CC0843091F000F1853039F570
:203B60001B8213C08A81882309F44EC01A8281E084838B81882309F44EC01B824CC081E044
:203B80008A839681943009F48B8381E043C08A818823D1F181E0848361E006C08A81882331
:203BA00099F181E0848360E2CE01DFDD34C06C8970E020E030E0261737075CF5A901440F34
:203BC000551FAA89BB89A40FB51F9C9189131EC08A81811104C011968C91811115C081E0DF
:203BE00084838A899B89DC01A40FB51FE881F9810480F581E02D6C91CE01099581110BC072
:203C0000E889F9898EE006C083E004C02F5F3F4FD2CF84E0848381E0DF91CF910895FF92CF
:203C20000F931F93CF93DF93EC011F8A8C819D81892B79F18E81882361F1F42E8B01CE01F4
:203C4000FEDB198B088BFD8A86E08E8B87E08F1500F5CE0102DC8823E1F0F801848188237C
:203C600019F082E0848310C0CE019CDC882351F08D89883019F4CE0160DF06C0CE01E6DD8E
:203C8000811105C0CE01DBDB60E0CE013FDD198A188ADF91CF911F910F91FF9008952EEF6F
:203CA000260F2C3018F4FC01678B08952CE0FC01278B08955F926F927F928F929F92AF92ED
:203CC000BF92CF92DF92EF92FF920F931F93CF93DF9300D000D0CDB7DEB77C016B018A015A
:203CE000522E3C0186E7680E711CD301ED91FC91309711F1211102C080EF0995580148014C
:203D00008C0C9D1C8A149B0441F0D301ED91FC91D5018D915D010995F5CF511005C0D30157
:203D2000ED91FC9187EF0995F701EC59FF4F8081882311F034961082BAE7EB0EF11CF70131
:203D400080819181892B09F4DAC0552019F024E0B22E90C0B12C21E084E0A82E90EF992EF5
:203D6000F4E0CF16D10458F1D8019C9111968C91222399F0A9829A829B838C83D701ED910A
:203D8000FC91CE01019609950E5F1F4FB2E0CB1AD108BB24B39420E0E3CFF8012281A982C8
:203DA0009A838B832C83D701ED91FC91CE01019609950D5F1F4FB3E0CB1AD108ECCFE3E099
:203DC000CE16D104F1F4D8019C9111968C911197BB2041F012962C9134E039839A838B8367
:203DE0002C8321C024E0298320EF2A839B838C83D701ED91FC91CE0101960995F8018281B7
:203E00002DC0B2E0CB16D10409F5F80190818181BB2019F027E0298329C024E0298320EF24
:203E20002A839B838C83D701ED91FC91CE01019609958091510390915203A0915303B0911E
:203E4000540389839A83AB83BC8353C0CA94CD2809F055C0F8018081BB2029F096E0998381
:203E60008A8387EF3AC097E0998390EF9A838B8387EF27C0B4E0CB16D104A0F0F8012081B7
:203E800091818281B9822A839B838C83D701ED91FC91CE01019609950D5F1F4FB3E0CB1ABF
:203EA000D108E8CFE3E0CE16D10469F4D8012C9111969C91119712968C9137E039832A8342
:203EC0009B838C8316C0B2E0CB16D10441F4F8019081818126E029839A838B8309C0CA9452
:203EE000CD2869F4F801808195E099838A831B821C82D701ED91FC91CE01019609950F9017
:203F00000F900F900F90DF91CF911F910F91FF90EF90DF90CF90BF90AF909F908F907F90DD
:203F20006F905F900895FF920F931F93CF93DF93EC01F62E8C010A581F4FD801ED91FC91EB
:203F400081EF0995D801ED91FC918F2D0995FE01EC59FF4F8081882319F0C859DF4F1882E5
:203F6000DF91CF911F910F91FF900895677050E1659F90011124642F6F70622BD4CFEF9200
:203F8000FF920F931F93CF93DF93EC018B017C0186E7E80EF11CD701ED91FC9182EF099510
:203FA000D701ED91FC91802F8F770995C801880F892F881F990B9195D701ED91FC918F7759
:203FC0000995FE01EC59FF4F8081882319F0C859DF4F1882DF91CF911F910F91FF90EF90E5
:203FE0000895FF920F931F93CF93DF93EC01F62E8C010A581F4FD801ED91FC9183EF099509
:20400000D801ED91FC918F2D8F770995FE01EC59FF4F8081882319F0C859DF4F1882DF91BC
:20402000CF911F910F91FF900895EF92FF921F93CF93DF9300D000D0CDB7DEB76D3F28F48B
:204040006A3F28F4683F19F020C06E3FF0F0162F7C01FC01EA58FF4F0190F081E02D309759
:2040600011F0862F0995F701E658FF4F0190F081E02D309751F019821A821B821C828FE070
:2040800089831A83CE01019609950F900F900F900F90DF91CF911F91FF90EF900895AF928B
:2040A000BF92CF92DF92EF92FF920F931F93CF93DF9300D000D0CDB7DEB77C01162FFC012B
:2040C000EA59FF4F8081882321F0003130F40F5F0EC08FEF800F803150F0F701EC59FF4F78
:2040E0008081882309F44DC0349610824AC017FFF4CF113E08F040C04F77D42E2F77C22E26
:204100000150012B570186E7A80EB11CD501ED91FC9111973097C9F052978C91882329F007
:2041200014968C91801719F00C93802F0995D501ED91FC918D2D0995812F8F7E803C29F061
:20414000D501ED91FC918C2D0995F701E658FF4F0190F081E02D3097A1F0612F70E084E0F8
:20416000759567958A95E1F769830A83DB82CC82CE010196099505C0163F18F0612FC701A0
:2041800054DF0F900F900F900F90DF91CF911F910F91FF90EF90DF90CF90BF90AF90089549
:2041A0000F93022F242F462F60E979DF0F9108950F93022FFC01ED58FF4F2081213021F41C
:2041C000242F462F60E803C0242F462F60E967DF0F9108950F93042F20E0462F60EC5FDFA4
:2041E0000F9108950F93022F242F462F60EB57DF0F9108950F937F739B01220F232F221F35
:20420000330B31956F77042F462F60EE48DF0F9108958C599F4FFC0160830895FC014423A6
:2042200019F0413071F015C08181882391F08058813688F48081681771F081E0613149F484
:204240000BC083A9882329F08058813620F482A9F2CF80E0089581E00895662329F06130E6
:2042600031F4FC0183A90895FC018181089580E00895FC01662321F0613059F492A901C049
:204280009081992331F0EA59FF4F8081981B892F08958FEF0895662329F0613031F4FC0126
:2042A00084A90895FC018281089580E00895662329F0613031F4FC0185A90895FC01838179
:2042C000089580E00895662321F0613021F4C69608950496089580E090E00895662341F0AD
:2042E000613051F4FC01EF58FF4F808191810895FC013281238102C030E020E0832F922F0D
:204300008E32910510F08DE290E008952FEE260F223010F080E00895FC01E759FF4F6083BC
:2043200081E0089567FF0DC08CE0860F823048F0862F8B7F893F29F0862F603F20F4807F5A
:20434000089580E008950895862F8F7C803849F0603D39F081E0603E31F0603C21F080E082
:20436000089581E0089508957F928F929F92AF92BF92CF92DF92EF92FF920F931F93CF9376
:20438000DF931F92CDB7DEB78C0161119DC1FC01EC58FF4F0190F081E02D309709F49DC2C3
:2043A0001982CE0101960995E82E882309F495C2F98068012FE6C20ED11CD6018D919C9173
:2043C000009709F0BAC04801BAE68B0E911CF401F0825801F7E6AF0EB11CD5017C90672D07
:2043E000C801A0DF682FC801AFDF882359F0F7FC09C0F40170823196F08281E090E0D6010F
:204400008D939C93F401F0806F2DC8018BDFF801E359FF4F813F09F445C008F5803B09F41F
:2044200044C048F4803909F440C0803AF1F1803809F040C03AC0803DA9F118F4803C91F19E
:2044400039C0803E91F1803FA9F52DE230E031832083D5011C92D80114968C9332C0883F71
:2044600069F030F4833FF1F000F1863F39F022C08A3F00F18D3F10F08E3FE0F0D8011196B8
:204480008C9311971C9212961C92129713961C92139781E0D1968C93D6011D921C921182F9
:2044A00010821CC222E030E002C023E030E03183208307C0D6011D921C9211821082F50138
:2044C00097C0D6012D913C9140815181BA01615071092617370758F1D80111968C9311979F
:2044E0008F2D8F70FF24F394F80EAA59BF4F8C91F81AD801FC92A559BF4F8C91D801129600
:204500008C9312974330510539F4A459BF4F8C91D80113968C9303C0D80113961C92D6014A
:204520001D921C921182108281E0F8011EC02F5F3F4FD6012D933C93BBC0F7FE34C0BCEF30
:20454000BF1550F0EAEFFE1650F4F7EFFF1679F028EFF21228C003C0AEEFFA1620F1F80135
:20456000F18212821382108281E081ABB7C1D80114964C91403F99F59C012F5F3F4FF801E9
:20458000E80FF91FF482F801418322833383108281E081ABD6011D921C92E359FF4F11820E
:2045A000108236977FC0D801A659BF4F2C91F801E80FF91F203FF1F4F4825801FDE6AF0EFF
:2045C000B11CF501808091809401215031098217930708F469C07C90F0EF7F120FC0F6012D
:2045E00011821082F801E359FF4F118210823697108273C1E659FF4FF082DFCF672DC80151
:2046000091DEF82ED80111968C93682FC8019CDE882359F0872D8F708F5FF801EA59FF4F6D
:204620009081891BF801808302C0D8011C92F801E559FF4F8081F8018283F3E08F169104EF
:2046400041F4F801E459FF4F8081D80113968C9302C0F8011382D6011D921C92F5011182F2
:20466000108281E0D801D1968C93F801E959FF4FB0EBFB16A9F0BF1550F020E9F21681F084
:2046800080EAF81669F0A0E8FA120CC009C0B0EDFB1631F020EEF21619F080ECF81202C0FA
:2046A00070821CC110821AC10196D6018D939C93F801EB59FF4F8081882309F40EC160E0BE
:2046C000C80152DEE82E0AC1613009F006C16C01BCE7CB0ED11CFC01E858FF4F0190F0814C
:2046E000E02DC6010995E82E882309F4F6C0F60180818295807F803909F480C068F58035BE
:20470000F1F138F4803209F467C0803409F48CC0E4C0803709F4B0C0803809F46FC0803656
:2047200009F0DBC0A8014F585F4FFA0180819181D801A80FB91F980123583F4FF901208134
:20474000D6962C93D697980122583F4FF9012081D7962C930296B5C0803CF1F138F4803AC8
:2047600009F44CC0803B09F0B8C048C0803F39F0823F09F443C0803E09F0AFC03FC0F80135
:20478000E358FF4F2081B8016D597F4FD801273F61F0D3962C93D397D2961C92D297D49697
:2047A0001C92D497D5961C9214C0AF58BF4F8D919C911197A801480F591FFA0126AB019610
:2047C0008D939C9380EFD801D3968C93D397D2961C9281E0FB017FC0F801E358FF4F80811B
:2047E000D801D3968C93D3978F708F5FD2968C9331968081F80184AB15AA6AC0D801D3965F
:204800008C93D397F801E358FF4F80818F708F5FF80182ABE258FF4F8081D4968C933196A0
:204820008081F80185AB54C0F801E358FF4F2081A8014F585F4F203F19F4DA011D921C9275
:20484000FA0180819181D801A80FB91FD6962C93D697980122583F4FF9012081D7962C93E2
:20486000D79701581F4FF8012081D8962C930396DA018D939C9331C0F801E358FF4F208165
:20488000A8014F585F4F203F19F4DA011D921C92FA0180819181D801A80FB91FD6962C93D5
:2048A000D697980122583F4FF9012081D7962C93D797980121583F4FF9012081D8962C934D
:2048C0000396DA018D939C9380EFF80183AB12AAED59FF4F81E0808301C0E12C8E2D0F90A3
:2048E000DF91CF911F910F91FF90EF90DF90CF90BF90AF909F908F907F9008957F928F9202
:204900009F92AF92BF92CF92DF92EF92FF920F931F93CF93DF93222309F485C0FC014111F2
:20492000F2967C0136E7E30EF11CD701AD90BC906C01BAE7CB0ED11CD6018D909C902330AF
:2049400089F028F4213059F0223039F06CC0253021F028F0263031F066C0D60101C0D701F6
:204960001D921C92742EEC01618180E8860F813660F40081DE01A759BF4F8C91081709F4BA
:2049800042C0813109F04BC03EC0663F21F1D0F4613F71F178F4603F79F5642FCE0193DC9A
:2049A0008C01672DCE019ADC21E0A801BC01CE0181D922C0623F91F0633FF1F46281CE01C4
:2049C00010DB1AC06D3F28F46A3F28F4683F19F013C06E3F88F0CE0128DB0EC06381B0E8C1
:2049E0006B9FB00111248281682BCE01C8DA04C043816281CE01BADAF701B182A082D601CE
:204A00008D929C9210C02130B8F3243028F423814281CE0144DBF0CF2730C8F3EDCF2150BA
:204A2000233050F7F4CFDF91CF911F910F91FF90EF90DF90CF90BF90AF909F908F907F9032
:204A40000895CF92DF92EF92FF920F931F93CF93DF936C0129E6C20ED11CF6012081223189
:204A600011F480E022C0662331F0613059F4FC01E858FF4F03C0FC01EC58FF4F2081318137
:204A8000232B79F3F42E162FEC016EDC882349F3F601E080412F6E2DCE01C0DB082F2F2D78
:204AA000412F6E2DCE012ADF802FDF91CF911F910F91FF90EF90DF90CF9008958D589F4FF8
:204AC000FC01608308958A599F4FFC016083089588589F4FFC0171836083089586589F4F00
:204AE000FC017183608308958F929F92AF92BF92CF92DF92EF92FF920F931F93CF93DF9355
:204B0000DC0111961D921D921D921C9214976115710509F425C1442309F422C150967C93A0
:204B20006E931F974C9365E070E080E090E02C9130E0821793070CF015C15B0115E0A11A9C
:204B4000B108812C912C40E050E01F96CD91DC9150979E012A0D3B1DF9011281E12E012E82
:204B6000000CFF08238134814E155F050CF075C04115510521F4F9011086178268C0E901D5
:204B8000C80DD91DFE013997F280EFEFE40F19E0E19FF001112411E0F11681F1F11668F0D0
:204BA00012E0F116A1F113E0F11242C0E20FF31F20813181220F331F43C0E20FF31F2081F2
:204BC0003181690117E0C122DD24EE24E394F12CCD2811F4E12CF12C37FF02C0295F3F4F06
:204BE00003E0359527950A95E1F7E20EF31E27813085E20EF31EF886EF8229C0E20FF31F9B
:204C0000E080F180278130852E0D3F1D1EC0E20FF31F20813181790137FF03C01FEFE11A1F
:204C2000F10AF594E794217033272E0D3F1D08C0E20FF31F20813181220F331F220F331FCF
:204C40000780F085E02D2E0F3F1F38872F834F5F5F4F29E0820E911C78CFEFEFE10FA901DE
:204C600019E0E19F400D511D1124FA01128140815181278130851130F1F040F01230E9F0E0
:204C8000133049F58A01000F111F2AC001E010E0FA01E770FF27EF2B11F400E010E0020F96
:204CA000131F57FF02C0495F5F4FF3E055954795FA95E1F70DC089010BC08A0101701127FE
:204CC000020F131F57FF02C04F5F5F4F55954795040F151F07C08A01000F111F000F111F40
:204CE000020F131F012E000C220B330B009711F4198218824C9150E04150510984179507CB
:204D000084F41F964D915C915097FA01E60FF71FEA01CA0DDB1D48815981400F511F5183BE
:204D200040831196CD90DD90ED90FC9014970C0D1D1D2E1D3F1D11960D931D932D933C930B
:204D400014976B5F7F4F5596CD90DC905697E12CF12C0C151D052E053F0510F40196E7CE3B
:204D600080E001C081E0DF91CF911F910F91FF90EF90DF90CF90BF90AF909F908F9008953C
:204D8000EF92FF920F93CF93DF937C01C0E0D0E0D70155968D919C915697C817D90770F4A0
:204DA000BE0180E090E05396ED91FC91549701E020E030E0A90109952196EACFDF91CF910C
:204DC0000F91FF90EF900895FC0161817281838194810895FC01858996890895DC015C916F
:204DE000651700F51F96ED91FC915097B5E06B9FE00DF11D1124642F70E08281082E000CA4
:204E0000990B6817790774F40380F481E02D89E0489FE00DF11D112481E0408151812417D3
:204E2000350708F080E00895CF93DF93EC01EF85F88985E0689FE00DF11D1124A381B48196
:204E400089E0489FA00DB11D112417968D919C91189720813181280F391F8D819E81820F0B
:204E6000931FDF91CF9108956F927F929F92AF92BF92CF92DF92EF92FF920F931F93CF93A4
:204E8000DF936C01E62EF42EE901A8DF982E882309F41BC14F2D6E2DC601C6DFD6011F9633
:204EA000ED91FC915097B5E0EB9EE00DF11D11240380F481E02D29E0F29EE00DF11D1124E4
:204EC0002281213009F46AC060F0223009F480C0D6015196ED91FC915297233009F4AFC067
:204EE000C3C05E01E3E0B694A794EA95E1F7BB247C01EA0CFB1CF601808D918DE816F906A9
:204F000091F473E0AA0CBB1C7A95E1F7CA19DB09CC0DDD1D9F818789892341E050E060E03E
:204F200070E0A9F531C0C701A0E0B0E0F60161887288980140E0BC01CD01F301099588235F
:204F400009F4C3C0D8018C91F601878B63E0AA0CBB1C6A95E1F7CA19DB09CC0DDD1D8F8181
:204F600090E0A0E0B0E0F801408151816281738184239523A623B72341E050E060E070E06B
:204F8000892B8A2B8B2B19F440E050E0BA01D8014D935D936D937C93139791C07E01E80EB2
:204FA000F91EB70180E090E0D6015196ED91FC915297980141E00995882309F486C0F80161
:204FC00080819181A281B3819927AA27BB2773C07E01F694E794E80EF91ED60158968D914D
:204FE0009C915997E816F90641F457968C9190E0A0E0B0E0C0FF51C01AC0C701A0E0B0E056
:20500000F601A188B288980142E0BC01CD01F5010995882309F459C0D8018C91F601878B9C
:20502000C0FF40C08D919D910D90BC91A02D44E0B595A795979587954A95D1F72EC0CC0F4C
:20504000DD1F7E01E80EF91EB70180E090E0980143E009958823C9F1F80180819181A28152
:20506000B381AA27BB2727C0CC0FDD1FCC0FDD1FC80FD91FBE0180E090E0980144E0DF9129
:20508000CF911F910F91FF90EF90DF90CF90BF90AF909F907F906F900994F801808391830C
:2050A000A283B383F80180819181A281B3818F709927AA27BB2780839183A283B383D60177
:2050C0005996FC92EE92589701C0912C892DDF91CF911F910F91FF90EF90DF90CF90BF9065
:2050E000AF909F907F906F900895CF92DF92EF92FF920F931F93CF93DF9300D000D0CDB767
:20510000DEB7CC24CA94DC2C7601C982DA82EB82FC828E010F5F1F4FA7DE69817A818B81BA
:205120009C810F900F900F900F90DF91CF911F910F91FF90EF90DF90CF9008954F925F926B
:205140006F927F928F929F92AF92BF92CF92DF92EF92FF920F931F93CF93DF93CDB7DEB734
:2051600028970FB6F894DEBF0FBECDBFDC011F968D909C9050978114910409F469C16701AE
:2051800078018901742E662E5C0128DE882309F45FC1472D662DC50147DEF401B5E06B9E26
:2051A000E00DF11D11240380F481E02D29E0729EE00DF11D11242281223009F490C030F40B
:2051C000222359F0213009F46AC042C1233009F4F1C0243009F40EC13BC1D50155962D912A
:2051E0003C91569759963C932E935897480163E0969487946A95E1F72C01480C511C612C64
:20520000712C5196ED91FC9152979E012B5F3F4F40E0C301B2010995882309F419C1B8E010
:205220008B9E0019112410E04D815E816F817885F501E00FF11FC0FE07C087818A019B01C4
:20524000082BD901C8010DC0278130E0C90180959095092E000CAA0BBB0B84239523A62309
:20526000B7238D839E83AF83B8872D813E814F815885D5015396ED91FC91549700E0C3013F
:20528000B2010995882309F4E3C0D5015196ED91FC9152979E012F5F3F4F40E075C0DD24B0
:2052A000EE24FF242801480E591E612C712CD5015396ED91FC91549701E0A7019601C30100
:2052C000B2010995882309F4C3C0D5015196ED91FC9152979E012F5F3F4F41E0AAC0F50165
:2052E00025893689318F208F280156944794480E591E612C712C0188F289E02D9E012B5FB3
:205300003F4F42E0C301B2010995882309F4A0C0FFE0CF22DD24EE24FF248D819E81AF815D
:20532000B88500FF0CC08F709927AA27BB2744E0CC0CDD1CEE1CFF1C4A95D1F704C0807F6F
:205340009927AA27BB27C82AD92AEA2AFB2ACD82DE82EF82F8862D813E814F815885D5011E
:205360005396ED91FC91549702E0C301B2010995882309F46DC0D5015196ED91FC915297D1
:205380009E012F5F3F4F42E0C301B2010995882309F45EC081E00D811E812F813885498190
:2053A0005A816B817C81041715072607370709F04FC04FC0EE24FF242801440C551C480EFB
:2053C000591E612C712CD5015396ED91FC91549703E0A7019601C301B20109958823C1F1E3
:2053E000D5015196ED91FC9152979E012F5F3F4F43E01FC02801440C551C440C551C480E3E
:20540000591E612C712CD5015396ED91FC91549704E0A7019601C301B20109958823C1F0A2
:20542000D5015196ED91FC9152979E012F5F3F4F44E0C301B2010995882351F081E04981B0
:205440005A816B817C814C155D056E057F0509F080E028960FB6F894DEBF0FBECDBFDF9100
:20546000CF911F910F91FF90EF90DF90CF90BF90AF909F908F907F906F905F904F9008954B
:205480002F923F924F925F926F927F928F929F92AF92BF92CF92DF92EF92FF920F931F937A
:2054A000CF93DF93CDB7DEB729970FB6F894DEBF0FBECDBF998788876F831C821B82212C4F
:2054C000312CA885B9858C9190E0281639060CF090C01A821982C12CD12CA885B9851F966D
:2054E000ED91FC9150978B819C81E80FF91F8281082E000C990BC816D9060CF071C003802C
:20550000F481E02DA981BA81EA0FFB1F8381882321F0BF81BB2309F45AC084809580808182
:2055200091819E838D838281823079F028F4882361F0813021F04BC0853008F048C0412C03
:20554000512C3201A12CB12C2BC0A12CB12C2401612C712C2BC0A885B9851F96ED91FC91F7
:2055600050978B819C81E80FF91F0380F481E02DA981BA81EA0FFB1F8681850174018823E2
:2055800021F0E40CF51C061D171D92014C2D622D88859985D3DDBFEF4B1A5B0A6B0A7B0ABA
:2055A000AD81BE814A165B06B4F211C0ED81FE81AE16BF0664F48301720195014C2D622DE3
:2055C00088859985BBDDFFEFAF1ABF0AEFCF8FEFC81AD80AA981BA811996BA83A9837DCFBF
:2055E000BFEF2B1A3B0AEB81FC813596FC83EB8368CF29960FB6F894DEBF0FBECDBFDF9125
:20560000CF911F910F91FF90EF90DF90CF90BF90AF909F908F907F906F905F904F903F9077
:205620002F900895FC01258936896217730720F47683658381E0089580E00895CF93DF93ED
:20564000EB01811119C0642FCDD1688180E0CAD1698180E0C7D16A8180E0C4D16B8180E0D0
:20566000C1D16881898168278A8168278B81682780E0B8D181E001C080E0DF91CF91089509
:20568000EF92FF920F931F93CF93DF9300D0CDB7DEB7FA011082811174C07A018B0180E02D
:2056A000DFD0863008F46DC01A82BE016E5F7F4F80E026D18A81982F9D7F913FE1F5F70183
:2056C0008083E12CF12CBE016E5F7F4F80E018D1F1E0EF16F104A1F03CF4E114F104B9F4D7
:2056E0008A81F801808313C0E2E0EE16F10461F0F3E0EF16F10459F48A81F801838307C0D9
:205700008A81F801818303C08A81F8018283FFEFEF1AFF0A85E0E816F104A9F6F8019081B4
:2057200081819827828198278381982781E02A81921327C027C0823F21F51982BE016F5FA5
:205740007F4F80E0DDD004E010E0BE016E5F7F4F80E0D6D001501109C1F78981813049F023
:2057600030F0823049F481E00E940A1805C081E001C080E00E947D1982EFF701808381E0A9
:2057800001C080E00F900F90DF91CF911F910F91FF90EF900895811123C0109203068FB779
:2057A000F8941092C0001092C1001092C2001092C5001092C4008FBF8091C4059091C50554
:2057C0009093C3058093C2051092C8058091FD059091FE059093FC058093FB05109201067E
:2057E0000895CF92DF92EF92FF92411134C06B017C0180E0D0DFD701C601B695A795979598
:205800008795BC01CD0160587B47814E9F4FA701960198D120FF0AC0213080E138074105E2
:20582000510524F482E08093C00009C01092C000DA01C901B595A795979587959C01215019
:2058400031093093C5002093C40086E08093C20088ED8093C100FF90EF90DF90CF90089512
:2058600029E3829FC0011124FC01E057FA4F86A997A920AD21110DC042A953A924A935A9BB
:205880004217530710F0CA0102C0840F951F821B930B08951F920F920FB60F9211248F939A
:2058A00081E0809302068F910F900FBE0F901F901895FC0180AD811108C081E042A953A919
:2058C00024A935A94217530709F080E00895CF93DF93EC01EEDF81110FC08CA99DA9FE010B
:2058E000E80FF91F208118AE01966EA97FA916D19DAB8CAB822F01C080E0DF91CF910895B7
:20590000CF93DF93FB01108281110CC0EB0180E995E0CFDF811106C080E995E0D8DF888357
:2059200081E001C080E0DF91CF9108951F920F920FB60F9211242F933F934F935F936F9321
:205940007F938F939F93AF93BF93EF93FF9389EC95E0AFDF882331F08091C1008F7D809304
:20596000C10008C089EC95E0B2DF8093C60081E080938F05FF91EF91BF91AF919F918F9152
:205980007F916F915F914F913F912F910F900FBE0F901F901895CF93DF93FC0122A933A9B8
:2059A000DC01A20FB31F6C9380ADC6A9D7A9882339F084A995A90196BE01B0D095AB84ABE8
:2059C000C9010196BE01AAD09C0193AB82AB91E044A955A94217530709F090E090AFDF91FE
:2059E000CF910895CF93811124C0C62F89EC95E060DF882321F09091C00095FD03C08091B1
:205A0000010608C09FB7F894C093C600109202069FBF10C08111FECF6C2F89EC95E0BBDF66
:205A2000109202068091C10080628093C10081E001C080E0CF9108951F920F920FB60F92FD
:205A400011242F933F934F935F936F937F938F939F93AF93BF93EF93FF936091C6008091D1
:205A60000306811109C08091C805811116C080E995E091DF81E00FC08091010681110DC087
:205A800089EC95E088DF8091C10080628093C10081E080938F0580938E05FF91EF91BF911F
:205AA000AF919F918F917F916F915F914F913F912F910F900FBE0F901F901895E9ECF5E0D5
:205AC00013AA12AA15AA14AA82E390E097AB86AB10AEE0E9F5E013AA12AA15AA14AA97ABF4
:205AE00086AB10AE0895DB018F939F935CD0BF91AF91A29F800D911DA39F900DB29F900DE5
:205B000011240895991B79E004C0991F961708F0961B881F7A95C9F780950895AA1BBB1B11
:205B200051E107C0AA1FBB1FA617B70710F0A61BB70B881F991F5A95A9F780959095BC01E6
:205B4000CD010895A1E21A2EAA1BBB1BFD010DC0AA1FBB1FEE1FFF1FA217B307E407F50781
:205B600020F0A21BB30BE40BF50B661F771F881F991F1A9469F760957095809590959B0153
:205B8000AC01BD01CF010895A29FB001B39FC001A39F700D811D1124911DB29F700D811D7C
:205BA0001124911D0895F0DFA59F900DB49F900DA49F800D911D11240895EE0FFF1F0590C5
:205BC000F491E02D0994F999FECF92BD81BDF89A992780B50895A6E1B0E044E050E033C028
:205BE000A8E1B0E042E050E02EC0262FF999FECF92BD81BDF89A019700B4021639F01FBA13
:205C000020BD0FB6F894FA9AF99A0FBE08950396272FECDFEADF252FE9DF242FE7CF019686
:205C2000272FE4DFE2CF262FF999FECF1FBA92BD81BD20BD0FB6F894FA9AF99A0FBE0196C7
:205C40000895DC01CB01FC01F999FECF06C0F2BDE1BDF89A319600B40D9241505040B8F713
:205C60000895F894FFCF0000021A020000020802000005DB0100000893010000075401002A
:205C800000061E0103000100000000000006000100000001000002000000000000000006CB
:205CA0000002000000000000060001007F000000000600020000000000000600000000004E
:205CC0000000000600000000000000000600020000000000000600030000000100000600A6
:205CE0000300000000000006000300FF3F000000060002000000000000030000000000004F
:205D000000000300000000000000000300020000000000000300030000000100000300026F
:205D2000000000000000030002000400000000030002000000000000030000000000000052
:205D4000000C00000000000000000C00010000000000000C00010000000100000C0001000F
:205D60007F000000000C00020000000000000400000000000000000300020000000000008D
:205D80000100030000000000000200010000000000005601420043017F01550144014D01B6
:205DA000650164016D00500103FE0205E50209B8020A8602085E020254020700000000024D
:205DC000000000000600000700060000010003000000000600007F0006000001000600001A
:205DE00009000600017F0006000110000600000100060000010006000006000600007F005E
:205E00000600007F000600007F000600007F000600007F000600007F0006000110000300CF
:205E2000000100030000010003000007000300007F000300011000030002040003000004AD
:205E4000000300007F0003000001000C000001000C000012000C00007F000C00017F000C6E
:205E60000001100004000001000300000000020000000001010102040810204080FF020302
:205E80000406090C12182430000102030405060708090AF07F7F0600F70001FF00FF000044
:205EA00001010000FF00FF01000001020300050A64007F01003F4105F70000000000006EFE
:205EC000069C07B505380600000001020304050001020303040405050600010203040506DC
:205EE000030700010203042500002500012500022500032500042500052B00022B00032B1B
:145F000000042B00052B00062B00070001020304050066354C
:2078000034C0000057C0000055C0000053C0000051C000004FC000004DC000004BC00000FD
:2078200049C0000047C0000045C0000043C0000041C000003FC000003DC000003BC0000038
:2078400039C0000037C000005EC20000D6C1000088C100002FC000002DC000002BC0000071
:2078600029C0000027C00000C53E11241FBECFEFD8E0DEBFCDBF11E0A0E0B1E0E0EAFEE7D3
:2078800002C005900D92A830B107D9F721E0A8E0B1E001C01D92AF37B207E1F71CE3C5E3EA
:2078A000DCE303C02197FE01DDD2C433D107D1F702D0F4C2A5CFCF93DF9300D000D0CDB755
:2078C000DEB784B78D7F84BF84B7877F84BF0FB6F894A89580916000886180936000109208
:2078E00060000FBE259A2D982FEF81EE94E0215080409040E1F700C000008FEF93E0B8D2C2
:20790000182F6FEF8FEF93E0BBD2E0E0F0E085919491173419F0019609F049C090E080E8B4
:207920000FB6F89480936100909361000FBE81E085BF82E085BF40E060E076E980E090E057
:20794000D1D019821A821B821C8242EFBE016F5F7F4F80E02FD27894809100018823E1F08D
:20796000BE016F5F7F4F80E032D18823C9F380910801863088F7E82FF0E0EF5FFE4F208170
:207980009981291306C08F5F80930801863021F712D010920801E0CF9CE088E10FB6F89481
:2079A000A895809360000FBE90936000FFCFEE27FF270994B3CFDF92EF92FF920F931F93C8
:2079C000CF93DF9300D0CDB7DEB7BE016E5F7F4F80E0FDD08823C9F3BE016F5F7F4F80E041
:2079E000F6D08823C9F3098110E0102F00278A81082B0F3F8FEF180719F41092000142C09F
:207A00000115E8E71E0708F03DC083E0F80180935700E89507B600FCFDCFE12CF12CDD2474
:207A2000D394BE016E5F7F4F80E0D1D08823C9F3BE016F5F7F4F80E0CAD08823C9F3F70169
:207A4000EE0FFF1FE00FF11F898190E0982F88272A81822B0C01D0925700E8951124FFEF5E
:207A6000EF1AFF0A80E4E816F104D9F685E0F80180935700E89507B600FCFDCF81E180938F
:207A80005700E8950F900F90DF91CF911F910F91FF90EF90DF900895811123C010927E0104
:207AA0008FB7F8941092C0001092C1001092C2001092C5001092C4008FBF80913F0190913E
:207AC000400190933E0180933D0110924301809178019091790190937701809376011092E0
:207AE0007C010895CF92DF92EF92FF92411134C06B017C0180E0D0DFD701C601B695A79524
:207B000097958795BC01CD0160587B47814E9F4FA701960185D120FF0AC0213080E13807EC
:207B20004105510524F482E08093C00009C01092C000DA01C901B595A795979587959C0121
:207B4000215031093093C5002093C40086E08093C20088ED8093C100FF90EF90DF90CF901B
:207B600008951F920F920FB60F9211248F9381E080937D018F910F900FBE0F901F901895E0
:207B8000FC0180AD811108C081E042A953A924A935A94217530709F080E00895CF93DF93F1
:207BA000EC01EEDF81110FC08CA99DA9FE01E80FF91F208118AE01966EA97FA91DD19DABAE
:207BC0008CAB822F01C080E0DF91CF910895CF93DF93FB01108281110CC0EB018BE091E0A7
:207BE000CFDF811106C08BE091E0D8DF888381E001C080E0DF91CF9108951F920F920FB6DB
:207C00000F9211242F933F934F935F936F937F938F939F93AF93BF93EF93FF9384E491E03D
:207C2000AFDF882331F08091C1008F7D8093C10008C084E491E0B2DF8093C60081E08093B9
:207C40000A01FF91EF91BF91AF919F918F917F916F915F914F913F912F910F900FBE0F90AE
:207C60001F901895CF93DF93FC0122A933A9DC01A20FB31F6C9380ADC6A9D7A9882339F0E1
:207C800084A995A90196BE01B7D095AB84ABC9010196BE01B1D09C0193AB82AB91E044A926
:207CA00055A94217530709F090E090AFDF91CF910895CF93811124C0C62F84E491E060DF19
:207CC000882321F09091C00095FD03C080917C0108C09FB7F894C093C60010927D019FBFE3
:207CE00010C08111FECF6C2F84E491E0BBDF10927D018091C10080628093C10081E001C07D
:207D000080E0CF9108951F920F920FB60F9211242F933F934F935F936F937F938F939F9349
:207D2000AF93BF93EF93FF936091C60080917E01811109C080914301811116C08BE091E060
:207D400091DF81E00FC080917C0181110DC084E491E088DF8091C10080628093C10081E06D
:207D600080930A0180930901FF91EF91BF91AF919F918F917F916F915F914F913F912F9168
:207D80000F900FBE0F901F901895E4E4F1E013AA12AA15AA14AA82E390E097AB86AB10AEE7
:207DA000EBE0F1E013AA12AA15AA14AA97AB86AB10AE0895CF93DF93EB01811119C0642FA5
:207DC00078DF688180E075DF698180E072DF6A8180E06FDF6B8180E06CDF68818981682762
:207DE0008A8168278B81682780E063DF81E001C080E0DF91CF910895AA1BBB1B51E107C029
:207E0000AA1FBB1FA617B70710F0A61BB70B881F991F5A95A9F780959095BC01CD01089571
:207E2000A1E21A2EAA1BBB1BFD010DC0AA1FBB1FEE1FFF1FA217B307E407F50720F0A21B1C
:207E4000B30BE40BF50B661F771F881F991F1A9469F760957095809590959B01AC01BD01B2
:207E6000CF010895EE0FFF1F0590F491E02D0994F999FECF92BD81BDF89A992780B50895A6
:207E8000262FF999FECF1FBA92BD81BD20BD0FB6F894FA9AF99A0FBE01960895F894FFCF18
:087EA0000108040702847200CE
:04000005000078007F
:00000001FF
