:100000000C94F2010C940F020C940F020C940F024A
:100010000C940F020C940F020C940F020C940F021C
:100020000C940F020C940F020C940F020C940F020C
:100030000C940F020C940F020C94C31E0C940F022C
:100040000C940F020C940F020C94901D0C94C91D7B
:100050000C940F020C940F020C940F020C940F02DC
:100060000C940F020C940F02C40ED80ED80ED80EAA
:10007000B50ED80EBF0ED80ED80ED80ECE0EAB0EC3
:10008000D80ED80EC90ED80ED30EBA0EB00E050F6C
:10009000190F190F0F0FF60E190F000F190F190F67
:1000A000190F140FE60E190F190F0A0F190F190F58
:1000B000FB0EEB0E8C0FC90FC90FAD0F710FC90FDF
:1000C000860FC90FC90FC90FB30F310FC90FC90F61
:1000D0009D0FC90FC90F860F380FF80FFE0FFE0FC7
:1000E000FE0F0610FE0F0610FE0FFE0FFE0FFC0F98
:1000F000F40FFE0FFE0FFA0FFE0FFE0FF60FF40FB8
:10010000F6112F122F122F12ED112F12F2112F12A2
:100110002F122F121412E5112F122F1201122F126B
:100120002F12F211E9118E15E515E515E51581156A
:10013000E5158615E515E515E515B5157715E515EC
:10014000E5159D15E515E51586157C154216AF16C6
:10015000AF16AF163F16AF163C16AF16AF16AF165A
:1001600058166516AF16AF164916AF16CD16BE1641
:10017000BB1635172D172D1739172F172D173317B6
:100180002D172D172D173B173F172D172D17371725
:100190002D173D1731173F1700534301020103028A
:1001A00001000504000500000000007D0F000000B4
:1001B000000000000000000000000000000001023C
:1001C000030405060708090A0B0C0D0E0F10111287
:1001D000131415161718191A1B1C1D1E1F20212277
:1001E000232425262728292A2B2C2D2E2F30313267
:1001F000333435363738393A3B3C3D3E3F40414257
:10020000434445464748494A4B4C4D4E4F50515246
:10021000535455565758595A5B5C5D5E5F60616236
:10022000636465666768696A6B6C6D6E6F70717226
:10023000737475767778797A7B7C7D7E7F00000099
:1002400000000000000000000000000000000000AE
:10025000000000000000000000000000000001029B
:10026000030405060708090A0B0C0D0E0F101112E6
:10027000131415161718191A1B1C1D1E1F202122D6
:10028000232425262728292A2B2C2D2E2F303132C6
:10029000333435363738393A3B3C3D3E3F404142B6
:1002A000434445464748494A4B4C4D4E4F505152A6
:1002B000535455565758595A5B5C5D5E5F60616296
:1002C000636465666768696A6B6C6D6E6F70717286
:1002D000737475767778797A7B7C7D7E7F000102F6
:1002E000030405060708090A0B0C0D0E0F10111266
:1002F000131415161718191A1B1C1D1E1F20212256
:10030000232425262728292A2B2C2D2E2F30313245
:10031000333435363738393A3B3C3D3E3F40414235
:10032000434445464748494A4B4C4D4E4F50515225
:10033000535455565758595A5B5C5D5E5F60616215
:10034000636465666768696A6B6C6D6E6F70717205
:10035000737475767778797A7B7C7D7E7F00010275
:10036000030405060708090A0B0C0D0E0F101112E5
:10037000131415161718191A1B1C1D1E1F202122D5
:10038000232425262728292A2B2C2D2E2F303132C5
:10039000333435363738393A3B3C3D3E3F404142B5
:1003A000434445464748494A4B4C4D4E4F505152A5
:1003B000535455565758595A5B5C5D5E5F60616295
:1003C000636465666768696A6B6C6D6E6F70717285
:1003D000737475767778797A7B7C7D7E7F003E1C9E
:1003E0008B1DA81E11241FBECFEFD8E0DEBFCDBFEE
:1003F00026E0A0E0B1E001C01D92A931B207E1F70B
:1004000013E0C4EED3E004C02297FE010E94B11FA6
:10041000CE3DD107C9F70E946A1F0C94F21F0C94BD
:100420000000623079F018F4613031F008956330E3
:1004300079F0643099F00895FC01EA57FF4F2EEFF0
:1004400020830895FC01EA57FF4F2CEF2083089585
:10045000FC01EA57FF4F28EF20830895FC01EA577B
:10046000FF4F20EF20830895CF93DF93EC010E948C
:100470005B1FFE01E257FD4F2081269F202D112496
:1004800030E08FE090E0B9010E94791F41E018163A
:1004900019060CF040E08FE090E0B9010E94791F4E
:1004A000640FCE010E941102DF91CF9108950F9346
:1004B0001F93342F262F269526952695462F477075
:1004C0003323C1F0820F911DFC01E257FF4F01E081
:1004D00010E020E030E0D901C80104C0880F991F66
:1004E000AA1FBB1F4A95D2F7AC01BD018081482BE2
:1004F000408318C0820F911DFC01E257FF4F01E0BD
:1005000010E020E030E0D901C80104C0880F991F35
:10051000AA1FBB1F4A95D2F7AC01BD01409580814F
:10052000842380831F910F9108950F931F93342F7D
:10053000262F269526952695462F47703323C1F002
:10054000820F911DFC01EB56FF4F01E010E020E00F
:1005500030E0D901C80104C0880F991FAA1FBB1F32
:100560004A95D2F7AC01BD018081482B408318C069
:10057000820F911DFC01EB56FF4F01E010E020E0DF
:1005800030E0D901C80104C0880F991FAA1FBB1F02
:100590004A95D2F7AC01BD014095808184238083C8
:1005A0001F910F910895462F469546954695840FC5
:1005B000911DFC01E957FF4F208130E0440F440FAB
:1005C000440F641BC90102C0959587956A95E2F7AF
:1005D00081700895462F469546954695840F911D46
:1005E000FC01E257FF4F208130E0440F440F440FDD
:1005F000641BC90102C0959587956A95E2F78170E1
:100600000895462F469546954695840F911DFC0109
:10061000EB56FF4F208130E0440F440F440F641B22
:10062000C90102C0959587956A95E2F78170089592
:10063000FC01E60FF11DE25BFF4F2081FC01EA5750
:10064000FF4F8081482B822F880F482B241305C031
:1006500081E02F3F19F080E0089581E00895AF9286
:10066000BF92CF92DF92EF92FF920F931F93CF939F
:10067000DF93EC01B62E4111EDC0FC01EA57FF4FAC
:10068000A080062F10E0FC01E00FF11FE25BFF4F9E
:100690008081A81609F4B2C02FEFA21253C002C085
:1006A000AA24AA946B2DCE010E94D302813051F569
:1006B0006B2DCE010E94EA02882381F08B8984FF92
:1006C000F2C06B2DCE010E9401038111D1C0EBC09D
:1006D00040E06B2DCE010E94570222C0FE01EA5677
:1006E000FD4F0190F081E02D488161E0DE01A00F17
:1006F000B11F56968C91099541E06B2DCE010E9459
:1007000057020EC0FE01EA56FD4F0190F081E02D28
:10071000488161E0DE01A00FB11F56968C910995CA
:100720008B8984FF65C00E94E81EF801B796EE0F22
:10073000FF1FEE0FFF1FEC0FFD1F6083718382838D
:10074000938356C0CE010E94D302882309F4BAC015
:100750004FC06B2DCE010E9401038823D9F06E019A
:100760003AE6C31A3DEFD30AD601ED91FC914881D8
:1007700060E07E01E00EF11ED70156968C9109953E
:10078000D601ED91FC91498160E0D70156968C919C
:1007900009950EC0FE01EA56FD4F0190F081E02D53
:1007A000488160E0DE01A00FB11F56968C9109953B
:1007B000F801B796EE0FFF1FEE0FFF1FEC0FFD1FA6
:1007C000108211821282138240E06B2DCE010E94B2
:1007D00095020EC0FE01EA56FD4F0190F081E02D1A
:1007E000488160E0DE01A00FB11F56968C910995FB
:1007F000FE01E00FF11FE25BFF4FA0828B8984FFB7
:1008000078C00E94E81EF801B796EE0FFF1FEE0FAA
:10081000FF1FEC0FFD1FC080D180E280F3809B01A1
:10082000AC012C193D094E095F096E817F81CB0116
:10083000A0E0B0E0281739074A075B0708F459C061
:100840006B2DCE010E940103811153C03FEFA31213
:1008500050C03CC0062F10E0FC01E00FF11FE25B2E
:10086000FF4F80818F3F09F01BCFAA24AA94C6CFE7
:100870006E014AE6C41A4DEFD40AD601ED91FC91FF
:10088000488160E07E01E00EF11ED70156968C9102
:100890000995D601ED91FC91498160E0D70156960A
:1008A0008C91099515CFFE01EA56FD4F0190F0811C
:1008B000E02D488160E0DE01A00FB11F56968C91BB
:1008C000099506CF8B8984FD44CF84CFFE01EA567B
:1008D000FD4FDE01A00FB11F0190F081E02D498195
:1008E00061E056968C91099541E06B2DCE010E94F6
:1008F0009502DF91CF911F910F91FF90EF90DF90C4
:10090000CF90BF90AF9008958A569D4FFC017183A0
:10091000608308958F929F92AF92BF92CF92DF92A1
:10092000EF92FF920F931F93CF93DF931F92CDB758
:10093000DEB77C01FC01EE56FD4F8081882309F46F
:1009400051C0F701858980FF4DC01982BE016F5FDC
:100950007F4FC7010E940808F701E157FD4F208132
:10096000F701818990E0820F911D18161906D4F5C0
:1009700000E010E05701F2E7AF1AFDEFBF0A670190
:1009800081E7C81A8DEFD80A498150E0002E02C0D5
:10099000559547950A94E2F7E1E04E27F42FF17060
:1009A0008F2EC7010E94791DF5019081982E909F8E
:1009B000900C1124482D692DC7010E94180388232B
:1009C00029F0482D692DC7010E942F030F5F1F4F8B
:1009D000F6012081F701818990E0820F911D0817AF
:1009E000190794F20F90DF91CF911F910F91FF9013
:1009F000EF90DF90CF90BF90AF909F908F90089531
:100A0000CF93DF93EC0183E090E00E94D81F8883AE
:100A100084E090E00E94D81F898385E090E00E94E6
:100A2000D81F8A8386E090E00E94D81F8B8387E0DE
:100A300090E00E94D81F8C8388E090E00E94D81F2D
:100A40008D83DF91CF9108951F93CF93DF93EC01B6
:100A500089E090E00E94D81FFE01EE56FD4F808392
:100A60008AE090E00E94D81F14E6189FC00111246C
:100A70009F838E838BE090E00E94D81F189FC00157
:100A80001124998788878CE090E00E94D81FFE018E
:100A9000EE57FD4F80838DE090E00E94D81F90E0DC
:100AA0009C01220F331F880F991F880F991F880FF1
:100AB000991F820F931F9B878A878EE090E00E9488
:100AC000D81F8C8BDF91CF911F9108950F931F93A7
:100AD000CF93DF938C01CFE0D0E0CE010E94D81FEE
:100AE000F801EC0FFD1F329780832196C331D105A9
:100AF000A1F7DF91CF911F910F910895CF93DF93CD
:100B0000EC0183E190E00E94D81F8B8BDF91CF91A5
:100B10000895CF93DF93EC0184E190E00E94D81F09
:100B20008D8BDF91CF9108950F931F93CF93DF9318
:100B30008C0109571F4FC5E1D0E0CE010E94D81F9C
:100B4000F80181938F012196CC31D105B1F7DF9166
:100B5000CF911F910F9108950F931F93CF93DF9320
:100B60008C010A5E1F4FC5E2D0E0CE010E94D81F63
:100B7000F80181938F012196CD35D105B1F7DF9131
:100B8000CF911F910F910895CF93DF93EC0185EAE8
:100B900090E00E94D81FFE01E058FE4F808386EA55
:100BA00090E00E94D81FCF57DE4F8883DF91CF910E
:100BB0000895CF93DF93EC0185EB90E00E94D81F5E
:100BC000FE01E258FE4F808386EB90E00E94D81F22
:100BD000C158DE4F8883DF91CF9108950F931F9303
:100BE000CF93DF938C010E571E4FC5ECD0E0CE01A2
:100BF0000E94D81FF80181938F012196C53DD10530
:100C0000B1F7DF91CF911F910F9108950F931F932B
:100C1000CF93DF938C010E5B1D4FC5E4D1E0CE0175
:100C20000E94D81FF80181938F012196C538F1E009
:100C3000DF07A9F7DF91CF911F910F910895CF930F
:100C4000DF93EC010E940005CE010E942405CE0135
:100C50000E946605CE010E947E05CE010E94890594
:100C6000CE010E94C405CE010E94D905CE010E948A
:100C7000EE05CE010E949405CE010E94AC05CE0186
:100C80000E940606FE01EE56FD4F8081882319F072
:100C9000CE010E9433078C85882319F0CE010E9473
:100CA0005406DF91CF91089520E030E0A0E070E09D
:100CB000FC01E20FF31F6585613011F47F5F03C013
:100CC000623009F4AF5FA901552741305105D9F0D1
:100CD0001CF4452B41F046C04230510521F1433010
:100CE000510589F13FC0613041F018F0623041F0A8
:100CF00039C0249845B145B935C024982C9A32C0E2
:100D0000249A2C982FC0613041F018F0623041F0E5
:100D100029C0259845B145B925C025982D9A22C0EE
:100D2000259A2D981FC0613041F018F0623041F0D3
:100D300019C053984BB14BB915C053985B9A12C068
:100D4000539A5B980FC0613041F018F0623041F067
:100D500009C052984BB14BB905C052985A9A02C07B
:100D6000529A5A982F5F3F4F2430310509F0A0CF97
:100D7000FC01718BA28B08951F93CF93DF93142FE7
:100D8000C62FD0E0FC01EC0FFD1F45870E945406E2
:100D90002F96612FCE010E94E01FCE010E94D81F26
:100DA00091E0811390E0892FDF91CF911F910895F9
:100DB000613051F028F0623061F0633079F013C097
:100DC00083B182958170089583B185FB882780F96E
:100DD000089589B183FB882780F9089589B182FB42
:100DE000882780F9089580E00895613041F028F067
:100DF000623039F0633039F008952C9808952D98B9
:100E000008955B9808955A980895613041F028F04C
:100E1000623039F0633039F008952C9A08952D9A94
:100E200008955B9A08955A9A08958E569D4FFC0135
:100E30008081813071F08230A9F4249A8CE187B9E5
:100E40008EE78AB985B18F6085B98BB18C678BB914
:100E5000089582E08AB98FE084B98FE387B98CEF77
:100E60008BB918B80895CF93DF93EC010E94150752
:100E7000FE01EE56FD4F8081813099F0823021F5E0
:100E800031978083339785E08083319684E0808337
:100E9000319681E0808333968081836080831C86D5
:100EA00013C0FE01EF56FD4F82E08083339788E048
:100EB0008083319684E0808331968083339680816D
:100EC000806C808381E08C87DF91CF9108958E566E
:100ED0009D4FFC0180818130F1F0823031F562302C
:100EE00089F028F4662341F0613049F008956330B9
:100EF00061F0643069F008958AE78BB9089586E758
:100F00008BB908958EE68BB908958EE58BB9089557
:100F10008EE38BB9089588B1877C88B988B1876CD6
:100F2000660F660F660F682B68B908950F931F93BD
:100F3000CF93DF938C01FC01EE56FD4F8081813011
:100F400031F0823031F5611124C02C9A22C0613019
:100F500041F028F0623039F0633039F017C0289A38
:100F600015C0299A13C02A9A11C02B9A0FC0F801F4
:100F7000EC0FFD1F8585823021F46C2FC8010E9483
:100F800005072196C430D10591F703C0C0E0D0E039
:100F9000EECFDF91CF911F910F9108950F931F9383
:100FA000CF93DF938C01FC01EE56FD4F80818130A1
:100FB00021F08230A9F42C9813C085B1807F85B9C7
:100FC000C0E0D0E0F801EC0FFD1F8585823021F4F0
:100FD0006C2FC8010E94F5062196C430D10591F707
:100FE000DF91CF911F910F9108958E569D4FFC0177
:100FF0008081813031F0823051F4660F660F68B91C
:10100000089588B1887F88B988B1682B68B9089538
:10101000BF92CF92DF92EF92FF920F931F93CF93E5
:10102000DF938C017B01FC01EE56FD4F8081813006
:1010300039F0823089F583B18F70FB0180832CC039
:1010400089B182958F70FB018083C0E0D0E0B12C24
:101050006801F1E7CF1AFDEFDF0AF801EC0FFD1F81
:1010600085858130A9F46C2FC8010E94D806282FED
:1010700030E0F60180818B0DA90102C0440F551F9D
:101080008A95E2F7CA01F7012081822B8083B3940D
:101090002196C430D10509F7DF91CF911F910F91AF
:1010A000FF90EF90DF90CF90BF90089520E030E068
:1010B00045E0FC01E20FF11DEE5FFD4F40832F5F25
:1010C0003F4F20343105A9F70895FC01EE5FFD4F35
:1010D00020E030E011922F5F3F4F20343105D1F7EF
:1010E0000895FC01E657FD4F6083319640833196A9
:1010F0002083339710820895860F911DFC01EE5FC7
:10110000FD4F9081892F877F853059F08BEE890FB5
:10111000823048F09D3149F081E0973139F080E02C
:10112000089581E0089581E0089581E00895FC012B
:10113000EE5FFD4F2081222361F0319621E030E007
:101140008191882341F02F5F3F4F20343105C1F753
:1011500004C080E0089580E0089581E00895FC01D6
:10116000EE5FFD4F208121FD24C021E030E0FC0135
:10117000E20FF11DEE5FFD4F408141FD1AC02F5F70
:101180003F4F2034310599F70DC0FC01ED57FD4F5D
:1011900021E02083329610821182128213823197CD
:1011A00010820895FC01EC57FD4F20812111EDCFF5
:1011B0000895FC01EC57FD4F21E020830895CF9363
:1011C000DF93442321F0FC01338935FF79C02223CA
:1011D0000CF44AC06130D9F130E0FC01E20FF31F9A
:1011E000EE5FFD4F508153FF12C0442341F0280FA2
:1011F000391FF901EE5FFD4F25E0208335C0280F30
:10120000391FF901EE5FFD4F26E120832DC04423F5
:1012100041F0FC01E20FF31FEE5FFD4F557150836B
:1012200007C0FC01E20FF31FEE5FFD4F56715083C4
:10123000FC01E20FF31FEE5FFD4F50815370A1F4EC
:10124000280F391FF901EE5FFD4F10820DC04111CB
:101250001FC0E22FF0E0DC01AE0FBF1FAE5FBD4F3D
:101260003C9131FD0EC014C0442341F0662331F09F
:10127000FC01EC57FD4F21E0208322C00E94AF0803
:101280001FC0E80FF91FEE5FFD4F2DE02083F6CF62
:10129000FC01E20FF11DEE5FFD4F20812460C1E0F3
:1012A000D0E0DE01042E02C0AA0FBB1F0A94E2F7B1
:1012B000A22B50E1459F900111242A2B2083D4CFEB
:1012C000DF91CF910895413049F4860F911DFC01C3
:1012D000EE5FFD4F8081806180830895860F911DB0
:1012E000FC01EE5FFD4F80818F7E80830895CF9259
:1012F000DF92EF92FF920F931F93CF93DF93EC0156
:101300000E94E81EFE01EB57FD4F008111812281F2
:1013100033816B017C01C01AD10AE20AF30A4885C5
:10132000598560E070E0C416D506E606F70648F178
:1013300000E010E07E018DE7E81A8DEFF80AFE016B
:10134000E00FF11DEE5FFD4F808181FF06C0F701C8
:101350004081602FCE010E9463090F5F1F4F003450
:10136000110569F7FE01ED57FD4F908181E0892756
:1013700080830E94E81ECB57DD4F688379838A8380
:101380009B83DF91CF911F910F91FF90EF90DF90A2
:10139000CF900895BF92CF92DF92EF92FF920F937A
:1013A0001F93CF93DF938C01FC01EE56FD4F80819C
:1013B000882309F447C0F801858983FF43C0C80129
:1013C0000E94791DB82EF801EC57FD4F80818823CB
:1013D00039F0F801838985FF03C0C8010E947709AD
:1013E000F801E057FD4F8081F801228930E0280F95
:1013F000311D1216130634F5C0E0D0E06801F2E7A3
:10140000CF1AFDEFDF0A780180E7E81A8DEFF80ABE
:10141000F60180816B2D8C9F600D1124C8010E9404
:101420007C08882321F06C2FC8010E949607219622
:10143000F7018081F801228930E0280F311DC217A1
:10144000D30734F3DF91CF911F910F91FF90EF906D
:10145000DF90CF90BF9008952F923F924F925F926E
:101460006F927F928F929F92AF92BF92CF92DF92B4
:10147000EF92FF920F931F93CF93DF93CDB7DEB719
:10148000C554D1090FB6F894DEBF0FBECDBF1C0105
:1014900026966FAF269724964FAF249723962FAFAB
:1014A0002397FC01EE57FD4FC080D12C1C141D0466
:1014B0009CF49E012F5F3F4F790100E010E0C801CE
:1014C0008B539E4F0E94D81FF70181937F010F5FBE
:1014D0001F4F0C151D059CF32496FFAD2497F111A9
:1014E00006C023962FAD2397211112C04CC1C10114
:1014F0000E949708882331F023963FAD239731113E
:1015000007C041C123964FAD2397442309F451C02E
:1015100026965FAD2697511121C0F101EE57FD4F80
:10152000008110E0FE01E00FF11F808125968FAF52
:101530002597682FC1010E947C08882311F1EFEFE5
:10154000FFEFEC0FFD1FE00FF11F908125969FAF7D
:101550002597E1E02296EFAF229722C0F9812596E8
:10156000FFAF25976F2FC1010E947C08882369F087
:101570002A8125962FAF259731E022963FAF2297FB
:101580000FC022961FAE22970BC022961FAE229745
:1015900007C022961FAE229703C022961FAE229745
:1015A000412C512C320141014EE7841A4DEF940A2F
:1015B000DBC026965FAD2697511121C0F101EE5791
:1015C000FD4F008110E0FE01E00FF11F80812596A4
:1015D0008FAF2597682FC1010E947C088111D9CF58
:1015E000EFEFFFEFEC0FFD1FE00FF11F908125964D
:1015F0009FAF2597E1E02296EFAF2297D1CFF981F7
:101600002596FFAF25976F2FC1010E947C0881119D
:10161000C4CF2A8125962FAF259731E022963FAF80
:101620002297BECF0E94E81EC0900001D090010119
:10163000E0900201F09003019B01AC012C193D09DF
:101640004E095F0969017A010E945B1F6C157D05D7
:101650008E059F0508F08DC0C1010E944E1D0E949D
:10166000E81EAB01BC014419550966097709F1016F
:1016700082859385A0E0B0E084179507A607B70799
:1016800008F065C0F40180812296FFAD2297F8171B
:1016900008F052C024962FAD2497222369F0239698
:1016A0003FAD2397332321F0C1010E94650809C093
:1016B000C1010E94560810C023964FAD23974423C2
:1016C00059F0F10125965FAD2597E50FF11DEE5F0D
:1016D000FD4F85E0808309C0F10125969FAD2597D8
:1016E000E90FF11DEE5FFD4F1082F401808190E063
:1016F0009C0121503109A216B306F4F42696FFADE1
:101700002697F1110FC00297FC01EA19FB0921E0AD
:1017100030E02C0F3D1FE20FF31F308125963FAFC5
:1017200025970AC0E2E0F0E0EC0FFD1FEA0DFB1D7B
:10173000408125964FAF259722965FAD22975F5F38
:1017400022965FAF22970E94E81E2B013C01C10147
:101750000E94CA090E94E81E609300017093010173
:10176000809302019093030122968FAD2297082F58
:1017700010E05801F401808190E0019608171907E4
:101780000CF450CF04C0C1010E945608BBCECB5B05
:10179000DF4F0FB6F894DEBF0FBECDBFDF91CF9104
:1017A0001F910F91FF90EF90DF90CF90BF90AF907F
:1017B0009F908F907F906F905F904F903F902F9071
:1017C0000895FC0184898230D1F118F4813041F010
:1017D0000895833009F446C0843009F456C0089552
:1017E00021E041E061E081E293E00E942C0A21E0E7
:1017F00040E060E081E293E00E942C0A20E040E0BB
:1018000061E081E293E00E942C0A21E041E060E087
:1018100081E293E00E942C0A21E040E061E081E255
:1018200093E00E942C0A20E040E060E081E293E037
:101830000E942C0A81E293E00E946508089521E04D
:1018400040E061E081E293E00E942C0A20E040E069
:1018500060E081E293E00E942C0A81E293E00E9422
:101860006508089521E041E061E081E293E00E9493
:101870002C0A21E041E060E081E293E00E942C0A22
:1018800081E293E00E946508089521E040E061E074
:1018900081E293E00E942C0A20E040E061E081E2D6
:1018A00093E00E942C0A81E293E00E94650808956B
:1018B000FC01E557FD4F3081E954F10920812317E0
:1018C00039F0319681E090E02191231304C008950E
:1018D00080E090E00895019680349105A9F780E8B2
:1018E00008950F931F93CF93DF93EC018B8985FFAE
:1018F0001DC0FE01E457FD4F8081882361F08F33C6
:1019000061F09FEF980F9E3350F090EC980F903459
:1019100080F501E005C000E003C000E001C001E087
:101920008F5311E0813458F010E009C001E0FE014E
:10193000E457FD4F8081811101C000E010E0FE01FD
:10194000EA56FD4F0190F081E02D41E061E0812FEA
:101950000995CE010E94580C282F41E0111101C0B9
:1019600040E0602FCE010E94DF08C757DD4F81E0C5
:101970008883DF91CF911F910F910895FC01E75764
:10198000FD4F2081211102C00E94710C08958856DC
:101990009D4FFC0171836083089586569D4FFC0125
:1019A00071836083089584569D4FFC017183608329
:1019B0000895FF920F931F93CF93DF93EC01042FB1
:1019C00010E0F801EF52FF4FEE0FFF1FE80FF91F75
:1019D0008081681BF62EF7FCF1940E94E81E000F30
:1019E000111F000F111FC00FD11FCE53DE4F0881F2
:1019F00019812A813B81DC01CB01801B910BA20B59
:101A0000B30B883C9105A105B10530F481E097E066
:101A10009F153CF080E005C081E098E09F150CF038
:101A200080E0DF91CF911F910F91FF900895842F57
:101A3000880F480F440F842F662359F06F3719F42D
:101A400085E0840F08954F5F629566956770862FD5
:101A5000840F0895462F469546954695840F911D0F
:101A6000FC01E058FE4F208130E0440F440F440F4A
:101A7000641BC90102C0959587956A95E2F781704C
:101A80000895462F469546954695840F911DFC0175
:101A9000E258FE4F208130E0440F440F440F641B96
:101AA000C90102C0959587956A95E2F781700895FE
:101AB0009F92AF92BF92CF92DF92EF92FF920F93DD
:101AC0001F93CF93DF93EC018B01E42E642F0E94D0
:101AD000410D882359F0C80195958795959587956F
:101AE000959587956FE7F62EF81A08C0B801759599
:101AF00067957595679575956795F62EFE01E8567D
:101B0000FD4FC080D180C114D10431F06E2DCE01C3
:101B10000E942A0D81115AC08B8983FF3EC0CE2CB2
:101B2000D12CFE01EC0DFD1DEE57FE4F9080492D8E
:101B30006F2DCE010E94170DF82E882314F48078A3
:101B4000F80EFE01EC0DFD1DEE56FE4F8081F816DD
:101B500021F1803871F0FE01E456FD4FA080B18084
:101B6000A114B10431F06E2DCE010E942A0D811115
:101B700038C0FE01E656FD4FA080B180A114B1042B
:101B800031F06E2DCE010E942A0D811134C0CC0E91
:101B9000DD1EF601EE56FE4FF082F12CF701EF52FA
:101BA000FF4FEE0FFF1FEC0FFD1F118300830E94FC
:101BB000E81EEE0CFF1CEE0CFF1CCE0DDF1DCE53FD
:101BC000DE4F688379838A839B831AC0FE01EE0D02
:101BD000F11DEE57FE4F4A816F2D8081F601099568
:101BE0009BCFFE01E90DF11DEE56FE4F6B8180810A
:101BF000F5010995BECF6B818F2DF5010995C7CFF2
:101C0000DF91CF911F910F91FF90EF90DF90CF90D8
:101C1000BF90AF909F900895CF92DF92EF92FF9286
:101C20000F931F93CF93DF93EC01C62ED42EDD0CC0
:101C3000DD0CDD0CF12C6F2DCE010E94F5070000AC
:101C40008C2D0E94011F8C01EF2CED0C4E2DBC0140
:101C5000CE010E94D90C882329F04E2DB801CE0167
:101C60000E94580DF39488E0F812E5CFDF91CF91F0
:101C70001F910F91FF90EF90DF90CF900895DF922A
:101C8000EF92FF920F931F93CF93DF938C01FC0190
:101C9000EE56FD4F8081882309F1F801858981FF87
:101CA0001DC0C0E0D0E0D12C7801FDE6EF1AFDEFB9
:101CB000FF0AF701208130E00C2E02C035952795F0
:101CC0000A94E2F720FF06C04D2D6C2FC8010E9438
:101CD0000C0ED3942196C830D10559F7DF91CF91DE
:101CE0001F910F91FF90EF90DF90089582569D4FC6
:101CF000FC017183608308958DEA860F823098F02D
:101D0000683499F0623499F0603599F08BEB860F66
:101D1000823088F084EB860F823078F081E0623583
:101D200069F080E0089581E0089581E0089581E000
:101D3000089581E0089581E0089581E00895862F57
:101D400090E0FC01E254F109E331F10588F5EC5C27
:101D5000FF4F0C94AF1F81E0442359F180E00895B8
:101D600081E0442331F180E0089581E0442309F1CA
:101D700080E0089581E04423E1F080E0089581E06F
:101D80004423B9F080E0089581E0423090F080E093
:101D9000089581E0433068F080E0089581E04330A9
:101DA00040F080E0089581E0442319F080E0089538
:101DB00080E00895862F90E0FC01E254F109E331C0
:101DC000F105B8F5E95BFF4F0C94AF1F81E02630B9
:101DD000A8F180E00895233070F18CEF820F8230FB
:101DE00060F181E0233051F180E0089581E02430FA
:101DF00028F180E0089581E0273000F180E0089527
:101E000081E02430D8F080E0089581E02833B0F0FC
:101E100080E0089581E0203188F080E0089581E03D
:101E20002C3160F080E0089581E0203438F080E0CB
:101E3000089580E0089581E0089581E00895CF92AB
:101E4000DF92EF92FF920F93C62ED12CF601E2544F
:101E5000F109E331F10508F09CC0E65AFF4F0C94FC
:101E6000AF1F015081E0003108F4A2C080E0A0C0A3
:101E70002230E9F028F4222349F0213089F08BC088
:101E80002430E1F040F1253001F185C0802F8D7FB5
:101E900009F483C081E0013009F48AC080E088C081
:101EA000045081E00C3008F483C080E081C0015010
:101EB00081E00F3008F47CC080E07AC0015081E0FE
:101EC000063908F475C080E073C081E0053008F47D
:101ED0006FC080E06DC081E0003408F469C080E02C
:101EE00067C0223051F018F0233009F058C081E06B
:101EF000033008F45DC080E05BC0002309F451C0EA
:101F000081E0023009F454C080E052C081E0023028
:101F100008F44EC080E04CC0442319F0413039F041
:101F200042C081E0023008F443C080E041C0802F0D
:101F30008095881F8827881F3BC0423018F04230A8
:101F400031F033C081E0023098F180E031C0802F61
:101F50008095881F8827881F2BC0802F8095881F19
:101F60008827881F25C0413051F018F0423061F0B9
:101F70001EC0802F8095881F8827881F19C081E088
:101F80000034B0F080E014C081E0043088F080E0DC
:101F90000FC080E00DC080E00BC081E009C080E090
:101FA00007C081E005C080E003C080E001C080E0A0
:101FB0000F91FF90EF90DF90CF900895411104C0F2
:101FC0006D7FF1F48AE008954130E1F46D7FE1F036
:101FD000822F90E0FC01E254F109E331F10570F445
:101FE000E359FF4F0C94AF1F8FE0089580E10895EF
:101FF00081E4089589E1089589E4089580E00895D1
:102000008BE0089580E0089589E008958DE00895BB
:10201000CF93DF9300D000D01F92CDB7DEB71982E7
:1020200023E52A8323E42B8326E42C836D838256C5
:102030009D4FDC01ED91FC9165E0CE010196099583
:102040000F900F900F900F900F90DF91CF91089508
:10205000CF93FC01C485C11106C0663421F468E049
:102060000E94081013C0623571F4423028F461E018
:102070000E940810C0E00AC0211107C062E00E945F
:102080000810C0E003C0C1E001C0C1E08C2FCF91B7
:1020900008958F929F92AF92BF92CF92DF92EF926C
:1020A000FF920F931F93CF93DF937C01EB01042FDB
:1020B0002B819A8189818111B7C0933509F0B6C00F
:1020C000233409F4B7C010E0B9C0F701EC56FD4F56
:1020D0008081882309F495C01C81133008F08BC0DF
:1020E000DD8081E08D1508F480C0CE806C2DC701A5
:1020F0000E947C0E882309F472C02D2D412F6C2D77
:10210000C7010E942810182F882309F497C09E80C9
:10211000DD80CC80292D4D2D6C2DC7010E94DE0F56
:10212000081730F467E0C7010E94081010E086C06D
:102130008F80482D692DC7010E949F0E882309F4C6
:1021400048C0D11021C0D8842D2D482D692DC7013C
:102150000E94DA0E882391F081E0C8126FC00985D1
:102160002D2D482D692DC7010E941F0F182F811199
:1021700065C066E0C7010E94081060C065E0C70145
:102180000E94081010E05AC081E0C81257C0A02E6B
:10219000B12C89E0A81AB1081A141B040CF04EC027
:1021A0002896C12CD12C09912C2D482D692DC701C1
:1021B0000E941F0F182F811105C066E0C7010E9401
:1021C00008103CC08FEFC81AD80ACA14DB045CF3AD
:1021D00035C064E0C7010E94081010E02FC063E022
:1021E000C7010E94081010E029C062E0C7010E94E8
:1021F000081010E023C061E0C7010E94081010E041
:102200001DC00530A9F0F701EC56FD4F10811123D8
:1022100031F067E0C7010E94081010E00FC060E0D5
:10222000C7010E9408100AC010E008C010E006C0F4
:1022300011E004C0493008F048CFE3CF812FDF918F
:10224000CF911F910F91FF90EF90DF90CF90BF90B3
:10225000AF909F908F900895CF93DF9300D000D0E0
:10226000CDB7DEB7198223E52A8323E42B8321E44B
:102270002C83FC01EC56FD4F21E020833A9601901F
:10228000F081E02D64E0CE01019609950F900F904A
:102290000F900F90DF91CF910895623091F028F464
:1022A000662349F0613051F018C0643081F060F06D
:1022B000653081F012C0FC0180810895FC018181AC
:1022C0000895FC0182810895FC0183810895FC0139
:1022D00084810895FC018581089580E00895CF935D
:1022E000DF93EC016230E9F028F4662349F06130B5
:1022F00059F03BC0643031F108F1653091F135C0DF
:10230000CE56DD4F888132C02E813F81369527958C
:1023100036952795ABE7B4E10E94B51F9695879552
:1023200025C0288539853695279536952795ABE7BD
:10233000B4E10E94B51F9695879518C0CE57DD4F22
:10234000888114C00E94E10B2A853B85ADECBCEC72
:102350000E94B51F96958795969587959695879532
:1023600005C00E94E10B8C8901C080E0DF91CF9114
:102370000895683469F06335B1F4FC01238930E0D5
:10238000C90102C0959587954A95E2F78170089535
:10239000FC01258930E0C90102C0959587954A95D1
:1023A000E2F78170089580E008950F931F93522FF4
:1023B000062F10E0F801E254F109E331F10508F0CD
:1023C0004EC0E058FF4F0C94AF1F652F0E944D1177
:1023D00049C0652F0E946F1145C0FC01E50FF11D3A
:1023E000858540C0452F0E94B9113CC0411104C0F1
:1023F000652F0E94D30236C0FC01E50FF11D8689CE
:1024000031C0411104C0652F0E942A0D2BC04130FC
:1024100021F4652F0E94410D25C0850F911DFC01FF
:10242000EE57FE4F80811EC0411107C0850F911DE0
:10243000FC01EE5BFD4F808115C0413039F4852FE2
:1024400090E08B539E4F0E94D81F0CC0423049F43D
:10245000850F911DFC01EE5FFD4F808103C080E080
:1024600001C080E01F910F910895CF93C42F623077
:1024700081F128F4662359F06130D1F06AC06430EC
:1024800009F447C0B0F1653009F453C062C0FC01E3
:102490004083642F83E090E00E94E01F83E090E09F
:1024A0000E94D81F91E08C1709F454C090E052C0EC
:1024B000FC014183642F84E090E00E94E01F84E0EF
:1024C00090E00E94D81F91E08C1709F443C090E07F
:1024D00041C0FC014283642F85E090E00E94E01F30
:1024E00085E090E00E94D81F91E08C1799F190E070
:1024F00031C0FC014383642F86E090E00E94E01F1E
:1025000086E090E00E94D81F91E08C1719F190E0CE
:1025100021C0FC014483642F87E090E00E94E01F0B
:1025200087E090E00E94D81F91E08C1799F090E02E
:1025300011C0FC014583642F88E090E00E94E01FF9
:1025400088E090E00E94D81F91E08C1719F090E08D
:1025500001C090E0892FCF9108951F93CF93DF930F
:10256000EC01142F6230C9F128F4662361F0613068
:10257000F9F08BC0643009F445C008F475C06530CB
:1025800009F460C082C0FC01EE56FD4F40830E94FA
:102590003307612F89E090E00E94E01F89E090E01E
:1025A0000E94D81F91E0811709F470C090E06EC0BE
:1025B00024E6429FC00111249F838E83642F8AE00A
:1025C00090E00E94E01F8AE090E00E94D81F91E016
:1025D000811709F45BC090E059C024E6429FC00116
:1025E000112499878887642F8BE090E00E94E01F78
:1025F0008BE090E00E94D81F91E0811709F446C05B
:1026000090E044C0842F90E09C01220F331F880F7C
:10261000991F880F991F880F991F820F931F9B87FF
:102620008A87642F8DE090E00E94E01FCE010E9417
:10263000E10B8DE090E00E94D81F91E0811731F10D
:1026400090E024C04C8B642F8EE090E00E94E01F4D
:10265000CE010E94E10B8EE090E00E94D81F91E035
:102660008117A1F090E012C0CE57DD4F4883642F50
:102670008CE090E00E94E01F8CE090E00E94D81F68
:1026800091E0811719F090E001C090E0892FDF916F
:10269000CF911F9108950F931F93CF93DF93EC0178
:1026A000683409F443C0633509F077C0222399F0F8
:1026B00081E090E0A0E0B0E08C019D0104C0000F3B
:1026C000111F221F331F4A95D2F7B901A8018B8928
:1026D000482B4B8B1CC081E090E0A0E0B0E0042EC2
:1026E00004C0880F991FAA1FBB1F0A94D2F78095B8
:1026F0009B8989238B8B453051F410E0212F41E0D9
:1027000060E0CE010E94DF081F5F1034B9F76B89CB
:1027100083E190E00E94E01F83E190E00E94D81FD7
:1027200091E02B898217D1F190E038C0222399F0F3
:1027300081E090E0A0E0B0E08C019D0104C0000FBA
:10274000111F221F331F4A95D2F7B901A8018D89A5
:10275000482B4D8B13C081E090E0A0E0B0E08C01ED
:102760009D0104C0000F111F221F331F4A95D2F78D
:10277000B901A80140958D8948234D8B6D8984E16D
:1027800090E00E94E01F84E190E00E94D81F91E059
:102790002D89821719F090E001C090E0892FDF9118
:1027A000CF911F910F910895CF92DF92EF92FF92F8
:1027B0000F931F93CF93DF93242FE62FE695E69593
:1027C000E695462F4770F0E0EF0165962223C1F0B1
:1027D000DC01AE0FBF1FA957BF4F01E010E020E0A2
:1027E00030E06801790104C0CC0CDD1CEE1CFF1C3C
:1027F0004A95D2F7B701A6012C91422B4C9318C0F1
:10280000DC01AE0FBF1FA957BF4F01E010E020E071
:1028100030E06801790104C0CC0CDD1CEE1CFF1C0B
:102820004A95D2F7B701A60140952C9124232C9309
:10283000E80FF91F8F0109571F4FF8016081CE0182
:102840000E94E01FF8011081CE010E94D81F91E084
:10285000181390E0892FDF91CF911F910F91FF9076
:10286000EF90DF90CF9008951F93CF93DF93142FB5
:10287000262F30E0E901A596820F931FFC01468BBD
:10288000642FCE010E94E01FCE010E94D81F91E06C
:10289000811390E0892FDF91CF911F910895CF92FE
:1028A000DF92EF92FF920F931F93CF93DF93242F2A
:1028B000E62FE695E695E695462F4770F0E0EF01A6
:1028C000CB55DF4F2223C1F0DC01AE0FBF1FA05854
:1028D000BE4F01E010E020E030E06801790104C063
:1028E000CC0CDD1CEE1CFF1C4A95D2F7B701A601EB
:1028F0002C91422B4C9318C0DC01AE0FBF1FA05887
:10290000BE4F01E010E020E030E06801790104C032
:10291000CC0CDD1CEE1CFF1C4A95D2F7B701A601BA
:1029200040952C9124232C93E80FF91F8F01005818
:102930001E4FF8016081CE010E94E01FF801108156
:10294000CE010E94D81F91E0181390E0892FDF91EB
:10295000CF911F910F91FF90EF90DF90CF9008954E
:10296000CF92DF92EF92FF920F931F93CF93DF935B
:10297000242FE62FE695E695E695462F4770F0E082
:10298000EF01CB54DF4F2223C1F0DC01AE0FBF1F9C
:10299000A258BE4F01E010E020E030E0680179016C
:1029A00004C0CC0CDD1CEE1CFF1C4A95D2F7B7010D
:1029B000A6012C91422B4C9318C0DC01AE0FBF1F17
:1029C000A258BE4F01E010E020E030E0680179013C
:1029D00004C0CC0CDD1CEE1CFF1C4A95D2F7B701DD
:1029E000A60140952C9124232C93E80FF91F8F0109
:1029F00002581E4FF8016081CE010E94E01FF801CD
:102A00001081CE010E94D81F91E0181390E0892F09
:102A1000DF91CF911F910F91FF90EF90DF90CF90BA
:102A200008951F93CF93DF93142F262F30E0E901F1
:102A3000CB53DF4F820F931FFC01EE57FE4F4083B5
:102A4000642FCE010E94E01FCE010E94D81F91E0AA
:102A5000811390E0892FDF91CF911F9108951F93EB
:102A6000CF93DF93142F262F30E0E901CB5BDE4FAD
:102A7000820F931FFC01EE5BFD4F4083642FCE015C
:102A80000E94E01FCE010E94D81F91E0811390E0C8
:102A9000892FDF91CF911F9108951F93CF93DF93DB
:102AA000142FC62FD0E0CB53DE4F642FCE010E94EF
:102AB000E01FCE010E94D81F91E0811390E0892F82
:102AC000DF91CF911F910895CF92DF92EF92FF9205
:102AD0000F93322FC62ED12CF601E254F109E331C7
:102AE000F10508F072C0ED56FF4F0C94AF1F402F58
:102AF000622F0E9435126EC0402F622F0E94AD12CD
:102B000069C0402F622F0E94BC0664C021E0011101
:102B100001C020E0432F0E944B135CC0411108C04C
:102B200041E0011101C040E0632F0E94D41352C064
:102B3000402F622F0E9434144DC0411108C041E063
:102B4000011101C040E0632F0E944F1443C0413087
:102B500039F4011101C040E0632F0E94B0143AC063
:102B6000402F622F0E94111535C0411105C0402F22
:102B7000622F0E942F152EC0413029F4402F622F62
:102B80000E944D1527C0423011F5013061F028F048
:102B9000023079F0033099F01CC040E060E00E9400
:102BA000DF0881E017C040E061E00E94DF0881E0BB
:102BB00011C041E060E00E94DF0881E00BC041E00D
:102BC00061E00E94DF0881E005C080E003C080E092
:102BD00001C080E00F91FF90EF90DF90CF900895BB
:102BE000EF92FF920F931F93CF93DF937C01C0E08E
:102BF000D0E08E0108561E4FF8016491CE010E946C
:102C0000E01FCE010E94D81FF801049180130AC072
:102C10002196C534F2E0DF0761F7C7010E941F0665
:102C200081E001C080E0DF91CF911F910F91FF9073
:102C3000EF9008954F925F926F927F928F929F9242
:102C4000AF92BF92CF92DF92EF92FF920F931F93BA
:102C5000CF93DF934C01562E442E69015801862FE5
:102C600090E0FC01E254F109E331F10508F077C08E
:102C7000EA55FF4F0C94AF1F94E180E081C09FE0C4
:102C800080E07EC0442321F121E0421709F47CC09A
:102C900068C081E0481709F47AC04817E0F092E074
:102CA000491361C0F401EE5FFD4F80E090E01CC06D
:102CB00021E0421709F46EC0421720F082E0481765
:102CC00069F053C095E481E01DC093E080E008C046
:102CD00095E180E005C095EA80E002C090E080E0E8
:102CE00022E0421207C0DECF119201968034910596
:102CF000D9F73DC022E5521205C0C4010E94F0156B
:102D0000182F58C021E0A216B10461F402C0C12CF2
:102D1000D12CC92FD82FE12CF12CC60188569E4FFB
:102D20003C0105C01A141B0494F311E043C0F301E5
:102D3000EC0FFD1F04912E2D2C0D442D652DC4018B
:102D40000E946415182F81112CC0CE010E94D81F3B
:102D5000FE01E856FE4FE4918E1719F12BC010E0EA
:102D600029C010E027C010E025C010E023C011E00A
:102D700021C011E01FC099E080E002C093E180E033
:102D800022E04212BFCF8ECF95E280E0BBCF95EB21
:102D900080E0B8CF95EC81E0B5CF82E04813ADCFAD
:102DA00081CF9FEFE91AF90A2196EA14FB040CF48B
:102DB000BECFDFCF812FDF91CF911F910F91FF9079
:102DC000EF90DF90CF90BF90AF909F908F907F90CB
:102DD0006F905F904F9008956F927F928F929F9225
:102DE000AF92BF92CF92DF92EF92FF920F931F9319
:102DF000CF93DF93CDB7DEB7C958D1090FB6F8949A
:102E0000DEBF0FBECDBF6C017B01453019F40E94BF
:102E10002C11C5C0198283E58A8383E48B83DB018F
:102E200014962C9114972C8315969C9115979D833D
:102E300016968C9116978E831796BC90BF8231E4BC
:102E40003887482F50E0425451094331510528F446
:102E500047545F4FFA010C94AF1F30E011C034E0CB
:102E60000FC037E00DC034E00BC038E309C030E1DB
:102E700007C03CE105C030E403C035E401C036E0E2
:102E8000913009F080C0632E222339F085C0D7012C
:102E900018969C906624639403C03323A9F0912C68
:102EA0008E01075F1F4F5801A60CB11C292DF70199
:102EB00047816681C6010E94D511D8018D938D018D
:102EC0009394AA15BB0591F7F601E256FD4F68E011
:102ED000660D0190F081E02DCE01019609955FC04D
:102EE000F70110856624639489E002C088E010E051
:102EF000712C16141704ECF44701880E911CA12CB8
:102F0000B12CD4010D914D01212F2A0DF7014781DC
:102F10006681C6010E946415811105C069E0C60181
:102F20000E9408103CC0FFEFAF1ABF0AA614B704F6
:102F300044F3F601E256FD4F0190F081E02D68E088
:102F4000CE01019609952BC0223049F5062D10E0DF
:102F5000D70118962C9130E04B2D682FC6010E94A6
:102F60001A16811105C069E0C6010E94081017C039
:102F7000F601E256FD4F0190F081E02D68E0CE01B0
:102F8000019609950CC0222309F481CF213009F460
:102F9000A7CF66246394D8CF2130B1F6A7CFC75707
:102FA000DF4F0FB6F894DEBF0FBECDBFDF91CF91DC
:102FB0001F910F91FF90EF90DF90CF90BF90AF9057
:102FC0009F908F907F906F900895FF920F931F9323
:102FD000CF93DF93EC018B01F42E0E9449108823DC
:102FE00029F04F2DB801CE010E94EC16DF91CF9150
:102FF0001F910F91FF900895242F462F682F81E293
:1030000093E00E9471080895462FBC0181E293E08D
:103010000E94E5170895CF93DF93C82FD42F613016
:10302000B1F081E293E00E94821D882341F02D2FB0
:1030300040E06C2F84E091E00E94A7190FC02D2F73
:1030400040E06C2F84E091E00E949E1907C0242F7D
:103050004FE7682F84E091E00E949E19DF91CF91A5
:103060000895262F4FE7682F84E091E00E949E1973
:103070000895CF93DF93C82FD62F81E293E00E946B
:10308000821D882341F02D2F40E06C2F84E091E0D9
:103090000E94A71907C02D2F40E06C2F84E091E01B
:1030A0000E949E19DF91CF910895242F462F682FFB
:1030B00084E091E00E94B019089570E020E0AC0136
:1030C00084E091E00E940F1908956BE078E181E2BD
:1030D00093E00E94840465E578E181E293E00E9438
:1030E000C70C61E378E181E293E00E94CD0C69E3D3
:1030F00078E181E293E00E94D30C6DE578E181E212
:1031000093E00E94760E08956CEF77E184E091E001
:103110000E944C1B64E078E184E091E00E94521B25
:103120000895CF9361E070E080E090E00E94521F2C
:1031300081E293E00E945D1C0E9465180E94841841
:1031400081E293E00E94871DC82F81E293E00E94F4
:103150007F1D4C2F682F84E091E00E94F11840E021
:1031600056E960E070E081EC95E00E94621ECF912C
:10317000089581E293E00E944E1D81E293E00E9457
:10318000CA0981E293E00E948A04089584E091E0F4
:103190000E94391C81E293E00E94BE0C81E293E020
:1031A0000E943F0E0895FC01E55FFD4F11821082E1
:1031B00032961182108232961182108232961182DA
:1031C00010823296118210823296118210823296CB
:1031D00011821082329611821082329611821082F0
:1031E0000895FC0141834111108263831282DF0143
:1031F000AB5FBE4F11961C921E92129711961C92B5
:103200001E92A95FBE4F1C92A250B1401C92119712
:103210001C9212961C92E65FFE4F10820895CF9288
:10322000DF92EF92FF920F931F93CF93DF937C0176
:103230008B016A01222321F016161706D4F024C050
:1032400060EF81EC95E00E94271E101611065CF4D9
:10325000E6010C0D1D1D699181EC95E00E94271E71
:10326000C017D107C1F767EF81EC95E00E94271ED8
:103270000BC0EA01040F151F699181EC95E00E94D3
:10328000271EC017D107C1F7F70181818111108274
:10329000DF91CF911F910F91FF90EF90DF90CF9032
:1032A0000895683F29F040F086E0860F833020F4CF
:1032B00081EC95E00E94271E08950F931F93CF93F2
:1032C000DF93C62FD22F0150003110F4662334F063
:1032D000FC012181222369F110822BC0613E28F577
:1032E000142F1F770F70602F6C2BFC01218122237C
:1032F00049F02081261751F0608381EC95E00E940F
:10330000271E04C081EC95E00E94271E612F81ECEE
:1033100095E00E94271ECF7EC03C59F06D2F6F773D
:1033200081EC95E00E94271E04C0663F10F00E94C9
:103330005119DF91CF911F910F9108950F93022F93
:10334000242F462F60E90E945D190F9108950F9375
:10335000022F242F462F60E80E945D190F910895D7
:103360000F93022F242F462F60EB0E945D190F91BF
:103370000895CF93DF93EC0181EC95E00E94991EB4
:10338000181619060CF063C181EC95E00E940A1E24
:10339000FE01EB5FFE4F208131812115310509F0DF
:1033A0008CC08C839A8199231CF52CE0290F223044
:1033B000F8F0292F2B7F293FD9F0903F18F4292FBF
:1033C000207F01C0292F203941F018F4203829F03E
:1033D0000FC0203B11F0203E59F488234CF09C8311
:1033E0008D8381E090E0FE01EB5FFE4F918380834F
:1033F0008C8188230CF04DC09CE0980F923008F42B
:1034000048C0982F9B7F993F09F443C0803F18F430
:10341000982F907F01C0982F903E51F138F4903949
:1034200039F1903B29F1903819F133C0983F39F0C8
:1034300018F4903F29F12DC09A5F933050F5803FEA
:1034400008F4807FFE01E85FFE4F80833197108291
:103450003296108231961082F39581E08083E55098
:10346000F14011821082CD5FDE4F19821882F6C0C2
:1034700083E090E0FE01ED5FFE4F9183808314C0F6
:103480008FEF90E0FE01ED5FFE4F918380831A8203
:103490000BC0FE01EB5FFE4F11821082329711824A
:1034A00010821A8280E0DAC0CB5FDE4F888199817A
:1034B00001969983888380E0D1C088230CF05BC09B
:1034C000883F49F018F4873FA9F055C096E0980F5F
:1034D000933008F050C0FE01E85FFE4F80833196C4
:1034E00010823196108233971082C65FDD4F81E0E3
:1034F0008883B4C08C8188239CF59CE0980F92301F
:1035000078F1982F9B7F993F59F1803F08F4807F95
:10351000803F31F5DE011496FE01E55FFE4F8FEF2F
:103520009D9191938150E1F7FE01E85FFE4F80EF9E
:103530008083319681E0820F808331962F5F3F4FE9
:10354000308333971082ED5FFE4F81E08083E5503A
:10355000F140118210823297118210821A827EC04D
:10356000FE01EB5FFE4F11821082329711821082B2
:103570001A8280E073C0FE01E20FF31F8483FE0114
:10358000ED5FFE4F80819181AC01415051092417BC
:10359000350708F454C03C813323D4F42CE0230FC6
:1035A0002230C0F0232F2B7F293FB1F0303F08F0AD
:1035B00050C0232F207F203F81F4FE01EB5FFE4FA0
:1035C000118210823297118210821A8280E046C0E6
:1035D00020E003C020E001C020E0FE01E85FFE4FD4
:1035E00020833197432F4F704F5F40834D81329638
:1035F0004083039721F48E813196808304C0FE01BD
:10360000E65FFE4F1082FE01EB5FFE4F11821082DB
:1036100032971182108281E0E95FFE4F808320396A
:1036200041F018F4203841F404C0203B11F0203E52
:1036300019F43A8381E012C01A8281E00FC0CB5F97
:10364000DE4F2F5F3F4F3983288380E007C080E043
:1036500005C0303F09F4B1CF232FBFCFDF91CF9109
:103660000895FC01E85FFE4F2081222379F0205865
:10367000213670F4FC012381E95FFE4F80818217BF
:1036800049F081E0222339F080E0089580E0089538
:1036900081E0089581E00895835F9D4FFC0171836F
:1036A000608308958D5E9D4FFC0171836083089552
:1036B000CF93DF93FC01E85FFE4F2081203F09F4A8
:1036C0007FC068F4203989F118F42038B9F0AFC010
:1036D000203B09F441C0203E09F455C0A8C02A3F50
:1036E00009F488C020F4283F09F47AC0A0C02B3F19
:1036F00009F48AC02C3F09F491C099C0FC01E55F30
:10370000FD4F0190F081E02D309709F490C0EC015D
:10371000C65FDE4FDC01A75FBE4F895F9E4F4881C9
:103720006C91DC018C91099582C0FC01E35FFD4F37
:103730000190F081E02D309709F479C0EC01C65F6B
:10374000DE4FDC01A75FBE4F895F9E4F48816C91C1
:10375000DC018C9109956BC0FC01E15FFD4F01908C
:10376000F081E02D309709F462C0EC01C65FDE4FB6
:10377000DC01A75FBE4F895F9E4F48816C91DC01E1
:103780008C91099554C0FC01EF5EFD4F0190F081D2
:10379000E02D309709F44BC0DC01A65FBE4F6C9161
:1037A0006F77B0E86B9FB0011124DC01A75FBE4FBB
:1037B0002C912F77622B705212978C91099537C0FC
:1037C000FC01ED5EFD4F0190F081E02D309779F125
:1037D000DC01A75FBE4F6C91855F9E4F099527C0A6
:1037E000FC01EB5EFD4F0190F081E02D3097F9F088
:1037F00009951DC0FC01E95EFD4F0190F081E02DAF
:103800003097A9F0099513C0FC01E75EFD4F0190C8
:10381000F081E02D309759F0099509C0FC01E55E73
:10382000FD4F0190F081E02D309709F00995DF916F
:10383000CF9108951F93CF93DF93EC01162F613141
:1038400078F40E94B919882369F0612FCE010E9493
:10385000311B882349F0CE010E94581B81E005C02E
:1038600080E003C080E001C080E0DF91CF911F9134
:103870000895FC0163810E941A1C089584E091E080
:103880000E94D318089580E090E00E94D81F811113
:103890000FC081E090E00E94D81F833559F482E088
:1038A00090E00E94D81F91E0833429F490E003C097
:1038B00091E001C091E0892F0895CF93DF93EC014F
:1038C0000E94431C882321F0CE010E94F01503C002
:1038D000CE010E941F06CE010E943402FE01EA576B
:1038E000FF4F8081F89720E030E081932F5F3F4FBA
:1038F00028333105D1F7FE01EE56FE4F20E030E0CF
:1039000080E881932F5F3F4F20313105D1F7FE01D1
:10391000ED57FD4F81E0808336968083CE010E9473
:103920003F0ECE010E94E10BDF91CF910895CF931E
:10393000DF93FC011082118212821382148215829D
:10394000178216821186108613861286138A148AAD
:10395000158A4696EF01C25BDF4FAF0144565F4FB9
:1039600028E3DC011D92CD011992DA011D921D920E
:103970001D921D92AD012150A1F788E3DF01AB56E6
:10398000BD4F8C93B25087E0ED012E971882279699
:1039900018821D928150C1F787E0DF01AB56BD4F01
:1039A0008C93AF50B2401C929F012E573E4FCF01D7
:1039B0008E569E4FEF01CE55DE4FBF016E537E4FA8
:1039C00040E1D9011D929D01DC011D92CD011992AA
:1039D0001992DB011D921D921D921D92BD01415055
:1039E00081F7DF01A258BE4F1C9212961C921197CC
:1039F0001C9212961C9282E0AC5EBE4F8C93129782
:103A00001C92EF01CE5FDD4FA155B10980E4199200
:103A10001D928150E1F7DF01AE57BD4F1C92119608
:103A20001C9211961C9211961D921D921D921C9231
:103A3000139714961C9211961C9211961C92119633
:103A40001C9211961C9217961C9212971C92158626
:103A500016861786108A139684E08C931486118A32
:103A6000128ADF91CF910895CF93DF93EC010E94EA
:103A7000971CFE01EA56FD4F118210823296118288
:103A80001082329611821082329611821082C256B2
:103A9000DD4F19821882DF91CF9108950F931F9304
:103AA000CF93DF93EC01DC01A357BD4FFC01E2573C
:103AB000FD4F9C918081981302C0FD011082FE0190
:103AC000EE56FD4F8081882379F0CE010E94CE070B
:103AD0008E0103571D4FF8016081CE010E946707D8
:103AE000F80180818F5F8083DF91CF911F910F91CB
:103AF000089583579D4FFC01808181500895FC01FA
:103B000085810895FC018389869581700895FC0163
:103B100083898170089581E293E00E94341D0895A5
:103B20001F920F920FB60F9211242F933F934F9332
:103B30008F939F93AF93BF93EF93FF934091C600F2
:103B40008091C00082FD17C08091090690910A06FD
:103B500001968F71992720910B0630910C068217E0
:103B6000930749F0E9E0F6E0A081B181A751BA4F8F
:103B70004C9391838083FF91EF91BF91AF919F917F
:103B80008F914F913F912F910F900FBE0F901F90EB
:103B900018951F920F920FB60F9211242F933F93F7
:103BA0008F939F93AF93BF93EF93FF932091E5057E
:103BB0003091E6058091E7059091E80528173907CF
:103BC00031F4E1ECF0E080818F7D808310C0E7EE7E
:103BD000F5E0A081B181AB53BA4F2C9180819181E6
:103BE00001968F719927918380832093C600FF915E
:103BF000EF91BF91AF919F918F913F912F910F9036
:103C00000FBE0F901F901895FC0171836083538342
:103C1000428308954FB7F894DC01ED91FC9120A107
:103C200031A182A193A12817390771F0A2A1B3A1F4
:103C3000AE0FBF1F8C9122A133A12F5F3F4F2F7179
:103C4000332733A322A301C08FEF4FBF0895DC01B8
:103C50004FB7F8941296ED91FC91139780A191A122
:103C600001968F71992722A133A14FBF8217930725
:103C700061F44FB7F8941296ED91FC91139722A13D
:103C800033A14FBF82179307A1F34FB7F894129651
:103C9000ED91FC91139720A131A1E20FF31F6083F6
:103CA0001296ED91FC91139791A380A34FBFE1EC85
:103CB000F0E0808180628083E0ECF0E080818064CD
:103CC0008083089529EE35E0FC013183208325ECC3
:103CD00035E033832283DB01CA01880F991FAA1FB5
:103CE000BB1F880F991FAA1FBB1F9C01AD01220F8C
:103CF000331F441F551F220F331F441F551F60E001
:103D000074E284EF90E00E948D1FDA01C9010197EF
:103D1000A109B109492F5A2F6B2F77274093C5006E
:103D20008093C40088E98093C10086E08093C2003C
:103D300008954FB7F894DC01ED91FC9180A191A119
:103D400022A133A14FBF821B930B8F719927089536
:103D500045EC55E069EE75E081EC95E00E94041EAB
:103D6000089514BC15BCEEE6F0E0108284B58260C4
:103D700084BD85B5836085BD89EF87BD16BC808114
:103D80008260808308951F920F920FB60F921124C4
:103D90008F939F93AF93BF938091150690911606D2
:103DA000A0911706B09118060196A11DB11D809330
:103DB000150690931606A0931706B0931806BF91A8
:103DC000AF919F918F910F900FBE0F901F901895FC
:103DD0002FB7F8946091150670911606809117061A
:103DE000909118062FBF0895ACE7B0E01C92EAE767
:103DF000F0E010828C9180648C938081876880834E
:103E000008958830A0F4ECE7F0E090818F70907F07
:103E1000892B8083EAE7F0E0808180648083808161
:103E200086FDFDCF809178009091790008958FEF05
:103E30009FEF0895CF92DF92EF92FF920F931F931F
:103E40000E94E81E00910D0610910E0620910F06AB
:103E5000309110066B017C01C01AD10AE20AF30A04
:103E600041E08091110690911206A0911306B09145
:103E70001406C816D906EA06FB0608F440E0842FAB
:103E80001F910F91FF90EF90DF90CF9008950E94C7
:103E9000E81E60930D0670930E0680930F069093B4
:103EA000100608956093110670931206809313060E
:103EB00090931406089560911106709112068091F6
:103EC00013069091140608950E94F41E0E94B11EDC
:103ED000789408950E94641F0E9491180E94C61849
:103EE0000E941A1F8823D1F30E94B9180E94471F0D
:103EF000F5CF97FB072E16F4009407D077FD09D075
:103F00000E94C41F07FC05D03EF4909581959F4FF9
:103F10000895709561957F4F0895A1E21A2EAA1B0E
:103F2000BB1BFD010DC0AA1FBB1FEE1FFF1FA21769
:103F3000B307E407F50720F0A21BB30BE40BF50B66
:103F4000661F771F881F991F1A9469F760957095EF
:103F5000809590959B01AC01BD01CF010895EE0FB6
:103F6000FF1F0590F491E02D0994A29FB001B39F2B
:103F7000C001A39F700D811D1124911DB29F700D72
:103F8000811D1124911D0895AA1BBB1B51E107C07F
:103F9000AA1FBB1FA617B70710F0A61BB70B881FD9
:103FA000991F5A95A9F780959095BC01CD01089568
:103FB000F999FECF92BD81BDF89A992780B50895F1
:103FC000262FF999FECF92BD81BDF89A019700B4D2
:103FD000021639F01FBA20BD0FB6F894FA9AF99A72
:083FE0000FBE0895F894FFCF15
:00000001FF
