:020000040000FA
:200000003CC000005FC000005DC000005BC0000059C0000057C0000055C0000053C0000035
:2000200051C000004FC000004DC0000083C40000C0C2000047C0000045C0000043C00000BB
:2000400041C000003FC000003DC000004CC2000039C0000037C0000035C0000003C20000EB
:20006000C2C10000B1C100002DC000002BC0000029C00000341000006D0711241FBECFEF42
:20008000D2E0DEBFCDBF11E0A0E0B1E0E0E8FFE002C005900D92A43BB107D9F722E0A4EBEE
:2000A000B1E001C01D92A539B207E1F710E0CDE3D0E003C02197FE015BD7CC33D107D1F735
:2000C00005D55CC79DCFCF93DF939C01EB014FB7F894FC01EC5AFF4F808191814FBF892B62
:2000E000F9F04FB7F894D901AE5ABF4F6D917C91119712978D919C91860F971FA081B18150
:200100008A1B9B0B21D7D901A80FB91F8C918883808191810197918380834FBF81E001C019
:2001200080E0DF91CF9108952091E4003091E50095E64091EC00842F817040FF23C08091A8
:20014000E80080FD1DC080913802882399F0853099F08091EB0085FD11C04091E4005091BB
:20016000E5002417350729F3915011F09A01E1CF84E0089582E0089583E0089581E00895DC
:2001800080E008954091E80042FFDDCF08958091B40187FF11C08091E80082FD05C08091B4
:2001A00038028111F8CF11C08091E8008B770BC080913802882349F08091E80080FFF8CFA7
:2001C0008091E8008E778093E8000895982F953068F59093E900981739F07091EC0020911E
:2001E000ED005091F00003C0242F762F50E021FD02C09F5FECCF3091EB003E7F3093EB00A6
:200200003091ED003D7F3093ED003091EB0031603093EB007093EC002093ED005093F00077
:200220002091EE0027FDE5CF80E008958F708093E90081E008952091BA013091BB0126172B
:20024000370748F06115710539F42091E8002E772093E80001C0B901FC0120E061157105D2
:2002600061F1809138028823D9F18530D9F18091E80083FD39C08091E80082FD2BC0809107
:20028000E80080FFEBCF8091F20090E06115710551F08830910538F421912093F10061501C
:2002A00071090196F3CF21E0089709F020E08091E8008E778093E800D1CF2111D2CF0AC09C
:2002C00080913802882361F0853061F08091E80083FD0AC08091E80082FFF2CF80E0089556
:2002E00082E0089583E0089581E00895F89484B7877F84BF8091600080618093600010928A
:2003000060008FE19EE40197F1F700C000001FBA10BE1CBC1DBA1092680010926E00109239
:200320006F001092C8001092C9001092CA0015B818B81BB814B817B81AB88091E00081605E
:200340008093E00098E088E10FB6F894A895809360000FBE90936000FFCF0F931F93CF93F4
:20036000DF937FB7F894EC01CC5ADF4F48815981DC01AE5ABF4F2D913C9111977FBF4217A8
:200380005307E0F44FB7F8948C01005B1F4FF80120813181FC01E20FF31F6083C9010196B7
:2003A0006D917C91D1D5F80191838083888199810196998388834FBF81E001C080E0DF919B
:2003C000CF911F910F9108951F920F920FB60F9211248F9381E0809394028F910F900FBE2B
:2003E0000F901F9018951F920F920FB60F9211242F933F934F935F936F937F938F939F9345
:20040000AF93BF93EF93FF93CF93DF931F92CDB7DEB7BE016F5F7F4F8EE392E054DE88237B
:2004200041F05C9882E380932A0289818093CE0005C08091C9008F7D8093C9000F90DF9172
:20044000CF91FF91EF91BF91AF919F918F917F916F915F914F913F912F910F900FBE0F90D1
:200460001F9018951F920F920FB60F9211242F933F934F935F936F937F938F939F93AF9321
:20048000BF93EF93FF936091CE008091C001811108C08CEC91E061DF8823A1F05D9882E34C
:2004A0000FC08EE392E059DF882361F08091C90080628093C9005C9882E380932A025D9831
:2004C00080932B02FF91EF91BF91AF919F918F917F916F915F914F913F912F910F900FBE10
:2004E0000F901F9018951F920F920FB60F9211248F939F93AF93BF939091000181E08927F9
:2005000080930001882309F44BC08091BC019091BD01A091BE01B091BF010196A11DB11D53
:200520008093BC019093BD01A093BE01B093BF0180912B02882351F080912B0281508093C9
:200540002B0280912B02811101C05D9A80912A02882351F080912A02815080932A0280915F
:200560002A02811101C05C9A8091C601882351F08091C60181508093C6018091C601811155
:2005800001C05D9A80912902882351F08091290281508093290280912902811101C05C9AAB
:2005A000BF91AF919F918F910F900FBE0F901F9018951F920F920FB60F9211240F931F93B3
:2005C0002F933F934F935F936F937F938F939F93AF93BF93EF93FF93CF93DF93CDB7DEB7B6
:2005E000AA97DEBFCDBF1091E9001F709091EC00892F817090FD80E8182B1092E9008091EE
:20060000F000877F8093F0007894E4EBF1E08091F100819321E0EC3BF207C9F78091E80045
:2006200083FF50C18091B4019091B501953009F480C030F49130A9F168F0933091F142C169
:20064000983009F4F6C0993009F406C1963009F039C191C0803821F0823809F033C108C050
:200660008091C2019091C301992389F082600FC08091B8018F70853008F024C18093E90084
:200680008091EB0085FB882780F91092E9009091E800977F9093E8008093F1001092F1006A
:2006A000D4C0282F2D7F09F00DC1882319F0823061F008C18091B601813009F003C1933063
:2006C00009F080E08093C3012EC08091B60181112AC08091B8018F702FEF280F243008F04E
:2006E000F1C08093E9002091EB0020FF1CC0933021F48091EB00806214C09091EB0090612F
:200700009093EB0021E030E0A90102C0440F551F8A95E2F74093EA001092EA008091EB004A
:2007200088608093EB001092E9008091E800877F8FC08111C7C00091B6010F778091E3001F
:200740008078802B8093E3008091E800877F8093E8001DDD8091E80080FFFCCF8091E300D5
:2007600080688093E300011102C082E001C083E080933802A7C08058823008F0A3C0809197
:20078000B6019091B7018C3D53E0950769F583E08A838AE289834FB7F894DE01139620E0D1
:2007A0003EE051E2E32FF0E050935700E49120FF03C0E295EF703F5FEF708E2F90E0EA305B
:2007C00010F0C79601C0C0968D939D932F5F243149F74FBF8091E800877F8093E8006AE2DE
:2007E00070E0CE01019668C0292F33272230310541F02330310551F02130310509F062C044
:2008000052C065E670E083E191E051C099278130910551F008F489C0029709F053C062E1D0
:2008200070E080EA91E043C062E270E08CE791E03EC0803809F046C08091E800877F80934B
:20084000E8008091C4018093F1008091E8008E778093E8009CDC36C0811134C08091B60121
:200860009091B701992702976CF58091E800877F8093E8000091B6010093C40188DC0023C4
:2008800061F084E08093380242E361E881E09EDC42E360E882E09ADC15C08091E30087FD7B
:2008A000F0CF81E0EFCF62E170E081E091E02091E800277F2093E800BEDC8091E8008B7786
:2008C0008093E8008091E80083FF0AC08091E800877F8093E8008091EB0080628093EB0002
:2008E0001092E9008091F00088608093F0001F701093E900AA960FB6F894DEBF0FBECDBFDF
:20090000DF91CF91FF91EF91BF91AF919F918F917F916F915F914F913F912F911F910F9157
:200920000F900FBE0F901F90189564E070E088E791E0BDCF1F920F920FB60F9211242F93A1
:200940003F934F935F936F937F938F939F93AF93BF93EF93FF938091E10082FF09C0809194
:20096000E20082FF05C08091E1008B7F8093E1008091E10080FF16C08091E20080FF12C0D4
:200980008091E2008E7F8093E2008091E20080618093E2008091D80080628093D80019BC0E
:2009A000109238028091E10084FF2EC08091E20084FF2AC084E089BD86E089BD09B400FE87
:2009C000FDCF8091D8008F7D8093D8008091E1008F7E8093E1008091E2008F7E8093E20083
:2009E0008091E20081608093E2008091C401882311F084E007C08091E30087FD02C081E0E6
:200A000001C083E0809338028091E10083FF26C08091E20083FF22C08091E100877F8093A9
:200A2000E10082E0809338021092C4018091E1008E7F8093E1008091E2008E7F8093E200D7
:200A40008091E20080618093E20042E060E080E0BDDB8091F00088608093F000FF91EF9177
:200A6000BF91AF919F918F917F916F915F914F913F912F910F900FBE0F901F901895CF935D
:200A8000C82F80919402882349F02FB7F89480919202909193022FBF892B71F06C2F8EE3F8
:200AA00092E05BDC8823D1F3109294028091C90080628093C90007C0109294028FB7F8947D
:200AC000C093CE008FBF81E0CF910895CF93DF931F92CDB7DEB7F89484B78D7F84BF84B75A
:200AE000877F84BF0FB6F894A89580916000886180936000109260000FBE90E080E80FB6E6
:200B0000F89480936100909361000FBE559A549A559A549A5D9A5C9A5D9A5C9A8091C1011D
:200B2000811147C08FB7F8941092C8001092C9001092CA001092CD001092CC008FBF10923C
:200B4000C0018FB7F89410921D0210921C0210922102109220028FBF8FB7F89410928F02A5
:200B600010928E0210929302109292028FBF81E0809394021092C1019FB7F8941092C800CE
:200B80001092C9001092CA001092CD001092CC009FBF1092C80029E130E03093CD0020937C
:200BA000CC0096E09093CA0098ED9093C9008093C10181E080932C0291E890932D0220E44F
:200BC00030E030932F0220932E028093310292E090933202309334022093330280933602F3
:200BE000909163009E7F909363008093C5011092E2001092E1008091D8008F778093D80014
:200C00008091D80080688093D8008091D8008F7D8093D80084E089BD86E089BD09B400FE27
:200C2000FDCF109238021092C4011092C3011092C20142E060E080E0C9DA8091E1008E7F76
:200C40008093E1008091E20081608093E2008091E20088608093E2008091E0008E7F8093F6
:200C6000E00014BC15BC10926E0084B5826084BD85B5836085BD8CE787BD80916E00826010
:200C800080936E00789452E0C52E62E3D62E0CEC11E080913802843009F056C0C092E90027
:200CA0008091E80082FF50C03FDA81111DC034E0E32EF12C4AE3A42E42E0B42E09C0809103
:200CC000F100F50181935F01F1E0EF1AF10861F08091E80085FDF3CF8091E8008B7780934A
:200CE000E80022DA8823A1F38091F200811105C08091E8008B778093E8005D98D092C60163
:200D000081EFBDDE882301F180913A02B8DE8823D9F080913B02B3DE8823B1F080913C025A
:200D2000AEDE882389F080913D02A9DE882361F090913A0280913B02892790913C028927C6
:200D400090913D0289279BDE26E0E22EF12C1982BE016F5F7F4F8CEC91E0B5D9882371F15D
:200D60008981E0912802E630C8F023E232E047EC51E0DA01F90191919F019D930A171B077B
:200D8000C9F7A2E2B2E0FA019191AF019D93F1E04C3C5F07C1F78093270208C091E09E0FE7
:200DA00090932802F0E0EE5DFD4F808380912802863021F081E0E81AF10849F680912802A4
:200DC000863009F066CF80912202982F9D7F913F19F0823F09F05DCF8093390280912302D4
:200DE00030912402209125029091260280933A0230933B0220933C0290933D0238272327A0
:200E0000922720912702291344CF1092280210922202109223021092240210922502109264
:200E200026021092270290913902923F61F4882329F0813009F02DCF6FEF01C067E48FEFEB
:200E400091E074D053DA80913802843009F021CF80912D028F708093E90066D9811119CFD4
:200E600084E0E82EF12C9AE3A92E92E0B92E8091E80085FD09C08091E8008E778093E800F1
:200E800053D98823A1F305CFF50181915F018093F100F1E0EF1AF10851F78091E80085FD11
:200EA00005C08091E8008E778093E80080913802843079F480912D028F708093E9008091BC
:200EC000F200882331F08091E8008E778093E8002BD95C98D0922902DCCE20E5EEE3F2E084
:200EE000DF01822F1D928A95E9F710928F0210928E0280E590E0909391028093900210927C
:200F0000930210929202ECECF1E0DF011D922A95E9F710921D0210921C0290931F02809357
:200F20001E0210922102109220020895262FF999FECF1FBA92BD81BD20BD0FB6F894FA9A8F
:200F4000F99A0FBE01960895AA1BBB1B51E107C0AA1FBB1FA617B70710F0A61BB70B881F21
:200F6000991F5A95A9F780959095BC01CD010895EE0FFF1F0590F491E02D0994F894FFCF8F
:200F80000112010002000000080912728401000102000109026500020100803209040000EB
:200FA000000101000009240100010900010109040100020103000007240100014100062449
:200FC00002010100062402020200092403010301020100092403020401010100090502025A
:200FE0004000050000052501010109058102400005000005250101030403090422035300EE
:20100000680061006E00740065006100200043006F006E00740072006F006C0073000000EB
:1610200012034F00700065006E004400650063006B000000398FD4
:203000003CC000005FC000005DC000005BC0000059C0000057C0000055C0000053C0000005
:2030200051C000004FC000004DC00000DEC3000031C2000047C0000045C0000043C00000C0
:2030400041C000003FC000003DC000003BC0000039C0000037C0000035C00000E5C10000ED
:2030600092C1000081C100002DC000002BC0000029C00000000000008A1C11241FBECFEF84
:20308000D2E0DEBFCDBF11E0A0E0B1E0E2E2FFE302C005900D92AC3BB107D9F722E0ACEBAF
:2030A000B1E001C01D92A53DB207E1F718E1CDE3D8E103C02197FE012CD7CC33D107D1F71E
:2030C00056D42DC79DCF0F931F93CF93DF937FB7F894EC01CC5ADF4F48815981DC01AE5AB3
:2030E000BF4F2D913C9111977FBF42175307E0F44FB7F8948C01005B1F4FF8012081318196
:20310000FC01E20FF31F6083C90101966D917C91ECD6F801918380838881998101969983B8
:2031200088834FBF81E001C080E0DF91CF911F910F9108952091E4003091E50095E64091B0
:20314000EC00842F817040FF22C08091E80080FD1CC08AB5882399F0853099F08091EB00BF
:2031600085FD11C04091E4005091E5002417350731F3915011F09A01E2CF84E0089582E055
:20318000089583E0089581E0089580E008954091E80042FFDECF08958091C00187FF0FC02C
:2031A0008091E80082FD04C08AB58111F9CF10C08091E8008B770AC08AB5882349F0809171
:2031C000E80080FFF9CF8091E8008E778093E80008958F708093E900EBEEF0E080818160A4
:2031E0008083EDEEF0E010826093EC0040838091EE00881F8827881F08952091C60130911B
:20320000C7012617370748F06115710539F42091E8002E772093E80001C0B901FC0120E0C9
:203220006115710559F18AB58823D1F18530D1F18091E80083FD38C08091E80082FD2AC062
:203240008091E80080FFECCF8091F20090E06115710551F08830910538F421912093F100CB
:20326000615071090196F3CF21E0089709F020E08091E8008E778093E800D2CF2111D3CFC3
:2032800009C08AB5882361F0853061F08091E80083FD0AC08091E80082FFF3CF80E00895A8
:2032A00082E0089583E0089581E0089523E030E05C985C98882311F15D9A5D9A40E050E02B
:2032C0004F5F5F4F4739510539F0EFE9FFE03197F1F700C00000F4CF5C9A5C9A5D985D98D3
:2032E00040E050E04F5F5F4F4739510549F1EFE9FFE03197F1F700C00000F4CF5D985D983E
:2033000040E050E04F5F5F4F4739510539F0EFE9FFE03197F1F700C00000F4CF5C9A5C9A2C
:203320005D9A5D9A40E050E04F5F5F4F4739510539F0EFE9FFE03197F1F700C00000F4CF0A
:203340002150310909F0B4CF5C9A5D9A5C9A5D9A8FB7F8941092CB011092CA011092C90153
:203360001092C8018FBF08951F920F920FB60F9211248F9381E08093E1018F910F900FBE06
:203380000F901F9018951F920F920FB60F9211242F933F934F935F936F937F938F939F9375
:2033A000AF93BF93EF93FF932FB7F89480918C0290918D022FBF892B09F14FB7F894609185
:2033C0008A0270918B0220918C0230918D028091880290918902860F971F821B930B85D51D
:2033E000FC01E85CFD4F80812150310930938D0220938C024FBF8093CE0005C08091C90073
:203400008F7D8093C900FF91EF91BF91AF919F918F917F916F915F914F913F912F910F90C5
:203420000FBE0F901F9018951F920F920FB60F9211242F933F934F935F936F937F938F9339
:203440009F93AF93BF93EF93FF936091CE008091E001811104C082EE91E035DE0AC088E362
:2034600092E031DE882329F08091C90080628093C900FF91EF91BF91AF919F918F917F916F
:203480006F915F914F913F912F910F900FBE0F901F9018951F920F920FB60F9211240F93D6
:2034A0001F932F933F934F935F936F937F938F939F93AF93BF93EF93FF93CF93DF93CDB78A
:2034C000DEB7AA97DEBFCDBF1091E9001F709091EC00892F817090FD80E8182B1092E9005B
:2034E0008091F000877F8093F0007894E0ECF1E08091F100819321E0E83CF207C9F7809114
:20350000E80083FF3AC18091C0019091C101953009F46CC030F4913071F168F0933059F1F7
:203520002CC1983009F4E1C0993009F4F1C0963009F023C17CC0803899F0823809F01DC110
:203540008091C4018F70853008F017C18093E9008091EB0085FB882780F91092E90001C025
:2035600080E09091E800977F9093E8008093F1001092F100C6C0282F2D7F09F0FEC0823038
:2035800009F0FBC08091C20181112AC08091C4018F702FEF280F243008F0EFC08093E90006
:2035A0002091EB0020FF1CC0933021F48091EB00806214C09091EB0090619093EB0021E0DE
:2035C00030E0A90102C0440F551F8A95E2F74093EA001092EA008091EB0088608093EB0085
:2035E0001092E9008091E800877F8EC08111C5C00091C2010F778091E3008078802B809358
:20360000E3008091E800877F8093E800C5DD8091E80080FFFCCF8091E30080688093E30016
:20362000011102C082E001C083E08ABDA6C08058823008F0A2C08091C2019091C3018C3D1D
:2036400053E0950769F583E08A838AE289834FB7F894DE01139620E03EE051E2E32FF0E008
:2036600050935700E49120FF03C0E295EF703F5FEF708E2F90E0EA3010F0C79601C0C0962B
:203680008D939D932F5F243149F74FBF8091E800877F8093E8006AE270E0CE01019667C086
:2036A000292F33272230310541F02330310551F02130310509F061C051C065E670E082E125
:2036C00091E050C099278130910551F008F488C0029709F052C06AE170E08FE991E042C0B3
:2036E00062E270E08BE791E03DC0803809F045C08091E800877F8093E8008091CD018093B4
:20370000F1008091E8008E778093E80045DD35C0811133C08091C2019091C3019927029711
:2037200064F58091E800877F8093E8000091C2010093CD0131DD002359F084E08ABD42E337
:2037400061E881E046DD42E360E882E042DD15C08091E30087FDF1CF81E0F0CF62E170E0EE
:2037600080E091E02091E800277F2093E80045DD8091E8008B778093E8008091E80083FF0B
:203780000AC08091E800877F8093E8008091EB0080628093EB001092E9008091F000886015
:2037A0008093F0001F701093E900AA960FB6F894DEBF0FBECDBFDF91CF91FF91EF91BF9134
:2037C000AF919F918F917F916F915F914F913F912F911F910F910F900FBE0F901F90189532
:2037E00064E070E087E791E0BDCF1F920F920FB60F9211242F933F934F935F936F937F9361
:203800008F939F93AF93BF93EF93FF938091E10080FF15C08091E20080FF11C08091E20030
:203820008E7F8093E2008091E20080618093E2008091D80080628093D80019BC1ABC80914B
:20384000E10084FF2DC08091E20084FF29C084E089BD86E089BD09B400FEFDCF8091D800F2
:203860008F7D8093D8008091E1008F7E8093E1008091E2008F7E8093E2008091E200816095
:203880008093E2008091CD01882311F084E007C08091E30087FD02C081E001C083E08ABD77
:2038A0008091E10083FF25C08091E20083FF21C08091E100877F8093E10082E08ABD109222
:2038C000CD018091E1008E7F8093E1008091E2008E7F8093E2008091E20080618093E20069
:2038E00042E060E080E075DC8091F00088608093F000FF91EF91BF91AF919F918F917F91C9
:203900006F915F914F913F912F910F900FBE0F901F90189520E5E8E3F2E0DF01822F1D92FE
:203920008A95E9F7109289021092880280E590E090938B0280938A0210928D0210928C02AA
:20394000E2EEF1E0DF011D922A95E9F710923302109232029093350280933402109237026D
:20396000109236021092D4021092D3020895F89484B78D7F84BF84B7877F84BF0FB6F894F6
:20398000A89580916000886180936000109260000FBE90E080E80FB6F8948093610090938E
:2039A00061000FBE559A549A559A549A5D9A5C9A5D9A5C9A80E090E001968536910539F064
:2039C000EFE9FFE03197F1F700C00000F5CF8FEF91E075D2C82F6FEF8FEF91E078D2C7343D
:2039E00009F0A7C081E085BF92E095BF78945D985C985D985C989091CC01911146C09FB732
:203A0000F8941092C8001092C9001092CA001092CD001092CC009FBF1092E0019FB7F89439
:203A2000109233021092320210923702109236029FBF9FB7F89410928902109288021092E9
:203A40008D0210928C029FBF8093E1011092CC019FB7F8941092C8001092C9001092CA00C2
:203A60001092CD001092CC009FBF1092C80029E130E03093CD002093CC0096E09093CA0015
:203A800098ED9093C9008093CC0181E08093CF0191E89093D00120E430E03093D2012093C7
:203AA000D1018093D40192E09093D5013093D7012093D6018093D901909163009E7F90930B
:203AC00063008093CE011092E2001092E1008091D8008F778093D8008091D80080688093DC
:203AE000D8008091D8008F7D8093D80084E089BD86E089BD09B400FEFDCF1ABC1092CD01EB
:203B000042E060E080E065DB8091E1008E7F8093E1008091E20081608093E2008091E200F4
:203B200088608093E2008091E0008E7F8093E00005C080E0BBDBEE27FF27099472E0772E2D
:203B4000EBE68E2EE3E49E2EE5E6AE2EE4E4BE2E8AB58430E9F77092E9008091E80082FFB2
:203B6000F7CFE8DA811118C0C4E0D0E00CED11E007C08091F100F80181938F01219761F0A6
:203B80008091E80085FDF5CF8091E8008B778093E800D0DA8823A1F38091F200811105C0AD
:203BA0008091E8008B778093E8002091DC01822F8295807F803679F48091D3029091D402BA
:203BC000FC01E257FD4F3091DD0130833091DE013183029617C0813608F02DC1803409F400
:203BE000D8C0803509F0F0C03091DD01373F09F0EBC08091D3029091D402FC01E257FD4FB7
:203C0000308301969093D4028093D30280918F028111DAC080919002833509F0D5C08091B1
:203C20009102833409F0D0C0C091D302D091D402C730D10508F4C8C02597D695C7950EE88A
:203C400012E065E0C62ED12CE12CF12C8091D3029091D402C816D90608F08EC0F801258193
:203C6000848180FF02C0206801C02F7790E095958795982F8827822B682E2091E1012223C8
:203C800051F04FB7F89420918C0230918D024FBF232B09F4EEC0662D88E392E014DA8823B2
:203CA000D1F31092E1018091C90080628093C900C230D105D9F48091DB01982F990F990F8B
:203CC000990FB501A40104C075956795579547959A95D2F7552766277727262C312C412C94
:203CE000512C421553056405750519F01092DB0143C08F5F8093DB01843009F03DC0809193
:203D0000E1018823E1F381E0D1DAF89484B7877F84BF80916000806180936000109260005F
:203D20008FE19EE40197F1F700C000001FBA10BE1CBC1DBA1092680010926E0010926F00D0
:203D40001092C8001092C9001092CA0015B818B81BB814B817B81AB88091E0008160809360
:203D6000E00098E088E10FB6F894A895809360000FBE90936000FFCF9FEFE91AF90AE2E00D
:203D8000CE0ED11C0E5F1F4FEC16FD0609F05ECFDFCE3091DD01303F21F41092D40210926A
:203DA000D3028091D3029091D402FC01E257FD4F30833091DE0131833091DF0132830396D9
:203DC0009093D4028093D302273009F0C1CE8091DD01803F09F0BCCE8091DE01853509F04F
:203DE000B7CE8091DF01873F09F0B2CE8AB5843009F0AECE8091D0018F708093E9009AD956
:203E00008111A6CEC4E0D0E00CED11E08091E80085FD09C08091E8008E778093E8008AD9BE
:203E20008823A1F395CEF80181918F018093F100219761F726C08037C1F43091DD01303FD1
:203E400021F41092D4021092D3028091D3029091D402FC01E257FD4F30833091DE013183F8
:203E60003091DF0132830396CDCE803F09F4BCCEABCF1092E1019FB7F8948093CE009FBF53
:203E800017CF8091E80085FD05C08091E8008E778093E8008AB5843009F05ACE8091D0010D
:203EA0008F708093E9008091F200882309F450CE8091E8008E778093E8003CD949CEF99987
:203EC000FECF92BD81BDF89A992780B50895262FF999FECF1FBA92BD81BD20BD0FB6F8941C
:203EE000FA9AF99A0FBE01960895AA1BBB1B51E107C0AA1FBB1FA617B70710F0A61BB70B65
:203F0000881F991F5A95A9F780959095BC01CD010895EE0FFF1F0590F491E02D0994F894E6
:203F2000FFCF1201000200000008091273840100010200010902650002010080320904004D
:203F400000000101000009240100010900010109040100020103000007240100014100069D
:203F6000240201010006240202020009240301030102010009240302040101010009050268
:203F800002400005000005250101010905810240000500000525010103040309042203531C
:203FA00000680061006E00740065006100200043006F006E00740072006F006C007300001C
:1E3FC000001A034F00700065006E004400650063006B002000440046005500000000BE
:0400000500003000C7
:00000001FF
