:020000040800F2
:2000000000000220193D00082D4800083148000835480008394800083D48000800000000C7
:20002000000000000000000000000000414800084548000800000000494800084D48000864
:20004000693D0008693D0008693D0008693D0008693D0008693D0008693D0008693D000830
:20006000693D0008693D0008693D0008693D0008693D0008693D0008693D0008693D000810
:20008000693D0008693D0008693D0008693D0008693D0008693D0008693D0008693D0008F0
:2000A000693D0008693D0008693D0008693D0008693D0008693D0008693D0008693D0008D0
:2000C000693D0008693D0008693D0008693D0008693D0008693D0008693D0008693D0008B0
:2000E000693D0008693D0008693D0008693D0008693D0008693D0008693D0008693D000890
:20010000693D0008693D0008693D0008693D0008693D0008693D0008693D0008553A000886
:20012000693D0008693D0008693D0008693D0008693D00080000000000000000693D0008AB
:20014000693D0008693D0008693D000821480008693D0008693D0008693D0008693D00086C
:20016000693D0008693D0008693D0008693D0008693D0008693D000800000000000000006B
:20018000693D0008693D00080000000010B5054C237833B9044B13B10448AFF300800123C1
:2001A000237010BD3002002000000000E054000808B5034B1BB103490348AFF3008008BDFC
:2001C0000000000034020020E054000853B94AB9002908BF00281CBF4FF0FF314FF0FF30AE
:2001E00000F06EB9ADF1080C6DE904CE00F006F8DDF804E0DDE9022304B070472DE9F047C4
:20020000089D04468C46002B40F083808A42174647D9B2FA82F242B1C2F1200024FA00F082
:200220009140974040EA010C94404FEA1748230CBCFBF8F61FFA87FE08FB16C143EA0143B6
:2002400006FB0EF1994209D9FB1806F1FF3080F01981994240F21681023E3B445B1AA4B270
:20026000B3FBF8F008FB103344EA034400FB0EFEA64509D93C1900F1FF3380F00581A64500
:2002800040F2028102383C4440EA0640A4EB0E0400261DB1D4400023C5E900433146BDE8A6
:2002A000F08702B9FFDEB2FA82F2002A50D1CB1B4FEA174E1FFA87F80126B3FBFEFC210CAC
:2002C0000EFB1C3341EA034108FB0CF38B4207D979180CF1FF3002D28B4200F2E980844625
:2002E000C91AA3B2B1FBFEF00EFB101143EA014408FB00F8A04507D93C1900F1FF3302D284
:20030000A04500F2D9801846A4EB080440EA0C40BFE78B4209D9002D00F0B1800026C5E9C7
:20032000000130463146BDE8F087B3FA83F6002E4AD18B4202D3824200F2B880841A61EBCA
:20034000030101208C46002DA8D0C5E9004CA5E7C2F1200320FA03F6974001FA02F04FEA95
:20036000174ED9403043030CB1FBFEF61FFA87F80EFB161143EA014306FB08F1994204FAD1
:2003800002F409D9FB1806F1FF3C80F08D80994240F28A80023E3B445B1A81B2B3FBFEF0A9
:2003A0000EFB103341EA034100FB08F38B4207D9791800F1FF3C73D28B4271D9023839440F
:2003C000CB1A40EA064678E7C6F1200C03FA06F422FA0CF31C4320FA0CF701FA06F34FEAC5
:2003E000144E21FA0CF11F433B0CB1FBFEF91FFA84F80EFB191143EA014109FB08FA8A452B
:2004000002FA06F200FA06F308D9611809F1FF3048D28A4546D9A9F102092144A1EB0A01C9
:20042000BFB2B1FBFEF00EFB101147EA014700FB08F8B84507D9E71900F1FF312ED2B84518
:200440002CD90238274440EA0940A7EB0807A0FB02894F45C64649461AD317D05DB1B3EB09
:200460000E0267EB010707FA0CFCF2404CEA0202F740C5E9002700263146BDE8F0872E4664
:2004800028460BE70646E9E61846FDE64345E5D2B8EB020E69EB04010138DFE70846D2E74F
:2004A00060468DE78146B9E7664675E730464AE7ACF1020C394413E702383C4424E700BF66
:2004C000704700BF70B4084C01EB410104EBC10406460FCC35460FC594E8030085E80300E7
:2004E000304670BC704700BF3055000870B4084C01EB410104EBC10406460FCC35460FC587
:2005000094E8030085E80300304670BC704700BF6055000870B4084C01EB410104EBC104BD
:2005200006460FCC35460FC594E8030085E80300304670BC704700BF2056000838B513467A
:2005400002250A468361C361C0F89452002100F049FD002038BD00BF08B513460A460021CC
:2005600000F040FD002008BD08B513460A46002100F046FD002008BD08B504220023C0F80C
:20058000942219461A4600F02DFD002008BD00BF08B505220023C0F8942219461A4600F004
:2005A0002FFD002008BD00BFF0B50C7804F06004202C83B00E4605460ED0402C0CD0ACB149
:2005C0008021284600F0D0FC2846002100F0CCFC0024204603B0F0BDD5F8B83231469B68EE
:2005E000284698470446204603B0F0BD4B78092BE6D801A252F823F05706000885060008F1
:20060000C1050008A3060008C1050008AB060008E3060008C1050008FF06000821060008D9
:200620008E78AF4F012E3E7000F2378190F89C32022B00F02081032B00F0FA80802100F0F2
:2006400093FC0021284600F08FFC3978284600F065FA0324BDE790F89C22013A022A65D8DE
:20066000CA88022A62D1D0F8A4220121C1600AB10322C260022205F10C0128461C46FFF709
:200680005DFFA6E790F89C32013B022B4ED84B88012B9ED10023C5F8A4322846FFF76CFF99
:2006A00097E74B88012B94D1F5E78B88002B3DD1CB88002B3AD14E887F2E37D890F89C32BF
:2006C000032B33D0F1B280F89E1200F07DFC2846FFF752FF002E00F0FE80022385F89C32F4
:2006E00077E74A88130A0021013BADF80610062B1CD8DFE803F06C5F4C1B1B422600CA88AF
:20070000012A13D190F89C32022B00F28A80002B3FF456AF0146002341F8083FFFF70EFFFB
:2007200057E7D0F8B4325B68002B5DD18021284600F01AFC2846002100F016FC204603B0F2
:20074000F0BD037C002BF1D1D0F8B8320DF106001B6B984707234370F288002A9DD0BDF8C2
:200760000630002BE2D09A4228BF1A4601462846ADF80620FFF7E2FE2BE7037C002BD5D18B
:20078000D0F8B8320DF106005B6B9847E4E7D2B2052ACBD801A353F822F000BF23070008EB
:2007A000170800080B080008FF070008F3070008DF070008037C002B40F08480D0F8B83269
:2007C0000DF106009B6A984702234370C4E7D0F8B432007C1B680DF106019847BCE7D0F8B2
:2007E000B4329B69002BA1D0287C0DF106019847B2E7D0F8B4325B69002BF5D196E7D0F8AA
:20080000B4321B69002BEFD190E7D0F8B432DB68002BE9D18AE7D0F8B4329B68002BE3D135
:2008200084E7032B7FF4CCAE011DFFF787FED0E6002E3BD0416801293FF42FAFC9B200F05B
:200840006DF939786960284600F060F9064600283FF423AF8021284600F086FB0021284679
:2008600000F082FB2979284600F058F90223344685F89C32ADE6002E3FF40FAF012141605B
:2008800000F044F9044600287FF450AF2846FFF773FE032385F89C329BE6802100F064FB90
:2008A0002846002100F060FB032492E60223466080F89C32314600F031F928463446FFF73F
:2008C0005BFE86E6D0F8B8320DF10600DB6A98470223437040E7012385F89C3279E600BFED
:2008E0004C02002038B50B7803F06002402A0D4604460BD05B0609D5802100F035FB20467D
:20090000002100F031FB0025284638BD94F89C32013B022B12D82B79012B0FD8D4F8B832F8
:2009200029469B6820469847EB880546002BEBD10028E9D12046FFF71FFEE5E7802120462D
:20094000DBE700BF70B50B7803F06003202B0D4604460CD0402B0AD08BB18021204600F0DC
:2009600003FB2046002100F0FFFA002070BDD4F8B832294620469B68BDE8704018474B78B7
:200980008A88012BD1B23BD0032B28D0002BE4D190F89C32022B51D0032BDED101F00F0301
:2009A00003EB8303120600EB830356D4B3F86431002BD2D001F07F03142505FB030505F555
:2009C000AA752BB1204600F0EBFA002854D001232B60294620460222FFF7B0FDC5E790F816
:2009E0009C32022B21D0032BB7D16B8823B94A0602D0EB88002B41D02046FFF7BDFDB4E704
:200A000090F89C32022B10D0032BA6D16B88002BABD14E062DD12046FFF7AEFDD4F8B83225
:200A200029469B68204698479FE74B0695D000F09BFA2046802100F097FA96E748068CD18E
:200A400011064CBF04F1140104F5AA71002320460B600222FFF772FD87E79B8C002B3FF4E6
:200A60007CAF01F07F035D1C05EB850500EB8505A7E700F087FACEE72860AAE700F074FA45
:200A8000BAE700BF0B7803704B784370CA788B7843EA022343804A790B7943EA0223838094
:200AA000CA798B7943EA0223C3807047A0B1D0F8B83213B10023C0F8B832D0F8CC3213B18D
:200AC0000023C0F8CC3209B1C0F8B4120123027080F89C3200F0ECB90320704730B583B0A2
:200AE0000024ADF8064059B1C0F8B8120546CB6A0DF106009847C5F8CC02204603B030BD67
:200B0000032003B030BD00BF00F002BAD0F8B8320BB11B6818470320704700BF08B5D0F839
:200B2000B8320BB15B689847002008BD38B5044600F2AA252846FFF7A5FF94F8AA12B4F894
:200B4000B032C4F89832012201F01F039342C4F8942209D0022B13D063B1204601F08001DB
:200B6000BDE8384000F000BA29462046BDE83840FFF7B8BE29462046BDE83840FFF714BD97
:200B800029462046BDE83840FFF7DCBE70B5054639B91346D0F89422032A0C460ED000201D
:200BA00070BDD0F8B8329B6933B190F89C22032A02D1BDE870401847032070BDD0F85C11EF
:200BC000D0F8602191420DD8D0F8B8321B6923B190F89C22032A00D198472846FFF7CCFCBB
:200BE0000020DDE7891A8A4228BF0A46C0F85C111946FFF7B9FC204670BD00BF70B504467B
:200C000059B91346D0F89422022A16D094F8A032012B4FF000000DD070BDD0F8B8325B6990
:200C200033B190F89C22032A02D1BDE870401847032070BD84F8A00270BDC269066AB242AC
:200C40000D4616D824D0D4F8B832DB681BB194F89C22032A19D08021204600F085F920465F
:200C6000FFF796FC94F8A032012B4FF00000D3D1E0E7921BC2611946FFF76EFC2B462A4648
:200C80002946204600F0BCF9C0E720469847E2E783699A42D7D8D0F898229342D3D20A4662
:200CA000FFF75AFCC4F89852E8E700BF70B5D0F8BC3200210122044680F89C22C0F89412B7
:200CC0004160C0F8A4121BB1D0F8B8325B689847002240231D4611460126204600F026F90A
:200CE000A4F86461C4F860512B4600228021204600F01CF9A6842562002070BD01740020F4
:200D0000704700BF90F89C2280F89D22042380F89C320020704700BF90F89C32042B04BF95
:200D200090F89D3280F89C320020704790F89C22032A01D00020704708B5D0F8B832DB6971
:200D400003B19847002008BD002070470020704700207047D0F8B822012180F89C122AB1D1
:200D600008B5526801799047002008BD0020704770B5036888B00024B3F1A04F0494039441
:200D800005940694079401D008B070BD184D01942B6B184843F001032B632B6B059403F0F8
:200DA000010301934FF4C052022303A90392049303220A2306920793019E00F02FF96B6B38
:200DC00043F080036B6302946B6C43F480436B646B6C03F480430293224621464320029B64
:200DE00000F054FE432000F089FE08B070BD00BF003802400000024000F57171D0F80404D0
:200E0000FFF794BEC1EBC10300EB8303D0F80404D3F80822FFF7BABEC1EBC10300EB830395
:200E2000D0F804049A6CFFF7E9BE00BFD0F80404FFF77CBF10B5C168044619B1022900D082
:200E4000FEE70121D4F80404FFF758FFD4F80404BDE81040FFF72ABF10B50446D0F80404E3
:200E6000FFF750FF2268D2F8003E43F00103C2F8003E236A23B1034A136943F00603136192
:200E800010BD00BF00ED00E0D0F80404FFF744BFD0F80404FFF75ABFD0F80404FFF754BF78
:200EA000D0F80404FFF754BFD0F80404FFF752BF38B503780BB1002038BD144C0222C4F809
:200EC00004044FF0A0450421C0F8C442204625602361E36123626362E36223636160E26038
:200EE000A26100F033FE054600B1FEE78021204602F0D2F929464022204602F0A9F92046F8
:200F00008022012102F0A4F9002038BD6C17002008B5D0F8C40200F0A7FE032896BF024B19
:200F20000320185C08BD00BFC056000810B51446D0F8C4021A46234601F0CCF9032896BFCC
:200F4000014B0320185C10BDC056000808B5D0F8C40201F0F5F9032896BF024B0320185C35
:200F600008BD00BFC056000808B5D0F8C40201F063FA032896BF024B0320185C08BD00BF4E
:200F8000C056000808B5D0F8C40201F099FA032896BF024B0320185C08BD00BFC05600085E
:200FA0000A06D0F8C43206D4C1EBC10103EB810191F8FE01704701F07F01C1EBC10103EB9F
:200FC000810191F83E00704708B5D0F8C40201F06DF9032896BF024B0320185C08BD00BF87
:200FE000C056000808B5D0F8C40201F001FA032896BF024B0320185C08BD00BFC056000896
:2010000008B5D0F8C40201F0CBF9032896BF024B0320185C08BD00BFC05600082DE9F04F75
:20102000DFF8F0C1DFF8F0E1734F83B0002303E00133102B00F0A3800C6801229A4002EAA6
:201040000405A243F4D14A6822F01002013A012A4FEA43084FF0030440F2948004FA08F497
:20106000E443C2688E68224006FA08F61643C6604A6822F01006022E15D14FEAD30900EB5A
:20108000890903F00706D9F82020B6004FF00F0B0BFA06FB22EA0B0A0A69B24042EA0A02DA
:2010A000C9F820204A68066802F0030202FA08F23440224302604A68D200B9D50022019220
:2010C000DCF8442042F48042CCF84420DCF8444023F0030202F1804204F4804402F59C3212
:2010E000019403F00304019ED2F808804FEA84090F2606FA09F6704528EA06061CD03F4C2C
:20110000A04254D03E4CA04257D03E4CA0425AD03D4CA0425DD03D4CA04260D03C4CA04203
:2011200063D0DFF8F88040450CBF4FF007084FF0080808FA09F4264396604E683A68EC435B
:20114000F60354BF22402A433A604E687A68B60354BF22402A437A604E68BA68F60254BF2A
:2011600022402A43BA604E68FA68B60203F1010354BF22402A43102BFA607FF45DAF03B015
:20118000BDE8F08F8268CE6804FA08F422EA040206FA08F6164386604E684268C6F3001693
:2011A0009E4022EA05021643E443466059E74FF0010808FA09F42643BEE74FF0020808FA38
:2011C00009F42643B8E74FF0030808FA09F42643B2E74FF0040808FA09F42643ACE74FF03A
:2011E000050808FA09F42643A6E74FF0060808FA09F42643A0E700BF003C0140000402402F
:2012000000080240000C02400010024000140240001802400038024000000240001C02401A
:2012200010B5094B4FF0FF3200241A621C625A625C621A611C615A615C619A619C6102F033
:2012400075F8204610BD00BF0038024038B50E4A0E4B12781B6805464FF47A70B0FBF2F005
:20126000B3FBF0F000F058FC08B90F2D01D9012038BD0446024629464FF0FF3000F006FC4E
:20128000034B1D60204638BD100000200C0000201400002008B5094B1A6842F400721A60E3
:2012A0001A6842F480621A60032000F0DBFB0020FFF7CCFF02F01EF8002008BD003C0240E5
:2012C000034A044B11681B780B441360704700BF741B002010000020014B1868704700BF0D
:2012E000741B002038B50446FFF7F6FF631C054602D0044B1B781C44FFF7EEFF431BA34219
:20130000FAD338BD10000020014B1868704700BF107AFF1F014B1868704700BF147AFF1F03
:20132000014B1868704700BF187AFF1F002800F0A3812DE9F0410368DD0782B0044631D567
:20134000AC498A6802F00C02042A00F0EF808A6802F00C02082A00F0E5806368B3F5803F6E
:2013600000F0EE80B3F5A02FA24B1A6800F0768122F480321A601A6822F480221A60636881
:20138000002B00F00481FFF7A7FF9A4E054605E0FFF7A2FF401B642800F2F58033689A03DC
:2013A000F6D523689F0728D5924B9A6812F00C0F00F091809A6802F00C02082A00F087800C
:2013C000E368002B00F004818B4B8A4E01221A60FFF782FF054605E0FFF77EFF401B022838
:2013E00000F2D18033689807F6D53368226923F0F80343EAC203336023681A0753D45807BA
:2014000031D57C4A136C13F080537FD000257B4E3368D90540F1A780A368012B00F0F48002
:20142000052B744B1A6F00F0298122F001021A671A6F22F004021A67A368002B00F0B58087
:20144000FFF74AFF6B4F064641F2883805E0FFF743FF801B404500F296803B6F9B07F6D5F8
:20146000002D40F00381A069C8B1624DAB6803F00C03082B00F0CE80614B002202281A6062
:2014800000F00481FFF728FF2C46054604E0FFF723FF401B022876D823689B01F7D400201C
:2014A00002B0BDE8F081636903B3564B514E01221A60FFF711FF054604E0FFF70DFF401B73
:2014C000022860D8736F9B07F7D5236897E75B685E023FF575AF474B1B689D0736D5E368C7
:2014E000012B33D0012002B0BDE8F081454A414E1360FFF7F1FE054604E0FFF7EDFE401BF3
:20150000022840D8736F9F07F7D4DEE70193136C43F080531364136C03F080530193019B6C
:20152000012574E74A6850027FF517AF314A126891037FF537AF6268002A7FF433AFD1E708
:201540002C4A136843F48033136018E7294A2169136823F0F80343EAC103136023681A07A8
:201560007FF54DAF9FE7336843F480733360FFF7B3FE07463368DA053FF54EAFFFF7ACFEDE
:20158000C01B0228F6D9032002B0BDE8F081FFF7A3FE184E054604E0FFF79EFE401B6428E7
:2015A000F1D833689B03F7D4FBE6FFF795FE114F064641F2883804E0FFF78EFE801B4045CF
:2015C000E1D83B6F9807F7D4002D3FF44CAF4DE0094A084E1360FFF77FFE054604E0FFF702
:2015E0007BFE401B0228CED833689907F7D4236803E700BF0038024000004742007000405A
:2016000060004742800E4742374A136F43F00103136711E701283FF443AF6B68E26903F4BB
:20162000800191427FF45EAF226A03F03F0191427FF458AF616A47F6C0721A408A427FF4F7
:2016400051AFA26A03F4403191427FF44BAFE06A03F07063181A18BF012021E742F48022BC
:201660001A601A6842F480321A6088E61E4A136C23F080531364F6E60120704742F004026E
:201680001A671A6F42F001021A67D5E6FFF724FE064605E0FFF720FE801B02283FF673AF56
:2016A0002B689901F6D4266AE369606AA26AE16A334343EA8013520843EA0163013A0B4986
:2016C000094E43EA024301226B600A60FFF704FE044605E0FFF700FE001B02283FF653AF52
:2016E00033689A01F6D5DAE6003802406000474208B515498B6803F00C03082B01D0134857
:2017000008BD4A684B6813F4800302F03F0211D04B680E48C3F38813A3FB00010023FEF7F0
:2017200055FD094B5B68C3F3014301335B00B0FBF3F008BD49680548C1F38811A1FB00017C
:20174000FEF744FDEDE700BF003802400024F400002800F08A802DE9F041484A136803F0C5
:201760000F038B420D46044609D2CBB21370136803F00F038B4202D00120BDE8F081236831
:20178000990716D55A0705D53D4A936843F4E053936023681B0704D5394A936843F46043C6
:2017A0009360374AA168936823F0F0030B4393602368DF0721D56268012A58D0931E012B09
:2017C0002F4B1B684ED99907D6D52D4EB36823F003031343B360FFF77FFD41F288380746D0
:2017E00004E0FFF779FDC01B404545D8B368626803F00C03B3EB820FF3D1204A136803F06A
:201800000F03AB4206D9EBB21370136803F00F03AB42B1D123685A0707D5194AE16893686C
:2018200023F4E0530B43936023681B0707D5144A2169936823F4604343EAC1039360FFF71D
:2018400057FF0F4A0F4C92680F49C2F303120346A25C0E48D34000680B60FFF7F7FC0020D6
:20186000BDE8F0819801B0D486E701207047044B1B689E03A9D47FE703207EE7003C024094
:2018800000380240B05600080C00002014000020014B1868704700BF0C0000201B4BDA684A
:2018A000D10605D51A49CA6910200243CA61D860164BDA68920606D51549CA69202042F0F0
:2018C0000802CA61D860114BDA68500606D51049CA69402042F00402CA61D8600B4BDA68AD
:2018E000110606D50A49CA69802042F00202CA61D860064BDA68920706D50549CA6902208D
:2019000042F02002CA61D860704700BF003C0240781B0020064B1A69002A01DB00207047B8
:201920000449054A59605A601869C00F704700BF003C024023016745AB89EFCD034A1369CB
:2019400043F0004313610020704700BF003C0240124B70B500220446DA61FFF7BDFC104D54
:20196000064601E0611C0DD1EB68DA03FAD4EB68DB0744BF0123EB60094BD86810F0F200B4
:2019800008D170BD24B1FFF7A7FC801BA042EBD9032070BDFFF782FF012070BD781B0020CA
:2019A000003C02402DE9F8432C4E347E012C33D081461D464CF2503001230F46904633761C
:2019C000FFF7C6FF18B100233376BDE8F883244B1A6922F440721A611A69B9F1000F1ED038
:2019E000B9F1010F24D0B9F1020F2CD042F440721A611A6942F001021A61C7F80080BFF3FB
:201A00006F8F7D604CF25030FFF7A2FF144A136923F001031361D6E70220BDE8F8831A61B7
:201A200019695FFA88F241F0010119613A70E9E742F480721A6119691FFA88F241F001013F
:201A400019613A80DEE742F400721A611A6942F001021A61C7F80080D4E700BF781B0020CB
:201A6000003C024010B40849CA684FF6FF040002224000F4E063134343F0BF6343F40033A9
:201A8000CB605DF8044B704700ED00E030B4194BDB68C3F30223C3F10705042D03F10404A0
:201AA00028BF0425062C19D9033B4FF0FF349C4022EA04024FF0FF34AC4021EA040199400D
:201AC000002841EA02010CDB00F1604000F561400901C9B280F8001330BC70470022134674
:201AE000E8E7054B00F00F0009010344C9B2197630BC704700ED00E0FCEC00E0002807DB2B
:201B000000F01F01034A400901238B4042F82030704700BF00E100E00138B0F1807F0ED2B6
:201B2000084B10B4084C58600022F020072184F823009A60196010465DF8044B7047012044
:201B4000704700BF10E000E000ED00E0F0B58BB0002800F0858090F8BD330468054603F053
:201B6000FF02002B76D02046032385F8BD33E36B2E4613F4807308BF2B6100F06DFE56F842
:201B800010CB37460FCF6C460FC40FCF0FC497E8030084E803002F1D97E80E00604600F079
:201BA00097FD044630B101240223204685F8BD330BB0F0BD0146286800F056FE686868B3DB
:201BC00022464FF0010E2146C2EBC20305EB830302F1010C83F83C20A3F842205FFA8CF255
:201BE000824283F83DE083F83F10596499641965EAD30022C4EBC40305EB8303611C83F8C4
:201C0000FC41CCB2844283F8FD2183F8FF21C3F80422C3F80822C3F81022EBD30FCE6C460F
:201C20000FC40FCE0FC496E8030084E8030097E80E00286800F030FE04460028B3D10123DC
:201C400085F83800286885F8BD3301F0EFF920460BB0F0BD80F8BC23FFF78AF8286883E762
:201C6000012420460BB0F0BD10B590F8BC33012B0446006817D0A36A0122934284F8BC2310
:201C800008D001F0C5F9206800F0DEFD002084F8BC0310BDA3699342F3D0836B43F48033C6
:201CA00083632068EDE7022010BD00BF2DE9F04F076887B00446384601F0F8F910B107B017
:201CC000BDE8F08F0546206801F0BEF90028F6D0206801F0B9F9810704D52268536903F0B2
:201CE00002035361206801F0AFF9C20614D52268936923F0100393613E6AC6F34343022BA5
:201D000006F00F0800F04882062B00F0A8812268936943F010039361206801F095F90303E5
:201D200000F14F81206801F08FF9460300F1E780D4F80090484601F087F900283ADB206820
:201D400001F082F9000509D5D7F80838D90700F145822268536903F400635361206801F0C0
:201D600073F9C20478D4206801F06EF983045BD4206801F069F907074DD4206801F064F96F
:201D8000C6023ED4206801F05FF985022FD4206801F05AF9400021D4206801F055F94107FE
:201DA0008DD523685D686A0700F113825A682A435A6084E7D7F8043823F00103C7F8043809
:201DC00094F8F433012B00F043812046FFF75CF82268536903F000435361B0E72046FFF79D
:201DE0005FF82268536903F080435361D4E700212046FFF74DF82268536903F4001353615B
:201E0000C5E700212046FFF747F82268536903F480135361B6E72046FFF708F82268536997
:201E200003F008035361A8E7206801F043F9206800F018FEE0602568FFF72AFD227B014650
:201E4000284600F089FC2046FEF7F4FF2268536903F4005353618BE7D7F8043823F0010379
:201E6000C7F804382068102100F0EAFD636807F5006603B307F510634FF67F3199601A6815
:201E800022F400121A601A6842F000621A60C3F80812D3F8002222F40012C3F80022D3F87E
:201EA000002242F00062C3F8002262680135AA4203F12003E2D8F36943F00113F361236B4D
:201EC000002B40F0BA80736943F4005343F02B037361336943F00B033361D7F8003823F443
:201EE000FE63C7F8003804F57172217C206801F0F1F82268536903F48053536133E7206849
:201F000001F0AEF8D4F80090824600283FF412AF07F5106326464FF0000B039304970595FA
:201F200007E05FEA5A0A0BF1010B06F11C0600F0A8801AF0010FF4D05FFA8BF7484639460E
:201F400001F0A0F8C307054619D5049B01220BF00F00D3F8341802FA00F0039A21EA00017D
:201F600002EB4B12C3F83418134601229A602169914200F0378139462046FEF74DFF280740
:201F800004D5039B03EB4B1308229A60E90604D5039B03EB4B1310229A606A0604D5039B95
:201FA00003EB4B1340229A60AB0704D5039B03EB4B1302229A602D0600F18980D4F800905D
:201FC000AFE7206801F044F8064600283FF4AAAE04F5017A4FF0000807F5306B039505E0E8
:201FE000760808F101080AF11C0A4DD0F007F7D55FFA88F52068294601F03AF810F0010F60
:20200000814643D119F0080F40F0A68019F0100F03D00BEB481310229A6019F0200F03D0EC
:202020000BEB481320229A6019F4005FD8D00BEB48134FF400529A60D2E7D6F8843043F0B1
:202040000B03C6F88430736C43F00B03736444E7002184F8F413204601F022F9B8E6082200
:2020600004F571713846C8EBC80800F04DFF04EB8802C6F30A13D2F814120B44C2F81432BA
:2020800045E6049F059D55E6039D4BE60BEB48120121916020682169D0F840C000F5306200
:2020A00002EB48120129936800F0B2807D498C4500F0BF80B8F1000F04D1D4F81022002A17
:2020C00000F0E98029462046FEF79CFE9AE7736D316DD4F800908B423FF623AF09F510689E
:2020E000756C08EB4B18CA1AAA42D8F8180028BF2A4680B20332B0EB920F1BD295E0F9B1EB
:20210000736C94F810C0B16CCDF800C09D4228BF1D46ABB200F0DAFEB26C736D316D2A448A
:202120002B44B2647365D8F81820033592B2B2EB950F7AD39942A1EB03053A464846DED8FD
:20214000D9F834380BF00F02012101FA02F223EA0203C9F8343831E70BEB481308229A6059
:202160002268514802F53063126C03EB48138242996849D90A0402D54FF400429A6020463A
:20218000FEF73AFE216901297FF440AF206804F5717200F09FFF39E747F6F0731E423FF4B7
:2021A000B6ADC8EBC80804EB8808C6F30A12D8F80812384600F0A8FED8F80822D8F81432D7
:2021C000C6F30A1632443344C8F80822C8F814329DE52046FEF768FE2368E7E52046FEF754
:2021E0003BFEB6E5B36C726C1344B364BBF1000F7FF4C1AE236D002B7FF4BDAE206804F5E9
:20220000717200F067FFB6E62046FEF7F5FDFDE6190716D524498C457FF6F4AE18047FF5C9
:20222000F1AE4FF400439360ECE699423FF6C6AE86E71804F5D499067FF544AF20219160A6
:2022400040E7990602D520239360DBE613F0280F7FF4D8AE14498C4501D91B04E1D4126960
:20226000DAF80030DAF80410C2F312029A1A1944CAF81020CAF80410B8F1000F7FF422AFD8
:20228000D4F81022002A7FF41DAF04F57172012100F020FF16E704F57172414600F01AFF61
:2022A00010E700BF0A31544F0A30544F90F8BC23012A0DD010B50122044680F8381080F8D4
:2022C000BC23006800F094FE002084F8BC0310BD0220704770B501F00F0511F0800FC5EBCA
:2022E000C501064600EB81014FF01C041ED1002004FB056481F8FD0104F5FE7148780D706D
:202300008A60CB7000B1CD80022B04BF00230B7196F8BC33012B11D00123306886F8BC3358
:2023200000F0ACFB002086F8BC0370BD012004FB056481F83D0004F13C01DFE7022070BDF6
:2023400001F00F03C3EBC30211F0800F10B500EB820204464FF01C0115D101FB034101F581
:20236000FE71002082F8FD010B7094F8BC33012B14D00123206884F8BC3300F0CBFB002063
:2023800084F8BC0310BD01FB03413C31012082F83D000B7094F8BC33012BEAD1022010BDE4
:2023A00038B501F00F05C5EBC50400EB84040021C4F80822C4F8141284F8FD11C4F81032CE
:2023C00084F8FC5103691C21012B01FB050108BFC4F80C22006801F5FE71DAB21DB900F08D
:2023E000F3FC002038BD00F0FFFB002038BD00BF70B501F00F05C5EBC50400EB84040121E3
:202400000026A26484F83D10236584F83C50666503691C21012B01FB050108BFE264006820
:202420003C31DAB21DB900F0CFFC002070BD00F0DBFB002070BD00BF38B5436801F00F0556
:202440009D4233D80B0604461CD4C1EBC10300EB83031C2000FB0141002201F5FE7183F8EB
:20246000FD2101230D708B7094F8BC239A421BD0206884F8BC3300F061FDCDB1002084F815
:20248000BC0338BDC5EBC5031C2101FB050100EB830301223C3183F83D2001230D708B705C
:2024A00094F8BC239A42E3D1022038BD012038BD217C206804F5717200F00CFEDEE700BF75
:2024C00038B5426801F00F03934230D8C3EBC30211F0800F044600EB82024FF01C0117D185
:2024E00001FB034101F5FE710020002582F8FD010B708D7094F8BC33012B16D001232068C9
:2025000084F8BC3300F048FD84F8BC53284638BD01FB03413C310120002582F83D000B7008
:202520008D7094F8BC33012BE8D1022038BD012038BD00BF39B101291CD002290CBF4FF419
:2025400000714FF440710D4B1A6922F440721A611A69114319611A6922F0F8021A611A691A
:2025600042EAC00040F0020018611A6942F480321A6170474FF48071E5E700BF003C0240EA
:20258000144B1A6891050FD51A6822F400721A601A6842F400621A601A6822F400621A6054
:2025A0001A6842F400721A600A4B1A6852050FD51A6822F480621A601A6842F480521A606D
:2025C0001A6822F480521A601A6842F480621A60704700BF003C02402DE9F8432D4F3B7E89
:2025E000012B38D0012304464CF2503088463B76FFF7AEF9064648BB4FF0FF33C8F80030AF
:202600002368012B2BD0A568E3682B449D421BD2DFF8849005E0E368A26801351344AB42D6
:2026200012D9217C2846FFF785FF4CF25030FFF78FF9D9F8103023F0FA03C9F810300028A4
:20264000E9D0C8F800500646FFF79AFF00233B763046BDE8F88302263046BDE8F8830E4D53
:2026600023692A6922F440722A612A6942F004022A612A691B029BB2134343F480332B61C9
:202680004CF25030FFF764F92B6923F0040306462B61D9E7781B0020003C02400B4B01E07B
:2026A000013B10D00269002AFADA0369074A43F00103036101E0013A05D0036913F00103D9
:2026C000F9D1184670470320704700BF400D030084B070B50A9E05AD012E85E80E0004468B
:2026E00022D1836B119A23F480338363C36823F4840323F04003C360C368012A23F440139C
:20270000C36023D02046FFF7C9FF089B012B07D1A36843F00603A360A36843F02003A3602A
:20272000BDE8704004B07047C36843F04003C360FFF7B4FF0E9B23B9A36B43F48033A363E9
:20274000E3E7A36B23F48033A363DEE7C36843F48013C360D6E700BF022A0AD04FF41051CE
:20276000C26822F47052C260C3680B43C36000207047264B264A0B44934232D9254B264AD2
:202780000B44934230D9254AA1F57403A3F5105393422CD9224AA1F18373A3F5E743934230
:2027A00028D3204B204A0B44934226D91F4B204A0B44934224D31F4B1F4A0B449342CDD3A0
:2027C0001E4AA1F1B773A3F5585393421BD31C4B1C4A0B44934234BF4FF4E0514FF4C05123
:2027E000BEE74FF47051BBE74FF46051B8E74FF45051B5E74FF44051B2E74FF43051AFE7B4
:202800004FF42051ACE74FF40051A9E7405327FFFF340C00401E1BFF3F420F007F4F12006D
:2028200020D6130060B6E5FE5FE3160000D3CEFE40771B00C05BB3FEC091210020753800C2
:20284000E05459FEE09C4100034600209A6842F001029A60704700BF034600209A6822F0A3
:2028600001029A60704700BF08B5C368012923F0C043C3600BD041B9C36843F08043C36081
:202880003220FEF72FFD002008BD012008BDC36843F00053C360F3E784B02DE9F04308AC1B
:2028A00084E80E000022129D03460C46104602F1400103EB810101320F2A4860F7D1002D2F
:2028C00040F0A080D3F8042842F00202C3F804289A6B42F400129A639A6B22F400229A6310
:2028E0009A6B22F4802203F500669A630022C3F8002E0D9A31683160012A00F08E80326821
:2029000042F0030232604FF484621A614A4A02E0013A00F08C80186910F02000F8D1102201
:202920001A61454A02E0013A00F083801969C906F9D4002131617161F161F4B18C4603F519
:2029400010624FF090484FF000694FF67F3E0AE0C2F800C00131A142C2F810C0C2F808E09F
:2029600002F120022ED01768002FF1DA11B1C2F80080EFE7C2F80090ECE732690B9922F487
:202980008072326100246FF080429C615A6119B99A6942F010029A619C69284A0E9922431E
:2029A0009A6119B19A6942F008029A61012D05D19A6942F0804242F004029A61BDE8F04312
:2029C00004B0704700218C4603F530624FF090484FF000694FF67F3E0AE0C2F800C00131B8
:2029E000A142C2F810C0C2F808E002F12002C4D01768002FF1DA11B1C2F80080EFE7C2F81A
:202A00000090ECE79A6B22F400129A639A6B42F400229A6303F5006668E70A9A12B9326819
:202A2000326070E7326842F0010232606BE7012075E701207DE700BF400D030000383C80F5
:202A4000890141F02001064A016101E0013A05D0036913F02003F9D11846704703207047AC
:202A6000400D0300D0F8083813F0060004D013F0020F14BF02200F20704700BF70B44B788C
:202A80000A78012B22D002F00F054FF48033AB40D0F81C5800F500642B4300EB4210E3612B
:202AA000D0F8003B1B040ED48B68D0F8004BCA78C3F30A03234343EA824343F0805343F472
:202AC0000043C0F8003B002070BC7047D0F81C6802F00F0400F50065A340334300EB42107C
:202AE000EB61D0F800391C04EDD48B68D0F80049C978C3F30A03234343EA814343EA825248
:202B000042F0805242F40042C0F8002970BC0020704700BF70B44A780B78012A00EB4312C2
:202B20002FD0D2F8004B002C1DDBD0F83C682C4D012403F00F0304FA03F326EA0343C0F84C
:202B40003C380978D0F81C3801F00F018C4023EA0444C0F81C48D2F8003B1D40C2F8005BAF
:202B6000002070BC7047D2F8003B43F00063C2F8003BD2F8003B43F08043C2F8003B0B784F
:202B8000D3E7D2F80049002C0CDAD2F8003943F00063C2F80039D2F8003943F08043C2F817
:202BA00000390B78D0F83C680E4D012403F00F0304FA03F326EA0303C0F83C380978D0F8E9
:202BC0001C3801F00F018C4023EA0404C0F81C48D2F800391D40C2F80059002070BC70472D
:202BE0000078F3EF007833ECF0B44C780B78012C51D000EB431303F530652C69E40CE40470
:202C00002C612C6924F0FF5424F4C0142C614C6984B38F686B4ED5F810C03C44013CB4FB0D
:202C2000F7F406EAC44646EA0C062E618E682F69A4B206FB04F4C4F312043C43012A2C61FD
:202C400024D0CA78012A0CD1D0F8082812F4807FD3F8002B0CBF42F0005242F08052C3F835
:202C6000002BD3F8002B42F00442C3F8002B0020F0BC70478C682E69C4F3120434432C61F6
:202C80002C69012A44F400242C61DAD1CA68002AD7D06A61D5E74C6900EB431303F51063F5
:202CA000002C3DD01C69474DE40CE4041C611C6924F0FF5424F4C0141C618E684C691F69E5
:202CC0003444013CB4FBF6F405EAC4443C431C614C691D69C4F312042C431C61CC78012C4E
:202CE00007D11C6924F0C0441C611C6944F000541C61012A24D01C6844F004441C60CC7879
:202D0000012C35D04B69002BB1D00B78D0F8341803F00F02012393400B43C0F83438A6E790
:202D20001C6924F0FF5424F4C0141C611C6944F400241C611C69E40CE404012A1C61DAD130
:202D40000A6902B15A61CA78012A0AD1D0F8082812F4807F1A680CBF42F0005242F0805278
:202D60001A601A6842F004421A600020F0BC7047D0F8084814F4807F1C680CBF44F00054EC
:202D800044F080541C60002A7FF471AF8D8A0335AD083FF46CAF0B78CA6800EB033000F5D8
:202DA000805002EB850551781378947843EA0123D17843EA0443043243EA0163AA42036048
:202DC000F1D154E70000F81F30B44C780B78012C2BD000EB431000F530642369DB0CDB0473
:202DE0002361236923F0FF5323F4C01323614B690BB18B684B61236943F4002323618B6884
:202E00002569C3F312032B43012A236108D0D0F8003B43F00443C0F8003B002030BC704731
:202E2000CB68002BF3D06361F1E74C6900EB431303F51063002C2ED01C69E40CE4041C6170
:202E40001C6924F0FF5424F4C0141C618C684D69A54288BF4C611C6944F400241C614C6985
:202E60001D69C4F312042C43012A1C6123D01A6842F004421A604B69002BCED00B78D0F8B9
:202E8000341803F00F02012393400B43C0F8343830BC002070471C6924F0FF5424F4C014DE
:202EA0001C611C6944F400241C611C69E40CE404012A1C61DBD10A6902B15A611A6842F0F1
:202EC00004421A60002030BC704700BF70B49DF80C40ACB903339B0812D0013200EB023635
:202EE00001EB83020B784D788C78C87843EA052343EA0443043143EA00638A423360F1D126
:202F0000002070BC704700BF0332920813D030B400F5805501EB82002B680B70C3F3072432
:202F2000C3F307421B0E4C708A70CB7004318142F2D130BC70470846704700BF4A780B7811
:202F4000012A00EB43100CD0D0F8002B002A00DBD3B9D0F8003B43F40013C0F8003B002048
:202F60007047D0F80029002A06DB2BB1D0F8003923F08043C0F80039D0F8003943F40013AF
:202F8000C0F8003900207047D0F8003B23F08043C0F8003BDDE700BF4A780B78012A00EBBF
:202FA000431013D0D0F8003B23F40013C0F8003BCB78023B012B01D900207047D0F8003B5B
:202FC00043F08053C0F8003B00207047D0F8003923F40013C0F80039CB78023B012BEBD896
:202FE000D0F8003943F08053C0F8003900207047D0F8003823F4FE63C0F80038D0F800389A
:20300000090101F4FE611943C0F800180020704708B5D0F8042822F0020200F5006303200D
:203020005A60FEF75FF9002008BD00BF08B5D0F8042842F0020200F5006303205A60FEF7D4
:2030400051F9002008BD00BF4269806910407047D0F8183800F50060C0691840000C704736
:20306000D0F8183800F50060C069184080B2704700EB411100F50060D1F8082B40691040F2
:20308000704700BF10B4D0F81048D0F8343800EB411001F00F0100F51060CB40DB01806831
:2030A000DBB2234318405DF8044B7047406900F001007047D0F8003923F4FF6323F0070382
:2030C000C0F80039D0F8043843F48073C0F804380020704710B4144B046C9C421AD800F5AE
:2030E000306000230361036943F400230361036943F0180303610369012943F0C043036141
:2031000004D14261036843F08023036000205DF8044B7047D0F8003B002B00F53060E0DAAB
:2031200000205DF8044B70470A30544F70B5424CFEF7D2F8236843F001030546236004E051
:20314000FEF7CAF8401B022873D823689807F7D52368394E43F080032360FEF7BDF80023DA
:20316000A360054641F2883404E0FEF7B5F8401BA0425ED8B36813F00C0FF6D1FEF7ACF880
:2031800033682D4D23F450230446336004E0FEF7A3F8001B64284CD82B689903F7D4FEF785
:2031A0009BF82B68244E23F0807304462B6004E0FEF792F8001B02283BD833689A01F7D4E0
:2031C000FEF78AF833681C4C23F080630546336004E0FEF781F8401B02282AD823681B0121
:2031E000F7D4164A164B6260C4F88430E3681548154A164923F4F853E360E36823F4005351
:20320000E360E36843F41F03E360E36843F40013E360636F23F001036367636F43F0807301
:20322000636700681160FEF711F8003818BF012070BD032070BD00BF0038024010300004C3
:2032400000300020140000200C0000200024F40030B405686B6A29B943EA0243AB620020FF
:2032600030BC7047A86A4C1E03EB10400BD0002303F1400105EB810101334968DBB2A342F5
:2032800000EB1140F4D3403405EB840440EA0240606030BC00207047036800205962704753
:2032A000704700BF00F17843B3F5801F09D300F1604000F50840B0F5047F2CBF00200120A7
:2032C00070470120704700BF004870470200F0FF08B500F015FD406808BD00BF03780B70CF
:2032E0000120704703880B800120704703680B600120704782B00C4B002100915A6C42F423
:2033000080425A645A6C02F480420092009A01911A6C42F080521A641B6C03F08053019308
:20332000019B02B0704700BF00380240044B5A6C22F480425A641A6C22F080521A64704705
:20334000003802404FF000610B6883F30888044BD3F8882042F47002C3F88820996070475D
:2033600000ED00E008B501F051FA00F07DFD032803D0BDE8084000F08DBE00F029FD0028B9
:20338000F7D0002000F00CFEBDE8084000F076BEFEE700BF004870470010014090F91000AE
:2033A000704700BF82B0074B002201925A6C42F010025A645B6C03F010030193019B02B0E7
:2033C000704700BF00380240024A536C23F010035364704700380240004870470044004061
:2033E00090F91000704700BF82B0074B002201921A6C42F400321A641B6C03F400330193D4
:20340000019B02B0704700BF00380240024A136C23F40033136470470038024000487047B2
:203420000048004090F91000704700BF82B0074B002201921A6C42F480221A641B6C03F462
:2034400080230193019B02B0704700BF00380240024A136C23F480231364704700380240CA
:2034600000487047004C004090F91000704700BF82B0074B002201921A6C42F400221A641D
:203480001B6C03F400230193019B02B0704700BF00380240024A136C23F400231364704786
:2034A00000380240004870470050004090F91000704700BF82B0074B002201921A6C42F4FF
:2034C00080121A641B6C03F480130193019B02B0704700BF00380240024A136C23F4801384
:2034E0001364704700380240004870470014014090F91000704700BF82B0074B0022019288
:203500005A6C42F020025A645B6C03F020030193019B02B0704700BF00380240024A536C19
:2035200023F020035364704700380240004870470054004090F91000704700BF82B0074B47
:20354000002201921A6C42F400121A641B6C03F400130193019B02B0704700BF0038024007
:20356000024A136C23F400131364704700380240004870470058004090F91000704700BF08
:2035800082B0074B002201921A6C42F480021A641B6C03F480030193019B02B0704700BFDD
:2035A00000380240024A136C23F48003136470470038024000487047005C004090F9100050
:2035C000704700BF10B504464068034B236008B101F0BFFD204610BDE858000810B50446FD
:2035E0004068034B236008B101F0B3FD204610BDCC58000810B504464068034B236008B158
:2036000001F0A7FD204610BDB058000810B504464068034B236008B101F09BFD204610BDD5
:203620009059000810B504464068034B236008B101F08FFD204610BD7459000810B50446C4
:203640004068034B236008B101F083FD204610BD5859000810B504464068034B236008B19A
:2036600001F077FD204610BD3C59000810B504464068034B236008B101F06BFD204610BD48
:203680002059000810B504464068034B236008B101F05FFD204610BD0459000870B54A68AC
:2036A0008D68144BAD1A0446E810002203FB00F30E4622606260A26033B10F4A934216D800
:2036C000284601F048FD03461D44A560236063607168B0688142A0EB010504D018462A466A
:2036E00001F0B0FD03462B446360204670BD01F043FD00BFABAAAAAA555555052DE9F0413A
:20370000114B571A0D461646F910104A03FB01F3934215D804468BB1384601F01CFD00EB1D
:203720000708AE422060C4F8088003D03A46294601F07AFDC4F80480BDE8F0811846EEE713
:20374000034801F01CFD00BFABAAAAAA55555505C456000870B54A688D68144BAD1A04464A
:20376000E810002203FB00F30E4622606260A26033B10F4A934216D8284601F0ECFC034614
:203780001D44A560236063607168B0688142A0EB010504D018462A4601F054FD03462B449C
:2037A0006360204670BD01F0E7FC00BFABAAAAAA5555550570B54A688D68144BAD1A044637
:2037C000E810002203FB00F30E4622606260A26033B10F4A934216D8284601F0BCFC0346E4
:2037E0001D44A560236063607168B0688142A0EB010504D018462A4601F024FD03462B446C
:203800006360204670BD01F0B7FC00BFABAAAAAA5555550570B54A688D68144BAD1A044606
:20382000E810002203FB00F30E4622606260A26033B10F4A934216D8284601F08CFC0346B3
:203840001D44A560236063607168B0688142A0EB010504D018462A4601F0F4FC03462B443C
:203860006360204670BD01F087FC00BFABAAAAAA5555550570B54A688D68144BAD1A0446D6
:20388000E810002203FB00F30E4622606260A26033B10F4A934216D8284601F05CFC034683
:2038A0001D44A560236063607168B0688142A0EB010504D018462A4601F0C4FC03462B440C
:2038C0006360204670BD01F057FC00BFABAAAAAA5555550570B54A688D68144BAD1A0446A6
:2038E000E810002203FB00F30E4622606260A26033B10F4A934216D8284601F02CFC034653
:203900001D44A560236063607168B0688142A0EB010504D018462A4601F094FC03462B44DB
:203920006360204670BD01F027FC00BFABAAAAAA5555550570B54A688D68144BAD1A044675
:20394000E810002203FB00F30E4622606260A26033B10F4A934216D8284601F0FCFB034623
:203960001D44A560236063607168B0688142A0EB010504D018462A4601F064FC03462B44AB
:203980006360204670BD01F0F7FB00BFABAAAAAA5555550570B54A688D68144BAD1A044646
:2039A000E810002203FB00F30E4622606260A26033B10F4A934216D8284601F0CCFB0346F3
:2039C0001D44A560236063607168B0688142A0EB010504D018462A4601F034FC03462B447B
:2039E0006360204670BD01F0C7FB00BFABAAAAAA5555550570B54A688D68144BAD1A044616
:203A0000E810002203FB00F30E4622606260A26033B10F4A934216D8284601F09CFB0346C2
:203A20001D44A560236063607168B0688142A0EB010504D018462A4601F004FC03462B444A
:203A40006360204670BD01F097FB00BFABAAAAAA55555505034B1B686FF001021A6100F083
:203A6000F7BE00BF0803002030B595B03022002108A801F001FC002323490193049303931C
:203A8000059306930793086C204A40F080500864096C01F08051019101990293136843F467
:203AA00080431360136803F480430293012102234FF480324FF48004089109920821A822DC
:203AC0000E93129308A80723CDE91012029D0F941393FDF72BFC80B902210F2580244FF474
:203AE0008052002303A804910395059406920793FDF72EFE20B915B030BDFFF749FCEBE776
:203B0000FFF746FC15B030BD0038024000700040F8B55649564E574B574D33600024301D57
:203B200001F130027460B460F460FFF7E7FD25232A4633745149524F304601F005FB514EAB
:203B40005149524B7460301DB460F460336001F13002FFF7D3FD26232A4633744C493046BD
:203B600001F0F2FA4B494C4B7C60381DBC60FC603B6001F13002FFF7C1FD27232A463B74B8
:203B80004649474E384601F0DFFA4649464B7460301DB460F460336001F13002FFF7AEFDB8
:203BA00034232A4633744149414F304601F0CCFA4049414B7C60381DBC60FC603B6001F105
:203BC0003002FFF79BFD35232A463B743B493C4E384601F0B9FA3B493B4B7460301DB4603F
:203BE000F460336001F13002FFF788FD47232A4633743649364F304601F0A6FA3549364BB4
:203C00003B60381D01F130027C60BC60FC60FFF775FD2A4631493C74384601F095FA304EBE
:203C20003049314B33607460301D01F13002B460F460FFF763FD2A4634742C49304601F005
:203C400083FA2B4E2B492C4B7460301D01F13002B460F4603360FFF751FD34742A46304671
:203C60002649BDE8F84001F06FBA00BFF856000890020020045900080800002085360008C7
:203C8000B8020020A402002028570008205900086D360008585700083C59000855360008EA
:203CA000CC02002088570008585900083D360008E0020020B85700087459000825360008AA
:203CC000F4020020E8570008905900080D3600085402002018580008B0580008F53500081B
:203CE0006802002048580008CC580008DD3500087C02002078580008E8580008C53500088C
:203D00000B289ABF024B03EBC0000248704700BF1001002068010020DFF834D0002103E0C3
:203D20000C4B5B58435004310B480C4B42189A42F6D30B4A02E0002342F8043B094B9A4205
:203D4000F9D3FFF7FFFA01F03BFA00F0FDFE7047000002209C5A0008080000203002002046
:203D600030020020DC1B0020FEE700000230FFF7AFBA00BF023001F0C3BB00BF10B582B04E
:203D800002300C460192FFF7BBFF00680199204402B0BDE8104001F0B7BB00BF023001F00A
:203DA000ABBB00BF08B5012000F0FAF8BFF34F8F0549064BCA6802F4E0621343CB60BFF352
:203DC0004F8F00BFFDE700BF00ED00E00400FA05F0B583B0234801A9FFF788FA0198FFF7DF
:203DE00061FA10B9002003B0F0BDFFF76DFA019A831E9342F6D310460DF10201FFF772FA2F
:203E0000019C04F17844A4F5004401940CB300263446374641F2210506F1006000F5004021
:203E20000DF101018DF80170FFF758FA9DF80120082384EA022414F4004F85EA44020ABFFA
:203E4000640094B2A4B2013BF5D1019B0136B342E2D8BDF80200001BB0FA80F0400903B0F6
:203E6000F0BD00BF9081000838B56420FDF73AFA094B1D6900F0F2F8044605F0100500F02C
:203E8000F7F824B9002D14BF0120032038BD002D14BF0220002038BD00040240044B4FF40E
:203EA00080614FF4007299619A6199619A6170470000024058B1012808D1C9B91049114B47
:203EC0004FF48060322288611A707047704739B90B490D4B4FF48060322288611A7070474B
:203EE00007490A4B4FF40070322288611A7070470349074B4FF40070322288611A7070471D
:203F00000000024049030020480300204A0300204B0300201C4B1B78002B33D11B4B1A788C
:203F20004AB11A78013AD2B21A701B781BB9184B4FF080629A61174B1A784AB11A78013A09
:203F4000D2B21A701B781BB9114B4FF000729A61114B1A784AB11A78013AD2B21A701B788D
:203F60001BB90B4B4FF080629A610C4B1A784AB11A78013AD2B21A701B781BB9044B4FF047
:203F800000729A61704700BF4C03002048030020000002404A030020490300204B030020DB
:203FA0002DE9F843DFF8B090264C0123804689F8003003254FF400774FF480664FF080635F
:203FC0009620A761B8F1000F29D0A761A361A361FDF788F94FF00073A3619620A361A66176
:203FE000A661FDF77FF9013DE8D1164B4FF000714FF0806299619A6199619A61EFF31083C6
:2040000072B6114C11481249124A257089F8005005700D70157003B962B6BDE8F883A76132
:204020009620A661A661FDF75DF94FF000724FF08063A2619620A261A361A361FDF752F99C
:20404000D1E700BF00000240480300204A030020490300204B0300204C030020034B1868B8
:20406000A0F14700B0FA80F04009704700000020014BFF221A6070470000002008B5FFF7BD
:2040800055F8FDF7CDF8024B1B689847FEE700BF0480000808B5FFF701FFBDE8084000F0AB
:2040A00063BF00BF70B50446FDF72EF90646FDF731F90546FDF734F9320E0346310C227067
:2040C0002A0EE670E571360AE0726170280C190E2D0A22711A0C1B0AA6706071A571217299
:2040E0006272A37270BD00BF2DE9F0479B4FDFF88C82DFF88C92B4B0002629E040455DD194
:20410000974A00210291116B41F004011163126B02F004020292029A924A90425DD1904A89
:2041200000210691116B41F040011163126B02F040020692069A299300240125013629A96D
:204140002A942D942B952C95FCF768FF082E73D02EA8F1B2FCF7CAF92E98834ABDF8BC3029
:2041600090421DD0B842C9D17D4A00210191116B41F002011163126B02F002020192019AAD
:204180007A4A9042C8D1764A00210591116B41F020011163126B02F020020592059ACAE7BF
:2041A00002F5605200210091116B41F001011163126B02F001020092009AE1E76C4A904293
:2041C0002BD1674A00210391116B41F008011163126B02F008020392039A664A90420CD149
:2041E0005F4A00210791116B41F080011163126B02F080020792079A9DE75F4A90429AD126
:20420000574A00210891116B41F480711163126B02F480720892089A8DE74845B0D1504A70
:2042200000210491116B41F010011163126B02F010020492049A7EE7494E0E94336BDFF8CE
:204240003CA1DFF82491454F43F004033363336B2F9503F004034FF480780E9350462EA9EC
:204260000E9BCDF8B880CDE930453294FCF7D6FE0D94336B43F004033363336B2F9503F07C
:2042800004030D9350464FF400732EA90D9A2E93CDE930453294FCF7C1FE0C94336B2B439D
:2042A0003363336BCDF8B8802B400C9348462EA90C9B2F95CDE930453294FCF7AFFE4FF023
:2042C00080734FF00072CAF81830CAF81820C9F818300B94336BDFF8A8802B433363336B4F
:2042E0002F952B400B93484604232EA90B9A2E93CDE930453294FCF791FE0A94336B2B43E2
:204300003363336B2F952B400A93484602232EA90A9A2E93CDE930453294FCF77FFE0994B0
:20432000336B2B433363336B2E952B4009932EA94846099B2F95CDE930453294FCF76EFE56
:204340004FF480214FF400324FF48033C9F818102646C9F81820C9F8183043E0000402404E
:2043600000380240001802400000024000140240000C0240001C0240002002400008024079
:2043800000100240554563D1504B002211921A6B42F004021A631B6B03F004031193119B93
:2043A0004B4B9D4263D1494B002215921A6B42F040021A631B6B03F040031593159BCDF8A8
:2043C000A490112200240123013629A928462A922B942D942C93FCF721FE062EC5F8189011
:2043E00000F08280F1B22EA8FCF794F82E9D394BBDF8BC909D421DD0BD42C3D1334B002284
:2044000010921A6B42F002021A631B6B03F002031093109B304B9D42C2D12C4B00221492CA
:204420001A6B42F020021A631B6B03F020031493149BC4E703F5605300220F921A6B42F064
:2044400001021A631B6B03F001030F930F9BE1E7224B9D422BD11D4B002212921A6B42F01E
:2044600008021A631B6B03F008031293129B1C4B9D420CD1154B002216921A6B42F0800259
:204480001A631B6B03F080031693169B97E7154B9D4294D10D4B002217921A6B42F4807257
:2044A0001A631B6B03F480731793179B87E74545B0D1064B002213921A6B42F010021A63DC
:2044C0001B6B03F010031393139B78E700380240001802400000024000140240000C0240E3
:2044E000001C024000200240DFF8A882DFF8B492DFF8B4A221462EA8FBF7E4FF2E9EA24BE6
:20450000BDF8BC709E4200F06E81464500F04E814E4540F0F9809D4B00221A921A6B42F008
:2045200004021A631B6B03F004031A931A9B984B9E4240F0F880954B00221E921A6B42F042
:2045400040021A631B6B03F040031E931E9B29970025032329A930463F042A932B952C95A2
:204560002D95FCF75BFDB761002C00F0CB80874E2995336B8748844F43F002033363336B70
:204580002F9403F0020329932EA94FF48043299A2E93CDE930543295FCF740FD2895336BB7
:2045A0007C4843F002033363336B2F9403F0020328932EA94FF40043289A2E93CDE930543B
:2045C0003295FCF72BFD2795336B724843F002033363336B2F9403F0020327932EA94FF4EA
:2045E0008053279A2E93CDE930543295FCF716FD2695336B674843F002033363336B2F9428
:2046000003F0020326932EA94FF40053269A2E93CDE930543295FCF701FD2595336B5D480C
:2046200043F002033363336B2F9503F00203102225932EA902232E92DDF894C030933194FB
:204640003295FCF7EBFC2495336B43F001033363336B2F9403F00103249338464FF48069DC
:204660002EA9249B3295CDE93054CDF8B890FCF7D5FC2395336B43F001033363336B2F944E
:2046800003F00103239338464FF400782EA9239B3295CDE93054CDF8B880FCF7BFFC22953C
:2046A000336B43F001033363336BCDF8B89003F00103229338462EA9229B2F94CDE9305429
:2046C0003295FCF7ABFC2195336B43F001033363336BCDF8B88003F0010321932EA93846BD
:2046E000219B2F94CDE930543295FCF797FC4FF080624FF00073BA61BB61BA61BB6134B08F
:20470000BDE8F0870124F5E6234B9E422CD11F4B00221B921A6B42F008021A631B6B03F042
:2047200008031B931B9B1D4B9E420CD1174B00221F921A6B42F080021A631B6B03F08003FE
:204740001F931F9B03E7164B9E427FF400AF0F4B002220921A6B42F480721A631B6B03F4CB
:2047600080732093209BF2E656452BD1074B00221C921A6B42F010021A631B6B03F0100375
:204780001C931C9BE3E600BF00000240003802400018024000040240000C0240001C024023
:2047A000002002400008024000100240154B002219921A6B42F002021A631B6B03F0020318
:2047C0001993199B104B9E427FF4B1AE0D4B00221D921A6B42F020021A631B6B03F0200351
:2047E0001D931D9BB3E603F56053002218921A6B42F001021A631B6B03F001031893189B2F
:20480000E0E700BF003802400014024008B5FCF741FDFFF729F9BDE80840FFF765BC00BF79
:204820000148FDF743BA00BF6C170020704700BFFEE700BFFEE700BFFEE700BFFEE700BFD6
:20484000704700BF704700BF704700BFFCF738BD064A137883F00103137003B97047044A78
:20486000136801331360FFF755BB00BF70010020500200202DE9F04790F8203004460D468C
:20488000FBB190F84000D4E91227C100C1F1200607FA06F6CA402039324327FA01F10A43E0
:2048A00002F0FF064FF0000900225FFA85F84A4508BF46454DD10130C0B208285DD084F846
:2048C000400004EBC3021BB25268511004EB6200D20745BF625854F8333054F83330D3588B
:2048E0002946984750B3022801D0BDE8F08762680023511084F8203063622385E3622386DB
:204900006363A36384F84030D3074CBF2368236804EB620048BF6258294648BFD358984752
:204920000228E2D1002384F8203063622385E36223866363A36384F84030D6E794F82030FF
:20494000032B09D0013384F8203084F83000BDE8F08784F84020B4E7636C84F820006062E4
:204960002085E06220866063A06384F840001A681846BDE8F04713691847012384F8402091
:2049800062622285E26222866263A26384F82030ABE700BF2DE9F00390F84040D0E91236C7
:2049A000E200C2F12005D34006FA05F5203A2B4326FA02F2134303F0FF0800270023BB42BD
:2049C00008BF88450CD10134E4B2082C15BF80F8404080F8403001201846BDE8F0037047E5
:2049E00080F84030BDE8F0030220704710B490F83030032B0BD8826BDC00A140013311436F
:204A000080F8303081635DF8044B012070471A1FC46BD2000133DBB291402143082B80F883
:204A20003030C16307D1406D5DF8044B814214BF02200020704701205DF8044B704700BFFF
:204A400070B590F83020038D0446D00081400132D2B20B439BB2022A84F83020238522D109
:204A6000E26A32B9606C616A03685B689847E26A238D606C616A0568AD68A847E56A636B3A
:204A8000606C616A023502330026E5626363268584F8306003681B689847854205D0626BF3
:204AA000A36B9A4210D0012070BD606CE6620368616ADB689847626BA36B9A4209D0636A15
:204AC000013363620120EFE7606C616A0368DB689847002084F8300070BD00BF10B490F8BE
:204AE0003020036DD400E340DBB28B4209D10132D2B2042A0CD080F830205DF8044B01207D
:204B00007047002380F830305DF8044B02207047002380F830305DF8044B1846704700BFF3
:204B2000FFF740B90846FFF739B900BF084611461A46FFF723B900BF0846FFF71BB900BF24
:204B40000846FFF713B900BF2DE9F04383B0DFF884801F4FDFF88090FEF704FC44462046F5
:204B600000F018FA0028FAD02146384600F0D0F8D0B1384600F0E2F8002506468DF807508E
:204B80000028ECD006E09DF807104846FFF772FEAE42E4D029460DF107023846013500F0ED
:204BA000DDF80028F4D0EEE798F80030072BD6D198F80130F02BD2D198F80230552BCED166
:204BC00098F80330F72BCAD1204600F085FAC6E7500300209C030020A003002000000000DE
:204BE0002DE9F003184D194C194F0FCD26460FC695E80F00174D6564174D256586E80F0039
:204C000005F157550FF23809D9E9008905F5971505F5B56565650025C4E91289C4E90E5564
:204C200084F8205065622585E5622586656384F84050BD64BDE8F003704700BFAFF3008000
:204C40004F70456E6E45704F10550008A003002050030020740100206B4365440B781B0142
:204C6000DBB2602B024642D070B413D8402B25D14878F0282DD0936C5D1C9C1CDE1CD0542F
:204C800095648B7853559464CB7813559664002070BC7047702B19D14878F02820D0936C84
:204CA0005D1C9C1CDE1CD05495648B7853559464CB7813559664012070BC7047502B02D112
:204CC0004B78F72B1ED0002070BC7047F02BF7D0F9E7002393644878032602240125CEE738
:204CE000002393644878032602240125DBE7836C4878D054581C90648978115402339364D6
:204D000001207047916C4C1C535401209464DBE710B50446FFF7A2FF60B1607858B9A2781A
:204D2000532A07D1E278432A04D1A06C062894BF0020012010BD002010BD00BF437813B9B4
:204D40008278532A01D000207047C278432AFAD1806C0628F7D9431F5808704710B4023168
:204D6000846C4B000133A3420DD210F81110C35C5DF8044BC9074CBF43F0800303F07F030E
:204D800001201370704700205DF8044B704700BF6523038000487047C0590008122303809B
:204DA00000487047285A000804230380004870473C5A00082223038000487047405A0008BA
:204DC0001A23038000487047645A0008F0B4114F032232237A703B7000220B78144603F049
:204DE0000F03092B07EB420502F101028CBF373330330026182AAB70EE7006D0D5070B5D2B
:204E0000EDD501341B09E4B2E9E732230380F0BC00487047981B0020024B01221A700020A1
:204E2000704700BFD8160020FFF7B2BF10B581210446FCF78BF820460221FCF787F8024B18
:204E40000020187010BD00BFF803002010B58023022281210446FCF769F802221146204656
:204E60008023FCF763F8064A204680230221FCF7C7F80449044A01230B701370002010BD69
:204E8000DC160020D8160020F80300200846FFF791BF00BF10B584B00C4601A8FFF702F99F
:204EA00001A92046FFF792FF04B010BD0846FFF787BF00BF0846FFF777BF00BF0846FFF714
:204EC0006DBF00BF2DE9F047D0F8C432C1EBC10103EB81018146D1F814E2BEF1000F2BD0BF
:204EE0001A4DDFF870A0DFF868802F1F0AF5805C002318F80310C9B2EFF3108472B628688D
:204F00003A6804B962B6904213D2EFF3108072B6DCF800203E682C680AF80210013201341F
:204F2000B2FBF6F106FB1122CCF800202C6000B962B601339E45DCD1054A48468023022101
:204F4000FCF75EF80020BDE8F08700BFD4160020DC160020CC0600200846FFF72BBF00BF12
:204F60000846FFF727BF00BF10B5074C074920460022FBF79BFD20460549FBF7AFFD204616
:204F8000BDE81040FBF7C0BDFC0300207801002094010020EFF3108172B64D4B41F20802D0
:204FA0009A5801B962B6032A01D80020704770B4EFF3108172B641F208029A58002900F049
:204FC0008480BAB1EFF3108672B641F20401414A5D58126841F208012A445C58121BB2FB98
:204FE000F5F405FB14229A5C02705A58013A5A5006B962B6EFF3108172B641F208029A58F2
:20500000002960D0BAB1EFF3108672B641F20401304A5D58126841F208012A445C58121BC0
:20502000B2FBF5F405FB14229A5C42705A58013A5A5006B962B6EFF3108172B641F20802B6
:205040009A5800293DD0BAB1EFF3108672B641F20401204A5D58126841F208012A445C58EE
:20506000121BB2FBF5F405FB14229A5C82705A58013A5A5006B962B6EFF3108172B641F213
:2050800008029A58D9B1BAB1EFF3108672B641F20401104A5D58126841F208012A445C5860
:2050A000121BB2FBF5F405FB14229A5CC2705A58013A5A5006B962B6012070BC704762B645
:2050C000E1E762B6BFE762B69CE762B679E700BFCC060020CC16002038B50D4B1B789BB160
:2050E0000C4D02462B7803F0FF04002BFAD000200423287081210848FBF774FF01210846DB
:20510000FEF7D8FE204638BD03F0FF04204638BDF8030020D8160020FC03002038B5094B8F
:205120004FF4805418462246002100F0A5F841F20405034641F2080000211A195C511950BA
:20514000116038BDCC0600200B460146184600F029B800F061B8012838BF012010B50446D7
:20516000204600F051F830B900F00CF808B900F011F88047F4E710BD08B500F00BF808B51D
:2051800000F008F8024B1868BFF35B8F704700BF5C17002008B5062000F058F9012000F078
:2051A0009DF9000010B5054C13462CB10A4601460220AFF3008010BD2046FCE7000000001C
:2051C00070B50D4D0D4C641BA4100026A64209D10B4D0C4C00F084F9641BA4100026A6427E
:2051E00005D170BD55F8043B98470136EEE755F8043B98470136F2E7885A0008885A0008E6
:20520000885A0008985A0008024B0146186800F08BB800BFCC010020024B0146186800F0B3
:2052200033B800BFCC0100200A44914200F1FF3300D1704710B511F8014B03F8014F9142D3
:20524000F9D110BD884210B501EB020402D98442234607D8431EA14208D011F8012B03F801
:20526000012FF8E7024401468A4200D110BD13F8014D02F8014DF7E702440346934200D174
:20528000704703F8011BF9E737B5002948D051F8043C0190002BA1F10404B8BFE41800F0F1
:2052A000F1F8204A01981368154633B96360146003B0BDE8304000F0EBB8A3420BD921685C
:2052C0006218934204BF1A685B68636004BF521822602C60ECE71A465B680BB1A342FAD90F
:2052E00011685518A5420BD1246821445418A3421160DDD11C685B68536021441160D7E716
:2053000002D90C230360D3E7256861198B4204BF19685B68636004BF491921605460C7E7C0
:2053200003B030BD60170020F8B5CD1C25F0030508350C2D38BF0C25002D064601DBA942A5
:2053400003D90C2333600020F8BD00F09BF821490A6814469CB9204F3B6823B92146304601
:2053600000F03CF838602946304600F037F8431C23D10C233360304600F08AF8E3E723681B
:205380005B1B17D40B2B03D923601C44256004E06368A2420CBF0B605360304600F078F8E0
:2053A00004F10B00231D20F00700C21ACCD01B1AA350C9E722466468CCE7C41C24F0030464
:2053C000A042E3D0211A304600F008F80130DDD1CFE700BF601700206417002038B5064DD1
:2053E0000023044608462B6000F06AF8431C02D12B6803B1236038BDCC1B00201F2938B5E8
:2054000004460D4604D9162303604FF0FF3038BD426C12B152F821304BB9204600F030F885
:205420002A4601462046BDE8384000F017B8012B0AD0591C03D1162303600120E7E7002475
:2054400042F82540284698470020E0E7024B01461868FFF7D3BF00BFCC01002038B5074DF0
:2054600000230446084611462B6000F021F8431C02D12B6803B1236038BD00BFCC1B0020CF
:2054800000F00EB8014800F009B800BFD41B0020014800F004B800BFD41B0020704770475D
:2054A000024B58221A604FF0FF307047CC1B0020024B58221A604FF0FF307047CC1B002012
:2054C000044A05491368002B08BF0B46184410601846704768170020E01B0020FEE700BF33
:2054E000F8B500BFF8BC08BC9E467047F8B500BFF8BC08BC9E4670475FF800F06D000020DA
:205500005FF800F0190000205FF800F0710000209549000800000000ED490008000000000F
:20552000414A000800000000DD4A000800000000000802400400000000000000000000005B
:205540000000000000000000000802400200000000000000000000000000000000000000FF
:20556000000002401000000000000000000000000000000000000000000002402000000077
:205580000000000000000000000000000000000000080240100000000000000000000000B1
:2055A000000000000000000000080240200000000000000000000000000000000000000081
:2055C000000402400008000000000000000000000000000000000000000402400004000033
:2055E000000000000000000000000000000000000004024004000000000000000000000061
:20560000000000000000000000040240020000000000000000000000000000000000000042
:205620000004024000020000000000000000000000000000000000000004024000010000DB
:20564000000000000000000000000000000000000000024008000000000000000000000000
:205660000000000000000000000002404000000000000000000000000000000000000000A8
:20568000000002408000000000000000000000000000000000000000000402400100000001
:2056A0000000000000000000000000000000000000000000000000000102030406070809C2
:2056C0000003010363616E6E6F7420637265617465207374643A3A766563746F72206C614D
:2056E00072676572207468616E206D61785F73697A65282900000000000002400004000018
:20570000020000000000000003000000070000000000024000020000020000000000000037
:20572000030000000700000000000240080000000200000000000000030000000700000009
:205740000000024004000000020000000000000003000000070000000004024000080000A9
:205760000200000000000000030000000700000000040240000400000200000000000000D1
:205780000300000007000000000002400200000002000000000000000300000008000000AE
:2057A000000002400100000002000000000000000300000008000000000C02400400000047
:2057C000020000000000000003000000080000000008024000100000020000000000000060
:2057E0000300000008000000000802408000000002000000000000000300000008000000C7
:2058000000080240400000000200000000000000030000000800000000040240400000006B
:20582000120000000100000003000000040000000004024080000000120000000100000075
:205840000300000004000000000402400004000012000000010000000300000004000000DD
:20586000000402400008000012000000010000000300000004000000000802400002000074
:20588000120000000100000003000000040000000000024000010000120000000100000098
:2058A00003000000040000000000000000000000553700082D350008353500083D350008F7
:2058C000613500080000000000000000F5390008713500087935000881350008A5350008F0
:2058E00000000000000000009D360008B5350008BD3500083D3500086135000800000000C9
:2059000000000000B5370008953300089D330008A5330008C9330008000000000000000007
:2059200035390008D9330008E1330008E93300080D3400080000000000000000953900087E
:205940001D340008253400082D340008513400080000000000000000753800086134000845
:205960006934000871340008953400080000000000000000D5380008A5340008AD34000825
:20598000B5340008D9340008000000000000000015380008E9340008F1340008F934000825
:2059A0001D3500080000000000000000414B0008394B00082D4B0008254B0008214B000801
:2059C000090265000201008032090400000001010000092401000109000101090401000249
:2059E00001030000072401000141000624020101000624020202000924030103010201009F
:205A00000924030204010101000905020240000500000525010101090581024000050000F3
:205A20000525010103000000120100020000004009127384010001020301000004030904B4
:205A400022035300680061006E00740065006100200043006F006E00740072006F006C005C
:205A6000730000001A034F00700065006E004400650063006B00200044004600550000008E
:205A80007CA7FF7F01000000B1010008113B0008E14B00081D5100088D0100080000000016
:205AA0000024F400010000001000000030B587B0012302220024039002930493059201944A
:205AC00000F068F820B100F069F8204607B030BD0A4BF3220546DA60694601A800F056F8C5
:205AE000044600F05BF83CB90098A0F1FF30B0FA80F0400907B030BD2846E7E7003C02400B
:205B0000704700BF70B506460D4600F043F830B1044600F043F8B4FA84F0400970BD084BDF
:205B2000F3223146DA6001202A46002300F02AF8044600F033F8B4FA84F0400970BD00BF1D
:205B4000003C0240F8B505460E4600F023F8044628B100F023F8B4FA84F04009F8BD0848D2
:205B6000F327234632462946C760022000F00AF8044600F013F8B4FA84F04009F8BD00BF5C
:205B8000003C02405FF800F0A51900085FF800F0D92500085FF800F0151900085FF800F069
:205BA0003D19000800000008004000000040000800400000008000080040000000C0000827
:205BC000004000000000010800000100000002080000020000000408000002000000060853
:205BE00000000200000008080000020000000A080000020000000C080000020000000E0851
:205C00000000020001000000AC590008BD4E0008B54E00088D4E0008AD4E0008954E000885
:205C2000614F0008594F00084D4E00082D4E0008000000000000000000000000194E000867
:205C4000C54E000800000000000000000000000000000000294E00080000000000000000AA
:205C6000D00100200000000000000000000000000000000000000000000000000000000033
:205C8000000000000000000000000000000000000000000000000000000000000000000004
:205CA0000000000000000000000000000000000000000000000000000000000000000000E4
:045CC00000000000E0
:208000000000022069DD0008C9DD0008CDDD0008D1DD0008D5DD0008D9DD00080000000062
:20802000000000000000000000000000DDDD0008E1DD000800000000E5DD0008E9DD000820
:20804000B9DD0008B9DD0008B9DD0008B9DD0008B9DD0008B9DD0008B9DD0008B9DD000830
:20806000B9DD0008B9DD0008B9DD0008B9DD0008B9DD0008B9DD0008B9DD0008B9DD000810
:20808000B9DD0008B9DD0008ADD80008B9DD0008B9DD0008B9DD0008B9DD0008B9DD000801
:2080A000B9DD0008B9DD0008B9DD0008B9DD0008B9DD0008B9DD0008B9DD0008B9DD0008D0
:2080C000B9DD0008B9DD0008B9DD0008B9DD0008B9DD00087DD8000885D800088DD800085B
:2080E000B9DD0008B9DD0008B9DD0008B9DD0008B9DD0008B9DD0008B9DD0008B9DD000890
:20810000B9DD0008B9DD0008B9DD0008B9DD000895D800089DD80008B9DD000869D800080E
:20812000B9DD0008B9DD0008B9DD0008B9DD0008B9DD00080000000000000000B9DD00088B
:20814000B9DD0008B9DD0008B9DD0008BDDD0008B9DD0008B9DD0008B9DD0008A5D8000844
:20816000B9DD0008B9DD0008B9DD0008B9DD0008B9DD0008B9DD000800000000000000004B
:20818000B9DD0008B9DD0008FFFFFFFFFFFFFFFF44A2010810B5054C237833B9044B13B10C
:2081A0000448AFF300800123237010BDE407002000000000EC8A010808B5034B1BB1034920
:2081C0000348AFF3008008BD00000000E8070020EC8A010853B94AB9002908BF00281CBFDD
:2081E0004FF0FF314FF0FF3000F06EB9ADF1080C6DE904CE00F006F8DDF804E0DDE902231F
:2082000004B070472DE9F047089D04468C46002B40F083808A42174647D9B2FA82F242B12B
:20822000C2F1200024FA00F09140974040EA010C94404FEA1748230CBCFBF8F61FFA87FEA0
:2082400008FB16C143EA014306FB0EF1994209D9FB1806F1FF3080F01981994240F216812F
:20826000023E3B445B1AA4B2B3FBF8F008FB103344EA034400FB0EFEA64509D93C1900F109
:20828000FF3380F00581A64540F2028102383C4440EA0640A4EB0E0400261DB1D440002320
:2082A000C5E900433146BDE8F08702B9FFDEB2FA82F2002A50D1CB1B4FEA174E1FFA87F81B
:2082C0000126B3FBFEFC210C0EFB1C3341EA034108FB0CF38B4207D979180CF1FF3002D29B
:2082E0008B4200F2E9808446C91AA3B2B1FBFEF00EFB101143EA014408FB00F8A04507D95E
:208300003C1900F1FF3302D2A04500F2D9801846A4EB080440EA0C40BFE78B4209D9002DF0
:2083200000F0B1800026C5E9000130463146BDE8F087B3FA83F6002E4AD18B4202D3824269
:2083400000F2B880841A61EB030101208C46002DA8D0C5E9004CA5E7C2F1200320FA03F6FE
:20836000974001FA02F04FEA174ED9403043030CB1FBFEF61FFA87F80EFB161143EA014327
:2083800006FB08F1994204FA02F409D9FB1806F1FF3C80F08D80994240F28A80023E3B449A
:2083A0005B1A81B2B3FBFEF00EFB103341EA034100FB08F38B4207D9791800F1FF3C73D219
:2083C0008B4271D902383944CB1A40EA064678E7C6F1200C03FA06F422FA0CF31C4320FAA7
:2083E0000CF701FA06F34FEA144E21FA0CF11F433B0CB1FBFEF91FFA84F80EFB191143EA92
:20840000014109FB08FA8A4502FA06F200FA06F308D9611809F1FF3048D28A4546D9A9F139
:2084200002092144A1EB0A01BFB2B1FBFEF00EFB101147EA014700FB08F8B84507D9E719AF
:2084400000F1FF312ED2B8452CD90238274440EA0940A7EB0807A0FB02894F45C6464946EB
:208460001AD317D05DB1B3EB0E0267EB010707FA0CFCF2404CEA0202F740C5E9002700266B
:208480003146BDE8F0872E4628460BE70646E9E61846FDE64345E5D2B8EB020E69EB0401CE
:2084A0000138DFE70846D2E760468DE78146B9E7664675E730464AE7ACF1020C394413E764
:2084C00002383C4424E700BF704700BF034613F8012B002AFBD1181A01387047000000000A
:2084E00001F0FF01102A2BDB10F0070F08D010F8013B013A8B422DD010F0070F42B3F6D142
:20850000F0B441EA012141EA014122F007047FF000070023F0E80256083C85EA010586EAEE
:20852000010685FA47F5A3FA87F586FA47F6A5FA87F68EB9EED1F0BC01F0FF0102F00702E9
:2085400032B110F8013B013A83EA010313B1F8D10020704701387047002D06BF354603384C
:20856000073815F0010F07D1013015F4807F02BF013015F4C03F0130F0BC0138704700BF10
:2085800000B5084B00EB400003EBC00383B0596918698DE803000FCB05F08EFA03B05DF8AA
:2085A00004FB00BF748C010870B4084C01EB410104EBC10406460FCC35460FC594E80300A5
:2085C00085E80300304670BC704700BF748C0108014B185C704700BF148C010870B4084CB3
:2085E00001EB410104EBC10406460FCC35460FC594E8030085E80300304670BC704700BF1C
:20860000A48C0108014B185C704700BF348C010870B4084C01EB410104EBC10406460FCCA1
:2086200035460FC594E8030085E80300304670BC704700BF648D0108014B185C704700BFB4
:20864000E48B010838B5134602250A468361C361C0F89452002100F049FD002038BD00BF14
:2086600008B513460A46002100F040FD002008BD08B513460A46002100F046FD002008BDC2
:2086800008B504220023C0F8942219461A4600F02DFD002008BD00BF08B505220023C0F82A
:2086A000942219461A4600F02FFD002008BD00BFF0B50C7804F06004202C83B00E460546E6
:2086C0000ED0402C0CD0ACB18021284600F0D0FC2846002100F0CCFC0024204603B0F0BD1B
:2086E000D5F8B83231469B68284698470446204603B0F0BD4B78092BE6D801A252F823F037
:208700005F8700088D870008C9860008AB870008C9860008B3870008EB870008C986000854
:2087200007880008298700088E78AF4F012E3E7000F2378190F89C32022B00F02081032B1D
:2087400000F0FA80802100F093FC0021284600F08FFC3978284600F065FA0324BDE790F8C4
:208760009C22013A022A65D8CA88022A62D1D0F8A4220121C1600AB10322C260022205F1F9
:208780000C0128461C46FFF75DFFA6E790F89C32013B022B4ED84B88012B9ED10023C5F8EA
:2087A000A4322846FFF76CFF97E74B88012B94D1F5E78B88002B3DD1CB88002B3AD14E88AB
:2087C0007F2E37D890F89C32032B33D0F1B280F89E1200F07DFC2846FFF752FF002E00F04F
:2087E000FE80022385F89C3277E74A88130A0021013BADF80610062B1CD8DFE803F06C5F7C
:208800004C1B1B422600CA88012A13D190F89C32022B00F28A80002B3FF456AF01460023C1
:2088200041F8083FFFF70EFF57E7D0F8B4325B68002B5DD18021284600F01AFC2846002109
:2088400000F016FC204603B0F0BD037C002BF1D1D0F8B8320DF106001B6B984707234370EC
:20886000F288002A9DD0BDF80630002BE2D09A4228BF1A4601462846ADF80620FFF7E2FEA6
:208880002BE7037C002BD5D1D0F8B8320DF106005B6B9847E4E7D2B2052ACBD801A353F80B
:2088A00022F000BF2B8800081F8900081389000807890008FB880008E7880008037C002B94
:2088C00040F08480D0F8B8320DF106009B6A984702234370C4E7D0F8B432007C1B680DF19C
:2088E00006019847BCE7D0F8B4329B69002BA1D0287C0DF106019847B2E7D0F8B4325B690E
:20890000002BF5D196E7D0F8B4321B69002BEFD190E7D0F8B432DB68002BE9D18AE7D0F846
:20892000B4329B68002BE3D184E7032B7FF4CCAE011DFFF787FED0E6002E3BD0416801298E
:208940003FF42FAFC9B200F06DF939786960284600F060F9064600283FF423AF802128467C
:2089600000F086FB0021284600F082FB2979284600F058F90223344685F89C32ADE6002E8E
:208980003FF40FAF0121416000F044F9044600287FF450AF2846FFF773FE032385F89C32CC
:2089A0009BE6802100F064FB2846002100F060FB032492E60223466080F89C32314600F055
:2089C00031F928463446FFF75BFE86E6D0F8B8320DF10600DB6A98470223437040E70123CD
:2089E00085F89C3279E600BF0008002038B50B7803F06002402A0D4604460BD05B0609D500
:208A0000802100F035FB2046002100F031FB0025284638BD94F89C32013B022B12D82B7919
:208A2000012B0FD8D4F8B83229469B6820469847EB880546002BEBD10028E9D12046FFF7D3
:208A40001FFEE5E780212046DBE700BF70B50B7803F06003202B0D4604460CD0402B0AD09E
:208A60008BB18021204600F003FB2046002100F0FFFA002070BDD4F8B832294620469B687A
:208A8000BDE8704018474B788A88012BD1B23BD0032B28D0002BE4D190F89C32022B51D0E9
:208AA000032BDED101F00F0303EB8303120600EB830356D4B3F86431002BD2D001F07F032F
:208AC000142505FB030505F5AA752BB1204600F0EBFA002854D001232B6029462046022231
:208AE000FFF7B0FDC5E790F89C32022B21D0032BB7D16B8823B94A0602D0EB88002B41D05D
:208B00002046FFF7BDFDB4E790F89C32022B10D0032BA6D16B88002BABD14E062DD120464A
:208B2000FFF7AEFDD4F8B83229469B68204698479FE74B0695D000F09BFA2046802100F06F
:208B400097FA96E748068CD111064CBF04F1140104F5AA71002320460B600222FFF772FD9F
:208B600087E79B8C002B3FF47CAF01F07F035D1C05EB850500EB8505A7E700F087FACEE748
:208B80002860AAE700F074FABAE700BF0B7803704B784370CA788B7843EA022343804A7975
:208BA0000B7943EA02238380CA798B7943EA0223C3807047A0B1D0F8B83213B10023C0F8A7
:208BC000B832D0F8CC3213B10023C0F8CC3209B1C0F8B4120123027080F89C3200F0ECB99F
:208BE0000320704730B583B00024ADF8064059B1C0F8B8120546CB6A0DF106009847C5F8C8
:208C0000CC02204603B030BD032003B030BD00BF00F002BAD0F8B8320BB11B6818470320DF
:208C2000704700BF08B5D0F8B8320BB15B689847002008BD38B5044600F2AA252846FFF7B0
:208C4000A5FF94F8AA12B4F8B032C4F89832012201F01F039342C4F8942209D0022B13D0AE
