:020000040000FA
:20000000B2C00000D8C00000D6C00000D4C00000D2C00000D0C00000CEC00000CCC0000070
:20002000CAC00000C8C000000C9482210C94171FC2C00000C0C00000BEC00000BCC0000099
:20004000BAC00000B8C00000B6C00000B4C00000B2C00000FBC70000AEC00000ACC00000B6
:20006000AAC000000C948E150C9459150C944A15A2C000000C94960A9EC000009CC000006A
:200080009AC0000098C0000096C0000094C0000092C0000090C000008EC000008CC00000C8
:2000A0008AC0000088C0000086C000004067000009026500020100C032090400000001014D
:2000C000000009240100010900010109040100020103000007240100014100062402010136
:2000E000000624020202000924030103010201000924030204010101000905020240000508
:20010000000005250101010905810240000500000525010103120100020000000809127203
:200120008401000102000112034F00700065006E004400650063006B000000220353006838
:200140000061006E00740065006100200043006F006E00740072006F006C0073000000041E
:2001600003090400053011241FBECFEFDAE0DEBFCDBF14E0A0E0B1E0ECE2F4E602C0059083
:200180000D92A431B107D9F729E0A4E1B4E001C01D92A33CB207E1F710E0C3EBD0E004C04F
:2001A0002197FE010E940E32C23BD107C9F70E94D8250C94143224CFEF920F93EE24E394ED
:2001C00000E020E0482F60EC8EEB98E0D0D50F91EF90089591E0693E734008F490E0805C17
:2001E000482F469546954695E42FF0E0E756F64F208130E0682F58E0459F6019112402C0BE
:20020000359527956A95E2F72170921719F0692F0C94C71608958F929F92AF92BF92DF9236
:20022000EF92FF920F931F93CF93DF9300D01F92CDB7DEB7E0905008EE2009F46BC0D62EE8
:20024000F82E0E94231924E0F29E800111240A58174FF80180809180A280B380DC01CB0180
:2002600088199909AA09BB09853F9140A105B10508F450C089E48983FA82DB82E0916B0891
:20028000F0916C08CF01C69690935F0880935E0880EF86AB17AA83E580AF83E08093640860
:2002A00083E481AF809164088F5F80936408E0915E08F0915F08E80FF11D81E08083809184
:2002C00064088F5F80936408E0915E08F0915F08E80FF11D1082809164088F5F8093640805
:2002E00069E48EE498E00E942E0B6A818EE498E00E942E0B6B818EE498E00E942E0B8EE419
:2003000098E00E94D7180E942319F80160837183828393838E2D0F900F900F90DF91CF91A3
:200320001F910F91FF90EF90DF90BF90AF909F908F9008952F923F924F925F926F927F9201
:200340008F929F92AF92BF92CF92DF92EF92FF920F931F93CF93DF9300D01F92CDB7DEB713
:20036000882329F0813031F4109101080DC01091CF0707C0882321F0813049F410E004C0D0
:2003800010E04090D0070CC0409002080CC0882329F0813059F410E0412C05C010E0412C13
:2003A0008090D1070FC08090030814C0882339F0813009F0BEC310E0412C812C0BC010E0D3
:2003C000412C812CC090CE07CC2069F080913408C81A0BC0C0900008CC2009F482C3809108
:2003E0003408C81A80C3CC24CA94103C09F05CC0E12C0C2D282D442D612F8EEB98E0B7D4D5
:20040000103C31F4642D8FE896E00E94CF2291C3103B09F08EC309E415E0A12CB12CD12CE8
:20042000E12CF12C512C612C712C912C950147E062E08FE896E00E94461C672B682B692B85
:2004400049F1950142E062E08FE896E00E94461C6330710581059105E9F4950144E062E079
:200460008FE896E00E94461C6C157D058E059F0589F4950143E062E08FE896E00E94461CE8
:20048000641575058605970529F4D80117969C928E921697BFEFAB1ABB0A0E5F1F4FE0E2CF
:2004A000AE16B10419F645C3113C08F420C3183F21F481E00E946A183CC31A3F09F42FC348
:2004C000103F09F036C38091D0079091D1078E32910510F08DE290E0E2EDF7E02091520814
:2004E000309153082115310509F423C370915408772309F41EC3682F9FE09093550893E0B3
:200500009093560892E090935708109258081092590810925A0810925C0810925B081092B0
:200520005D08F0935F08E0935E088093630886E080936408683008F4FCC281818111F9C28F
:200540008281833509F0F5C28381833409F0F1C28481882311F09483AAC1683009F4B8C089
:200560006B3008F490C080915008811102C083E037C1858180935A089681909356084781A1
:2005800040935708508550935808D184D0925908933010F084E024C1571710F086E020C138
:2005A000890173E0579F000D111D1124D8015C91D51610F087E014C1423010F085E010C163
:2005C000911116C052E8580F523008F457C0D80111960D911C911297D80155E0D59EA00DCB
:2005E000B11D112414965C91851708F069C146C0923029F452E8580F523008F43FC075E04B
:20060000D79E70011124D80111960D911C911297D701A00FB11F413031F414967C911497FC
:20062000871760F04DC114964C91841708F048C1992311F0923001F54CE023C0992301F169
:200640009230F1F04D915C914132510598F090E08C010F5F1F4FA72FB0E00A171B0741F424
:20066000B5E0880F991FBA95E1F7481B590B02C040E250E0455F05C04DE003C04423C1F221
:200680004BE0641711F08BE0ABC081E0848380915708811118C0E0915E08F0915F088091CB
:2006A0005A084285B0E28B9FC0011124840F911D90935C0880935B0880915608813019F4F4
:2006C000838580935D0880916308883009F08AC0E0915E08F0915F088681823099F128F405
:2006E000882391F0813009F105C08430F1F098F1853029F16091620870E0409160085091AC
:20070000610820E030E03FC080915008882309F45CC01092500881E08483809151088823BD
:2007200009F4C5C010925108C2C091E090935008843011F49093510881E08483B8C0109217
:200740005108FACF80915008882309F43EC081E0848361E0A9C0809150088823B1F181E03F
:20076000848360E2A1C06901CC0CDD1C8A014E5F5F4F7A0192E0E91AF108D7019C91891720
:2007800031F02F5F3F4F261737076CF320C080915008811105C0D80111968C91811115C09E
:2007A00081E08483E0916008F0916108EC0DFD1D60818EE498E00E946F1C811178C0E091C8
:2007C0005E08F0915F088EE0B8CF83E0B6CF84E0B4CF8111FEC0E0915E08F0915F088EE08A
:2007E000848369C1E0906408EB8290915608892F8D7F09F06BC040915A0882E8840F823036
:2008000008F060C05091580880915908F90163E0569FE00DF11D11240180F281E02D75E055
:20082000879FE00DF11D11248481332433944E3709F0312CA1E0AA83923089F4E0915E08A0
:20084000F0915F081482E0915E08F0915F0891E09683109256089091630891509B83A12C79
:20086000B12C88248394912CE12CF12C482E512CA414B5047CF13320F1F01092640860EF8F
:200880008EE498E0EBD660E08EE498E0E7D663E58EE498E0E3D663E48EE498E0DFD661E0B4
:2008A0008EE498E0DBD66EE78EE498E0D7D68EE498E00E94D71810925F0810925E0839C12B
:2008C00088E08ECF1A82312C81E0B6CF1A82312C81E0C5CFBB81B0936408EA81EE2339F0F6
:2008E000A0925A08E0915E08F0915F08A58280915708813029F5E0905A08F0E2EF9E70019D
:2009000011249091580880915908E0915208F091530823E0929FE00DF11D11240180F281B0
:20092000E02D35E0839FE00DF11D112480819181B701605E7F4F4B018617970708F44C011C
:200940006701C814D90408F0AEC09091560880915708911143C0811124C020915B08309131
:200960005C086091580840915908E0915208F091530873E0679FE00DF11D11240180F2816C
:20098000E02D85E0489FE00DF11D1124808191812817390708F042C019828E010F5F1F4F3C
:2009A00009C019828E010F5F1F4F960140915908609158088EE498E00E94A20F9091650883
:2009C000992309F406CFE0915E08F0915F08948361C069818EE498E041D661C0811134C000
:2009E00060905B0870905C081091580820905908E0915208F091530893E0199FE00DF11D61
:200A000011240180F281E02DA5E02A9EE00DF11D1124808191816816790630F0E0915E081C
:200A2000F0915F0889E0DCCE0E94EE18811106C0E0915E08F0915F088AE0D2CE00915D08FC
:200A40009301422D612F18C060905E0870905F088C2D8E19F301E80FF11D028500935D0896
:200A60000E94EE18811103C08AE0F301B9CE960140915908609158088EE498E0FDD681112B
:200A80000EC080916508E0915E08F0915F08882321F08483109265080EC08CE0A1CEFFEFE2
:200AA000CF1ADF0A4ECF8EE498E00E94D7182FEFA21AB20ADDCE8FE08093550883E0809336
:200AC000560882E080935708109258081092590810925A0810925C0810925B0810925D08C9
:200AE000E6CECC24CA94103C09F482CC50F4103909F47ECC103B09F47BCC1038D1F4812C40
:200B000077CC183F09F4D5CC1A3F49F0103F89F480913F0890914008E4E0F8E0DFCCE9E06E
:200B2000F9E081E01192868729E0E431F207D1F7C0CC0F900F900F90DF91CF911F910F9163
:200B4000FF90EF90DF90CF90BF90AF909F908F907F906F905F904F903F902F9008950F9334
:200B6000DC01CB01BA01033030F0033041F4B9010E94693107C0622F0E944F3103C0A90179
:200B80000E94613181E00F910895CF93DF93DC01CB01E901433028F0433069F40E944A31A4
:200BA00003C00E943D3190E0A0E0B0E088839983AA83BB8306C00E944531688379838A837E
:200BC0009B8381E0DF91CF910895EF92FF920F931F93CF93DF937C01C62F142F862F0E94E3
:200BE000D615082FD0E09E0142E064E0F701808191810E94461C672B682B692BC9F160E05C
:200C0000802F0E94EF15D82F61E0802F0E94EF15C82F62E0802F0E94EF15ED2FF0E0E2572F
:200C2000F74F908110FF05C090FD90E0977F956001C090E09083EC2FF0E0E257F74F9081C2
:200C400011FF05C090FD90E0977F956001C090E09083E82FF0E0E257F74F908112FF05C026
:200C600090FD90E0977F956001C090E090830CC0C257D74F8881112329F080FD80E0877FE4
:200C8000856001C080E08883DF91CF911F910F91FF90EF900895BF92CF92DF92EF92FF9243
:200CA0000F931F93CF93DF9300D01F92CDB7DEB76C01062F142F862F0E94D615B82EE02E57
:200CC000F12C970142E064E0F601808191810E94461C672B682B692B89F060E08B2D0E941F
:200CE000EF15898361E08B2D0E94EF158A8362E08B2D0E94EF158B8363E004C009830A836A
:200D00000B8361E09E012F5F3F4FA90170E0D601AE0DBF1D1296CA01821B930B86179707F8
:200D2000CCF4FA018081E82FF0E0E257F74F8081112311F0866009C0982F9D7F908380FF37
:200D400003C09460908302C0897F80831C934F5F5F4FE1CF0F900F900F90DF91CF911F91E4
:200D60000F91FF90EF90DF90CF90BF9008952F923F924F925F926F927F928F929F92AF9202
:200D8000BF92CF92DF92EF92FF920F931F93CF93DF93CDB7DEB72F970FB6F894DEBF0FBE5C
:200DA000CDBF5C01162FF22E242F22952F702D833F2C32948FE038228F2D37E73F1508F468
:200DC00087E76AE00E949A31882EC12CD12C802F90E0A0E0B0E08E839F83A887B987842FCA
:200DE00090E0A0E0B0E089839A83AB83BC83222423942F0C2F2D30E040E050E02A873B8776
:200E00004C875D87012F0F7E960145E064E0D5018D919C910E94461C2E813F81488559851F
:200E2000621773078407950709F0EFC0960143E064E0D5018D919C910E94461CEE2041F18D
:200E40006530A9F040F4613059F0633009F04AC0E1E0EE8735C0663069F0683091F042C08B
:200E60001039F1F1B1E0BE871038B9F537C0F1E0FE8731C00038B1F581E08F8791E09E8752
:200E800044C0103B79F5A1E0AF87B1E0BE873DC06430F9F028F4662341F0623069F022C0EB
:200EA000663089F0683091F01DC00038E9F021E02F87103BB9F41EC00038D1F031E03E87C0
:200EC000103B59F40BC0003869F416C0103B51F418C041E04E87103C09F01E861F8615C083
:200EE0001F8611C01F8606C01F86E1E0EE870DC0F1E0FF871E8609C021E02F8731E03E8718
:200F000004C041E04F8751E05E879C2C8C2D0E94D615282F30E042E064E0D5018D919C9104
:200F20000E94461C2B013C01BE85BB2309F444C0960141E064E0F501808191810E94461C19
:200F400029813A814B815C81621773078407950769F5103C31F4452846284728F1F07D8072
:200F600020C0452846284728D9F43F85311118C0960144E064E0D5018D919C910E94461C78
:200F8000772473942A853B854C855D85261737074807590731F0712C04C07724739401C07E
:200FA000732C472D692DC50110DE07C0103C21F440E06C2DC50109DE712C3F85332329F175
:200FC000960141E064E0D5018D919C910E94461C29813A814B815C816217730784079507C8
:200FE000A1F43E85332369F0FF2049F0772039F0422D50E1759E401911244B3018F040E0EE
:2010000001C0482D692DC50146DE8FEFC81AD80A90E3C916D10409F0F7CE2F960FB6F894DD
:20102000DEBF0FBECDBFDF91CF911F910F91FF90EF90DF90CF90BF90AF909F908F907F90D3
:201040006F905F904F903F902F9008951F920F920FB60F921124CF92DF92EF92FF921F9315
:201060002F933F934F935F936F937F938F939F93AF93BF93CF93DF93EF93FF939091E10121
:2010800081E089278093E101882309F4BEC080918000877F809380008091C200877F80930E
:2010A000C200809180008F77809380008091C0008F778093C000809190008F778093900050
:2010C000809180008F7D80938000A4E7B3E026E833E0FD0161E070E0C081D1814881CB01EA
:2010E000028002C0880F991F0A94E2F7842B888333962E173F0781F78091150780FF02C0F2
:20110000299A01C029988091150781FF02C02A9A01C02A988091150782FF02C02B9A01C0DE
:201120002B9820E060E07FE341E050E0E0911507E60FF0E0EF01C257D74F8881857031E069
:20114000853009F030E0379F302D112480911C078111E9C0332309F4E6C0CD91DC9111978E
:201160009881FA0112960C90129702C0EE0FFF1F0A94E2F78E2F809589238883685F139621
:201180002F5F603399F6809115078F5F80931507883011F4109215078091CF069091D006FD
:2011A000A091D106B091D2060196A11DB11D8093CF069093D006A093D106B093D2068091D4
:2011C0004D07811147C180915C07811143C180911907882331F080911907815080931907E5
:2011E00001C0769880914E0781113DC180915E07811139C180911807882331F080911807FC
:2012000081508093180701C072988091CE06853008F032C1809117078F5F80931707853078
:2012200011F41092170780E090E026ED33E041E050E060E070E0E0911607F0E0EA53FC4F2C
:20124000E081E0FF02C02C9A01C02C98E0911607F0E0EA53FC4FE081E1FF02C05E9A01C09F
:201260005E98E0911607F0E0EA53FC4FE081E2FF02C05C9A01C05C98E0911607EF5FE09394
:201280001607E83011F4109216070000589859980000599AEEECF3E0589800004D9919C025
:2012A000A0911707EC0118E0A19FC00DD11D1124DE01AA55B94FCC916A017B01008004C05C
:2012C000CC0CDD1CEE1CFF1C0A94D2F7CC2ACC921AC0A0911707EC0118E0A19FC00DD11D54
:2012E0001124DE01AA55B94FDC916A017B01008004C0CC0CDD1CEE1CFF1C0A94D2F7CC2DE5
:20130000C095CD23CC93589A31962E173F0721F601968830910509F08ECF8091CE068F5FC0
:201320008093CE06A9C0E35EF84FC0810C2E000CDD0BCA57DC4F8881882309F461C0C08107
:201340000C2E000CDD0BCA57DC4F88818F3FA1F4ED90FC901197E7019881EA0112960C90C6
:20136000129702C0CC0FDD1F0A94E2F78C2F80958923E701888344C08095233031F128F49B
:20138000213091F02230C1F006C0C82FD0E0243021F1253061F190E090938D0080938C003F
:2013A0008091800088602AC08093D2008091C20088608093C20024C090E090938900809342
:2013C000880080918000806819C08093CF008091C00080688093C00013C0D0939900C093A3
:2013E00098008091900080688093900009C0D0938B00C0938A00809180008062809380008F
:201400008081C32FD0E0082E000C990B8C179D0709F4B4CE8081082E000C990B8C179D074F
:201420007CF480911C079081890F80838081082E000C990BC817D9070CF0A0CE30839ECE2D
:2014400090911C078081891B8083808187FF96CE108294CE769A10924D0710925C0782E351
:2014600080931907B4CE729A10924E0710925E0782E380931807BECEFF91EF91DF91CF91AA
:20148000BF91AF919F918F917F916F915F914F913F912F911F91FF90EF90DF90CF900F90D1
:2014A0000FBE0F901F9018959FB7F89423E030E0729A882369F076984FEF52E567E0415004
:2014C00050406040E1F700C000007298769A0CC0769A4FEF52E567E0415050406040E1F7F9
:2014E00000C00000729876984FEF52E567E0415050406040E1F700C0000021503109C1F69D
:201500009FBF0895883028F0885090917B00906203C090917B009F7D90937B0090917C00E4
:20152000907F8F70892B80937C0008951F920F920FB60F9211242F933F934F935F936F9366
:201540007F938F939F93AF93BF93EF93FF938091E201811163C02091780030917900809160
:201560001407E82FF0E0EE0FFF1FEC52F94F40815181240F351F318320838F5F809314073B
:2015800080911B078F5F803119F080931B071AC010921B0780911A078F5F823019F08093AF
:2015A0001A0709C010921A07109214078091D3068F5F8093D306E0911A07F0E0EA51FC4F15
:2015C0008081A0DFE0911B07F0E0EA52FC4F808180FF02C08D9A01C08D98E0911B07F0E0EF
:2015E000EA52FC4F808181FF02C08F9A01C08F98E0911B07F0E0EA52FC4F808182FF02C0E2
:201600008C9A01C08C98E0911B07F0E0EA52FC4F808183FF02C08E9A01C08E989091E2017D
:2016200081E089278093E2018091D306813029F080917A00806480937A00FF91EF91BF9193
:20164000AF919F918F917F916F915F914F913F912F910F900FBE0F901F901895FC0180891D
:201660009189009751F02689DC01A20FB11D6C9386898F5F868B81E0089580E00895FF92D4
:201680000F931F93CF93DF9300D000D0CDB7DEB78C01F62EFC01EA58FF4F0190F081E02D1C
:2016A000309711F0862F0995F801E658FF4F0190F081E02D309751F019821A821B821C8201
:2016C0008FE08983FA82CE01019609950F900F900F900F90DF91CF911F910F91FF90089547
:2016E0006D3F28F46A3F28F4683F19F008956E3F08F0C5CF0895AF92BF92CF92DF92EF9255
:20170000FF920F931F93CF93DF9300D000D0CDB7DEB77C01162FFC01EA59FF4F808188235B
:2017200021F0003130F40F5F0EC08FEF800F803150F0F701EC59FF4F8081882309F44DC0C8
:20174000349610824AC017FFF4CF113E08F040C04F77D42E2F77C22E0150012B570186E763
:20176000A80EB11CD501ED91FC9111973097C9F052978C91882329F014968C91801719F0AC
:201780000C93802F0995D501ED91FC918D2D0995812F8F7E803C29F0D501ED91FC918C2DF8
:2017A0000995F701E658FF4F0190F081E02D3097A1F0612F70E084E0759567958A95E1F75F
:2017C00069830A83DB82CC82CE010196099505C0163F18F0612FC70183DF0F900F900F9028
:2017E0000F90DF91CF911F910F91FF90EF90DF90CF90BF90AF9008950F93022F242F462F88
:2018000060EB79DF0F910895EF92FF920F931F93CF93DF93CDB7DEB728970FB6F894DEBFE8
:201820000FBECDBF88E0ECE6F3E0DE01119601900D928A95E1F78E010F5F1F4F7E0189E042
:20184000E80EF11CF80181918F010E9477140E151F05C1F780915F07811101C0FFCF289668
:201860000FB6F894DEBF0FBECDBFDF91CF911F910F91FF90EF9008952F923F924F925F92F2
:201880006F927F928F929F92AF92BF92CF92DF92EF92FF920F931F93CF93DF9300D000D0A6
:2018A000CDB7DEB76C01942E5901402E623009F4BFC230F4662389F0613009F4A8C2D7C251
:2018C000643009F476C108F405C1653009F0CFC28DE0D60157968C930DC3411163C021E0C9
:2018E000A216B10451F0B0F082E0A816B10419F1A3E0AA16B104D9F0FDC2DC015D96ED91ED
:20190000FC915E97EC59FF4F81E0011101C080E08083F4C2FC01858D968DFC01ED58FF4FA3
:20192000002319F021E02083E9C21082E7C201111EC078D7E3C223E030E040E060E0F601A3
:20194000838D948D0E94461C672B682B692B09F43DC0D6015D96ED91FC915E97EB59FF4F43
:2019600081E0011101C080E080834110C7C262E17AE780E090E078D7D6015D96ED91FC915E
:201980005E97EC58FF4F8DE495E2918380835D96ED91FC915E97EA58FF4F8BE495E2918344
:2019A0008083ACC2F1E04F1328C0232B89F423E030E040E060E0DC015B968D919C915C9751
:2019C0000E94461C672B682B692B41F48CE03AC023E0A216B10408F08DC28EC222E030E096
:2019E00040E060E0F601838D948D0E94461C672B682B692B09F04CC2E9CFF2E04F137AC273
:201A00002115310511F5DC015B96ED91FC915C97248935898DEF93E0821B930B628973890C
:201A2000621B730B0E94A6317727802F002E000C990B861797072CF4602FCF010E94CF22BA
:201A40005BC28DE0F601878B55C22130310509F051C221E0201708F44DC2DC015B96CD90DB
:201A6000DC905C97F6011682158247E063E073E0C6010E94491DE02E000FFF08000B110B0A
:201A800021E030E041E060E0C6010E943F1946E068E073E0C6010E94491DD60154968D91A4
:201AA0009C91559752962D913C915397281B390B56966C91629FA001639F500D1124840F77
:201AC000951F8D3FB3E09B0708F016C2F6019683858312C2F2E04F1709F442C0DC015B9690
:201AE0008D919C915C97242F30E04F1708F451C0B8E0B41708F44DC0F901E250FC4F7080FF
:201B00009501472D63E00E94461C7C836B83CE0101960E942F19E5E09E1631F0F7E09F1611
:201B200019F023E0921202C04A8201C0098389819A8180FF02C0906801C09F779A8390E058
:201B4000959587958983E12CF12CF82E8A81E82AFC82EB8200E010E09501472D63E08EC16F
:201B6000FC0183A194A1F9013496EE0FFF1FE80FF91F118210828A0D9B1DFC01E85BFF4F1F
:201B80001082E02E000FFF08000B110B950142E0E5CFB9E09B1201C04A94E42C440CFF08B0
:201BA000000B110BF901E250FC4F9501408163E06AC1E3E04E1709F4E0C0E41778F0F1E0C9
:201BC0004F17C1F0F41708F1402F622FDC0195968D919C9196970E94E5058EC125E0421731
:201BE00009F4CBC0421708F43DC047E0941203C14A94C3C0011102C040E001C045E06A2DA8
:201C0000F60185A196A147D877C12130310519F121E0A216B10428F042E0A416B104B1F0D0
:201C200069C181E0801708F465C1D6019596ED91FC919697081721F0CF01805C9F4F02C09A
:201C4000CF01C59694AB83AB42AA48C1B1E0B01708F450C143C1EAE0E01708F44BC1802F16
:201C6000D2D73CC18A2DA2D7982E60E0B8D740E0682FD60195968D919C9196970E94E5053C
:201C800061E0892DACD740E0682FF60185A196A10E94E50562E0892DA2D740E0682FD60134
:201CA00095968D919C9196970E94E505E02E000FFF08000B110B292D30E042E064E0F601E7
:201CC000838D948D0E943F19182F442009F4DEC0882309F40FC1812C950141E064E0D6019C
:201CE0005B968D919C915C970E94461C1B012C01682D892D74D7682E712C82017101930116
:201D000041E064E0F601838D948D0E943F19882309F4F0C0950143E064E0D6015B968D9101
:201D20009C915C970E94461C7B018C01930143E064E0F601838D948D0E943F19882309F4B1
:201D4000D9C0950145E064E0D6015B968D919C915C970E94461C7B018C01930145E064E0DB
:201D6000F601838D948D0E943F19882309F4C2C08394F3E08F12B0CFBFC08A2D17D7882E33
:201D8000282F30E042E064E0D6015B968D919C915C970E94461C042C000C550866087708E6
:201DA000292D30E0672B682B692BE1F0B12CF901EA50FC4FA0806B2D882D11D7282F30E01B
:201DC000830172014A2D64E0F601838D948D0E943F19182F882309F48DC0B394F3E0BF1208
:201DE000EACF54C0F901EA50FC4F830172019501408164E043C0E02E000FFF08000B110BB7
:201E0000E92DF0E0EA50FC4F950140816EC0B4E04B1301C04A94E42C440CFF08000B110BB3
:201E2000E92DF0E0EF50FC4F9501408161E05EC0F4E04F1301C04A94E42C440CFF08000B35
:201E4000110BE92DF0E0E851FC4F9501408162E0D6015B968D919C915C970E943F19182F1C
:201E60006A2DF60181A192A10E94251D0FC0E42C440CFF08000B110B9501492DD6015B966A
:201E80008D919C915C970E943F19182F812F43C0B3E0B01708F1F3E04F1219C060E076E911
:201EA00080E090E0E1D4D6015D96ED91FC915E97EC58FF4F8DE495E2918380835D96ED91D1
:201EC000FC915E97EA58FF4F1182108217C0642DC6010E94582512C08AE0B4CDE42C440C60
:201EE000FF08000B110B950140E064E0F601838D948DC9CF80E00FC081E00DC0E42C440C3D
:201F0000FF08000B110BE92DF0E0E85FFB4F9501408160E0B3CF0F900F900F900F90DF9117
:201F2000CF911F910F91FF90EF90DF90CF90BF90AF909F908F907F906F905F904F903F908E
:201F40002F900895AF92BF92CF92DF92FF920F931F93CF93DF93CDB7DEB728970FB6F894DF
:201F6000DEBF0FBECDBFFC01F42E68011D821E821F821886623009F4EBC030F4662371F01D
:201F8000613009F4D1C018C1643031F108F48CC0653009F011C18DE0878B18C141E04F150E
:201FA00020F482E0F81639F011C18E010B5F1F4F4F2D60E005C12115310529F4038CF48D20
:201FC000E02D8689E6C02130310509F003C1838D948D0E949B22DDC091E0491709F448C0F8
:201FE000491780F0A38CB48CE4E04E1709F448C0F7E04F134EC08E010B5F1F4F45E064E05D
:20200000C50185C0F901FF27E257F74F808180FF2BC083FF2BC0822FC9D5B82E60E0DFD515
:20202000182F61E08B2DDBD5F82E62E08B2DD7D5E82FA12FB0E0A257B74F8C9186FB882721
:2020400080F9AF2DB0E0A257B74F9C9195FB992790F9880F892BF0E0E257F74F90819295C4
:202060009170880F892B95C080E093C081E091C03327F901E257F74F80818695817089C031
:20208000822F94D5282F30E08E010B5F1F4F42E008C0E42FF0E0EA50FC4F8E010B5F1F4F9F
:2020A000408164E0C5018EC0838D948D43E0F41688F1E8E0EF1548F4F9E0FF122BC08E01C4
:2020C0000B5F1F4F46E063E022C0EF2DF0E0E250FC4F8E010B5F1F4F408163E00E94F41A59
:2020E000882309F473C08D819E819C838B83CE0101960E942F1945E0F41609F447C087E0C1
:20210000F81609F443C093E0F91242C03FC00E94F41A1AC0EF2DF0E0E250FC4F8E010B5F46
:202120001F4F408163E04EC0A42FB0E0AF50BC4F8E010B5F1F4F4C9161E0838D948D0E945A
:20214000F41AE4E0FE1240C0882309F43FC028C0A42FB0E0A851BC4F8E010B5F1F4F4C9163
:2021600062E0838D948D0E94F41A882379F18F2D8B7F833091F48D819E819C838B83CE0100
:2021800001960E942F19F3E0FF1202C08A8101C0898190E0A0E0B0E00AC044E0F4121AC0F4
:2021A0008D819E81AF81B8850196A11DB11D8D839E83AF83B8870EC08E010B5F1F4F4F2D0F
:2021C000838D948D0E94F41A811104C0F601108280E004C08D81F601808381E028960FB62F
:2021E000F894DEBF0FBECDBFDF91CF911F910F91FF90DF90CF90BF90AF90089587FF0CC063
:202200009CE0980F923040F0982F9B7F993F21F0803F18F4807F089580E00895FC01A4A931
:20222000B5A98D91B5ABA4AB9F012E5C3F4FA217B30711F4F5ABE4AB2FB7F89496A9915082
:2022400096AB2FBF0895FC01A2A9B3A96C9382A993A9019693AB82AB9F012E5C3F4F821755
:20226000930711F4F3ABE2AB9FB7F89486A98F5F86AB9FBF08950F931F93CF93DF93209190
:202280005B07243009F046C08C01809150078F708093E9000E94AF1E81113CC0E80104E0CF
:2022A00010E08091E80085FD0AC08091E8008E778093E8000E94AF1E882399F32BC0899145
:2022C0008093F1000150110961F78091E80085FD05C08091E8008E778093E80080915B078B
:2022E0008430A1F4809150078F708093E9002091F3008091F20090E0922B892B39F0809170
:20230000E8008E778093E8000E94AF1E81E080934E0701C080E0DF91CF911F910F910895BF
:202320000F931F93CF93DF9320915B07243011F080E033C022E02093E9002091E80022FF62
:20234000F7CF8C010E94AF1E811117C0E80104E010E006C08091F10089930150110969F0ED
:202360008091E80085FDF6CF8091E8008B778093E8000E94AF1E882399F32091F3008091CC
:20238000F20090E0922B892B29F48091E8008B778093E80081E080934D07DF91CF911F910F
:2023A0000F910895DF92EF92FF920F931F93CF93DF931F92CDB7DEB781116BC1E0914208F2
:2023C000F0914308309709F422C21982CE0101960995082F882309F41AC2198180913D083F
:2023E00090913E08009709F0A4C010933808F09035088F2D03DF17D7882361F017FD0AC07C
:20240000F09238081093390881E090E090933E0880933D0810913808812FF0DE813F09F468
:202420004AC020F5803B09F449C050F4803909F445C0803A09F442C0803809F0CAC03EC0CB
:20244000803DC9F118F4803CB1F1C3C0803EB1F1803F09F0BEC02DE230E030933C082093A9
:202460003B08109235088093D2072EC0883F79F030F4833F01F110F1863F49F0AAC08A3F26
:2024800008F4A7C08D3F18F08E3F08F4A2C08093CF071092CE071092D0071092D10781E026
:2024A0008093FF0710923E0810923D0810923C0810923B08ADC122E030E002C023E030E014
:2024C00030933C0820933B0820913D0830913E0840913B0850913C08BA01615071092617A6
:2024E000370700F18093CF071F701F5F80913408181B1093CE07809139088093D007433010
:20250000510529F480913A088093D10702C01092D10710923E0810923D0810923C08109277
:202520003B081CC02F5F3F4F30933E0820933D08A7C017FF36C01D3F38F41A3F38F4173F89
:2025400089F0183F71F502C01E3F58F11093CF071092D0071092D1071092CE0781E0809386
:20256000FF0756C14091D207403F99F59C012F5F3F4FFC01E253F84F14834093CF07209362
:20258000D0073093D1071092CE0781E08093FF0710923E0810923D0810923C0810923B083E
:2025A00067C020913808FC01E253F84F203FE1F41483E0903B08F0903C0897012150310905
:2025C0008217930708F457C0D090380880EFD8120FC010923E0810923D0810923C08109296
:2025E0003B081092350813C1E659FF4F1083E1CF8D2D04DE182F8093CF0715D6882349F07A
:202600008D2D8F708F5F90913408891B8093CE0702C01092CE07809139088093D00783E052
:20262000E816F10429F480913A088093D10702C01092D10710923E0810923D0810923C085B
:2026400010923B0881E08093FF07103B71F038F4103959F0103A49F0103851F406C0103D8E
:2026600021F0103E11F0103C19F4D0923508D0C010923508CDC0019690933E0880933D08AE
:2026800080913308882309F4C2C080E08BDE082FBFC0813009F0BBC0E0914608F091470891
:2026A0008AE498E00995082F882309F4B0C080914A088295807F803909F458C010F5803546
:2026C00089F138F4803209F442C0803409F45FC09EC0803709F477C0803809F447C0803618
:2026E00009F095C080913F0890914008FC01E253F84F20914B0826AB20914C0827AB02960E
:2027000079C0803C21F130F4803A81F1803B09F07EC02CC0803F31F0823F41F1803E09F0FA
:2027200076C024C020914B08273F39F020930108109200081092020816C080913F0890918B
:202740004008FC01E253F84F26AB019653C080914B08809301088F708F5F809300088091A4
:202760004C0880930208109203084DC08093010880914B088F708F5F8093000880914C0841
:202780008093020880914D08809303083CC020914B08203F21F41092400810923F08809140
:2027A0003F0890914008FC01E253F84F26AB20914C0827AB20914D0820AF0396909340086F
:2027C00080933F0824C020914B08203F21F41092400810923F0880913F0890914008FC01B2
:2027E000E253F84F26AB20914C0827AB20914D0820AF03969093400880933F0880EF809300
:2028000001081092000881E08093310801C000E0802F0F90DF91CF911F910F91FF90EF903B
:20282000DF9008958FB7F8941092C8001092C9001092CA001092CD001092CC008FBF8FB708
:20284000F894E0E6F7E0F3ABE2ABF5ABE4AB16AA8FBF8FB7F894E7E9F7E0F3ABE2ABF5ABA3
:20286000E4AB16AA8FBF0895CF92DF92EF92FF926B017C01D7DFD701C601B695A795979549
:202880008795BC01CD0160587B47814E9F4FA70196010E94CD3120FF0AC0213080E13807A1
:2028A0004105510524F482E08093C80009C01092C800DA01C901B595A795979587959C01E4
:2028C000215031093093CD002093CC0086E08093CA0088ED8093C900FF90EF90DF90CF90CE
:2028E0000895FC019FB7F89480819FBF0895CF93C82F8DEC97E0F5DF81110CC08091C8000C
:2029000085FF08C08FB7F894C093CE0010925F078FBF10C08DEC97E0E4DF8233D9F36C2F83
:2029200087E997E090DC10925F078091C90080628093C90081E0CF910895CF93DF93EC0185
:20294000862FD5DF8881D3DF8981D1DF8A81CFDF8B81CDDF9881898189279A8189279B816E
:202960008927C5DF81E0DF91CF910895CF93DF93EC01188286E997E0B4DF882331F080E62F
:2029800097E04CDC888381E001C080E0DF91CF910895EF92FF920F931F93CF93DF9300D094
:2029A000CDB7DEB78C017B011A82CE010296DEDF8A81982F9D7F913FD1F5F7018083E12CA9
:2029C000F12CCE010296D2DFF1E0EF16F104A1F03CF4E114F104B9F48A81F801808313C0C5
:2029E000E2E0EE16F10461F0F3E0EF16F10459F48A81F801838307C08A81F801818303C015
:202A00008A81F8018283FFEFEF1AFF0A85E0E816F104B9F6F8019081818198278281982719
:202A20008381982781E02A8192132AC02AC0823F39F51982CE01019699DFCE01029696DF0A
:202A4000CE01029693DFCE01029690DFCE0102968DDF8981813061F048F0823061F467E45E
:202A60008FEF93E00E946D310E94B52481E001C080E00E94540A82EFF701808381E001C09A
:202A800080E00F900F90DF91CF911F910F91FF90EF9008951F920F920FB60F9211248F93BE
:202AA00081E080935F078F910F900FBE0F901F9018951F920F920FB60F9211242F933F9334
:202AC0004F935F936F937F938F939F93AF93BF93EF93FF938DEC97E004DF811106C08091D6
:202AE000C9008F7D8093C90008C087E997E096DB8093CE0081E080935E07FF91EF91BF91EB
:202B0000AF919F918F917F916F915F914F913F912F910F900FBE0F901F9018951F920F92FC
:202B20000FB60F9211242F933F934F935F936F937F938F939F93AF93BF93CF93EF93FF9320
:202B4000C091CE0080915D0781110BC086E997E0C8DE8233C9F06C2F80E697E074DB81E062
:202B600011C08DEC97E0BDDE823371F06C2F87E997E069DB8091C90080628093C90081E024
:202B800080935E0780935C07FF91EF91CF91BF91AF919F918F917F916F915F914F913F9147
:202BA0002F910F900FBE0F901F901895382F282F269526952695822F63E00E949A31291B5A
:202BC00048E0249FC001112463E070E00E94BA31832F8770860F803108F08FE00895982F3A
:202BE000969596959695877028E1929F800D1124613029F038F0623021F4805F0895885F85
:202C0000089580E008958B3090F49FB7F89420E030E0F901E35EF84F10822F5F3F4F203366
:202C20003105B9F780931C079FBF81E0089580E008956F927F928F929F92AF92BF92CF92C8
:202C4000DF92EF92FF920F931F93CF93DF9300D000D0CDB7DEB77C016B018A013C0186E7F2
:202C6000680E711CD3018D919C91892BB9F05A014A01860E971EA814B90441F0D301ED91EA
:202C8000FC91D5018D915D010995F5CFF701EC59FF4F8081882311F034961082BAE7EB0EC5
:202CA000F11CF70180819181892B09F44AC084E0B82EF4E0CF16D104B8F0D8012C91119684
:202CC0009C91119712968C91B9822A839B838C83D701ED91FC91CE01019609950D5F1F4F84
:202CE000B3E0CB1AD108E5CFE3E0CE16D10469F4D8012C9111969C91119712968C9137E008
:202D000039832A839B838C8316C0B2E0CB16D10441F4F8019081818126E029839A838B83E1
:202D200009C0CA94CD2869F4F801808195E099838A831B821C82D701ED91FC91CE010196FE
:202D400009950F900F900F900F90DF91CF911F910F91FF90EF90DF90CF90BF90AF909F90A0
:202D60008F907F906F9008950F93042FFC01ED58FF4F2081213021F420E0462F60E803C09D
:202D800020E0462F60E90E947B0B0F910895BF92CF92DF92EF92FF920F931F93CF93DF93B3
:202DA000D82EC62E082F069506950695D82F88E0089FD019112410E0F801E756F64F81E011
:202DC00090E0A0E0B0E00D2E04C0880F991FAA1FBB1F0A94D2F7662319F02081822B03C078
:202DE0008095908189238083ED2CF12C970141E061E0809133099091340948D5C62F603180
:202E000009F44CC1970140E061E080913309909134093CD5C63038F4C430E8F58FEF8C0FE7
:202E2000823048F438C0C03118F4C73030F033C0C13109F425C1613071F5CC2009F41EC111
:202E4000F801EA55F64F2081822F90E00D2E02C0959587950A94E2F780FF10C081E090E059
:202E6000A0E0B0E004C0880F991FAA1FBB1FDA95D2F7809582238083C12C0DC081E090E00C
:202E8000A0E0B0E004C0880F991FAA1FBB1FDA95D2F7822B8083970142E061E0809133093C
:202EA00090913409F3D4162F970144E061E08091330990913409EAD4D62F970143E061E041
:202EC0008091330990913409E1D4B62EC33149F4970141E061E08091330990913409D6D42E
:202EE000C62F1093B509CC2009F492C0C73009F47DC0B0F4C43048F4C23008F05EC0CC2345
:202F000031F1C13009F449C0C9C08091350990913609C53009F460C008F060C021E05FC016
:202F2000CB3009F469C058F48091350990913609C93009F45DC008F05DC068EF66C0CD30D3
:202F400009F45EC008F45AC0C03188F0A7C00D2F2B2D412F60E980913509909136090E94D2
:202F60007B0BEE24E3942B2D412F60E973C0C130A1F08D2F90E0FC01ED5DF64F2081CE3025
:202F800021F42F3730F42F5F03C0222311F021502083FC01ED5DF64F10810D2F20E0412F1E
:202FA00060EC80913509909136090E947B0BEE24E39420E0412F60EC4DC02D2F4B2D612F38
:202FC00080913509909136090E94FC0BEE24E3940D2F2B2D412F3DC022E001C026E0209393
:202FE000B70943EB59E066E070E046C089E03AC06AEF0BC06BEF09C06CEF03C06EEF01C028
:203000006FEF80913509909136090E943F0B46C0C33091F0C63029F1C11140C04D2F612F4F
:2030200080913509909136099FDEEE24E3940D2F20E0412F60E80EC02D2F40E0612F8091FC
:203040003509909136090E94FC0BE12C01E02D2F40E060EB80913709909138090E94B70662
:203060001DC087E08093B70943EB59E066E070E08091350990913609DCDD10C0C13171F4AD
:20308000970142E061E08091330990913409FED380913309909134090E94CF22E091B90948
:2030A000F091BA09309761F06D2D81E0DF91CF911F910F91FF90EF90DF90CF90BF900994D1
:2030C000DF91CF911F910F91FF90EF90DF90CF90BF9008950F931F93CF93DF932091F10836
:2030E0003091F208232B09F45DC09091F008992321F0913009F454C055C0A5D000911409BD
:20310000109115092091160930911709DC01CB01801B910BA20BB30B84369105A105B10548
:2031200008F440C090D060931409709315098093160990931709E9E0F9E04091F108509140
:20314000F20820E030E011E080818F5F8083DA019D91AD01891738F42F5F3F4F31962B30C1
:20316000310591F71FC09785912797871082AEE8B8E0CEEBD8E08C9181FF0BC06A8170E0EC
:203180006217730731F4992311F0846001C08B7F8C931196219688E0AE3BB80761F7DCCF1B
:2031A0008111C9CFDF91CF911F910F910895FC018689A089B189A80FB11D87EF8C934689D0
:2031C0004F5F468B8381882319F08085811105C060897189CF010C944F2508959091580877
:2031E00080915908E0915208F091530823E0929FE00DF11D11240180F281E02D95E0899FB4
:20320000E00DF11D112482812381821741F090915D08981734F081E0291724F402C081E0D8
:20322000089580E00895982F8F7C803849F0903D39F081E0903E31F0903C21F080E0089511
:2032400081E0089508952FB7F8946091CF067091D0068091D1069091D2062FBF0895FC015B
:203260008281238130E0220F331F87FF03C02F77216001C02E7720838F77818308952F9233
:203280003F924F925F926F927F928F929F92AF92BF92CF92DF92EF92FF920F931F93CF93FB
:2032A000DF93CDB7DEB728970FB6F894DEBF0FBECDBF1C01690147015801FC01A285B385F9
:2032C000F5E06F9FA00DB11D11241396ED91FC91149709E0409FE00DF11D11242D913C9179
:2032E00087819085280F391FD10115964D905C901697240D351D8281823009F48DC030F489
:20330000882359F0813009F466C054C1833009F4EFC0843009F41FC14DC18DEF93E0F101F1
:20332000918780878601B3E016950795BA95E1F72901400E511C612C712C0484F585E02DC8
:203340009E012F5F3F4F40E0C301B2010995882309F430C1F8E00F9FC01811242C2D30E0E8
:2033600049815A816B817C81F901E55FFB4F80FE07C080818A019B01082BD901C8010DC027
:20338000208130E0C90180959095092E000CAA0BBB0B84239523A623B72389839A83AB8361
:2033A000BC8329813A814B815C81D1011E96ED91FC911F9700E0C301B2010995882309F4DC
:2033C000F9C0D1011C96ED91FC911D979E012B5F3F4F40E077C024013501552466247724EA
:2033E000C20ED31EE12CF12CD1011E96ED91FC911F9701E0A3019201C701B60109958823BB
:2034000009F4D8C0D1011C96ED91FC911D979E012B5F3F4F41E08FC08DEF93E0F1019187B4
:203420008087260156944794420E531E612C712C0484F585E02D9E012F5F3F4F42E0C301FE
:20344000B2010995882309F4B5C0D501C4018F709927AA27BB2749815A816B817C81C0FEA5
:203460000CC04F70552766277727E4E0880F991FAA1FBB1FEA95D1F704C0407F5527662791
:203480007727842B952BA62BB72B89839A83AB83BC8329813A814B815C81D1011E96ED91C4
:2034A000FC911F9702E0C301B2010995882309F481C0D1011C96ED91FC911D979E012B5F7D
:2034C0003F4F42E0C301B2010995882309F472C081E009811A812B813C814D815E816F81C1
:2034E0007885041715072607370709F063C063C02401350166247724C601880F991F6C01EB
:20350000C20ED31EE12CF12CD1011E96ED91FC911F9703E0A3019201C701B6010995882397
:2035200009F448C0D1011C96ED91FC911D979E012B5F3F4F43E0C701B60109958823D1F1DF
:2035400081E04D815E816F817885441555056605770581F530C0C601880F991F880F991F0B
:203560006C01C20ED31EE12CF12CD1011E96ED91FC911F9704E0A5019401C701B601099570
:203580008823C1F0D1011C96ED91FC911D979E012B5F3F4F44E0C701B6010995882351F0A8
:2035A00081E04D815E816F817885481559056A057B0509F080E028960FB6F894DEBF0FBE94
:2035C000CDBFDF91CF911F910F91FF90EF90DF90CF90BF90AF909F908F907F906F905F908A
:2035E0004F903F902F9008958F929F92AF92BF92CF92DF92EF92FF920F931F93CF93DF93D1
:203600006C017901FC01A285B385F5E06F9FA00DB11D11241396ED91FC91149789E0489F25
:20362000E00DF11D1124CD91DC9187819085C80FD91FD60115966D917C911697C60FD71F9E
:203640008281813009F475C058F0823009F48AC01C96ED91FC911D97833009F4C4C0D7C007
:20366000590173E0B694A7947A95E1F7BB24CA0DDB1DF60180859185C817D907E9F463E092
:20368000AA0CBB1C6A95E1F72A193B09F901E55FFB4F9081D60117968C91892341E050E008
:2036A00060E070E019F440E050E0BA01F8014083518362837383D5C0CE01A0E0B0E0F6018C
:2036C00084849584980140E0BC01CD01F4010995882309F4CDC0D8018C91F601878353E093
:2036E000AA0CBB1C5A95E1F797012A193B09F901E55FFB4F808190E0A0E0B0E0F801408194
:2037000051816281738184239523A623B72341E050E060E070E0892B8A2B8B2B19F440E0D1
:2037200050E0BA01D8014D935D936D937C93139798C0C20FD31FBE0180E090E0D6011C9609
:20374000ED91FC911D97980141E00995882309F48FC0F80180819181A281B3819927AA2767
:20376000BB277BC036952795C20FD31FD60118968D919C911997C817D90779F417968C916C
:2037800090E0A0E0B0E0E0FE5AC034E0B595A795979587953A95D1F752C0CE01A0E0B0E047
:2037A000F601A484B584980142E0BC01CD01F5010995882309F45CC0E0FE10C0F80180816B
:2037C0009181A281B38124E0B595A795979587952A95D1F780839183A283B383D8018C91BF
:2037E000F601878331C0220F331FC20FD31FBE0180E090E0980143E009958823C9F1F8014A
:2038000080819181A281B381AA27BB2726C0220F331F220F331FB9016C0F7D1F80E090E0FE
:20382000980144E0DF91CF911F910F91FF90EF90DF90CF90BF90AF909F908F900994F8015D
:2038400080839183A283B383F80180819181A281B3818F709927AA27BB2780839183A283E5
:20386000B383D6011996DC93CE93189781E001C080E0DF91CF911F910F91FF90EF90DF90EE
:20388000CF90BF90AF909F908F900895CF92DF92EF92FF920F931F93CF93DF9300D000D0A4
:2038A000CDB7DEB7CC24CA94DC2C7601C982DA82EB82FC828E010F5F1F4F96DE69817A81CC
:2038C0008B819C810F900F900F900F90DF91CF911F910F91FF90EF90DF90CF900895EF9229
:2038E000FF920F931F93CF93DF93EC01162F653509F456C050F5643409F452C088F4623432
:20390000F1F1633409F097C063E00E942E0B62E0CE010E942E0B63E0CE010E942E0B2FC0F8
:203920006D3409F467C0603509F085C0EB8DFC8D248935898DEF93E0821B930B6289738972
:20394000621B730B0E94A63127C0653609F470C038F4663559F0643609F06DC01FA26DC086
:203960006D3609F454C06F37D9F065C063E00E942E0B62E0CE010E942E0B63E00DC060E0A5
:20398000CE010E942E0B61E0CE010E942E0B62E0CE010E942E0B60E0CE010E942E0B4DC0AF
:2039A000EDA0FEA000E040E0602FC7010E94E5050F5F0033C1F780E090E00196853C29E06F
:2039C000920739F0EFE9FFE03197F1F700C00000F4CF143429F460E08B8D9C8D35D604C086
:2039E000153511F467E401C06FEF8FEF93E00E946D31BBD760E60E942E0B60E2CE010E9477
:203A00002E0B60E2CE010E942E0B60E3C5CF20E030E041E060E08B8D9C8D38DF633069F4F1
:203A2000CE010E94040C63E0CE010E94582505C081E08FA303C080E001C081E0DF91CF9167
:203A40001F910F91FF90EF9008950F931F93CF93DF938C01C62FD0E09E0142E062E0FC0111
:203A60008081918113DF2396CC0FDD1FC00FD11F653071058105910529F480E090E29983C0
:203A8000888302C019821882DF91CF911F910F9108958F929F92AF92BF92CF92DF92EF9230
:203AA000FF920F931F93CF93DF93DC0111961D921D921D921C9214976115710509F420C199
:203AC000442309F41DC11B967C936E931A974C9365E070E080E090E02C9130E082179307EE
:203AE0000CF010C15B0125E0A21AB10800E010E040E050E01A96CD91DC911B977E01EA0C61
:203B0000FB1CF7012281C22E022E000CDD08E380F4804C155D050CF078C04115510521F453
:203B2000F701108617826CC0E701C00FD11FFE0139973281EFEFE40F29E0E29FF001112488
:203B4000313081F160F03230A1F1333009F049C0EE0DFF1D20813181220F331F4AC0EE0DF7
:203B6000FF1D80809180640137E0C322DD24EE24E394F12CCD2811F4E12CF12C940197FEC2
:203B800002C0295F3F4F359527953595279535952795E20EF31E27813085E20EF31EF886DE
:203BA000EF822EC0EE0DFF1DE080F1802781308515C06F01CE0CDF1CF60120813181790183
:203BC00037FF03C0FFEFEF1AFF0AF594E794217033272E0D3F1DF601E780F0842E0D3F1DFD
:203BE0000DC0EE0DFF1D20813181220F331F220F331F0780F085E02D2E0F3F1F38872F8373
:203C00004F5F5F4F075F1F4F75CF2150F70139E0239FE00DF11D112442812081318107811E
:203C20001085413059F138F04230E9F0433049F5220F331F23C041E050E0F901E770FF27E2
:203C4000EF2B11F440E050E0F90137FD37969F01F3E035952795FA95E1F7FA01E20FF31F9C
:203C60000E0F1F1F15C0A90137FF02C04F5F5F4F5595479521703327240F351F020F131F9B
:203C800007C0A901440F551F440F551F040F151F012E000C220B330B009711F41982188267
:203CA0004C9150E0415051098417950784F41A964D915C911B97FA01E60FF71FEA01CA0D68
:203CC000DB1D48815981400F511F518340831196CD90DD90ED90FC9014970C0D1D1D2E1D30
:203CE0003F1D11960D931D932D933C9314976B5F7F4F0D3F13402105310510F40196ECCE4F
:203D000080E001C081E0DF91CF911F910F91FF90EF90DF90CF90BF90AF909F908F900895AC
:203D20008091BB0987FF11C08091E80082FD05C080915B078111F8CF11C08091E8008B7782
:203D40000BC080915B07882349F08091E80080FFF8CF8091E8008E778093E80008952091BB
:203D6000E4003091E50095E64091EC00842F817040FF23C08091E80080FD1DC080915B07F5
:203D8000882399F0853099F08091EB0085FD11C04091E4005091E5002417350729F3915073
:203DA00011F09A01E1CF84E0089582E0089583E0089581E0089580E008954091E80042FFC2
:203DC000DDCF0895982F973068F59093E900981739F07091EC002091ED005091F00003C0AC
:203DE000242F762F50E021FD02C09F5FECCF3091EB003E7F3093EB003091ED003D7F3093BE
:203E0000ED003091EB0031603093EB007093EC002093ED005093F0002091EE0027FDE5CFF1
:203E200080E008958F708093E90081E008951F920F920FB60F9211240F931F932F933F93B7
:203E40004F935F936F937F938F939F93AF93BF93EF93FF93CF93DF93CDB7DEB7AA97DEBFB3
:203E6000CDBF1091E9001F709091EC00892F817090FD80E8182B1092E9008091F000877F1D
:203E80008093F0007894EBEBF9E08091F100819329E0E33CF207C9F78091E80083FFFAC137
:203EA0008091BB099091BC09953009F480C030F49130A9F168F0933091F1ECC1983009F4B7
:203EC000AEC1993009F4BDC1963009F0E3C191C0803821F0823809F0DDC108C08091140470
:203EE00090911504992389F082600FC08091BF098F70873008F0CEC18093E9008091EB0094
:203F000085FB882780F91092E9009091E800977F9093E8008093F1001092F1008BC1282F0A
:203F20002D7F09F0B7C1882319F0823061F0B2C18091BD09813009F0ADC1933009F080E02F
:203F4000809315042EC08091BD0981112AC08091BF098F702FEF280F263008F09BC180930A
:203F6000E9002091EB0020FF1CC0933021F48091EB00806214C09091EB0090619093EB002C
:203F800021E030E0A90102C0440F551F8A95E2F74093EA001092EA008091EB0088608093A5
:203FA000EB001092E9008091E800877F46C1811171C10091BD090F778091E3008078802B4D
:203FC0008093E3008091E800877F8093E800A8DE8091E80080FFFCCF8091E3008068809339
:203FE000E300011102C082E001C083E080935B0751C18058823008F04DC18091BD09909175
:20400000BE098C3D53E0950709F07CC083E08A838AE289834FB7F894DE01139620E03EE0EC
:2040200051E2E32FF0E050935700E49120FF03C0E295EF703F5FEF708E2F90E0EA3010F0C0
:20404000C79601C0C0968D939D932F5F243149F74FBF8091E800877F8093E8002091C109F6
:204060003091C2092A32310510F02AE230E040E0FE0131962115310589F180915B0788231C
:2040800009F4C7C0853009F4C4C08091E80083FDC0C08091E80082FD30C08091E80080FF8D
:2040A000E9CF4091F3008091F20090E0942B2115310551F08830910538F441914093F10095
:2040C000215031090196F3CF41E0089709F040E08091E8008E778093E800CCCF4111CDCF81
:2040E0000CC080915B07882309F493C0853009F490C08091E80083FD8CC08091E80082FF45
:20410000F0CF87C0292F33272230310541F02330310551F02130310509F0BCC0EEC085E64F
:2041200090E0E0EBF0E022C0992781309105A1F058F0029709F0AEC0E7E2F1E0E4918E2FE6
:2041400090E0E7E2F1E00FC0EFE5F1E0E4918E2F90E0EFE5F1E007C0EBE3F1E0E4918E2F02
:2041600090E0EBE3F1E0009709F494C02091E800277F2093E8002091C1093091C2098217CE
:20418000930708F49C0140E02115310589F180915B07882309F43DC08530D9F18091E80056
:2041A00083FD37C08091E80082FD2FC08091E80080FFEACF4091F3008091F20090E0942BFA
:2041C0002115310559F08830910540F444914093F1003196215031090196F2CF41E0089785
:2041E00009F040E08091E8008E778093E800CCCF4111CDCF0AC080915B07882351F0853046
:2042000041F08091E80083FD04C08091E80082FFF2CF8091E8008B778093E8003BC080384C
:20422000C9F58091E800877F8093E800809116048093F1008091E8008E778093E80070DD51
:2042400029C0811127C08091BD099091BE099927029704F58091E800877F8093E8008091E0
:20426000BD09809316045CDD80911604882361F084E080935B0742E361E881E0A3DD42E39E
:2042800060E882E09FDD06C08091E30087FDF0CF81E0EFCF8091E80083FF0AC08091E8009E
:2042A000877F8093E8008091EB0080628093EB001092E9008091F00088608093F0001F701B
:2042C0001093E900AA960FB6F894DEBF0FBECDBFDF91CF91FF91EF91BF91AF919F918F910B
:2042E0007F916F915F914F913F912F911F910F910F900FBE0F901F90189582E190E0E5E1FE
:20430000F1E034CF1F920F920FB60F9211242F933F934F935F936F937F938F939F93AF93CA
:20432000BF93EF93FF938091E10082FF09C08091E20082FF05C08091E1008B7F8093E100B2
:204340008091DA0080FF1BC08091D80080FF17C08091DA008E7F8093DA008091D90080FF8B
:204360000BC080E189BD82E189BD09B400FEFDCF81E080935B0703C019BC10925B07809118
:20438000E10080FF17C08091E20080FF13C08091E2008E7F8093E2008091E20080618093C5
:2043A000E2008091D80080628093D80019BC85E080935B078091E10084FF2EC08091E20060
:2043C00084FF2AC080E189BD82E189BD09B400FEFDCF8091D8008F7D8093D8008091E100C7
:2043E0008F7E8093E1008091E2008F7E8093E2008091E20081608093E20080911604882328
:2044000011F084E007C08091E30087FD02C081E001C083E080935B078091E10083FF26C0E2
:204420008091E20083FF22C08091E100877F8093E10082E080935B07109216048091E100B4
:204440008E7F8093E1008091E2008E7F8093E2008091E20080618093E20042E060E080E0DB
:20446000B1DC8091F00088608093F000FF91EF91BF91AF919F918F917F916F915F914F91F3
:204480003F912F910F900FBE0F901F901895FF920F931F93CF93DF93EC011E821D8247E019
:2044A00063E073E0F6DAE3E0F3E080E090E000E010E06281062E000C770B20E030E026176E
:2044C000370784F4A381B481A80FB91F1296FC9012974D915C914F0D511D040F151F2F5FF7
:2044E0003F4FEDCF359609968F33910511F746E068E073E0CE01CDDA8C899D892A893B89BF
:20450000281B390B6E89629FA001639F500D1124840F951F8D3F23E0920710F49E838D8303
:20452000C80121E0822727E19227DF91CF911F910F91FF9008951F93CF93DF93EC011E82E8
:204540001D8247E063E073E0A4DA21E030E041E060E0CE019BD911E0672B682B692B09F425
:2045600010E046E068E073E0CE0193DA8C899D892A893B89281B390B6E89629FA001639F7A
:20458000500D1124840F951F8D3F23E0920710F49E838D83812FDF91CF911F910895DF9267
:2045A000EF92FF920F931F93CF93DF93EC01D62E2C893D898DEF93E0821B930B6A897B8934
:2045C000621B730B0E94A631D61698F5DE8A1E821D8247E063E073E0CE015BDAED2CF12C50
:2045E00000E010E020E030E041E060E0CE010E943F1946E068E073E0CE014BDA8C899D89C1
:204600002A893B89281B390B6E89629FA001639F500D1124840F951F8D3F23E0920710F4BC
:204620009E838D83E889F989309729F08D2D099502C080E001C081E0DF91CF911F910F91BA
:20464000FF90EF90DF9008952F923F924F925F926F927F928F929F92AF92BF92CF92DF9214
:20466000EF92FF920F931F93CF93DF93CDB7DEB72B970FB6F894DEBF0FBECDBF9B878A87AB
:204680006987DC0116961C921E92159747E063E073E0FFD9B985B13009F43DC08A859B85BA
:2046A000F6DE7C01EA85FB851682158247E063E073E0CF01EED900E010E020E030E040E037
:2046C00060E08A859B850E943F1946E068E073E08A859B85DED9AA85BB8554968D919C9126
:2046E000559752962D913C915397281B390B56966C91629FA001639F500D1124840F951F84
:204700008D3FB3E09B0758F5AA85BB8516969C938E93159724C0EA85FB8586859785892B86
:2047200009F4BCCFC12CD12C7601AA85BB851E96ED91FC911F9701E020E030E0A901C70149
:20474000B6010995BFEFCB1ADB0AEB0AFB0AEDEFCE16E3E0DE06E104F10439F79FCF46E08D
:2047600068E073E08A859B8594D9EA85FB858489958922893389281B390B6689629FA00169
:20478000639F500D1124840F951F8D3FF3E09F0730F4AA85BB8516969C938E9315971A8222
:2047A0001982EA85FB85248935898DEF93E0821B930B62897389621B730B0E94A6317727E1
:2047C00089819A81861797070CF0B3C06981CF01E6DE1C821B82212C312CAA85BB858C911B
:2047E00090E0281639060CF092C01E821D82C12CD12CAA85BB851A96ED91FC911B978B816D
:204800009C81E80FF91F8281082E000C990BC816D9060CF073C00380F481E02DAD81BE8125
:20482000EA0FFB1F8381882321F0B985BB2309F45CC0848095808081918198878F83828110
:20484000823079F028F4882361F0813021F04DC0853008F04AC0412C512C3201A12CB12CD8
:204860002CC0A12CB12C2401612C712C2CC0AA85BB851A96ED91FC911B978B819C81E80F6B
:20488000F91F0380F481E02DAD81BE81EA0FFB1F868185017401882321F0E40CF51C061D99
:2048A000171D92014C2D622D8A859B850E943F19BFEF4B1A5B0A6B0A7B0AAF81B8854A16C1
:2048C0005B06ACF212C0EF81F885AE16BF066CF48301720195014C2D622D8A859B850E94CB
:2048E0003F19FFEFAF1ABF0AEECF2FEFC21AD20A8D819E8109969E838D837BCF9FEF291A35
:20490000390AAB81BC811596BC83AB8366CFE12CF12C8701E39425E030E040E065E08A85EC
:204920009B850E943F19E981FA813196FA83E98338CF60E08A859B852B960FB6F894DEBFA3
:204940000FBECDBFDF91CF911F910F91FF90EF90DF90CF90BF90AF909F908F907F906F9018
:204960005F904F903F902F901ACEF89484B7877F84BF80916000806180936000109260001C
:204980008FE19EE40197F1F700C000001FBA10BE1CBC1DBA1092680010927A0010926E0059
:2049A00010926F0010927100109272001092C9001092BC0015B818B81BB81EB811BA14B819
:2049C00017B81AB81DB810BA98E088E10FB6F894A895809360000FBE90936000FFCF61EF47
:2049E0000C949D140F931F93CF93DF9300D000D01F92CDB7DEB78C011D8286E997E00E9420
:204A00007114863080F0BE016B5F7F4FCE0101960E94C914882339F08D81813F21F4CE0129
:204A200001960E943B11C8010E949011882321F063EFC8010E949D140F900F900F900F903F
:204A40000F90DF91CF911F910F9108950F931F93CF93DF931F92CDB7DEB78C01198286E971
:204A600097E00E947114863010F480E00EC0BE016F5F7F4FC8010E94C9148823B1F36981D4
:204A8000623F99F3C8010E949D140F90DF91CF911F910F9108950C9477140C94B614242F89
:204AA00030E0AB01B901FC01858D968D0C9419161F93CF93DF93EC01162F6130D1F108F478
:204AC0004DC06230D1F0633009F06EC010925D0760E076E980E090E00E943414ED8DFE8D58
:204AE000E858FF4F86E295E291838083ED8DFE8DE658FF4F8FEE94E219C010925D0760E08F
:204B000076E980E090E00E943414CE010E94040CED8DFE8DE858FF4F82EF94E2918380836A
:204B2000ED8DFE8DE658FF4F8BE391E19183808308C062E17AE780E090E00E943414109324
:204B40005D07ED8DFE8DEC58FF4F11821082ED8DFE8DEA58FF4F1182108226C0ED8DFE8D90
:204B6000E858FF4F80E991E191838083ED8DFE8DE658FF4F8BE391E19183808362E17AE789
:204B800080E090E00E943414ED8DFE8DEC58FF4F8DE495E291838083ED8DFE8DEA58FF4F30
:204BA0008BE495E291838083DF91CF911F910895CF93DF93CDB7DEB76E970FB6F894DEBFFB
:204BC0000FBECDBFF89484B7877F84BF0FB6F894A89580916000886180936000109260000F
:204BE0000FBE5598509A519A249A569A549A279A579A259A3F9A3E9A269A2F9A5F9A2D9A1F
:204C0000479A469A2E9A219A229A239A859A879A849A869A8D988F988C988E988098819892
:204C20006E9A6A9A7698729880917E00816080937E0080917E00826080937E0010927C002F
:204C400010927A0080917A00876080937A0080917A00806880937A0080E00E94820A03E0C8
:204C600010E080917A00806480937A0080917A0086FDFCCF809178009091790001501109E1
:204C800081F780917A00886080937A0080917A00806480937A0081E080934F0791E890933A
:204CA000500720E430E030935207209351078093540792E0909355073093570720935607D2
:204CC000809359079091D8009F7E9093D8009091D70091609093D70094E092BF809317047A
:204CE0008091D8008E7F8093D8001092E2001092DA001092E1008091D8008F778093D80076
:204D00008091D80080688093D8008091D8008F7D8093D80019BC10925B07109216041092C0
:204D20001504109214048091E0008B7F8093E0008091D80081608093D80042E060E080E03B
:204D400041D88091E1008E7F8093E1008091E20081608093E2008091E20088608093E200AE
:204D60008091E0008E7F8093E0008091D80080618093D80014BC15BC10926E0010928000BA
:204D80001092810010929000109291001092C0001092C1001092C2001092C3001092C40097
:204DA0008091800081608093800080918100816080938100809190008160809390008091B1
:204DC00091008160809391008091C00082608093C0008091C10081608093C1008091C200DD
:204DE00081608093C2008091C30081608093C30084B5826084BD85B5836085BD8CE787BD00
:204E000080916E00826080936E00109295061092940647E063E073E08FE896E00E94491D85
:204E2000882309F495C080919006909191069093A2068093A1068091080390910903909325
:204E4000A4068093A306109295061092940647E063E073E08FE896E00E94491D20E030E0B1
:204E600040E060E08FE896E00E94461C7B0146E068E073E08FE896E00E94491D8091A306F5
:204E80009091A4062091A1063091A206281B390B6091A506629FA001639F500D1124840F9A
:204EA000951F8D3F23E0920720F490939506809394068FE896E0EBDAE816F90629F061E04E
:204EC0008FE896E0C1DB44C08FE896E034DB8823C1F1109295061092940647E063E073E0B6
:204EE0008FE896E00E94491D20E030E041E060E08FE896E00E94461C6093A50646E068E04F
:204F000073E08FE896E00E94491D8091A3069091A4062091A1063091A206281B390B60918B
:204F2000A506629FA001639F500D1124840F951F8D3F33E0930738F4909395068093940639
:204F400002C01092A5066091A5068FE896E027DB10925F0810925E0810925008109266089C
:204F6000109265088FEC91E0909353088093520886E08093540880E090E020E030E040E076
:204F800050E0E0915208F0915308E80FF91F608170E04617570734F50180F281E02DE20F24
:204FA000F31F60817181A5E076956795AA95E1F76483E0915208F0915308E80FF91F01804B
:204FC000F281E02DE20FF31F608171816F717727672B19F064816F5F64834F5F5F4F2B5FE2
:204FE0003F4FCFCF03968231910539F689EB91E09093610880936008FC018FEC91E02081FE
:20500000263038F410926108109260081092620807C032968E179F0791F78BE080936208A3
:205020007894E0916B08F0916C08E759FF4F81E1808320E030E040E060E080916908909185
:205040006A080E94461CE0916B08F0916C08ED58FF4F608321E030E040E060E08091690898
:2050600090916A080E94461C40916B0850916C08FA01EC59FF4F21E0672B682B692B09F4BB
:2050800020E02083FA01EA59FF4F21E02083729620E931E13183208332962BE331E1318327
:2050A000208323E030E040E060E08091690890916A080E94461C672B682B692B09F45EC0ED
:2050C00022E030E040E060E08091690890916A080E94461CE0916B08F0916C08EB59FF4FDA
:2050E00021E0672B682B692B09F420E0208322E030E040E060E08091690890916A080E942D
:20510000461C672B682B692B11F120E030E041E060E08091690890916A080E94461C633055
:2051200091F460E076E980E090E00E94341480916B0890916C08FC01EC58FF4F2DE435E2C1
:205140003183208326C08EE498E0B2DC25C062E17AE780E090E00E94341480916B089091B2
:205160006C08FC01EC58FF4F2DE435E23183208332962BE435E2318320830EC00E941214D2
:2051800080916B0890916C08FC01EC58FF4F118210823296118210828DEF93E00E944A3149
:2051A000ECEAF0E04591559165917491FA01659174918617970731F08DEF93E00E94693115
:2051C00081E001C080E00E94540A22E030E040E064E08091BE089091BF080E94461C672B82
:2051E000682B692B09F444C081E00E94031681E00E940316F12C41E06F2D8EEB98E00E94E2
:20520000E505F39440E3F412F6CF80E090E00196813D57E0950739F0AFE9BFE01197F1F747
:2052200000C00000F4CFF12C40E06F2D8EEB98E00E94E505F394B0E3FB12F6CF0F5F1F4FCD
:20524000013DE7E01E0739F08FE99FE00197F1F700C00000F3CF21E030E040E064E080917C
:20526000BE089091BF080E94461C862F0E94031621E030E040E064E08091BE089091BF08D8
:205280000E94461C862F0E94031620E030E040E064E08091BE089091BF080E94461C6623DA
:2052A00029F0613059F483EF98E002C08EEF98E09093F2088093F1086093F008E8E1F9E0A0
:2052C00083E299E021E021938E179F07E1F710E0612F89E495E00E94251D1F5F1032C1F75A
:2052E0008BE091E09093BA098093B9098AEE90E09093C8048093C7048CED90E09093A006B0
:2053000080939F06809137088231E9F08091460890914708892BB9F081E00E94D21188233C
:2053200091F080910108882371F08058813608F064C68091370890910008891709F45DC6DC
:20534000813109F45AC623E030E040E060E08FE896E00E94461C672B682B692B09F4F0C0B4
:2053600022E030E040E060E08FE896E00E94461C672B682B692B09F4C2C020E030E041E061
:2053800060E08FE896E00E94461C611571058105910539F0633071058105910509F4AFC01A
:2053A000CFC080913708823109F4CAC08091420890914308892B09F4C3C080E00E94D211F4
:2053C000882309F4BDC06091CF07C0904408D0904508E0904808F090490810924508109276
:2053E000440880E8860F813658F40091CE072091D1074091D0078EEC97E00E947B0B76C07B
:20540000663F19F1C0F4613F09F45BC018F4603F09F16CC0623F71F1633F09F067C010913A
:20542000D00783EFE0E0F0E00995E0914408F0914508812F3DC06D3F28F46A3F30F4683F81
:2054400021F054C06E3F08F451C08EEC97E00E94700B4CC06091D0077091D1076E3271059C
:2054600010F06DE270E042ED57E08EEC97E00E9419163CC00091D107F0E80F9F80011124C4
:205480008091D007082B82EFE0E0F0E00995E0914408F0914508802F8F770995C801880F14
:2054A000892F881F990B9195E0914408F09145088F770995809132088823C1F0109236080D
:2054C00015C08091D0078770F0E18F9FC00111241091D1071F70182B81EFE0E0F0E009953A
:2054E000E0914408F0914508812FE3CFD0924508C0924408F0924908E092480821C08091EB
:2055000037088231E9F08091420890914308892BB9F080E00E94D211882391F08091CF07A4
:20552000882371F08058813608F06BC5809137089091CE07891709F464C5813109F461C5C7
:2055400080917508882309F4DDCE8091CE06811118C08091D306813009F04BC541EC54E016
:205560005E874D8788E194E09A878987A8E3B4E0BC87AB87E9E0F5E0FE83ED83212C312C97
:20558000ABC22FB7F8948091C0048F5F8093C004853011F41092C004A8EBB4E080E090E07B
:2055A0003091C004FC0148E0349FE00DF11D1124EA55F94F30813D9301968830910581F7D9
:2055C0008091CE0681508093CE062FBF03E319E0F12CEF2CE694E694E6945F2D5770D52E65
:2055E000E0FE03C02FEF2E0D01C02E2D220F220F2D0D30E040E062E08091330990913409DC
:205600000E94461C672B682B692B89F58E2D90E0ED2DF0E0E854FB4F608170E00E2C02C087
:20562000759567950A94E2F76170D80116962C911697220F206F262B16962C93203F11F051
:205640002F3FA9F4FC01E756F64F808190E02F2DA8E0EA9E2019112402C0959587952A95AE
:20566000E2F78170681719F08F2D0E94C716F3940F5F1F4FB0E4FB12ACCF79E4872E75E0B7
:20568000972EEFE06E2EE6E07E2EEFE8F5E0FE83ED83FFE4AF2EF6E0BF2EA8E74A2EA4E0BD
:2056A0005A2E28E534E038872F8348E954E05A874987E12CF12C970140E062E08091490537
:2056C00090914A050E94461C672B682B692B09F4DEC1970145E062E08091490590914A0533
:2056E0000E94461CEE2DE770F0E0E854FB4FE081F0E08E2D869586958695880F02C0F595BE
:20570000E7958A95E2F7E370A985BA858C91880F880FE82BEF70EC93F0E0EA5DFC4F8081B6
:20572000811102C010E026C0F2019081980F908391E018160CF090E0AF81B8852C919C931D
:20574000921711F0F2018083D2012C91822F022E000C990B97FF03C091958195910970E009
:2057600086179707FCF2121614F411E001C012E0F20110820E942319AD81BE812D913D91D0
:205780004D915C91DC01CB01821B930BA40BB50BC397A105B10518F0F50110A210821123BF
:2057A00009F475C1970141E062E08091490590914A050E94461C672B682B692B29F01130D5
:2057C00011F412E001C011E0D50190968C919097843099F0F30180A1811711F090961C9221
:2057E000D50190968C9190978F5F843019F090968C9303C0F50110A21083970146E062E07B
:205800008091490590914A050E94461C062F662369F10E942319AD81BE812D913D914D91E8
:205820005C91DC01CB01821B930BA40BB50B8C389105A105B105C0F4802F90E0F3016081CA
:20584000FC01E05CFC4F208130E0FC01E45CFC4F408150E0C901860F911D481759070CF4CE
:20586000CA01D3018C9302C0F3011082D30190961C930E942319ED81FE81608371838283D2
:205880009383D5013C90311001C0312E970143E062E08091490590914A050E94461C262ECB
:2058A000970144E062E08091490590914A050E94461C062F970142E062E080914905909166
:2058C0004A050E94461C162FF3018081811101C081E01230B9F040F0133081F19BEF910F8D
:2058E000933008F0CBC02AC0812F90E0FC01EE0FFF1FE80FF91FEA5CFC4FE30DF11DC08062
:20590000D12C58C0802F90E0F1E03F1208C0FC01ED5DF64F20812F3750F42F5F07C0FC0140
:20592000ED5DF64F2081222311F021502083FC01ED5DF64F408120E060EC48C0912F9D7F60
:20594000953031F4823018F0880F880F01C081E090E021E0321215C0D40116962D913C91BD
:205960001797F901E81BF90BF7FD05C01796FC93EE9316971CC0D40117961C921E921697EC
:2059800016C0133011F0163019F42FE730E002C02FEF3FE3F40146815781840F951F281758
:2059A00039071CF09783868302C037832683F401C680D780153089F4A6015F739A01220FBA
:2059C000232F221F330B31954F7760EE80914B0590914C050E947B0B51C08AEF810F823055
:2059E00090F5312C3C822B82CE0101960E942F19202F498163E680914B0590914C050E9433
:205A0000FC0B202F4A8162E680914B0590914C050E94FC0B163021F4202F4C2D66E018C060
:205A2000DC82CB82CE0101960E942F19202F498166E080914B0590914C050E94FC0B202F41
:205A40004A8166E205C0143051F0202F4C2D622D80914B0590914C050E94FC0B0FC0E091D6
:205A60004905F0914A05968922E0321202C061E001C06FEF690FCF010E94CF22E091B90973
:205A8000F091BA09309719F06E2D82E009953FEFE31AF30A42E0840E911C5FEF651A750A82
:205AA0008D819E8104969E838D839FEFA91AB90AAFEF4A1A5A0AEF81F8853196F887EF83CF
:205AC00029853A852F5F3F4F3A87298730E2E316F10409F0F0CD3DCD910140E063E0809106
:205AE000C1049091C2040E94461C672B682B692B09F458C28FB7F894F101EE0FFF1FEC5209
:205B0000F94FC080D180118210828FBFFBECCF16F3E0DF069CF081E0AB85BC858C93E985CA
:205B2000FA851082F4E1CF0ED11CC11424E0D206B4F1CC24CA9433E0D32E31C036EBC31612
:205B400033E0D30624F5AB85BC851C92B1E4CB16D104CCF4E2E3CE16D10464F481E0A985B1
:205B6000BA858C93BFE0CB1AD108D7FE18C0C12CD12C15C0E985FA858081882381F0FFE015
:205B8000CF1AD1080CC0A985BA851C9208C0EB85FC858081882319F0F4E1CF0ED11C9101BD
:205BA00042E063E08091C1049091C2040E94461C162F633009F4EDC1623009F465C128F06F
:205BC0008CEF810F833008F0EDC18BEF810F823038F481E090E02FEF3FE338872F8306C031
:205BE00086E090E04FE750E058874F83AD85BE851896ED90FC90199741E0EC14FD0408F0C2
:205C000040E0ED81FE8120A1421711F0880F991F96012E193F0937FF03C031952195310938
:205C20002817390708F4BEC1AD81BE8190964C934F8158859A0140E050E02B8B3C8B4D8B0B
:205C40005E8B26010D2C000C660877088F8198858F3FA3E09A0751F09C01D601CFD32FEF6E
:205C600033E040E050E099D329013A0152019701EF81F885EF3F63E0F60741F09F01D70101
:205C8000AED32FEF33E040E050E087D3A216B30609F488C1910144E063E08091C104909101
:205CA000C2040E94461C6F8B788F898F9A8F8F89988D9A8B898B910145E063E08091C10492
:205CC0009091C2040E94461C4B015C017B01910143E063E08091C1049091C2040E94461CFB
:205CE0006B8F7C8F8D8F9E8FAB8DBC8DB88BAF87910146E063E08091C1049091C2040E9402
:205D0000461C062F123010F0143011F5EB8DFC8DFC83EB83CE0101960E942F198A81282FC0
:205D200030E0388B2F874F89588D5C834B83CE0101960E942F198A81A82FB0E0BA8BA98B35
:205D40009C828B82CE0101960E942F19EA80F12CC701A0E0B0E0E989FA894F01A12CB12C7A
:205D6000EF2B49F42B893C894D895E89281739074A075B07A1F09C01AD01281939094A09B2
:205D80005B09C301B201C7D22B893C894D895E8904D329013A01480C591C6A1C7B1C7201C4
:205DA000910141E063E08091C1049091C2040E94461C672B682B692B21F0EF80F884E4187B
:205DC000F508163028F4143018F5123098F0EAC0163009F0E7C0A7015F739A01220F232F21
:205DE000221F330B31954F7760EE8091C3049091C40447C08091C3049091C404111104C0DB
:205E0000202F4E2D6F8527C02E2D4F8560E939C04F8558895C834B83CE0101960E942F19BA
:205E2000202F498163E68091C3049091C4040E94FC0B202F4A8162E68091C3049091C40473
:205E40000E94FC0B143051F4202F4E2D66E08091C3049091C4040E94FC0B8BC0FC82EB8260
:205E6000CE0101960E942F19202F498166E08091C3049091C4040E94FC0B202F4A8166E2A7
:205E8000E6CF0E947B0B75C0B8E2CB16D1044CF0C601E5E5CE16E1E0DE062CF084E591E054
:205EA00002C088E290E09C0128523109FFE7F29FC001F39F900D11246CE271E047D2162F5C
:205EC000662351F1AD81BE818C9181115BC081E08C93910143E063E08091C1049091C2048B
:205EE0000E94461CF62E910146E063E08091C1049091C2040E94461C062F212F4F2D60E974
:205F00008091C3049091C4040E947B0BEE24E394212F4F2D60E927C0ED81FE81808188237A
:205F200089F11082910143E063E08091C1049091C2040E94461C062F910146E063E080915B
:205F4000C1049091C2040E94461C162F462F602F8091C3049091C4040E94B416E12C01E02D
:205F6000212F40E060E88091C5049091C6040E94B706E091B909F091BA09309719F0622D6F
:205F800083E00995AD85BE851996DC92CE92189709C0E091C704F091C804309719F0B60186
:205FA000822D0995BFEF2B1A3B0AED85FE853296FE87ED8729853A852F5F3F4F3A872987AC
:205FC0004B855C854F5F5F4F5C874B878D819E8101969E838D8390E22916310409F07CCDE2
:205FE0001092D3061092140780917A00806480937A0080E00E946A1885C981E00E949A01FD
:20600000A2C980E00E949A019BCAEF92FF920F931F93CF93DF93CFE8D6E01E821D821F828C
:206020008DEF93E0998788871B861A86188219821A821B821C8285EC95E09D878C878FEA5F
:2060400095E09F878E87198A188A1E8A0EEC17E01092320810923308109234081092400831
:2060600010923F0810924108109243081092420810924508109244081092470810924608B5
:2060800010924908109248088EEB98E0DC01CD93DC9320E3E0ECF8E0DF011D922A95E9F7A9
:2060A000FC0112AA14AA13AA2BE0E4E4F3E0A3EFB8E001900D922A95E1F72BE0EFE4F3E064
:2060C000AEEFB8E001900D922A95E1F72BE0E9E0F9E0DF01322F1D923A95E9F710921409B9
:2060E000109215091092160910921709E8E1F9E0DF011D922A95E9F741EC54E0FA01D183DD
:20610000C08313830283958384831782168230E4E9ECF4E0DF01232F1D922A95E9F720E292
:20612000E9E0F5E0DF01622F1D926A95E9F7E9E2F5E0DF01622F1D926A95E9F763E379E084
:20614000DB011196DC93CE9313961C930E93129715969C938E931497A0E6E9E3EE2EE9E06D
:20616000FE2EF7011192AA95E9F7EDE0F9E9EF2EF9E0FF2ED701FE2F1D92FA95E9F7A6EAB4
:20618000EA2EA9E0FA2ED7011D92EA95E9F7B6E0FB2EEAE5F3E0A3EBB9E001900D92FA940A
:2061A000E1F7A9E4B5E01196DC93CE9313961C930E93129715969C938E931497EFE4EE2E37
:2061C000E5E0FE2EF70111923A95E9F730E8FFE8EF2EF5E0FF2EF70111923A95E9F73FE0FD
:2061E000E32E36E0F32EF701322F11923A95E9F7EFE2EE2EE6E0FE2EF701322F11923A9502
:20620000E9F7FFE4EF2EF6E0FF2EF701322F11923A95E9F73FE6E32E36E0F32EF7011192E8
:206220002A95E9F7EEE4F8E012821382158214821682118A108A138A128A148A158A168ADC
:20624000178A108E128E118E24E633E031832083D48FC38F168F058F70A3678FB2A3A1A3BC
:2062600054A343A396A385A381E087A3DF91CF911F910F91FF90EF900895F999FECF92BDDC
:2062800081BDF89A992780B50895A6E1B0E044E050E033C0A8E1B0E042E050E02EC0262F90
:2062A000F999FECF92BD81BDF89A019700B4021639F01FBA20BD0FB6F894FA9AF99A0FBED8
:2062C00008950396272FECDFEADF252FE9DF242FE7CF0196272FE4DFE2CF262FF999FECF64
:2062E0001FBA92BD81BD20BD0FB6F894FA9AF99A0FBE01960895DC01CB01FC01F999FECFDD
:2063000006C0F2BDE1BDF89A319600B40D9241505040B8F70895DB018F939F9375D0BF918C
:20632000AF91A29F800D911DA39F900DB29F900D11240895991B79E004C0991F961708F0D4
:20634000961B881F7A95C9F780950895AA1BBB1B51E107C0AA1FBB1FA617B70710F0A61BF1
:20636000B70B881F991F5A95A9F780959095BC01CD01089597FB072E16F4009406D077FD5C
:2063800008D0E4DF07FC05D03EF4909581959F4F0895709561957F4F0895A1E21A2EAA1B9C
:2063A000BB1BFD010DC0AA1FBB1FEE1FFF1FA217B307E407F50720F0A21BB30BE40BF50B9A
:2063C000661F771F881F991F1A9469F760957095809590959B01AC01BD01CF010895A29F4C
:2063E000B001B39FC001A39F700D811D1124911DB29F700D811D1124911D0895F0DFB7FF28
:206400000895821B930B0895EADFA59F900DB49F900DA49F800D911D11240895EE0FFF1F02
:206420000590F491E02D0994F894FFCF0700000000020000000030000007003000000100CD
:2064400003000000003000007F00300000010030000009003000017F00300001100020000F
:20646000000100200000010020000006002000007F002000007F002000007F002000007F58
:20648000002000007F002000007F0020000110002000000100200000010020000007002004
:2064A00000007F002000011000200002040020000004002000007F002000000100600000C2
:2064C000010060000012006000007F006000017F0060000110000400000100030000000011
:2064E00002000000005601420043017F01550144014D01650164016D00500103AA01059187
:20650000010964010A3201080A0102000101010700010000000000000200010000000000AC
:206520000003000100000000000030000100000001000010000000000000000030000200E3
:206540000000000000300001007F0000000030000200000000000020000000000000000039
:20656000200000000000000000200002000000000000200003000000010000200003000092
:206580000000000020000300FF3F0000002000020000000000002000000000000000002038
:2065A000000000000000000020000200000000000020000300000001000020000200000073
:2065C0000000002000020004000000002000020000000000002000000000000000006000F3
:2065E00000000000000000600001000000000000600001000000010000600001007F0000F8
:2066000000006000020000000000000400000000000000000300020000000000000100030B
:20662000000000000000020001000000000000000002F102000002DF02000005B2020000C6
:20664000086A020000072B02000006F501000002E3010001FF02FF00FE0101FE00FF02FFB1
:206660000100007F01003F4100050A6400010203FF02030406090C121824300001020304F5
:2066800005060708090AF07F7F0600F700000000A20F3C0C6F1C4F25F000534300006DF700
:2066A0002500072B00072500052800072800062500060000000000000000000101010102C4
:2066C00002020203030404050506060708090A0B0C0D0E1011131517191C1E2124282C30C0
:2066E00034393E444A5159616A737E8A96A4B3C3D5FF0007020104030506040506070302B6
:20670000010008090A0B0C0D0E0F04050706000102030001000102030405060307000102DD
:20672000030400000001020304050001020303040405050600010001020408102040800022
:026740000A7DD0
:00000001FF
