:020000040000FA
:2000000074C00000A3C00000A1C000009FC000009DC000009BC0000099C0000097C0000021
:2000200095C0000093C0000091C000008FC000008DC000008BC0000089C0000087C0000050
:2000400085C0000083C0000081C000007FC000007DC000000C94C11679C0000077C0000074
:2000600075C000000C9455160C94EC150C949E156DC000000C94CD1769C0000067C000004B
:2000800065C0000063C0000061C000005FC000000C942B160C94AD150C948F1557C000003A
:2000A00055C0000053C0000051C000004FC000004DC000004BC0000049C0000047C00000D0
:2000C00045C0000043C0000041C000003FC000003DC000003BC0000039C0000037C0000030
:2000E00035C000005C970000713F11241FBECFEFD1E2DEBFCDBF00E00CBF18E0A0E0B2E007
:20010000EEEBF0E900E00BBF02C007900D92AE39B107D9F729E1AEE9B8E001C01D92AB3890
:20012000B207E1F710E0C5E7D0E000E006C021970109802FFE010E947045C437D10780E042
:200140000807A9F70E94BF340C945D4859CFFC018081918180FF02C0906801C09F779183BA
:2001600090E095958795808320E030E0382F8181282B338322830895CF93DF93EC01CA0176
:20018000EA81FB81E855FF4F0190F081E02DEC51FF4F11821082EA81FB81E855FF4FAB0110
:2001A000BC01808191810E94172F63E08A819B810E94521B882369F0EA81FB81E855FF4F98
:2001C0000190F081E02DEC51FF4F89E29AE191838083DF91CF910895FC018281238130E067
:2001E000220F331F87FF03C02F77216001C02E7720838F77818308952F923F924F925F92F8
:200200006F927F928F929F92AF92BF92CF92DF92EF92FF920F931F93CF93DF93CDB7DEB7C3
:2002200028970FB6F894DEBF0FBECDBFFC01542E69017801623009F429C130F4662369F0D7
:20024000613009F407C161C3643009F4E8C108F467C1663009F41AC358C30281138121E023
:20026000421709F498C0421728F032E0431709F4B2C082C381E0C81651F0C816B0F092E0CF
:20028000C91609F444C0A3E0CA16F1F0D0C0F801E855FF4F0190F081E02DEE52FF4F81E028
:2002A000E114F10479F480E00DC0F801E855FF4F0190F081E02DEF51FF4FE114F10409F4B2
:2002C0004FC081E08083B3C0E114F104E1F042E15AE760E070E081E00E941615D801A85585
:2002E000BF4FED91FC911197EE51FF4F87EA9AE191838083ED91FC91EC51FF4F8CE29AE12E
:200300009183808394C081E00E94E61490C063E0C801E114F10431F50E94521B882309F452
:2003200086C042E15AE760E070E081E00E941615F801E855FF4FA081B181AE51BF4F87EA00
:200340009AE18D939C93A081B181AC51BF4F8CE29AE18D939C930190F081E02DED52FF4FA1
:20036000108265C00E94521B882309F460C0F801E855FF4F0190F081E02DED52FF4F81E06E
:200380008083C8010E94451B8330910511F484E090E0BC0149C0CC2029F0B2E0BC1508F443
:2003A000EBC2B1C2E5E0EE16F10408F0AEC2F3E0EF16F10419F454E0E52EF12C63E0C801AD
:2003C0000E94521B882399F162E0C8010E94521B811129C02CC0CC2021F021E0C216A1F0F1
:2003E000CBC2F801EA55FF4F80819181DC019D962D913C919E973327E216F30608F085C27D
:200400006E2D0E94D61D7FC2B2E0EB16F10408F0B3C26E2D6170F801EA55FF4F8081918171
:200420000E946B1D70C2B701C8010E94651BA70160E070E0F801E50DF11DE852FF4FD8012B
:20044000AA55BF4F7A018B019601408160E08D919C91E0C0A280B380E4E04E1303C0F1E0F7
:20046000EF1AF10800E010E0F501E50DF11DE552FF4F9601408161E0F501EA55FF4F808112
:2004800091810E94B52D811179C276C2A280B380B3E04B1749F0E7E04E1328C0D5011796AB
:2004A0008C91823009F431C2F5018781813021F5E50DF11DE052FF4FA6016081F501EA557B
:2004C000FF4F808191810E9441327C836B83CE01019682DEF3E05F1202C0EA8201C0E98255
:2004E000CE01019634DEEB80FC8006C024E0421303C031E0E31AF10800E010E0F501E50DFC
:20050000F11DE052FF4F9601408162E0F501EA55FF4F808191810E94B52D811164C22CC2F3
:20052000A280B38085E04817C1F1841740F193E0491799F1941758F1A2E04A1356C0F501E8
:20054000E255FF4FA081B181FD01E20FF31F108AF901F896EE0FFF1FEA0FFB1F8FEF9FEF66
:200560009183808312968D919C911397DC01ED91FC910280F381E02DB90119953CC0B7E0E1
:200580004B1759F04B1718F0E8E04E132EC0D50117968C91823009F4B8C1F50187818130B8
:2005A00051F5E50DF11DE751FF4FA6016081F501EA55FF4F808191810E943D327C836B8353
:2005C000CE01019609DEF5E05F1631F027E0521619F033E0531202C0EA8201C0E982CE014A
:2005E0000196B5DDEB80FC8006C0B9E05B1203C0E1E0EE1AF10800E010E0D501A50DB11D74
:20060000A751BF4FF501EA55FF4F96014C9163E0808191810E94B52D91E0892780C2A2807E
:20062000B380F3E04F1709F4D1C0F41778F021E04217F1F0241750F1F501E055FF4F402FAE
:200640006C2D808191810E947A2A5DC135E0431709F4BCC0C5018A559F4F4C01431708F46C
:2006600060C097E0491303C1F1E0EF1AF108AEC0012B11F440E001C045E0F501E055FF4FD2
:200680006C2D808191810E94F32A3DC1A1E0CA1639F1CA1620F0B2E0CB16E9F06DC10230CA
:2006A000110508F069C1202FF501E055FF4F80819181FC01EB54FF4FAC01013019F04E5315
:2006C0005F4F02C049545F4F51834083FC01EC54FF4F20831AC00230110508F04DC115C09D
:2006E0002AE0201708F448C1F501E055FF4F0190F081E02D80819181DC01ED91FC910680AB
:20070000F781E02DB80177271995870120E030E0D501AB50BF4FF501EA55FF4FA6016C91B1
:20072000A3C03501B0EB6B0E711CB601F301808191810E94662A40E0BC01D3018D919C9193
:200740000E94702A40E0682FF301808191810E947A2AB601D3018D919C910E94662A41E030
:20076000BC01F301808191810E94702A40E0682FD3018D919C910E947A2AB601F3018081B1
:2007800091810E94662A42E0BC01D3018D919C910E94702A40E0682FF301808191810E947B
:2007A0007A2AB601D3018D919C910E94662A20E030E0AC01F501E950FF4F6081F40180817C
:2007C00091810E9445328111A2C0D6C0150120EB220E311CB601D1018D919C910E94662AC0
:2007E000F501EA55FF4FFE83ED83AC01EF5AFF4F6081AD81BE818D919C910E943932370163
:20080000812C912C252D30E0672B682B692B09F1F12CA20EB31EB3EFAB0EB11CB601F101EA
:20082000808191810E94662A4F2DBC01D1018D919C910E94702A94018301AC01F501608144
:20084000AD81BE818D919C910E944532811162C193C0A20EB31EF501ED50FF4F94018301A4
:20086000A6016081ED81FE81808191810CC020E030E0A40EB11CF501ED50FF4FA60160818C
:20088000D4018D919C910E944532C6CEA280B38041110CC02115310521F02130310541F0E3
:2008A00005C0012B29F482E0982E04C0912C02C09924939400E010E0F501E50DF11DE350E2
:2008C000FF4F9601408166E0F501EA55FF4F808191810E94B52D882309F44EC0E1E09E12EB
:2008E00008C0F501EC54FF4F808191810E94E4290AC0F2E09F1207C0F501EC54FF4F808151
:2009000091810E94C22980E00AC182E008C1012BD1F3F12C95012A503F4F3E832D83C50100
:2009200088509F4F98878F839AEFA90EB11CA601AD81BE816C91F401808191810E9439328D
:200940001B012C01B601D3018D919C910E94662A4F2DBC01F301808191810E94702A920137
:200960008101AC01AD81BE816C91F401808191810E94453281117EC081E0D1C021E02515C0
:2009800010F2F501E655FF4F208131814C2D4695469546955C2D88E0489F5019112481E0A2
:2009A00090E0A0E0B0E004C0880F991FAA1FBB1F5A95D2F78095F901E40FF11D9685982363
:2009C000968796A1892386A3D90112968D919C911397B6017727DC01ED91FC910280F38144
:2009E000E02D199590CFF501E455FF4FE080F18086011127A80162E0D70112968D919C911A
:200A000013970E94413298012B5F3F4F653071058105910559F4C901880F991FF701E80FEA
:200A2000F91F80E090E29183808308C0C901880F991FF701E80FF91F11821082F8013A96DF
:200A4000EE0FFF1FEE0FFF1FEE0DFF1D10821182128213826701C00ED11EF601EC59FF4F4C
:200A600010827E9610823F9610823F9610823F96108249CFA601EF81F8856081D4018D9189
:200A80009C910E9439321B012C01B601F301808191810E94662A4F2DBC01D3018D919C918B
:200AA0000E94702A92018101AC01EF81F8856081D4018D919C910E944532882309F45CCF5E
:200AC000A601F5016081D4018D919C910E9439321B012C01B601F301808191810E94662A32
:200AE0004F2DBC01D3018D919C910E94702A92018101AC01F5016081D4018D919C910E9407
:200B00004532882309F438CFF394B3E0FB1609F4FACE0DCFF394E3E0FE1280CEF4CE2896BB
:200B20000FB6F894DEBF0FBECDBFDF91CF911F910F91FF90EF90DF90CF90BF90AF909F90B5
:200B40008F907F906F905F904F903F902F9008950F931F93CF93DF9308E41EE0C0E0D0E00D
:200B6000A091440EB091450EF80191918F01957041E0953009F040E0ED91FC91119701906B
:200B8000F081E02DBE01CD0119952196C835D10539F7DF91CF911F910F910895FF920F93F2
:200BA0001F93CF93DF93CDB7DEB72C970FB6F894DEBF0FBECDBF8831910508F473C020915D
:200BC000330F222309F478C008E110E0081B190B0034110508F070C0F62E980145E066E09F
:200BE00080912B0F90912C0F0E94ED2E7A876987980146E066E080912B0F90912C0F0E9452
:200C0000ED2E9B017C876B878091310F9091320F49855A858417950721F02817390709F008
:200C20004BC0980141E066E080912B0F90912C0F0E94ED2E7A836983980142E066E080914A
:200C40002B0F90912C0F0E94ED2E7C836B83980143E066E080912B0F90912C0F0E94ED2EEE
:200C60007E836D83980144E066E080912B0F90912C0F0E94ED2E78876F83E091380FF0E0A3
:200C8000EE0FFF1FE55DF04F81859285DC01ED91FC910084F185E02D4F2DBE016F5F7F4FD5
:200CA00019950AC02FB7F894FC01EB54F74F608381E08093B4082FBF2C960FB6F894DEBF17
:200CC0000FBECDBFDF91CF911F910F91FF9008950E94AB18CF93DF93EC018EE78C0F0E9497
:200CE0003B1EAE0166E082E19DE0DF91CF910C94A925825E0C943B1E6F927F928F929F924B
:200D0000AF92BF92CF92DF92EF92FF920F931F93CF93DF93DC015C91651708F04BC1559600
:200D2000ED91FC915697B7E06B9FE00DF11D11245081451708F03EC1A180B280EBE04E9FBB
:200D4000A00CB11C1124D501ED91FC912E173F0708F030C17801E9016C010E942C2DD501EF
:200D600012962C91213011F54B015C018C0E9D1EA11CB11CD60157968D919C915897DC0154
:200D8000ED91FC910680F781E02D01E09701B501A4011995882309F40DC1F701808191813A
:200DA000A281B3819927AA27BB2729C0213060F1223009F498C0F601A789B08D233009F087
:200DC000D5C0CC0FDD1F4B015C018C0E9D1EA11CB11CED91FC9111970680F781E02D03E07E
:200DE0009701B501A401CD011995882309F4E2C0F70180819181A281B381AA27BB27808322
:200E00009183A283B383D8C03E0113E0769467941A95E1F74B015C01860C911CA11CB11C9B
:200E2000F601828D938DA48DB58D88169906AA06BB06E1F47724B3E0660C771CBA95E1F73C
:200E4000C619D709CC0DDD1D9D85818D892341E050E060E070E019F440E050E0BA01D70153
:200E60004D935D936D937C931397A6C0F6018789908DDC01ED91FC910680F781E02D00E08C
:200E80009701B501A4011995882309F493C0F7018081D60159968C937724A3E0660C771CB5
:200EA000AA95E1F7C619D709CC0DDD1D8D8590E0A0E0B0E04081518162817381842395232E
:200EC000A623B72341E050E060E070E0892B8A2B8B2B19F440E050E0BA01F70140835183C8
:200EE0006283738369C09E01369527954B015C01820E931EA11CB11CF601828D938DA48DFD
:200F0000B58D88169906AA06BB0671F4818D90E0A0E0B0E0C0FF3FC054E0B595A79597954A
:200F200087955A95D1F737C08789908DDC01ED91FC910680F781E02D02E09701B501A401F2
:200F400019958823B9F1F7018081D60159968C93C0FF26C080819181A281B38144E0B59533
:200F6000A795979587954A95D1F716C0CC0FDD1FCC0FDD1FAB01BC014C0F5D1F611D711D76
:200F8000ED91FC9111970680F781E02D04E09701CD01199519C0F70180839183A283B38358
:200FA000F70180819181A281B3818F709927AA27BB2725CF80E008C0D6015A968D929D922C
:200FC000AD92BC925D9781E0DF91CF911F910F91FF90EF90DF90CF90BF90AF909F908F9057
:200FE0007F906F9008953F924F925F926F927F928F929F92AF92BF92CF92DF92EF92FF92C9
:201000000F931F93CF93DF93EC0119821A821B821C821D821E821F8218866115710509F4E2
:20102000B5C1442309F4B2C17E8B6D8B488337E0432E512CC12CD12C4BE0342E888190E0A2
:20104000C816D9060CF0A4C1820107501109E12CF12C612C712C812C912C5401ED89FE896E
:20106000E00FF11F808190E0681679060CF0E6C00180F281E02D6114710429F4178210862A
:201080001186128645C08FEF860DDF012BE0829FA00DB11D112412962C9112978D919C91F6
:2010A0001197EE0DFF1D17964D915D916D917C911A97213029F138F02230B1F02330E1F48E
:2010C000880F991F1DC0A1E0B0E09C0127703327232B11F4A0E0B0E023E0969587952A95D9
:2010E000E1F78A0F9B1F0CC09C012170332796958795820F931F04C0880F991F880F991F85
:20110000480F591F611D711D4783508761877287AD89BE89A00FB11F1196ED91FC9112971B
:20112000EE0DFF1D808191814D815E816F817885480F591F611D711D4D835E836F8378876E
:201140001196ED91FC911297EE0DFF1D62818F89988D6623F1F0623009F04BC0DC01ED91A2
:20116000FC910284F385E02D62E01995ED89FE89E00FF11F0180F281E02DEE0DFF1D208132
:201180003181A9014170552736952795240F351F42C0DC01ED91FC910284F385E02D60E083
:2011A0001995BC01ED89FE89E00FF11F0180F281E02DEE0DFF1D808191819C01277033270F
:2011C00041E050E0232B11F440E050E0B3E096958795BA95E1F7840F951F869F9001879FF7
:2011E000300D969F300D1124820E931EA11CB11C1EC0DC01ED91FC910284F385E02D1995C1
:20120000ED89FE89E00FF11F0180F281E02DEE0DFF1D20813181FC01E29FC001E39F900D09
:20122000F29F900D1124880E991EA11CB11CFFEF6F1A7F0A2BE0E20EF11C10CF89819A8168
:20124000AB81BC81880E991EAA1EBB1E89829A82AB82BC828F89988DDC01ED91FC910280FE
:20126000F381E02D199586169706A806B90608F08DC0ED88FE88D701A00FB11F8C9190E075
:201280000197389E9001399E300D112411968D919C911297820F931FFC0187809084A184EB
:2012A000B28413964D915D916D917C911697480D591D6A1D7B1D4E8F5F8F68A379A3119648
:2012C0000D90BC91A02DA20FB31F12962C9112978D919C91213059F138F02230B1F0233072
:2012E00011F5880F991F23C021E030E0DC01A770BB27AB2B11F420E030E0F3E096958795CA
:20130000FA95E1F7820F931F12C09C012170332796958795280F391FDB01CA01820F931F09
:20132000A11DB11D0CC0880F991F880F991F8A019B01080F191F211D311DD901C8018E8FF5
:201340009F8FA8A3B9A3C114D10439F4D70113961D921D921D921C921697888190E00197E7
:20136000C816D90664F48E8D9F8DA8A1B9A1ED89FE89E40DF51D83839483A583B683BFEF42
:20138000CB1ADB0AE7E04E0E511C58CE80E001C081E0DF91CF911F910F91FF90EF90DF90AE
:2013A000CF90BF90AF909F908F907F906F905F904F903F900895FF920F931F93CF93DF93F1
:2013C00000D01F92CDB7DEB78C01F62EFC01EC51FF4F0190F081E02D309711F0862F199500
:2013E000F801E851FF4F0190F081E02D309751F019821A821B821C828FE08983FA82CE011E
:20140000019619950F900F900F900F90DF91CF911F910F91FF9008956D3F28F46A3F28F432
:20142000683F19F008956E3F08F0C5CF0895AF92BF92CF92DF92EF92FF920F931F93CF935D
:20144000DF9300D01F92CDB7DEB77C01162FFC01EC52FF4F8081882321F0003130F40F5FB5
:201460000EC08FEF800F803150F0F701EE52FF4F8081882309F44DC0349610824AC017FFE8
:20148000F4CF113E08F040C04F77D42E2F77C22E0150012B570184EEA80EB11CD501ED91C6
:2014A000FC9111973097C9F052978C91882329F014968C91801719F00C93802F1995D50174
:2014C000ED91FC918D2D1995812F8F7E803C29F0D501ED91FC918C2D1995F701E851FF4F40
:2014E0000190F081E02D3097A1F0612F70E084E0759567958A95E1F769830A83DB82CC8220
:20150000CE010196199505C0163F18F0612FC70183DF0F900F900F900F90DF91CF911F91DF
:201520000F91FF90EF90DF90CF90BF90AF9008950F93022F242F462F60EB79DF0F91089589
:201540000F93022FFC01EF51FF4F2081213021F4242F462F60E803C0242F462F60E967DFFC
:201560000F91089560FF02C0406801C04F7770E075956795762F6627642BFC0171836083F3
:201580000895292F30E0220F331F87FF03C02F77216001C02E77FB0120838F77FA0180834A
:2015A00008954F925F926F927F928F929F92AF92BF92CF92DF92EF92FF920F931F93CF932C
:2015C000DF93CDB7DEB7A1970FB6F894DEBF0FBECDBF882329F0813031F41091A30F0DC047
:2015E00010913A0F07C0882321F0813049F410E004C010E080903B0F0CC08090A40F0CC037
:20160000882329F0813059F410E0812C05C010E0812CF0903C0F0FC0F090A50F23C08823AD
:2016200039F0813009F06DC110E0812CF12C1AC010E0812CF12C4090390F103B09F412C128
:2016400038F4103809F4E7C0103909F05AC10AC1183F09F4F4C01A3F09F4E7C0103C09F000
:2016600050C1CEC04090A20F103C09F4C9C050F4103909F4F7C0103B09F4F4C0103809F0FA
:2016800040C1C9C0183F09F4DAC01A3F09F4CDC0103F09F036C181E00E94002120917F0B51
:2016A0003091800B232B79F02091810B222359F08830910540F02091A60F203F21F4BC0147
:2016C00086EA9FE013D28091C30B882309F419C15E0181E1A80EB11C8FE0F50111928A956A
:2016E000E9F780EF898B8FE78E8B82E08F8B81E0888F97EF9F8F9091EC0A9A8B9091ED0AFC
:201700009B8B9091EE0A9C8B90E1E1E4F7E0DE01119601900D929A95E1F7E091920BF0910A
:20172000930B07A580937E0B10E08091920B9091930BFC0125A5121708F046C0612F0E9446
:20174000D61D812F90E0988B8F8740E068E070E0CE0101967BD189E6882E83E0982EE12C78
:20176000F12CE98EC12CD12CF401808190E0C816D906F0F4F4E0EF16F10421F482E0C816C1
:20178000D10490F0CA8E80917F0B9091800B892B59F08091810B882339F08989803F21F401
:2017A0006FE070E0C501A2D1EFEFCE1ADE0ADCCFFFEFEF1AFF0A83E0880E911CE7E0EE1687
:2017C000F10479F61F5FB1CF602F0E94D61D602F70E0788B6F8740E068E070E0CE0101968D
:2017E00035D18BE190E099A388A341E061E070E0CE0180962BD110927E0B1092C30B81C031
:20180000FFE0F41500F187FC1EC0E42DF0E0E051F74F808218C0E12C042D20E0482D60E861
:2018200084E49EE00E94902B6CC0E1E1FFE08CE19FE021E0119226878E179F07D9F781E0DF
:201840000E947F205EC0E12C042D2F2D482D60EC84E49EE00E94902B682D88E990E10E9472
:20186000D61D4FC0E12C042D2F2D482D612F84E49EE00E94902B103B09F043C002EF1BE051
:20188000C12CD12C512C612C712C912CA12CB12CEF2CF12CA60167E088E990E10E94413233
:2018A000672B682B692B21F1A60162E088E990E10E9441326330710581059105C9F4A601F4
:2018C00064E088E990E10E944132641575058605970571F4A60163E088E990E10E9441326D
:2018E000681579058A059B0519F4F801F386E286FFEFCF1ADF0A0E5F1F4F8FE0C816D1041A
:2019000049F6A1960FB6F894DEBF0FBECDBFDF91CF911F910F91FF90EF90DF90CF90BF90BF
:20192000AF909F908F907F906F905F904F9008959091850B8091860BE0917F0BF091800B47
:2019400023E0929FE00DF11D11240180F281E02D97E0899FE00DF11D112482819381448177
:2019600055818417950761F020918A0B30918B0B2817390738F081E04217530720F402C0DB
:2019800081E0089580E00895982F8F7C803849F0903D39F081E0903E31F0903C21F080E006
:2019A000089581E00895089587FF0CC09CE0980F923040F0982F9B7F993F21F0803F18F4F3
:2019C000807F089580E00895CF93DF931F921F92CDB7DEB72091F30A2230C1F4AE014F5F0D
:2019E0005F4FBE016E5F7F4FCCDD80917B0B90917C0BFC01E451F54F2A8121870296909373
:201A00007C0B80937B0B898182871AC0803F910541F0873F910529F08038910510F08FE7FA
:201A200090E020917B0B30917C0BA9014F5F5F4F50937C0B40937B0BF901E451F54F818773
:201A400081E00F900F90DF91CF91089520EF2093F50A22E030E030937C0B20937B0BE091B3
:201A6000F10AF091F20A20812093F60A23E030E030937C0B20937B0B21812093F70A24E0AA
:201A800030E030937C0B20937B0B22812093F80A442321F021E02093F90A02C01092F90AC5
:201AA00026E030E030937C0B20937B0B1092FA0AFC0120E030E026173707A9F080917B0B2F
:201AC00090917C0BAC014F5F5F4F50937C0B40937B0B40813296DC01A451B54F19964C93A5
:201AE0002F5F3F4FE8CF81E00C9416212F923F924F925F926F927F928F929F92AF92BF9281
:201B0000CF92DF92EF92FF920F931F93CF93DF93CDB7DEB72A970FB6F894DEBF0FBECDBF98
:201B20009B0121503109FC01E20FF31F4081473F09F0BCC36638710508F0B8C341E0409324
:201B4000820B43E04093830B42E04093840B1092850B1092860B1092870B1092890B10927F
:201B6000880B10928B0B10928A0BFC01A5EFBAE08C01060F171FE017F10719F041914D93B6
:201B8000FACF30937C0B20937B0BE091F10AF091F20A5091F60A4081541388C35091F70ADA
:201BA0004181541383C35091F80A428154137EC36B017C018091F90A882311F082E0E3C0BA
:201BC00048E0C416D10409F4D0C05BE0C516D10410F48BE0DCC080917D0B811102C083E05B
:201BE000D6C0D70115968C9115978093870B16969C9116979093830B17962C91179720935C
:201C0000840B18964C9118974093850B19963C913093860B933010F084E0B9C05091810BBB
:201C2000451710F086E0B3C0E0917F0BF091800BB3E04B9FE00DF11D11244081341710F0AF
:201C400087E0A5C0223010F085E0A1C042E8480F423020F49D7F09F099C0B6C0213071F4FF
:201C6000A181B281E7E03E9FA00DB11D11241696EC9116978E1708F089C010C0811186C057
:201C80008091F30A90E0880F991F0B96C816D90609F09FCF81E08093F90A35C0992311F089
:201CA000923031F48091F30A90E0880F991F21C04D915C916091F40A70E06417750790F40A
:201CC00090E0DC011196F0E0AE17BF0751F4689FF001699FF00D789FF00D11244E1B5F0B57
:201CE00001C0AB013091F30A349FC001359F900D11240B96C816D90609F06BCF81E080937A
:201D0000F90A211164C08091F30A823051F4D7011B964C911B971A966C9188E89BE022DCB7
:201D200007C0F701828590E09093890B8093880B8091830B813009F04AC08091F30A8230FD
:201D400051F4D7011D964C911D971C966C918AE89BE008DC3CC0F701E80FF11D828590E032
:201D600090938B0B80938A0B32C08091FB0A823009F4E7C108F021C2811114C280917D0BC7
:201D8000811103C283E08093F90A1AC088E08093F90A81E08093820B83E08093830B82E0B4
:201DA0008093840B1092850B1092860B1092870B1092890B1092880B10928B0B10928A0B0E
:201DC00080E00E94162172C221116CCF59CF40907B0B9091830B892F8D7F09F0AEC120911F
:201DE000870B82E8820F8230F0F43091850B8091860BE0917F0BF091800BB3E03B9FE00D6C
:201E0000F11D11240180F281E02D37E0839FE00DF11D1124868141E04E832E3709F01E821E
:201E200051E0588703C018861E8281E0923061F41092F90A91E09093FB0A1092830B4090DB
:201E4000F30A440C40944C0CA12CB12CEE24E394F12C812C912C282E312C512CA214B304B2
:201E60000CF015C150927C0B40927B0B8885882321F0A092870BA092FA0A8091840B8130BB
:201E800039F5E090F40A8091870BF12C8E9D40018F9D900C11249091850B8091860BE091B9
:201EA0007F0BF091800BA3E09A9FE00DF11D11240180F281E02DB7E08B9FE00DF11D1124AE
:201EC00080819181E80CF91C8E159F0508F47C016401EAE0EF83CE14DF0408F0D1C0909116
:201EE000830B8091840B911151C0811130C02091880B3091890B6091850B4091860BE09192
:201F00007F0BF091800B53E0659FE00DF11D11240180F281E02D87E0489FE00DF11D112445
:201F2000808191812817390710F089E030CF1A8219828091EF0A9091F00ADC01ED91FC9163
:201F40000190F081E02D8E010F5F1F4F14C01A8219828091EF0A9091F00ADC01ED91FC91EF
:201F60000190F081E02D8E010F5F1F4F96014091860B6091850B1995813031F008F074C0C1
:201F800089819A8121DD76C08EE001CF811139C06090880B7090890BB091850BB987E09186
:201FA000860BEA87E0917F0BF091800B23E0B29FE00DF11D11240180F281E02D4A8537E0AD
:201FC000439FE00DF11D1124808191816816790608F0ABCFADDC811102C08AE0D8CE80916F
:201FE000EF0A9091F00A00918A0B10918B0BDC01ED91FC910280F381E02D93014A85698534
:2020000030C0EC2DE8198091F30A823059F4BF81EB2FF0E0E451F54F428561858AE89BE06C
:20202000A1DA09C0F0E0E451F54F838990E090938B0B80938A0B7CDC882379F28091EF0ABE
:202040009091F00A00918A0B10918B0BDC01ED91FC910280F381E02D96014091860B609133
:20206000850B1995813021F0823021F48DE08FCE8CE08DCEBFEFCB1ADB0AEF81EE5F2ACFDA
:2020800080E00E941621FFEFAF1ABF0AE7CE2E81222309F40BC180EF8093F50A82E090E0C2
:2020A00090937C0B80937B0BE091F10AF091F20A80818093F60A83E090E090937C0B809350
:2020C0007B0B81818093F70A84E090E090937C0B80937B0B82818093F80A81E08093F90ABE
:2020E0008EE78093FA0A8091830B8093FB0A8091840B8093FC0A8091850B8093FD0A809118
:20210000860B8093FE0A1092FF0A8CE090E090937C0B80937B0B1092000B8091F30A8230DC
:2021200009F04ECE1092010B8EE090E090937C0B80937B0B1092020B43CE18861E8281E05C
:2021400083CE80917D0B882309F41CCE81E08093F90A4091F30A423041F4D0927C0BC092DC
:202160007B0BF901E451F54F118680917B0B90917C0B9C012F5F3F4F30937C0B20937B0B54
:20218000FC01E451F54F41871BCE10927D0B81E08093F90A80917E0B882309F411CE1092B4
:2021A0007E0B0ECE8130C9F591E090937D0B843011F490937E0B81E0E6CD8430A9F340F531
:2021C00080917D0B882309F4DDCD81E08093F90A8091F30A823051F488E090E090937C0B16
:2021E00080937B0BF901E451F54F118680917B0B90917C0B9C012F5F3F4F30937C0B209347
:202200007B0BFC01E451F54F2091F40A2187D8CD853019F410927E0BCECF60918E0B7091B1
:202220008F0B40918C0B50918D0B20E030E090E062177307C9F1FA014D5F5F4FA081B1814E
:20224000A817B90771F580917D0B811103C08281811198CD81E08093F90A8091F30A898320
:2022600085EF9AE09B838A838BE79BE09D838C838091EF0A9091F00A60817181DC01ED91D6
:20228000FC910480F581E02DAE014F5F5F4F1995813029F0823009F093CD8DE074CD8EE000
:2022A00072CD2F5F3F4FC4CF84E06DCD2A960FB6F894DEBF0FBECDBFDF91CF911F910F916B
:2022C000FF90EF90DF90CF90BF90AF909F908F907F906F905F904F903F902F900895DF92CE
:2022E000EF92FF920F931F93CF93DF931F92CDB7DEB781116BC1E0911B10F0911C1030970C
:2023000009F43DC21982CE0101961995082F882309F435C21981809116109091171000978C
:2023200009F0A4C010931110F0900E108F2D3CDB2BDB882361F017FD0AC0F09211101093E5
:20234000121081E090E0909317108093161010911110812F29DB813F09F44AC020F5803BFA
:2023600009F449C050F4803909F445C0803A09F442C0803809F0CAC03EC0803DC9F118F4E3
:20238000803CB1F1C3C0803EB1F1803F09F0BEC024E630E0309315102093141010920E102D
:2023A00080933D0F2EC0883F79F030F4833F01F110F1863F49F0AAC08A3F08F4A7C08D3F67
:2023C00018F08E3F08F4A2C080933A0F1092390F10923B0F10923C0F81E08093A10F1092E5
:2023E0001710109216101092151010921410C8C122E030E002C023E030E030931510209356
:20240000141020911610309117104091141050911510BA01615071092617370700F1809379
:202420003A0F1F701F5F80910D10181B1093390F8091121080933B0F4330510529F4809173
:20244000131080933C0F02C010923C0F109217101092161010921510109214101CC02F5FC4
:202460003F4F3093171020931610A7C017FF36C01D3F38F41A3F38F4173F89F0183F71F5FF
:2024800002C01E3F58F110933A0F10923B0F10923C0F1092390F81E08093A10F71C14091FE
:2024A0003D0F403F99F59C012F5F3F4FFC01E75CF04F148340933A0F20933B0F30933C0FCD
:2024C0001092390F81E08093A10F1092171010921610109215101092141067C020911110D7
:2024E000FC01E75CF04F203FE1F41483E0901410F09015109701215031098217930708F4E7
:2025000057C0D090111080EFD8120FC01092171010921610109215101092141010920E101D
:202520002EC1E852FF4F1083E1CF8D2D3DDA182F80933A0F29DA882349F08D2D8F708F5FDF
:2025400090910D10891B8093390F02C01092390F8091121080933B0F83E0E816F10429F48F
:202560008091131080933C0F02C010923C0F1092171010921610109215101092141081E09B
:202580008093A10F103B71F038F4103959F0103A49F0103851F406C0103D21F0103E11F08B
:2025A000103C19F4D0920E10EBC010920E10E8C00196909317108093161080910C1088233D
:2025C00009F4DDC080E08BDE082FDAC0813009F0D6C0E0911F10F091201083E290E11995B2
:2025E000082F882309F4CBC0809123108295807F803909F45FC030F58035A9F138F48032F0
:2026000009F446C0803409F469C0B9C0803709F48CC0803809F44EC0803609F0B0C0809171
:202620001810909119109C01275C304FF901E359FF4F4091241040833196409125104083AD
:2026400002966EC0803C21F130F4803A99F1803B09F095C02FC0803F31F0823F59F1803EDD
:2026600009F08DC027C020912410273F39F02093A30F1092A20F1092A40F19C0809118109A
:2026800090911910FC01EA55F04F2083019648C0809124108093A30F8F708F5F90910D10FE
:2026A000891B8093A20F809125108093A40F1092A50F61C08093A30F809124108F708F5F38
:2026C00090910D10891B8093A20F809125108093A40F809126108093A50F4DC04091241028
:2026E000403F21F410921910109218102091181030911910C901875C904FFC01E359FF4FDB
:202700004083319640912510408331964091261040832D5F3F4F30931910209318102FC005
:20272000909319108093181021C040912410403F21F4109219101092181020911810309169
:202740001910C901875C904FFC01E359FF4F40833196409125104083319640912610408359
:202760002D5F3F4F309319102093181080EF8093A30F1092A20F81E080930A1001C000E0C2
:20278000802F0F90DF91CF911F910F91FF90EF90DF9008959FB7F894882369F08130A9F47D
:2027A0001092C8001092C9001092CA001092CD001092CC000AC01092C0001092C1001092CA
:2027C000C2001092C5001092C4009FBF81E00895882319F0813039F008958091C10080622F
:2027E0008093C10008958091C90080628093C9000895FFCF0F931F93CF93DF937FB7F8947B
:20280000EC01C859DF4F48815981DC01AA59BF4F2D913C9111977FBF42175307E8F44FB7E5
:20282000F8948C010C591F4FF80120813181FC01E20FF31F6083C90101966D917C910E946F
:202840000645F80191838083888199810196998388834FBF81E001C080E0DF91CF911F912C
:202860000F910895EF92FF920F931F93CF93DF93282F30E0A9014251574F7A01FA01908110
:20288000992301F19FB7F8944AE6429FF001439FF00D1124EC5FFD4E408151819FBF452B9B
:2028A00089F4F7011082811105C08FB7F8946093C60006C08130D9F48FB7F8946093CE0058
:2028C0008FBF15C0D62FC82F8AE6829F8001839F100D112404561E4E6D2FC8018BDF882313
:2028E000D9F3C23020F4F70110828C2F71DF81E0DF91CF911F910F91FF90EF900895CF93E3
:20290000282F30E0F901E451F74F908191110AC04AE6429FC001439F900D112488539F4E10
:20292000CF9168CFC82F4AE6429FC001439F900D112484569E4E5EDF882319F08C2FCF91B1
:2029400047CFCF910895CF93DF939C01EB014FB7F894FC01E859FF4F808191814FBF892B14
:2029600001F14FB7F894D901AA59BF4F6D917C91119712978D919C91860F971FA081B181A3
:202980008A1B9B0B0E940645D901A80FB91F8C918883808191810197918380834FBF81E03D
:2029A00001C080E0DF91CF9108952FB7F894FC01EC59FF4F118210823496118210822FBF85
:2029C0000895823008F44ECF80E00895EF92FF921F93CF93DF93823010F010E020C0C82F81
:2029E000D9DE182F8823C9F3D0E0FE01E451F74F10828AE68C9F70018D9FF00C1124C70185
:202A000088539F4ED2DFC70184569E4ECEDFFE01E251F74F81E08083CA51D74F1882812F9B
:202A2000DF91CF911F91FF90EF900895CF92DF92EF92FF920F931F93CF93DF93C82FD0E0B8
:202A4000CA51D74F988191115FC06A017B01182FBDDF882309F458C0123008F055C0812FD2
:202A600099DE082F882309F44FC0D701C601B695A79597958795BC01CD0160587B47814EAF
:202A80009F4FA70196010E94354520FF11C0213080E13807410551055CF42150310982E013
:202AA000113019F08093C00010C08093C8001FC0DA01C901B595A79597958795113091F03A
:202AC0001092C0009C01215031093093C5002093C400113081F086E08093C20088ED8093D8
:202AE000C1000FC01092C8009C01215031093093CD002093CC0086E08093CA0088ED8093BA
:202B0000C90081E0888301C000E0802FDF91CF911F910F91FF90EF90DF90CF9008951F92E6
:202B20000F920FB60F9211248F9381E08093EF088F910F900FBE0F901F9018951F920F92F3
:202B40000FB60F9211248F9381E08093EE088F910F900FBE0F901F9018951F920F920FB6B0
:202B60000F9211240BB60F922F933F934F935F936F937F938F939F93AF93BF93EF93FF93A5
:202B8000CF93DF931F92CDB7DEB7BE016F5F7F4F86E092E1D8DE811106C08091C9008F7D6F
:202BA0008093C90003C089818093CE000F90DF91CF91FF91EF91BF91AF919F918F917F911C
:202BC0006F915F914F913F912F910F900BBE0F900FBE0F901F9018951F920F920FB60F920E
:202BE00011240BB60F922F933F934F935F936F937F938F939F93AF93BF93EF93FF93CF9364
:202C0000DF931F92CDB7DEB7BE016F5F7F4F8CE991E199DE811106C08091C1008F7D809376
:202C2000C10003C089818093C6000F90DF91CF91FF91EF91BF91AF919F918F917F916F91BE
:202C40005F914F913F912F910F900BBE0F900FBE0F901F9018951F920F920FB60F92112458
:202C60000BB60F922F933F934F935F936F937F938F939F93AF93BF93EF93FF936091CE00BB
:202C800081E03DDEFF91EF91BF91AF919F918F917F916F915F914F913F912F910F900BBEF0
:202CA0000F900FBE0F901F9018951F920F920FB60F9211240BB60F922F933F934F935F93F6
:202CC0006F937F938F939F93AF93BF93EF93FF936091C60080E013DEFF91EF91BF91AF913C
:202CE0009F918F917F916F915F914F913F912F910F900BBE0F900FBE0F901F9018951F9393
:202D0000CF93DF93182FEB01642F5BDE882301F16881812F56DE8823D9F06981812F51DE39
:202D20008823B1F06A81812F4CDE882389F06B81812F47DE882361F06881898168278A8114
:202D400068278B816827812FDF91CF911F9139CE80E0DF91CF911F910895883028F08850ED
:202D600090917B00986003C090917B00977F90937B0090917C00907F8F70892B80937C00BE
:202D800008951F920F920FB60F9211240BB60F928F929F92AF92BF92CF92DF92EF92FF927F
:202DA0000F931F932F933F934F935F936F937F938F939F93AF93BF93CF93DF93EF93FF9373
:202DC00090917E0381E0892780937E03882309F449C08091E8089091E908A091EA08B09184
:202DE000EB080196A11DB11D8093E8089093E908A093EA08B093EB088091B408882391F151
:202E0000A9ECB6E0C5EBD8E069E277E041E050E0CD90DD90ED90FD90F601C092D108D092D4
:202E2000D208E092D308F092D40889912091D308882341F03081CA0101C0880F2A95EAF717
:202E4000832B0AC090818A0102C0000F111F2A95E2F7802F8095892380836A177B07C1F698
:202E60001092B4088091B208853008F077C08091D9088F5F8093D908853011F41092D90834
:202E800040E060E070E0812C912C54018394542F80E090E05E3159F46F5F7F4F485F4032C8
:202EA000B1F78091B2088F5F8093B20857C014E0519FF0011124EF5AF94FC080D180E2803F
:202EC000F380F601C092D508D092D608E092D708F092D8083297208130E00090D70802C0BB
:202EE000359527950A94E2F720FD18C02091D908FB0134E0239FE00DF11D1124E256F74FCE
:202F0000208175016401082E04C0CC0CDD1CEE1CFF1C0A94D2F7C22AC08219C02091D90845
:202F2000FB0104E0209FE00DF11D1124E256F74F308175016401082E04C0CC0CDD1CEE1CE3
:202F4000FF1C0A94D2F7C0942C2D2323208301965F5F8830910509F09DCF9ECFFF91EF91D4
:202F6000DF91CF91BF91AF919F918F917F916F915F914F913F912F911F910F91FF90EF90D3
:202F8000DF90CF90BF90AF909F908F900F900BBE0F900FBE0F901F9018951F920F920FB6A1
:202FA0000F9211240BB60F92EF92FF920F931F932F933F934F935F936F937F938F939F93A3
:202FC000AF93BF93CF93DF93EF93FF9320917800309179009091D00881E089278093D0081D
:202FE000811183C0E9E2F7E061E477E001E010E04081918182813496A42FB92FED014A91C9
:20300000780102C0EE0CFF1C8A95E2F7C701942F982B98839C91809589238C936E177F07E7
:2030200039F78091CF08E82FF0E0EE0FFF1FE050F74F318320832081318130683183208367
:203040008F5F8093CF088091CE088F5F803119F08093CE082EC01092CE088091CD088F5FE6
:20306000863019F08093CD0804C01092CD081092CF08E091CD0884E0E89FF0011124E75D5A
:20308000F84FA081B18182812C9191B3291781F02C9190910801291307C090E00896092EB2
:2030A000000CAA0BBB0B04C08FEF90E0A0E0B0E054DE8091CE0880FF02C0119A01C0119858
:2030C0008091CE0881FF02C0139A01C013988091CE0882FF02C0159A01C015988091CE0880
:2030E00083FF02C0179A01C01798E091CD0884E0E89FF0011124E75DF84F90818181A92F9E
:20310000B82F2E9181E090E0028002C0880F991F0A94E2F7809582238C9380917A008064E6
:2031200080937A00FF91EF91DF91CF91BF91AF919F918F917F916F915F914F913F912F91D2
:203140001F910F91FF90EF900F900BBE0F900FBE0F901F901895F89484B7877F84BF809121
:203160006000806180936000109260008FE19EE40197F1F700C000001FBA10BE1CBC1DBA11
:203180001092680010927A0010926E0010926F00109270001092710010927200109273009A
:2031A0001092C0001092C8001092D000109230011092C1001092C9001092D10010923101E9
:2031C0001092C2001092CA001092D200109232011092BC0012B815B818B81BB81EB811BA9D
:2031E00014BA10920201109205011092080110920B0111B814B817B81AB81DB810BA13BAB9
:2032000010920101109204011092070110920A0198E088E10FB6F894A895809360000FBE5D
:2032200090936000FFCFCF93DF9300D01F92CDB7DEB7882341F0813039F567E48FEF9FE0CC
:203240000E94E84421C06FEF8FEF9FE00E94E84481E089831A821B821C8242EFBE016F5F94
:203260007F4F80E04CDD8091EE088823E1F380E090E001968333910539F0EFE9FFE0319716
:20328000F1F700C00000F5CF66DF7F928F929F92AF92BF92CF92DF92EF92FF920F931F9350
:2032A000CF93DF931F92CDB7DEB7782E8B017A0186E0C82ED12C2AE6729EC0011124FC0157
:2032C000E853FF4E5F019FED892E98E0992E1982F1E0F715A0F1BE016F5F7F4FC50133DB4C
:2032E000882369F18981E091E508E630C0F020EE38E04AED58E0DA01F90191919F019D933F
:203300008A169B06C9F7AFEDB8E0FA019191AF019D938E169F06C9F78093E40808C091E03A
:203320009E0F9093E508F0E0E152F74F80838091E508863021F0F1E0CF1AD10841F68091E4
:20334000E508863009F03EC08091DF08982F9D7F913F11F0823FB1F5F70180838091E008CC
:203360003091E1082091E2089091E308F80180833183228393833827232792272091E40892
:20338000291320C01092E5081092DF081092E0081092E1081092E2081092E3081092E4083D
:2033A000F7019081923F61F4882321F0813051F480E039DF67E48FEF9FE00E94E844CBDEF5
:2033C00081E001C080E00F90DF91CF911F910F91FF90EF90DF90CF90BF90AF909F908F90F4
:2033E0007F900895EF92FF920F931F93CF93DF93CDB7DEB728970FB6F894DEBF0FBECDBFC8
:2034000088E0E1E5F7E0DE01119601900D928A95E1F78E010F5F1F4F7E0189E0E80EF11CA4
:20342000F80161918F0181E0CCDA0E151F05C1F78091EF088823E1F328960FB6F894DEBFD8
:203440000FBECDBFDF91CF911F910F91FF90EF900895682F81E006CA682F81E003CA41EF8B
:20346000BC0181E04CCC41EFBC0180E048CC41EFBC0180E044CC0F931F93CF93DF931F927F
:20348000CDB7DEB78C01AE014F5F5F4FBC0181E0FCDE882341F04981423F21F0B80181E031
:2034A0002EDC01C080E00F90DF91CF911F910F9108950F931F93CF93DF9300D01F921F922B
:2034C000CDB7DEB78C01AE014B5F5F4FBE016F5F7F4F81E0DADE882349F08D81813F31F4F4
:2034E00041EFBE016F5F7F4F80E009DCAE014B5F5F4FB80180E0C9DE882349F08D81813F83
:2035000029F443EFB80181E0FADB01C080E00F900F900F900F900F90DF91CF911F910F9111
:203520000895CF93DF931F92CDB7DEB7AE014F5F5F4FBC0180E0A9DE882329F081E0998162
:20354000913F09F080E00F90DF91CF910895FC011082BC0182E391E1F6C90F931F93CF939E
:20356000DF931F921F92CDB7DEB7FC018081813019F08230D1F055C0A381B4818D919C917A
:2035800011979C01215031092638310508F049C00180F281E02D2E5F3F4F2D933C93E80F04
:2035A000F91F6F77772760833CC0A381B4818D919C91029786389105A0F5CB018F01AE015F
:2035C0004F5F5F4FBE016E5F7F4F9F730E94C10AD80111964D915C9112971396ED91FC910E
:2035E0001497808191819C012F5F3F4F318320832A81FA01E80FF91F208311964D915C9133
:2036000012971396ED91FC911497808191819C012F5F3F4F318320832981FA01E80FF91FCB
:2036200020830F900F90DF91CF911F910F910895CF93DF93EC0165E170E0888199818DDF06
:2036400066E770E08881998188DF66E270E08881998183DF68E270E088819981DF91CF9199
:203660007CCFCF93DF93EC0165E070E08881998174DF60E070E0888199816FDF66E070E09C
:2036800088819981DF91CF9168CF8A559F4F20E030E041E060E0FC01808191810E94ED2EF5
:2036A000CB010895262F30E08A559F4F40E060E0FC01808191810E94ED2E21E0672B682B1C
:2036C000692B09F420E0822F0895CF93DF93EC0162307105D9F114F56115710509F478C04E
:2036E0006130710509F0A2C042E15AE760E070E081E09CD9C855DF4FE881F981EE51FF4FE3
:2037000011821082E881F981EC51FF4F8CE29AE19183808381E08093ED0888C0633071055C
:2037200081F16430710509F081C040E056E960E070E081E07BD9C855DF4FE881F981EE51C2
:20374000FF4F87EA9AE1918380833BC01092ED0840E056E960E070E081E068D9CE0142DE06
:20376000C855DF4FE881F981EA51FF4F89E59AE191838083E881F981E851FF4F83E39AE147
:2037800018C01092ED0840E056E960E070E081E04DD9C855DF4FE881F981EA51FF4F8BE31F
:2037A0009AE191838083E881F981E851FF4F8FE29AE191838083E881F981EE51FF4F118207
:2037C0001082E881F981EC51FF4F118210822EC040E056E960E070E080E028D9C855DF4F3B
:2037E000E881F981EA51FF4F81E99AE191838083E881F981E851FF4F87E39AE191838083FB
:2038000042E15AE760E070E081E010D9E881F981EE51FF4F87EA9AE191838083E881F98114
:20382000EC51FF4F8CE29AE191838083DF91CF910895EF92FF920F931F93CF93DF9300D086
:203840001F92CDB7DEB77C018A015A8349835C834B836135710509F47DC030F563347105C8
:2038600009F445C048F46B31710509F494C06234710509F43FC099C06D34710509F449C029
:203880006035710509F458C06434710509F08DC0DC011296ED91FC911397EA55FF4F8081EC
:2038A00091810E94543283C06436710509F46AC058F46535710511F16635710509F075C0B7
:2038C000CE010196CEDE73C06D36710509F447C06F37710599F06536710509F066C0DC01D4
:2038E0001296ED91FC911397E654FF4F5BC0CE010196B7DECE0103969BDE59C065357105C3
:2039000031F467E48FEF9FE00E94E84424DC80E08ADC6EEB70E0CA0120DE6FE070E0C801CC
:203920001CDE60E670E0C80118DE68E570E0C80114DE60E470E010C0DC011296ED91FC91EC
:203940001397EA55FF4F0190F081E02D65A576A5772702C061E070E0C801FFDD28C0FC0181
:203960008281938192DE039711F5D70112968D919C91139737DD63E070E0F70182819381F5
:20398000A4DE15C0DC011296ED91FC911397E654FF4F10820CC0DC011296ED91FC91139776
:2039A000E952FF4F81E0808302C081E001C080E00F900F900F900F90DF91CF911F910F913A
:2039C000FF90EF9008952FB7F8946091E8087091E9088091EA089091EB082FBF08951F93A3
:2039E000CF93DF93E2E4F5E020E030E0C081D0E040E050E060E070E06C177D079CF4A181BE
:203A0000B281A40FB51F12961C9112970D90BC91A02DA10FB11D2A0F3B1F6F5F7F4F455FE6
:203A20005F4FEACF379645E0EA37F407F9F6FC0185A596A5820F931FF1E08F27F7E19F2758
:203A4000DF91CF911F910895CF92DF92EF92FF920F931F93CF93DF93EC0140E050E0BA0145
:203A60000E94072D48E062E475E0CE010E94F30721E030E041E060E0CE010E94ED2E6B01D8
:203A80007C0147E069E475E0CE010E94F307AFA529A53AA54BA55CA5B0E00E9466450DA1F8
:203AA0001EA12FA138A5AB01BC01400F511F621F731FCE010E94072D81E0CD28CE28CF2877
:203AC00009F480E0DF91CF911F910F91FF90EF90DF90CF900895CF92DF92EF92FF920F936A
:203AE0001F93CF93DF93EC01E62E40E050E0BA010E94072D48E062E475E0CE010E94F30730
:203B0000F12C00E010E021E030E041E060E0CE010E94B52D182F47E069E475E0CE010E9472
:203B2000F307AFA529A53AA54BA55CA5B0E00E946645CDA0DEA0EFA0F8A4AB01BC014C0DE4
:203B40005D1D6E1D7F1DCE010E94072D812FDF91CF911F910F91FF90EF90DF90CF900895D6
:203B60000F931F93462F50E0FC0125A536A542175307C0F467A721A532A543A554A5A62FE2
:203B8000B0E00E94664505A116A127A130A5AB01BC01400F511F621F731FCF010E94072D6D
:203BA00081E001C080E01F910F9108958F929F92AF92BF92DF92EF92FF920F931F93CF9379
:203BC000DF93462F50E0DC019D962D913C919E974217530710F080E042C0D62EEC016FA7E2
:203BE00040E050E0BA010E94072D48E062E475E0CE010E94F307ED2CF12C00E010E020E0B0
:203C000030E041E060E0CE010E94B52D182F47E069E475E0CE010E94F307AFA529A53AA564
:203C20004BA55CA5B0E00E9466458DA09EA0AFA0B8A4AB01BC01480D591D6A1D7B1DCE017E
:203C40000E94072D112339F28AA19BA1DC01ED91FC910190F081E02D6D2D199581E0DF91B8
:203C6000CF911F910F91FF90EF90DF90BF90AF909F908F900895CF92DF92EF92FF920F9318
:203C80001F93CF93DF93E62E282F269526952695022F10E00253134FF8019685D82FF8E037
:203CA0002F9FD0191124292F30E00D2E02C0359527950A94E2F72170621709F417C241E0B5
:203CC00050E060E070E00D2E04C0440F551F661F771F0A94D2F7EE2021F0492BF801468783
:203CE00004C040959423F8019687C82ED12C960141E061E08091D20C9091D30C0E94ED2EC6
:203D0000C62F603109F4E3C1960140E061E08091D20C9091D30C0E94ED2EC63099F038F42D
:203D2000C13070F0C330D8F1C43050F038C0C13109F4BDC118F4C03118F431C0C63178F183
:203D4000613069F5EE2009F4C2C1F80126A1822F90E00D2E02C0959587950A94E2F780FFCC
:203D600010C081E090E0A0E0B0E004C0880F991FAA1FBB1FDA95D2F78095822386A3E12CB4
:203D80000EC081E090E0A0E0B0E004C0880F991FAA1FBB1FDA95D2F7822BF80186A3960120
:203DA00042E061E08091D20C9091D30C0E94ED2EF62E960144E061E08091D20C9091D30CE5
:203DC0000E94ED2ED62F960143E061E08091D20C9091D30C0E94ED2E162FC63151F4960162
:203DE00041E061E08091D20C9091D30C0E94ED2EC62FF0920E0DEE2009F42BC1C93009F436
:203E000089C0F8F4C43009F475C070F4C13009F45FC08091D40C9091D50CC23008F4ABC08A
:203E20002D2F412F6F2D0EC1C63009F481C008F45FC0C73009F460C0C83009F048C168EF97
:203E400070C0C03178F4CE30E0F4CB3009F466C008F462C0CC3009F463C0CD3009F037C1BD
:203E60006FEF5FC0C33109F490C020F4C23109F462C02DC1C43109F4B1C0C53109F4C8C092
:203E800026C1C13029F1CE3061F4D03108F01FC1ED2FF0E0E051F74F80818F3780F48F5F78
:203EA0000BC0D03108F013C1ED2FF0E0E051F74F8081882321F08150808381E001C080E0F4
:203EC000ED2FF0E0E051F74FF080882309F4FFC00D2F20E04F2D60EC8091D40C9091D50CB1
:203EE0000E94170AEE24E39420E04F2D60ECD6C082E003C081E001C089E08093100D4CE00C
:203F00005DE066E070E08091D40C9091D50C0E94172FDDC06AEF05C06BEF03C06CEF01C0FF
:203F20006EEF8091D40C9091D50C0E94DB09CFC0C093100DE4CFFEEBCF16D10408F0C7C0D7
:203F4000F601EC53F64F8081982F9F771F77190F17FF03C020E01FE701C021E0807821117F
:203F6000812B8083911709F4B2C08091D40C9091D50C112319F10D2F212F4F2D60E90E9457
:203F8000170AEE24E394212F26C03EEBC316D10430F4F601EC53F64F00810F7701C00FEF05
:203FA000612FC6010E94B22FC82F801709F48FC08091D40C9091D50CC11104C02D2F40E048
:203FC0006F2D54C00D2F2C2F4F2D60E90E94170AEE24E3942C2F4F2D60E960C08EEBC816F2
:203FE000D10408F074C0F601EC53F64F8081982F9F771F77190F17FF03C020E01FE701C009
:2040000021E080782111812B8083911314C05FC0EEEBCE16D10430F4F601EC53F64FC081BD
:20402000CF7701C0CFEF612FC6010E94B22F182F8C1709F44CC02D2F412F6F2D8091D40C95
:204040009091D50C0E94980AEE24E3940D2F212F23C0C330A1F0C63041F1C11138C02D2F50
:2040600040E06F2D8091D40C9091D50C0E94A00AEE24E3940D2F20E04F2D60E80FC02D2F91
:2040800040E06F2D8091D40C9091D50C0E94980AEE24E3940D2F20E04F2D60EB8091D60CAE
:2040A0009091D70C0E94902B12C087E026CFEE2071F0960142E061E08091D20C9091D30C19
:2040C0000E94ED2E8091D20C9091D30C6FDDA60161E08091DA0C9091DB0CDF91CF911F9181
:2040E0000F91FF90EF90DF90CF9033C5DF91CF911F910F91FF90EF90DF90CF900895CF9252
:20410000DF92EF92FF920F931F93CF93DF932091F90E3091FA0E232B09F469C09091F80ED8
:20412000992321F0913009F460C061C04CDC00911C0F10911D0F20911E0F30911F0FDC0158
:20414000CB01801B910BA20BB30B84369105A105B10508F44CC037DC60931C0F70931D0FDD
:2041600080931E0F90931F0FC1E1DFE0E12CF12CCC24C39488818F5F8883E091F90EF091E1
:20418000FA0EEE0DFF1D9081891748F48FEFE81AF80A2196EBE0EE16F10461F728C08F85C2
:2041A0008C258F87188204E41EE0D12CF801848181FF14C0E45AFF4F208130E02E153F05A5
:2041C00069F49F85992311F0846001C08B7FF80184836D2D84E49EE00E94422A0F5F1F4F88
:2041E000D394F8E5DF12E2CFD1CF8111BDCFDF91CF911F910F91FF90EF90DF90CF90089582
:20420000882339F0813079F4809118109091191004C080913B0F90913C0F8536910528F035
:2042200084E690E0089580E090E0089520917B0B30917C0BA9014F5F5F4F50937C0B4093D8
:204240007B0BF901E451F54F97EF918790917E0B992351F0811108C08091F90A823088F484
:204260008091830B81110DC08091EF0A9091F00ADC01ED91FC910680F781E02D65EF7AE07A
:204280001994089580E0089580E00895660F771F860F971FFC01E15DFC4F11821082FC01DC
:2042A00010AA17A60895FC0140815181FB01208131814217530738F081E090E024173507E8
:2042C00020F080E008958FEF9FEF0895DA01603610F080E008952FB7F894FB01FF27EE0F29
:2042E000FF1FE050F74F8081918111969C938E93808191819F77918380832FBF8D919C91A7
:20430000119797FFE6CF9F778D939C9381E00895860F971FFC0113820895FC019281E60FC8
:20432000F71F8381880F492B482B4383941711F04F3F41F481E04F3F09F080E0F90180836B
:2043400081E0089580E0089508958BEA689F812D11248695883008F087E090E008954230B5
:2043600020F0423051F492E001C090E0862F880F860F980F892F90E0089580E090E0089519
:204380009B01DC011296ED91FC911397309719F0642FC90119940895633041F0643019F46B
:2043A00084E090E0089581E090E0089582E090E008956FEF7FE080E090E0089581E0089587
:2043C000DC011896ED91FC911997309709F019940895DC011696ED91FC911797309709F08B
:2043E00019940895DC011496ED91FC911597309709F019940895DC011296ED91FC911397F1
:20440000309711F0862F199408950F931F93CF93DF93FC01A081B181C281D38188819981A3
:20442000A80FB91FA15FBA4F1C92A081B181C281D38188819981C481D5812881A80FB91F56
:20444000A151BC4F2C9320813181A281B3810D90BC91A02DC681D78188819981AA0FBB1FEA
:20446000A20FB31FA15BBB4F8D939C93008111810280F381E02DC081D181A5DACC0FDD1F65
:20448000CC0FDD1FC00FD11FC159DA4F688379838A839B83DF91CF911F910F9108954F9293
:2044A0005F926F927F92BF92CF92DF92EF92FF920F931F93CF93DF93CDB7DEB72A970FB6FD
:2044C000F894DEBF0FBECDBFB0907D0BBB2009F447C06B01182F77DAE12FF0E08F01000F30
:2044E000111F000F111F0955144FD8014D905D906D907C90AB01BC014419550966097709CD
:20450000453F51406105710558F1CE0101967C0128E0DC011D922A95E9F729E430E03A8371
:204520002983FC83EB83AE01475F5F4FBE01665F7F4FC6010E94C10A8A8590E09E838D83A9
:20454000898590E098878F8341E064E070E0C7010E94260D38DAF80160837183828393835D
:204560008B2D2A960FB6F894DEBF0FBECDBFDF91CF911F910F91FF90EF90DF90CF90BF9031
:204580007F906F905F904F900895EF920F93EE24E39400E020E0482F60EC84E49EE00E94CB
:2045A000902B0F91EF900895CF93C0E06C2F84E49EE07CD7CF5FC835C9F7CF9108952F9205
:2045C0003F924F925F926F927F928F929F92AF92BF92CF92DF92EF92FF920F931F93CF93A8
:2045E000DF93CDB7DEB764970FB6F894DEBF0FBECDBF1C017B876A874B8B79011D870C8757
:20460000DC0196968C91813049F4C90186569E408239914018F4E8E0EE0EF11CFB89F330F2
:20462000B1F4D1019796ED91FC91989780899189E816F90638F481E090E0EC85FD85918378
:204640008083E0C1AC85BD851D921C9250C1BBD92A853B85F901EE0FFF1FEE0FFF1FE20DB3
:20466000F31DE159FA4F80809180A280B380DC01CB0188199909AA09BB09F10183A494A48D
:20468000A5A4B6A488169906AA06BB0608F04EC0F901EE0FFF1FD101AE0FBF1FA15DBC4F38
:2046A0008D919C911197AC014F5F5F4F4D935C93E20FF31FE80FF91FEE0FFF1FE20DF31D03
:2046C000E151FF4FF182E0824330510509F0A7C016E0129FC001139F900D112481519F4FB0
:2046E00023E531E242E050E063E070E0820D931D0E94FA428A859B85FC01EE0FFF1FE20D67
:20470000F31DE15DFC4F11821082189FF001199FF00D1124E20DF31DEF50FF4F80819181AA
:20472000AC85BD858D939C931C8A06C0EC85FD85F182E08201E00C8BAC85BD852D913C910D
:20474000EA84FB848701000F111F6101C00ED11EF60147A550A9ACE3B0E00E9457454B0101
:204760005C019A01A8E2B0E00E945745680D791D8A1D9B1D24E630E040E050E00E943545F9
:20478000B901CA0149015A01D601D0963C932E939F97EC85FD8531832083D1019796ED9125
:2047A000FC9198974B894550433028F444815581AFEFBFE304C042815381AFE7B0E0B98BA5
:2047C000A88B020D131DD801A15BBB4F0D911C911F870E872017310708F08BC0DD24D394E8
:2047E000D98681010E0D1F1DD801A151BC4FFC90FA8AFF20B1F0DF1411F046815781AE8515
:20480000BF852A1B3B0B37FF03C03195219531092417350730F4F801E15FFA4F108280E00B
:20482000F1C0288939896901E12CF12C40805180612C712CC414D504E604F70409F05CC05A
:20484000AE85BF85BD0180E090E0C414D504E604F70409F06EC0681579058A059B0509F46F
:2048600089C03A822982CE010A969C838B8301979E838D832C853D8538872F83FC88FF209C
:2048800009F47DC0CE010196C0DD0B89023009F0B4C0D1019796ED91FC9198972285338510
:2048A0006901E12CF12C40855185CA01A0E0B0E0EC85FD85608171816417750708F470C005
:2048C0002617370708F46FC09B0140E050E00097A105B10509F06AC0FFE7CF16D104E104AB
:2048E000F10409F063C0AC85BD852D933C9381E089C0A2E0DA2E74CFA7019601C414D5043E
:20490000E604F70468F42F5F3F4F4F4F5F4F0E941A45A30192012F5F3F4F4F4F5F4F04C08A
:204920000E941A45A30192010E94354549015A0187CFC414D504E604F70478F4A7019601E7
:204940002F5F3F4F4F4F5F4F0E941A45A30192012F5F3F4F4F4F5F4F08C028893989AE85E1
:20496000BF850E945745A30192010E943545CA01B90171CFFA88FF2009F473CF4CCFF801A9
:20498000E15FFA4F80818F5F808390E0D10199962D913C919A978217930708F440CF72CFF0
:2049A0009C01AD0194CFA701960191CFC81AD90AEA0AFB0A281B390B4A0B5B0B00E8C016EC
:2049C000D104E104F10480F0CA01B90127E0660F771F881F991F2A95D1F7A70196012F5F6E
:2049E0003F4F4F4F5F4F06C0AFE7B0E00E946645A70196010E94354576CFEC85FD859182FE
:204A0000808275CF64960FB6F894DEBF0FBECDBFDF91CF911F910F91FF90EF90DF90CF9013
:204A2000BF90AF909F908F907F906F905F904F903F902F900895CF93C62F462F469550E0BC
:204A400060E088E990E10E944132672B682B692B29F4CE3118F48C2FCF91FDC480E0CF91A2
:204A60000895CF93DF93C62FCC0FCE3118F48C2FF2D401C080E0D82FDD0F81E08C0F8E319A
:204A800010F4E9D401C080E08D2BDF91CF910895FB01108282E391E10C94A31481E00C9452
:204AA000321481E00C94E61440E052EC61E070E081E00C941615CF93DF93C0E0D0E060E036
:204AC000CE010E94CA442196CF3F8FE0D807B9F781E0DF91CF910895EF920F931F93DB0115
:204AE000CA01A801EE2DE33031F0E43041F4B9010E94DC4407C0B8010E94E44403C0602F92
:204B00000E94CA4481E01F910F91EF9008950F93CF93DF93DB01CA01E901033049F0043071
:204B200051F40E94C044688379838A839B830CC00E94C54403C00E94B84490E0A0E0B0E020
:204B400088839983AA83BB8381E0DF91CF910F910895FC01862F0190F081E02D309711F0CC
:204B6000BA0119940895DC0112968D919C911397DC01ED91FC910280F381E02D1994FF928D
:204B80000F931F93CF93DF93EC018B01F42E8A819B81DC01ED91FC910480F581E02D65EAED
:204BA00019958A819B81DC01ED91FC910480F581E02D6AE519958A819B81DC01ED91FC9125
:204BC0000480F581E02D65E019958A819B81DC01ED91FC910480F581E02D62E819958A81C2
:204BE0009B81DC01ED91FC910480F581E02DD8016C9119958A819B81DC01ED91FC91048093
:204C0000F581E02DD80112966C9119958A819B81DC01ED91FC910480F581E02D60E01995E1
:204C20008A819B8161E06F25DC01ED91FC910480F581E02DDF91CF911F910F91FF9019942D
:204C40001F93CF93DF93EC01162F8A819B81DC01ED91FC910480F581E02D65EA19958A817E
:204C60009B81DC01ED91FC910480F581E02D6AE519958A819B81DC01ED91FC910480F58123
:204C8000E02D64E019958A819B81DC01ED91FC910480F581E02D60E819958A819B81DC0105
:204CA000ED91FC910480F581E02D63E019958A819B81DC01ED91FC910480F581E02D60E09B
:204CC00019958A819B81DC01ED91FC910480F581E02D612F199581E0DF91CF911F91089554
:204CE000DC0112968D919C911397DC01ED91FC910280F381E02D1994AF92BF92CF92DF923E
:204D0000EF92FF920F931F93CF93DF93CDB7DEB7EE84FF8487010C5F1F4F9E012E5E3F4F31
:204D20004889598964E670E0C8010E9478455801C12CD12CF80101900020E9F73197E01B6E
:204D4000F10BCE16DF06B8F4D70112968D919C911397F50161915F01DC01ED91FC910480B9
:204D6000F581E02D1995811102C080E016C0BFEFCB1ADB0ADFCF03E010E0F7018281938170
:204D8000DC01ED91FC910480F581E02D6FEF1995882359F30150110981F7DF91CF911F91BE
:204DA0000F91FF90EF90DF90CF90BF90AF900895FB01442319F02085318502C02285338564
:204DC0003F932F9327812F9326812F9325812F9324812F9323812F9322812F9321812F936E
:204DE00020812F9329E738E03F932F939F938F9383DF8DB79EB70E960FB6F8949EBF0FBE26
:204E00008DBF08957F936F932DE838E03F932F939F938F9371DF0F900F900F900F900F9015
:204E20000F9008951F93CF93DF93EC0182E89AE00E94D5148A819B81DC01ED91FC910190B4
:204E4000F081E02D1995182F882359F085E998E09F938F93DF93CF934FDF0F900F900F90D2
:204E60000F90812FDF91CF911F910895CF93DF93EC0182E89AE00E94D5148A819B81DC0192
:204E8000ED91FC910190F081E02DDF91CF911994AF92BF92CF92DF92FF920F931F93CF93D0
:204EA000DF931F92CDB7DEB78C016B015A01DC0112968D919C911397DC01ED91FC9106807A
:204EC000F781E02DBE016F5F7F4F1995F82E882309F463C0698182E89AE00E94FA138981CC
:204EE000F801E859FF4F8F3F31F48081918101969183808306C080819181892B11F0118255
:204F0000108280819181039709F047C01182108211E02FB7F8948091EA0A9091EB0A2FBFC1
:204F2000892BD9F1BE016F5F7F4F82E89AE00E94A3148981853661F5112351F12FB7F89458
:204F40008091EA0A9091EB0A2FBF059710F410E0E0CFBE016F5F7F4F82E89AE00E94A31471
:204F600081E09981911101C080E0F5018083BE016F5F7F4F82E89AE00E94A314898190E0E8
:204F8000D6018D939C9382E89AE00E94D51406C082E89AE00E94D514DACFF12C8F2D0F9026
:204FA000DF91CF911F910F91FF90DF90CF90BF90AF900895AF92BF92CF92DF92FF920F93B2
:204FC0001F93CF93DF9300D0CDB7DEB78C016B015A011B82DC0112968D919C911397DC011A
:204FE000ED91FC910680F781E02DBE016D5F7F4F1995F82E882309F45DC06B8182E89AE0D9
:205000000E94FA132B81F801858196812F3F21F401969683858304C0892B11F0168215823C
:20502000F801848190E0258136812817390709F041C0168215822FB7F8948091EA0A909165
:20504000EB0A2FBF079790F1BE016F5F7F4F82E89AE00E94A314BE016E5F7F4F82E89AE078
:205060000E94A3148981853A09F58A818A35F1F4BE016D5F7F4F82E89AE00E94A3148B81BF
:205080008230A0F48170D5018C93BE016D5F7F4F82E89AE00E94A3148B8190E0F6019183C7
:2050A000808382E89AE00E94D51405C082E89AE00E94D514F12C8F2D0F900F900F90DF9124
:2050C000CF911F910F91FF90DF90CF90BF90AF900895AF92BF92CF92DF92EF92FF920F9380
:2050E0001F93CF93DF9390911010923111F4D0E017C1882339F0813059F420911F10309126
:20510000201004C020911B1030911C10232B79F3C62F182F0E946F11D82F882341F38091C3
:205120001010112319F0113081F022C090913A0F992329F19058913618F59091390F891779
:20514000F9F0D1E08131D9F41BC09091A30F992309F4E0C09058913608F0DDC09091A20F19
:20516000891709F4D8C0D1E0813109F0D3C0D3C0CC2309F4BCCFD0E0112329F0CEC0D0E0C6
:20518000CC2309F4CDC0E9E3FFE0E0901D10F0901E10C0902110D0902210C330A9F028F4E5
:2051A000C13071F0C23039F0BBC0C53021F040F0C63051F0B5C0109222101092211004C0BA
:2051C00010921E1010921D10618190E8960F913640F40081801709F496C0813109F081C0DF
:2051E00092C0663F21F1C8F4613F09F465C018F4603F11F17FC0623FC1F1633F09F07AC014
:20520000C281E0911D10F0911E1083EF1995E0911D10F0911E108C2F46C06D3F28F46A3F5F
:2052200030F4683F21F066C06E3F08F463C089E39FE00E940C0A5EC0112351F0113019F020
:20524000A12CB12C09C046EAA42E4FE0B42E04C03DE3A32E3FE0B32E812F0E940021A501FA
:20526000BC0189E39FE0E3D545C0038120E8029F800111248281082BE0911D10F0911E1063
:2052800082EF1995E0911D10F0911E10802F8F771995C801880F892F881F990B9195E09145
:2052A0001D10F0911E108F77199580910B10882309F110920F101EC08281877020E1829FD2
:2052C000C0011124C381CF70C82BE0911D10F0911E1081EF1995E0911D10F0911E108C2FEF
:2052E000E3CFC150C33030F42381428189E39FE00E94170AF0921E10E0921D10D0922210DC
:20530000C09221100DC0C130A8F3C43068F3C73058F3F0CFD0E0CC2319F0E2EAFFE035CF0A
:205320008D2FDF91CF911F910F91FF90EF90DF90CF90BF90AF9008950F931F93CF93DF9362
:20534000EC018B018D85FE01E80FF11DE80FF11D81859285DC01ED91FC910480F581E02DAD
:2053600019951F830E83EC81FD81309731F0C801DF91CF911F910F911994DF91CF911F9163
:205380000F910895CF93DF93DC0118962C911897211102C080E015C0EC018D85FD01E80FE8
:2053A000F11DE80FF11D81859285DC01ED91FC910280F381E02D1995882361F3188692E015
:2053C0009D87DF91CF9108950F931F93CF93DF93EC0120E030E040E066E088819981FDD4BD
:2053E000672B682B692B11F410E02FC021E030E040E066E088819981F0D4062F18851111BE
:2054000003C0023049F4F0CF8D850817F1F0CE01B9DF8111F6CFE8CFFE01E00FF11DE00F29
:20542000F11D818592850097F9F20D87DC01ED91FC910190F081E02D1995182F8887882385
:2054400099F261E070E0CE0177DF812FDF91CF911F910F910895982F969596959695E92F3E
:20546000F0E0E054F64F208130E048E0949F80191124A90102C0559547958A95E2F7CA0114
:2054800081700895FC01A081B18170E0E60FF71F9481957041E0953009F040E0ED91FC91AF
:2054A00011970190F081E02DCD01199470E0FC01E60FF71F1482DC018D919C91DC01ED9149
:2054C000FC910190F081E02D40E01994DC018D919C91DC01ED91FC910480F581E02D19949F
:2054E000DC018D919C91DC01ED91FC910280F381E02D1994CF92DF92EF92FF920F931F93B4
:20550000CF93DF93EC01D62EC42E88819981E62EF12CDC01ED91FC910480F581E02DB701D9
:2055200019958C011127A80162E08A819B81A1D7672B682B692BC1F188819981DC01ED9185
:20554000FC910280F381E02D40E0B8011995F82E88819981DC01ED91FC910280F381E02D00
:2055600041E0B8011995E82E88819981DC01ED91FC910280F381E02D42E0B8011995182FAF
:20558000CC2051F0FE01EF0DF11D84818D6184836F2DCE0177DF03C06F2DCE0187DF6E2DEB
:2055A000CE0184DF612F15C0CC2091F0FE01EE0DFF1D8481877F856084836D2DCE01DF9101
:2055C000CF911F910F91FF90EF90DF90CF905ACF6D2DCE01DF91CF911F910F91FF90EF907F
:2055E000DF90CF9063CF7F928F929F92AF92BF92CF92DF92EF92FF920F931F93CF93DF93AA
:2056000000D0CDB7DEB78C01B62E742EDC018D919C91E62EF12CDC01ED91FC910480F58153
:20562000E02DB70119956C01DD24A60162E0F801828193811ED7672B682B692B49F1D801CF
:205640008D919C91DC01ED91FC910280F381E02D40E0B60119958983F80180819181DC019A
:20566000ED91FC910280F381E02D41E0B60119958A83F80180819181DC01ED91FC91028013
:20568000F381E02D42E0B60119958B8383E004C0B982BA82BB8281E0FE0131964F016F0132
:2056A000A82EB12CE00EF11EFCE5EF0EF11CC601881999098A159B0514F5772041F0D6015E
:2056C0006C91F801E60FF11D848186600FC0F6016081F801E60FF11D8481982F9D7F948344
:2056E00080FF03C09460948302C0897F8483C801C9DED7017C92BFEFCB1ADB0AD8CF0F9078
:205700000F900F90DF91CF911F910F91FF90EF90DF90CF90BF90AF909F908F907F900895C7
:205720002F923F924F925F926F927F928F929F92AF92BF92CF92DF92EF92FF920F931F93D7
:20574000CF93DF93CDB7DEB72E970FB6F894DEBF0FBECDBF5C01162FF22E242E22949FE007
:205760002922822E82942FE082228F2D6BE00E942945982E2AE0281710F48AE0982EC12C1E
:20578000D12C802F90E0A0E0B0E08D839E83AF83B887842F90E0A0E0B0E089839A83AB83B1
:2057A000BC83332433943F0C2F2D30E040E050E029873A874B875C87012F0F7EA60165E0B6
:2057C000D50112968D919C91139753D62D813E814F815885621773078407950709F0F6C04A
:2057E000A60163E0D50112968D919C91139741D6EE2051F1663050F46430A8F4613059F001
:20580000633009F04CC0E1E0ED8737C0663071F0683099F044C0103909F43FC0B1E0BD878E
:205820001038C1F538C0F1E0FD8732C00038B9F581E08E8791E09D8745C0103B81F5A1E0F3
:20584000AE87B1E0BD873EC0663038F46430F0F4662341F0623069F022C0663089F06830D8
:2058600091F01DC00038E9F021E02E87103BB9F41EC00038D1F031E03D87103B59F40BC0FC
:20588000003869F416C0103B51F418C041E04D87103C09F01D861E8615C01E8611C01E86C6
:2058A00006C01E86E1E0ED870DC0F1E0FE871D8609C021E02E8731E03D8704C041E04E8775
:2058C00051E05D87D5018D919C91DC01ED91FC910480F581E02DB6011995AC0162E0F50159
:2058E00082819381C6D52B013C01FD85FF2309F444C0A60161E0D50112968D919C9113978D
:20590000B8D529813A814B815C81621773078407950769F5103C31F4452846284728F1F0D8
:20592000722C20C0452846284728D9F43E85311118C0A60164E0D50112968D919C91139797
:2059400098D57724739429853A854B855C85261737074807590731F0712C04C077247394CC
:2059600001C0782C472D6C2DC501C4DD07C0103C21F440E06C2DC501BDDD712C3E85332357
:2059800029F1A60161E0D50112968D919C91139770D529813A814B815C81621773078407C1
:2059A0009507A1F43D85332369F0FF2049F0772039F0432D50E1759E401911244B3018F068
:2059C00040E001C0492D6C2DC5010DDE8FEFC81AD80A98E5C916D10409F0F0CE2E960FB673
:2059E000F894DEBF0FBECDBFDF91CF911F910F91FF90EF90DF90CF90BF90AF909F908F904D
:205A00007F906F905F904F903F902F900895CF92DF92EF92FF92CF93DF93EC016A017B01F3
:205A20008F89988DDC01ED91FC910280F381E02D1995C616D706E806F90630F4C986DA8617
:205A4000EB86FC8681E001C080E0DF91CF91FF90EF90DF90CF9008950F931F93DC0155966C
:205A6000ED91FC915697B7E06B9FE00DF11D1124DC0119960D911D912D913C911C97838143
:205A80009481A581B681080F191F2A1F3B1F0180F281E02DBBE04B9FE00DF11D11248781E4
:205AA0009085A185B285BC01CD01600F711F821F931F1F910F9108954F925F926F927F92C6
:205AC0008F929F92AF92BF92CF92DF92EF92FF920F931F93CF93DF9300D01F92CDB7DEB73C
:205AE0006C012A013B0148015901DC0157968D919C915897DC01ED91FC910084F185E02D3C
:205B000019958823E9F0F6018789908DDC01ED91FC910680F781E02D0E2D9E012F5F3F4F46
:205B2000B301A2011995882359F081E049815A816B817C81481559056A057B0509F080E07A
:205B40000F900F900F900F90DF91CF911F910F91FF90EF90DF90CF90BF90AF909F908F90F1
:205B60007F906F905F904F9008952F923F924F925F926F927F928F929F92AF92BF92CF92F1
:205B8000DF92EF92FF920F931F93CF93DF9300D01F92CDB7DEB7DC015596ED91FC91569700
:205BA000309709F44DC0DC015C91651708F048C0B7E06B9FE00DF11D11245081451708F0D8
:205BC0003FC041805280EBE04E9F400C511C1124D201ED91FC912E173F0790F547015801FE
:205BE00069013C0139DFF2012281223059F108F0BAC0211179C00FEF1FEF9801F301028FAD
:205C0000138F248F358F760103E0F694E7940A95E1F71B012C012E0C311C411C511C8789EB
:205C2000908DDC01ED91FC910680F781E02D00E09E012F5F3F4FB201A1011995811167C0FD
:205C400080E0B4C00FEF1FEF9801D3015A960D931D932D933C935D979601369527951B01FA
:205C60002C01220E331E411C511C57968D919C915897DC01ED91FC910680F781E02D02E0B0
:205C80009E012F5F3F4FB201A10119958823C1F2BFE08B229924AA24BB2409811A812B8161
:205CA0003C81C0FE0CC00F70112722273327A4E0880C991CAA1CBB1CAA95D1F704C0007F8F
:205CC000112722273327802A912AA22AB32A89829A82AB82BC8209811A812B813C81F2E0E9
:205CE000EF2EB201A10110C0213009F0A9CF95018401112722273327AB01BC014C0D5D1D6E
:205D0000611D711DEE24E394C301D6DE4FC0B8E0EB9EC0181124D12C49815A816B817C81AE
:205D2000F301EC0DFD1D80FE07C085858A019B01082BD901C8010DC0258530E0C9018095AA
:205D40009095092E000CAA0BBB0B84239523A623B72389839A83AB83BC8309811A812B81F7
:205D60003C81E12CBECF233079F49501840122273327CC0CDD1CAB01BC014C0D5D1D611DC3
:205D8000711DE3E0EE2EC0CF243009F059CFCC0CDD1CCC0CDD1CAB01BC014C0D5D1D611D36
:205DA000711D34E0E32E95018401AECF0F900F900F900F90DF91CF911F910F91FF90EF90EE
:205DC000DF90CF90BF90AF909F908F907F906F905F904F903F902F900895CF92DF92EF92BF
:205DE000FF920F931F93CF93DF9300D01F92CDB7DEB7CC24CA94DC2C7601C982DA82EB826F
:205E0000FC828E010F5F1F4F0E947C0669817A818B819C810F900F900F900F90DF91CF911B
:205E20001F910F91FF90EF90DF90CF9008956F927F928F929F92AF92BF92CF92DF92EF9250
:205E4000FF920F931F93CF93DF9300D01F92CDB7DEB77C016B018A013C0184EE680E711CC9
:205E6000D3018D919C91892BB9F05A014A01860E971EA814B90441F0D301ED91FC91D50158
:205E80008D915D011995F5CFF701EE52FF4F8081882311F034961082B8EEEB0EF11CF701E1
:205EA00080819181892B09F44AC084E0B82EF4E0CF16D104B8F0D8012C9111969C91119782
:205EC00012968C91B9822A839B838C83D701ED91FC91CE01019619950D5F1F4FB3E0CB1A9F
:205EE000D108E5CFE3E0CE16D10469F4D8012C9111969C91119712968C9137E039832A83E5
:205F00009B838C8316C0B2E0CB16D10441F4F8019081818126E029839A838B8309C0CA94F1
:205F2000CD2869F4F801808195E099838A831B821C82D701ED91FC91CE01019619950F90A6
:205F40000F900F900F90DF91CF911F910F91FF90EF90DF90CF90BF90AF909F908F907F907D
:205F60006F9008958E3B910508F5FC01EC53F64F908197FF0FC09F77492F50E0262F30E00F
:205F80002417350724F4892F861B682F49F4908360E006C0690F67FF03C0906890836FE72A
:205FA00080818078862B8083862F08958FEF0895AF92BF92DF92EF92FF920F931F93CF93FC
:205FC000DF93CDB7DEB728970FB6F894DEBF0FBECDBFFC01D42E7801623009F488C030F4BD
:205FE0006623F1F0613009F46CC0A8C1643009F4CDC008F4B5C0663009F0A0C1828193817E
:20600000FC01E40FF11DE350FF4FDC01AA55BF4F8E010F5F1F4F408166E08D919C9184C115
:206020008281938119821A821B821C8241E0D416C9F0D41620F0A2E0DA1629F140C0DC01B0
:20604000A852BF4FFC01EA55FF4F8E010F5F1F4F2115310511F420E030E04C9160E08081A4
:20606000918162C1FC01E752FF4FDC01AA55BF4F8E010F5F1F4F408160E08D919C910E9424
:206080007C068D2555C1222351F02130C1F4FC01EA55FF4F808191810E94241D07C0FC01E6
:2060A000EA55FF4F0190F081E02D87A590E0A0E0B0E089839A83AB83BC8380E039C181E047
:2060C00037C182819381FC01E40FF11DE552FF4FDC01AA55BF4F8E010F5F1F4F408161E0D7
:2060E0008D919C910E947C0681112AC1F0C0A280B380F501E40FF11DE052FF4FD501AA5563
:20610000BF4F8E010B5F1F4F408162E08D919C910E947C06811102C081E01FC0D501179681
:206120008C91823009F410C18D2D8B7F833009F017C18D819E819C838B83CE0101960E9418
:20614000EC00E3E0DE1204C18A8190E0A0E0B0E08D839E83AF83B88780E02D813E81E0C041
:20616000A280B380F501E40FF11DE751FF4FD501AA55BF4F8E010B5F1F4F408163E08D91E1
:206180009C910E947C06811137C1F5C002811381E1E04E1709F46EC04E1768F0C8018A55A2
:2061A0009F4F5C0194E0491709F493C0A7E04A1709F476C0A2C0F801E055FF4F0081118164
:2061C000B9017727F801E60FF71F848180FF4DC083FF4DC0F80180819181DC01ED91FC914F
:2061E0000480F581E02D1995F801A081B1815C01BB24ED91FC9111970280F381E02D42E08A
:20620000B501CD011995F801E80FF11DD480D6FADD24D0F8DD0CD8018D919C91DC01ED91F9
:20622000FC910280F381E02D41E0B5011995F801E80FF11D848185FB882780F98D29D82EE2
:20624000DD0CF80180819181DC01ED91FC910280F381E02D40E0B5011995F801E80FF11DDC
:206260008481829581708D2903C080E001C081E090E00EC0F801E055FF4F0190F081E02D4D
:20628000E20FF11D848181FBAA27A0F9B0E0CD01A0E0B0E089839A83AB83BC8380E03EC0B2
:2062A000F801E650FF4F8E010F5F1F4F408164E0F501808191810E947C06882341F08981DE
:2062C0009A81AB81BC810196A11DB11DE3CF81E025C0F801E055FF4FB90180819181F6D808
:2062E000F801E950FF4F8E010F5F1F4F9C01408164E0D5018D919C910DC0040F111DF801E9
:20630000ED50FF4F8E010F5F1F4F408164E0F501808191810E947C0691E0892729813A81CF
:20632000D7012D933C9395C00E947C0691E0892729813A81F701318320838BC082E089C0B2
:20634000F4E0DF12ABCFBBCFB7E0DB1209C081C0898190E0A0E0B0E08D839E83AF83B887BA
:20636000F4E0DF12F9CE8D819E81AF81B8850196A11DB11DEDCEB5E0DB1202C011E00EC016
:20638000BD1580F1E3E0DE16C9F3F4E0DF1232C011E0F5018781823009F45BC0D501179654
:2063A0008C91813009F041C0111124C08D819E819C838B83CE0101960E94EC00B5E0DB163B
:2063C00031F0E7E0DE1619F0F3E0DF1202C08A8101C0898190E0A0E0B0E08D839E83AF8399
:2063E000B88723C047E0D41649F2D41688F288E0D81671F211E019C096E0D91601F19D153F
:20640000D8F4E8E0DE16D9F0DE16E8F0F9E0DF120BC08D819E81AF81B8850196A11DB11D0D
:206420008D839E83AF83B88710E08D819E81D7018D939C93812F0DC0A4E0DA1202C010E0D7
:20644000A8CFAD1510F410E0A9CFB3E0DB12ECCFFACF28960FB6F894DEBF0FBECDBFDF911E
:20646000CF911F910F91FF90EF90DF90BF90AF9008959A01462F64E0B0CC9A01462F63E0A1
:20648000ACCC9A01462F62E0A8CCEF92FF920F931F93780189019A01462F64E066DB1F9110
:2064A0000F91FF90EF9008952F923F924F925F926F927F928F929F92AF92BF92CF92DF9265
:2064C000EF92FF920F931F93CF93DF93CDB7DEB72E970FB6F894DEBF0FBECDBF9E878D8724
:2064E000DC0192968D919C919397DC01ED91FC910280F381E02D1995ED85FE858789908D67
:20650000DC01ED91FC910480F581E02D19958A87882309F419C2ED85FE8584A1882309F488
:206520000DC285A596A59C0121503109398728874885598557FDAAC168858D859E850E9442
:20654000B01D882309F400C21F82AD85BE858C91BF81B81708F021C127E0B29FF00111246A
:20656000FC87EB87F12CAD85BE855596ED91FC9156972B853C85E20FF31F8081F81608F036
:2065800008C13BE0F39E10011124C180D280C20CD31C4F2D6F81CD015FDA2B013C01D6013D
:2065A0001296BC9012971496ED91FC911597FE83ED838D909C90F2E0BF1609F4A6C0FB1589
:2065C00038F0BB2009F45FC021E0B21629F0DFC034E03B1508F4DBC0C12CD12CAD81BE81C9
:2065E000CD01A0E0B0E089839A83AB83BC838C149D0409F4CCC0AD85BE855596ED91FC91F2
:2066000056972B853C85E20FF31F0180F281E02DE20DF31D86818823B9F00D811E810C0D78
:206620001D1D20E030E0EB2CB301A201CD0144DA882309F489C131E0B31210C04FEF441A82
:20664000540A640A740A1BC0EB2C09811A812B813C81B301A2018D859E85E9CF53E0B51232
:2066600006C082E0480E511C611C711C08C094E0B91205C0A4E04A0E511C611C711CBFEF58
:20668000CB1ADB0AB4CF21E030E0C40187709927892B11F420E030E0140173E0369427946A
:2066A0007A95E1F7220E331EA12CB12CC12CD12C2C143D0409F46BC080E090E000E09C01E8
:2066C0002A0D3B1D2815390538F4000FED810E2B01968830910599F710E020E030E0EE2447
:2066E000E394B301A2018D859E85E6D9F8E0AF0EB11C882309F428C12FEF421A520A620AA3
:20670000720A3FEFC31AD30AD3CF940121703327C40196958795AC01420F531F5A834983CE
:206720002D80322C329450EF35223228AA24A394B12CC12CD12C89819A818C159D0539F13A
:20674000C601880F991F8815990528F4A814B90420F0022D03C000E001C0032D10E020E090
:2067600030E0EE24E394B301A2018D859E85A4D992E0A90EB11C882309F4E6C0AFEF4A1A31
:206780005A0A6A0A7A0ABFEFCB1ADB0AD4CFF394EACEEF81EF5FEF83D8CE412C512C320150
:2067A00083017201920142E061E08D859E85DDD9FFEF4F1A5F0A6F0A7F0A2EE14216510483
:2067C0006104710469F7412C512C32019201225E3F4F8301720142E061E08D859E85C5D994
:2067E0003FEF431A530A630A730A40E6441651046104710459F7412C512C32018EE7C82E40
:20680000D12C83017201960142E061E08D859E85ACD95FEFC51AD50A8FEF481A580A680A10
:20682000780A90E4491651046104710451F7412C512C320193018201A20161E08D859E853F
:2068400024DEAFEF4A1A5A0A6A0A7A0AB8E14B1651046104710471F7412C512C3201A20187
:20686000485E5F4F9301820161E08D859E850DDEEFEF4E1A5E0A6E0A7E0AF0E44F16510410
:206880006104710461F7288539854ECE60E08D859E850E946B1D882309F456C08D859E85AD
:2068A0000E94EF1C7C0140E050E0BA018D859E85AED848E062E475E08D859E850E94F30754
:2068C00000E010E020E030E040E060E08D859E854CD9182F47E069E475E08D859E850E9437
:2068E000F307ED85FE85A7A521A532A543A554A5B0E00E946645C5A0D6A0E7A0F0A4AB0160
:20690000BC014C0D5D1D6E1D7F1DCF0180D81123D9F060E08D859E850E94D61D8823A1F055
