:020000040000FA
:2000000088C20000B7C20000B5C20000B3C20000B1C20000AFC20000ADC20000ABC2000071
:20002000A9C20000A7C20000A5C20000A3C20000A1C200009FC200009DC200009BC20000A0
:2000400099C2000097C2000095C2000093C2000091C200000C9489468DC200008BC20000E2
:2000600089C200000C947A470C94D0470C94584881C200000C94BF457DC200007BC200007A
:2000800079C2000077C2000075C2000073C200000C94A5470C9414480C945E486BC2000085
:2000A00069C2000067C2000065C2000063C2000061C200005FC200005DC200005BC2000020
:2000C00059C2000057C2000055C2000053C2000051C200004FC200004DC200004BC2000080
:2000E00049C20000F8C1000042004123004100472300470046230046004500442300440005
:200100004323004300507265736574004E52504E004D4D43205265636F7264204F666600EE
:200120004D4D43205265636F7264204F6E004D4D43205061757365004D4D432053746F70E8
:20014000004D4D4320506C617900525420537973527374005254204153656E730052542068
:2001600053746F7000525420436F6E74696E756500525420537461727400525420436C6F16
:20018000636B00537973457820436F6E660050697463682042656E640041540043482041DD
:2001A00054005043004343004E6F7465204F6E004E6F7465204F66660003010001FE00FB90
:2001C00000F900F700F400F200EF00ED00EA00E800B001A801A501A2019C0199018E0183AF
:2001E0000100000000000000007A01710165015D0154014A01410138012E01200111010CC4
:20020000010501556E6B6E6F776E00207F010100000000000000000000065F5F060000007C
:2002200003070000070300147F7F147F7F140000242E6B6B3A1200466630180C6662003006
:200240007A4F5D377A4800000004070300000000001C3E63410000000041633E1C0000086D
:200260002A3E1C1C3E2A080008083E3E080800000080E060000000000808080808080000E2
:20028000000060600000006030180C060301001C3E6349633E1C000040427F7F40400042DB
:2002A000637159496F660022634949497F3600181C16537F7F50002F6F4949497931003C94
:2002C0007E4B4949783000030371790D070300367F4949497F3600064F4949693F1E000022
:2002E00000006666000000000080E6660000000000081C3663410000242424242424000090
:20030000004163361C0800020301595D0702003E7F415D5D1F1E007C7E0B090B7E7C0041D1
:200320007F7F49497F36001C3E634141632200417F7F41633E1C00417F7F495D41630041AD
:200340007F7F491D0103001C3E6341513372007F7F0808087F7F000000417F7F410000307D
:200360007040417F3F0100417F7F081C776300417F7F41406070007F7F0E1C0E7F7F007F4D
:200380007F060C187F7F003E7F4141417F3E00417F7F49090F06003E7F4141E1FFBE0041B5
:2003A0007F7F09197766000022674D597322000003417F7F4103003F7F4040407F3F001F9B
:2003C0003F6040603F1F003F7F6038607F3F0063771C081C77630000074F78784F07004735
:2003E0006371594D67730000007F7F414100000103060C18306000000041417F7F000008E3
:200400000C0603060C080080808080808080800000010306040000207454543C784000412E
:200420007F3F44447C3800387C4444446C2800387C44453F7F4000387C5454545C18004807
:200440007E7F490903020098BCA4A4F87C0400417F7F08047C78000000447D7D4000000077
:2004600060E08080FD7D00417F7F10386C44000000417F7F4000007C7C0C780C7C7800048C
:200480007C7804047C7800387C4444447C380084FCF8A4243C1800183C24A4F8FC840044CC
:2004A0007C784C040C0800485C54545474240004043F7F446420003C7C40403C7C40001CD2
:2004C0003C6040603C1C003C7C6038607C3C00446C3810386C44009CBCA0A0A0FC7C000090
:2004E0004C64745C4C64000008083E77414100000000EFEF000000004141773E080800025E
:200500000301030203010070784C464C78700000C65311241FBECFEFD1E2DEBFCDBF00E07B
:200520000CBF18E0A0E0B2E0E6EEFAEB00E00BBF02C007900D92AE3EB107D9F727E1AEEE73
:20054000B8E001C01D92A83DB207E1F712E0C9E8D2E000E006C021970109802FFE010E9410
:200560003D58C838D10780E00807A9F70E947A480C94715D45CDCF93DF9300D00F92CDB752
:20058000DEB724E0829FF0011124ED59F74FA081B18182812C9191B3291313C0282F30E022
:2005A00050E040E029833A834B835C8369817A818B819C810F900F900F900F90DF91CF917B
:2005C00008952C9190910801291307C090E008969C01990F440B550BE5CF8FEF90E0A0E070
:2005E000B0E089839A83AB83BC83E0CF883070F0885090917B00986090937B0090917C0067
:20060000907F8F70892B80937C00089590917B00977FF2CF813031F08091C10080628093E0
:20062000C10008958091C90080628093C9000895DC011296ED91FC91309711F0862F19946D
:200640000895DC011496ED91FC91309709F019940895DC011696ED91FC91309709F0199460
:200660000895DC011896ED91FC91309709F01994089581E008956FEF7FE080E090E0089515
:20068000633029F0643031F484E090E0089582E090E0089581E090E00895FC01CB01642F4B
:2006A0000280F381E02D309709F019940895423028F0423021F090E080E0089540E0862FDE
:2006C000880F860F840F90E0089581E0663028F48BEA689F812D1124869590E00895089517
:2006E000660F771F660F771F860F971F41E050E060E070E0FC0142835383648375830895A4
:20070000FC0140815181FB01208131814217530738F081E02417350708F080E090E00895E2
:200720008FEF9FEF0895FB01EE0FFF1FE80FF91FDF01A155BE4F1D921C9210AA17A6089596
:200740001092B90088E48093B80084E08093BC0081E008951092BC0081E008950F931F9326
:20076000CF93DF9302E814E1D0E0C0E0A0917E14B0917F14F80191918F01957041E0953049
:2007800009F040E0ED91FC9111970190F081E02DBE01CD0119952196C834D10539F7DF911A
:2007A000CF911F910F910895FF920F931F93CF93DF93EC01EAE4F5E090E080E0008110E062
:2007C00030E020E050E040E04017510794F4A181B281A20FB31F1296FC9012976D917C91C2
:2007E0006F0D711D860F971F4F5F5F4F255F3F4FEBCF379625E0E238F20701F72DA53EA5EA
:20080000820F931F21E0822727E19227DF91CF911F910F91FF900895FC012281838190E0CA
:20082000880F991F8F7727FD816080832F7721830895FC019081818190FF0CC0806881831D
:20084000892F8695808391818927982789279383828308958F77F3CF80E00895CF93DF9340
:20086000FC01CB012081213029F02230D9F0DF91CF910895A381B4812D913C911197A901E6
:20088000415051094638510590F70180F281E02D4E5F5F4F4D935C93E20FF31F8F7799271E
:2008A0008083E5CFC381D48128813981A9014250510946385105D8F6A181B2814D5F5F4F9E
:2008C00059834883A20FB31F962F991F9927991F9C9321813281A381B481ED91FC91119769
:2008E000AF014F5F5F4F4D935C93E20FF31F8F77D7CFCF93DF93EC0165E070E088819981F5
:20090000ADDF70E060E088819981A8DF6AE070E088819981DF91CF91A1CFCF93DF93EC0153
:2009200063E370E08881998199DF6AE470E08881998194DF67E470E0888199818FDF64E0E2
:2009400070E088819981DF91CF9188CF9C01CB01892B81F061307105D1F42D553F4FD901B9
:200960008D919C91DC01ED91FC910680F781E02D61E019942D553F4FF90180819181DC0151
:20098000ED91FC910680F781E02D60E0F2CF0895FC01862FE039F105C8F4E254F04F6081D0
:2009A00067FF0DC06F77861738F4681B862F90819078982B90830895608380E0F8CF860FF2
:2009C00087FFF5CF606860838FE7F1CF8FEF08959C01FC01EA56FF4F808136970190F081D9
:2009E000E02D93E0899FE00DF11D1124D901A956BF4F8C910180F281E02D97E0899FE00D8E
:200A0000F11D112482819381448155818417950771F025563F4FF901208131812817390774
:200A200020F081E04217530708F480E0089581E00895FC0160FF06C040686695562F51837D
:200A4000408308954F77F9CF3F924F925F926F927F928F929F92AF92BF92CF92DF92EF92BC
:200A6000FF920F931F93CF93DF9300D000D0CDB7DEB78D839E83AD81BE8111961D921D9261
:200A80001D921C921497FD011582168217821086768B658B408337E0432E512CD12CC12C4F
:200AA0004BE0342EAD81BE818C918C151D0409F00CF4BAC1820107501109F12CE12C712C2E
:200AC000612C812C912C5401AD81BE815596ED91FC91E00FF11F80818615170409F00CF4B8
:200AE000F3C0A181B2816114710409F055C017961D921D921D921C921A97ED81FE81A589C2
:200B0000B689A00FB11F1196ED91FC911297EE0DFF1D80819181ED81FE8145815681678120
:200B20007085480F591F611D711D45835683678370871196ED91FC91EE0DFF1D6281AD8189
:200B4000BE8157968D919C91DC01ED91FC91662309F462C0623009F494C00284F385E02DA0
:200B60001995AC01AD81BE815596ED91FC91E00FF11F0180F281E02DEE0DFF1D208131814D
:200B8000429FC001439F900D529F900D1124880E991EA11CB11C6EC08FEF860DFD01839D3D
:200BA000E00DF11D11242281808191814781508561857285FD01EE0DFF1D223011F1D0F4A8
:200BC00021110FC0A1E0B0E09C0127703327232B09F4A0E023E0969587952A95E1F78A0F30
:200BE0009B1F480F591F611D711D478350876187728783CF233069F0880F991F880F991F42
:200C0000F0CF9C012170332796958795820F931FE8CF880F991FE5CF0284F385E02D60E0FE
:200C20001995BC01AD81BE815596ED91FC91E00FF11F0180F281E02DEE0DFF1D80819181BC
:200C40009C012770332741E050E0232B09F440E0F3E096958795FA95E1F7840F951F869F5D
:200C60009001879F300D969F300D1124820E931EA11CB11CBFEF6B1A7B0AEBE0EE0EF11C82
:200C800023CF0284F385E02D62E01995AC01AD81BE815596ED91FC91E00FF11F0180F28164
:200CA000E02DEE0DFF1D808191819C012170332796958795820F931F849F9001859F300DD6
:200CC000949F300D1124D2CFED81FE8181819281A381B481880E991EAA1EBB1E818292826E
:200CE000A382B4828789908DDC01ED91FC910280F381E02D199569837A838B839C83861621
:200D00009706A806B90608F0A8C0ED81FE81E588F6880E0D1F1DD8018C918150990B389EF9
:200D2000A001399E500D112411968D919C91DC01A40FB51F17968D909D90AD90BC901A9722
:200D4000F80183819481A581B681880D991DAA1DBB1DED81FE81868F978FA0A3B1A3F80182
:200D600021813281240F351FF901428120813181423009F44AC008F041C041114DC041E095
:200D800050E0B90167707727672B09F440E073E0369527957A95E1F7420F531F840F951F7A
:200DA000A11DB11DED81FE81868F978FA0A3B1A3C114D10439F4D70113961D921D921D9283
:200DC0001C921697ED81FE8180818150990BC816D9066CF4868D978DA0A1B1A12589368901
:200DE000F901E40DF51D83839483A583B683FFEFCF1ADF0A87E0480E511C54CE433089F080
:200E0000220F331F220F331F07C0A9014170552736952795240F351F820F931FA11DB11D51
:200E2000C1CF220F331FF8CF81E026960FB6F894DEBF0FBECDBFDF91CF911F910F91FF90C5
:200E4000EF90DF90CF90BF90AF909F908F907F906F905F904F903F90089580E0E6CF0F936A
:200E60001F93CF93DF9300D00F92CDB7DEB7DC015596ED91FC91569707E0609FE00DF11DC1
:200E8000112419968D919D910D90BC91A02D0381148125813681800F911FA21FB31F218181
:200EA00032811BE0419F200D311D1124F90147815085618572858C019D01040F151F261FC9
:200EC000371FC901B8010F900F900F900F90DF91CF911F910F9108958F929F92AF92BF921C
:200EE000CF92DF92EF92FF920F931F93CF93DF934C01E9015801DC018C91681770F080E01D
:200F0000DF91CF911F910F91FF90EF90DF90CF90BF90AF909F908F9008955596ED91FC9166
:200F2000B7E06B9FE00DF11D11248081481738F7E180F280EBE04E9FE00CF11C1124D701C0
:200F40008D919C9128173907D0F6C40188DF462F572FBC01F7012281223009F4A9C0A0F535
:200F6000211181C0CE01F3E096958795FA95E1F76A017B01C80ED11CE11CF11CF401828DF6
:200F8000938DA48DB58DC816D906EA06FB06A9F5C770D87FC80DD91D8D85918D892341E01C
:200FA00050E060E070E019F440E050E0BA01D5014D935D936D937C931397F401C28ED38E54
:200FC000E48EF58E81E09CCFD40157968D919C91233009F4C0C0CC0FDD1FCC0FDD1F4C0F6A
:200FE0005D1F611D711DDC01ED91FC910680F781E02D04E09501199583CF8789908DDC01F2
:20100000ED91FC910680F781E02D00E09501B701A6011995882309F472CFF5018081D40182
:2010200059968C93C770D87FC80DD91D8D8590E0B0E0A0E0408151816281738184239523EE
:20104000A623B72341E050E060E070E0892B8A2B8B2B19F440E050E0BA01F5014083518348
:2010600062837383AACF6A017C01CC0EDD1EE11CF11CD40157968D919C91DC01ED91FC9160
:201080000680F781E02D01E09501B701A6011995882309F434CFF50180819181A281B381B6
:2010A0009927AA27BB2780839183A283B38385CFCE01969587956A017B01C80ED91EE11C30
:2010C000F11CF401828D938DA48DB58DC816D906EA06FB06E9F4818D90E0B0E0A0E0C0FD96
:2010E0000FC0F50180839183A283B383F50180819181A281B3818F709927AA27BB27D3CF45
:2011000054E0B595A795979587955A95D1F7E9CF8789908DDC01ED91FC910680F781E02D3E
:2011200002E09501B701A6011995882309F4E7CEF5018081D40159968C93C0FFD7CF80818D
:201140009181A281B38144E0B595A795979587954A95D1F7C7CFCC0FDD1F6A017B01CC0E5F
:20116000DD1EE11CF11CDC01ED91FC910680F781E02D03E09501B701A6011995882309F449
:20118000BECEF50180819181A281B381AA27BB278ACFCF92DF92EF92FF920F931F93CF93BD
:2011A000DF9300D000D00F920F92CDB7DEB7CC24CA94DC2C7601C982DA82EB82FC828E01D4
:2011C0000F5F1F4F89DE89819A81AB81BC81BC01CD0128960FB6F894DEBF0FBECDBFDF913E
:2011E000CF911F910F91FF90EF90DF90CF9008959A01462F62E0CDCF9A01462F64E0C9CFEC
:20120000FC0170E0DC01A60FB71F14961C9280819181DC01ED91FC910190F081E02D40E097
:201220001994CF93C0E06C2F8EE794E1E9DFCF5FC834C9F7CF9108950F931F93CF93DF93A3
:2012400000D000D0CDB7DEB78D839E83062F10E0A80162E0ED81FE8182819381C9DF6983FC
:201260007A838B839C83C801059629813A814B815C81880F991FED81FE81E80FF91F253032
:2012800031054105510561F580E090E291838083F801EE0FFF1FEE0FFF1F4D815E81E40F6E
:2012A000F51F12A613A614A615A6400F511FFA01E659FF4F1082B0961082709610827096E5
:2012C000108246545F4FFA01108226960FB6F894DEBF0FBECDBFDF91CF911F910F910895E7
:2012E00011821082D5CF282F803288F4E82FE695E695E695F0E0EB5BFA4E808190E02770B2
:2013000002C0959587952A95E2F78170089580E00895CF93DF93C62FCC0F8C2FE4DFD82F79
:20132000DD0F81E08C0FDFDF8D2BDF91CF910895CF93DF9300D00F920F92CDB7DEB76D83F3
:20134000462F469550E060E08AE495E151DF69837A838B839C83672B682B692B49F48D819F
:201360000F900F900F900F900F90DF91CF91BBCF80E00F900F900F900F900F90DF91CF91AD
:201380000895CF93DF93EC018885811104C080E0DF91CF910895ED85F0E0EE0FFF1FEC0F67
:2013A000FD1F81859285DC01ED91FC910280F381E02D1995882359F3188692E09D87E8CF79
:2013C0000F931F93CF93DF93EC018B0188858823D9F0ED85F0E0EE0FFF1FEC0FFD1F818571
:2013E0009285DC01ED91FC910480F581E02D19950E831F83EC81FD81309731F0C801DF91FA
:20140000CF911F910F911994DF91CF911F910F910895DC0112968D919C91DC01ED91FC91FA
:201420000280F381E02D19941F93CF93DF93EC01162F8A819B81DC01ED91FC910480F5813B
:20144000E02D65EA19958A819B81DC01ED91FC910480F581E02D6AE519958A819B81DC016B
:20146000ED91FC910480F581E02D64E019958A819B81DC01ED91FC910480F581E02D60E80A
:2014800019958A819B81DC01ED91FC910480F581E02D63E019958A819B81DC01ED91FC9188
:2014A0000480F581E02D60E019958A819B81DC01ED91FC910480F581E02D612F199581E082
:2014C000DF91CF911F910895EF92FF921F93CF93DF93EC017B01142F8A819B81DC01ED9129
:2014E000FC910480F581E02D65EA19958A819B81DC01ED91FC910480F581E02D6AE5199548
:201500008A819B81DC01ED91FC910480F581E02D65E019958A819B81DC01ED91FC9104802F
:20152000F581E02D62E819958A819B81F7016181DC01ED91FC910480F581E02D19958A8187
:201540009B81DC01ED91FC910480F581E02DD7016C9119958A819B81DC01ED91FC9104806A
:20156000F581E02D60E019958A819B8161E06127DC01ED91FC910480F581E02DDF91CF914B
:201580001F91FF90EF901994DC0112968D919C91DC01ED91FC910280F381E02D199480E018
:2015A0000895CF93DF93EC01DA0188899989FC01549131964491319634910396FC0184910A
:2015C000651750F1461740F1651B770B389FE02D1124E69FC001E79F900D1124820F911DC8
:2015E00023E0880F991F2A95E1F704969D01AD01485F5F4FE889F989E80FF91F6491F901D6
:2016000061939F010196E417F507A1F78D89811109C0DF91CF91089588E0FD0111928A950A
:20162000E9F7F4CF9D01285F3F4F8D91FD013197809580832A173B07C1F7EBCF3F924F92B1
:201640005F926F927F928F929F92AF92BF92CF92DF92EF92FF920F931F93CF93DF93CDB713
:20166000DEB72D970FB6F894DEBF0FBECDBF6C01F62E042F922EDC0150968D919C91FC013B
:201680003296649031961491660E140F812CFE0131965F015524539444244394460E762E21
:2016A0007094760CEF2C382C3F18232D2E0DA501692DC60176DFEC860D875B86BA86A98695
:2016C000D6011496ED91FC919E01275F3F4F41E06FE0C6011995E394E61438F3872D64141E
:2016E00008F480E08F5F880E0F5F0117D8F22D960FB6F894DEBF0FBECDBFDF91CF911F9130
:201700000F91FF90EF90DF90CF90BF90AF909F908F907F906F905F904F903F900895CF92C8
:20172000DF92FF920F931F93CF93DF9300D00F920F92CDB7DEB78C011C8281E08B837A83BD
:201740006983D801ED91FC91F1881D82F801A081B181C480D5809E012F5F3F4F50964C913E
:201760006FE0C801F60119958D818F5F8D838F1568F30F900F900F900F900F90DF91CF91B6
:201780001F910F91FF90DF90CF900895CF93DF9300D000D00F920F92CDB7DEB728E0E1E95E
:2017A000F5E0DE01119601900D922A95E1F7BE016F5F7F4FB4DF28960FB6F894DEBF0FBEA0
:2017C000CDBFDF91CF910895DC011A96ED91FC9130E020E01994CF93DF93EC01EA85FB850B
:2017E00030E020E040E068E21995EE81FF8130E020E040E064E1CE01199541E06BE4CE01A1
:20180000E3DFE881F981448169E2CE01DDDF40E06BE4CE01D9DFE881F981448169E2CE01D0
:20182000D3DF41E06BE4CE01CFDFE881F981458169E2CE01DF91CF91C7CF87FF0CC09CE012
:20184000980F923040F0982F9B7F993F21F0803F18F4807F089580E00895982F9F7E282F86
:201860002F7C203839F0803E29F081E0903C19F080E0089581E008957F928F929F92AF9290
:20188000BF92CF92DF92EF92FF920F931F93CF93DF930F92CDB7DEB78C016111C8C119820E
:2018A000FC01E851FF4F8081811102C0F12CC4C0D8018D919C91DC01ED91FC910280F381AC
:2018C000E02DBE016F5F7F4F1995F82E882371F3E9806801B3EECB0ED11CF601808191817A
:2018E000009709F0DAC04801FEED8F0E911CD401EC925801BBEDAB0EB11CF5017080872DCC
:201900009CDFABDF882369F0E7FC0BC0D4017C92F801E152FF4FE08281E090E0F601918375
:201920008083D401EC908E2D88DFF801EF51FF4F803F09F494C0E0F4803C29F1A0F4803AA2
:2019400029F038F4982F9F7E903829F423E030E01CC0803BD9F3D6011D921C9211821082AA
:20196000F5011082A3CF803D71F0803E79F3F3CF863F09F44BC008F042C0823F39F3982FE8
:201980009D7F913F41F722E030E031832083D6012D913C9140815181BA01615071092617A2
:2019A000370708F469C0D80113968C93BE2DBF70EB2EE394D801A652BF4F8C91E81AD801A2
:2019C0001296EC921297A152BF4F8C91D80114968C9314974330510509F04BC0A052BF4F00
:2019E0008C91D80115968C93D6011D921C9211821082F801E659FF4F81E080831DC08D3F3B
:201A000058F58A3F18F4883F09F0A5CFD80113968C93139712961C92129714961C92149723
:201A200015961C921597A659BF4F81E08C93D6011D921C92118210828F2D0F90DF91CF9190
:201A40001F910F91FF90EF90DF90CF90BF90AF909F908F907F9008958E3FC0F67CCF24E6FA
:201A600030E031832083D5011C92D80116968C938ECF15961C92B8CF2F5F3F4FF6013183D3
:201A80002083F801E752FF4F8081882309F40ECF60E0C801F1DEF82ECFCFE7FE0BC0F8EF6A
:201AA000EF1609F46EC0FE1508F464C027EFE21609F478C0D801A252BF4F2C91F801E80FF8
:201AC000F91F203F09F09AC0E6825801E1EEAE0EB11CF50180809180940121503109821743
:201AE000930708F49FC07C90F0EF7F1609F47CC0872DA3DEE82ED80113968C93AEDE882315
:201B000009F480C0872D8F708F5FF801E652FF4F9081891BF8018283F801E152FF4F80813A
:201B2000F8018483F3E08F16910409F06FC0F801E052FF4F8081D80115968C93D6011D92CD
:201B40001C92F50111821082F801E659FF4F81E08083EF58FF4F20EBE21651F02E1508F4BA
:201B600058C080EAE81621F08E2D8F7E8038D1F5708262CFACEFAE1588F0B9EFEB1609F4EF
:201B800099CFD8011396EC92139714961C92149715961C92159712961C922BCFEEEFEE16FA
:201BA00080F788CFF8012681203FF1F4E80FF91FE682D80113962C931397019615969C93A0
:201BC0008E93149712961C92F801E659FF4F81E08083F60111821082F801EF51FF4F1182C3
:201BE00010823697108228CFD6011D921C92F801EF51FF4F118210823697B3CEE252FF4F4D
:201C0000E08263CFD80112961C9286CFF801158295CFA0EEEA1609F4ABCF8E2D8F7E803C2F
:201C200009F7A6CF0196F601918380832ACFFC01E751FF4F8081882309F438CED8018D9168
:201C40009C916801B4EDCB0ED11CDC01ED91FC910680F781E02DB6011995F82E882309F461
:201C600025CEF60180818295807F803609F4AEC010F5803409F481C0803509F44EC08032D9
:201C800009F014CEF801EB52FF4F8081E956F109808331978F708F5FD801A652BF4F9C91E7
:201CA000891B8083329614978C91808331961082EB59FF4FA1CE803B71F028F5803709F4A3
:201CC000ABC0803708F4F2CD803A29F0982F9F7E903809F0EBCDF801E459FF4F80833197A8
:201CE000D801AB52BF4F8C918F708F5F15969C91891B8083329614978C9180833196119676
:201D00008C918083D5CF803F41F008F0CFCD803C09F4B8CF803EF9F2C9CDF801EB52FF4F78
:201D2000E080A80144595F4F980125593F4FD801AD52BF4FF7EFEF1659F0FA01E082F90139
:201D40001082329610823196108281E08C9374CEB8016B517F4FFB0180819181080F191FDB
:201D6000F801E159FF4FE0820196FB019183808380EFFA018083F901E7CFF801EB52FF4F35
:201D800040817096403F11F41182108220813181C801820F931FDC01A159BF4F4C93BC01F3
:201DA00060597F4FA8014A525F4FDA014C91DB014C938F589F4FD801A952BF4F4C91DC01C5
:201DC0004C932D5F3F4F3183208370CDF801EB51FF4F808191819801280F391FB901615944
:201DE0007F4FA8014B525F4FDA014C91DB014C9320593F4FD801AA52BF4F4C91D9014C932E
:201E0000029691838083E957F10980EF808331971082E859FF4FF0CDF801EB52FF4F40817C
:201E20007096403F11F41182108220813181C801820F931FDC01A159BF4F4C93BC0160595A
:201E40007F4FA8014A525F4FDA014C91DB014C938F589F4FD801A952BF4F4C91DC014C93FE
:201E60002D5F3F4F31832083F801E459FF4FCDCFFC01862FE039F10598F4E254F04F9081FE
:201E80008F77692F6F77860F21E087FF02C020E08FE79078211102C090830895982BFCCF30
:201EA0008FEF0895FC01DC01A457BF4F8D919C911197AC014F5F5F4F4D935C938E0F9F1FFE
:201EC00027EFDC0116962C93DF01A157BF4F8C91882349F0611107C08285823080F41596AC
:201EE0008C9181110CC080819181BF016A5F7F4FDC01ED91FC910680F781E02D19940895C0
:201F0000EF92FF920F931F93CF93DF93FC018A0180EF8683C281D381DF01A457BF4F82E0A5
:201F200090E011969C938E938881878383E090E011969C938E938981808784E090E01196D1
:201F40009C938E938A818187222359F181E0828786E090E011969C938E9313867B0130E033
:201F600020E0E7014881D2E0ED0EF11C8D919C911197BC016F5F7F4F11967C936E938E0F56
:201F80009F1FEC014E832F5F3F4F0217130749F761E0CF01DF91CF911F910F91FF90EF90F7
:201FA00081CF1286D5CF0F931F93CF93DF93EC01E62FF0E08C010E0F1F1FD80114963C9163
:201FC00081E090E0A0E0B0E004C0880F991FAA1FBB1F4A95D2F7BF012223C1F0832BF80165
:201FE0008483A881B981F8019481957041E0953009F040E0ED91FC9111970190F081E02DA3
:20200000CD01DF91CF911F910F91199480958323D80114968C93E5CF6F927F929F92AF9290
:20202000BF92CF92DF92EF92FF920F931F93CF93DF9300D000D00F92CDB7DEB78C01F62E38
:20204000942EDC018D919C91662E712CDC01ED91FC910480F581E02DB3011995C82ED12C21
:20206000A60162E0F80182819381C6D86C837D838E839F83672B682B692B09F45CC0D801FC
:202080008D919C91DC01ED91FC910280F381E02D40E0B60119958983F80180819181DC0190
:2020A000ED91FC910280F381E02D41E0B60119958A83F80180819181DC01ED91FC91028009
:2020C000F381E02D42E0B60119958B8383E0FE0131966F015F01A80EB11C7801E60CF71CF0
:2020E000FCE4EF0EF11CD6016D916D01F801E60FF11D2481992021F12260248321E042E0FB
:20210000C80151DFF7019082AC14BD0461F727960FB6F894DEBF0FBECDBFDF91CF911F915F
:202120000F91FF90EF90DF90CF90BF90AF909F907F906F900895F982FA82FB8281E0C7CF50
:20214000822F8D7F84832170DACFDC019B011896ED91FC9141E067E11994DC011696ED9132
:20216000FC9130E020E040E069E11994DC011696ED91FC9130E020E040E068E11994DC0114
:202180009A011696ED91FC91462F67E11994EF92FF920F931F93CF93DF930F92CDB7DEB78F
:2021A0007C018B01D8016C916A31A0F4683130F56731D1F0653180F0F80141814983D70195
:2021C0001696ED91FC9130E020E0C70119950E5F1F4FE8CF6E3FF1F00F90DF91CF911F9183
:2021E0000F91FF90EF900895F80181818983AE014F5F5F4F61E0C701C2DFE9CF0F5F1F4F44
:20220000D7011696ED91FC9130E020E040E0C7011995C8CFF8014181498369E2C701D4DAAA
:20222000D6CFDC01462F1696ED91FC9130E020E066E11994DC01462F1696ED91FC9130E0D3
:2022400020E065E11994EF92FF920F931F93CF93DF93EC01142F79016E3099F168F46B3088
:20226000A9F06D30E1F0693009F45BC06A3031F4B2DA62E677E010C06F3069F180E0DF9123
:20228000CF911F910F91FF90EF9008956DE577E0442311F068E577E0CE0179DF09C04111EC
:2022A00009C061E577E073DFE881F98182898C8B81E0E5CF6AE477E06ADFE881F98183896F
:2022C000F6CF54DF61E8CE01B5DF612FCE01A9DFCE0143DFEDCF4ADFF7010381000F000F03
:2022E000000F6C89060F60E4CE01A4DF602F62956F706061CE019EDF602F6F70CE0191DF10
:20230000F7016481606BCE018CDFF701408151816281660F660F660FCE0131DF1150A9F72E
:20232000D7CF87E997E0998388831C8AC1CFEF92FF920F931F93CF93DF93EC01142F7901CF
:20234000693039F482E397E0998388831C8A81E009C06D3009F442C060F46A3091F16B303D
:20236000B1F180E0DF91CF911F910F91FF90EF9008956E3009F443C06F3099F7F7DEF701F6
:202380000381000F000F000F6C89060F602F62956F706061CE014EDF602F6F70CE014ADFFA
:2023A000F7016481606BCE0145DFF701408151816281660F660F660FCE01E1DE1150A9F726
:2023C00025C009DA6DEF76E0CE01E1DEC0CF68EF76E04423C9F363EF76E0F6CF411108C00F
:2023E0006CEE76E0D4DEE881F98182898C8BAFCF65EE76E0CCDEE881F9818389F7CFB6DE5C
:2024000061E8CE0117DF612FCE010BDFCE01A5DE9ECFDC011896ED91FC9130E020E040E0E0
:2024200069E11994DC011896ED91FC9130E020E040E068E11994CF93DF930F92CDB7DEB75B
:202440006983BE016F5F7F4F80DE0F90DF91CF910895FF920F931F93CF93DF93EC01162FE0
:20246000F42E052FDFDF60E4CE01E5DFE885F9852F2D302F412F67E1CE011995CE01DF9157
:20248000CF911F910F91FF90C4CFEF92FF921F93CF93DF93EC01142F7901673119F1A8F4EA
:2024A000643139F165516230A0F4BCDF60E0CE01C2DF612FCE01BFDFCE01ABDF81E0DF910F
:2024C000CF911F91FF90EF900895685181E06230B0F380E0F4CF68E1CE01BBDF185188E14B
:2024E000E80EF11CA7011931B0F7612FCE01B1DFE5CF8E898F3F11F488E78E8BE885F98540
:202500009701412F64E1CE01DF91CF911F91FF90EF9019941F93CF93DF9300D000D0CDB7BA
:20252000DEB78D839E8330E020E040E066E0AD81BE818D919C910E94C90869837A838B833D
:202540009C83672B682B692B99F021E030E040E066E0ED81FE81808191810E94C908162FEB
:20256000AD81BE8118968C9181110CC01230A9F426960FB6F894DEBF0FBECDBFDF91CF9113
:202580001F910895ED81FE818585181789F3CF010E94C1098111EACFEBCFE12FF0E0EE0F2E
:2025A000FF1F8D819E81E80FF91F818592850097F9F2AD81BE811D961C93DC01ED91FC916B
:2025C0000190F081E02D1995ED81FE818087882379F261E070E0CF0126960FB6F894DEBF29
:2025E0000FBECDBFDF91CF911F910C94E009DC01ED91FC910480F581E02D1994DC01ED9182
:20260000FC910280F381E02D1994CF92DF92EF92FF92CF93DF9300D000D0CDB7DEB78D83FC
:202620009E836A017B01AD81BE8157968D919C91DC01ED91FC910280F381E02D1995C61678
:20264000D706E806F90630F4ED81FE81C186D286E386F48626960FB6F894DEBF0FBECDBF1A
:20266000DF91CF91FF90EF90DF90CF900895CF93DF9300D00F92CDB7DEB7FC0185A596A551
:202680006817190618F567A721A532A543A554A5A62FB0E00E94335869837A838B839C835B
:2026A00045A156A167A170A589819A81AB81BC81480F591F6A1F7B1FCF01A7DF81E00F904A
:2026C0000F900F900F90DF91CF91089580E0F7CFCF92DF92EF92FF92CF93DF9300D000D032
:2026E000CDB7DEB78D839E8340E050E0BA018D819E818BDF48E06AE475E08D819E810E9454
:20270000240521E030E041E060E08D819E810E94C9086B017C0147E061E575E08D819E81A6
:202720000E942405ED81FE81A7A521A532A543A554A5B0E00E94335869837A838B839C8344
:2027400045A156A167A170A589819A81AB81BC81480F591F6A1F7B1FCF0157DF81E0CD28A3
:20276000CE28CF2809F480E026960FB6F894DEBF0FBECDBFDF91CF91FF90EF90DF90CF9060
:2027800008954F925F926F927F928F929F92AF92BF92CF92DF92EF92FF920F931F93CF933A
:2027A000DF9300D00F92CDB7DEB76C01542E652E762EF72E48015901DC01ED91FC910084C3
:2027C000F185E02D19958823E9F0D601ED91FC910680F781E02D0E2D9E012F5F3F4F452DEF
:2027E000562D672D7F2DC6011995882359F081E049815A816B817C81481559056A057B0514
:2028000009F080E00F900F900F900F90DF91CF911F910F91FF90EF90DF90CF90BF90AF9059
:202820009F908F907F906F905F904F9008952F923F924F925F926F927F928F929F92AF92C8
:20284000BF92CF92DF92EF92FF920F931F93CF93DF9300D00F92CDB7DEB71C0169014701C2
:202860005801DC015596ED91FC9156973097C1F480E00F900F900F900F90DF91CF911F9167
:202880000F91FF90EF90DF90CF90BF90AF909F908F907F906F905F904F903F902F900895D9
:2028A0008C91681728F7B7E06B9FE00DF11D112480814817E8F661807280EBE04E9F600C57
:2028C000711C1124D3018D919C912817390780F6C1010E942F07462F572FBC01F3018281D9
:2028E000823009F478C008F046C0811163C08FEF9FEFDC01F101828F938FA48FB58F760142
:20290000B3E0F694E794BA95E1F72A013B014E0C511C611C711C8789908DDC01ED91FC91AB
:202920000680F781E02D00E09E012F5F3F4FB301A2011995882309F49BCFEE0CEE0CEE0CEC
:20294000CE18F101EC0DF11D258589819A81AB81BC8180FE23C0822B89839A83AB83BC83BC
:2029600009811A812B813C81E12CB301A201F1018789908D2EC0833009F47BC0843009F0C0
:2029800077CFCC0CDD1CCC0CDD1C4C0D5D1D611D711D94E0E92E98018401E9CF30E020954A
:2029A0003095A901330F660B770B84239523A623B723D2CF980187011127222733274C0D7B
:2029C0005D1D611D711DEE24E394D10157968D919C91D7DE4ECF8FEF9FEFDC01F101828F20
:2029E000938FA48FB58FC601969587952A013B01480E591E611C711C8789908DDC01ED916A
:202A0000FC910680F781E02D02E09E012F5F3F4FB301A2011995882309F42ACF95018701BD
:202A20000F7011272227332789819A81AB81BC81C0FE1AC08F709927AA27BB2744E0000F71
:202A4000111F221F331F4A95D1F7802B912BA22BB32B89839A83AB83BC8309811A812B8193
:202A60003C81A2E0EA2E81CF807F9927AA27BB27ECCF9801870122273327CC0CDD1C4C0D94
:202A80005D1D611D711DF3E0EF2E9FCFEF92FF920F931F93780189019A01462F64E0C7DEF0
:202AA0001F910F91FF90EF900895DF92EF92FF920F931F93CF93DF9300D000D0CDB7DEB7B7
:202AC0008D839E83D62EAD81BE819D968D919C916817190680F010E0812F26960FB6F8941B
:202AE000DEBF0FBECDBFDF91CF911F910F91FF90EF90DF900895ED81FE8167A740E050E05B
:202B0000BA01CF0182DD48E06AE475E08D819E810E9424058D2D90E0B0E0A0E089839A83A5
:202B2000AB83BC837C018D0130E020E041E060E08D819E817CDE182F47E061E575E08D810E
:202B40009E810E942405ED81FE81A7A521A532A543A554A5B0E00E94335869837A838B8320
:202B60009C8345A156A167A170A589819A81AB81BC81480F591F6A1F7B1FCF0146DD112395
:202B800009F4A9CFAD81BE8192968D919C91DC01ED91FC910190F081E02D6D2D19959CCF36
:202BA000EF92FF920F931F93CF93DF9300D000D0CDB7DEB78D839E83162F40E050E0BA01A1
:202BC0008D819E8122DD48E06AE475E08D819E810E942405812F90E0B0E0A0E089839A83AD
:202BE000AB83BC837C018D0121E030E041E060E08D819E811CDE182F47E061E575E08D81AD
:202C00009E810E942405ED81FE81A7A521A532A543A554A5B0E00E94335869837A838B835F
:202C20009C8345A156A167A170A589819A81AB81BC81480F591F6A1F7B1FCF01E6DC812FB9
:202C400026960FB6F894DEBF0FBECDBFDF91CF911F910F91FF90EF9008952F923F924F9233
:202C60005F926F927F928F929F92AF92BF92CF92DF92EF92FF920F931F93CF93DF93CDB7DD
:202C8000DEB760970FB6F894DEBF0FBECDBF8F87988BAF85B88992968D919C91DC01ED91E5
:202CA000FC910280F381E02D1995EF85F8898789908DDC01ED91FC910480F581E02D199517
:202CC0008A8781111BC01A868A8560960FB6F894DEBF0FBECDBFDF91CF911F910F91FF90DB
:202CE000EF90DF90CF90BF90AF909F908F907F906F905F904F903F902F900895EF85F889AF
:202D000084A1882309F40CC285A596A59C0121503109398728878885998597FD9DC16885F2
:202D20008F859889A4DC882371F21F82AF85B8898C91BF81B81708F017C1E7E0BE9FF001A9
:202D40001124FC87EB87F12CAF85B8895596ED91FC9156972B853C85E20FF31F8081F81651
:202D600008F0FEC09BE0F99EC00111249E878D87C180D280C80ED91E4F2D6F81CD010E9420
:202D80002F072B013C01D6011296BC91B983F6010480F581E02DFE83ED83D6012D903C903D
:202DA000B981B23009F49CC0E8F5BB2309F456C0D12CC12CED81FE814F01B12CA12CAF85CB
:202DC000B8895596ED91FC9156972B853C85E20FF31F2C143D0451F157968D919C910180DF
:202DE000F281E02DAD85BE85EA0FFB1F26812223F9F00D811E810C0D1D1D30E020E0E980FD
:202E0000B301A201BEDC882309F45DCFB981B13099F4EFEF4E1A5E0A6E0A7E0A9FEFC91A26
:202E2000D90ACDCF89818350823010F2F3948CCFE98095018401E4CFF981F33031F422E0A5
:202E4000420E511C611C711CE9CF3981343031F784E0480E511C611C711CE0CF81E090E0FC
:202E6000910127703327232B09F480E0410153E0969487945A95E1F7880E991EB12CA12CAC
:202E8000D12CC12C8C149D0489F200E090E080E09501280F391F2215330538F4000FAD81DF
:202EA0000A2B01968830910599F710E030E020E0EE24E394B301A201EF85F8898789908D66
:202EC00060DCF8E0AF0EB11C882309F4FCCE2FEF421A520A620A720A3FEFC31AD30AD2CF9B
:202EE000C10181709927410196948794880E991E8D8189838295807F9D81982B9D83AA248C
:202F0000A394B12CD12CC12C8C149D0409F48ECFC601880F991F00E08215930528F409814D
:202F2000A214B30408F40D8110E030E020E0EE24E394B301A201AF85B88957968D919C910D
:202F400020DCB2E0AB0EB11C882309F4BCCEEFEF4E1A5E0A6E0A7E0AFFEFCF1ADF0AD4CF1A
:202F60002F812F5F2F83E2CE812C912C540185017401940142E061E08F85988958DC3FEF68
:202F8000831A930AA30AB30A80E288169104A104B10469F7812C912C54019401205E3F4FDE
:202FA0008501740142E061E08F85988940DC9FEF891A990AA90AB90AA0E38A169104A104BB
:202FC000B10459F7812C912C54019401205B3F4F8501740142E061E08F85988928DCBFEF4A
:202FE0008B1A9B0AAB0ABB0AE0E48E169104A104B10459F7812C912C540195018401A401E7
:2030000061E08F85988942DDFFEF8F1A9F0AAF0ABF0A28E082169104A104B10471F7812CB5
:20302000912C5401A401485F5F4F9501840161E08F8598892BDD3FEF831A930AA30AB30A19
:2030400080E488169104A104B10461F7A885B9851197B987A8875FCE60E08F859889A0DD86
:20306000882309F430CE8F8598890E94D4038C0140E050E0BA018F859889C7DA48E06AE418
:2030800075E08F8598890E942405C801B0E0A0E089839A83AB83BC8378018D0130E020E055
:2030A00040E060E08F859889C2DB182F47E061E575E08F8598890E942405EF85F889A7A594
:2030C00021A532A543A554A5B0E00E94335869837A838B839C8345A156A167A170A589819B
:2030E0009A81AB81BC81480F591F6A1F7B1FCF018CDA112309F4E7CD60E08F859889D5DC19
:20310000882309F4E0CDAF85B88992968D919C91DC01ED91FC910480F581E02D1995D4CD34
:2031200060E08F859889A3DAEBCFFC01DC01A751BF4F8C91882349F080819181DC01ED9194
:20314000FC910084F185E02D19940895FC01DC01A851BF4F8C91882349F080819181DC01BF
:20316000ED91FC910480F581E02D19940895FF920F931F93CF93DF9300D00F92CDB7DEB7B0
:203180008C01F62EE3DF1C821B828FE08983FA82BE016F5F7F4FC801C8DF0F900F900F90E2
:2031A0000F90DF91CF911F910F91FF9008956D3F28F46A3F10F4683F19F4D9CF6E3FE8F7C7
:2031C0000895CF92DF92EF92FF920F931F93CF93DF9300D00F92CDB7DEB77C01162FFC01FD
:2031E000E652FF4F80818823A1F10031B0F50F5F17FF33C0113E08F045C0C42EE894C7F845
:20320000D22EE894D7F80150012BF701E852FF4F8081882329F034968081801721F00083AB
:20322000602FC70193DF6C2DC70190DF812F8F7E803C19F06D2DC70189DF12951F701983D7
:203240000A83CB82DC82BE016F5F7F4FC7016DDF0CC08FEF800F803158F2F701E852FF4F73
:203260008081882311F0349610820F900F900F900F90DF91CF911F910F91FF90EF90DF902C
:20328000CF900895163F88F3612FC7010F900F900F900F90DF91CF911F910F91FF90EF9060
:2032A000DF90CF9084CF0F93022F242F462F60EB88DF0F9108950F93042FFC01E951FF4F09
:2032C0002081213031F420E0462F60E87ADF0F91089520E0462F60E9F9CFFC01CB01248190
:2032E000DF01A457BF4F223091F4462F990F9E7787FD91602D913C911197E20FF31F968318
:203300002E5F3F4F2D933C934F7747830895603F710541F0673F710529F06038710510F04D
:203320008FE790E02D913C911197A9014F5F5F4F4D935C93E20FF31F868308952F923F9264
:203340004F925F926F927F928F929F92AF92BF92CF92DF92EF92FF920F931F93CF93DF9399
:20336000CDB7DEB7A6970FB6F894DEBF0FBECDBF7C018B016A019C0120573F4F3C8B2B8B1D
:20338000D9018D919C91009709F46CC4F701EE56FF4F4080442009F465C44830510508F4A6
:2033A00061C4FB012081203F09F05CC49A0121503109E20FF31F4081473F09F053C4F6E855
:2033C000CF16D10408F04EC4A7014D565F4F5A8F498F41E0A98DBA8D4C93F701EC56FF4F6A
:2033E000FF83EE8343E04083A7014B565F4F5987488742E0A885B9854C933701B6E96B0E92
:20340000711CF30110824701F7E98F0E911CD4011C925701B8E9AB0EB11CF50110823196D6
:2034200011821082329611821082DB01E559F109A601460F571FBF015D9051924A175B07A1
:20344000D9F71701FCE82F0E311CD1012D933C93D7011296ED91FC91139717963C91179758
:2034600020813213FFC318963C91189721813213F9C319963C91199722813213F3C31A965D
:203480002C911A97222321F082E01A968C932CC1B8E0CB16D10409F4A9C3EBE0CE16D1040F
:2034A00028F48BE0D7011A968C9309C0F701E257FF4F5080511011C083E0F701828783E0CD
:2034C000EE81FF81808382E0A885B9858C93F3011082D4011C92F501DBC0D80115966C91F3
:2034E0001597F501608316962C91AE81BF812C93D8011796EC91A885B985EC93D80118963C
:203500004C91D3014C93D80119963C91D4013C93233010F084E0D1CF441510F086E0C2CF7B
:20352000DC01F3E04F9FA00DB11D11248C91381710F087E0B7CFE23010F085E0BECF82E876
:20354000860F823008F045C02D7F09F07BC0D70114968C9190E0880F991F0B96C816D9068B
:2035600009F09FCF81E0D7011A968C931A97E11120C0F801628514962C91C70187569F4F7F
:20358000223009F063C043850E941905EE81FF818081813071F4D70114962C91C70185564D
:2035A0009F4FF801223009F056C0458564850E941905F701E457FF4F4080AE81BF818C9183
:2035C000982F9D7F09F4FCC0512C1C86B1E0B98B2DC1E130A1F511960D90BC91A02DF7E091
:2035E0003F9FA00DB11D11241696FC9116976F1748F52E2720FDABCF2D913C91D70115969A
:203600004C9150E04217530788F4862F90E0BC016F5F7F4FF6171706B9F4849FB001859F21
:20362000700D949F700D1124261B370BD70114964C91429FC001439F900D11248ECF66230A
:2036400009F485CF88E02ECF9A01F0CF70E0DC016D937C939BCFE20FF11D228530E0DC0121
:203660002D933C93A6CFF701E257FF4F8081811104C083E0F701828737C0108281E0D7014A
:203680001A968C93F701E157FF4F8081882361F110822AC091E0F701E257FF4F90838430AC
:2036A00011F43196908381E0E5CFF701E257FF4F80818823F1F281E0F701828724812230AF
:2036C00031F488E090E0D1018D939C931586F10180819181AC014F5F5F4F518340838E0DF1
:2036E0009F1DDC0116962C9360E0C701A6960FB6F894DEBF0FBECDBFDF91CF911F910F911B
:20370000FF90EF90DF90CF90BF90AF909F908F907F906F905F904F903F902F900C94520F86
:20372000F701E257FF4F8081882309F4A2CF81E0F70182878481823021F4D101CD92DC9223
:203740001586F101808191819C012F5F3F4F318320838E0D9F1DD70115962C91FC0126837C
:20376000C3CFD701A257BF4F8C91811103C0828181117FCF81E0D7011A968C931A97149620
:203780008C91149789836A837B833D822C828D919C9160817181DC01ED91FC910480F581FD
:2037A000E02DAE014F5F5F4F1995813029F0823009F09ACF8DE054C28EE05CCF84E05ACFBC
:2037C000D5019C9122E8290F223008F0D7C0F3012081AB89BC89ED91FC91B3E02B9FE00D60
:2037E000F11D1124D4012C910180F281E02DB7E02B9FE00DF11D11242681298B31E03C8733
:203800009E3709F01C86823089F4D7011A961C921A9781E01C968C931C97EE81FF811082BC
:20382000CA9414968C91880F4C2C481A712C612CAA24A394B12C912C812C970124573F4FDB
:203840003AA329A3A7014B565F4F5E8F4D8FC7018A569F4F9E878D87D701A956BF4FB88B08
:20386000AF87F701EC56FF4FFCA3EBA3215F3F4F3B872A874C5F5F4F58A34F8F5A855DA3CB
:203880008B858EA399899615170409F00CF452C1842D90E0A9A1BAA18D939C93552031F048
:2038A000F701E856FF4F6082F7016386AD8DBE8D8C91813041F5F7018581E856FF4F90819D
:2038C000989F40011124AD85BE859C91AB89BC89ED91FC91B3E09B9FE00DF11D1124AF85E4
:2038E000B8899C910180F281E02DB7E09B9FE00DF11D1124880D992D911DA080B1808A155F
:203900009B0508F45C016401EAE0EA8B970120573F4F3C8F2B8FCA14DB0408F003C1AD8D35
:20392000BE8D8C91EBA1FCA1908191117BC0AF85B8894C91ED85FE856081811145C0AF8D0D
:20394000B8A12D913C91AB8DBC8DED91FC91B3E06B9FE00DF11D11240180F281E02D57E0F2
:20396000459FE00DF11D1124808191812817390750F089E0D7011A968C9339C0512C1C8639
:2039800041E0498B40CF1A821982F70180819181DC01ED91FC910190F081E02D8E010F5FED
:2039A0001F4F1995813001F1823009F485C0811104C069817A81C70190DCBFEFCB1ADB0A6D
:2039C000EA89EE5FEA8BA7CF1A821982F70180819181DC01ED91FC910190F081E02D8E0174
:2039E0000F5F1F4F9601DDCF8EE0F701828781E0A98DBA8D8C9383E0EE81FF81808382E085
:203A0000A885B9858C93F701EA56FF4F10823196108231961082319611821082329611820B
:203A2000108262CE81114CC0EF8DF8A10190F081E02DFE8BED8BAD85BE85BC91BF8BEF8581
:203A4000F889F081F88FAB8DBC8DED91FC91BF8923E0B29FE00DF11D11240180F281E02D94
:203A6000388D47E0349FE00DF11D112480819181AD89BE89A817B90708F07BCFC7010E949C
:203A8000E804811102C08AE0B0CFD7018D919C91EA85FB8500811181DC01ED91FC9102806E
:203AA000F381E02D2D893E89488D6F891995813029F0823009F081CF8DE05CCF8CE095CF60
:203AC0008C2D8819F7019481923019F52A89E20FF11D478166818DA19EA10E941905C70159
:203AE0000E94E804882379F2F70180819181AA85BB850D911C91DC01ED91FC910280F3817F
:203B0000E02D9601AF85B8894C91AD85BE856C91CDCFE80FF11D808990E0AA85BB858D9394
:203B20009C93DDCF60E0C7010E94520FFFEF6F1A7F0AA8CE2C85222309F494C080EFD7019B
:203B400016968C9316971296ED91FC9182E090E0D1018D939C938081D70117968C9383E03F
:203B600090E0D1018D939C938181D70118968C9384E090E0D1018D939C938281F701818715
:203B800081E082878EE78387AE81BF818C918487E885F9858081D7011D968C931D97F70163
:203BA000EA56FF4F8081F7018687E956FF4F80811F968C931F9750961C9250978CE090E002
:203BC000F1019183808351961C92519714968C911497823009F088CD52961C9252978EE000
:203BE00090E09183808353961C927ECDF7018485833009F495CD50F5813009F44BCD82308C
:203C000009F453CD882309F42ECDF701E156FF4F0081118150E040E030E020E0D701A35623
:203C2000BF4F90E00217130709F4C8CDED91FC911197E40FF51F4D5F5F4FC080D180C816BE
:203C4000D90609F48ECD2F5F3F4FECCF843009F421CD8530D1F6F701E157FF4F108281E0CA
:203C6000D70113CCA6960FB6F894DEBF0FBECDBFDF91CF911F910F91FF90EF90DF90CF900E
:203C8000BF90AF909F908F907F906F905F904F903F902F90089530E020E041E060E00E942E
:203CA000C908CB010895CF93DF9300D00F92CDB7DEB7262F30E040E060E00E94C908698348
:203CC0007A838B839C8381E029813A814B815C81232B242B252B09F480E00F900F900F9024
:203CE0000F90DF91CF910895FC01862FBA01309709F0199408958FBF0895982F8FB7F894BD
:203D0000913069F01092C0001092C1001092C2001092C5001092C400EEDF81E00895109226
:203D2000C8001092C9001092CA001092CD001092CC00F2CF9C018FB7F894F901EC59FF4F4A
:203D40001182108228593F4FF90111821082D3CFFF920F931F93CF93DF93C82FCEDFF82EEB
:203D60008823D9F00C2F10E0F801E957FA4E10828AE6C89FE0011124CE0185579A4EDADF58
:203D8000CE01815A994ED6DFF801EA52F84E81E08083F801E757FA4E10828F2DDF91CF9161
:203DA0001F910F91FF90089580918915811118C0CFDF8823A9F080E0A0DF882389F01092D7
:203DC000C00089E190E09093C5008093C40086E08093C20088ED8093C10081E080938915F4
:203DE00081E0089580918A15882311F080E0089581E0AEDF8823D1F381E07FDF8823B1F301
:203E00001092C80023E330E03093CD002093CC0096E09093CA0098ED9093C90091E09093AB
:203E20008A15089581E094CF1F93CF93DF93EC01162F8A81882339F08B81861321C0DF91F5
:203E4000CF911F91089580918A15811119C081E07FDF8823A9F081E050DF882389F0109241
:203E6000C8008FE190E09093CD008093CC0086E08093CA0088ED8093C90081E080938A1524
:203E80001093881581E08A831B83D9CFCF93DF93EC018A81882321F081E05ADF1A821B82D3
:203EA000DF91CF910895CF92DF92EF92FF920F931F93CF93DF93EC018B018FB7F8947E01BF
:203EC00098E6E90EF11CF701C080D18014DF80E0CD2809F12FB7F894FE01EA59FF4F6081B2
:203EE0007181329780819181860F971FF70140815181841B950B0E945D5DC80FD91F8881AB
:203F0000F8018083F70180819181019791838083822FF1DE81E0DF91CF911F910F91FF905B
:203F2000EF90DF90CF900895FB01108285EF95E1BACF8F929F92AF92BF92DF92EF92FF922F
:203F40000F931F93CF93DF93EC01D62E8FB7F8948E0108591F4FD8018D909C907E01B6E6DB
:203F6000EB0EF11CF701A080B180C5DE80E08A149B04D8F42FB7F894FE01EC59FF4F8081E1
:203F80009181C80FD91FD8820196D7016D917C910E945D5D91838083F80180819181019656
:203FA00091838083822FA7DE81E0DF91CF911F910F91FF90EF90DF90BF90AF909F908F90DA
:203FC0000895CF93C82FE82FF0E0E957FA4E20813AE6839FC0011124211104C085579A4EE9
:203FE000CF91A7CF815A994EA4DF882321F08C2FCF910C940A03CF910895EF92FF920F9371
:204000001F93CF93DF93C82FD62F082F10E02AE6829FC00111249C01215A394E79016D2F1B
:20402000C70187DF8823D9F3F801EA52F84E10828C2F0E940A0381E0DF91CF911F910F91E3
:20404000FF90EF90089581E0D8CFCF93DF93EC0180E0D3DF8823F9F0688180E0CEDF8823A5
:20406000D1F0698180E0C9DF8823A9F06A8180E0C4DF882381F06B8180E0BFDF882359F061
:204080006881898168278A8168278B81682780E0DF91CF91B2CF80E0DF91CF910895CB011F
:2040A00061EFD3CFCF93DF939C018FB7F89428593F4FF901C081D1811EDECE01DF91CF9194
:2040C00008958F929F92AF92BF92CF92DF92FF920F931F93CF93DF9300D0CDB7DEB78C015E
:2040E0006B015A011B82DC0112968D919C914E01B3E08B0E911CDC01ED91FC910680F7817E
:20410000E02DB4011995F82E811102C0F12C45C06B8184E59FE00DDF2B81F8018581968111
:204120002F3F09F04AC0019696838583F8012481858196812817190649F71682158284E565
:204140009FE0B0DF079708F43EC0BE016F5F7F4F84E59FE0A8DEBE016E5F7F4F84E59FE0AE
:20416000A2DE8981853A79F58A818A3561F5B40184E59FE098DE8B81823028F58170D501B3
:204180008C93B40184E59FE08EDE8B8190E0F6019183808384E59FE0CDDD8F2D0F900F90E1
:2041A0000F90DF91CF911F910F91FF90DF90CF90BF90AF909F908F900895892B09F4B6CF34
:2041C00016821582B3CF84E59FE0B4DD9FCF8F929F92AF92BF92CF92DF92EF92FF920F93DD
:2041E0001F93CF93DF930F92CDB7DEB78C016B015A01DC0112968D919C91DC01ED91FC9173
:204200000680F781E02D9E012F5F3F4F4901B9011995F82EE82C882399F0698184E59FE0E6
:2042200088DE8981F801E859FF4F8F3F59F4808191819C012F5F3F4F029759F03183208366
:20424000F12C36C080819181892BD1F311821082F7CF1182108284E59FE024DF892B81F39D
:204260006E2D792D84E59FE01EDE8981853679F5FF2069F184E59FE015DF059758F16E2D11
:20428000792D84E59FE00FDE81E09981911101C080E0D5018C936E2D792D84E59FE003DE66
:2042A000898190E0F6019183808384E59FE042DD8F2D0F90DF91CF911F910F91FF90EF90E6
:2042C000DF90CF90BF90AF909F908F90089584E59FE030DDF12CBFCFCF93DF9300D00F92B2
:2042E000CDB7DEB78FB7F89420916E1730916F17409170175091711729833A834B835C837F
:20430000FADC69817A818B819C810F900F900F900F90DF91CF910895CF92DF92EF92FF92EC
:204320000F931F93CF93DF9300D000D0CDB7DEB78C0169837A83790189819A81809790F0F0
:20434000D9014C9381E026960FB6F894DEBF0FBECDBFDF91CF911F910F91FF90EF90DF90A3
:20436000CF900895E981FA81EE0FFF1FEE0FFF1FFE83ED83442351F081E0D9018C93E00F44
:20438000F11F1282138214821582DCCFCD80DE80C00ED11EF60182819381A481B581892B87
:2043A0008A2B8B2B41F498DFD60112966D937D938D939C93159790DF69837A838B839C83D7
:2043C000ED81FE81E00FF11F82819381A481B58129813A814B815C81281B390B4A0B5B0B2F
:2043E000DA01C9010697A105B10518F0D7011C92A9CF81E0F7018083A5CF0F931F93CF9393
:20440000DF9300D000D0CDB7DEB7FC012081318142815381DA018D919C91D901A80FB91FFB
:20442000A156BD4F1C924081518122813381D9012D913C9164817581DB018C91DA01A20F1C
:20444000B31FA15FBD4F8C934081518122813381D9018D919C9166817781DB012D913C910A
:20446000880F991FDA01A80FB91FA15CBD4F2D933C932081318142815381DA018D919C91DB
:20448000880F991FD901A80FB91FA155BE4F1D921C92208131813E832D830280F381E02D3D
:2044A0000081118119DF69837A838B839C83000F111F000F111F8D819E81800F911F81531D
:2044C0009D4FFC0189819A81AB81BC8180839183A283B38326960FB6F894DEBF0FBECDBFF0
:2044E000DF91CF911F910F9108958F929F92AF92BF92CF92DF92EF92FF921F93CF93DF93B1
:2045000000D000D0CDB7DEB76D836A01790184EA8093BC00E1DEE0DE4B015C018091BC00DD
:2045200087FD22C0D9DE69837A838B839C83DC01CB0188199909AA09BB090B97A105B105E7
:2045400068F380E026960FB6F894DEBF0FBECDBFDF91CF911F91FF90EF90DF90CF90BF90F2
:20456000AF909F908F9008958091B900887F883011F0803131F78D818093BB0084EA809351
:20458000BC00AADE4B015C018091BC0087FD10C0A3DE69837A838B839C83DC01CB0188192C
:2045A0009909AA09BB090B97A105B10568F3C9CF8091B900887F883119F0803409F0C1CF21
:2045C000CD82DE82AD80BE80AE0CBF1C14E8ED81FE81EA15FB0541F18191FE83ED838093FC
:2045E000BB001093BC008091BC0087FFFCCF74DE6B017C018091BC0087FD10C06DDE6983F0
:204600007A838B839C83DC01CB018C199D09AE09BF090B97A105B10568F393CF8091B90078
:20462000887F8832A1F28DCF8091BC0080618093BC0052DE6B017C018091BC0084FD10C016
:204640004BDE69837A838B839C83DC01CB018C199D09AE09BF090B97A105B10568F371CF0F
:2046600081E070CFDF92EF92FF920F931F93CF93DF93CDB7DEB72C970FB6F894DEBF0FBE58
:20468000CDBF082FF62ED72EE0904712EE2009F448C022DE69877A878B879C87202F30E0CD
:2046A00044E0049F80011124F801EA58FD4E80819181A281B38149855A856B857C85481B8C
:2046C000590B6A0B7B0BDB01CA01853F9140A105B10538F189E490E09A8389833C832B8347
:2046E0008D2D90E0880F991F8F77F7FC816090E09E838D836F2D6F7770E078876F8321E002
:2047000044E050E0BE016F5F7F4F89EB91E10E94800FE2DDF801EA58FD4E608371838283B2
:2047200093838E2D2C960FB6F894DEBF0FBECDBFDF91CF911F910F91FF90EF90DF90089565
:204740006F927F928F929F92AF92BF92CF92DF92EF92FF920F931F93CF93DF9300D000D0B7
:20476000CDB7DEB73C015C0125E9A20EB11CD5018D919C91892B49F0F301EC56FF4F808168
:204780008823C1F0813009F479C026960FB6F894DEBF0FBECDBFDF91CF911F910F91FF9024
:2047A000EF90DF90CF90BF90AF909F908F907F906F90089591DD69837A838B839C8383011D
:2047C00008541F4FF80180819181A281B38129813A814B815C81281B390B4A0B5B0BDA0181
:2047E000C90184369105A105B10578F275DDD8016D937D938D939C931397830103551F4F5B
:20480000F12CE12CCC24C394F80181918F018F5F8293D5012D913C91D901AE0DBF1D9C918A
:20482000891720F1D8011E968C911E978C251E968C9310824301B4E08B0E911CD12CF40142
:2048400081914F0181FF0EC0E95BFF4F80818E151F0441F4D8011E962C9142E06D2DC30150
:204860000E94D30FD394B8E4DB12E9CFEFEFEE1AFE0AFBE0EF16F10439F687CF6111BDCFC6
:2048800084CFCF93DF93EC01CA01DB014E855F856889798984179507A607B70740F41C823F
:2048A0001D821E821F82188619861A861B868E879F87A88BB98B10DD6C837D838E839F83D9
:2048C0000BDD688779878A879B87DF91CF910895CF93DF93FB01EA01603320F080E0DF9133
:2048E000CF9108958FB7F894FF27EE0FFF1FEC58F84E2081318139832883208131813F775B
:2049000031832083F8D98881998197FFE7CF9F779983888381E0E3CF80916D17882341F13E
:204920008FB7F894909149159F5F909349159A3011F410924915A5E4B5E130E020E0E09138
:20494000491594E0E99FF0011124E05CF84EE20FF31F90819D932F5F3F4F2430310579F7FB
:2049600090916D17915090936D17C5D981E0089580E00895FF920F931F93CF93DF93CDB734
:20498000DEB72C970FB6F894DEBF0FBECDBF9C01F62E089708F480C080917711882309F49B
:2049A0006FC008E010E0021B130B0034110508F067C0980145E066E080916F119091701115
:2049C0000E94C9087A876987980146E066E080916F11909170110E94C9087C876B87498505
:2049E0005A856417750709F44BC020917511309176114217530721F06217730709F040C0AA
:204A0000980141E066E080916F11909170110E94C9087A836983980142E066E080916F1175
:204A2000909170110E94C9087C836B83980143E066E080916F11909170110E94C9087E83CB
:204A40006D83980144E066E080916F11909170110E94C90878876F83E0917C11F0E0EE0F01
:204A6000FF1FE159FE4E81859285DC01ED91FC910084F185E02D4F2DBE016F5F7F4F199501
:204A80002C960FB6F894DEBF0FBECDBFDF91CF911F910F91FF9008958FB7F8942D5C384EE0
:204AA000F901608391E090933F172C960FB6F894DEBF0FBECDBFDF91CF911F910F91FF9077
:204AC0001AC9F89484B7877F84BF80916000806180936000109260008FE19EE40197F1F7AA
:204AE00000C000001FBA10BE1CBC1DBA1092680010927A0010926E0010926F001092700047
:204B00001092710010927200109273001092C0001092C8001092D000109230011092C100E5
:204B20001092C9001092D100109231011092C2001092CA001092D200109232011092BC004C
:204B400012B815B818B81BB81EB811BA14BA10920201109205011092080110920B0111B83D
:204B600014B817B81AB81DB810BA13BA10920101109204011092070110920A0188E198E0D9
:204B80000FB6F894A895809360000FBE90936000FFCF80917A15811194CF0895CB0130E0E8
:204BA00020E0EFE9FFE03197F1F700C000002F5F3F4F28173907A9F70895EF92FF920F9342
:204BC0001F93CF93DF93F89484B78D7F84BF84B7877F84BF0FB6F894A895809160008861CD
:204BE00080936000109260000FBE80E890E00FB6F89480936100909361000FBEE3EEF7E0DD
:204C000043E658E061E070E0A081B181ED018A9192819B0101C0220F9A95EAF7922F9095AF
:204C2000982398838C91822B8C9334964E175F0759F7E3ECF7E041E050E0A081B181ED0198
:204C40002A9182817A0102C0EE0CFF1C8A95E2F7C701922F982B98839C91809589238C93D8
:204C6000349667E0E33EF60741F7E3E6F8E041E050E0A081B181ED012A9182817A0102C09F
:204C8000EE0CFF1C8A95E2F7C7018095922F982398839C9189238C93349668E0EF36F60767
:204CA00041F76C9A9D9A809101018860809301018091010180618093010122982A9AEFEA0F
:204CC000F7E04FEB57E06FEB77E001E010E0A081B181ED012A918281780102C0EE0CFF1CBB
:204CE0008A95E2F7C7012E292883EA012991AE019C91222309F47AC0892B8C9334966E17D3
:204D00007F0729F7C0E001E010E08C2F0E94BB02683008F46EC080917D006850980101C000
:204D2000220F6A95EAF7822B80937D00CF5FC33061F710927C0010927A0080917A00876000
:204D400080937A0080917C00806480937C0080917A00806880937A0080E00E94BB02862F52
:204D60000E94F60283E090E020917A00206420937A0020917A0026FDFCCF209178003091E7
:204D80007900019789F780917A00886080937A0080917A00806480937A0014BC15BC109243
:204DA0006E0084B5826084BD85B5836085BD8CE787BD80916E00826080936E0078946AE0DB
:204DC00070E080E090E0EADE8FB7F89410926C171092491510926D170E947B1E81E0DF91C2
:204DE000CF911F910F91FF90EF9008958095892384CF80917E00980101C0220F6A95EAF74A
:204E0000822B80937E0092CFCF93DF93EC0184E59FE00E949A1E68EC70E080E090E0BEDEE0
:204E20008A819B81DC01ED91FC910190F081E02DDF91CF911994CF93DF9300D00F92CDB70E
:204E4000DEB78130C1F06FEF8FEF9FE00E943F5D81E089831A821B821C8262EFCE010196C7
:204E6000F4D88091D6178823E1F362E370E080E090E094DE26DE67E48FEF9FE00E943F5D88
:204E8000F9CFCF93DF93D0E0C0E060E0CE010E94215D2196CF3F8FE0D807B9F781E0DF9163
:204EA000CF910895EF92FF920F931F93CF93DF930F92CDB7DEB78B0186E0E82EF12C198241
:204EC000BE016F5F7F4F8BE895E10E94531FE0918615882351F18981E630F0F095E0E1E843
:204EE000F5E1ABE7B5E101900D929A95E1F795E0EBE7F5E1A0E8B5E101900D929A95E1F70B
:204F00008093851580918615863079F081E0E81AF108A9F680E03AC091E09E0F90938615E8
:204F2000F0E0E058FA4E8083EDCF80918615863089F720918015213F89F530918415409131
:204F400083158091821590918115F801908381834283338389278427832730918515381324
:204F6000D9CF10928615109280151092811510928215109283151092841510928515223F92
:204F8000C1F4992379F080E0913091F00F90DF91CF911F910F91FF90EF900895223F09F0D1
:204FA000B9CFCBCF67E48FEF9FE00E943F5D89DD42DF81E0EBCF611102C080E03CDF67E4AD
:204FC0008FEF9FE00E943F5D7CDDCF92DF92EF92FF920F931F93CF93DF9300D000D0CDB70D
:204FE000DEB78D839E83F62EE42EAD81BE818D919C91C62ED12CDC01ED91FC910480F5812A
:20500000E02DB6011995082F10E0A80162E0ED81FE81828193810E94FC0869837A838B836B
:205020009C83672B682B692B09F458C0AD81BE818D919C91DC01ED91FC910280F381E02DE0
:2050400040E0B8011995F82EED81FE8180819181DC01ED91FC910280F381E02D41E0B801DE
:205060001995D82EED81FE8180819181DC01ED91FC910280F381E02D42E0B8011995182FC1
:20508000EE2031F1ED81FE81EF0DF11D84818D60848321E044E06F2D8D819E810E94D30F7E
:2050A0006D2D8D819E810E940009612F8D819E8126960FB6F894DEBF0FBECDBFDF91CF91EE
:2050C0001F910F91FF90EF90DF90CF900C9400096F2D8D819E810E940009E2CFEE20E1F0F7
:2050E000ED81FE81EC0DFD1D84818560848320E043E06F2D8D819E8126960FB6F894DEBF29
:205100000FBECDBFDF91CF911F910F91FF90EF90DF90CF900C94D30F6F2DC8CF3F924F92D3
:205120005F926F927F928F929F92AF92BF92CF92DF92EF92FF920F931F93CF93DF93CDB7F8
:20514000DEB763970FB6F894DEBF0FBECDBF6C01162FB22E8E2CA22EA2949FE0A922342E7B
:2051600032942FE0322228E72B1508F44EC08B2D6BE00E94D6578D83F12CE12C802F90E082
:20518000B0E0A0E08A879B87AC87BD87842F90E0B0E0A0E08E839F83A887B987992493949C
:2051A0009B0C2B2D30E050E040E02E873F87488B598B012F0F7EA70165E0D60112968D9117
:2051C0009C910E94FC0869837A838B839C832A853B854C855D85621773078407950709F0B1
:2051E000C6C0A70163E0D60112968D919C910E94FC08882081F1663058F46430F8F46130C1
:2052000091F06330B1F01B8A3FC03AE03D83B4CF6730D1F06930B9F7103BA9F781E08B8BD5
:2052200091E09A8B32C0B1E0BA8B003859F01A8A09C0E1E0EA8B103BD1F704C0F1E0FA8BBF
:20524000103CA9F71B8A21C00038E9F641E04B8B51E05A8B1AC0663058F4643078F7662370
:2052600061F0623081F6003869F131E03A8BE3CF663051F3683081F2C6CF0038F9F021E01E
:205280002B8B103B09F0BFCF1A8AF6016280738080819181DC01ED91FC910480F581E02D14
:2052A000B7011995AC0162E0C3010E94FC082B013C01BA89B1110AC0712C2AC01B8AA1E04A
:2052C000AA8BE3CF1A8AB1E0BB8BDFCFA70161E0F601828193810E94FC0869837A838B832A
:2052E0009C832E813F8148855985621773078407950709F082C0103C09F059C045284628E7
:20530000472809F475C0732C472D6E2DC6015DDE3B89332361F1A70161E0D60112968D914A
:205320009C910E94FC0869837A838B839C832E813F81488559856217730784079507B9F4A3
:205340006E2D3A89332309F460C0BB2059F0772051F0729480EF7822492D4719742E5AE0BF
:20536000541708F4712C472DC6010E940C108FEFE81AF80A98E4E916F10409F01CCF639661
:205380000FB6F894DEBF0FBECDBFDF91CF911F910F91FF90EF90DF90CF90BF90AF909F900D
:2053A0008F907F906F905F904F903F90089545284628472801F53B8931111DC0A70164E077
:2053C000D60112968D919C910E94FC0869837A838B839C83772473942E853F85488959897B
:2053E000261737074807590709F48ECF712C8CCF7724739489CF7A2C87CF103C09F05CCFCB
:2054000040E06E2DC601E1DD57CF4D81ADCF8F929F92AF92BF92CF92DF92EF92FF920F9372
:205420001F93CF93DF9300D00F92CDB7DEB77C016B018A015A014B01840E951E8A149B04BF
:2054400039F0F50161915F01C7010E94A618F6CFF701E852FF4F8081882311F03496108265
:2054600084E0B82EF4E0CF16D104A0F0F801208191818281B9822A839B838C83BE016F5F73
:205480007F4FC7010E9495180D5F1F4FF3E0CF1AD108E8CF83E0C816D10401F5F80120815B
:2054A0009181828137E039832A839B838C83BE016F5F7F4FC7010E9495180F900F900F90DB
:2054C0000F90DF91CF911F910F91FF90EF90DF90CF90BF90AF909F908F900895F2E0CF1601
:2054E000D10449F4F8019081818126E029839A838B831C82DCCFCA94CD28F9F6F80180812C
:2055000095E099838A831B82F4CFCF93DF9300D000D0CDB7DEB78D839E83962F872FBA0199
:20552000AD81BE811296ED91FC911397E955FF4F0190F081E02DE851FF4F10821296ED91C7
:20554000FC91E955FF4F492F582F808191815FDFAD81BE811296ED91FC91EB55FF4F23E031
:2055600030E040E060E0808191810E94C90869837A838B839C83672B682B692B71F0AD81D7
:20558000BE811296ED91FC91E955FF4F0190F081E02DE851FF4F81E0808326960FB6F89486
:2055A000DEBF0FBECDBFDF91CF9108958F929F92AF92BF92CF92DF92EF92FF920F931F936C
:2055C000CF93DF93EC01B62E042F7C018DEDE80EF11CD7018C91823179F410E0812FDF91D4
:2055E000CF911F910F91FF90EF90DF90CF90BF90AF909F908F900895CE010E943C0C182FA6
:20560000882359F3F7018081F1E0BF1681F12A819B81992341F09058913630F4821721F051
:2056200011E0813109F010E0FE0132960023B1F26E0188EEC80ED11CD6018C907E01B9EE90
:20564000EB0EF11CD7019C90023041F51C92618180E8860F813620F5008123814281CE01C8
:205660000E94E118F6018082D7019C92B7CFFE01E459FF4F9081992351F09058913640F48F
:2056800031979081891721F011E0813109F010E0FE01E559FF4F0111CBCFA0CFD601D6CFD2
:2056A000623F09F455C0A8F4603F29F1613FD1F6628190E1699FB00111246077B380AB2D57
:2056C000AF70BA2EB62A61EFCE010E94A6186B2D31C0633F41F16D3F58F46A3F28F4663FA5
:2056E00019F0683F09F0BECFCE010E94D718BACF6E3FD0F7B7CFB1E0AE01BB1661F04A5F86
:205700005F4F6C817D816536710510F064E670E0CE017DDEA7CF41595F4FFE01EB51FF4FD4
:2057200060817181F0CF028163EFCE010E94A618602F6F77CE010E94A618FE01E852FF4FA8
:205740008081882309F48ECFC452DF4F18828ACFA38080E8A89E500111248281A82A62EF8F
:20576000CE010E94A6186A2D6F77CE010E94A618B501660F672F661F770B7195DACF0F9335
:20578000CF93DF93E901033039F0043079F0CA010E940F5D90E003C0CA010E941C5DB0E0D0
:2057A000A0E088839983AA83BB8307C0CA010E94175D688379838A839B8381E0DF91CF91EC
:2057C0000F910895EF920F931F93E42F952FA801B9018E2D833049F0843091F0602F2E2FB5
:2057E000392FC9010E94215D06C0B8012E2F392FC9010E943B5D81E01F910F91EF90089542
:205800002E2F392FC9010E94335DF5CF2F923F924F925F926F927F928F929F92AF92BF92A9
:20582000CF92DF92EF92FF920F931F93CF93DF93CDB7DEB76B970FB6F894DEBF0FBECDBFFA
:205840001C017B876A874A8F7901088B198BDC0196968C91813049F4C90186569E4082395B
:20586000914018F4E8E0EE0EF11CFA8DF33071F5D1019796ED91FC9180899189E816F90640
:20588000F8F481E090E0E889F989918380836B960FB6F894DEBF0FBECDBFDF91CF911F9179
:2058A0000F91FF90EF90DF90CF90BF90AF909F908F907F906F905F904F903F902F90089589
:2058C000A889B9891D921C9281E0E1CF0E946C216C877D878E879F872A853B85F901EE0F20
:2058E000FF1FEE0FFF1FE20DF31DE153FD4F80819181A281B3814C855D856E857F85481B79
:20590000590B6A0B7B0BDB01CA01F10143A554A565A576A5481759076A077B0708F0C6C059
:20592000F901EE0FFF1FD101AE0FBF1FA155BE4F6D917C911197AB014F5F5F4F4D935C9358
:20594000E20FF31FE60FF71FEE0FFF1FE20DF31DE157FF4FF182E0824330510511F080E09A
:2059600096CF16E0129FC001139F900D112481579F4F20E833E042E050E063E070E0820D81
:20598000931D0E9493588A859B85FC01EE0FFF1FE20DF31DE155FE4F11821082189FF00134
:2059A000199FF00D1124E20DF31DEF56FF4F80819181A889B9898D939C931B8E4A845B8440
:2059C000A889B9892D913C91ACE3B0E00E9424586C877D878E879F878201000F111F410156
:2059E000800E911EF40127A530A9A8E2B0E00E9424582C853D854E855F85260F371F481F7C
:205A0000591F2C873D874E875F87CA01B90124E630E040E050E00E940258B901CA01690102
:205A20007A01A901D401D0967C936E939F97E889F98971836083F101A7A1B0A52A8D25503B
:205A40002330D8F112962D913C911397EFE76E2E712C020D131DF801E15CFD4F008111816A
:205A6000992493944017510710F0E2E09E2E9986420C531CF201E15FFD4FB080BA8ABB205B
:205A800029F1B91421F016962D913C911797401B510B57FF03C05195419551094217530790
:205AA000A8F4F201E156FD4F108259CFE889F989F182E082F1E0FB8F81CF14962D913C9172
:205AC000159766246A94FFE37F2EC3CF930150E040E02C873D874E875F878D909C90B12C35
:205AE000A12C281539054A055B05D1F0281539054A055B0508F0C5C0D30111969B01AC0183
:205B00000E9433586E8B7F8B888F998FA50194012F5F3F4F4F4F5F4F0E94025869017A0192
:205B2000980150E040E06C857D858E859F85681579058A059B05C1F09301681579058A0559
:205B40009B0508F0ABC02F5F3F4FD8010E9424586E8B7F8B888F998FA50194012F5F3F4F96
:205B60004F4F5F4F0E9402582C153D054E055F0519F4BA88B11095CF3A822982CE010A9659
:205B80009C838B8301979E838D832889398938872F83BB8CBB2009F48BC0CE0101960E94B9
:205BA000FD212A8D223009F09CC0D1019796ED91FC91828593854C01B12CA12C608571856E
:205BC0002B01712C612CE889F989408151814617570708F47CC04817590708F4CA019C01D3
:205BE00050E040E0411451046104710431F4FFE78F169104A104B10411F184189508A60849
:205C0000B708241935094609570960E886169104A104B10408F45EC0DA01C90127E0880F6B
:205C2000991FAA1FBB1F2A95D1F7A50194012F5F3F4F4F4F5F4FBC01CD010E940258A88927
:205C4000B9892D933C93C114D104E104F10451F02C853D854E855F852C153D054E055F054A
:205C600009F032CEEA85FB85EE0FFF1FEE0FFF1FE20DF31DE153FD4F108211821282138239
:205C800023CE2C853D854E855F850E94C7576E8B7F8B888F998FA50194013ECFD8010E9424
:205CA00024586E8B7F8B888F998FA50194015ACFF201E156FD4F80818F5F8083D101999659
:205CC0002D913C918217130608F449CE66CFA3019B0188CFAFE7B0E00E943358A50194011A
:205CE000ACCFE889F989D182C082ADCF2F923F924F925F926F927F929F92AF92BF92CF928B
:205D0000DF92EF92FF920F931F93CF93DF93CDB7DEB760970FB6F894DEBF0FBECDBF8D8371
:205D20009E83922EED81FE81ED57FE4F9081992309F4D5C0AD81BE81AA57BE4FFD0101909B
:205D40000020E9F73197EA1BFB0BA22EB12C95012E0F311D2632310514F0E6E2E919AD8118
:205D6000BE81AF57BE4F8C912D813E812A573E4F69016E2E712C882361F1F12CE12CAD8042
:205D8000BE803EE7A31A3EEFB30A062F10E0E614F7040CF0A4C0D6012D916D01D501EC9129
:205DA000B4E0EB9FF00111242D803E80E20DF31DE00FF11FE255FE4F692D6E0DD1018D91B1
:205DC0009C91408105960E941E0BBFEFEB1AFB0ADECFE62EF12CE8E26E9F800111244130DB
:205DE00009F4AEC0D901B88AAF8630E020E0B701660F771F660F771F2D803E80620D731D9F
:205E0000655A7E4F261537055CF55D91EF85F889E00FF11F4D805E80E40DF51D538FA12CEF
:205E2000B12C6501A3940F8404C0AA0CBB1CCC1CDD1C0A94D2F7FB012080318042805380DA
:205E40002A283B284C285D2820823182428253822F5F3F4FEF85F8893196F88BEF87D2CF34
:205E6000055C1F4FED81FE81E00FF11F20E230E051915F7D11F04F5F892F2F5F3F4F2732BB
:205E80003105B1F79701220F331F220F331F2D803E80220D331DF901E559FE4F908188235B
:205EA000B1F191111CC04083F701E55AFF4FEE0FFF1FEE0FFF1FE20DF31D9082F901E359FD
:205EC000FE4F108222593E4FD9011C920E946C21F101E558FE4F60837183828393836096C0
:205EE0000FB6F894DEBF0FBECDBFDF91CF911F910F91FF90EF90DF90CF90BF90AF909F90A2
:205F00007F906F905F904F903F902F900895992331F31082BBE5EB0EF11CEE0CFF1CEE0C53
:205F2000FF1C2D803E802E0C3F1CD1011C92F901E359FE4F108222593E4FF9011082CFCF7F
:205F4000C80185549F4F4EE150E060E270E02D803E80820D931D0E943E5AF101E00FF11FEB
:205F6000E652FF4F1082D60190E080E00C5C1109861597054CF42D91F501EA0FFB1FE00FB3
:205F8000F11F20830196F4CF88E28E9DF0018F9DF00D11244D805E80E40DF51DEA0DFB1D53
:205FA000E60DF71DE554FF4F108281E0D2015A968C930E946C21ED81FE81628B738B848B68
:205FC000958BE55AFE4F8FEF9FEFDC0180839183A283B383ED81FE81E15AFE4F808391832E
:205FE000A283B383ED81FE81ED59FE4F80839183A283B3832D813E8129593E4FF9018083DB
:206000009183A283B3836BCF0F931F93CF93DF93EC01AB01DC011296FD0101900020E9F702
:206020003197EA1BFB0B8F01060F171F8881998101970817190758F4329660E270E0CE0143
:206040008E0F9F1F0E943E5AC00FD11F1A82DF91CF911F910F910895AF92BF92CF92DF922F
:20606000EF92FF920F931F93CF93DF93CDB7DEB7EE84FF8487010C5F1F4F9E012E5E3F4FBE
:206080004889598964E670E0C8010E94455A5801D12CC12CF80101900020E9F731979F0174
:2060A000201B310BD70112968D919C91DC01ED91FC910480F581E02DC216D306B0F4D50184
:2060C0006D915D01199581110CC080E0DF91CF911F910F91FF90EF90DF90CF90BF90AF906E
:2060E0000895BFEFCB1ADB0AD5CF03E010E0F70182819381DC01ED91FC910480F581E02D16
:206100006FEF1995882309F30150110981F7DECF1F93CF93DF93EC0184E59FE00E949A1E87
:206120008A819B81DC01ED91FC910190F081E02D1995182F882359F08FE698E09F938F9317
:20614000DF93CF9389DF0F900F900F900F90812FDF91CF911F9108957F936F9328E738E07F
:206160003F932F939F938F9377DF0F900F900F900F900F900F900895FB01248135812115FD
:20618000310531F1668177816115710509F1442301F1408551855F934F937F936F933F9334
:2061A0002F9323812F9322812F9321812F9320812F9320E838E03F932F939F938F934CDF58
:2061C0008DB79EB70E960FB6F8949EBF0FBE8DBF089542855385DFCFCF93DF93CDB7DEB7E4
:2061E0009E01265F3F4F4885598568E270E08E819F8102960E94455ADF91CF910895DF92C2
:20620000EF92FF920F931F93CF93DF93EC01D62EFC01ED57FE4F8081882309F450C08E017D
:206220000C571E4F780182E0E80EF11C91E0691709F44DC084E998E09F938F931F930F9328
:20624000CBDFF70101900020E9F73197EE19FF09A881B98195966D917C9177276E1B7F0BEA
:20626000C801D2DE20E040E060E0CE013FDD88E998E09F938F931F930F93AEDFF7010190B3
:206280000020E9F73197EE19FF09A881B98195966D917C9177276E1B7F0BC801B5DE20E081
:2062A00040E061E0CE0122DD8DB79EB708960FB6F8949EBF0FBE8DBFCD0DD11D1C86DF91D7
:2062C000CF911F910F91FF90EF90DF90089589E998E09F938F931F930F937EDFF70101907C
:2062E0000020E9F73197EE19FF09A881B98195966D917C9177276E1B7F0BC80185DE20E051
:2063000040E062E0CE01F2DC88E998E09F938F931F930F9361DFF70101900020E9F731975C
:20632000EE19FF09A881B98195966D917C9177276E1B7F0BC80168DE20E040E063E0CE01C3
:20634000D5DC8DB79EB708960FB6F8949EBF0FBE8DBFB2CF0F931F93CF93DF93CDB7DEB7CC
:2063600008851985D8011296FD0101900020E9F7CF018A1B9B0B01969E01245F3F4F4FE948
:2063800058E068E270E0800F911F0E94455ADF91CF911F910F9108950F931F93CF93DF93C6
:2063A000DC01862FB9018831C1F150F4843199F18731F9F080E0DF91CF911F910F910895E5
:2063C0008931C1F78091300F9091310F2091520F3091530FEC01E881F9810480F581E02D8E
:2063E00042E35FE056966C91DF91CF911F910F911994C42FD0E00091520F1091530FAE013C
:20640000C8018E5C904F0E94355AC00FD11FD093530FC093520F81E0CECF1092530F1092DD
:20642000520FF9CF2F923F924F925F926F927F928F929F92AF92BF92CF92DF92EF92FF92F5
:206440000F931F93CF93DF9300D000D00F920F92CDB7DEB78F839887962E30E020E040E0F4
:2064600065E0AF81B88512968D919C910E94C90869837A838B839C83672B682B692BD9F468
:20648000712C872D28960FB6F894DEBF0FBECDBFDF91CF911F910F91FF90EF90DF90CF90AA
:2064A000BF90AF909F908F907F906F905F904F903F902F90089530E020E041E065E0EF8113
:2064C000F885828193810E94C908562E21E030E041E065E0AF81B88512968D919C910E94B8
:2064E000C908662E24E030E041E065E0EF81F885828193810E94C90891101DC0EF81F885DB
:20650000ED57FE4F70807720B1F0EF81F885E654FE4F808158120FC0EF81F885E554FE4FA1
:206520008081681208C0EF81F885E454FE4F8081681709F4A6CFAF81B8850D911C91F80103
:20654000168215828CE294E0928781879487838796878587908B8787128E158E118A128A18
:20656000138A148A8FEF838F878F838194819093310F8093300FB1E06B121FC05B1291C1C0
:2065800023E231E13287218725E432E1348723872CEC31E3368725872FEC3AE0308B2787CF
:2065A00024E030E034A323A320E130E036A325A3633008F083C121E078C1F2E06F1271C1EA
:2065C00021E052126EC127E931E1D8011A963C932E93199725E432E11C963C932E931B972C
:2065E0002CEC31E31E963C932E931D972FEC3AE050963C932E931F9722E030E094963C930B
:206600002E93939720E130E096963C932E939597CFCF68EE73E080E090E00E94CE2582EB7D
:2066200098E09F938F93FF92EF92D6DDF80101900020E9F73197CF01801B910BEF81F88583
:20664000A081B1819596FC90F694E82FE695FE1A0F900F900F900F902394312CF801E40D82
:20666000F11D20812223F9F0D501EC91B4E0EB9FF00111244F815885E40FF51FE20DF31DF3
:20668000E255FE4F642D6F0DDA018D919C91408105960E941E0B62E370E080E090E00E9415
:2066A000CE254394DBCF60ED77E080E090E00E94CE2522E030E040E065E0EF81F8858281F6
:2066C00093810E94C90869837A838B839C83672B682B692B09F498C0D6018C91882309F473
:2066E00093C0EF81F8858081918105960E94C60BAF81B885ED91FC91DD24D39483A1843081
:2067000009F0D12CEF80F884BCE7EB1ABEEFFB0A8BEB98E09F938F93FF92EF925DDD870128
:206720000E5F1F4FF80101900020E9F73197CF01801B910BEF81F885A081B18195962C91FD
:206740002695E82FE6952E1B41E06D2D8F819885CDDA1F928AE08F931F921F921F9285E05F
:206760008F9389EC98E09F938F93FF92EF9234DDF80101900020E9F73197CF01801B910B3A
:20678000EF81F885A081B18195962C912695E82FE6952E1B61E06D0D41E08F819885A6DAB2
:2067A00063E072E08EEF9EE00E942E5A8EEF9EE09F938F9387ED98E09F938F93FF92EF927E
:2067C0000BDDF80101900020E9F73197CF01801B910BEF81F885A081B18195962C91269595
:2067E000E82FE6952E1B62E06D0D41E08F8198857DDA60ED77E080E090E00E94CE250FB68F
:20680000F894DEBF0FBECDBFD4011C9223E030E040E065E0EF81F885828193810E94C90884
:2068200069837A838B839C83EF81F885E058FE4F81E029813A814B815C81232B242B252B74
:2068400009F480E0808322E030E041E065E0AF81B88512968D919C910E94C908A8EEB3E064
:206860009B01AC010E94335869837A838B839C83AB01BC018F8198850E94412460E08F819F
:206880009885BDDC61E08F819885B9DCEF81F885E654FE4F5082EF81F885E554FE4F6082A4
:2068A000F0CD633008F0ECCD20E0F801E60FF11D3081F801338F222309F4E2CDDC01ED9123
:2068C000FC910190F081E02D1995782E882309F4D7CD7801B5E0EB0EF11CD8011996ED9162
:2068E000FC9130E020E040E069E0C7011995D8011996ED91FC9130E020E040E06AE0C70147
:206900001995C7010E94C60BD8011996ED91FC9130E020E040E06BE0C7011995EF81F8851D
