:020000040000FA
:2000000074C00000A3C00000A1C000009FC000009DC000009BC0000099C0000097C0000021
:2000200095C0000093C0000091C000008FC000008DC000008BC0000089C0000087C0000050
:2000400085C0000083C0000081C000007FC000007DC000000C94A01779C0000077C0000094
:2000600075C000000C9434170C94D2160C948B166DC000000C94AC1869C0000067C00000B6
:2000800065C0000063C0000061C000005FC000000C940A170C949A160C947C1657C000007E
:2000A00055C0000053C0000051C000004FC000004DC000004BC0000049C0000047C00000D0
:2000C00045C0000043C0000041C000003FC000003DC000003BC0000039C0000037C0000030
:2000E00035C00000DC910000CC3E11241FBECFEFD1E2DEBFCDBF00E00CBF17E0A0E0B2E034
:20010000E4E1FCE800E00BBF02C007900D92A83CB107D9F725E1A8ECB7E001C01D92A13BAB
:20012000B207E1F710E0C5E7D0E000E006C021970109802FFE010E941B43C437D10780E099
:200140000807A9F70E9450330C94084659CF6E5D7E4F660F771F860F971FFC0111821082A5
:200160000895CF92DF92EF92FF920F931F93CF93DF93EC018B01FB01EE0FFF1F7C01EE0ECD
:20018000FF1E8CEBE81A8DEFF80AD7018D919C911197BC016F5F7F4F6D937C93DF01A00F89
:2001A000B11FA80FB91F1296AA0FBB1FAC0FBD1F4D935C938A819B816817790709F05FC001
:2001C000D9011D921C9286E0809FD001819FB00D112414966D01CC0EDD1E40E050E06A8158
:2001E0007B81D9018D919C914617570760F4D6016D917D916D01860F971FD9018D939C930A
:200200004F5F5F4FECCF0E94CC42D9016D937C938A819B810297E9F0E00FF11F3196EE0FD2
:20022000FF1FEC0FFD1F4481558166E0609FD001619FB00D1124AC0FBD1F15965C934E93D4
:200240001497019731F018968D919C91199795838483F901208131810F5F1F4F46E0409F44
:20026000C001419F900D1124C80FD91F3983288382E090E0D7018D939C9381E001C080E05A
:20028000DF91CF911F910F91FF90EF90DF90CF9008950F931F93CF93DF930AE31DE0C0E013
:2002A000D0E0A091360DB091370DF80191918F01957041E0953009F040E0ED91FC91119733
:2002C0000190F081E02DBE01CD0119952196C835D10539F7DF91CF911F910F910895FF92CC
:2002E0000F931F93CF93DF93CDB7DEB72C970FB6F894DEBF0FBECDBF8831910508F473C035
:200300002091250E222309F478C008E110E0081B190B0034110508F070C0F62E980145E00B
:2003200066E080911D0E90911E0E0E94AC2B7A876987980146E066E080911D0E90911E0EF6
:200340000E94AC2B9B017C876B878091230E9091240E49855A858417950721F0281739078A
:2003600009F04BC0980141E066E080911D0E90911E0E0E94AC2B7A836983980142E066E08D
:2003800080911D0E90911E0E0E94AC2B7C836B83980143E066E080911D0E90911E0E0E9441
:2003A000AC2B7E836D83980144E066E080911D0E90911E0E0E94AC2B78876F83E0912A0ED6
:2003C000F0E0EE0FFF1FE35EF14F81859285DC01ED91FC910084F185E02D4F2DBE016F5F9C
:2003E0007F4F19950AC02FB7F894FC01E152F84F608381E08093DE072FBF2C960FB6F89491
:20040000DEBF0FBECDBFDF91CF911F910F91FF9008950E948A196F927F928F929F92AF92B0
:20042000BF92CF92DF92EF92FF920F931F93CF93DF93DC015C91651708F04BC15596ED91AC
:20044000FC915697B7E06B9FE00DF11D11245081451708F03EC1A180B280EBE04E9FA00C76
:20046000B11C1124D501ED91FC912E173F0708F030C17801E9016C010E94EB29D501129621
:200480002C91213011F54B015C018C0E9D1EA11CB11CD60157968D919C915897DC01ED9167
:2004A000FC910680F781E02D01E09701B501A4011995882309F40DC1F70180819181A2817E
:2004C000B3819927AA27BB2729C0213060F1223009F498C0F601A789B08D233009F0D5C0FE
:2004E000CC0FDD1F4B015C018C0E9D1EA11CB11CED91FC9111970680F781E02D03E0970164
:20050000B501A401CD011995882309F4E2C0F70180819181A281B381AA27BB27808391838E
:20052000A283B383D8C03E0113E0769467941A95E1F74B015C01860C911CA11CB11CF601A1
:20054000828D938DA48DB58D88169906AA06BB06E1F47724B3E0660C771CBA95E1F7C6193D
:20056000D709CC0DDD1D9D85818D892341E050E060E070E019F440E050E0BA01D7014D933B
:200580005D936D937C931397A6C0F6018789908DDC01ED91FC910680F781E02D00E09701BD
:2005A000B501A4011995882309F493C0F7018081D60159968C937724A3E0660C771CAA95F7
:2005C000E1F7C619D709CC0DDD1D8D8590E0A0E0B0E0408151816281738184239523A6238D
:2005E000B72341E050E060E070E0892B8A2B8B2B19F440E050E0BA01F70140835183628395
:20060000738369C09E01369527954B015C01820E931EA11CB11CF601828D938DA48DB58D88
:2006200088169906AA06BB0671F4818D90E0A0E0B0E0C0FF3FC054E0B595A7959795879559
:200640005A95D1F737C08789908DDC01ED91FC910680F781E02D02E09701B501A401199549
:200660008823B9F1F7018081D60159968C93C0FF26C080819181A281B38144E0B595A7958E
:20068000979587954A95D1F716C0CC0FDD1FCC0FDD1FAB01BC014C0F5D1F611D711DED911D
:2006A000FC9111970680F781E02D04E09701CD01199519C0F70180839183A283B383F701C7
:2006C00080819181A281B3818F709927AA27BB2725CF80E008C0D6015A968D929D92AD92CE
:2006E000BC925D9781E0DF91CF911F910F91FF90EF90DF90CF90BF90AF909F908F907F9070
:200700006F9008953F924F925F926F927F928F929F92AF92BF92CF92DF92EF92FF920F931E
:200720001F93CF93DF93EC0119821A821B821C821D821E821F8218866115710509F4B5C1F7
:20074000442309F4B2C17E8B6D8B488337E0432E512CC12CD12C4BE0342E888190E0C81623
:20076000D9060CF0A4C1820107501109E12CF12C612C712C812C912C5401ED89FE89E00F46
:20078000F11F808190E0681679060CF0E6C00180F281E02D6114710429F41782108611866B
:2007A000128645C08FEF860DDF012BE0829FA00DB11D112412962C9112978D919C911197CE
:2007C000EE0DFF1D17964D915D916D917C911A97213029F138F02230B1F02330E1F4880F88
:2007E000991F1DC0A1E0B0E09C0127703327232B11F4A0E0B0E023E0969587952A95E1F781
:200800008A0F9B1F0CC09C012170332796958795820F931F04C0880F991F880F991F480FEE
:20082000591F611D711D4783508761877287AD89BE89A00FB11F1196ED91FC911297EE0D60
:20084000FF1D808191814D815E816F817885480F591F611D711D4D835E836F8378871196AB
:20086000ED91FC911297EE0DFF1D62818F89988D6623F1F0623009F04BC0DC01ED91FC91A5
:200880000284F385E02D62E01995ED89FE89E00FF11F0180F281E02DEE0DFF1D20813181F6
:2008A000A9014170552736952795240F351F42C0DC01ED91FC910284F385E02D60E0199570
:2008C000BC01ED89FE89E00FF11F0180F281E02DEE0DFF1D808191819C012770332741E085
:2008E00050E0232B11F440E050E0B3E096958795BA95E1F7840F951F869F9001879F300DC4
:20090000969F300D1124820E931EA11CB11C1EC0DC01ED91FC910284F385E02D1995ED8970
:20092000FE89E00FF11F0180F281E02DEE0DFF1D20813181FC01E29FC001E39F900DF29FD7
:20094000900D1124880E991EA11CB11CFFEF6F1A7F0A2BE0E20EF11C10CF89819A81AB81B6
:20096000BC81880E991EAA1EBB1E89829A82AB82BC828F89988DDC01ED91FC910280F3819F
:20098000E02D199586169706A806B90608F08DC0ED88FE88D701A00FB11F8C9190E001973A
:2009A000389E9001399E300D112411968D919C911297820F931FFC0187809084A184B28436
:2009C00013964D915D916D917C911697480D591D6A1D7B1D4E8F5F8F68A379A311960D90CA
:2009E000BC91A02DA20FB31F12962C9112978D919C91213059F138F02230B1F0233011F5F2
:200A0000880F991F23C021E030E0DC01A770BB27AB2B11F420E030E0F3E096958795FA9529
:200A2000E1F7820F931F12C09C012170332796958795280F391FDB01CA01820F931FA11DC3
:200A4000B11D0CC0880F991F880F991F8A019B01080F191F211D311DD901C8018E8F9F8F6E
:200A6000A8A3B9A3C114D10439F4D70113961D921D921D921C921697888190E00197C81620
:200A8000D90664F48E8D9F8DA8A1B9A1ED89FE89E40DF51D83839483A583B683BFEFCB1A24
:200AA000DB0AE7E04E0E511C58CE80E001C081E0DF91CF911F910F91FF90EF90DF90CF901D
:200AC000BF90AF909F908F907F906F905F904F903F900895FF920F931F93CF93DF9300D069
:200AE0001F92CDB7DEB78C01F62EFC01E454FF4F0190F081E02D309711F0862F1995F801C5
:200B0000E054FF4F0190F081E02D309751F019821A821B821C828FE08983FA82CE0101966D
:200B200019950F900F900F900F90DF91CF911F910F91FF9008956D3F28F46A3F28F4683F0B
:200B400019F008956E3F08F0C5CF0895AF92BF92CF92DF92EF92FF920F931F93CF93DF937B
:200B600000D01F92CDB7DEB77C01162FFC01E455FF4F8081882321F0003130F40F5F0EC047
:200B80008FEF800F803150F0F701E655FF4F8081882309F44DC0349610824AC017FFF4CFE1
:200BA000113E08F040C04F77D42E2F77C22E0150012B57018CEBA80EB11CD501ED91FC91E0
:200BC00011973097C9F052978C91882329F014968C91801719F00C93802F1995D501ED916C
:200BE000FC918D2D1995812F8F7E803C29F0D501ED91FC918C2D1995F701E054FF4F01901B
:200C0000F081E02D3097A1F0612F70E084E0759567958A95E1F769830A83DB82CC82CE01CA
:200C20000196199505C0163F18F0612FC70183DF0F900F900F900F90DF91CF911F910F91F7
:200C4000FF90EF90DF90CF90BF90AF9008950F93022F242F462F60EB79DF0F9108950F9370
:200C6000022FFC01E754FF4F2081213021F4242F462F60E803C0242F462F60E967DF0F91EC
:200C8000089560FF02C0406801C04F7770E075956795762F6627642BFC01718360830895DF
:200CA000292F30E0220F331F87FF03C02F77216001C02E77FB0120838F77FA018083089533
:200CC0004F925F926F927F928F929F92AF92BF92CF92DF92EF92FF920F931F93CF93DF9340
:200CE000CDB7DEB7A1970FB6F894DEBF0FBECDBF882329F0813031F41091810E0DC0109124
:200D00002C0E07C0882321F0813049F410E004C010E080902D0E0CC08090820E0CC0882356
:200D200029F0813059F410E0812C05C010E0812CF0902E0E0FC0F090830E23C0882339F04A
:200D4000813009F06DC110E0812CF12C1AC010E0812CF12C40902B0E103B09F412C138F41D
:200D6000103809F4E7C0103909F05AC10AC1183F09F4F4C01A3F09F4E7C0103C09F050C104
:200D8000CEC04090800E103C09F4C9C050F4103909F4F7C0103B09F4F4C0103809F040C116
:200DA000C9C0183F09F4DAC01A3F09F4CDC0103F09F036C181E00E94BB1D2091E90930915B
:200DC000EA09232B79F02091EB09222359F08830910540F02091840E203F21F4BC0184E8D8
:200DE0009EE019D780912D0A882309F419C15E0181E1A80EB11C8FE0F50111928A95E9F770
:200E000080EF898B8FE78E8B82E08F8B81E0888F97EF9F8F909156099A8B909157099B8BCC
:200E2000909158099C8B90E1EAE6F6E0DE01119601900D929A95E1F7E091FC09F091FD0938
:200E400007A58093E80910E08091FC099091FD09FC0125A5121708F046C0612F0E94C521AF
:200E6000812F90E0988B8F8740E068E070E0CE01019681D689E6882E83E0982EE12CF12C2C
:200E8000E98EC12CD12CF401808190E0C816D906F0F4F4E0EF16F10421F482E0C816D104F2
:200EA00090F0CA8E8091E9099091EA09892B59F08091EB09882339F08989803F21F46FE038
:200EC00070E0C501A8D6EFEFCE1ADE0ADCCFFFEFEF1AFF0A83E0880E911CE7E0EE16F104BF
:200EE00079F61F5FB1CF602F0E94C521602F70E0788B6F8740E068E070E0CE0101963BD667
:200F00008BE190E099A388A341E061E070E0CE01809631D61092E80910922D0A81C0FFE064
:200F2000F41500F187FC1EC0E42DF0E0EE5EF74F808218C0E12C042D20E0482D60E886E3A5
:200F40009DE00E944E286CC0E3E0FEE08EE09EE021E0119226878E179F07D9F781E00E94D4
:200F60003A1D5EC0E12C042D2F2D482D60EC86E39DE00E944E28682D86E69FE00E94C5219B
:200F80004FC0E12C042D2F2D482D612F86E39DE00E944E28103B09F043C00CE51AE0C12C86
:200FA000D12C512C612C712C912CA12CB12CEF2CF12CA60167E086E69FE00E94AD30672B04
:200FC000682B692B21F1A60162E086E69FE00E94AD306330710581059105C9F4A60164E0B8
:200FE00086E69FE00E94AD30641575058605970571F4A60163E086E69FE00E94AD30681537
:2010000079058A059B0519F4F801F386E286FFEFCF1ADF0A0E5F1F4F8FE0C816D10449F640
:20102000A1960FB6F894DEBF0FBECDBFDF91CF911F910F91FF90EF90DF90CF90BF90AF90A8
:201040009F908F907F906F905F904F900895FC018081918180FF02C0906801C09F77918395
:2010600090E095958795808320E030E0382F8181282B338322830895CF93DF93EC01CA0167
:20108000EA81FB81E855FF4F0190F081E02DE454FF4F11821082EA81FB81E855FF4FAB0106
:2010A000BC01808191810E94D62B63E08A819B810E94611F882369F0EA81FB81E855FF4FBB
:2010C0000190F081E02DE454FF4F89E39EE191838083DF91CF910895FC018281238130E058
:2010E000220F331F87FF03C02F77216001C02E7720838F77818308952F923F924F925F92E9
:201100006F927F928F929F92AF92BF92CF92DF92EF92FF920F931F93CF93DF93CDB7DEB7B4
:2011200028970FB6F894DEBF0FBECDBFFC01542E69017801623009F429C130F4662369F0C8
:20114000613009F407C166C3643009F4EDC108F467C1663009F41FC35DC30281138121E000
:20116000421709F498C0421728F032E0431709F4B2C087C381E0C81651F0C816B0F092E0BB
:20118000C91609F444C0A3E0CA16F1F0D0C0F801E855FF4F0190F081E02DE655FF4F81E01E
:2011A000E114F10479F480E00DC0F801E855FF4F0190F081E02DE754FF4FE114F10409F4A8
:2011C0004FC081E08083B3C0E114F104E1F042E15AE760E070E081E00E940316D801A85588
:2011E000BF4FED91FC911197E654FF4F85EB9EE191838083ED91FC91E454FF4F85E39EE128
:201200009183808394C081E00E94C81590C063E0C801E114F10431F50E94611F882309F44D
:2012200086C042E15AE760E070E081E00E940316F801E855FF4FA081B181A654BF4F85EB09
:201240009EE18D939C93A081B181A454BF4F85E39EE18D939C930190F081E02DE555FF4F9A
:20126000108265C00E94611F882309F460C0F801E855FF4F0190F081E02DE555FF4F81E051
:201280008083C8010E94541F8330910511F484E090E0BC0149C0CC2029F0B2E0BC1508F421
:2012A000F0C2B6C2E5E0EE16F10408F0B3C2F3E0EF16F10419F464E0E62EF12C63E0C8017E
:2012C0000E94611F882399F162E0C8010E94611F811129C02CC0CC2021F021E0C216A1F0BC
:2012E000D0C2F801EA55FF4F80819181DC019D962D913C919E973327E216F30608F08AC264
:201300006E2D0E94C52184C2B2E0EB16F10408F0B8C26E2D6170F801EA55FF4F8081918165
:201320000E94802175C2B701C8010E94741FA70160E070E0F801E50DF11DE852FF4FD801EB
:20134000AA55BF4F7A018B019601408160E08D919C91E5C0A280B380E4E04E1303C0F1E0E3
:20136000EF1AF10800E010E0F501E50DF11DE552FF4F9601408161E0F501EA55FF4F808103
:2013800091810E94742A81117EC27BC2A280B380B3E04B1749F0E7E04E1328C0D5011796D6
:2013A0008C91823009F436C2F5018781813021F5E50DF11DE052FF4FA6016081F501EA5567
:2013C000FF4F808191810E94AD307C836B83CE01019682DEF3E05F1202C0EA8201C0E982DC
:2013E000CE01019634DEEB80FC8006C024E0421303C031E0E31AF10800E010E0F501E50DED
:20140000F11DE052FF4F9601408162E0F501EA55FF4F808191810E94742A811169C231C21E
:20142000A280B38085E04817E9F1841768F193E04917C1F1941780F1A2E04A135BC0F50134
:20144000E255FF4FA081B181CD01820F931FFC01EA5AFE4F1082F9017B96EE0FFF1FEA0F64
:20146000FB1F11821082FC01EA50FF4F108298968D919C919997DC01ED91FC910280F3818F
:20148000E02DB60119953CC0B7E04B1759F04B1718F0E8E04E132EC0D50117968C918230C9
:2014A00009F4B8C1F5018781813051F5E50DF11DE751FF4FA6016081F501EA55FF4F80812F
:2014C00091810E94A9307C836B83CE01019604DEF5E05F1631F027E0521619F033E05312EF
:2014E00002C0EA8201C0E982CE010196B0DDEB80FC8006C0B9E05B1203C0E1E0EE1AF10867
:2015000000E010E0D501A50DB11DA751BF4FF501EA55FF4F96014C9163E0808191810E94B0
:20152000742A91E0892780C2A280B380F3E04F1709F4D1C0F41778F021E04217F1F02417A5
:2015400050F1F501E055FF4F402F6C2D808191810E9436275DC135E0431709F4BCC0C501EB
:201560008A559F4F4C01431708F460C097E0491303C1F1E0EF1AF108AEC0012B11F440E0B2
:2015800001C045E0F501E055FF4F6C2D808191810E94B0273DC1A1E0CA1639F1CA1620F04E
:2015A000B2E0CB16E9F06DC10230110508F069C1202FF501E055FF4F80819181FC01EB5430
:2015C000FF4FAC01013019F04E535F4F02C049545F4F51834083FC01EC54FF4F20831AC0DB
:2015E0000230110508F04DC115C02AE0201708F448C1F501E055FF4F0190F081E02D8081F9
:201600009181DC01ED91FC910680F781E02DB80177271995870120E030E0D501AB50BF4F49
:20162000F501EA55FF4FA6016C91A3C03501B0EB6B0E711CB601F301808191810E942227A0
:2016400040E0BC01D3018D919C910E942C2740E0682FF301808191810E943627B601D30151
:201660008D919C910E94222741E0BC01F301808191810E942C2740E0682FD3018D919C9184
:201680000E943627B601F301808191810E94222742E0BC01D3018D919C910E942C2740E08F
:2016A000682FF301808191810E943627B601D3018D919C910E94222720E030E0AC01F50119
:2016C000E950FF4F6081F401808191810E94B1308111A2C0D6C0150120EB220E311CB60138
:2016E000D1018D919C910E942227F501EA55FF4FFE83ED83AC01EF5AFF4F6081AD81BE81DC
:201700008D919C910E94A5303701812C912C252D30E0672B682B692B09F1F12CA20EB31EB2
:20172000B3EFAB0EB11CB601F101808191810E9422274F2DBC01D1018D919C910E942C278F
:2017400094018301AC01F5016081AD81BE818D919C910E94B130811162C193C0A20EB31E28
:20176000F501ED50FF4F94018301A6016081ED81FE81808191810CC020E030E0A40EB11CEC
:20178000F501ED50FF4FA6016081D4018D919C910E94B130C6CEA280B38041110CC0211560
:2017A000310521F02130310541F005C0012B29F482E0982E04C0912C02C09924939400E0ED
:2017C00010E0F501E50DF11DE350FF4F9601408166E0F501EA55FF4F808191810E94742A2E
:2017E000882309F44EC0E1E09E1208C0F501EC54FF4F808191810E949C260AC0F2E09F12B2
:2018000007C0F501EC54FF4F808191810E947A2680E00AC182E008C1012BD1F3F12C95012F
:201820002A503F4F3E832D83C50188509F4F98878F839AEFA90EB11CA601AD81BE816C9154
:20184000F401808191810E94A5301B012C01B601D3018D919C910E9422274F2DBC01F301D2
:20186000808191810E942C2792018101AC01AD81BE816C91F401808191810E94B130811117
:201880007EC081E0D1C021E0251510F2F501E655FF4F208131814C2D4695469546955C2D76
:2018A00088E0489F5019112481E090E0A0E0B0E004C0880F991FAA1FBB1F5A95D2F78095D7
:2018C000F901E40FF11D96859823968796A1892386A3D90112968D919C911397B601772742
:2018E000DC01ED91FC910280F381E02D199590CFF501E455FF4FE080F18086011127A8013A
:2019000062E0D70112968D919C9113970E94AD3098012B5F3F4F653071058105910559F46C
:20192000C901880F991FF701E80FF91F80E090E29183808308C0C901880F991FF701E80FCE
:20194000F91F11821082F8013A96EE0FFF1FEE0FFF1FEE0DFF1D108211821282138267017E
:20196000C00ED11EF601EC59FF4F10827E9610823F9610823F9610823F96108249CFA601F4
:20198000EF81F8856081D4018D919C910E94A5301B012C01B601F301808191810E942227F0
:2019A0004F2DBC01D3018D919C910E942C2792018101AC01EF81F8856081D4018D919C912A
:2019C0000E94B130882309F45CCFA601F5016081D4018D919C910E94A5301B012C01B6019C
:2019E000F301808191810E9422274F2DBC01D3018D919C910E942C2792018101AC01F501F0
:201A00006081D4018D919C910E94B130882309F438CFF394B3E0FB1609F4FACE0DCFF39440
:201A2000E3E0FE1280CEF4CE28960FB6F894DEBF0FBECDBFDF91CF911F910F91FF90EF9090
:201A4000DF90CF90BF90AF909F908F907F906F905F904F903F902F9008959091EF098091AB
:201A6000F009E091E909F091EA0923E0929FE00DF11D11240180F281E02D97E0899FE00DA5
:201A8000F11D112482819381448155818417950761F02091F4093091F5092817390738F0B5
:201AA00081E04217530720F402C081E0089580E00895982F8F7C803849F0903D39F081E027
:201AC000903E31F0903C21F080E0089581E00895089587FF0CC09CE0980F923040F0982F74
:201AE0009B7F993F21F0803F18F4807F089580E00895CF93DF931F921F92CDB7DEB720917F
:201B00005D092230C1F4AE014F5F5F4FBE016E5F7F4FC6D88091E5099091E609FC01EA5A05
:201B2000F64F2A81218702969093E6098093E509898182871AC0803F910541F0873F910593
:201B400029F08038910510F08FE790E02091E5093091E609A9014F5F5F4F5093E60940933E
:201B6000E509F901EA5AF64F818781E00F900F90DF91CF91089520EF20935F0922E030E0A4
:201B80003093E6092093E509E0915B09F0915C0920812093600923E030E03093E609209302
:201BA000E50921812093610924E030E03093E6092093E509228120936209442321F021E0D7
:201BC0002093630902C01092630926E030E03093E6092093E50910926409FC0120E030E091
:201BE00026173707A9F08091E5099091E609AC014F5F5F4F5093E6094093E509408132969D
:201C0000DC01AA5AB64F19964C932F5F3F4FE8CF81E00C94D11D2F923F924F925F926F9229
:201C20007F928F929F92AF92BF92CF92DF92EF92FF920F931F93CF93DF93CDB7DEB72A97C9
:201C40000FB6F894DEBF0FBECDBF9B0121503109FC01E20FF31F4081473F09F0BFC3663896
:201C6000710508F0BBC341E04093EC0943E04093ED0942E04093EE091092EF091092F00982
:201C80001092F1091092F3091092F2091092F5091092F409FC01AFE5B9E08C01060F171F2C
:201CA000E017F10719F041914D93FACF3093E6092093E509E0915B09F0915C095091600959
:201CC000408154138BC3509161094181541386C3509162094281541381C36B017C0180911D
:201CE0006309882311F082E0E5C048E0C416D10409F4D2C05BE0C516D10410F48BE0DEC067
:201D00008091E709811102C083E0D8C0D70115968C9115978093F10916969C911697909371
:201D2000ED0917962C9117972093EE0918964C9118974093EF0919963C913093F0099330EB
:201D400010F084E0BBC05091EB09451710F086E0B5C0E091E909F091EA09B3E04B9FE00D57
:201D6000F11D11244081341710F087E0A7C0223010F085E0A3C042E8480F423020F49D7F09
:201D800009F09BC0B8C0213071F4A181B281E7E03E9FA00DB11D11241696EC9116978E179D
:201DA00008F08BC010C0811188C080915D0990E0880F991F0B96C816D90609F09FCF81E0DA
:201DC0008093630935C0992311F0923031F480915D0990E0880F991F21C04D915C91609118
:201DE0005E0970E06417750790F490E0DC011196F0E0AE17BF0751F4689FF001699FF00D20
:201E0000789FF00D11244E1B5F0B01C0AB0130915D09349FC001359F900D11240B96C81659
:201E2000D90609F06BCF81E080936309211166C080915D09823059F4D7011B964C911B97CA
:201E40001A966C9182EF99E00E94410607C0F701828590E09093F3098093F2098091ED0998
:201E6000813009F04BC080915D09823059F4D7011D964C911D971C966C9184EF99E00E94DE
:201E800041063CC0F701E80FF11D828590E09093F5098093F40932C080916509823009F43A
:201EA000E8C108F022C2811115C28091E709811104C283E0809363091AC088E08093630938
:201EC00081E08093EC0983E08093ED0982E08093EE091092EF091092F0091092F10910924E
:201EE000F3091092F2091092F5091092F40980E00E94D11D73C221116ACF57CF4090E50996
:201F00009091ED09892F8D7F09F0AFC12091F10982E8820F8230F0F43091EF098091F0097E
:201F2000E091E909F091EA09B3E03B9FE00DF11D11240180F281E02D37E0839FE00DF11DF8
:201F40001124868141E04E832E3709F01E8251E0588703C018861E8281E0923061F410922A
:201F6000630991E0909365091092ED0940905D09440C40944C0CA12CB12CEE24E394F12C59
:201F8000812C912C282E312C512CA214B3040CF016C15092E6094092E5098885882321F00D
:201FA000A092F109A09264098091EE09813039F5E0905E098091F109F12C8E9D40018F9DD8
:201FC000900C11249091EF098091F009E091E909F091EA09A3E09A9FE00DF11D11240180C9
:201FE000F281E02DB7E08B9FE00DF11D112480819181E80CF91C8E159F0508F47C0164012F
:20200000EAE0EF83CE14DF0408F0D2C09091ED098091EE09911151C0811130C02091F20935
:202020003091F3096091EF094091F009E091E909F091EA0953E0659FE00DF11D1124018071
:20204000F281E02D87E0489FE00DF11D1124808191812817390710F089E030CF1A82198251
:202060008091590990915A09DC01ED91FC910190F081E02D8E010F5F1F4F14C01A821982FC
:202080008091590990915A09DC01ED91FC910190F081E02D8E010F5F1F4F96014091F00986
:2020A0006091EF091995813031F008F075C089819A811FDD77C08EE001CF811139C0609079
:2020C000F2097090F309B091EF09B987E091F009EA87E091E909F091EA0923E0B29FE00D9D
:2020E000F11D11240180F281E02D4A8537E0439FE00DF11D1124808191816816790608F09C
:20210000ABCFABDC811102C08AE0D8CE8091590990915A090091F4091091F509DC01ED91DB
:20212000FC910280F381E02D93014A85698531C0EC2DE81980915D09823061F4BF81EB2FDB
:20214000F0E0EA5AF64F4285618584EF99E00E94410609C0F0E0EA5AF64F838990E09093E3
:20216000F5098093F40979DC882371F28091590990915A090091F4091091F509DC01ED916F
:20218000FC910280F381E02D96014091F0096091EF091995813021F0823021F48DE08ECE65
:2021A0008CE08CCEBFEFCB1ADB0AEF81EE5F29CF80E00E94D11DFFEFAF1ABF0AE6CE2E8159
:2021C000222309F40BC180EF80935F0982E090E09093E6098093E509E0915B09F0915C0967
:2021E00080818093600983E090E09093E6098093E50981818093610984E090E09093E60917
:202200008093E50982818093620981E0809363098EE7809364098091ED09809365098091CE
:20222000EE09809366098091EF09809367098091F00980936809109269098CE090E09093F8
:20224000E6098093E50910926A0980915D09823009F04DCE10926B098EE090E09093E60936
:202260008093E50910926C0942CE18861E8281E082CE8091E709882309F41BCE81E0809341
:20228000630940915D09423041F4D092E609C092E509F901EA5AF64F11868091E509909129
:2022A000E6099C012F5F3F4F3093E6092093E509FC01EA5AF64F41871ACE1092E70981E0FA
:2022C000809363098091E809882309F410CE1092E8090DCE8130C9F591E09093E7098430E2
:2022E00011F49093E80981E0E5CD8430A9F340F58091E709882309F4DCCD81E080936309FB
:2023000080915D09823051F488E090E09093E6098093E509F901EA5AF64F11868091E5094B
:202320009091E6099C012F5F3F4F3093E6092093E509FC01EA5AF64F20915E092187D7CD97
:20234000853019F41092E809CECF6091F8097091F9094091F6095091F70920E030E090E065
:2023600062177307C9F1FA014D5F5F4FA081B181A817B90771F58091E709811103C08281CA
:20238000811197CD81E08093630980915D0989838FE599E09B838A8385EE99E09D838C83B1
:2023A0008091590990915A0960817181DC01ED91FC910480F581E02DAE014F5F5F4F1995AB
:2023C000813029F0823009F092CD8DE073CD8EE071CD2F5F3F4FC4CF84E06CCD2A960FB6FF
:2023E000F894DEBF0FBECDBFDF91CF911F910F91FF90EF90DF90CF90BF90AF909F908F9083
:202400007F906F905F904F903F902F900895DF92EF92FF920F931F93CF93DF931F92CDB7D5
:20242000DEB781116BC1E091E50EF091E60E309709F43DC21982CE0101961995082F88231C
:2024400009F435C219818091E00E9091E10E009709F0A4C01093DB0EF090D80E8F2D39DB29
:2024600028DB882361F017FD0AC0F092DB0E1093DC0E81E090E09093E10E8093E00E109102
:20248000DB0E812F26DB813F09F44AC020F5803B09F449C050F4803909F445C0803A09F44F
:2024A00042C0803809F0CAC03EC0803DC9F118F4803CB1F1C3C0803EB1F1803F09F0BEC0E7
:2024C00020E530E03093DF0E2093DE0E1092D80E80932F0E2EC0883F79F030F4833F01F1CA
:2024E00010F1863F49F0AAC08A3F08F4A7C08D3F18F08E3F08F4A2C080932C0E10922B0E20
:2025000010922D0E10922E0E81E080937F0E1092E10E1092E00E1092DF0E1092DE0EC8C138
:2025200022E030E002C023E030E03093DF0E2093DE0E2091E00E3091E10E4091DE0E509178
:20254000DF0EBA01615071092617370700F180932C0E1F701F5F8091D70E181B10932B0EDD
:202560008091DC0E80932D0E4330510529F48091DD0E80932E0E02C010922E0E1092E10EB0
:202580001092E00E1092DF0E1092DE0E1CC02F5F3F4F3093E10E2093E00EA7C017FF36C0D0
:2025A0001D3F38F41A3F38F4173F89F0183F71F502C01E3F58F110932C0E10922D0E1092BE
:2025C0002E0E10922B0E81E080937F0E71C140912F0E403F99F59C012F5F3F4FFC01E55D9E
:2025E000F14F148340932C0E20932D0E30932E0E10922B0E81E080937F0E1092E10E1092FB
:20260000E00E1092DF0E1092DE0E67C02091DB0EFC01E55DF14F203FE1F41483E090DE0E48
:20262000F090DF0E9701215031098217930708F457C0D090DB0E80EFD8120FC01092E10EA2
:202640001092E00E1092DF0E1092DE0E1092D80E2EC1E055FF4F1083E1CF8D2D3ADA182F7B
:2026600080932C0E26DA882349F08D2D8F708F5F9091D70E891B80932B0E02C010922B0EEF
:202680008091DC0E80932D0E83E0E816F10429F48091DD0E80932E0E02C010922E0E1092F1
:2026A000E10E1092E00E1092DF0E1092DE0E81E080937F0E103B71F038F4103959F0103AC9
:2026C00049F0103851F406C0103D21F0103E11F0103C19F4D092D80EEBC01092D80EE8C045
:2026E00001969093E10E8093E00E8091D60E882309F4DDC080E08BDE082FDAC0813009F0B2
:20270000D6C0E091E90EF091EA0E8DEE9EE01995082F882309F4CBC08091ED0E8295807F0F
:20272000803909F45FC030F58035A9F138F4803209F446C0803409F469C0B9C0803709F468
:202740008CC0803809F44EC0803609F0B0C08091E20E9091E30E9C01255D314FF901E75A5E
:20276000FF4F4091EE0E408331964091EF0E408302966EC0803C21F130F4803A99F1803B6C
:2027800009F095C02FC0803F31F0823F59F1803E09F08DC027C02091EE0E273F39F0209337
:2027A000810E1092800E1092820E19C08091E20E9091E30EFC01EC57F14F2083019648C07A
:2027C0008091EE0E8093810E8F708F5F9091D70E891B8093800E8091EF0E8093820E1092BF
:2027E000830E61C08093810E8091EE0E8F708F5F9091D70E891B8093800E8091EF0E80931F
:20280000820E8091F00E8093830E4DC04091EE0E403F21F41092E30E1092E20E2091E20E41
:202820003091E30EC901855D914FFC01E75AFF4F408331964091EF0E408331964091F00E1D
:2028400040832D5F3F4F3093E30E2093E20E2FC09093E30E8093E20E21C04091EE0E403F11
:2028600021F41092E30E1092E20E2091E20E3091E30EC901855D914FFC01E75AFF4F4083F0
:2028800031964091EF0E408331964091F00E40832D5F3F4F3093E30E2093E20E80EF809394
:2028A000810E1092800E81E08093D40E01C000E0802F0F90DF91CF911F910F91FF90EF90E6
:2028C000DF9008950F931F93CF93DF937FB7F894EC01CC5ADF4F48815981DC01AE5ABF4F2B
:2028E0002D913C9111977FBF42175307E8F44FB7F8948C01005B1F4FF80120813181FC01A7
:20290000E20FF31F6083C90101966D917C910E94CC42F801918380838881998101969983CF
:2029200088834FBF81E001C080E0DF91CF911F910F9108959FB7F894882369F08130A9F40B
:202940001092C8001092C9001092CA001092CD001092CC000AC01092C0001092C100109228
:20296000C2001092C5001092C4009FBF81E00895882319F0813039F008958091C10080628D
:202980008093C10008958091C90080628093C9000895CF93282F30E0F901EC51F74F90813A
:2029A00091110AC046E5429FC001439F900D11248056904FCF9186CFC82F46E5429FC001FC
:2029C000439F900D1124845B9F4E7CDF882319F08C2FCF91CDCFCF910895FFCFDF92EF92F4
:2029E000FF920F931F93CF93DF93D82E8B0186E5D89EE0011124C45BDF4E7E01E4E5EE0E05
:202A0000F11CC7010E942725811121C02FB7F894FE01EE5AFF4F60817181329780819181CA
:202A2000860F971FF70140815181841B950B0E94CC42C80FD91F8881F8018083F701808104
:202A400091810197918380832FBF81E011C0D11006C08091C1008F7D8093C10008C0F1E0A3
:202A6000DF1205C08091C9008F7D8093C90080E0DF91CF911F910F91FF90EF90DF90089544
:202A8000EF92FF920F931F93CF93DF93C82FD62FE82EF12C87010A51174FF80180818823DF
:202AA00061F026E52E9DC0012F9D900D112480569F4E0E942725811116C026E52E9DC001E0
:202AC0002F9D900D11249C01245B3F4E79016D2FC701F8DE8823D9F3C230A8F4F80110826B
:202AE0008C2F46DF10C0F8011082C11105C08FB7F894D093C60006C0C13029F48FB7F89463
:202B0000D093CE008FBF81E0DF91CF911F910F91FF90EF900895EF92FF920F931F93CF9342
:202B2000DF937C018B01EC01CC5ADF4FCE010E942725811120C02FB7F894F701EE5AFF4FAA
:202B400060817181329780819181860F971F48815981841B950B0E94CC42F701E80FF91FE2
:202B60008081F8018083888199810197998388832FBF81E001C080E0DF91CF911F910F91E6
:202B8000FF90EF900895823008F47ACF80E00895CF93823010F080E034C0C82FCBDE8823E3
:202BA000D1F32C2F30E0F901EC51F74F10829FB7F89466E5629FA001639F500D1124BA01B9
:202BC0006056704FFB01E05BFF4F118210823496118210829FBF9FB7F894445B5F4EFA0160
:202BE000E05BFF4F118210823496118210829FBFF901EA51F74F91E09083F901E05FF74F5C
:202C00001082CF910895CF92DF92EF92FF920F931F93CF93DF93C82FD0E0C05FD74F988114
:202C200091115FC06A017B01182FB2DF882309F458C0123008F055C0812F7CDE082F882319
:202C400009F44FC0D701C601B695A79597958795BC01CD0160587B47814E9F4FA7019601F9
:202C60000E94E04220FF11C0213080E13807410551055CF42150310982E0113019F0809359
:202C8000C00010C08093C8001FC0DA01C901B595A79597958795113091F01092C0009C01B6
:202CA000215031093093C5002093C400113081F086E08093C20088ED8093C1000FC01092C3
:202CC000C8009C01215031093093CD002093CC0086E08093CA0088ED8093C90081E08883D5
:202CE00001C000E0802FDF91CF911F910F91FF90EF90DF90CF9008951F920F920FB60F9233
:202D000011248F9381E08093E7088F910F900FBE0F901F9018951F920F920FB60F92112485
:202D20008F9381E08093E6088F910F900FBE0F901F9018951F920F920FB60F9211240BB6DA
:202D40000F922F933F934F935F936F937F938F939F93AF93BF93EF93FF93CF93DF931F92D5
:202D6000CDB7DEB7BE016F5F7F4F81E037DE882319F089818093CE000F90DF91CF91FF91CB
:202D8000EF91BF91AF919F918F917F916F915F914F913F912F910F900BBE0F900FBE0F90F0
:202DA0001F9018951F920F920FB60F9211240BB60F922F933F934F935F936F937F938F93CA
:202DC0009F93AF93BF93EF93FF93CF93DF931F92CDB7DEB7BE016F5F7F4F80E0FFDD882339
:202DE00019F089818093C6000F90DF91CF91FF91EF91BF91AF919F918F917F916F915F9188
:202E00004F913F912F910F900BBE0F900FBE0F901F9018951F920F920FB60F9211240BB6C5
:202E20000F922F933F934F935F936F937F938F939F93AF93BF93EF93FF936091CE0081E059
:202E4000A8DDFF91EF91BF91AF919F918F917F916F915F914F913F912F910F900BBE0F9086
:202E60000FBE0F901F9018951F920F920FB60F9211240BB60F922F933F934F935F936F93D1
:202E80007F938F939F93AF93BF93EF93FF936091C60080E07EDDFF91EF91BF91AF919F91E2
:202EA0008F917F916F915F914F913F912F910F900BBE0F900FBE0F901F9018951F93CF939F
:202EC000DF93182FEB01642F5EDE882301F16881812F59DE8823D9F06981812F54DE882326
:202EE000B1F06A81812F4FDE882389F06B81812F4ADE882361F06881898168278A81682769
:202F00008B816827812FDF91CF911F913CCE80E0DF91CF911F910895883028F08850909196
:202F20007B00986003C090917B00977F90937B0090917C00907F8F70892B80937C00089580
:202F40001F920F920FB60F9211240BB60F928F929F92AF92BF92CF92DF92EF92FF920F93B8
:202F60001F932F933F934F935F936F937F938F939F93AF93BF93CF93DF93EF93FF93909132
:202F80007E0381E0892780937E03882309F449C08091E0089091E108A091E208B091E30810
:202FA0000196A11DB11D8093E0089093E108A093E208B093E3088091DE07882391F1A2EFE8
:202FC000B5E0CFEDD7E062E576E041E050E0CD90DD90ED90FD90F601C092FB07D092FC0777
:202FE000E092FD07F092FE0789912091FD07882341F03081CA0101C0880F2A95EAF7832B07
:203000000AC090818A0102C0000F111F2A95E2F7802F8095892380836A177B07C1F61092E2
:20302000DE078091DC07853008F077C0809103088F5F80930308853011F41092030840E024
:2030400060E070E0812C912C54018394542F80E090E05E3159F46F5F7F4F485F4032B1F77E
:203060008091DC078F5F8093DC0757C014E0519FF0011124E658FA4FC080D180E280F3806A
:20308000F601C092FF07D0920008E0920108F09202083297208130E00090010802C03595D1
:2030A00027950A94E2F720FD18C020910308FB0134E0239FE00DF11D1124E853F84F208107
:2030C00075016401082E04C0CC0CDD1CEE1CFF1C0A94D2F7C22AC08219C020910308FB01FF
:2030E00004E0209FE00DF11D1124E853F84F308175016401082E04C0CC0CDD1CEE1CFF1CFF
:203100000A94D2F7C0942C2D2323208301965F5F8830910509F09DCF9ECFFF91EF91DF91BD
:20312000CF91BF91AF919F918F917F916F915F914F913F912F911F910F91FF90EF90DF9012
:20314000CF90BF90AF909F908F900F900BBE0F900FBE0F901F9018951F920F920FB60F92AD
:2031600011240BB60F92EF92FF920F931F932F933F934F935F936F937F938F939F93AF9340
:20318000BF93CF93DF93EF93FF9320917800309179009091FA0781E089278093FA078111B9
:2031A00083C0E2E5F6E06AE676E001E010E04081918182813496A42FB92FED014A9178011B
:2031C00002C0EE0CFF1C8A95E2F7C701942F982B98839C91809589238C936E177F0739F76F
:2031E0008091F907E82FF0E0EE0FFF1FEF50FB4E31832083208131813068318320838F5FAD
:203200008093F9078091F8078F5F803119F08093F8072EC01092F8078091F7078F5F86308F
:2032200019F08093F70704C01092F7071092F907E091F70784E0E89FF0011124EE5AF94F5E
:20324000A081B18182812C9191B3291781F02C9190910801291307C090E00896092E000C2B
:20326000AA0BBB0B04C08FEF90E0A0E0B0E054DE8091F80780FF02C0119A01C01198809168
:20328000F80781FF02C0139A01C013988091F80782FF02C0159A01C015988091F80783FFD2
:2032A00002C0179A01C01798E091F70784E0E89FF0011124EE5AF94F90818181A92FB82F49
:2032C0002E9181E090E0028002C0880F991F0A94E2F7809582238C9380917A0080648093F9
:2032E0007A00FF91EF91DF91CF91BF91AF919F918F917F916F915F914F913F912F911F9174
:203300000F91FF90EF900F900BBE0F900FBE0F901F901895F89484B7877F84BF80916000AF
:20332000806180936000109260008FE19EE40197F1F700C000001FBA10BE1CBC1DBA10920D
:20334000680010927A0010926E0010926F00109270001092710010927200109273001092D8
:20336000C0001092C8001092D000109230011092C1001092C9001092D10010923101109227
:20338000C2001092CA001092D200109232011092BC0012B815B818B81BB81EB811BA14BAAF
:2033A00010920201109205011092080110920B0111B814B817B81AB81DB810BA13BA109223
:2033C0000101109204011092070110920A0198E088E10FB6F894A895809360000FBE90931B
:2033E0006000FFCFCF93DF9300D01F92CDB7DEB7882341F0813039F567E48FEF9FE00E948C
:20340000934221C06FEF8FEF9FE00E94934281E089831A821B821C8242EFBE016F5F7F4F54
:2034200080E04CDD8091E6088823E1F380E090E001968333910539F0EFE9FFE03197F1F742
:2034400000C00000F5CF66DF7F928F929F92AF92BF92CF92DF92EF92FF920F931F93CF9314
:20346000DF931F92CDB7DEB7782E8B017A0186E0C82ED12C26E5729EC0011124FC01E056C6
:20348000F04F5F0199E0892E98E0992E1982F1E0F715A0F1BE016F5F7F4FC5013CDB882332
:2034A00069F18981E0910F08E630C0F02AE038E044E058E0DA01F90191919F019D938A1675
:2034C0009B06C9F7A9E0B8E0FA019191AF019D938E169F06C9F780930E0808C091E09E0F55
:2034E00090930F08F0E0E75FF74F808380910F08863021F0F1E0CF1AD10841F680910F0852
:20350000863009F03EC080910908982F9D7F913F11F0823FB1F5F701808380910A083091E2
:203520000B0820910C0890910D08F801808331832283938338272327922720910E082913AD
:2035400020C010920F081092090810920A0810920B0810920C0810920D0810920E08F70199
:203560009081923F61F4882321F0813051F480E039DF67E48FEF9FE00E949342CBDE81E021
:2035800001C080E00F90DF91CF911F910F91FF90EF90DF90CF90BF90AF909F908F907F9084
:2035A00008958E3B910508F5FC01EE5DF74F908197FF0FC09F77492F50E0262F30E02417B0
:2035C000350724F4892F861B682F49F4908360E006C0690F67FF03C0906890836FE780814E
:2035E0008078862B8083862F08958FEF0895CF92DF92EF92FF920F931F93CF93DF93E62E92
:20360000282F269526952695022F10E0085C144FF8019685D82FF8E02F9FD0191124292F03
:2036200030E00D2E02C0359527950A94E2F72170621709F416C241E050E060E070E00D2E85
:2036400004C0440F551F661F771F0A94D2F7EE2021F0492BF801468704C040959423F801BB
:203660009687C82ED12C960141E061E080913C0B90913D0B0E94AC2BC62F603109F4E1C1E2
:20368000960140E061E080913C0B90913D0B0E94AC2BC63099F038F4C13070F0C330D8F140
:2036A000C43050F038C0C13109F4BBC118F4C03118F431C0C63178F1613069F5EE2009F41F
:2036C000C0C1F80126A1822F90E00D2E02C0959587950A94E2F780FF10C081E090E0A0E02E
:2036E000B0E004C0880F991FAA1FBB1FDA95D2F78095822386A3E12C0EC081E090E0A0E03D
:20370000B0E004C0880F991FAA1FBB1FDA95D2F7822BF80186A3960142E061E080913C0B0A
:2037200090913D0B0E94AC2BF62E960144E061E080913C0B90913D0B0E94AC2BD62F9601B1
:2037400043E061E080913C0B90913D0B0E94AC2B162FC63151F4960141E061E080913C0BF9
:2037600090913D0B0E94AC2BC62FF092780BEE2009F429C1C93009F489C0F8F4C43009F45C
:2037800075C070F4C13009F45FC080913E0B90913F0BC23008F4ABC02D2F412F6F2D0CC130
:2037A000C63009F481C008F45FC0C73009F460C0C83009F046C168EF70C0C03178F4CE30CC
:2037C000E0F4CB3009F466C008F462C0CC3009F463C0CD3009F035C16FEF5FC0C33109F463
:2037E00090C020F4C23109F462C02BC1C43109F4B0C0C53109F4C7C024C1C13029F1CE309D
:2038000061F4D03108F01DC1ED2FF0E0EE5EF74F80818F3780F48F5F0BC0D03108F011C13F
:20382000ED2FF0E0EE5EF74F8081882321F08150808381E001C080E0ED2FF0E0EE5EF74F79
:20384000F080882309F4FDC00D2F20E04F2D60EC80913E0B90913F0B0E94A605EE24E394F4
:2038600020E04F2D60ECD4C082E003C081E001C089E080937A0B46E75BE066E070E0809195
:203880003E0B90913F0B0E94D62BDBC06AEF05C06BEF03C06CEF01C06EEF80913E0B909107
:2038A0003F0B0E946A05CDC0C0937A0BE4CFFEEBCF16D10408F0C5C0F601EE5DF74F8081EC
:2038C000982F9F771F77190F17FF03C020E01FE701C021E080782111812B8083911709F42E
:2038E000B0C080913E0B90913F0B112311F10D2F212F4F2D60E90E94A605EE24E394212FE6
:2039000025C03EEBC316D10430F4F601EE5DF74F00810F7701C00FEF612FC60142DEC82F0B
:20392000801709F48EC080913E0B90913F0BC11104C02D2F40E06F2D53C00D2F2C2F4F2D0C
:2039400060E90E94A605EE24E3942C2F4F2D60E95FC08EEBC816D10408F073C0F601EE5D70
:20396000F74F8081982F9F771F77190F17FF03C020E01FE701C021E080782111812B8083EB
:20398000911313C05EC0EEEBCE16D10430F4F601EE5DF74FC081CF7701C0CFEF612FC601F7
:2039A00000DE182F8C1709F44CC02D2F412F6F2D80913E0B90913F0B0E942706EE24E394B1
:2039C0000D2F212F23C0C330A1F0C63041F1C11138C02D2F40E06F2D80913E0B90913F0B25
:2039E0000E942F06EE24E3940D2F20E04F2D60E80FC02D2F40E06F2D80913E0B90913F0BBB
:203A00000E942706EE24E3940D2F20E04F2D60EB8091400B9091410B0E944E2812C087E031
:203A200028CFEE2071F0960142E061E080913C0B90913D0B0E94AC2B80913C0B90913D0B2B
:203A4000A4D4A60161E08091440B9091450BDF91CF911F910F91FF90EF90DF90CF900C9499
:203A60002B2EDF91CF911F910F91FF90EF90DF90CF900895CF92DF92EF92FF920F931F931C
:203A8000CF93DF932091EB0D3091EC0D232B09F469C09091EA0D992321F0913009F460C0B8
:203AA00061C0A6D300910E0E10910F0E2091100E3091110EDC01CB01801B910BA20BB30B07
:203AC00084369105A105B10508F44CC091D360930E0E70930F0E8093100E9093110EC3E089
:203AE000DEE0E12CF12CCC24C39488818F5F8883E091EB0DF091EC0DEE0DFF1D90818917EA
:203B000048F48FEFE81AF80A2196EBE0EE16F10461F728C08F858C258F87188206E31DE0D1
:203B2000D12CF801848181FF14C0E45AFF4F208130E02E153F0569F49F85992311F0846050
:203B400001C08B7FF80184836D2D86E39DE00E94FE260F5F1F4FD394F8E5DF12E2CFD1CFF2
:203B60008111BDCFDF91CF911F910F91FF90EF90DF90CF900895882339F0813079F480918B
:203B8000E20E9091E30E04C080912D0E90912E0E8135910528F080E590E0089580E090E010
:203BA00008952091E5093091E609A9014F5F5F4F5093E6094093E509F901EA5AF64F97EF77
:203BC00091879091E809992351F0811108C080916309823088F48091ED0981110DC0809142
:203BE000590990915A09DC01ED91FC910680F781E02D6FE579E019940895EF92FF920F9341
:203C00001F93CF93DF93CDB7DEB728970FB6F894DEBF0FBECDBF88E0EAE7F6E0DE0111966A
:203C200001900D928A95E1F78E010F5F1F4F7E0189E0E80EF11CF80161918F0181E00E9489
:203C4000C3150E151F05B9F78091E7088823E1F328960FB6F894DEBF0FBECDBFDF91CF9141
:203C60001F910F91FF90EF900895682F81E00C944015682F81E00C94401541EFBC0181E021
:203C80001DC941EFBC0180E019C941EFBC0180E015C90F931F93CF93DF931F92CDB7DEB7F2
:203CA0008C01AE014F5F5F4FBC0181E0CDDB882341F04981423F21F0B80181E0FFD801C0BC
:203CC00080E00F90DF91CF911F910F9108950F931F93CF93DF9300D01F921F92CDB7DEB7B5
:203CE0008C01AE014B5F5F4FBE016F5F7F4F81E0ABDB882349F08D81813F31F441EFBE0128
:203D00006F5F7F4F80E0DAD8AE014B5F5F4FB80180E09ADB882349F08D81813F29F443EF5F
:203D2000B80181E0CBD801C080E00F900F900F900F900F90DF91CF911F910F910895CF936B
:203D4000DF931F92CDB7DEB7AE014F5F5F4FBC0180E07ADB882329F081E09981913F09F0A2
:203D600080E00F90DF91CF910895FC011082BC0186EF9FE00C948B150F931F93CF93DF932F
:203D80001F921F92CDB7DEB7FC018081813019F08230D1F055C0A381B4818D919C9111971C
:203DA0009C01215031092638310508F049C00180F281E02D2E5F3F4F2D933C93E80FF91F6C
:203DC0006F77772760833CC0A381B4818D919C91029786389105A0F5CB018F01AE014F5FA1
:203DE0005F4FBE016E5F7F4F9F730E945006D80111964D915C9112971396ED91FC9114975E
:203E0000808191819C012F5F3F4F318320832A81FA01E80FF91F208311964D915C9112970C
:203E20001396ED91FC911497808191819C012F5F3F4F318320832981FA01E80FF91F2083A9
:203E40000F900F90DF91CF911F910F910895CF93DF93EC0165E170E0888199818DDF66E734
:203E600070E08881998188DF66E270E08881998183DF68E270E088819981DF91CF917CCF73
:203E8000CF93DF93EC0165E070E08881998174DF60E070E0888199816FDF64E070E08881B8
:203EA0009981DF91CF9168CF8A559F4F20E030E041E060E0FC01808191810E94AC2BCB014E
:203EC0000895262F30E08A559F4F40E060E0FC01808191810E94AC2B21E0672B682B692B70
:203EE00009F420E0822F0895CF93DF93EC0162307105E9F11CF56115710509F47CC061300D
:203F0000710509F0A8C042E15AE760E070E081E00E940316C855DF4FE881F981E654FF4F04
:203F200011821082E881F981E454FF4F85E39EE19183808381E08093E5088DC0633071053E
:203F400091F16430710509F086C040E056E960E070E081E00E940316C855DF4FE881F9815D
:203F6000E654FF4F85EB9EE1918380833DC01092E50840E056E960E070E081E00E9403161C
:203F8000CE013BDEC855DF4FE881F981E254FF4F87E69EE191838083E881F981E054FF4F1F
:203FA00081E49EE119C01092E50840E056E960E070E081E00E940316C855DF4FE881F9817C
:203FC000E254FF4F89E49EE191838083E881F981E054FF4F8DE39EE191838083E881F9810C
:203FE000E654FF4F11821082E881F981E454FF4F1182108230C040E056E960E070E080E047
:204000000E940316C855DF4FE881F981E254FF4F8FE99EE191838083E881F981E054FF4FC0
:2040200085E49EE19183808342E15AE760E070E081E00E940316E881F981E654FF4F85EB96
:204040009EE191838083E881F981E454FF4F85E39EE191838083DF91CF910895EF92FF92E4
:204060000F931F93CF93DF9300D01F92CDB7DEB77C018A015A8349835C834B836135710514
:2040800009F47DC030F56334710509F445C048F46B31710509F494C06234710509F43FC00B
:2040A00099C06D34710509F449C06035710509F458C06434710509F08DC0DC011296ED9113
:2040C000FC911397EA55FF4F808191810E94C03083C06436710509F46AC058F465357105A1
:2040E00011F16635710509F075C0CE010196C8DE73C06D36710509F447C06F37710599F07E
:204100006536710509F066C0DC011296ED91FC911397E654FF4F5BC0CE010196B1DECE01CE
:20412000039695DE59C06535710531F467E48FEF9FE00E949342EED880E054D96EEB70E06A
:20414000CA011ADE6FE070E0C80116DE60E670E0C80112DE68E570E0C8010EDE60E470E00B
:2041600010C0DC011296ED91FC911397EA55FF4F0190F081E02D65A576A5772702C061E0D3
:2041800070E0C801F9DD28C0FC01828193818CDE039711F5D70112968D919C9113972DDDAB
:2041A00063E070E0F701828193819EDE15C0DC011296ED91FC911397E654FF4F10820CC0EC
:2041C000DC011296ED91FC911397E952FF4F81E0808302C081E001C080E00F900F900F9097
:2041E0000F90DF91CF911F910F91FF90EF9008952FB7F8946091E0087091E1088091E20825
:204200009091E3082FBF08951F93CF93DF93E2E4F5E020E030E0C081D0E040E050E060E055
:2042200070E06C177D079CF4A181B281A40FB51F12961C9112970D90BC91A02DA10FB11D88
:204240002A0F3B1F6F5F7F4F455F5F4FEACF379645E0EA37F407F9F6FC0185A596A5820F34
:20426000931FF1E08F27F7E19F27DF91CF911F910895CF92DF92EF92FF920F931F93CF93B0
:20428000DF93EC0140E050E0BA010E94C62948E062E475E0CE010E94820321E030E041E038
:2042A00060E0CE010E94AC2B6B017C0147E069E475E0CE010E948203AFA529A53AA54BA5DD
:2042C0005CA5B0E00E9411430DA11EA12FA138A5AB01BC01400F511F621F731FCE010E9491
:2042E000C62981E0CD28CE28CF2809F480E0DF91CF911F910F91FF90EF90DF90CF90089596
:20430000CF92DF92EF92FF920F931F93CF93DF93EC01E62E40E050E0BA010E94C62948E0CC
:2043200062E475E0CE010E948203F12C00E010E021E030E041E060E0CE010E94742A182F37
:2043400047E069E475E0CE010E948203AFA529A53AA54BA55CA5B0E00E941143CDA0DEA03B
:20436000EFA0F8A4AB01BC014C0D5D1D6E1D7F1DCE010E94C629812FDF91CF911F910F917F
:20438000FF90EF90DF90CF9008958F929F92AF92BF92DF92EF92FF920F931F93CF93DF9315
:2043A000462F50E0DC019D962D913C919E974217530710F080E040C0D62EEC016FA740E04E
:2043C00050E0BA01E3D748E062E475E0CE010E948203ED2CF12C00E010E020E030E041E048
:2043E00060E0CE010E94742A182F47E069E475E0CE010E948203AFA529A53AA54BA55CA576
:20440000B0E00E9411438DA09EA0AFA0B8A4AB01BC01480D591D6A1D7B1DCE01B7D711231C
:2044200049F28AA19BA1DC01ED91FC910190F081E02D6D2D199581E0DF91CF911F910F911A
:20444000FF90EF90DF90BF90AF909F908F9008958FB7F8941092510910925009109255099D
:20446000109254098FBF08959FB7F894409154095091550920915209309153099FBF421723
:20448000530710F54FB7F8942091500930915109F901E451F74F8083C901019660915209E1
:2044A000709153090E94CC42909351098093500980915409909155090196909355098093EE
:2044C00054094FBF81E0089580E00895DC0112968D919C911397DC01ED91FC910280F3811E
:2044E000E02D1994FF920F931F93CF93DF93EC018B01F42E8A819B81DC01ED91FC9104801B
:20450000F581E02D65EA19958A819B81DC01ED91FC910480F581E02D6AE519958A819B81E1
:20452000DC01ED91FC910480F581E02D65E019958A819B81DC01ED91FC910480F581E02D83
:2045400062E819958A819B81DC01ED91FC910480F581E02DD8016C9119958A819B81DC01C5
:20456000ED91FC910480F581E02DD80112966C9119958A819B81DC01ED91FC910480F581F4
:20458000E02D60E019958A819B8161E06F25DC01ED91FC910480F581E02DDF91CF911F91B5
:2045A0000F91FF9019941F93CF93DF93EC01162F8A819B81DC01ED91FC910480F581E02D51
:2045C00065EA19958A819B81DC01ED91FC910480F581E02D6AE519958A819B81DC01ED9149
:2045E000FC910480F581E02D64E019958A819B81DC01ED91FC910480F581E02D60E8199529
:204600008A819B81DC01ED91FC910480F581E02D63E019958A819B81DC01ED91FC91048000
:20462000F581E02D60E019958A819B81DC01ED91FC910480F581E02D612F199581E0DF91E4
:20464000CF911F910895DC0112968D919C911397DC01ED91FC910280F381E02D1994CF9339
:20466000DF93EC01F5DE8A819B81DC01ED91FC910190F081E02DDF91CF911994AF92BF92DB
:20468000CF92DF92EF92FF920F931F93CF93DF93CDB7DEB7EE84FF8487010C5F1F4F9E0100
:2046A0002E5E3F4F4889598964E670E0C8010E9423435801C12CD12CF80101900020E9F7F5
:2046C0003197E01BF10BCE16DF06B8F4D70112968D919C911397F50161915F01DC01ED918E
:2046E000FC910480F581E02D1995811102C080E016C0BFEFCB1ADB0ADFCF03E010E0F701FD
:2047000082819381DC01ED91FC910480F581E02D6FEF1995882359F30150110981F7DF913D
:20472000CF911F910F91FF90EF90DF90CF90BF90AF900895FB01442319F02085318502C039
:20474000228533853F932F9327812F9326812F9325812F9324812F9323812F9322812F93F9
:2047600021812F9320812F9322EA37E03F932F939F938F9383DF8DB79EB70E960FB6F89477
:204780009EBF0FBE8DBF08957F936F9326EB37E03F932F939F938F9371DF0F900F900F90B5
:2047A0000F900F900F9008951F93CF93DF93EC014FDE8A819B81DC01ED91FC910190F081CE
:2047C000E02D1995182F882359F08EEB97E09F938F93DF93CF9352DF0F900F900F900F901E
:2047E000812FDF91CF911F910895AF92BF92CF92DF92EF92FF920F931F93CF93DF9390912D
:20480000DA0E923111F4D0E016C1882339F0813059F42091E90E3091EA0E04C02091E50EC6
:204820003091E60E232B79F3C62F182F0E940712D82F882341F38091DA0E112319F01130B5
:2048400081F022C090912C0E992329F19058913618F590912B0E8917F9F0D1E08131D9F405
:204860001BC09091810E992309F4DFC09058913608F0DCC09091800E891709F4D7C0D1E07E
:20488000813109F0D2C0D2C0CC2309F4BCCFD0E0112329F0CDC0D0E0CC2309F4CCC0EBE253
:2048A000FEE0E090E70EF090E80EC090EB0ED090EC0EC330A9F028F4C13071F0C23039F087
:2048C000BAC0C53021F040F0C63051F0B4C01092EC0E1092EB0E04C01092E80E1092E70E53
:2048E000618190E8960F913640F40081801709F495C0813109F080C091C0663F21F1C8F4A5
:20490000613F09F464C018F4603F11F17EC0623FB9F1633F09F079C0C281E091E70EF091A2
:20492000E80E83EF1995E091E70EF091E80E8C2F45C06D3F28F46A3F30F4683F21F065C052
:204940006E3F08F462C08BE29EE00E949B055DC0112351F0113019F0A12CB12C09C044E8E4
:20496000A42E4EE0B42E04C03FE2A32E3EE0B32E812F01D9A501BC018BE29EE017D745C0D5
:20498000038120E8029F800111248281082BE091E70EF091E80E82EF1995E091E70EF0911B
:2049A000E80E802F8F771995C801880F892F881F990B9195E091E70EF091E80E8F77199584
:2049C0008091D50E882309F11092D90E1EC08281877020E1829FC0011124C381CF70C82B4F
:2049E000E091E70EF091E80E81EF1995E091E70EF091E80E8C2FE3CFC150C33030F42381A6
:204A000042818BE29EE00E94A605F092E80EE092E70ED092EC0EC092EB0E0DC0C130A8F3BC
:204A2000C43068F3C73058F3F0CFD0E0CC2319F0E0E8FEE036CF8D2FDF91CF911F910F91F7
:204A4000FF90EF90DF90CF90BF90AF900895FC019FB7F89481E020813181232B09F080E015
:204A60009FBF0895CF93DF93EC0184E599E0EFDF811125C02FB7F894609152097091530938
:204A80008091500990915109860F971F4091540950915509841B950B0E94CC42FC01E45158
:204AA000F74F808188838091540990915509019790935509809354092FBF81E001C080E0BE
:204AC000DF91CF910895AF92BF92CF92DF92FF920F931F93CF93DF931F92CDB7DEB78C01F5
:204AE0006B015A01DC0112968D919C911397DC01ED91FC910680F781E02DBE016F5F7F4F27
:204B00001995F82E882309F44DC08981ADDC8981F801E859FF4F8F3F31F48081918101964A
:204B20009183808306C080819181892B11F011821082808191810397A9F51182108211E04A
:204B40002FB7F89480915409909155092FBF892B49F1CE01019686DF8981853609F5112358
:204B6000F9F02FB7F89480915409909155092FBF059710F410E0E4CFCE01019673DF81E0A3
:204B80009981911101C080E0F5018083CE01019669DF898190E0D6018D939C9359DC03C0F9
:204BA00057DCE8CFF12C8F2D0F90DF91CF911F910F91FF90DF90CF90BF90AF900895AF92AA
:204BC000BF92CF92DF92FF920F931F93CF93DF9300D0CDB7DEB78C016B015A011B82DC0142
:204BE00012968D919C911397DC01ED91FC910680F781E02DBE016D5F7F4F1995F82E88234D
:204C000009F443C08B8130DC2B81F801858196812F3F21F401969683858304C0892B11F006
:204C200016821582F801848190E0258136812817390759F5168215822FB7F894809154099E
:204C4000909155092FBF0797F8F0CE0101960ADFCE01029607DF8981853AB1F48A818A358D
:204C600099F4CE010396FEDE8B81823068F48170D5018C93CE010396F5DE8B8190E0F601B5
:204C800091838083E5DB02C0E3DBF12C8F2D0F900F900F90DF91CF911F910F91FF90DF90E9
:204CA000CF90BF90AF9008950F931F93CF93DF93EC018B018D85FE01E80FF11DE80FF11DAE
:204CC00081859285DC01ED91FC910480F581E02D19951F830E83EC81FD81309731F0C8014B
:204CE000DF91CF911F910F911994DF91CF911F910F910895CF93DF93DC0118962C9118975F
:204D0000211102C080E015C0EC018D85FD01E80FF11DE80FF11D81859285DC01ED91FC915E
:204D20000280F381E02D1995882361F3188692E09D87DF91CF9108950F931F93CF93DF93FA
:204D4000EC0120E030E040E066E08881998104D5672B682B692B11F410E02FC021E030E046
:204D600040E066E088819981F7D4062F1885111103C0023049F4F0CF8D850817F1F0CE0119
:204D8000B9DF8111F6CFE8CFFE01E00FF11DE00FF11D818592850097F9F20D87DC01ED91E6
:204DA000FC910190F081E02D1995182F8887882399F261E070E0CE0177DF812FDF91CF91E7
:204DC0001F910F9108958E31B8F4982F969596959695E92FF0E0E851F74F208130E048E0F3
:204DE000949F80191124A90102C0559547958A95E2F7CA018170089580E00895FC01A08114
:204E0000B18170E0E60FF71F9481957041E0953009F040E0ED91FC9111970190F081E02D2A
:204E2000CD01199470E0FC01E60FF71F1482DC018D919C91DC01ED91FC910190F081E02DEA
:204E400040E01994DC018D919C91DC01ED91FC910480F581E02D1994DC018D919C91DC01BC
:204E6000ED91FC910280F381E02D1994CF92DF92EF92FF920F931F93CF93DF93EC01D62E7A
:204E8000C42E88819981E62EF12CDC01ED91FC910480F581E02DB70119958C011127A80109
:204EA00062E08A819B810E94A530672B682B692BC1F188819981DC01ED91FC910280F381A6
:204EC000E02D40E0B8011995F82E88819981DC01ED91FC910280F381E02D41E0B801199582
:204EE000E82E88819981DC01ED91FC910280F381E02D42E0B8011995182FCC2051F0FE0192
:204F0000EF0DF11D84818D6184836F2DCE0176DF03C06F2DCE0186DF6E2DCE0183DF612FDE
:204F200015C0CC2091F0FE01EE0DFF1D8481877F856084836D2DCE01DF91CF911F910F9199
:204F4000FF90EF90DF90CF9059CF6D2DCE01DF91CF911F910F91FF90EF90DF90CF9062CFB7
:204F60007F928F929F92AF92BF92CF92DF92EF92FF920F931F93CF93DF9300D0CDB7DEB747
:204F80008C01B62E742EDC018D919C91E62EF12CDC01ED91FC910480F581E02DB701199550
:204FA0006C01DD24A60162E0F801828193810E94A530672B682B692B49F1D8018D919C91FC
:204FC000DC01ED91FC910280F381E02D40E0B60119958983F80180819181DC01ED91FC9161
:204FE0000280F381E02D41E0B60119958A83F80180819181DC01ED91FC910280F381E02D24
:2050000042E0B60119958B8383E004C0B982BA82BB8281E0FE0131964F016F01A82EB12C86
:20502000E00EF11EFCE5EF0EF11CC601881999098A159B0514F5772041F0D6016C91F801A1
:20504000E60FF11D848186600FC0F6016081F801E60FF11D8481982F9D7F948380FF03C07E
:205060009460948302C0897F8483C801C7DED7017C92BFEFCB1ADB0AD8CF0F900F900F9004
:20508000DF91CF911F910F91FF90EF90DF90CF90BF90AF909F908F907F9008952F923F92FA
:2050A0004F925F926F927F928F929F92AF92BF92CF92DF92EF92FF920F931F93CF93DF931C
:2050C000CDB7DEB72E970FB6F894DEBF0FBECDBF5C01162FF22E242E22949FE02922822E67
:2050E00082942FE082228F2D6BE00E94C042982E2AE0281710F48AE0982EC12CD12C802F60
:2051000090E0A0E0B0E08D839E83AF83B887842F90E0A0E0B0E089839A83AB83BC8333244D
:2051200033943F0C2F2D30E040E050E029873A874B875C87012F0F7EA60165E0D501129654
:205140008D919C9113970E94A5302D813E814F815885621773078407950709F0F6C0A60159
:2051600063E0D50112968D919C911397EED7EE2051F1663050F46430A8F4613059F06330ED
:2051800009F04CC0E1E0ED8737C0663071F0683099F044C0103909F43FC0B1E0BD87103860
:2051A000C1F538C0F1E0FD8732C00038B9F581E08E8791E09D8745C0103B81F5A1E0AE878D
:2051C000B1E0BD873EC0663038F46430F0F4662341F0623069F022C0663089F0683091F013
:2051E0001DC00038E9F021E02E87103BB9F41EC00038D1F031E03D87103B59F40BC00038CC
:2052000069F416C0103B51F418C041E04D87103C09F01D861E8615C01E8611C01E8606C0BE
:205220001E86E1E0ED870DC0F1E0FE871D8609C021E02E8731E03D8704C041E04E8751E090
:205240005D87D5018D919C91DC01ED91FC910480F581E02DB6011995AC0162E0F50182810D
:20526000938173D72B013C01FD85FF2309F444C0A60161E0D50112968D919C91139765D72B
:2052800029813A814B815C81621773078407950769F5103C31F4452846284728F1F0722C4E
:2052A00020C0452846284728D9F43E85311118C0A60164E0D50112968D919C91139745D7A0
:2052C0007724739429853A854B855C85261737074807590731F0712C04C07724739401C0FF
:2052E000782C472D6C2DC501C1DD07C0103C21F440E06C2DC501BADD712C3E85332329F18B
:20530000A60161E0D50112968D919C9113971DD729813A814B815C81621773078407950716
:20532000A1F43D85332369F0FF2049F0772039F0432D50E1759E401911244B3018F040E06A
:2053400001C0492D6C2DC5010BDE8FEFC81AD80A98E5C916D10409F0EFCE2E960FB6F89490
:20536000DEBF0FBECDBFDF91CF911F910F91FF90EF90DF90CF90BF90AF909F908F907F9050
:205380006F905F904F903F902F900895CF92DF92EF92FF92CF93DF93EC016A017B018F8971
:2053A000988DDC01ED91FC910280F381E02D1995C616D706E806F90630F4C986DA86EB8645
:2053C000FC8681E001C080E0DF91CF91FF90EF90DF90CF9008950F931F93DC015596ED91E6
:2053E000FC915697B7E06B9FE00DF11D1124DC0119960D911D912D913C911C978381948133
:20540000A581B681080F191F2A1F3B1F0180F281E02DBBE04B9FE00DF11D1124878190856A
:20542000A185B285BC01CD01600F711F821F931F1F910F9108954F925F926F927F928F9240
:205440009F92AF92BF92CF92DF92EF92FF920F931F93CF93DF9300D01F92CDB7DEB76C0176
:205460002A013B0148015901DC0157968D919C915897DC01ED91FC910084F185E02D199581
:205480008823E9F0F6018789908DDC01ED91FC910680F781E02D0E2D9E012F5F3F4FB301C7
:2054A000A2011995882359F081E049815A816B817C81481559056A057B0509F080E00F9016
:2054C0000F900F900F90DF91CF911F910F91FF90EF90DF90CF90BF90AF909F908F907F9008
:2054E0006F905F904F9008952F923F924F925F926F927F928F929F92AF92BF92CF92DF9216
:20550000EF92FF920F931F93CF93DF9300D01F92CDB7DEB7DC015596ED91FC915697309730
:2055200009F44DC0DC015C91651708F048C0B7E06B9FE00DF11D11245081451708F03FC026
:2055400041805280EBE04E9F400C511C1124D201ED91FC912E173F0790F547015801690119
:205560003C0139DFF2012281223059F108F0BAC0211179C00FEF1FEF9801F301028F138FFB
:20558000248F358F760103E0F694E7940A95E1F71B012C012E0C311C411C511C8789908DF7
:2055A000DC01ED91FC910680F781E02D00E09E012F5F3F4FB201A1011995811167C080E041
:2055C000B4C00FEF1FEF9801D3015A960D931D932D933C935D979601369527951B012C01B4
:2055E000220E331E411C511C57968D919C915897DC01ED91FC910680F781E02D02E09E01C5
:205600002F5F3F4FB201A10119958823C1F2BFE08B229924AA24BB2409811A812B813C81C9
:20562000C0FE0CC00F70112722273327A4E0880C991CAA1CBB1CAA95D1F704C0007F11279A
:2056400022273327802A912AA22AB32A89829A82AB82BC8209811A812B813C81F2E0EF2E8A
:20566000B201A10110C0213009F0A9CF95018401112722273327AB01BC014C0D5D1D611D93
:20568000711DEE24E394C301D6DE4FC0B8E0EB9EC0181124D12C49815A816B817C81F301BF
:2056A000EC0DFD1D80FE07C085858A019B01082BD901C8010DC0258530E0C9018095909500
:2056C000092E000CAA0BBB0B84239523A623B72389839A83AB83BC8309811A812B813C81E6
:2056E000E12CBECF233079F49501840122273327CC0CDD1CAB01BC014C0D5D1D611D711D79
:20570000E3E0EE2EC0CF243009F059CFCC0CDD1CCC0CDD1CAB01BC014C0D5D1D611D711DBC
:2057200034E0E32E95018401AECF0F900F900F900F90DF91CF911F910F91FF90EF90DF9093
:20574000CF90BF90AF909F908F907F906F905F904F903F902F900895CF92DF92EF92FF9223
:205760000F931F93CF93DF9300D01F92CDB7DEB7CC24CA94DC2C7601C982DA82EB82FC8208
:205780008E010F5F1F4F0E940B0269817A818B819C810F900F900F900F90DF91CF911F91E5
:2057A0000F91FF90EF90DF90CF9008956F927F928F929F92AF92BF92CF92DF92EF92FF92F6
:2057C0000F931F93CF93DF9300D01F92CDB7DEB77C016B018A013C018CEB680E711CD30108
:2057E0008D919C91892BB9F05A014A01860E971EA814B90441F0D301ED91FC91D5018D9195
:205800005D011995F5CFF701E655FF4F8081882311F034961082B0ECEB0EF11CF701808193
:205820009181892B09F44AC084E0B82EF4E0CF16D104B8F0D8012C9111969C911197129661
:205840008C91B9822A839B838C83D701ED91FC91CE01019619950D5F1F4FB3E0CB1AD108F4
:20586000E5CFE3E0CE16D10469F4D8012C9111969C91119712968C9137E039832A839B8326
:205880008C8316C0B2E0CB16D10441F4F8019081818126E029839A838B8309C0CA94CD28A1
:2058A00069F4F801808195E099838A831B821C82D701ED91FC91CE01019619950F900F9083
:2058C0000F900F90DF91CF911F910F91FF90EF90DF90CF90BF90AF909F908F907F906F90A4
:2058E000089580E0089580E00895DA01603610F080E008952FB7F894FB01FF27EE0FFF1FF4
:20590000EF50FB4E8081918111969C938E93808191819F77918380832FBF8D919C911197D4
:2059200097FFE6CF9F778D939C9381E00895860F971FFC0113820895FC019281E60FF71F24
:205940008381880F492B482B4383941711F04F3F41F481E04F3F09F080E0F901808381E0EA
:20596000089580E0089508958BEA689F812D11248695883008F087E090E00895423020F0D0
:20598000423051F492E001C090E0862F880F860F980F892F90E0089580E090E008959B0157
:2059A000DC011296ED91FC911397309719F0642FC90119940895633041F0643019F484E06D
:2059C00090E0089581E090E0089582E090E008956FEF7FE080E090E0089581E00895DC01D8
:2059E0001896ED91FC911997309709F019940895DC011696ED91FC911797309709F0199485
:205A00000895DC011496ED91FC911597309709F019940895DC011296ED91FC9113973097A0
:205A200011F0862F19940895825E0C94F71A4F925F926F927F92BF92CF92DF92EF92FF92BC
:205A40000F931F93CF93DF93CDB7DEB72A970FB6F894DEBF0FBECDBFB090E709BB2009F4F5
:205A600049C06B01182F0E94F820E12FF0E08F01000F111F000F111F0F5E154FD8014D903B
:205A80005D906D907C90AB01BC014419550966097709453F51406105710560F1CE01019655
:205AA0007C0128E0DC011D922A95E9F729E430E03A832983FC83EB83AE01475F5F4FBE0101
:205AC000665F7F4FC6010E9450068A8590E09E838D83898590E098878F8341E064E070E060
:205AE000C7010E94BB0D0E94F820F80160837183828393838B2D2A960FB6F894DEBF0FBE9C
:205B0000CDBFDF91CF911F910F91FF90EF90DF90CF90BF907F906F905F904F900895EF92B4
:205B20000F93EE24E39400E020E0482F60EC86E39DE0B4DA0F91EF900895CF93C0E06C2FCA
:205B400086E39DE06FD9CF5FC835C9F7CF910895CF93DF93C62FCC0F8C2F35D9D82FDD0FCF
:205B600081E08C0F30D98D2BDF91CF910895CF93C62F462F469550E060E086E69FE0EDD23A
:205B8000672B682B692B19F48C2FCF911CC980E0CF910895FB01108286EF9FE00C948B1520
:205BA00081E00C94401581E00C94C81540E052EC61E070E081E00C940316CF93DF93C0E034
:205BC000D0E060E0CE010E9475422196CF3F8FE0D807B9F781E0DF91CF910895EF920F93F9
:205BE0001F93DB01CA01A801EE2DE33031F0E43041F4B9010E94874207C0B8010E948F42F3
:205C000003C0602F0E94754281E01F910F91EF9008950F93CF93DF93DB01CA01E9010330D2
:205C200049F0043051F40E946B42688379838A839B830CC00E94704203C00E94634290E0B7
:205C4000A0E0B0E088839983AA83BB8381E0DF91CF910F910895FC01862F0190F081E02D73
:205C6000309711F0BA0119940895CF93DF93EC018EE78C0F0E94F71AAE0166E08CE79BE0F0
:205C8000DF91CF91E8CFAF92BF92DF92EF92FF920F931F93CF93DF93CDB7DEB728970FB6A3
:205CA000F894DEBF0FBECDBFFC01D42E7801623009F488C030F46623F1F0613009F46CC0CB
:205CC000A9C1643009F4CDC008F4B5C0663009F0A1C182819381FC01E40FF11DE350FF4F44
:205CE000DC01AA55BF4F8E010F5F1F4F408166E08D919C9185C18281938119821A821B82CC
:205D00001C8241E0D416C9F0D41620F0A2E0DA1629F140C0DC01A852BF4FFC01EA55FF4F2C
:205D20008E010F5F1F4F2115310511F420E030E04C9160E08081918163C1FC01E752FF4F9F
:205D4000DC01AA55BF4F8E010F5F1F4F408160E08D919C910E940B028D2556C1222351F0A4
:205D60002130C1F4FC01EA55FF4F808191810E94392107C0FC01EA55FF4F0190F081E02D24
:205D800087A590E0A0E0B0E089839A83AB83BC8380E03AC181E038C182819381FC01E40F05
:205DA000F11DE552FF4FDC01AA55BF4F8E010F5F1F4F408161E08D919C910E940B0281116D
:205DC0002BC1F0C0A280B380F501E40FF11DE052FF4FD501AA55BF4F8E010B5F1F4F408150
:205DE00062E08D919C910E940B02811102C081E01FC0D50117968C91823009F411C18D2DF8
:205E00008B7F833009F018C18D819E819C838B83CE0101960E946C08E3E0DE1205C18A8199
:205E200090E0A0E0B0E08D839E83AF83B88780E02D813E81E1C0A280B380F501E40FF11D86
:205E4000E751FF4FD501AA55BF4F8E010B5F1F4F408163E08D919C910E940B02811138C1E9
:205E6000F6C002811381E1E04E1709F46EC04E1768F0C8018A559F4F5C0194E0491709F483
:205E800093C0A7E04A1709F476C0A3C0F801E055FF4F00811181B9017727F801E60FF71F46
:205EA000848180FF4DC083FF4DC0F80180819181DC01ED91FC910480F581E02D1995F80120
:205EC000A081B1815C01BB24ED91FC9111970280F381E02D42E0B501CD011995F801E80F39
:205EE000F11DD480D6FADD24D0F8DD0CD8018D919C91DC01ED91FC910280F381E02D41E08E
:205F0000B5011995F801E80FF11D848185FB882780F98D29D82EDD0CF80180819181DC01E4
:205F2000ED91FC910280F381E02D40E0B5011995F801E80FF11D8481829581708D2903C04B
:205F400080E001C081E090E00EC0F801E055FF4F0190F081E02DE20FF11D848181FBAA27A5
:205F6000A0F9B0E0CD01A0E0B0E089839A83AB83BC8380E03FC0F801E650FF4F8E010F5FAB
:205F80001F4F408164E0F501808191810E940B02882341F089819A81AB81BC810196A11D17
:205FA000B11DE3CF81E026C0F801E055FF4FB901808191810E942227F801E950FF4F8E01D7
:205FC0000F5F1F4F9C01408164E0D5018D919C910DC0040F111DF801ED50FF4F8E010F5F93
:205FE0001F4F408164E0F501808191810E940B0291E0892729813A81D7012D933C9395C034
:206000000E940B0291E0892729813A81F701318320838BC082E089C0F4E0DF12AACFBACF3F
:20602000B7E0DB1209C081C0898190E0A0E0B0E08D839E83AF83B887F4E0DF12F8CE8D810D
:206040009E81AF81B8850196A11DB11DECCEB5E0DB1202C011E00EC0BD1580F1E3E0DE16DA
:20606000C9F3F4E0DF1232C011E0F5018781823009F45BC0D50117968C91813009F041C0A9
:20608000111124C08D819E819C838B83CE0101960E946C08B5E0DB1631F0E7E0DE1619F0B9
:2060A000F3E0DF1202C08A8101C0898190E0A0E0B0E08D839E83AF83B88723C047E0D4166E
:2060C00049F2D41688F288E0D81671F211E019C096E0D91601F19D15D8F4E8E0DE16D9F044
:2060E000DE16E8F0F9E0DF120BC08D819E81AF81B8850196A11DB11D8D839E83AF83B887E0
:2061000010E08D819E81D7018D939C93812F0DC0A4E0DA1202C010E0A8CFAD1510F410E06F
:20612000A9CFB3E0DB12ECCFFACF28960FB6F894DEBF0FBECDBFDF91CF911F910F91FF902F
:20614000EF90DF90BF90AF9008959A01462F64E003CB9A01462F63E0FFCA9A01462F62E096
:20616000FBCAEF92FF920F931F93780189019A01462F64E0B9D91F910F91FF90EF90089510
:206180002F923F924F925F926F927F928F929F92AF92BF92CF92DF92EF92FF920F931F936D
:2061A000CF93DF93CDB7DEB72E970FB6F894DEBF0FBECDBF9E878D87DC0192968D919C915D
:2061C0009397DC01ED91FC910280F381E02D1995ED85FE858789908DDC01ED91FC9104806E
:2061E000F581E02D19958A87882309F43EC2ED85FE8584A1882309F4FEC185A596A59C0132
:2062000021503109398728874885598557FDACC168858D859E850E94C521882309F425C2BF
:206220001F82AD85BE858C91BF81B81708F022C127E0B29FF0011124FC87EB87F12CAD857F
:20624000BE855596ED91FC9156972B853C85E20FF31F8081F81608F009C13BE0F39E100116
:206260001124C180D280C20CD31C4F2D6F81CD01B2D82B013C01D6011296BC90129714964E
:20628000ED91FC911597FE83ED838D909C90F2E0BF1609F4A6C0FB1538F0BB2009F45FC0D4
:2062A00021E0B21629F0E0C034E03B1508F4DCC0C12CD12CAD81BE81CD01A0E0B0E089831F
:2062C0009A83AB83BC838C149D0409F4CDC0AD85BE855596ED91FC9156972B853C85E20FAF
:2062E000F31F0180F281E02DE20DF31D86818823B9F00D811E810C0D1D1D20E030E0EB2C8A
:20630000B301A201CD0197D8882309F4AEC131E0B31210C04FEF441A540A640A740A1BC06B
:20632000EB2C09811A812B813C81B301A2018D859E85E9CF53E0B51206C082E0480E511C8F
:20634000611C711C08C094E0B91205C0A4E04A0E511C611C711CBFEFCB1ADB0AB4CF21E018
:2063600030E0C40187709927892B11F420E030E0140173E0369427947A95E1F7220E331E73
:20638000A12CB12CC12CD12C2C143D0409F46CC080E090E000E09C012A0D3B1D2815390568
:2063A00038F4000FED810E2B01968830910599F710E020E030E0EE24E394B301A2018D8594
:2063C0009E8539D8F8E0AF0EB11C882309F44DC12FEF421A520A620A720A3FEFC31AD30ACB
:2063E000D3CF940121703327C40196958795AC01420F531F5A8349832D80322C329450EF46
:2064000035223228AA24A394B12CC12CD12C89819A818C159D0541F1C601880F991F8815B2
:20642000990528F4A814B90420F0022D03C000E001C0032D10E020E030E0EE24E394B30119
:20644000A2018D859E850E941B2A92E0A90EB11C882309F40AC1AFEF4A1A5A0A6A0A7A0AB6
:20646000BFEFCB1ADB0AD3CFF394E9CEEF81EF5FEF83D7CE412C512C320183017201920148
:2064800042E061E08D859E852FD8FFEF4F1A5F0A6F0A7F0A2EE1421651046104710469F7A5
:2064A000412C512C32019201225E3F4F8301720142E061E08D859E8517D83FEF431A530AB8
:2064C000630A730A40E6441651046104710459F7412C512C32018EE7C82ED12C8301720157
:2064E000960142E061E08D859E850E94742A5FEFC51AD50A8FEF481A580A680A780A90E477
:20650000491651046104710449F7412C512C320193018201A20161E08D859E8522DEAFEFC2
:206520004A1A5A0A6A0A7A0AB8E14B1651046104710471F7412C512C3201A201485E5F4FF6
:206540009301820161E08D859E850BDEEFEF4E1A5E0A6E0A7E0AF0E44F16510461047104AF
:2065600061F7288539854CCE60E08D859E850E948021882309F479C08D859E850E940421A9
:206580007C0140E050E0BA018D859E850E94C62948E062E475E08D859E850E94820300E0AE
:2065A00010E020E030E040E060E08D859E850E94742A182F47E069E475E08D859E850E941F
:2065C0008203ED85FE85A7A521A532A543A554A5B0E00E941143C5A0D6A0E7A0F0A4AB014F
:2065E000BC014C0D5D1D6E1D7F1DCF010E94C62911112DC03AC040E050E0BA018D859E853A
:206600000E94C62948E062E475E08D859E850E94820347E069E475E08D859E850E948203A5
:20662000ED85FE85A7A521A532A543A554A5B0E00E94114305A116A127A130A5AB01BC01B2
:20664000400F511F621F731FCF010E94C629AD85BE8592968D919C919397DC01ED91FC910D
:206660000480F581E02D199501C01A868A852E960FB6F894DEBF0FBECDBFDF91CF911F916A
:206680000F91FF90EF90DF90CF90BF90AF909F908F907F906F905F904F903F902F9008959B
:2066A000CF93DF93CDB7DEB76D970FB6F894DEBF0FBECDBFF89484B78D7F84BF84B7877F4B
:2066C00084BF0FB6F894A89580916000886180936000109260000FBE90E080E80FB6F89424
:2066E00080936100909361000FBEEAE7F5E061E070E02081918182813496022F192F98010C
:20670000D9014E919D01DB0102C0AA0FBB1F8A95E2F7CD019A2F90959423D9019C93D801A4
:206720009C91892B8C93B5E0E23FFB0711F7E2EFF5E062E576E001E010E0208191818281CF
:206740003496E22EF92E9701D9014E919D01D80102C0AA0FBB1F8A95E2F7CD01942F982BCF
:20676000D9019C93D7019C91809589238C936E177F0719F722E536E00AE616E0F901EE2401
:20678000E394F12C4081918182813496C42ED92EA601DA016E91AD01D70102C0AA0FBB1F70
:2067A0008A95E2F7CD018095962F9823DA019C93D6019C9189238C930E171F0719F7099AA7
:2067C0000B9A0D9A0F9A22982A9A41E050E0D901ED91FC91119712968C91608191B36917FE
:2067E00081F0608190910801691307C090E00896092E000CAA0BBB0B04C08FEF90E0A0E0DC
:20680000B0E0883070F060917D008850FA0102C0EE0FFF1F8A95E2F7CF01862B80937D00A9
:206820000CC060917E00FA0102C0EE0FFF1F8A95E2F7CF01862B80937E002C5F3F4FF6E04C
:206840002A363F0721F610927C0010927A0080917A00876080937A0080917C0080648093BE
:206860007C0080917A00806880937A0091B381B3981739F091B380910801981721F08FEFB0
:2068800003C080E001C088E00E948C1783E090E020917A00206420937A0020917A00322F2C
:2068A0003074D32E26FDF9CF2091780030917900019771F780917A00886080937A008091D4
:2068C0007A00806480937A0014BC15BC10926E0084B5826084BD85B5836085BD8CE787BDAA
:2068E00080916E00826080936E00789480917D0F90917E0FDC01ED91FC910190F081E02D68
:206900001995882309F432C140E050E0BA0186E69FE00E94C62941E062E475E086E69FE000
