:020000040000FA
:20000000B2C00000D8C00000D6C00000D4C00000D2C00000D0C00000CEC00000CCC0000070
:20002000CAC00000C8C00000CEC7000061C50000C2C00000C0C00000BEC00000BCC00000F7
:20004000BAC00000B8C00000B6C00000B4C00000B2C0000063C30000AEC00000ACC0000052
:20006000AAC0000006C30000C5C20000B4C20000A2C000006CC400009EC000009CC0000004
:200080009AC0000098C0000096C0000094C0000092C0000090C000008EC000008CC00000C8
:2000A0008AC0000088C0000086C00000BC6900001201000200000008091272840100010211
:2000C0000001090265000201008032090400000001010000092401000109000101090401A3
:2000E0000002010300000724010001410006240201010006240202020009240301030102F7
:2001000001000924030204010101000905020240000500000525010101090581024000054B
:20012000000005250101030403090422035300680061006E00740065006100200043006FC1
:20014000006E00740072006F006C007300000012034F00700065006E004400650063006BDF
:2001600000000000003111241FBECFEFDAE0DEBFCDBF13E0A0E0B1E0ECEEF6E602C005908A
:200180000D92A03DB107D9F726E0A0EDB3E001C01D92A238B207E1F710E0C3EBD0E004C048
:2001A0002197FE010E946E33C23BD107C9F70E941B260C94743324CFFFCF2091E40030916F
:2001C000E50095E64091EC00842F817040FF23C08091E80080FD1DC08091D303882399F0CE
:2001E000853099F08091EB0085FD11C04091E4005091E5002417350729F3915011F09A01E7
:20020000E1CF84E0089582E0089583E0089581E0089580E008954091E80042FFDDCF0895F0
:200220000F931F93CF93DF932091D303243011F080E033C022E02093E9002091E80022FF0F
:20024000F7CF8C01BADF811116C0E80104E010E006C08091F10089930150110961F08091DC
:20026000E80085FDF6CF8091E8008B778093E800A4DF8823A1F32091F3008091F20090E080
:20028000922B892B29F48091E8008B778093E8005D9882E38093110481E0DF91CF911F9177
:2002A0000F9108958091F70387FF11C08091E80082FD05C08091D3038111F8CF11C0809140
:2002C000E8008B770BC08091D303882349F08091E80080FFF8CF8091E8008E778093E80066
:2002E00008950F931F93CF93DF932091D303243009F045C08C018091D5038F708093E900EF
:200300005CDF81113CC0E80104E010E08091E80085FD09C08091E8008E778093E8004DDFEE
:200320008823A1F32CC089918093F1000150110969F78091E80085FD05C08091E8008E776B
:200340008093E8008091D303843099F48091D5038F708093E9002091F3008091F20090E07F
:20036000922B892B31F08091E8008E778093E80024DF289882E38093100481E001C080E021
:20038000DF91CF911F910F9108950F93DC01CB01BA01033030F0033041F4B9010E94DC3275
:2003A00007C0622F0E94C23203C0A9010E94D43281E00F910895CF93DF93DC01CB01E90135
:2003C000433028F0433069F40E94BD3203C00E94B03290E0A0E0B0E088839983AA83BB83D8
:2003E00006C00E94B832688379838A839B8381E0DF91CF910895982F969596959695E92F6B
:20040000F0E0E251FC4F208130E048E0949F80191124A90102C0559547958A95E2F7CA01BF
:200420008170089591E09093140423E030E028982898882311F15D9A5D9A40E050E04F5F56
:200440005F4F4739510539F0EFE9FFE03197F1F700C00000F4CF289A289A5D985D9840E077
:2004600050E04F5F5F4F4739510549F1EFE9FFE03197F1F700C00000F4CF5D985D9840E0EC
:2004800050E04F5F5F4F4739510539F0EFE9FFE03197F1F700C00000F4CF289A289A5D9A6C
:2004A0005D9A40E050E04F5F5F4F4739510539F0EFE9FFE03197F1F700C00000F4CF21503F
:2004C000310909F0B4CF289A5D9A289A5D9A8FB7F894109213041092120410921104109258
:2004E0001004109214048FBF08959FB7F894E82FF0E0E65FFB4F608381E0809309049FBF29
:2005000008950F931F93CF93DF937FB7F894EC01CC5BDF4F48815981DC01AE5BBF4F2D91BD
:200520003C9111977FBF42175307E8F44FB7F8948C01005C1F4FF80120813181FC01E20F56
:20054000F31F6083C90101966D917C910E941933F80191838083888199810196998388835B
:200560004FBF81E001C080E0DF91CF911F910F910895CF93DF939C01EB014FB7F894FC0142
:20058000EC5BFF4F808191814FBF892B01F14FB7F894D901AE5BBF4F6D917C911197129720
:2005A0008D919C91860F971FA081B1818A1B9B0B0E941933D901A80FB91F8C918883808187
:2005C00091810197918380834FBF81E001C080E0DF91CF9108951F920F920FB60F92112470
:2005E0008F9381E0809326048F910F900FBE0F901F9018951F920F920FB60F9211242F9305
:200600003F934F935F936F937F938F939F93AF93BF93EF93FF93CF93DF931F92CDB7DEB786
:20062000BE016F5F7F4F8CE296E0A3DF882341F0289882E38093120489818093CE0005C01F
:200640008091C9008F7D8093C9000F90DF91CF91FF91EF91BF91AF919F918F917F916F9169
:200660005F914F913F912F910F900FBE0F901F9018951F920F920FB60F9211242F933F9332
:200680004F935F936F937F938F939F93AF93BF93EF93FF936091CE0080912504811108C023
:2006A00086EE95E02EDF8823A1F05D9882E30FC08CE296E026DF882361F08091C90080623E
:2006C0008093C900289882E3809312045D9880931304FF91EF91BF91AF919F918F917F91D1
:2006E0006F915F914F913F912F910F900FBE0F901F901895883028F0885090917B009062FD
:2007000003C090917B009F7D90937B0090917C00907F8F70892B80937C0008951F920F92E3
:200720000FB60F921124CF92DF92EF92FF920F931F932F933F934F935F936F937F938F9348
:200740009F93AF93BF93CF93DF93EF93FF939091EC0181E089278093EC01882309F479C0EB
:2007600080917E0690917F06A0918006B09181060196A11DB11D80937E0690937F06A0932A
:200780008006B093810680910904882391F1AFE1B3E0CAE0D4E067E373E041E050E0CD90F2
:2007A000DD90ED90FD90F601C0920004D0920104E0920204F0920304899120910204882391
:2007C00041F03081CA0101C0880F2A95EAF7832B0AC090818A0102C0000F111F2A95E2F7C7
:2007E000802F8095892380836A177B07C1F6109209048091140481112CC0809113048823A3
:2008000031F08091130481508093130401C05D9A80911204882331F08091120481508093DE
:20082000120401C0289A80911104882331F08091110481508093110401C05D9A8091100431
:20084000882331F08091100481508093100401C0289A8091F403853008F060C0809108043A
:200860008F5F80930804853011F41092080480E090E0C12CD12C7601C394FC01EE0FFF1F63
:20088000EE0FFF1FE95CFC4F4081518162817381FA01409304045093050460930604709381
:2008A00007043297208130E00090060402C0359527950A94E2F720FF1EC0E0910804F0E010
:2008C000E151FC4F3081B701A601082E04C0440F551F661F771F0A94D2F74095242F2323DA
:2008E000208301968830910541F68091F4038F5F8093F40313C0E0910804F0E0E151FC4F9C
:200900002081B701A601082E04C0440F551F661F771F0A94D2F7422B4083E3CFFF91EF91A2
:20092000DF91CF91BF91AF919F918F917F916F915F914F913F912F911F910F91FF90EF9039
:20094000DF90CF900F900FBE0F901F9018951F920F920FB60F9211242F933F934F935F930D
:200960006F937F938F939F93AF93BF93EF93FF9320917800309179008091FF03833021F02D
:200980008F5F8093FF0322C01092FF038091EC03E82FF0E0EE0FFF1FE052FC4F40815181BC
:2009A000240F351F318320838F5F863019F08093EC0305C01092EC0381E08093ED03E0917F
:2009C000EC03F0E0E75EFC4F808194DE8091ED03811105C080917A00806480937A00FF9171
:2009E000EF91BF91AF919F918F917F916F915F914F913F912F910F900FBE0F901F901895C0
:200A0000F89484B7877F84BF80916000806180936000109260008FE19EE40197F1F700C0CD
:200A200000001FBA10BE1CBC1DBA1092680010927A0010926E0010926F0010927100109264
:200A400072001092C8001092C9001092CA001092BC0015B818B81BB81EB811BA14B817B8D9
:200A60001AB81DB810BA8091E00081608093E00098E088E10FB6F894A895809360000FBE91
:200A800090936000FFCF982F973068F59093E900981739F07091EC002091ED005091F000DA
:200AA00003C0242F762F50E021FD02C09F5FECCF3091EB003E7F3093EB003091ED003D7F31
:200AC0003093ED003091EB0031603093EB007093EC002093ED005093F0002091EE0027FD56
:200AE000E5CF80E008958F708093E90081E008951F920F920FB60F9211240F931F932F9349
:200B00003F934F935F936F937F938F939F93AF93BF93EF93FF93CF93DF93CDB7DEB7AA97F1
:200B2000DEBFCDBF1091E9001F709091EC00892F817090FD80E8182B1092E9008091F000F9
:200B4000877F8093F0007894E7EFF3E08091F100819323E0EF3FF207C9F78091E80083FF5C
:200B6000FAC18091F7039091F803953009F480C030F49130A9F168F0933091F1ECC1983000
:200B800009F4AEC1993009F4BDC1963009F0E3C191C0803821F0823809F0DDC108C08091FE
:200BA000D0039091D103992389F082600FC08091FB038F70873008F0CEC18093E90080912E
:200BC000EB0085FB882780F91092E9009091E800977F9093E8008093F1001092F1008BC1EA
:200BE000282F2D7F09F0B7C1882319F0823061F0B2C18091F903813009F0ADC1933009F076
:200C000080E08093D1032EC08091F90381112AC08091FB038F702FEF280F263008F09BC109
:200C20008093E9002091EB0020FF1CC0933021F48091EB00806214C09091EB009061909377
:200C4000EB0021E030E0A90102C0440F551F8A95E2F74093EA001092EA008091EB00886040
:200C60008093EB001092E9008091E800877F46C1811171C10091F9030F778091E300807822
:200C8000802B8093E3008091E800877F8093E80009DB8091E80080FFFCCF8091E3008068B6
:200CA0008093E300011102C082E001C083E08093D30351C18058823008F04DC18091F9034C
:200CC0009091FA038C3D53E0950709F07CC083E08A838AE289834FB7F894DE01139620E027
:200CE0003EE051E2E32FF0E050935700E49120FF03C0E295EF703F5FEF708E2F90E0EA3016
:200D000010F0C79601C0C0968D939D932F5F243149F74FBF8091E800877F8093E800209133
:200D2000FD033091FE032A32310510F02AE230E040E0FE0131962115310589F18091D30390
:200D4000882309F4C7C0853009F4C4C08091E80083FDC0C08091E80082FD30C08091E800D4
:200D600080FFE9CF4091F3008091F20090E0942B2115310551F08830910538F4419140937A
:200D8000F100215031090196F3CF41E0089709F040E08091E8008E778093E800CCCF41119F
:200DA000CDCF0CC08091D303882309F493C0853009F490C08091E80083FD8CC08091E80029
:200DC00082FFF0CF87C0292F33272230310541F02330310551F02130310509F0BCC0EEC0AD
:200DE00085E690E0E2ECF0E022C0992781309105A1F058F0029709F0AEC0EFE4F1E0E4919F
:200E00008E2F90E0EFE4F1E00FC0E7E2F1E0E4918E2F90E0E7E2F1E007C0EBE2F1E0E49182
:200E20008E2F90E0EBE2F1E0009709F494C02091E800277F2093E8002091FD033091FE03B2
:200E40008217930708F49C0140E02115310589F18091D303882309F43DC08530D9F18091A4
:200E6000E80083FD37C08091E80082FD2FC08091E80080FFEACF4091F3008091F20090E044
:200E8000942B2115310559F08830910540F444914093F1003196215031090196F2CF41E0D8
:200EA000089709F040E08091E8008E778093E800CCCF4111CDCF0AC08091D303882351F05B
:200EC000853041F08091E80083FD04C08091E80082FFF2CF8091E8008B778093E8003BC0C3
:200EE0008038C9F58091E800877F8093E8008091D2038093F1008091E8008E778093E8009F
:200F0000D1D929C0811127C08091F9039091FA039927029704F58091E800877F8093E8004E
:200F20008091F9038093D203BDD98091D203882361F084E08093D30342E361E881E0A3DDA8
:200F400042E360E882E09FDD06C08091E30087FDF0CF81E0EFCF8091E80083FF0AC08091D4
:200F6000E800877F8093E8008091EB0080628093EB001092E9008091F00088608093F00035
:200F80001F701093E900AA960FB6F894DEBF0FBECDBFDF91CF91FF91EF91BF91AF919F910F
:200FA0008F917F916F915F914F913F912F911F910F910F900FBE0F901F90189582E190E017
:200FC000E0EBF0E034CF1F920F920FB60F9211242F933F934F935F936F937F938F939F93B6
:200FE000AF93BF93EF93FF938091E10082FF09C08091E20082FF05C08091E1008B7F8093C5
:20100000E1008091DA0080FF1BC08091D80080FF17C08091DA008E7F8093DA008091D9009C
:2010200080FF0BC080E189BD82E189BD09B400FEFDCF81E08093D30303C019BC1092D30335
:201040008091E10080FF17C08091E20080FF13C08091E2008E7F8093E2008091E20080613A
:201060008093E2008091D80080628093D80019BC85E08093D3038091E10084FF2EC080912E
:20108000E20084FF2AC080E189BD82E189BD09B400FEFDCF8091D8008F7D8093D800809139
:2010A000E1008F7E8093E1008091E2008F7E8093E2008091E20081608093E2008091D203AA
:2010C000882311F084E007C08091E30087FD02C081E001C083E08093D3038091E10083FF1D
:2010E00026C08091E20083FF22C08091E100877F8093E10082E08093D3031092D2038091F4
:20110000E1008E7F8093E1008091E2008E7F8093E2008091E20080618093E20042E060E0CD
:2011200080E0B1DC8091F00088608093F000FF91EF91BF91AF919F918F917F916F915F91E6
:201140004F913F912F910F900FBE0F901F901895EF920F93EE24E39400E020E0482F60EC69
:201160008EEF94E00E940F150F91EF90089591E0693E734008F490E0692F885F50C68F920F
:201180009F92AF92BF92DF92EF92FF920F931F93CF93DF9300D01F92CDB7DEB7F09029049A
:2011A000FF2009F47CC0D62EE82E0E94ED2224E0E29E80011124095D1B4FF80182A493A4AC
:2011C000A4A4B5A4DC01CB0188199909AA09BB09853F9140A105B10508F461C089E4898384
:2011E000EA82DB82E0914604F0914704CF01C696909338048093370480EF86AB17AA83E5FD
:2012000080AF83E090E09093400480933F0483E481AF80913F0490914004019690934004C1
:2012200080933F042091370430913804F901E80FF91F21E0208380913F0490914004019672
:201240009093400480933F042091370430913804F901E80FF91F108280913F049091400494
:2012600001969093400480933F0469E487E294E00E94D8216A8187E294E00E94D8216B8106
:2012800087E294E00E94D82187E294E00E9458110E94ED22F80162A773A784A795A78F2DFE
:2012A0000F900F900F90DF91CF911F910F91FF90EF90DF90BF90AF909F908F9008952F927A
:2012C0003F924F925F926F927F928F929F92AF92BF92CF92DF92EF92FF920F931F93CF93DB
:2012E000DF9300D000D0CDB7DEB7882329F0813031F4109172050DC01091400507C08823EC
:2013000021F0813049F410E004C010E0F09041050CC0F09073050CC0882329F0813059F412
:2013200010E0F12C05C010E0F12C709042050FC0709074051BC0882339F0813009F0DEC345
:2013400010E0F12C712C12C010E0F12C712C80903F05103C09F485C078F0183F09F492C077
:201360001A3F61F1103F09F0C9C32EC080907105103C09F476C098F4103909F469C3103BB2
:2013800009F466C3103809F0B9C3E12C082D20E04F2D60E88EEF94E00E940F15AFC3183FE4
:2013A00009F470C01A3F51F0103F09F0A7C32091B0053091B105E5E7F5E011C0E5E2F5E0C9
:2013C00080E395E021E059C020914105309142052E32310510F02DE230E0E3E4F5E0109229
:2013E000410440912B0450912C044115510509F485C3B0912D04BB2309F480C38FE0809394
:201400002E0483E080932F0482E08093300410923104109232041092330410923504109243
:20142000340410923604F0933804E093370430933E0420933D0466E070E070934004609362
:201440003F042830310508F459C39181911156C39281933509F052C39381933409F04EC308
:2014600014C02FE0281508F4E5C2F7FCE3C2E82DF0E0EB5EFB4FF082DDC2119226878E1793
:201480009F07D9F781E093D639C394819111FDC02830310509F4C1C02B30310508F496C0AD
:2014A00080912904811102C083E040C1858180933304968190932F04678160933004708575
:2014C00070933104D184D0923204933010F084E02DC17B1710F086E029C18A01A3E07A9FC9
:2014E000000D111D1124D8017C91D71610F087E01DC1623010F085E019C1911116C072E8C1
:20150000780F723008F45BC0D80111960D911C911297D80175E0D79EA00DB11D112414961A
:201520007C91871708F079C14AC0923029F472E8780F723008F443C0A5E0DA9E70011124C0
:20154000D80111960D911C911297D701A00FB11F613031F414961C911497811768F05DC1FA
:2015600014966C91861708F058C1992311F0923019F58CE090E027C0992319F1923009F144
:201580006D917C9161327105A0F090E07C01BFEFEB1AFB0AA12FB0E0EA16FB0641F4A5E0E7
:2015A000880F991FAA95E1F7681B790B02C060E270E0CB010B9607C08DE090E004C066230C
:2015C000A1F28BE090E08217930711F08BE0AEC081E0848380913004811118C0E0913704CD
:2015E000F091380480913304228530E2839FC0011124820F911D909335048093340480911E
:201600002F04813019F483858093360480913D0490913E04089709F08BC0E0913704F091BF
:20162000380486818230B1F128F48823A9F0813021F105C0843009F1A8F1853041F1E0908D
:201640003B04F0903C04A0903904B0903A04950140E050E090E03DC080912904882309F467
:201660005AC01092290481E0848380912A04882309F4CBC010922A04C8C091E0909329048E
:20168000843011F490932A0481E08483BEC010922A04FACF809129048823E9F181E0848396
:2016A00061E0AFC0809129048823A9F181E0848360E2A7C0B9016A197B0989012D5F3F4F81
:2016C000D801CD90DC901197C816D90631F04F5F5F4FE416F50671F720C080912904811179
:2016E00004C012968C91811116C081E08483E0913904F0913A04E60FF71F6081718187E2DD
:2017000094E00E943022811180C0E0913704F09138048EE0BACF83E0B8CF84E0B6CF8111CA
:2017200005C1E0913704F09138048EE084836CC140903F0490912F04892F8D7F09F073C081
:201740002091330482E8820F823008F068C03091310480913204FA01B3E03B9FE00DF11D34
:2017600011240180F281E02D35E0839FE00DF11D1124848161E06A832E3709F01A8271E04E
:201780007B83923081F4E0913704F09138041482E0913704F091380491E0968310922F044D
:2017A00040903D044A94A12CB12C88248394912CE12CF12C282E312C512CA214B304BCF19C
:2017C000EA80EE2029F11092400410923F0460EF87E294E00E94D82160E087E294E00E9426
:2017E000D82163E587E294E00E94D82163E487E294E00E94D82161E087E294E00E94D821B8
:201800006EE787E294E00E94D82187E294E050D5109238041092370471C188E087CF1B82B1
:201820001A8281E0AECF1B821A8281E0BCCF5092400440923F048B81882339F0A092330485
:20184000E0913704F0913804A58280913004813021F5E090330490E2E99E70011124909185
:20186000310480913204E0912B04F0912C04A3E09A9FE00DF11D11240180F281E02DB5E019
:201880008B9FE00DF11D112480819181F701B0964F018E179F0708F44C016701C814D90498
:2018A00008F0ABC090912F0480913004911144C0811124C020913404309135046091310407
:2018C00040913204E0912B04F0912C0473E0679FE00DF11D11240180F281E02D85E0489FDA
:2018E000E00DF11D1124808191812817390708F044C019828E010F5F1F4F09C019828E0131
:201900000F5F1F4F9601409132046091310487E294E00E94092390914104992309F4FFCE90
:20192000E0913704F091380494836EC0698187E294E00E94D8215DC0811134C060903404CC
:2019400070903504909131049C8310913204E0912B04F0912C04A3E09A9FE00DF11D1124C5
:201960000180F281E02DB5E01B9FE00DF11D1124808191816816790630F0E0913704F0918A
:20198000380489E0D3CEAED4811106C0E0913704F09138048AE0CACE009136049301412FED
:2019A0006C8117C060903704709038048C2D8E19F301E80FF11D02850093360493D4811156
:2019C00003C08AE0F301B2CE9601409132046091310487E294E00E945D1981110AC0809140
:2019E0004104E0913704F091380481119FCE8CE09DCEFFEFCF1ADF0A51CF87E294E058D47A
:201A00002FEFA21AB20AD9CE8FE080932E0483E080932F0482E0809330041092310410920A
:201A2000320410923304109235041092340410923604EBCEE12C082D272D4F2D60EC8EEF72
:201A400094E0EDD76F2D8FEB95E00E945F2456C0E12C082D272D4F2D612F8EEF94E0DFD73F
:201A6000103B09F04BC085E6C82E84E0D82E00E010E0912CA12CB12C2F2C312C412C512C73
:201A8000E72CF12C980147E062E08FEB95E00E94B31F672B682B692B49F1980142E062E0C1
:201AA0008FEB95E00E94B31F6330710581059105E9F4980144E062E08FEB95E00E94B31F5F
:201AC000681579058A059B0589F4980143E062E08FEB95E00E94B31F6215730584059505EC
:201AE00029F4D6011796FC92EE9216970F5F1F4FB2E0CB0ED11C0430110521F60F900F90B7
:201B00000F900F90DF91CF911F910F91FF90EF90DF90CF90BF90AF909F908F907F906F90A1
:201B20005F904F903F902F900895CF92DF92EF92FF920F931F93CF93DF93EC018F89988D76
:201B4000A98DBA8D892B8A2B8B2B21F01D821E821F82188646E06BEF72E0CE010E94DC1F1C
:201B6000EBEFF2E000E010E0608170E080E090E020E030E0261737078CF4A181B281A80FD1
:201B8000B91F1296FC9012974D915C914F0D511D040F151F2F5F3F4F0996ECCF359623E070
:201BA000E931F20709F745E060E073E0CE010E94DC1FCCA0DDA0E12CF12C88A199A1AAA12D
:201BC000BBA19C01AD012C193D094E095F09AEA1B0E00E946433C60ED71EE81EF91E8F89FE
:201BE000988DA98DBA8DC816D906EA06FB0620F4CD82DE82EF82F886C80121E0822727E168
:201C00009227DF91CF911F910F91FF90EF90DF90CF900895CF92DF92EF92FF921F93CF937A
:201C2000DF93EC018F89988DA98DBA8D892B8A2B8B2B21F01D821E821F82188646E06BEF5D
:201C400072E0CE010E94DC1F21E030E041E060E0CE010E94B31F11E0672B682B692B09F46A
:201C600010E045E060E073E0CE010E94DC1FCCA0DDA0E12CF12C88A199A1AAA1BBA19C0196
:201C8000AD012C193D094E095F09AEA1B0E00E946433C60ED71EE81EF91E8F89988DA98DDB
:201CA000BA8DC816D906EA06FB0620F4CD82DE82EF82F886812FDF91CF911F91FF90EF903F
:201CC000DF90CF900895CF92DF92EF92FF920F931F93CF93DF93EC01E62E8F89988DA98D19
:201CE000BA8D892B8A2B8B2B21F01D821E821F82188646E06BEF72E0CE010E94DC1FF12C94
:201D000000E010E021E030E041E060E0CE010E94AE1C45E060E073E0CE010E94DC1FCCA0B6
:201D2000DDA0E12CF12C88A199A1AAA1BBA19C01AD012C193D094E095F09AEA1B0E00E94DC
:201D40006433C60ED71EE81EF91E8F89988DA98DBA8DC816D906EA06FB0620F4CD82DE82DB
:201D6000EF82F886DF91CF911F910F91FF90EF90DF90CF9008958F929F92AF92BF92CF9296
:201D8000DF92EF92FF920F931F93FC0144A155A18A0120E030E0C788D08CE18CF28CC7019B
:201DA000B601601B710B820B930BC0A0D1A0E2A0F3A046015701801A910AA20AB30AA50181
:201DC00094010E942D33822F1F910F91FF90EF90DF90CF90BF90AF909F908F900895982F4F
:201DE0008F7C803849F0903D39F081E0903E31F0903C21F080E0089581E00895089587FFA6
:201E00000CC09CE0980F923040F0982F9B7F993F21F0803F18F4807F089580E00895BF9262
:201E2000CF92DF92EF92FF920F931F93CF93DF93C82ED62E982F969596959695092F10E02C
:201E400007541B4FF8018689DC2DF8E09F9FD0191124282F30E00D2E02C0359527950A94F0
:201E6000E2F72170621709F498C141E050E060E070E00D2E04C0440F551F661F771F0A94C9
:201E8000D2F7DD2021F0482BF801468B04C040958423F801868BEC2CF12C970141E061E0B5
:201EA0008091B9049091BA040E94B31FC62F603109F463C1970140E061E08091B904909172
:201EC000BA040E94B31FC63038F4C430E0F58FEF8C0F823048F437C0C03118F4C73030F0D3
:201EE00032C0C13109F438C1613069F5DD2009F444C1F801208D822F90E00D2E02C095952C
:201F000087950A94E2F780FF10C081E090E0A0E0B0E004C0880F991FAA1FBB1FDA95D2F710
:201F200080958223808FD12C0EC081E090E0A0E0B0E004C0880F991FAA1FBB1FDA95D2F73E
:201F4000822BF801808F970142E061E08091B9049091BA040E94B31F162F970144E061E06E
:201F60008091B9049091BA040E94B31FD62F970143E061E08091B9049091BA040E94B31F1E
:201F8000B62EC33151F4970141E061E08091B9049091BA040E94B31FC62F1093D504DD209B
:201FA00009F4A2C0C73009F485C0B0F4C43048F4C23008F06FC0CC2331F1C13009F45AC083
:201FC000DCC08091BB049091BC04C53009F470C008F082C021E081C0CB3009F471C058F4A1
:201FE0008091BB049091BC04C93009F465C008F065C068EF6EC0CD3009F466C008F462C035
:20200000C03188F0BAC00D2F2B2D412F60E98091BB049091BC040E944F21EE24E3942B2DEC
:20202000412F60E985C0C13029F1CE3061F4D03108F0A3C0ED2FF0E0EB5EFB4F80818F37A2
:2020400080F48F5F0BC0D03108F097C0ED2FF0E0EB5EFB4F8081882321F08150808381E092
:2020600001C080E0ED2FF0E0EB5EFB4F1081882309F483C00D2F20E0412F60EC8091BB047C
:202080009091BC040E944F21EE24E39420E0412F60EC4EC02D2F4B2D612F8091BB049091A5
:2020A000BC040E94D021EE24E3940D2F2B2D3EC022E013C089E043C06AEF0BC06BEF09C02A
:2020C0006CEF03C06EEF01C06FEF8091BB049091BC040E94132151C026E02093D70443ED0A
:2020E00054E066E070E035C0C33099F0C63031F1C11143C04D2F612F8091BB049091BC04FB
:202100000E944B19EE24E3940D2F20E0412F60E80FC02D2F40E0612F8091BB049091BC04B0
:202120000E94D021EE24E3940D2F20E0412F60EB8091BD049091BE0472D41FC087E0809338
:20214000D70443ED54E066E070E08091BB049091BC040E94B01811C0DD2079F0970142E09E
:2021600061E08091B9049091BA040E94B31F8091B9049091BA040E945F244C2D61E0809160
:20218000BF049091C004DF91CF911F910F91FF90EF90DF90CF90BF90B6C5DF91CF911F9151
:2021A0000F91FF90EF90DF90CF90BF900895CF92DF92EF92FF920F931F93CF93DF932091FA
:2021C0000D0530910E05232B09F469C090910C05992321F0913009F460C061C00E94ED22F6
:2021E00000913005109131052091320530913305DC01CB01801B910BA20BB30B84369105C6
:20220000A105B10508F44BC00E94ED2260933005709331058093320590933305CEEFD4E033
:20222000E12CF12CCC24C3948FA18F5F8FA3E0910D05F0910E05EE0DFF1D9081891748F4C2
:202240008FEFE81AF80A2196EBE0EE16F10461F726C08EA98C258EAB1FA20EEF14E0D12C73
:20226000F801828181FF12C0208530E02E153F0569F49EA9992311F0846002C08B7FF801CA
:2022800082836D2D8EEF94E00E94F1210F5F1F4FD394F6E0DF12E4CFD3CF8111BFCFDF910B
:2022A000CF911F910F91FF90EF90DF90CF900895FC01A089B189808D918DA80FB91F87EF65
:2022C0008C93408D518D4F5F5F4F518F408F8381882319F08085811104C060897189CF0163
:2022E000BCC208959091310480913204E0912B04F0912C0423E0929FE00DF11D11240180F0
:20230000F281E02D95E0899FE00DF11D112482812381821741F090913604981730F081E074
:20232000291720F402C081E0089580E00895DF92EF92FF920F931F93CF93DF931F92CDB7AC
:20234000DEB781116BC1E091B305F091B405309709F428C21982CE0101960995082F882398
:2023600009F420C219818091AE059091AF05009709F0A4C01093A905F090A6058F2D3FDD03
:202380002EDD882361F017FD0AC0F092A9051093AA0581E090E09093AF058093AE051091C7
:2023A000A905812F2CDD813F09F44AC020F5803B09F449C050F4803909F445C0803A09F463
:2023C00042C0803809F0CAC03EC0803DC9F118F4803CB1F1C3C0803EB1F1803F09F0BEC0C8
:2023E0002DE230E03093AD052093AC051092A605809343052EC0883F79F030F4833F01F147
:2024000010F1863F49F0AAC08A3F08F4A7C08D3F18F08E3F08F4A2C08093400510923F05EA
:20242000109241051092420581E0809370051092AF051092AE051092AD051092AC05B3C11C
:2024400022E030E002C023E030E03093AD052093AC052091AE053091AF054091AC05509180
:20246000AD05BA01615071092617370700F1809340051F701F5F8091A505181B10933F051E
:202480008091AA05809341054330510529F48091AB058093420502C0109242051092AF0521
:2024A0001092AE051092AD051092AC051CC02F5F3F4F3093AF052093AE05A7C017FF36C0D8
:2024C0001D3F38F41A3F38F4173F89F0183F71F502C01E3F58F11093400510924105109289
:2024E000420510923F0581E0809370055CC140914305403F99F59C012F5F3F4FFC01E15C90
:20250000FA4F148340934005209341053093420510923F0581E0809370051092AF051092F9
:20252000AE051092AD051092AC0567C02091A905FC01E15CFA4F203FE1F41483E090AC054C
:20254000F090AD059701215031098217930708F457C0D090A90580EFD8120FC01092AF0534
:202560001092AE051092AD051092AC051092A60519C1E659FF4F1083E1CF8D2D40DC182F4B
:20258000809340052CDC882349F08D2D8F708F5F9091A505891B80933F0502C010923F05E2
:2025A0008091AA058093410583E0E816F10429F48091AB058093420502C010924205109227
:2025C000AF051092AE051092AD051092AC0581E080937005103B71F038F4103959F0103AAE
:2025E00049F0103851F406C0103D21F0103E11F0103C19F4D092A605D6C01092A605D3C0C6
:2026000001969093AF058093AE058091A405882309F4C8C080E08BDE082FC5C0813009F06D
:20262000C1C0E091B705F091B8058BEB95E00995082F882309F4B6C08091BB058295807FE9
:20264000803909F45BC010F5803589F138F4803209F442C0803409F465C0A4C0803709F4AA
:202660007DC0803809F44AC0803609F09BC08091B0059091B105FC01E15CFA4F2091BC05C2
:2026800026AB2091BD0527AB02967FC0803C21F130F4803A99F1803B09F084C02FC0803F71
:2026A00031F0823F59F1803E09F07CC027C02091BC05273F39F0209372051092710510922F
:2026C000730519C08091B0059091B105FC01E15CFA4F26AB019659C08091BC0580937205AC
:2026E0008F708F5F9091A505891B809371058091BD05809373051092740550C080937205E2
:202700008091BC058F708F5F9091A505891B809371058091BD05809373058091BE058093BD
:2027200074053CC02091BC05203F21F41092B1051092B0058091B0059091B105FC01E15CB8
:20274000FA4F26AB2091BD0527AB2091BE0520AF03969093B1058093B00524C02091BC0547
:20276000203F21F41092B1051092B0058091B0059091B105FC01E15CFA4F26AB2091BD05D2
:2027800027AB2091BE0520AF03969093B1058093B00580EF809372051092710581E0809365
:2027A000A20501C000E0802F0F90DF91CF911F910F91FF90EF90DF9008958FC361EFB5C32F
:2027C0000F931F93CF93DF931F92CDB7DEB78C01BE016F5F7F4FC2D3882339F06981623F2B
:2027E00019F0C801A2D301C080E00F90DF91CF911F910F9108950F931F93CF93DF9300D01D
:2028000000D01F92CDB7DEB78C01BE016B5F7F4FCE010196A3D3882339F08D81813F21F4A7
:20282000CE0101960E947101C8010E941001882319F063EFC80179D30F900F900F900F900B
:202840000F90DF91CF911F910F910895FC011082BC0186EE95E00C94B9029A01AB01B9018B
:20286000FC01878D90A17CC4FF920F931F93CF93DF938C01D62FF42ECBEA6C9FC12D112486
:20288000C69509F0C1E02C2F30E042E064E0F801808191810E94B31F672B682B692B49F1FF
:2028A0008C2F880F8C0FD1E0D80FC2E0C80F282F30E0F801E20FF31FFF2041F092819D6156
:2028C0009283682FC8010E94F12104C0128260E00E947502F801ED0FF11D128260E08D2F8B
:2028E0000E947502F801EC0FF11D128260E08C2F17C08D2F90E0F801E80FF91FFF2069F0AB
:202900008281877F856082836D2FC801DF91CF911F910F91FF900C94F121128260E08D2F6E
:20292000DF91CF911F910F91FF900C9475027F928F929F92AF92BF92CF92DF92EF92FF92F8
:202940000F931F93CF93DF9300D01F92CDB7DEB77C01B62E742E1BEA619F112D112416958F
:2029600009F011E0212F30E042E064E0F701808191810E94B31F672B682B692B59F0812F76
:20298000880F180F198381E0810F8A831E5F1B8383E004C0B982BA82BB8281E09E012F5F5B
:2029A0003F4F49018901C82ED12CC7018B0D911D5C0198E0A90EB11CC801881999098C15AE
:2029C0009D05E4F4F8016081F701E60FF11D8281772011F0866009C0982F9D7F928380FFE7
:2029E00003C09460928302C0897F8283C7010E94F121F50170820F5F1F4FDECF0F900F9011
:202A00000F90DF91CF911F910F91FF90EF90DF90CF90BF90AF909F908F907F9008952F92D2
:202A20003F924F925F926F927F928F929F92AF92BF92CF92DF92EF92FF920F931F93CF9363
:202A4000DF93CDB7DEB72F970FB6F894DEBF0FBECDBF5C01162FF22E242F22952F702D83C3
:202A60003F2C32949FE039228F2D6BE00E940D33982E3AE0381710F48AE0982EC12CD12C15
:202A8000802F90E0A0E0B0E08E839F83A887B987842F90E0A0E0B0E089839A83AB83BC839C
:202AA000222423942F0C2F2D30E040E050E02A873B874C875D87012F0F7E960145E064E03B
:202AC000D5018D919C910E94B31F2E813F8148855985621773078407950709F0F3C09601EA
:202AE00043E064E0D5018D919C910E94B31FEE2051F1663050F46430A8F4613059F0633013
:202B000009F04CC0E1E0EE8737C0663071F0683099F044C0103909F43FC0B1E0BE87103804
:202B2000C1F538C0F1E0FE8732C00038B9F581E08F8791E09E8745C0103B81F5A1E0AF872F
:202B4000B1E0BE873EC0663038F46430F0F4662341F0623069F022C0663089F0683091F0B8
:202B60001DC00038E9F021E02F87103BB9F41EC00038D1F031E03E87103B59F40BC0003870
:202B800069F416C0103B51F418C041E04E87103C09F01E861F8615C01F8611C01F8606C060
:202BA0001F86E1E0EE870DC0F1E0FF871E8609C021E02F8731E03E8704C041E04F8751E030
:202BC0005E878C2C8BEAC89E212D1124269530E042E064E0D5018D919C910E94B31F2B0108
:202BE0003C01BE85BB2309F444C0960141E064E0F501808191810E94B31F29813A814B81CC
:202C00005C81621773078407950769F5103C31F4452846284728F1F07D8020C0452846280B
:202C20004728D9F43F85311118C0960144E064E0D5018D919C910E94B31F772473942A8595
:202C40003B854C855D85261737074807590731F0712C04C07724739401C0732C472D682D4A
:202C6000C50102DE07C0103C21F440E06C2DC501FBDD712C3F85332329F1960141E064E062
:202C8000D5018D919C910E94B31F29813A814B815C816217730784079507A1F43E853323C9
:202CA00069F0FF2049F0772039F0422D50E1759E401911244B3018F040E001C0492D682DF3
:202CC000C50135DE8FEFC81AD80A96E0C916D10409F0F3CE2F960FB6F894DEBF0FBECDBFE9
:202CE000DF91CF911F910F91FF90EF90DF90CF90BF90AF909F908F907F906F905F904F9020
:202D00003F902F900895FC01862F0190F081E02D309711F0642F09940895EF92FF920F937E
:202D20001F93CF93DF93CDB7DEB728970FB6F894DEBF0FBECDBF88E0E7E5F3E0DE01119661
:202D400001900D928A95E1F78E010F5F1F4F7E0189E0E80EF11CF80181918F01BED00E15AA
:202D60001F05C9F7809126048823E1F328960FB6F894DEBF0FBECDBFDF91CF911F910F9190
:202D8000FF90EF9008951F93CF93DF93EC01162F623081F1E0F4662309F468C0613009F0C0
:202DA0008AC062E17AE780E090E09CD1EF8DF8A1EC58FF4F11821082EF8DF8A1EA58FF4F77
:202DC0008DED93E1918380831093250474C0633049F1643009F06FC060E076E980E090E0F6
:202DE00081D1EF8DF8A1EC58FF4F86E294E19183808335C01092250460E076E980E090E0B7
:202E000071D1CE018ADFEF8DF8A1E858FF4F8BEF93E191838083EF8DF8A1E658FF4F81E787
:202E200091E015C01092250460E076E980E090E059D1EF8DF8A1E858FF4F80EE93E191834F
:202E40008083EF8DF8A1E658FF4F8EED93E191838083EF8DF8A1EC58FF4F11821082EF8D80
:202E6000F8A1EA58FF4F1182108225C0EF8DF8A1E858FF4F80E191E091838083EF8DF8A17E
:202E8000E658FF4F81E791E09183808362E17AE780E090E027D1EF8DF8A1EC58FF4F86E23B
:202EA00094E191838083EF8DF8A1EA58FF4F8DED93E191838083DF91CF911F9108958FB779
:202EC000F8941092C8001092C9001092CA001092CD001092CC008FBF0895CF93C82F8091F3
:202EE0002604882349F02FB7F89480917006909171062FBF892B79F06C2F8CE296E00E9407
:202F000081028823C9F3109226048091C90080628093C90007C0109226048FB7F894C093AB
:202F2000CE008FBF81E0CF910895CF93DF93EC01862FD3DF8881D1DF8981CFDF8A81CDDFC7
:202F40008B81CBDF9881898189279A8189279B818927C3DF81E0DF91CF910895AF92BF924F
:202F6000CF92DF92EF92FF920F931F93CF93DF931F92CDB7DEB78C017B0186E0C82ED12C19
:202F800097E7A92E96E0B92E1982BE016F5F7F4F86EE95E00E94B902882369F18981E091C3
:202FA0007D06E630C0F028E736E042E756E0DA01F90191919F019D93AA16BB06C9F7A7E7AE
:202FC000B6E0FA019191AF019D93AE16BF06C9F780937C0608C091E09E0F90937D06F0E024
:202FE000E958F94F808380917D06863021F0F1E0CF1AD10849F680917D06863009F046C0CF
:2030000080917706982F9D7F913F11F0823FF1F5F7018083809178063091790620917A06CC
:2030200090917B06F801808331832283938338272327922720917C06291328C010927D06A5
:2030400010927706109278061092790610927A0610927B0610927C06F7019081923FC1F418
:20306000813049F030F0823051F0833089F46FEF07C081E001C080E00E94120209C067E4B2
:203080008FEF93E00E94E0320E94000580E001C081E00F90DF91CF911F910F91FF90EF9095
:2030A000DF90CF90BF90AF9008951092250407DF8FB7F894109227061092260610922B0624
:2030C00010922A068FBF8FB7F89410926D0610926C0610927106109270068FBF81E08093E2
:2030E00026040895CF92DF92EF92FF926B017C01DCDFE5DED701C601B695A7959795879550
:20310000BC01CD0160587B47814E9F4FA70196010E942D3320FF0AC0213080E1380741058C
:20312000510524F482E08093C80009C01092C800DA01C901B595A795979587959C01215030
:2031400031093093CD002093CC0086E08093CA0088ED8093C900FF90EF90DF90CF90089519
:203160006F927F928F929F92AF92BF92CF92DF92EF92FF920F931F93CF93DF9300D000D0AD
:20318000CDB7DEB77C016B018A013C0186E7680E711CD3018D919C91892BB9F05A014A01D3
:2031A000860E971EA814B90441F0D301ED91FC91D5018D915D010995F5CFF701EC59FF4FFE
:2031C0008081882311F034961082BAE7EB0EF11CF70180819181892B09F44AC084E0B82E2F
:2031E000F4E0CF16D104B8F0D8012C9111969C91119712968C91B9822A839B838C83D701D5
:20320000ED91FC91CE01019609950D5F1F4FB3E0CB1AD108E5CFE3E0CE16D10469F4D8010E
:203220002C9111969C91119712968C9137E039832A839B838C8316C0B2E0CB16D10441F490
:20324000F8019081818126E029839A838B8309C0CA94CD2869F4F801808195E099838A8374
:203260001B821C82D701ED91FC91CE01019609950F900F900F900F90DF91CF911F910F9190
:20328000FF90EF90DF90CF90BF90AF909F908F907F906F9008950F93042FFC01ED58FF4F66
:2032A0002081213021F420E0462F60E803C020E0462F60E9F4D70F9108954F925F926F92EE
:2032C0007F928F929F92AF92BF92CF92DF92EF92FF920F931F93CF93DF9300D000D0CDB7C9
:2032E000DEB76C01842E5901902E623009F488C230F4662381F0613009F43FC2D1C2643055
:2033000009F426C108F4B7C0653009F0C9C28DE0F601828FFBC2411160C02130310541F0E1
:20332000A0F02230310511F123303105D9F0EEC2DC015F96ED91FC919097EC59FF4F81E079
:20334000011101C080E08083E3C2F601878D90A1FC01ED58FF4F002319F021E02083D8C25C
:203360001082D6C201111EC0A0DED2C223E030E040E060E0F601858D968DF5D5672B682B93
:20338000692B11F4011199C2D6015F96ED91FC919097EB59FF4F81E0911001C080E0808371
:2033A000911090C262E17AE780E090E09BDED6015F96ED91FC919097EC58FF4F86E294E1C0
:2033C000918380835F96ED91FC919097EA58FF4F8DED93E1918380839BC2F1E04F1325C0A5
:2033E0002115310529F02330310508F08FC28CC223E030E040E060E0DC015D968D919C919A
:203400005E97B1D5672B682B692B09F456C222E030E040E060E0F601858D968DA4D5672BBA
:20342000682B692B09F05AC248C2B2E04B136EC22115310571F4FC01058D168DC8010E94B8
:20344000BB0E981608F0D0C0692DC8010E945F245BC22130310509F059C2E1E0E01708F47D
:2034600055C2602F6170DC015D968D919C915E970E94630E49C2B2E04B1709F43FC0FC01BA
:20348000858D968D242F30E04B1708F452C0F8E0F41708F44EC0F901ED53FC4F708095012C
:2034A000472D63E060D57C836B83CE0101960E94F92245E0841631F087E0881619F0A3E09F
:2034C0008A1202C09A8201C0098389819A8180FF02C0906801C09F779A8390E0959587951D
:2034E0008983E12CF12CF82E8A81E82AFC82EB8200E010E09501472D63E0D8C1DC019596AA
:203500008D919C919697DC01A20FB31F5C961C925C97F9013596EE0FFF1FE80FF91F1182BE
:20352000108256961C92E02EF12C00E010E042E0E3CFF9E08F1201C09A94E92CF12C00E015
:2035400010E0F901ED53FC4F9501408163E0B1C143E0841609F4C9C0481560F081E08816FB
:20356000A1F08815F8F0402F622FF60187A190A57BD9CAC1A5E08A1609F4B7C08A16B0F128
:20358000B7E08B12EFC09A94B0C0011102C040E001C045E06A2DD60197968D919C919897BB
:2035A000C6D9B2C1B1E02B17F9F02B1720F0E2E02E17A9F0ABC1F1E0F01708F4A7C1D601CC
:2035C0009796ED91FC919897B1E0CF010B1711F04C9601C04196908B878796868DC1E1E032
:2035E000E01708F493C188C18DE068C12BEAA29E212D1124722E769411F077247394872CCD
:20360000880C870C40E0682DF60187A190A52CD961E0680D40E0D60197968D919C91989721
:2036200023D962E0680D40E0F60187A190A51CD9E92CF12C00E010E0272D30E042E064E0A2
:20364000D6015D968D919C915E9788D1182F992009F431C1882309F459C1912C950141E0E2
:2036600064E0F601858D968D7ED4682C690C712C7B018C01930141E064E0D6015D968D91F8
:203680009C915E976BD1882309F440C1950143E064E0F601858D968D66D47B018C01930123
:2036A00043E064E0D6015D968D919C915E9756D1882309F42BC1950145E064E0F601858DD6
:2036C000968D51D47B018C01930145E064E0D6015D968D919C915E9741D1882309F416C101
:2036E0009394B3E09B12BACF0FC11BEAA19E112D1124169509F011E0212F30E042E064E0F8
:20370000F601858D968D2FD4E82DF0E0492C512C612C712C672B682B692BE9F0B12EBB0C41
:20372000B10EA12CE554FC4F90802A2D2B0D30E083017201492D64E0D6015D968D919C9104
:203740005E970CD1182F882309F4E0C0A394B3E0AB12EBCFB0C0E554FC4F83017201950146
:203760004081D0C0E02EF12C00E010E0E82DF0E0E554FC4F408164E0D6C0F4E04F1301C002
:203780009A94E92CF12C00E010E0E82DF0E0EA54FC4F9501408161E0D6015D968D919C91DE
:2037A0005E97DCD0882309F4B1C0B1E0B81508F4ABC0D6019196ED91FC919297DF01AA0DC1
:2037C000B11D18961C922A2D269526952695B8E02B9FA018112481E090E0A0E0B0E004C043
:2037E000880F991FAA1FBB1FAA94D2F78095E20FF11D96899823968B908D8923808F84C0A5
:20380000E4E04E1301C09A94E92CF12C00E010E0E82DF0E0E355FC4F9501408162E0D601BA
:203820005D968D919C915E9799D0182FF601E3A0F4A0BB24950142E062E0D7018D919C919B
:2038400092D395012D5F3F4F653071058105910559F4C901880F991FF701E80FF91F80E05F
:2038600090E29183808308C0C901880F991FF701E80FF91F11821082F501EE0FFF1FEE0FA4
:20388000FF1FEE0DFF1D16861786108A118AF701EA0DFB1D168E16A212A616A612AA0BC027
:2038A000E92CF12C00E010E09501482DF601858D968D54D0182F812F3CC08CE0D6015A9685
:2038C0008C9324C020E030E041E060E0F601858D968D49D3633059F464E009C0B4E0B017E4
:2038E00048F0F3E09F1202C064E0962E692DC6014ADA0EC08AE0E2CFE92CF12C00E010E0D6
:20390000950140E064E0D2CF81E013C080E011C0E92CF12C00E010E0E82DF0E0E353FC4F3F
:203920009501408160E0D6015D968D919C915E97C0CF0F900F900F900F90DF91CF911F915B
:203940000F91FF90EF90DF90CF90BF90AF909F908F907F906F905F904F9008954F925F92C4
:203960006F927F928F929F92AF92BF92CF92DF92EF92FF920F931F93CF93DF93CDB7DEB72C
:2039800028970FB6F894DEBF0FBECDBFDC015196ED91FC915297309709F452C0DC015C91C9
:2039A000651708F04DC0B5E06B9FE00DF11D11245081451708F044C0A181B28159E0459F1C
:2039C000A00DB11D11244D915C91119724173507B8F56701780189015C0143805480179694
:2039E0008D919C911897480E591EF50125813681420E531E12968C91823021F108F0EEC0BD
:203A00008111CAC08FEF9FEFD5015D969C938E935C97480153E0969487945A95E1F7480C96
:203A2000511C612C712C5396ED91FC9154979E012F5F3F4F40E0C301B201099581116CC062
:203A400080E022C18FEF9FEFF501958F848F980136952795420E531E612C712C0388F489D7
:203A6000E02D9E012F5F3F4F42E0C301B2010995882331F3FFE0CF22DD24EE24FF24898168
:203A80009A81AB81BC8100FF0CC08F709927AA27BB2724E0CC0CDD1CEE1CFF1C2A95D1F7E4
:203AA00004C0807F9927AA27BB27C82AD92AEA2AFB2AC982DA82EB82FC8229813A814B81DF
:203AC0005C81D5015596ED91FC91569702E0C301B2010995882309F4B3CFD5015396ED91F2
:203AE000FC9154979E012B5F3F4F42E0C301B2010995882309F4A4CF81E009811A812B8113
:203B00003C814D815E816F817885041715072607370709F095CFB8C0B8E08B9E00191124C8
:203B200010E049815A816B817C81F501E00FF11FC0FE07C081858A019B01082BD901C8018A
:203B40000DC0218530E0C90180959095092E000CAA0BBB0B84239523A623B72389839A83F5
:203B6000AB83BC8329813A814B815C81D5015596ED91FC91569700E0C301B2010995882371
:203B800009F45ECFD5015396ED91FC9154979E012B5F3F4F40E0AACF813009F051CFDD242B
:203BA000EE24FF24400E511E612C712CD5015596ED91FC91569701E0A7019601C301B20199
:203BC0000995882309F43CCFD5015396ED91FC9154979E012B5F3F4F41E021C0833089F5F5
:203BE000EE24FF24000F111F400E511E612C712CD5015596ED91FC91569703E0A70196018F
:203C0000C301B2010995882309F41ACFD5015396ED91FC9154979E012B5F3F4F43E0C301AB
:203C2000B2010995882309F40BCF81E04D815E816F8178854C155D056E057F0509F000CF34
:203C400023C0843009F0FCCE000F111F000F111F400E511E612C712CD5015596ED91FC91D9
:203C6000569704E0A7019601C301B2010995882309F4E6CED5015396ED91FC9154979E016F
:203C80002B5F3F4F44E0CBCF28960FB6F894DEBF0FBECDBFDF91CF911F910F91FF90EF901B
:203CA000DF90CF90BF90AF909F908F907F906F905F904F9008958F929F92AF92BF92CF929C
:203CC000DF92EF92FF920F931F93CF93DF93DC015C91651708F032C151960D90BC91A02D6A
:203CE000E5E06E9FA00DB11D11245C91451708F025C11196ED91FC91129759E0459FE00DB6
:203D0000F11D1124408151812417350708F016C1E9017C011396CD90DC90149787819085E6
:203D2000C80ED91ED70115966D917C911697C60ED71E82818130C9F4CC0EDD1EB60180E055
:203D400090E0D7015396ED91FC915497980141E00995882309F4F2C0F80180819181A2815B
:203D6000B3819927AA27BB2720C0813018F1823009F487C05396ED91FC915497833009F081
:203D8000B6C0CC0FDD1FCC0EDD1EB60180E090E0980143E00995882309F4D0C0F8018081EE
:203DA0009181A281B381AA27BB2780839183A283B383C6C05E0163E0B694A7946A95E1F7F1
:203DC000BB24CA0CDB1CD7015C968D919C915D97C816D906D9F453E0AA0CBB1C5A95E1F71D
:203DE000CA19DB09CE0DDF1D99855B968C91892341E050E060E070E019F440E050E0BA0154
:203E0000F80140835183628373839AC0C601A0E0B0E0F70183889488980140E0BC01CD01A3
:203E2000F4010995882309F489C0D8018C91F701838F43E0AA0CBB1C4A95E1F7CA19DB09D0
:203E4000CE0DDF1D898590E0A0E0B0E0F801408151816281738184239523A623B72341E077
:203E600050E060E070E0892B8A2B8B2B19F440E050E0BA01D8014D935D936D937C931397E9
:203E80005FC0BE0176956795C60ED71ED7015C968D919C915D97C816D90641F45B968C916B
:203EA00090E0A0E0B0E0C0FF3AC019C0C601A0E0B0E0F701A388B488980142E0BC01CD0174
:203EC000F50109958823D1F1D8018C91F701838FC0FF2AC08D919D910D90BC91A02D24E031
:203EE000B595A795979587952A95D1F718C0CC0FDD1FCC0FDD1FCC0DDD1DBE0180E090E085
:203F0000980144E0DF91CF911F910F91FF90EF90DF90CF90BF90AF909F908F900994F80176
:203F200080839183A283B383F80180819181A281B3818F709927AA27BB2737CF80E006C00E
:203F4000D7015D96DC92CE925C9781E0DF91CF911F910F91FF90EF90DF90CF90BF90AF90EA
:203F60009F908F900895CF92DF92EF92FF920F931F93CF93DF9300D000D0CDB7DEB7CC24A1
:203F8000CA94DC2C7601C982DA82EB82FC828E010F5F1F4F90DE69817A818B819C810F902C
:203FA0000F900F900F90DF91CF911F910F91FF90EF90DF90CF900895AF92BF92CF92DF9227
:203FC000EF92FF920F931F93CF93DF93DC0111961D921D921D921C9214976115710509F4D4
:203FE00014C1442309F411C152967C936E9351974C9365E070E080E090E02C9130E082172C
:2040000093070CF004C18B0105501109E12CF12C40E050E05196CD91DC915297FE01E00F47
:20402000F11F2081C22ED12C0180F281E02D4C155D050CF074C04115510519F41086178206
:2040400068C05F01AE0CBF1C950129503109E901DA803FEF340FD9E03D9F90011124C1E049
:20406000DC1669F1DC1690F0D2E0DD1689F1C3E0DC123FC0E20FF31F20813181220F331FFA
:204080000780F085E02D2E0F3F1F2FC0E20FF31FC080D1809601D3E036952795DA95E1F7E1
:2040A0000780F085E02DE20FF31FD7E0CD22DD2421E030E0CD2841F520E030E025C0E20F2B
:2040C000F31FC080D180278130852C0D3D1D0DC0E20FF31F208131816901D1E0CD22DD241F
:2040E000369527952C0D3D1D0CC0E50138872F8310C0E20FF31F20813181220F331F220FA9
:20410000331F0780F085E02D2E0F3F1FF501308727834F5F5F4FF9E0EF0EF11C7BCF215058
:2041200039E0239FE00DF11D1124228140815181C780D084213051F138F02230C9F023308A
:2041400009F5440F551F22C09A01E3E036952795EA95E1F7C20ED31E4770552721E030E077
:20416000452B11F420E030E0A601420F531F10C0FA01E170FF279A01369527952E0F3F1F51
:20418000A90104C0440F551F440F551F4C0D5D1D6A01E12CF12C009711F41C821B822C9127
:2041A00030E0215031098217930784F451962D913C915297F901E60FF71FE901C00FD11F90
:2041C0002B813C812C0D3D1D3483238311960D911D912D913C911497C00ED11EE21EF31E8F
:2041E0001196CD92DD92ED92FC9214976B5F7F4F57960D911D912D913C915A97C016D10698
:20420000E206F30610F40196F8CE80E001C081E0DF91CF911F910F91FF90EF90DF90CF90DE
:20422000BF90AF900895FF920F931F93CF93DF9300D000D0CDB7DEB78C01F62EFC01EA58F1
:20424000FF4F0190F081E02D309711F0862F0995F801E658FF4F0190F081E02D309751F04A
:2042600019821A821B821C828FE08983FA82CE01019609950F900F900F900F90DF91CF9185
:204280001F910F91FF9008956D3F28F46A3F28F4683F19F008956E3F08F0C5CF0895AF92B1
:2042A000BF92CF92DF92EF92FF920F931F93CF93DF9300D000D0CDB7DEB77C01162FFC0129
:2042C000EA59FF4F8081882321F0003130F40F5F0EC08FEF800F803150F0F701EC59FF4F76
:2042E0008081882309F44DC0349610824AC017FFF4CF113E08F040C04F77D42E2F77C22E24
:204300000150012B570186E7A80EB11CD501ED91FC9111973097C9F052978C91882329F005
:2043200014968C91801719F00C93802F0995D501ED91FC918D2D0995812F8F7E803C29F05F
:20434000D501ED91FC918C2D0995F701E658FF4F0190F081E02D3097A1F0612F70E084E0F6
:20436000759567958A95E1F769830A83DB82CC82CE010196099505C0163F18F0612FC7019E
:2043800083DF0F900F900F900F90DF91CF911F910F91FF90EF90DF90CF90BF90AF90089518
:2043A0000F93022F242F462F60EB79DF0F910895FC01A089B189109791F0603F21F0673FA4
:2043C00011F067FD6FE7808D918DA80FB91F6C93808D918D0196918F808F81E0089580E01A
:2043E0000895262F860F911DFC018281857061E0853009F060E0822F0C947502CF93DF93C8
:20440000EC0161E088819981D3DF64E388819981CFDF62E388819981CBDF6CE788819981F9
:20442000C7DF61E088819981C3DF60E088819981BFDF60E088819981DF91CF91B9CFCF93B2
:20444000DF93EC0164E088819981B2DF61E088819981AEDF61E088819981DF91CF91A8CF69
:20446000AF92BF92DF92EF92FF920F931F93CF93DF9300D000D0CDB7DEB77C018B019A8320
:2044800089839C838B836535710509F43EC0F0F464347105D1F158F46234710591F16334B3
:2044A000710509F089C0CE010196C9DF2AC06D34710509F45FC06035710509F07DC0FC01DB
:2044C000858D968D0E94BB0E682F5DC06536710509F46EC050F46635710579F0643671057E
:2044E00009F06AC0FC0111A669C06D36710509F44DC06F37710549F05FC0CE0101969FDF41
:204500005DC0CE0103967ADF59C0F701A7A0B0A4F2E0AF0EB11CD12CF50111925F0160E07F
:204520008D2D0E947502D394F6E0DF12F5CF80E090E00196853C29E0920739F0EFE9FFE00C
:204540003197F1F700C00000F4CF0434110531F460E0F701858D968D1AD205C00535110547
:2045600011F467E401C06FEF8FEF93E00E94E0320E9400056EE01CDF64E0C70119DF66E0ED
:20458000C70116DF66E0C70113DF18C020E030E041E060E0FC01858D968DE5DC633071F42A
:2045A000C7010E948D1663E0C7010E94C31606C081E0F70181A703C080E001C081E00F903D
:2045C0000F900F900F90DF91CF911F910F91FF90EF90DF90BF90AF9008952FB7F8946091D3
:2045E0007E0670917F0680918006909181062FBF0895FC018281238130E0220F331F87FF2A
:2046000003C02F77216001C02E7720838F7781830895CF92DF92FF920F931F93CF93DF9375
:20462000CDB7DEB728970FB6F894DEBF0FBECDBFFC01F42E68011D821E821F8218866230C3
:2046400009F4ECC030F4662371F0613009F4D3C017C1643031F108F491C0653009F010C148
:204660008DE0828F16C141E04F1520F482E0F81639F00FC18E010B5F1F4F4F2D60E004C1FB
:204680002115310529F4058CF68DE02D86A1E5C02130310509F001C1858D968D0E940A0E73
:2046A000DCC091E0491709F446C0491778F0858D968DE4E04E1709F44AC0F7E04F1354C010
:2046C0008E010B5F1F4F45E064E089C047A150A5FA01E20FF11D828180FF29C083FF29C014
:2046E0008BEA289F212D1124269509F021E0822F880F280F82E0820FFA01E80FF11D8281D1
:2047000086FB882780F9880F91E0920FFA01E90FF11D928195FB992790F9892B880FFA0114
:20472000E20FF11D928192959170892B96C080E094C081E092C007A0F0A5E02DE20FF11D86
:20474000828181FBAA27A0F9B0E0CD0187C03BEA239F212D1124269509F021E030E08E010D
:204760000B5F1F4F42E008C0A42FB0E0A554BC4F8E010B5F1F4F4C9164E088C0858D968D0B
:2047800043E0F41670F1E8E0EF1548F4F9E0FF1228C08E010B5F1F4F46E063E020C0EF2DE5
:2047A000F0E0ED53FC4F8E010B5F1F4F408163E082DA882309F46DC08D819E819C838B83A8
:2047C000CE01019616DF45E0F41609F443C087E0F81609F43FC093E0F9123EC03BC06BDA22
:2047E00019C0EF2DF0E0ED53FC4F8E010B5F1F4F408163E04BC0A42FB0E0AA54BC4F8E01F8
:204800000B5F1F4F4C9161E0858D968D54DAE4E0FE123DC0882309F43CC026C0A42FB0E081
:20482000A355BC4F8E010B5F1F4F4C9162E0858D968D41DA882369F18F2D8B7F833089F4A4
:204840008D819E819C838B83CE010196D2DEF3E0FF1202C08A8101C0898190E0A0E0B0E0EC
:204860000AC044E0F41219C08D819E81AF81B8850196A11DB11D8D839E83AF83B8870DC03F
:204880008E010B5F1F4F4F2D858D968D14DA811104C0F601108280E004C08D81F601808307
:2048A00081E028960FB6F894DEBF0FBECDBFDF91CF911F910F91FF90DF90CF900895BF9227
:2048C000CF92DF92EF92FF920F931F93CF93DF93EC01B62E0E94BB0EB81608F04BC0BEA25F
:2048E0008F89988DA98DBA8D892B8A2B8B2B21F01D821E821F82188646E06BEF72E0CE01AF
:204900005BDBEB2CF12C00E010E020E030E041E060E0CE0123D845E060E073E0CE014CDB74
:20492000CCA0DDA0E12CF12C88A199A1AAA1BBA19C01AD012C193D094E095F09AEA1B0E0E6
:204940000E946433C60ED71EE81EF91E8F89988DA98DBA8DC816D906EA06FB0620F4CD826D
:20496000DE82EF82F886EE8DFF8D309729F08B2D099502C080E001C081E0DF91CF911F91E7
:204980000F91FF90EF90DF90CF90BF9008952F923F924F925F926F927F928F929F92AF92A6
:2049A000BF92CF92DF92EF92FF920F931F93CF93DF93CDB7DEB729970FB6F894DEBF0FBE06
:2049C000CDBF998788876B83613009F5C12CD12C7601E885F9858789908DA18DB28DC816DB
:2049E000D906EA06FB0698F40588F689E02D01E020E030E0A901C701B6010995882309F4E2
:204A000001C1FFEFCF1ADF0AEF0AFF0AE2CF888599850E94950D7C01E885F9858789908D5D
:204A2000A18DB28D892B8A2B8B2B21F0158216821782108646E06BEF72E088859985BCDAE8
:204A400000E010E020E030E040E060E0888599850E94AE1C45E060E073E088859985ACDA16
:204A6000E885F985C4A0D5A0E12CF12C80A191A1A2A1B3A19C01AD012C193D094E095F09C9
:204A8000A6A1B0E00E946433C60ED71EE81EF91E8789908DA18DB28DC816D906EA06FB06D8
:204AA00020F4C582D682E782F086A12CB12C888599850E94BB0E90E0A816B9060CF098C0E3
:204AC0006A2D88859985FBDED12CE885F9858081D81608F089C0F5E0DF9E10011124C12C9E
:204AE000A885B9855196ED91FC915297E20DF31D8081C81608F076C0B9E0CB9E30011124FC
:204B00000180F281E02DE60DF71D8381882321F08B81882309F464C044805580A081B18109
:204B2000BA83A9838281823099F028F4882381F0813021F055C0853008F052C0812C912C96
:204B4000C201A0E0B0E08C839D83AE83BF8325C0812C912C612C712C3EC0A885B985519617
:204B6000ED91FC915297E20DF31D0180F281E02DE60DF71D86818823B1F07201E80CF91C6B
:204B800000E010E094014C2D6D2DCD010E94AE1C882351F1BFEF8B1A9B0AA981BA81A8155C
:204BA000B905D9F61DC0EC80FD800E811F8194014C2D6D2D88859985E9CF8301720194015C
:204BC0004C2D6D2D888599850E94AE1C882361F0FFEF8F1A9F0AE981FA81E815F90569F7AF
:204BE000C3947ECFD39471CF8FEFA81AB80A5FCF60E08885998563DE60E0888599850E9481
:204C0000630E81E029960FB6F894DEBF0FBECDBFDF91CF911F910F91FF90EF90DF90CF90C0
:204C2000BF90AF909F908F907F906F905F904F903F902F900895CF93DF93CDB7DEB76E979F
:204C40000FB6F894DEBF0FBECDBFF89484B78D7F84BF84B7877F84BF0FB6F894A8958091D4
:204C60006000886180936000109260000FBE90E080E80FB6F89480936100909361000FBEBB
:204C80005198599A5098589A54985C9A3E98469A57985F9A6E98769A2198299A23982B9ACC
:204CA000249A2C98259A2D98269A2E98279A2F98569A5E983F9A479887988F9886988E98B8
:204CC00085988D9884988C988198899880988898559A209A5D9A289A22982A9A10927C00E2
:204CE00010927A0080917A00876080937A0080917C00806480937C0080917A008068809313
:204D00007A0087E00E947A0303E010E080917A00806480937A0080917A0086FDFCCF8091DA
:204D20007800909179000150110981F780917A00886080937A0080917A00806480937A0082
:204D400081E08093D40391E89093D50320E430E03093D7032093D6038093D90392E09093D3
:204D6000DA033093DC032093DB038093DE039091D8009F7E9093D8009091D7009160909312
:204D8000D70094E092BF8093F5038091D8008E7F8093D8001092E2001092DA001092E10008
:204DA0008091D8008F778093D8008091D80080688093D8008091D8008F7D8093D80019BCA8
:204DC0001092D3031092D2031092D1031092D0038091E0008B7F8093E0008091D800816041
:204DE0008093D80042E060E080E00E9443058091E1008E7F8093E1008091E2008160809342
:204E0000E2008091E20088608093E2008091E0008E7F8093E0008091D80080618093D8003A
:204E200014BC15BC10926E00109280001092810010929000109291001092C0001092C10052
:204E40001092C2001092C3001092C40084B5826084BD85B5836085BD8CE787BD80916E0032
:204E6000826080936E0078948091D6059091D705A091D805B091D905892B8A2B8B2B41F05D
:204E80001092C4051092C5051092C6051092C70546E06BEF72E08FEB95E08ED8882309F491
:204EA000EBC08091C0059091C105A091C205B091C3058093DF059093E005A093E105B0932E
:204EC000E20580910303909104039093E4058093E3058091D6059091D705A091D805B0916D
:204EE000D905892B8A2B8B2B41F01092C4051092C5051092C6051092C70546E06BEF72E000
:204F00008FEB95E059D820E030E040E060E08FEB95E029D85B0145E060E073E08FEB95E00E
:204F20004BD8C090E305D090E405E12CF12C8091DF059091E005A091E105B091E2059C01CC
:204F4000AD012C193D094E095F09A091E505B0E00E946433C60ED71EE81EF91E8091D605A3
:204F60009091D705A091D805B091D905C816D906EA06FB0640F4C092C405D092C505E0926C
:204F8000C605F092C7058FEB95E00E94950DA816B90629F061E08FEB95E0F9DC6DC08FEB83
:204FA00095E00E940A0E882309F45FC08091D6059091D705A091D805B091D905892B8A2B7C
:204FC0008B2B41F01092C4051092C5051092C6051092C70546E06BEF72E08FEB95E00E94D5
:204FE000DC1F20E030E041E060E08FEB95E00E94B31F6093E50545E060E073E08FEB95E05E
:205000000E94DC1FC090E305D090E405E12CF12C8091DF059091E005A091E105B091E2050E
:205020009C01AD012C193D094E095F09A091E505B0E00E946433C60ED71EE81EF91E809100
:20504000D6059091D705A091D805B091D905C816D906EA06FB0658F4C092C405D092C5050A
:20506000E092C605F092C70502C01092E5056091E5058FEB95E023DC1092380410923704D3
:205080001092290410924304109242048AED91E090932C0480932B0486E080932D0480E0E9
:2050A00090E020E030E040E050E0E0912B04F0912C04E80FF91F608170E04617570734F5AB
:2050C0000180F281E02DE20FF31F60817181A5E076956795AA95E1F76483E0912B04F0914E
:2050E0002C04E80FF91F0180F281E02DE20FF31F608171816F717727672B19F064816F5FCE
:2051000064834F5F5F4F2B5F3F4FCFCF03968231910539F689EB91E090933A0480933904EF
:20512000FC018AED91E0208131812630310548F410923A041092390410923C0410923B04ED
:205140000AC033968E179F0771F78BE090E090933C0480933B04E0914604F0914704E759B2
:20516000FF4F81E1808320E030E040E060E080914404909145040E94B31FE0914604F09199
:205180004704ED58FF4F608321E030E040E060E080914404909145040E94B31FE0914604EB
:2051A000F0914704DF01AC59BF4F21E0672B682B692B09F420E02C93DF01AA59BF4F81E068
:2051C0008C93529680E191E08D939C93E658FF4F81E791E09183808323E030E040E060E0B8
:2051E00080914404909145040E94B31F672B682B692B09F45FC022E030E040E060E0809120
:205200004404909145040E94B31FE0914604F0914704EB59FF4F21E0672B682B692B09F498
:2052200020E0208322E030E040E060E080914404909145040E94B31F672B682B692B19F15F
:2052400020E030E041E060E080914404909145040E94B31F633091F460E076E980E090E01F
:205260000E9472188091460490914704FC01EC58FF4F26E234E13183208327C087E294E074
:205280000E94C31625C062E17AE780E090E00E9472188091460490914704FC01EC58FF4FB8
:2052A00026E234E13183208332962DED33E1318320830EC00E945518809146049091470489
:2052C000FC01EC58FF4F1182108232961182108222E030E040E064E08091FE049091FF0480
:2052E0000E94B31F672B682B692BB9F1F12C41E06F2D8EEF94E00E943414F39496E0692E8E
:20530000F610F5CF80E090E00196813D27E0920739F0AFE9BFE01197F1F700C00000F4CF8B
:2053200080E0C82E85E0D82EF12CF60111926F0160E08F2D0E947502F394F6E0FF12F5CF3E
:205340000F5F1F4F013D27E0120739F08FE99FE00197F1F700C00000F3CF20E030E040E0C1
:2053600064E08091FE049091FF040E94B31F662329F0613059F48FE095E002C08AE195E038
:2053800090930E0580930D0560930C05E4E3F5E08FE395E021E021938E179F07E1F7F3E779
:2053A000AF2EF4E0BF2EA5E6CA2EA4E0DA2E8601E12CF12C812CB0E29B2E970142E062E08B
:2053C00080916504909166040E94B31F653071058105910531F4D60117969C928E92169789
:2053E00003C0F60117821682D5011D921D921D921D925D01F801168E16A212A616A612AA4D
:20540000FFEFEF1AFF0A0F5F1F4F22E0C20ED11C34E0E316F10489F68FEB98E09093DA047D
:205420008093D90487EB98E09093E4048093E30488EA98E09093DE058093DD0510E0E12CAB
:20544000012F20E040E060EC8EEF94E00E940F151F5F1031A1F78DEF93E00E94BD32ECEA4C
:20546000F0E04591559165917491FA01659174918617970731F08DEF93E00E94DC3281E053
:2054800001C080E00E9412028091A8058231E9F08091B7059091B805892BB9F081E00E94E0
:2054A0009711882391F080917205882371F08058813608F078C68091A805909171058917CA
:2054C00009F471C6813109F46EC623E030E040E060E08FEB95E00E94B31F672B682B692B26
:2054E00009F4F0C022E030E040E060E08FEB95E00E94B31F672B682B692B09F4C2C020E0F2
:2055000030E041E060E08FEB95E00E94B31F611571058105910539F0643071058105910560
:2055200009F4AFC0CFC08091A805823109F4CAC08091B3059091B405892B09F4C3C080E041
:205540000E949711882309F4BDC060914005C090B505D090B605E090B905F090BA05109272
:20556000B6051092B50580E8860F813658F400913F0520914205409141058FE395E00E94A7
:205580004F2176C0663F19F1C0F4613F09F45BC018F4603F09F16CC0623F71F1633F09F0DB
:2055A00067C01091410583EFE0E0F0E00995E091B505F091B605812F3DC06D3F28F46A3FB8
:2055C00030F4683F21F054C06E3F08F451C08FE395E00E9444214CC06091410570914205A8
:2055E0006E32710510F06DE270E043E455E08FE395E00E94B0183CC000914205F0E80F9FEF
:205600008001112480914105082B82EFE0E0F0E00995E091B505F091B605802F8F770995F1
:20562000C801880F892F881F990B9195E091B505F091B6058F7709958091A3058823C1F0C1
:205640001092A70515C0809141058770F0E18F9FC0011124109142051F70182B81EFE0E0FA
:20566000F0E00995E091B505F091B605812FE3CFD092B605C092B505F092BA05E092B90559
:2056800021C08091A8058231E9F08091B3059091B405892BB9F080E00E949711882391F009
:2056A00080914005882371F08058813608F07FC58091A80590913F05891709F478C581310E
:2056C00009F475C580915004882309F4DDCE8091F403882309F44AC29FB7F8948091F60333
:2056E0008F5F8093F603853011F41092F603E091F603F0E0E151FC4F80818093EE0380918E
:20570000F40381508093F4039FBF09EB14E0F12C2F2D269530E040E062E08091B9049091DC
:20572000BA040E94B31F672B682B692B91F48F2D0E94FB01D80118969C911897990F906F95
:20574000982B18969C93903F09F435C59F3F09F432C5F3940F5F1F4FB8E0FB12D9CF75E606
:20576000872E74E0972E412C34017401A12CB12C950140E062E080916504909166040E94FB
:20578000B31F672B682B692B09F4DFC13A2C842D0E94FB01182F81E0840D0E94FB01F7015D
:2057A00096A5E92FEE0FEE0F8E2B110FE82FE12B8E2F8068D7019E968C9397FD02C010E08A
:2057C0002DC0EF70F0E0EB59FB4F16A9F70182A9180F12AB950145E062E0809165049091C1
:2057E00066040E94B31F212F110F330B37FF03C03195219531098901330F220B330B06171A
:20580000170728073907DCF2D701D2968C91181614F411E001C012E0F70112AA0E94ED2291
:20582000D3011E962D913D914D915C915197DC01CB01821B930BA40BB50BC397A105B10598
:2058400018F0F70112A616A2112309F47EC1950141E062E080916504909166040E94B31FF6
:20586000672B682B692B29F0113011F412E001C011E0D7019A968C919A97843081F09296C9
:205880008C919297811711F09A961C92F70182A58F5F843011F082A702C012A616A3950197
:2058A00046E062E080916504909166040E94B31F062F662371F10E94ED22F30126853785DB
:2058C00040895189DC01CB01821B930BA40BB50B8C389105A105B105C8F4802F90E0D70169
:2058E0005E966C918B599B4FFC01EA5BFF4F208130E03496408150E0C901860F911D481781
:2059000059070CF4CA01F701868F03C0D7015E961C92F70112A30E94ED22D3011E966D932C
:205920007D938D939C935197F70156A0511001C0512E950143E062E0809165049091660491
:205940000E94B31F262E950144E062E080916504909166040E94B31F062F950142E062E0DB
:2059600080916504909166040E94B31F162FD7015E968C91811101C081E01330F1F118F49B
:205980001230D8F407C0143009F46DC0193008F0D4C030C0812F90E0FC01EE0FFF1FE80FD0
:2059A000F91FEB59FB4FE50DF11DE25BFF4FC080D12C123009F044C02EC0B1E05B120CC082
:2059C000003108F0BAC0E02FF0E0EB5EFB4F80818F37C0F48F5F0BC0003108F0AEC0E02FD8
:2059E000F0E0EB5EFB4F8081882361F08150808381E009C0153009F4E3C399EF910F923077
:205A000070F4DEC380E0E02FF0E0EB5EFB4FC080882309F492C020E04C2D60EC1DC041E0B2
:205A20005412D8C3F40126813781A901481B5109CA0157FFCCC317821682F401C680D78037
:205A4000153099F4A6015F739A01220F232F221F330B31954F7760EE80916704909168047B
:205A60000E944F216AC0C12CD12C8AEF810F833008F048C0822D90E09C838B83CE01019692
:205A80000E94F922202F498163E680916704909168040E94D021202F4A8162E6809167046D
:205AA000909168040E94D021163021F4202F4C2D66E02DC05A80DC82CB82CE0101960E94E3
:205AC000F922183091F4FFE5F51508F44FC0202F4981652D80916704909168040E94D0219E
:205AE00060E2650D202F4A8112C0202F498166E080916704909168040E94D021202F4A81F1
:205B000066E205C0143051F0202F4C2D622D80916704909168040E94D0210FC0E091650457
:205B2000F091660496A122E0521202C061E001C06FEF690FCF010E945F24432D62E080918B
:205B4000690490916A040E9483163FEFA31AB30A4FEFE41AF40A54E0650E711C439443944A
:205B600062E0860E911C78E0471202CE8091ED03882309F414C38BED94E09A8789879C8761
:205B80008B87C12CD12C960140E063E08091DB049091DC040E94B31F672B682B692B09F4F4
:205BA000E2C28FB7F894F601EE0FFF1FE052FC4FA080B180118210828FBF960142E063E020
:205BC0008091DB049091DC040E94B31F162F8091FD048823E9F0B7E0AB16B10494F0E9EF1C
:205BE000AE16E3E0BE0684F4AB85BC851A968D919C911B9796958795B594A794A80EB91E6C
:205C000007C0A12CB12C04C0AA24AA94B3E0BB2ECE8E133009F49EC2123009F405C228F0AD
:205C20008CEF810F843008F09EC235010B2C000C880899086D8A7E8A8F8A988E8BEF810F5B
:205C4000833048F421E0298F81E090E0EE24EA94AFE3FA2E06C0198E86E090E0FFE7EF2E3B
:205C6000F12CAB85BC851A962D903C901B973101812C912C6D827E828F8298862D893E8974
:205C80004F89588D261537054805590510F002E001C001E0A985BA855C96BC91B98BBB23D3
:205CA000A1F0B01729F0698C662011F0880F991F2D893E892219330937FF03C0319521953F
:205CC00031092817390708F44EC23701812C912C6D867E868F86988A2FEFE21623E0F2061E
:205CE00009F44EC03FEFE31633E0F30660F52D893E894F89588D540143016FEF861A960AA0
:205D0000A60AB60AC501B40179D42B013C012D813E814F815885C501B40170D49B01AC01C0
:205D20006AE056954795379527956A95D1F72D833E834F8358877AE07694679457944794BC
:205D40007A95D1F721C09701D501B8D42FEF33E040E050E082D4922EA32EB42E852E910102
:205D6000D7019DD42FEF33E040E050E076D42D833E834F835887492C5A2C6B2C782C04C0F3
:205D80004D885E886F88788C4D815E816F817885441655066606770619F489888110E3C1C2
:205DA000A985BA855C960C93960144E063E08091DB049091DC040E94B31F698B7A8B8B8B73
:205DC0009C8B29883A88960145E063E08091DB049091DC040E94B31F4B015C017B01960109
:205DE00043E063E08091DB049091DC040E94B31F6A8F7B8F8C8F9D8FEA8DFB8DFE83ED839E
:205E0000960146E063E08091DB049091DC040E94B31F062FF98DF1111FC02A8D3B8D3C8343
:205E20002B83CE0101960E94F9228A81482F50E05E834D8369897A897C836B83CE010196E6
:205E40000E94F9222A80312C9C828B82CE0101960E94F922EA80F12CC701A0E0B0E041018F
:205E6000A12CB12C81149104A104B10449F42D853E854F855889281739074A075B0779F1F1
:205E8000BC01CD01681979098A099B092D853E854F855889621773078407950790F49B01D9
:205EA000AC012F5F3F4F4F4F5F4FC301B201A6D32D853E854F8558892F5F3F4F4F4F5F4F4B
:205EC00007C0A30192019AD32D853E854F855889C4D324013501420E531E641E751E9601CE
:205EE00041E063E08091DB049091DC040E94B31F672B682B692B51F04D855E856F85788935
:205F000044195509660977092A013B01163028F41430B8F4123038F026C1163009F461C069
:205F2000173079F020C18091DD049091DE04111104C0202F442D6D8129C0242D4D8160E9F6
:205F400060C08D809E809C828B82CE0101960E94F9221730F1F0202F498163E68091DD042C
:205F60009091DE040E94D021202F4A8162E68091DD049091DE040E94D021143051F4202FC9
:205F8000442D66E08091DD049091DE040E94D0213AC0FA805C824B82CE0101960E94F92280
:205FA000173091F44FE5942E9F1468F1202F49816F2D8091DD049091DE040E94D02160E294
:205FC0006F0D202F4A81DECF202F498166E08091DD049091DE040E94D021202F4A8166E235
:205FE000D1CF92013F73C901880F892F881F990B9195422F4F77282F60EE8091DD04909143
:20600000DE040E944F214E8D63E08091E1049091E2040E948316ED89FE89AB85BC851B9617
:20602000FC93EE931A979FC0F8E2AF16B10470F0C501A0E0B0E0853521E09207A105B10506
:2060400048F084E591E0A0E0B0E004C088E290E0A0E0B0E08897A109B109BC01CD0127E05B
:20606000660F771F881F991F2A95D1F72DE231E040E050E0F2D229013A01232B242B252BA9
:2060800069F1A985BA8556968C91569781115BC081E056968C93960143E063E08091DB043D
:2060A0009091DC040E94B31F162F960146E063E08091DB049091DC040E94B31F062F242D3B
:2060C000412F60E98091DD049091DE040E944F21EE24E394242D412F60E927C0E985FA8599
:2060E0008689882381F1168A960143E063E08091DB049091DC040E94B31F162F960146E070
:2061000063E08091DB049091DC040E94B31F062F462F612F8091DD049091DE040E944B19A2
:20612000EE24E39420E0412F60E88091DF049091E0040E940F154E8D63E08091E10490912A
:20614000E2040E948316AB85BC851B96BC92AE921A9709C0E091E304F091E404309719F063
:20616000B5018C2D0995BFEFCB1ADB0AEB85FC853296FC87EB8729853A852F5F3F4F3A87A2
:20618000298736E0C316D10409F0FDCC1092ED031092EC0380917A00806480937A0080E04A
:2061A0000E94D71071C981E00E945F098EC980E00E945F0987CA682F8F2D0E940F0FC9CAF9
:2061C000823018F0880F880F14C081E012C09783868333CC4FE750E0F40126813781B9013A
:2061E000680F711DCB01461757078CF75783468324CC51E0551609F415CC4FEF5FE3ECCF48
:206200008F929F92AF92BF92DF92EF92FF920F931F93CF93DF93CFEBD5E0188219821A82AF
:206220001B821C821D821E821F82188688E0EFE5F3E0A8ECB5E001900D928A95E1F71A8AA2
:20624000198A8BED91E09C8B8B8B85EC91E09E8B8D8B8DEF93E0A0E0B0E08F8B988FA98FDA
:20626000BA8F1B8E8FEF9FEF9D8F8C8F1F8E1E8E1EA20FE315E01092A3051092A4051092A2
:20628000A5051092B1051092B0051092B2051092B4051092B3051092B6051092B50510923C
:2062A000B8051092B7051092BA051092B9052EEF34E0D901CD93DC9386E0E6E0F5E0DF0147
:2062C000482F1D924A95E9F7D9011E961C921E9750961C921E921F979BE0E7E6F3E0AFE044
:2062E000B5E001900D929A95E1F79BE0E2E7F3E0AAE1B5E001900D929A95E1F79BE0E5E222
:20630000F5E0DF01492F1D924A95E9F7D901D2961D921D921D921C92D597E4E3F5E0DF01FD
:206320001D929A95E9F74BED54E0FA01D183C083138302833583248399EDE92E94E0F92EEF
:20634000F782E682118610869CE0E5EEF4E0DF011D929A95E9F7E1EFF4E0DF01982F1D9274
:206360009A95E9F7E7EFF4E0DF011D928A95E9F7DD24D394FA01D2A269EB74E0DB011196D4
:20638000DC93CE9313961C930E93129715963C932E9314971796FC92EE9216978EE0E1EC02
:2063A000F4E0DF011D928A95E9F7FB01178A168A118E108E86E0EDE7F3E0A3EDB4E001903F
:2063C0000D928A95E1F785E694E0DC011196DC93CE9313961C930E9312971596FC92EE9299
:2063E0001497A8E0EBE6EE2EE4E0FE2EF7011192AA95E9F7A0E1F3E7EF2EF4E0FF2EF70162
:206400001192AA95E9F7DC015E961D921D921D921C929197FC0112A213A214A215A2969607
:206420001D921D921D921C92999712A613A614A615A69E961D921D921D921C92D19712AA78
:2064400013AA14AA15AAA0E1FA2EE3E8F3E0ABE9B4E001900D92FA94E1F780909303909037
:206460009403A0909503B09096038092AB049092AC04A092AD04B092AE04809097039090B0
:206480009803A0909903B0909A038092AF049092B004A092B104B092B204B6E0FB2EEBE9AB
:2064A000F3E0A3EBB4E001900D92FA94E1F7E7E2F4E012821382158214821682118A108A91
:2064C000138A128A158A148A178A168A118E108E128E148E138EA5EAB3E0B183A083D68F07
:2064E000C58F10A3078F72A361A394A383A356A345A330A727A3D1A620E4ECE2F6E0DF0108
:20650000422F1D924A95E9F710926D0610926C0680E490E090936F0680936E061092710667
:2065200010927006E6EEF5E0DF011D922A95E9F7109227061092260690932906809328063C
:2065400010922B0610922A06DF91CF911F910F91FF90EF90DF90BF90AF909F908F90089580
:20656000F999FECF92BD81BDF89A992780B50895A6E1B0E044E050E033C0A8E1B0E042E072
:2065800050E02EC0262FF999FECF92BD81BDF89A019700B4021639F01FBA20BD0FB6F89476
:2065A000FA9AF99A0FBE08950396272FECDFEADF252FE9DF242FE7CF0196272FE4DFE2CF41
:2065C000262FF999FECF1FBA92BD81BD20BD0FB6F894FA9AF99A0FBE01960895DC01CB01A2
:2065E000FC01F999FECF06C0F2BDE1BDF89A319600B40D9241505040B8F70895DB018F9315
:206600009F9362D0BF91AF91A29F800D911DA39F900DB29F900D11240895991B79E004C09A
:20662000991F961708F0961B881F7A95C9F780950895AA1BBB1B51E107C0AA1FBB1FA61730
:20664000B70710F0A61BB70B881F991F5A95A9F780959095BC01CD010895A1E21A2EAA1B19
:20666000BB1BFD010DC0AA1FBB1FEE1FFF1FA217B307E407F50720F0A21BB30BE40BF50BD7
:20668000661F771F881F991F1A9469F760957095809590959B01AC01BD01CF010895A29F89
:2066A000B001B39FC001A39F700D811D1124911DB29F700D811D1124911D0895F0DFB7FF65
:2066C0000895821B930B0895EADFA59F900DB49F900DA49F800D911D11240895EE0FFF1F40
:2066E0000590F491E02D0994F894FFCF07000000000200000000060000070006000001005F
:2067000003000000000600007F00060000010006000009000600017F000600011000060038
:20672000000100060000010006000007000600007F000600007F000600007F000600007F30
:20674000000600007F000600007F00060001100004000001000400000100040000080004FE
:2067600000007F000400011000040002040004000003000400007F0004000001000E0000DE
:2067800001000E000012000E00007F000E00017F000E000110000400000100030000000096
:2067A00002000000005600014200004300017F00015500014400014D0001650001640001C6
:2067C0006D000050000103AA010591010964010A3201080A010200010103000100000000F0
:2067E000000006000100000001000002000000000000000006000200000000000006000180
:20680000007F000000000600020000000000000600000000000000000600000000000000E5
:20682000000600020000000000000600030000000100000600030000000000000600030034
:20684000FF3F000000060002000000000000040000000000000000040000000000000000EA
:206860000400020000000000000400030000000100000400020000000000000400020004FA
:20688000000000000400020000000000000400000000000000000E00000000000000000ED2
:2068A00000010000000000000E00010000000100000E0001007F000000000E000200000029
:2068C0000000000400000000000000000300020000000000000100030000000000000200A9
:2068E0000100000000000002E902000002D702000005AA0200000862020000072302000086
:2069000006ED010000070605040100250004002500050025000600250007002B0006002869
