:020000040800F2
:20000000000002201D430008CD470008D1470008D5470008D9470008DD47000800000000A2
:20002000000000000000000000000000DF470008E147000800000000E3470008E5470008FC
:200040006D4300086D4300086D4300086D4300086D4300086D4300086D4300086D430008E0
:200060006D4300086D4300086D4300086D4300086D4300086D4300086D4300086D430008C0
:200080006D4300086D4300086D430008000000000000000000000000000000006D43000880
:2000A0006D4300086D4300086D4300086D4300086D4300086D4300086D4300086D43000880
:2000C0006D4300086D4300086D4300086D4300086D4300086D4300086D4300080000000018
:2000E0006D4300086D4300086D430008000000000000000000000000000000006D43000820
:20010000000000006D4300088B3B00086D43000800000000000000000000000000000000A1
:200120006D4300086D4300086D4300086D4300086D43000800000000000000000000000027
:20014000000000000000000000000000C14700086D4300086D4300086D4300086D430008AF
:200160006D4300086D4300080000000000000000000000000000000000000000000000000F
:20018000000000006D43000800000000000000006D4300086D4300080000000010B5054C21
:2001A000237833B9044B13B10448AFF300800123237010BD10120020000000004C550008C8
:2001C00008B5034B1BB103490348AFF3008008BD00000000141200204C55000853B94AB9CC
:2001E000002908BF00281CBF4FF0FF314FF0FF3000F06EB9ADF1080C6DE904CE00F006F850
:20020000DDF804E0DDE9022304B070472DE9F047089D04468C46002B40F083808A4217463A
:2002200047D9B2FA82F242B1C2F1200024FA00F09140974040EA010C94404FEA1748230C30
:20024000BCFBF8F61FFA87FE08FB16C143EA014306FB0EF1994209D9FB1806F1FF3080F0AA
:200260001981994240F21681023E3B445B1AA4B2B3FBF8F008FB103344EA034400FB0EFE5E
:20028000A64509D93C1900F1FF3380F00581A64540F2028102383C4440EA0640A4EB0E04B8
:2002A00000261DB1D4400023C5E900433146BDE8F08702B9FFDEB2FA82F2002A50D1CB1BA6
:2002C0004FEA174E1FFA87F80126B3FBFEFC210C0EFB1C3341EA034108FB0CF38B4207D976
:2002E00079180CF1FF3002D28B4200F2E9808446C91AA3B2B1FBFEF00EFB101143EA01440D
:2003000008FB00F8A04507D93C1900F1FF3302D2A04500F2D9801846A4EB080440EA0C4032
:20032000BFE78B4209D9002D00F0B1800026C5E9000130463146BDE8F087B3FA83F6002EE8
:200340004AD18B4202D3824200F2B880841A61EB030101208C46002DA8D0C5E9004CA5E7E6
:20036000C2F1200320FA03F6974001FA02F04FEA174ED9403043030CB1FBFEF61FFA87F85F
:200380000EFB161143EA014306FB08F1994204FA02F409D9FB1806F1FF3C80F08D80994274
:2003A00040F28A80023E3B445B1A81B2B3FBFEF00EFB103341EA034100FB08F38B4207D9A0
:2003C000791800F1FF3C73D28B4271D902383944CB1A40EA064678E7C6F1200C03FA06F4B9
:2003E00022FA0CF31C4320FA0CF701FA06F34FEA144E21FA0CF11F433B0CB1FBFEF91FFA5A
:2004000084F80EFB191143EA014109FB08FA8A4502FA06F200FA06F308D9611809F1FF307F
:2004200048D28A4546D9A9F102092144A1EB0A01BFB2B1FBFEF00EFB101147EA014700FB6A
:2004400008F8B84507D9E71900F1FF312ED2B8452CD90238274440EA0940A7EB0807A0FB48
:2004600002894F45C64649461AD317D05DB1B3EB0E0267EB010707FA0CFCF2404CEA020263
:20048000F740C5E9002700263146BDE8F0872E4628460BE70646E9E61846FDE64345E5D228
:2004A000B8EB020E69EB04010138DFE70846D2E760468DE78146B9E7664675E730464AE7FA
:2004C000ACF1020C394413E702383C4424E700BF704700BF884210B40DD98B1898420AD233
:2004E000811832B19A1A13F8014D9A4201F8014DF9D110BC7047002AFBD00A44431E11F856
:20050000014B8A4203F8014FF9D110BC7047B0B502AF45F2805201EB4101C0F6000202EB39
:20052000C10191E83C5080E83C50B0BDB0B502AF45F2586201EB4101C0F6000202EBC101F7
:2005400091E83C5080E83C50B0BDB0B502AF45F2187201EB4101C0F6000202EBC10191E850
:200560003C5080E83C50B0BD80B56F4613460A460221C0F894120021C0E9063300F059FD31
:20058000002080BD80B56F4613460A46002100F050FD002080BD80B56F4613460A460021FC
:2005A00000F05AFD002080BD80B56F460421C0F8941200210022002300F03BFD002080BD3F
:2005C00080B56F460521C0F8941200210022002300F042FD002080BDB0B502AF82B00D4620
:2005E0000978044611F060010DD0402902D0202940F0B780D4F8B80229468268204602B00F
:20060000BDE8B04010476878092800F2AA80DFE800F0051BA829A85571A8304294F89C0267
:200620000138022800F29D80E888022840F09980D4F8A4020322002808BF0122214641F81C
:200640000C2F2046022231E194F89C020138022800F2878068880025012840F08B80C4F808
:20066000A452F3E06888012859D10120C4F8A40220E1E888012840F0748094F89C02411EA4
:20068000022968D20025214641F8085F20460122FFF76AFF6EE0688841F22C25C1B2C2F2F8
:2006A0000005022928703CD32046802100F078FC2046002100F074FC03255BE0A888002856
:2006C0004FD1E88800284CD168887F2849D894F89C12032945D0C5B284F89E0220462946AA
:2006E00000F094FC2046FFF75FFF002D14BF02200120B3E068884FF0FF3101EB102100224C
:20070000062927F80A2C00F2DA80DFE801F0046536D8D8727C00D4F8B4020268B6E000256D
:2007200028E094F89C02032834D0022840F07880002900F0BF8001206060204600F0E7F997
:20074000002800F0878005462046802100F028FC204600210CE0032803D1211D20460122DB
:20076000A4E02046802100F01BFC20460021002500F016FC284602B0B0BDC0B2052800F21B
:200780009E80DFE800F0036F73777B7FD4F8B40242687AE0002951D06068012800F08A8073
:2007A000C1B2204600F0BBF929782046616000F0AEF900287ED005462046802100F0F0FBBA
:2007C0002046002100F0ECFB2179204600F0A7F9022084F89C02CDE7217CD4F8B8020029EF
:2007E0000CBF816AC16AA7F10A0088470146022014E0207C002862D1D4F8B802416BA7F189
:200800000A00884746E0207C002858D1D4F8B802016BA7F10A0088470146072048703AE049
:200820002046802100F0BCFB2046002100F0B8FB2978204600F073F903259BE7022084F835
:200840009C0200252046656000F069F92046FFF7ABFE8FE72046FFF7A7FE032084F89C029F
:20086000002587E7D4F8B40282680EE0D4F8B402C2680AE0D4F8B402026906E0D4F8B402A0
:20088000426902E0D4F8B4028269C2B1207CA7F10A0190470146EA8862B137F80A0C70B1A3
:2008A000904238BF024627F80A2C2046FFF75CFE00255FE72046FFF777FE00255AE7204614
:2008C000802100F06DFB2046002100F069FB002550E7F0B503AF4DF804BD0D46097804466D
:2008E00011F0600118BF402917D194F89C020138022814D8A88810F0FE0F10D1D4F8B80251
:200900002946826820469047064688B9E88878B92046FFF749FE00260AE02029E5D02046FC
:20092000802100F03DFB20460021002600F038FB30465DF804BBF0BDB0B502AF0D460978FD
:20094000044611F060010BD0402901D020296CD1D4F8B802294682682046BDE8B04010471F
:2009600068782979B8B1012830D003285DD194F89C0203282ED1688840B941F08000802874
:2009800004D0E88810B9204600F00AFB2046FFF70BFE0020B0BD94F89C02032826D0022888
:2009A00043D141F0800080283FD101F07F0000EB800004EB800000F11402090658BF00F54E
:2009C000AA72002010602046114653E094F89C02032834D0022828D141F08000802824D0B2
:2009E000204600F0DDFA2046802124E001F00F0202EB820211F0800004EB820214BF928C67
:200A0000B2F864218AB101F07F0202EB820204EB820202F11405002841F0800008BF02F573
:200A2000AA7580281DD1002021E02046802100F0B7FA2046002100F0B3FA0020B0BD688897
:200A4000D8B9480602D0204600F0BDFA2046FFF7ABFDD4F8B8022946826820469047002098
:200A6000B0BD204600F0C2FA0028DCD001202860204629460222FFF777FD0020B0BD0A7808
:200A800002704A7842708A78CB7842EA032242800A794B7942EA032282808A79C97942EA0D
:200AA0000121C1807047002804BF03207047D0F8B832002B1CBF0023C0F8B832D0F8CC3214
:200AC000002B1CBF0023C0F8CC32002918BFC0F8B412012180F89C12027000F0F5B9D0B5DC
:200AE00002AF82B00446002027F80A0C51B1C4F8B812C96AA7F10A008847C4F8CC0200209E
:200B000002B0D0BD032002B0D0BD00F00DBAD0F8B822002A04BF032070471268104780B50E
:200B20006F46D0F8B8220AB152689047002080BDB0B502AF00F2AA2504462846FFF79FFF92
:200B400094F8AA020121B4F8B022C4F8941200F01F010229C4F8982208D001290CD089B98A
:200B600020462946BDE8B040FFF736BD20462946BDE8B040FFF7E0BE20462946BDE8B040BA
:200B8000FFF7A7BE00F080012046BDE8B04000F007BAD0B502AF044679B1D4F8B8028269C2
:200BA0004AB194F89C02032805D120469047002808BF0020D0BD0320D0BDD4F894020328F9
:200BC0000ED1D4E9570398420CD9C01AC4F85C01984238BF0346204611461A46FFF7DBFC69
:200BE0000020D0BDD4F8B802016929B194F89C02032801D1204688472046FFF7D5FC0020D5
:200C0000D0BDB0B502AF044679B1D4F8B80242694AB194F89C02032805D120469047002801
:200C200008BF0020B0BD0320B0BDD4F89402022833D1D4E9070188420DD9431A20461146B1
:200C40001A46E361FFF79EFC204600210022002300F002FA21E00FD1A16981420CD3D4F84F
:200C60009802814208D22046002100220025FFF789FCC4F89852E7E7D4F8B802C16829B1F7
:200C800094F89C02032801D1204688472046802100F086F92046FFF793FC94F8A002012840
:200CA00004BF002084F8A0020020B0BDF0B503AF4DF804BD0446D0F8BC02012500284FF0EC
:200CC000000084F89C52C4F894026060C4F8A40205D0D4F8B802002142682046904720466D
:200CE000002100224023402600F031F92046802100224023A4F86451C4F8606100F027F964
:200D0000A584002026625DF804BBF0BD0246002011747047014690F89C02042281F89D02F2
:200D2000002081F89C22704790F89C12042904BF90F89D1280F89C120020704780B56F4661
:200D400090F89C12032905D1D0F8B812C969002918BF8847002080BD0020704700207047BD
:200D60000020704780B56F46D0F8B812012280F89C2211B14A6801799047002080BDB0B540
:200D800002AF86B000240594CDE9034400680294B0F1A04F019401D006B0B0BD43F630052D
:200DA0000094C4F20205286801A940F001002860286800F00100009000984FF4C050019062
:200DC0000220CDE90204032004900A2005900020C4F2020000F054F96868002140F0800009
:200DE000686000946869002240F480406861686900F4804000900098432000F099FE4320ED
:200E000000F0C2FE06B0B0BDD0F8042400F571711046FFF78DBEC1EBC102D0F8043400EB47
:200E20008200D0F808221846FFF7B3BEC1EBC102D0F8043400EB8200826C1846FFF7E1BEBC
:200E4000D0F80404FFF77ABFD0B502AF0446C168D0F80404002918BF0121FFF757FFD4F8E0
:200E60000404BDE8D040FFF721BFD0B502AF0446D0F80404FFF74EFF2068D0F8001E41F0AD
:200E80000101C0F8001E206A002808BFD0BD4EF61050CEF20000016841F006010160D0BD81
:200EA000D0F80404FFF740BFD0F80404FFF756BFD0F80404FFF750BFD0F80404FFF750BFE8
:200EC000D0F80404FFF74EBFD0B502AF017809B10020D0BD41F23024C2F20004C4F8040426
:200EE000C0F8C4424FF0A0400421C4E9000102200021C4E90301C4E906012046C4E908116E
:200F0000C4E90B1100F066FE2046802102F059FC20460021402202F00BFC2046012180225A
:200F200002F006FC0020D0BD80B56F46D0F8C40200F0F5FE032884BF032080BD40F2003184
:200F4000C000C0F2013121FA00F0C0B280BD80B56F469446D0F8C4021A46634601F028FAC5
:200F6000032884BF032080BD40F20031C000C0F2013121FA00F0C0B280BD80B56F46D0F830
:200F8000C40201F046FA032884BF032080BD40F20031C000C0F2013121FA00F0C0B280BDCB
:200FA00080B56F46D0F8C40201F0AAFA032884BF032080BD40F20031C000C0F2013121FA34
:200FC00000F0C0B280BD80B56F46D0F8C40201F0CFFA032884BF032080BD40F20031C0004F
:200FE000C0F2013121FA00F0C0B280BDD0F8C40201F07F02C2EBC20200EB820000F13E0244
:20100000090658BF00F5FF721078704780B56F46D0F8C40201F0B7F9032884BF032080BD1E
:2010200040F20031C000C0F2013121FA00F0C0B280BD80B56F46D0F8C40201F03CFA032825
:2010400084BF032080BD40F20031C000C0F2013121FA00F0C0B280BD80B56F46D0F8C402B4
:2010600001F0FEF9032884BF032080BD40F20031C000C0F2013121FA00F0C0B280BD0000F9
:20108000F0B503AF2DE9000F82B000F13E4241F2000402F1FF76C4F2020407224FEAB62599
:2010A000A04208BF0422042D38BF4FEAB6224FF0010A00264FF000084FF00009009209E0AE
:2010C00008F1020809F10109B8F1200F06F1040600F0B4800C680AFA09FC14EA0C0FEFD0B7
:2010E0004C68122C00F2A3800AFA04F414F0061F00F09D8084680322D1F80CE002FA08F2FB
:2011000094436FEA020B0EFA08F22243826042684C6822EA0C02C4F3001404FA09F44FEAD2
:20112000490A22434260C2688C6802EA0B0204FA0AF42243C2604C6844F01002122A12D1A2
:201140006FF0030202EA59020244D2F820E006F01C050F230C69AB402EEA030304FA05F515
:201160002B4313624C68026804F0030302EA0B0203FA0AF31A430260CA794FF0010AD2065D
:201180009ED5002243F644030192C4F202031A6843F6004E42F480421A601A68C4F2010E2A
:2011A00002F480420192019A29F003024FF6084B7244CFF6FF7B52F80B3006F00C050F24DF
:2011C000AC40A343009C04FA05F52B4342F80B30DEF800204B6843F60C45DB0342EA0C037A
:2011E00058BF22EA0C03CEF80030DEF804204B68C4F201059B0342EA0C0358BF22EA0C0353
:20120000CEF80430DEF808204B68DB0242EA0C0358BF22EA0C03CEF808302A684B689B02F9
:2012200042EA0C0358BF22EA0C032B6048E7032202FA08F46FEA040BC24674E702B0BDE848
:20124000000FF0BD80B56F4643F60040C4F20200016841F400710160016841F48061016067
:20126000032000F055FC002000F004F802F02AFB002080BDB0B502AF40F21402C2F2000276
:2012800040F20C011278C2F200014FF47A730968B3FBF2F20446B1FBF2F1084600F084FC06
:2012A0000F2C4FF001050CD858B94FF0FF3021460022002500F03CFC40F21000C2F200007F
:2012C00004602846B0BD80B56F4643F61000C4F202004FF0FF310022016102614161426149
:2012E00001600260416042608160826002F006FB002080BD40F2140041F23861C2F200000F
:20130000C2F2000100780A6810440860704741F23860C2F20000006870470000B0B502AF07
:201320000446FFF7F4FF054640F21400C2F200000078611C18BF0444FFF7E9FF401BA04206
:20134000FAD3B0BD47F61020C1F6FF700068704747F61420C1F6FF700068704747F6182076
:20136000C1F6FF7000687047F0B503AF2DE9000B82B0002800F0A5808146007843F60006C3
:20138000C007C4F2020646D0B06800F00C00042806D1306880033ED5D9F80400D8BB90E095
:2013A000B06800F00C00082802D170684002F0D4D9F80410B1F5803F06D03068B1F5A02F0B
:2013C00006D140F480203060306840F4803005E020F480303060306820F480203060D9F870
:2013E0000440FFF794FF054694B100BF3068800311D4FFF78CFF401B6428F7D92AE100BFCF
:20140000FFF785FF401B64284FF0030000F2238130688003F4D499F8000080071CD5B0688F
:2014200010F00C0F09D0B06800F00C00082840F08C807068400200F188803068800703D52E
:20144000D9F80C0001283CD13068D9F8101020F0F80040EAC100306099F80000000732D4CF
:2014600099F80000400746D4D9F818403CB3B06800F00C00082840F09D80012C21D07068DB
:20148000D9F81C1000F480028A421AD1D9F8201000F03F028A4214D147F6C071D9F82420BC
:2014A000014091420DD1D9F8281000F440328A4207D1D9F82C1000F07060884201D100209E
:2014C000C9E00120C7E0D9F81400002840F20000C4F247205ED00121C0F8801EFFF717FF8D
:2014E000054600BF706F8007BAD4FFF710FF401B0228F7D9AEE0306C4FF00008C0000CD483
:20150000CDF80480306C4FF0010840F080503064306C00F080500190019847F20004C4F291
:2015200000042068C00527D4206840F480702060FFF7EDFE054600BF2068C0051CD4FFF715
:20154000E6FE401B0228F7D984E0D9F80C00002854D00020C4F2472001210160FFF7D7FE3A
:20156000054600BF306880073FF56EAFFFF7CFFE401B0228F6D96DE0D9F80810012905D0A5
:20158000306F05294ED140F004003067306F40F001004DE00021C0F8801EFFF7B8FE054629
:2015A000706F80077FF55CAFFFF7B1FE401B0228F6D94FE040F20008C4F247280020C8F8DF
:2015C0006000FFF7A4FE022C05460BD13068800159D5FFF79CFE401B02284FF00300F5D952
:2015E00039E000BF306880017FF569AFFFF78FFE401B02284FF00300F4D92CE00020C4F275
:20160000472000210160FFF782FE0546306880077FF522AFFFF77BFE401B02284FF0030086
:20162000F4D918E020F001003067306F20F004003067D9F80840FFF76AFE002C054641F2D2
:20164000883414D0306F800714D4FFF760FE401BA042F7D9032002B0BDE8000BF0BD00BF8A
:20166000FFF755FE401BA0424FF00300F3D8306F8007F5D4B8F1000F3FF4F6AE306C20F0AD
:2016800080503064F0E609F11C052FCD084340EA8210D9034FF6FF729143A1F5803140EA1B
:2016A0000560084370600120C8F86000FFF72FFE044600BF306880013FF501AFFFF727FE25
:2016C000001B02284FF00300F4D9C4E7F0B503AF2DE9000B00287CD043F60808C4F2020816
:2016E0000446D8F8F803894600F00F00884207D288F8F893D8F8F80300F00F00484568D1C9
:201700002068810719D5410706D5D8F8000040F4E050C8F800002068000705D5D8F800007B
:2017200040F46040C8F80000D8F80000A16820F0F0000843C8F800002068C00741D1D8F800
:20174000F80300F00F00484507D988F8F893D8F8F80300F00F0048453BD12068410708D507
:20176000D8F80000E16820F4E0500843C8F800002068000708D5D8F80000216920F4604087
:2017800040EAC100C8F8000000F050F8D8F8001045F2F072C1F30311C0F60002515C40F28E
:2017A0000C0220FA01F140F21000C2F200000068C2F200021160FFF75DFD0020BDE8000B6A
:2017C000F0BD6068811E022907D258F8081C890109D40120BDE8000BF0BD012821D158F82D
:2017E000081C8903F5D5D8F8001021F003010843C8F80000FFF78BFD064641F2883500BFF6
:20180000D8F80000616800F00C00B0EB810F96D0FFF77DFD801BA842F2D90320BDE8000B0F
:20182000F0BD58F8081C8907D3D5DCE7D0B502AF43F60404C4F20204606800F00C00082865
:201840000AD0042819BF42F20040C0F2F40047F64000C0F27D10D0BD206821682368490260
:2018600047F64001C0F27D1100F03F02C3F388105CBF42F20041C0F2F401A1FB0001002334
:20188000FEF7ACFC21680222C1F3014102EB4101B0FBF1F0D0BD40F20C00C2F20000006866
:2018A0007047F0B503AF2DE9000741F23C69C2F20009884699F81810012903D10220BDE81C
:2018C0000007F0BD0446012089F818004CF250301E46154600F070F8002867D143F6104A88
:2018E000022CC4F2020A15D0012C28D0E4BBDAF8000020F44070CAF80000DAF80000CAF863
:201900000000DAF8000040F00100CAF8000088F8005041E0DAF8000020F44070CAF80000B9
:20192000DAF8000040F40070CAF80000DAF8000040F00100CAF80000C8F800502CE0DAF8BC
:20194000000020F44070CAF80000DAF8000040F48070CAF80000DAF8000040F00100CAF884
:201960000000A8F8005017E0DAF8000020F44070CAF80000DAF8000040F44070CAF80000B0
:20198000DAF8000040F00100CAF80000C8F80050BFF36F8FC8F804604CF2503000F00CF8EC
:2019A000DAF8001021F00101CAF80010002189F81810BDE80007F0BDF0B503AF2DE9000BC5
:2019C00041F23C68044643F60C46C2F200080020C4F20206C8F81C00FFF799FC3168C903F5
:2019E0004FD43068C0071CBF01203060306810F4F97F4ED03068C00607D5D8F81C0040F051
:201A00001000C8F81C00102030603068800607D5D8F81C0040F00800C8F81C002020306050
:201A20003068400607D5D8F81C0040F00400C8F81C00402030603068000607D5D8F81C009A
:201A400040F00200C8F81C00802030603068C00508D5D8F81C0040F00100C8F81C004FF4D2
:201A6000807030603068800707D5D8F81C0040F02000C8F81C00022030600120BDE8000B50
:201A8000F0BD8146651C09D0D4B90320BDE8000BF0BD0020BDE8000BF0BD00BF3068C003D4
:201AA0009FD56DB93068C0039BD54DB93068C00397D52DB93068C0037FF593AF002DEDD013
:201AC000FFF725FCA0EB0900A042E7D9DDE743F60440C4F20200C168B1F1FF3FC4BF002014
:201AE000704740F22311C4F26751016048F6AB11CCF6EF510160C068C00F704743F6104165
:201B0000C4F20201086840F0004200200A6070474EF60C51CEF200010A684FF6FF031A4074
:201B200060F30A2242F0806040F0FD7008607047D0B502AF4EF60C5CCEF2000CDCF80030A6
:201B4000C3F3022E8EF00704042C28BF0424BEF103034FF0FF3E0EFA04F438BF0023A143A8
:201B600099400EFA03F39A4300F00F03043B1143634409010C3300F16042B0F1FF3FC8BF33
:201B800002F564431970D0BD002848BF704700F01F01012202FA01F14EF200124009CEF22F
:201BA000000242F820107047411E0020B0EB116F1CBF012070474EF21002CEF200025160F0
:201BC0004EF62351CEF20001F0230B700721906011607047F0B503AF2DE9000F8DB00028DD
:201BE00000F08D800446056890F8BD0328B9002084F8BC032046FFF7C2F8032084F8BD0338
:201C0000E86BC0055CBF00202061206800F0BBFE206804F11C0B0C90606804F1080E0B9011
:201C2000D4E90C019BE8400F9EE82C50CDE9080103A88DE8205080E84007DDE90B10CDF862
:201C40001CB000F081FD002856D120680021002500F0A0FE616871B301200023002200BF8D
:201C6000C3EBC30304EB830686F83C20D3B20132A6F84230D3B2994286F83D0086F83F50AE
:201C8000C6E911553565EBD800200023002200BFC3EBC30304EB830686F8FC210132D3B26F
:201CA000994286F8FD0186F8FF01C6E98100C6F81002EDD800E00021A06804F1200B0C90C5
:201CC000E06823680B90D4E90C02D4E90465D4E906CE9BE8000FCDE9080204A8CDE90065FB
:201CE000CDE902CE80E800071846DDE90B32CDF81CB000F067FE40B1022084F8BD03012533
:201D000028460DB0BDE8000FF0BD0025012084F8385084F8BD03206801F0FCFBF0E7D0B5E5
:201D200002AF044690F8BC03012804BF0220D0BDA16A20680122012984F8BC2307D1A169A9
:201D4000012904D0816B41F480318163206801F0D4FB206800F010FE002084F8BC03D0BD19
:201D6000F0B503AF2DE9000F89B0D0F800B00546584601F008FC18B109B0BDE8000FF0BD75
:201D8000286801F0D4FB0028F6D0286801F0CFFB800704D52868416901F0020141612868FA
:201DA00001F0C5FBC006089542D52868816921F010018161DBF82040C4F34340062804F0EB
:201DC0000F051DD002282DD147F6F070044029D00899C5EBC50001EB8005D5F80812220967
:201DE000584601F0C1FAD5F80802D5F8141200EB1410C5F8080201EB1410C5F8140211E025
:201E0000089E584606F57171082201F0ADFAC5EBC50006EB8000D0F81412C4F30A121144E3
:201E2000C0F81412089D2868816941F010018161286801F07CFB0003CDF810B040F1E4806C
:201E4000286801F078FB002800F0DE80064605F5717005F5017800214FF430644FF000093E
:201E6000069020E0D80642BF0BEB04001021816098064FF0000142BF0BEB040020228260E4
:201E8000980442BF0BEB04004FF40052826009F10109B1EB560F4FEA560604F1200408F188
:201EA0001C0800F0B180F007F1D028685FFA89FA514601F04EFB0346C0076BD00BEB0400A3
:201EC00001218160286804EB000CD0F840E0DCF808202D69012D28D1150737D4950600F120
:201EE0008880089D12F0280F54D143F20B01C4F654718E4502D312F4004231D10793D8E9CA
:201F00000023DCF81010B9F1000F6FF3DF41A2EB0101C8F8101003EB0201C8F8041033D137
:201F2000D5F8101281BB01212BE043F20B05C4F65475FF35AE451BD110045CD4089D0793EB
:201F4000900644BF2020CCF808001DE043F20B00C4F65470089D86451CD312F4004019D093
:201F60004FF40040CCF8080018077FF57BAF14E0089DB9F1000F079306D1D5F8101219B9D1
:201F80000021069A01F013FB28465146FEF743FF079B00BF18077FF565AF0BEB040008211A
:201FA000079381602868D0F840A020448168090443F20B01C4F65471A1F1010B04D5DA45BE
:201FC00084BF4FF400418160089D2846FEF71CFFDA45DDF810B0079B7FF644AF28690128BE
:201FE0007FF440AF2868069A012101F0E0FA079B38E7202001E04FF40040CCF80800089D8C
:2020000018077FF52FAFC8E7286801F090FA400340F1C580286801F095FA002800F0BF8075
:20202000834604984FF0000800F5106605F571700290039609E000BF002008F10108B0EB1E
:202040005B0F4FEA5B0B00F0AA805FEACB70F3D028685FFA88F1079101F083FA0446C0079D
:2020600028D0049A08F00F00D2F83418012303FA00F021EA0000C2F8340806EB481083606F
:202080002869012812D1C8EBC80005EB8000D0E91112B8F1000F1144816407D1286D28B99C
:2020A0002868029A012101F082FA00BF07992846FEF7BCFE200742BF06EB4810082181606E
:2020C000E00642BF06EB481010218160600642BF06EB481040218160A00742BF06EB4810DB
:2020E000022181602006A7D5C8EBC80005EB800294465CF8501FE2465AF8040F81429BD3F2
:2021000016462C6856F8443F0D1A9D4288BF1D46069404EB4813D3F818490335A4B2B4EB11
:20212000950F2AD303F5106302F14809059300BF814222D932680D1A08989542D9F8001021
:20214000047C88BF1546DDE90602ABB20094644600F0F6FFD9F80000DAF800102844C9F82F
:20216000000048190599CAF800008969EA1C8BB22168A446B3EB920FDAD2089D039E814202
:202180003FF65AAF069B08F00F00D3F83418012202FA00F021EA0000C3F834084CE728686E
:2021A00001F0C5F9049EB0F1FF3F19DCD6F8040820F00100C6F8040895F8F403012807D1C0
:2021C000002085F8F4032846002101F0FEFA02E02846FEF765FE2868416901F0004141613D
:2021E000286801F0A4F900050BD5D6F80808C00702D02846FEF739FE2868416901F400613B
:202200004161286801F093F9C00458D5D6F80408102120F00100C6F80408286806F5006449
:2022200000F082FD686808B306F5106000214FF67F3200BF82600368013123F40013036057
:20224000036843F000630360C0F80822D0F8003223F40013C0F80032D0F8003243F000639A
:20226000C0F800326B6820309942E3D3E06940F00110E061286B40B1D4F8840040F00B00E6
:20228000C4F8840004F1440006E0606942F22B010843606104F11000016805F5717241F02E
:2022A0000B010160206820F4FE6020602868297C01F07DF92868416901F480514161286869
:2022C00001F035F9800416D5286801F060F9286800F044FD2C68E860FFF7DDFA2A7B014640
:2022E000204600F0C1FA2846FEF7AEFD2868416901F400514161286801F019F9000707D527
:202300002846FEF79DFD2868416901F008014161286801F00CF9C00208D528460021FEF741
:20232000C7FD2868416901F480114161286801F0FEF8800208D528460021FEF7B5FD2868DB
:20234000416901F400114161286801F0F0F8400007D52846FEF7B0FD2868416901F08041AA
:202360004161286801F0E3F840077FF505AD28684468610703D52846FEF7A2FD286841683B
:2023800021434160F8E4D0B502AF044690F8BC03012804BF0220D0BD012084F8BC0384F822
:2023A0003810206801F098F8002084F8BC03D0BDB0B502AF0546080601F00F00C0EBC00109
:2023C00005EB810C05D40CF5FE7100248CF8FD4104E001240CF13C018CF83D404C780870D1
:2023E000002C8A60CB7018BFC880022B04BF0020087195F8BC03012804BF0220B0BD28688D
:20240000012285F8BC2300F0B6FC002085F8BC03B0BDD0B502AF0446080601F00F00C0EB99
:20242000C00104EB810205D402F5FE71002382F8FD3104E0012302F13C0182F83D300870C8
:2024400094F8BC03012804BF0220D0BD2068012284F8BC2300F0D7FC002084F8BC03D0BDE5
:20246000D0B502AF01F00F0CCCEBCC0100EB81044FF0000EC4F814E284F8FDE1D0F810E015
:20248000C4F80822C4F81032BEF1010F84F8FCC108BFC4F80C22006804F5FE715FFA8EF206
:2024A000BCF1000F03D000F0FDFC0020D0BD00F0D5FE0020D0BDB0B502AF01F00F0CCCEBAE
:2024C000CC0100EB8105294601F83CCF0024D0F810E08C6101244C70CA60BEF1010F4B610C
:2024E00008BFEA6400685FFA8EF2BCF1000F03D000F0D8FC0020B0BD00F0B0FE0020B0BD7B
:20250000B0B502AF0446406801F00F05854284BF0120B0BD080609D4C1EBC10004EB80004F
:2025200000F5FE71002280F8FD2108E0C5EBC50004EB8000012200F13C0180F83D2001226A
:202540008A700D7094F8BC03012804BF0220B0BD206884F8BC2300F086FF2DB92068217CDB
:2025600004F5717201F023F8002084F8BC03B0BDB0B502AF4268044601F00F00904284BF8C
:202580000120B0BD090609D4C0EBC00104EB810202F5FE71002382F8FD3108E0C0EBC0015E
:2025A00004EB8102012302F13C0182F83D3000258D70087094F8BC03012804BF0220B0BD0E
:2025C0002068012284F8BC2300F06EFF284684F8BC53B0BDF0B503AF2DE9000741F23C68E7
:2025E000C2F2000898F81820012A03D10220BDE80007F0BD8246012088F818004CF250309E
:202600008946FFF7D9F9002840F098804FF0FF30C9F80000DAF8000043F610460128C4F244
:20262000020619D1DAF810003168000221F440713160316880B241F004013160316808435E
:2026400040F4803030604CF25030FFF7B5F9316821F00401316039E0DAE90240204484421C
:2026600030D2E500DAF810004FF44072C1B2032931684FEA002021F440713160316838BF24
:2026800082B241EA02003060306820F0F80030603068284340F002003060306840F48030D8
:2026A00030604CF25030FFF787F9316821F0FA01316048B9DAE9020101340844844205F11C
:2026C0000805CFD3002001E0C9F8004056F8101C890517D556F8101C21F4007146F8101CEB
:2026E00056F8101C41F4006146F8101C56F8101C21F4006146F8101C56F8101C41F40071E6
:2027000046F8101C56F8101C490517D556F8101C21F4806146F8101C56F8101C41F4805141
:2027200046F8101C56F8101C21F4805146F8101C56F8101C41F4806146F8101C002188F8CA
:202740001810BDE80007F0BD80B56F463969D7F808C001293ED1816B4FF6BF7221F4803174
:202760008163C168CFF6BD721140C160C168FA6A21F44011012AC16003D1C16841F48011E4
:20278000C16040F64451C0F203010B46043B52D00269B2F1FF3F09DD0269002A06D40269D9
:2027A000002A03D40269B2F1FF3FEFDC026942F00102026104393ED00269D20708D002692C
:2027C000D20705D00269D20702D00269D207F1D100213CE0C16840F64452D7F820E0C0F27C
:2027E000030241F04001C160114600BF043924D00369B3F1FF3F09DD0369002B06D40369E9
:20280000002B03D40369B3F1FF3FEFDC016941F001010161043A10D00169C9071FBF0169FE
:202820005FEAC17101695FEAC17102D00169C907F0D1002102E0032109E00321826BBEF19B
:20284000000F14BF22F4803242F480328263BCF1010F07D1826842F006028260826842F04A
:2028600020028260084680BD022A02465CD145F24030CFF6277043F200530844C0F20C0390
:20288000984202D24FF4705050E041F64060CFF61B7044F240230844C0F20F03984202D2D9
:2028A0004FF4605042E0A1F5740044F68073A0F51050C0F21203984202D24FF4505035E06A
:2028C000A1F183704DF22063A0F5E740C0F21303984202D24FF4405028E04BF26060CFF6E2
:2028E000E5604EF260330844C0F21603984202D24FF430501AE04DF20030CFF6CE6047F2A3
:2029000040730844C0F21B03984202D24FF420500CE045F6C030CFF6B36049F2C01308443E
:20292000C0F2210398420AD24FF41050D16821F47051D160D16801430020D1607047A1F111
:20294000B77047F22053A0F55850C0F23803984202D24FF40050E9E745F2E040CFF6596094
:2029600049F6E0430144C0F241034FF4C050994238BF4FF4E050D9E70146806840F0010200
:2029800000208A6070470146806820F0010200208A60704780B56F46C268012922F0C04221
:2029A000C26003D061B94FF0804101E04FF00051C2681143C1603220FEF7B0FC002080BDA8
:2029C000012080BDF0B503AF2DE9000F81B0D7F824803E690022B8F1000FC0F80421C0F863
:2029E0000821C0F80C21C0F81021C0F81421C0F81821C0F81C21C0F82021C0F82421C0F85F
:202A00002821C0F82C21C0F83021C0F83421C0F83821C0F83C2109D0826B00F5006922F4F2
:202A200000128263826B42F4002212E0D0F8042800F5006942F00202C0F80428826B42F4D9
:202A400000128263826B22F400228263826B22F4802282630022C0F8002ED9F80020012EC3
:202A6000C9F8002006D1D9F80020002B18BF42F0010203E0D9F8002042F0030240F644549D
:202A8000C0F20304C9F800204FF4846202612246043A0ED003699B0641BF03695FEA8363E4
:202AA00003695FEA836302D503699B06F0D4002300E0012310220261043C0ED00269D206B6
:202AC00041BF02695FEAC26202695FEAC26202D50269D206F0D4009301E00122009200221D
:202AE0000029C9F81020C9F81420C9F81C2000F0ED80A1F1010A01F0030B0025BAF1030FEF
:202B00004FF000033BD321F0030600F5166E4FF090484FF67F3C00235EF8602C4FF09044A3
:202B2000002B08BF4FF0006404EAE2724EF8602C4EF8505C4EF858CC5EF8402C043308EAA5
:202B4000E2724EF8402C4EF8305C4EF838CC5EF8202C9E4208EAE2724EF8202C4EF8105C47
:202B60004EF818CCDEF8002008EAE272CEF80020CEF81050CEF808C00EF1800ECCD1BBF17F
:202B8000000F2FD000F510625E0102EB43159459002B4FF0904308BF4FF000634FF0904C6E
:202BA00003EAE47300244FF67F3EBBF1010F93512C61C5F808E015D02B6ABBF1020F0CEAAC
:202BC000E3732B622C63C5F828E00BD03244136C4FF0904606EAE3731364002313654FF63C
:202BE0007F339364D7F8248000296FD00025BAF1030F4FF0000338D321F0030C00F5366671
:202C00004FF0904E4FF67F32002300BF56F8601C4FF09044002B08BF4FF0006404EAE1710D
:202C200046F8601C46F8505C46F8582C56F8401C04330EEAE17146F8401C46F8305C46F861
:202C4000382C56F8201C9C450EEAE17146F8201C46F8105C46F8182C31680EEAE171316041
:202C60003561B26006F18006D0D1BBF1000F2DD000F530615A0101EB43168C58002B4FF062
:202C8000904308BF4FF0006303EAE4734FF0904C8B5000244FF67F33BBF1010F3461B3603F
:202CA00014D0356ABBF1020F0CEAE57535623463B3620BD011440A6C4FF0904303EAE27248
:202CC0000A6400220A654FF67F328A64D9F81010BA6821F48071C9F81010002181616FF0B5
:202CE000804141611AB9816941F010018161816943F60002C8F23C0211437A698161002A30
:202D0000009A03D0816941F008018161B8F1010F05D1816941F0804141F004018161104667
:202D200001B0BDE8000FF0BD89012031016140F64451C0F20301043904BF0320704702697E
:202D4000920609D50269920644BF02695FEA826202D502699206EED400207047D0F8080814
:202D600000F0060180074FF0020058BF0F20002908BF0846704780B56F4691F800C04B7863
:202D80000CF00F024FF0010E012B0EFA02F31DD1D0F81C281A43C0F81C2800F510604FEABE
:202DA0004C13C25812042CD48A6891F803E06FF3DF22195842EA8C52114341EA8E4141F0C9
:202DC000805141F400411950002080BDD0F81C2842EA0342C0F81C2800F530604FEA4C1251
:202DE00083581B040DD48B6891F803C011586FF3DF23194341EA8C4141F0805141F4004120
:202E00001150002080BDB0B502AF4A7891F800E047F6000C012ACEF6334C00EB4E1212D1CE
:202E2000D2F8003902F51065B3F1FF3F09DC2A6842F000622A602A6842F080422A6091F813
:202E400000E0012214E0D2F8004B02F53065B4F1FF3F0CF1707C09DC2A6842F000622A6079
:202E60002A6842F080422A6091F800E04FF480320EF00F04D0F83C3802FA04F4A343C0F805
:202E80003C380978D0F81C3801F00F0102FA01F123EA0101C0F81C18286800EA0C01002090
:202EA0002960B0BDF0B503AF4DF804BD4C780B78012C37D14D6900EB431340F2000C4FF6C9
:202EC000FF7ED3F81049CFF6F87CCEF2070E002D03F5106355D004EA0C051D611D6940F251
:202EE000000C05EA0E051D618D684C69C1F6F87C2C44013CB4FBF5F51C690CEAC54525433E
:202F00001D614D691C696FF3DF4525431D61CD78012D42D11D6925F0C0451D611D6945F02D
:202F2000005C38E000EB4313D3F8106B4FF6FF7C6FF31206C3F8106BD3F8106BC0F2070C1B
:202F40006FF3DC46C3F8106B4C69D1F808E0002C03F5306300F0BC807444013CB4FBFEF6D6
:202F60000025C1F6F8751C6905EAC64525431D618D68B6B205FB06F4D3F810E00CEA040C8B
:202F8000AFE004EA0E051D611D6945F400251D611D690CEA050CC3F810C0012A01D10A6939
:202FA000A5E01D6845F004451D60CD78012D40F0B780D0F808581C68ED054FF0805558BF69
:202FC0004FF000552543002A1D6040F0A5808A8AD31C0022B2EB930F00F09E80CA680978D4
:202FE0009D086C1E00F5805E0903032C05F0030C3DD36FF0030505EA93035B42157894785E
:20300000D078567844EA002045EA062444EA004041F80E00104610F8044F55798678C07889
:2030200044EA052446EA002044EA004041F80E00104610F8084F557A8678C07844EA052423
:2030400046EA002044EA004041F80E0012F80C0F043354789578D67840EA042045EA062441
:2030600040EA044002F1040241F80E00C6D1BCF1000F51D010789378D478557843EA04232E
:2030800040EA052040EA0340BCF1010F41F80E0042D0104610F8043FBCF1020F4478857846
:2030A000C07843EA042345EA002043EA004041F80E0031D012F8080F53789678D27840EA12
:2030C000032046EA022240EA024041F80E0023E01C690EEA0C0626431E61D3F810C04FF46E
:2030E000002E4CEA0E06012A1E6103D1CA68002A18BF5A61C97801290AD1D0F8080819684D
:20310000C0054FF0805058BF4FF0005008431860186840F00440186000205DF804BBF0BD25
:203120004A69002AF8D00978012201F00F01D0F8343802FA01F11943C0F83418ECE70000F0
:20314000F0B503AF4DF8048DD7F808C0BCF1000F03D000205DF8048BF0BD03F1030E002343
:20316000B3EB9E0FF5D04FEA9E0CACF1010300F580581203032B0CF0030C3ED36FF003032A
:2031800003EA9E035B4200BF08788C78CD784E7844EA052540EA062040EA054042F808005D
:2031A000084610F8046F4D798478C07846EA052644EA002046EA004042F80800084610F89B
:2031C000086F4D7A8478C07846EA052644EA002046EA004042F8080011F80C0F04334E7801
:2031E0008D78CC7840EA062045EA042640EA064001F1040142F80800C6D1BCF1000FA8D069
:2032000008788B78CE784D7843EA062340EA052040EA0340BCF1010F42F8080099D0084658
:2032200010F8043FBCF1020F46788578C07843EA062345EA002043EA004042F8080088D0E6
:2032400011F8080F4B788E78C97840EA032046EA012140EA014042F808007AE7B0B502AF81
:203260004C780B78012C2AD14D6900EB431340F2000E4FF6FF7CD3F81049CFF6F87ECEF2C9
:20328000070C002D03F5106341D004EA0E051D611D6905EA0C051D618C684D69A54288BF17
:2032A0004C611D690CF1005445F400251D61D1F814E01D6904EA0E0445EA040C31E000EB30
:2032C0004313D3F8100B6FF31200C3F8100BD3F8100B6FF3DC40C3F8100B4D6903F53063ED
:2032E000002D1CBF8D684D611D694FF6FF7045F400251D61CEF207008D6800F100501C698B
:2033000028402043012A186113D1C8680EE004EA0C051D611D6945F400251D611D6905EAE8
:203320000E0C012AC3F810C00BD10869002818BF586119684FF0044241EA020018600020ED
:20334000B0BD1A6842F004421A604A69002AF6D00978012201F00F0102FA01F1D0F8342832
:2033600000F63403E8E70000B0B502AF03320023B3EB920F75D04FEA920CACF10103032BB9
:203380000CF0030C3FD36FF0030303EA920253424FF4805E50F80E2004334FEA12640A709E
:2033A000CC704FEA12444FEA12228C704A7050F80E200C4604F8042F4FEA1265E5704FEAEA
:2033C00012454FEA1222A5704A7150F80E200C4604F8082F4FEA1265E5704FEA12454FEA90
:2033E0001222A5704A7250F80E2001F80C2F4FEA1264CC704FEA12444FEA12228C704A7081
:2034000001F10401C6D1BCF1000F2AD04FF480528358BCF1010F4FEA13650B70CD704FEA19
:2034200013454FEA13238D704B7019D083580A4602F8043F1D0ED5701D0C1B0ABCF1020F40
:203440009570537004BF101DB0BD4FF48052805801F8080F020ECA70020C000A8A70487036
:2034600004310846B0BD4A780978012A08D100EB4112D2F80009002902F5106108D10DE0AD
:2034800000EB4112D2F8000B002902F5306105D0002803D4086820F080400860086840F448
:2034A000001200200A6070470A784B785201012B14BF00F5306000F51060835823F4001333
:2034C0008350C97801F0FE01022903D1115841F080511150002070470246D0F8000801F03D
:2034E0007F0120F4FE60C2F80008D2F8000840EA01110020C2F80018704780B56F46D0F8AF
:20350000041821F00201C0F804180320FDF706FF002080BD80B56F46D0F8041841F002012C
:20352000C0F804180320FDF7F9FE002080BD4169806908407047D0F81818D0F81C0808408E
:20354000000C7047D0F81818D0F81C08084080B2704700EB4111D1F8081BD0F8140808403E
:203560007047D0F810C8D0F8343801F00F0223FA02F2D20100EB4110D2B2D0F8080942EA15
:203580000C0108407047406900F0010070470146D0F8000940F2FF729043C1F80009D1F8B5
:2035A000040840F480720020C1F804287047D0F840C043F20B03C4F654739C4503D3D0F812
:2035C000003B002B1ED40023C0F8103BD0F8103B012943F40023C0F8103BD0F8103B43F08D
:2035E0001803C0F8103BD0F8103B43F0C043C0F8103B07D1C0F8142BD0F8001B41F08021DD
:20360000C0F8001B00207047F0B503AF4DF8048D43F60006C4F20206FDF779FE3168044688
:2036200041F00100306000BF3068800705D4FDF76EFE001B0228F7D93EE0306840F0800036
:203640003060FDF764FE0546002041F28838B060B468FDF75CFE14F00C0F044603D0601BF5
:203660004045F5D928E0306820F45020306000BF3568FDF74CFEA903054603D5281B64280B
:20368000F6D919E0306820F0807030603468FDF73EFEA101044603D5601B0228F6D90BE04B
:2036A000306820F0806030603068000108D5FDF72EFE001B0228F7D903205DF8048BF0BD93
:2036C00043F21000C0F20040706000F1E050C6F88400F06840F20C0120F4F850F060F068E5
:2036E00042F2004220F40050F060F068C2F2000140F41F00F060F068C0F2F40240F40010AC
:20370000F060706F20F001007067706F40F08070706740F21000C2F2000000680A60FDF700
:20372000A9FD002818BF01205DF8048BF0BD0000D0B502AFD0F800E0DEF82400D9B3DEF8F8
:203740002830B1F1010C00EB13432CD0002000210EEB8000D0F8044141F00100C0B28445F1
:2037600003EB14431FD90EEB8000D0F8044141F00200C0B2844503EB144314D90EEB80006D
:20378000D0F8044141F00300C0B2844503EB144309D90EEB8000D0F804410431C8B2844588
:2037A00003EB1443D4D843EA02400EEB8C01C1F804010020D0BD40EA0240CEF8280000203E
:2037C000D0BD0268002051627047704700F160416FF3120000F17840B0FA80F0400901F5A9
:2037E00008410022B1F5047F38BF0122104370470220CFF6F870704780B56F4600F082FDB2
:20380000406880BD027801200A707047028801200A807047026801200A607047B0B502AF49
:2038200092B0002443F64000CDE90A44CDE908440594CDE90344CDE901440094C4F20200C6
:203840000168022541F080510160006800F080500090009847F200000094C4F20000016839
:2038600041F440410160006800F4404000900098012006904FF4803007904FF480000D908C
:2038800019200E904FF4A8700F90042010900720119006A80C95FDF767FD002818BF00F035
:2038A00013F90F20CDE9010580200394CDE9040401A80221FDF70AFF002818BF00F004F967
:2038C00012B0B0BD82B0002043F640010190C4F202014A6842F480424A604A6802F48042E5
:2038E0000192019A0090086840F080500860086800F080500090009802B0704743F64000F8
:20390000C4F20200416821F480414160016821F08051016070474FF00060016881F3088860
:203920004EF68851CEF200010A6842F470020A6041F8800C7047000081B0A0F18041A1F590
:20394000023202F500614FEAB123072B00F2978043F6300CC4F2020CDFE803F0041F3663E4
:203960007D91919300210091DCF8001041F00101CCF80010DCF8001001F001010091009977
:2039800002F580614FEAB123062B00F27880DFE803F0041B48627676780000210091DCF8BA
:2039A00000104FEAB22241F00201CCF80010DCF80010052A01F00201009100995FD8DFE8B3
:2039C00002F003304A5E5E6000210091DCF8001041F00401CCF80010DCF8001001F00401E2
:2039E0000091009941F60041C4F20201884248D041F20001C4F2020188422CD040F6004160
:203A0000C4F2020188423AD100200090DCF8000040F00800CCF80000DCF8000000F00800CC
:203A20003BE000210091DCF8001041F00801CCF80010DCF8001001F008010091009941F688
:203A40000041C4F2020188421BD041F20001C4F20201884213D100210091DCF8001041F055
:203A60001001CCF80010DCF8001001F010010091009941F60041C4F20201884201D001B0D4
:203A8000704700200090DCF8000040F08000CCF80000DCF8000000F080000090009801B05A
:203AA000704780B56F4600F081FE00F0EEFC032806D100F077FC18B1BDE8804000F02EBDAE
:203AC000BDE8804000F037BDFEE7D0B502AF044645F600014068C0F60001083100282160BB
:203AE00018BF01F09EFB2046D0BDD0B502AF044645F64C014068C0F6000108310028216029
:203B000018BF01F08EFB2046D0BDD0B502AF044645F698014068C0F60001083100282160CC
:203B200018BF01F07EFB2046D0BDD0B502AF044645F6E4014068C0F6000108310028216070
:203B400018BF01F06EFB2046D0BDD0B502AF044645F630114068C0F6000108310028216004
:203B600018BF01F05EFB2046D0BDD0B502AF044645F67C114068C0F60001083100282160A8
:203B800018BF01F04EFB2046D0BD41F2D860C2F2000000686FF00101016100F025BEF0B55F
:203BA00003AF4DF8048D0E464968B2680446501A4AF6AB224FEAE001CAF6AA2201FB02F801
:203BC0004FF00005C4E90055A56021D045F25651C0F2555188452AD201F025FBD6E90112C7
:203BE000054608EB4800561A05EBC000C4E90055A06013D028463246FCF76CFC4AF6AB20EE
:203C0000C2F6AA2056FB00F0811001EBD07006E008EB4800C000C4E90055A060002000EB36
:203C2000400005EBC00060605DF8048BF0BD01F00BFB41F20000C4F20100704790F9100012
:203C4000704781B00020009043F64400C4F20200016841F010010160006800F01000009093
:203C6000009801B0704743F64400C4F20200016821F0100101607047F0B503AF4DF8048D3F
:203C80000E464968B2680446501A4AF6AB224FEAE001CAF6AA2201FB02F84FF00005C4E9B7
:203CA0000055A56021D045F25651C0F2555188452AD201F0B8FAD6E90112054608EB4800BF
:203CC000561A05EBC000C4E90055A06013D028463246FCF7FFFB4AF6AB20C2F6AA2056FB2E
:203CE00000F0811001EBD07006E008EB4800C000C4E90055A060002000EB400005EBC00039
:203D000060605DF8048BF0BD01F09EFA44F20040C4F20000704790F91000704781B0002045
:203D2000009043F64000C4F20200016841F400310160006800F400300090009801B0704776
:203D400043F64000C4F20200016821F4003101607047F0B503AF4DF8048D0E464968B2681F
:203D60000446501A4AF6AB224FEAE001CAF6AA2201FB02F84FF00005C4E90055A56021D0AA
:203D800045F25651C0F2555188452AD201F04BFAD6E90112054608EB4800561A05EBC00076
:203DA000C4E90055A06013D028463246FCF792FB4AF6AB20C2F6AA2056FB00F0811001EB6D
:203DC000D07006E008EB4800C000C4E90055A060002000EB400005EBC00060605DF8048B21
:203DE000F0BD01F031FA41F20040C4F20100704790F91000704781B00020009043F644006B
:203E0000C4F20200016841F020010160006800F020000090009801B0704743F64400C4F293
:203E20000200016821F0200101607047F0B503AF4DF8048D0E464968B2680446501A4AF68D
:203E4000AB224FEAE001CAF6AA2201FB02F84FF00005C4E90055A56021D045F25651C0F22D
:203E6000555188452AD201F0DEF9D6E90112054608EB4800561A05EBC000C4E90055A06091
:203E800013D028463246FCF725FB4AF6AB20C2F6AA2056FB00F0811001EBD07006E008EBE2
:203EA0004800C000C4E90055A060002000EB400005EBC00060605DF8048BF0BD01F0C4F9FE
:203EC00045F20040C4F20000704790F91000704781B00020009043F64000C4F20200016833
:203EE00041F400110160006800F400100090009801B0704743F64000C4F20200016821F470
:203F0000001101607047F0B503AF4DF8048D0E464968B2680446501A4AF6AB224FEAE00151
:203F2000CAF6AA2201FB02F84FF00005C4E90055A56021D045F25651C0F2555188452AD2C4
:203F400001F071F9D6E90112054608EB4800561A05EBC000C4E90055A06013D028463246C3
:203F6000FCF7B8FA4AF6AB20C2F6AA2056FB00F0811001EBD07006E008EB4800C000C4E983
:203F80000055A060002000EB400005EBC00060605DF8048BF0BD01F057F945F60000C4F24E
:203FA0000000704790F91000704781B00020009043F64000C4F20200016841F48001016068
:203FC000006800F480000090009801B0704743F64000C4F20200016821F48001016070472D
:203FE000F0B503AF4DF8048D0E464968B2680446501A4AF6AB224FEAE001CAF6AA2201FB12
:2040000002F84FF00005C4E90055A56021D045F25651C0F2555188452AD201F004F9D6E9BE
:204020000112054608EB4800561A05EBC000C4E90055A06013D028463246FCF74BFA4AF684
:20404000AB20C2F6AA2056FB00F0811001EBD07006E008EB4800C000C4E90055A060002012
:2040600000EB400005EBC00060605DF8048BF0BD01F0EAF845F60040C4F20000704790F9D0
:204080001000704781B00020009043F64000C4F20200016841F400010160006800F40000EB
:2040A0000090009801B0704743F64000C4F20200016821F4000101607047F0B503AF2DE93B
:2040C000000745F60000C0F6000041F260690830C2F200094FF00008C9E900083020C9E9F4
:2040E000028801F0A0F800F1300C45F61C02C9F80400C9F80CC0C0F60002B2E87A4040F297
:20410000080AA0E87A4092E87A40C2F2000A80E87A40252089F8100043F6CB20C0F6000087
:2041200049465246C9F808C001F0A2F845F64C00C0F6000041F274690830C2F20009C9E950
:2041400000083020C9E9028801F06DF800F1300C45F66802C9F80400C9F80CC0C0F6000299
:20416000B2E87A40A0E87A4092E87A40524680E87A40262089F8100043F6EB20C0F60000EA
:204180004946C9F808C001F073F845F69800C0F6000041F288690830C2F20009C9E900084F
:2041A0003020C9E9028801F03EF800F1300C45F6B402C9F80400C9F80CC0C0F60002B2E88A
:2041C0007A40A0E87A4092E87A40524680E87A40472089F8100043F60B30C0F60000494644
:2041E000C9F808C001F044F845F6E400C0F6000041F29C690830C2F20009C9E900083020FD
:20420000C9E9028801F00FF800F1300C45F60012C9F80400C9F80CC0C0F60002B2E87A4092
:20422000A0E87A4092E87A40524680E87A4043F62B30C0F600004946C9F808C089F81080DB
:2042400001F016F845F63010C0F6000041F2B0690830C2F20009C9E900083020C9E90288A7
:2042600000F0E1FF00F1300C45F64C12C9F80400C9F80CC0C0F60002B2E87A40A0E87A4008
:2042800092E87A40524680E87A4043F64B30C0F600004946C9F808C089F8108000F0E8FFC6
:2042A00045F67C10C0F6000041F2C4690830C2F20009C9E900083020C9E9028800F0B3FF44
:2042C00000F1300C45F69812C9F80400C9F80CC0C0F60002B2E87A40A0E87A4092E87A40F8
:2042E000524680E87A4043F66B30C9F808C0C0F60000494689F81080BDE80007BDE8F040D0
:2043000000F0B6BF40F20012C2F2000202EBC001072888BF02F1380108467047DFF834D00E
:20432000002103E00C4B5B584350091D0B480C4B42189A42F6D30B4A02E0002342F8043B3A
:20434000094B9A42F9D3FFF7E6FA00F09FFF00F0A9FB704700000220D85A0008080000202E
:204360000C120020101200206C1B0020FEE70230FFF742BA023001F0FFB8B0B502AF0230EB
:2043800014460D46FFF7BEFF006821462844BDE8B04001F0EDB8023001F0E6B880B56F46AC
:2043A00000F098F8F0B503AF2DE9000784B048F20008C0F6000808F5C87002A9FFF72AFADB
:2043C0000298FFF703FA28B1029CFFF711FA0238844201D9002054E00298A7F11A01FFF767
:2043E00015FA02984FF0000AA0F10060B0F5004002903FD0A7F1210941F2210500240026EF
:2044000004EB0800494607F821ACFFF7FBF917F8210CB1B281EA002085EA4001020458BF69
:20442000410085EA41000A0458BF480085EA4001020458BF410085EA41000A0458BF4800F3
:2044400085EA4001020458BF410085EA41000A0458BF480085EA4001020458BF410085EAB4
:204460004106080458BF4E00029801348442C7D31FFA86FA37F81A0CAAEB0000B0FA80F0B8
:20448000400904B0BDE80007F0BDB0B502AF6420FCF744FF1020C4F20200006800F00105B0
:2044A00000F02AF8044600F031F894F0010002BF002D0220B0BD44EA050101291CBF01202B
:2044C000B0BD002818BF0320002D08BF0320B0BD704700004EF60C50BFF34F8FCEF2000022
:2044E0000168042201F4E061C0F2FA5211430160BFF34F8F00BFFDE740F20000C2F200002B
:2045000000684738B0FA80F04009704740F20000C2F20000FF2101607047000080B56F4692
:20452000FFF772F8FCF7CFFE48F20400C0F6000000688047FEE780B56F46FFF7C9FFBDE806
:20454000804000F0B1BCF0B503AF4DF804BD0446FCF7F8FE0546FCF7FBFE0646FCF7FEFE3C
:20456000290E2170290C6170290AA170310E2171310C6171310AA171010E2172010C61727A
:20458000010AE570E671A172E0725DF804BBF0BDF0B503AF2DE9000F8BB0EB465846002197
:2045A0004FF0000AFBF7C2FF009EBDF804403046FFF7C2F90DF11808012530464146CDE94A
:2045C000064ACDE90855CDF828A0FCF759FD58460121FBF7ABFF009EBDF804403046FFF743
:2045E000ABF930464146CDE9064ACDE90855CDF828A0FCF745FD58460221FBF797FF009E58
:20460000BDF804403046FFF797F930464146CDE9064ACDE90855CDF828A0FCF731FD584643
:204620000321FBF783FF009EBDF804403046FFF783F930464146CDE9064ACDE90855CDF888
:2046400028A0FCF71DFD58460421FBF76FFF009EBDF804403046FFF76FF930464146CDE944
:20466000064ACDE90855CDF828A0FCF709FD58460521FBF75BFF009EBDF804403046FFF73E
:204680005BF930464146CDE9064ACDE90855CDF828A0FCF7F5FC58460621FBF747FF009EA4
:2046A000BDF804403046FFF747F930464146CDE9064ACDE90855CDF828A0FCF7E1FC584644
:2046C0000721D946FBF732FF009EBDF804403046FFF732F930464146CDE9064A08954FF063
:2046E000010BCDE9095AC246FCF7CAFC11250024E1B24846FBF729FF009EBDF804803046F2
:20470000FFF71AF90020CDE90685CDE9080B0A9030465146FCF7B4FCBDF804000099013495
:204720000004092C8861E3D14FF0000BE8464FF003090DF1180A0025E9B24046FBF7E7FEA3
:20474000009EBDF804403046FFF7F6F806A880E8100A30465146CDE909BBFCF791FCBDF87C
:204760000400009901350004092D8861E4D1002043F630010090C4F202010A6842F0010214
:204780000A60096801F00101009100990121CDE90010CDE9021104900020C4F20200694655
:2047A000FCF76EFC0BB0BDE8000FF0BD80B56F46FCF748FDFFF732F8BDE88040FFF7E8BE3D
:2047C00041F23020C2F20000FDF7CABA70470000FEE70000FEE70000FEE70000FEE7704728
:2047E00070477047FCF786BD40F24010C2F20000017881F001020029027018BF704741F296
:204800005C60C2F200000168013101607047F0B503AF4DF8048D044690F82000884670B365
:2048200094F84010D4E912232026CD00A6EBC10603FA06F6EA4032436FF01F0606EBC1066B
:20484000002E58BF23FA06F2D2B2424514D10131CAB2B2F1080318BF0B46082A84F840306C
:204860000DD1002060622085C4E90D0084F84000E0622086012051E0002184F8401004EB47
:20488000C001496854F83020C80704EB610001D001688A5841469047022817D0C0BB94F859
:2048A00020000021032836D184F8201061622185E1622186C4E90D11606C84F840100168BA
:2048C00009695DF8048BBDE8F0400847002084F8200060622085E0622086C4E90D0084F81D
:2048E0004000D4E90020C10704EB600001D001688A584146904702280AD1002084F8200049
:2049000060622085E0622086C4E90D0084F840005DF8048BF0BD013084F8301084F82000B8
:204920005DF8048BF0BDB0B502AF054690F84000D5E912C320244FEAC00EA4EBC00403FA8F
:2049400004F42CFA0EF222436FF01F0404EBC004002C58BF23FA04F2D2B28A420AD1411CC1
:20496000C8B2B0F1080210461CBF01200A4685F84020B0BD0021022085F84010B0BD90F821
:204980003020032A4FEAC20309D8D0F838C0994041EA0C018163511C80F8301012E0A3F15B
:2049A000200CC36B01FA0CF101321943D3B2082BC16380F8302005D1406D081A18BF0120D5
:2049C0004000704701207047F0B503AF4DF804BD044690F83000238DC200914001300B43E7
:2049E000C1B20229238584F830003CD1E26A32B9606C616A026852689047E26A238D606C27
:204A0000616A05689BB2AD68A847E16A626B606C8E1C911C0025E6626163258584F83050FB
:204A20000268616A1268904786420DD1606CE5620268616AD2689047D4E90D0188420CD080
:204A4000606A013060620EE0D4E90D0188420AD1606C616A0268D2689047002084F830005D
:204A60005DF804BBF0BD01205DF804BBF0BD024690F83000D2F850C0C3002CFA03F3DBB24D
:204A80008B4209D1411CC8B2031F18461CBF01200B4682F8303070470021022082F830103D
:204AA0007047000080B56F4682B0FEF7FAFF41F2C07841F2747541F2187941F2707BC2F218
:204AC0000008C2F20005A7F1010AC2F20009C2F2000B00BF404600F001FA0028FAD0284666
:204AE000414600F097F8D8B1284600F001F9044600284FF0000007F8010CEBD0002602E04F
:204B00000136B442E6D028463146524600F002F90028F5D017F8011C4846FFF778FEEFE761
:204B200098F800009BF800108842D3D198F801009BF801108842CDD198F802009BF8021000
:204B40008842C7D198F803009BF803108842C1D1404600F083FABDE70846FFF708BC084671
:204B6000FFF708BC084611461A46FFF706BC0846FFF711BCFFF712BCD0B502AF45F6E41C78
:204B8000C0F6000C41F2187EC2F2000EBCE81B0072461BC29CE81B0044F26E5C1BC240F2C6
:204BA00044110020C2F2000147F24F0344F26B3446F64B620EF144068EF82000CEF82400A9
:204BC000AEF82800CEF82C00AEF83000CEE90D00CEF83C008EF84000C4F6707CC6F64563A9
:204BE000C4F26544C1F2572286E80A1041F27071CEE91442C2F2000107220A70F0224A705D
:204C000055228A70F722CA7041F27471C2F200018864D0BDD0B502AF044600F013F878B1E6
:204C2000607868B9A07853280AD1E07843284FF0000018BFD0BDA16C062988BF0120D0BD76
:204C40000020D0BD0A786FF03F03120153FA82F213090B2B4FF0000C48D8DFE803F00F0624
:204C6000161E47474747474747064978F7291CBF00207047816CF722425432E04A78F02AEC
:204C800012D1002383644A780FE04A78836CC254826C01328264897822E04A78F02A14D1E4
:204CA000002383644A7811E0836CC254826C013282648B788354826C01328264C978815434
:204CC000816C0131816400207047836CC254826C013282648B788354826C01328264C978CB
:204CE0008154816C4FF0010C0131816460467047417809B10020704781785329FAD1C1786F
:204D00004329F7D1806C072822BF053840087047002070470523D0F848C003EB410363457E
:204D200024BF0020704749000144C05C097900F07F0040EAC110107001207047014645F649
:204D400004206522C0F600000A807047014645F66A201222C0F600000A807047014645F6F8
:204D60007C200422C0F600000A807047014645F680202222C0F600000A807047014645F69B
:204D8000A4201A22C0F600000A807047F0B503AF2DE9000741F2C47E8446C2F2000E032084
:204DA0008EF8010032204FF000096FF0070A4FF03708002400258EF8000000BFE8B20E5C52
:204DC00045F0010206F00F0606F13003092E88BF06F137030EEB040686F80390B370085C1C
:204DE0001034030930339F2888BF08EB101386F805903371D0B20A5C02F00F0202F1300314
:204E0000092A88BF02F1370386F80790B371085C45F00203020930329F2888BF08EB101284
:204E20000EEB0A0080F811900274D8B20A5C0AF1100A02F00F0202F13003092A88BF02F145
:204E4000370386F80B90B372085C45F00303020930329F2888BF08EB101286F80D903273EB
:204E6000D8B20A5C043502F00F0202F13003092A88BF02F1370386F80F90B373085C020987
:204E800030329F2888BF08EB1012302C86F81190327493D1322141F2C470C2F20000ACF8F6
:204EA0000010BDE80007F0BDD0B502AF41F2F874C2F2000441F25411C2F200012046002227
:204EC000FBF7F1FD41F27011C2F200012046FBF706FE2046BDE8D040FBF717BED0B502AF15
:204EE000EFF3108240F2481172B6C2F20001002A41F208028A5800D162B6042A3CBF00205B
:204F0000D0BDEFF3108372B641F208028A580BB112B920E062B6F2B1EFF3108C72B64FF41D
:204F2000805341F20402CB588A5841F2080E51F80E4013441B1BB3FBF2F4BCF1000F04FBA4
:204F400012328A5C027051F80E20A2F1010241F80E2000D162B6EFF3108372B641F208027E
:204F60008A580BB112B920E062B6F2B1EFF3108C72B64FF4805341F20404CB580C5941F25B
:204F8000080E51F80E2023449A1AB2FBF4F3BCF1000F03FB14228A5C427051F80E20A2F143
:204FA000010241F80E2000D162B6EFF3108372B641F208028A580BB112B920E062B6F2B1A0
:204FC000EFF3108C72B64FF4805341F20404CB580C5941F2080E51F80E2023449A1AB2FBCA
:204FE000F4F3BCF1000F03FB14228A5C827051F80E20A2F1010241F80E2000D162B6EFF3C3
:20500000108372B641F208028A5813B122B90120D0BD62B6002AFAD0EFF3108C72B64FF474
:20502000805341F20404CB580C5941F2080E51F80E2023449A1AB2FBF4F3BCF1000F03FBB1
:2050400014228A5CC27051F80E00A0F1010041F80E00DCD162B60120D0BD000080B56F4675
:2050600041F6C821C2F200010978D1B1024641F6C920C2F2000000BF017831B9017821B9C7
:20508000017811B901780029F6D00021017041F2F870C2F2000081210423FBF7CAFF0120DF
:2050A00080BD002080BD0846FFF750BE0846FFF755BE0846FFF75ABE0846FFF75FBEB0B58B
:2050C00002AF84B001AD28460C46FFF73CFA20462946FFF75BFE04B0B0BD0846FFF746BEC4
:2050E0000846FFF743BED0B502AF8121022280230446FBF72CFF2046022102228023FBF723
:2051000026FF41F6CA22C2F20002204602218023FBF7A2FF41F6C920C2F20000012141F6A5
:20512000C8220170C2F2000200201170D0BDD0B502AF81210446FBF720FF20460221FBF782
:205140001CFF41F6C821C2F20001002200200A70D0BD41F6C921C2F20001012200200A7083
:2051600070470000F0B503AF2DE90007D0F8C422C1EBC10102EB8101D1F81412002942D04F
:2051800041F6CA2240F24813C2F20002C2F2000341F2080C41F2040E4FF4805804E000BFA8
:2051A000013902F101022ED092F80090EFF3108572B653F80C6053F80E401DB1A642EFD241
:2051C00003E000BF62B6A642EAD2EFF3108A72B653F80850BAF1000F03F8059053F808503D
:2051E00053F80E6005F10105B5FBF6F404FB165453F80C5043F8084005F1010443F80C404B
:20520000CED162B6CCE741F6CA22C2F2000202218023FBF721FF0020BDE80007F0BDFFF704
:205220008DBD00F05FB8012838BF012010B50446204600F04FF830B900F00AF808B900F0A4
:205240000FF88047F4E710BD08B500F009F80000024B1868BFF35B8F704700BF4C1B0020C4
:2052600008B5062000F028F9012000F06DF9000010B5054C13462CB10A4601460220AFF31C
:20528000008010BD2046FCE70000000070B50D4D0D4C641BA4100026A64209D10B4D0C4CD5
:2052A00000F054F9641BA4100026A64205D170BD55F8043B98470136EEE755F8043B98478B
:2052C0000136F2E7C85A0008C85A0008C85A0008D45A0008024B0146186800F05BB800BF34
:2052E000A8110020024B0146186800F003B800BFA811002037B5002948D051F8043C019037
:20530000002BA1F10404B8BFE41800F0F1F8204A01981368154633B96360146003B0BDE828
:20532000304000F0EBB8A3420BD921686218934204BF1A685B68636004BF521822602C60C3
:20534000ECE71A465B680BB1A342FAD911685518A5420BD1246821445418A3421160DDD1D9
:205360001C685B68536021441160D7E702D90C230360D3E7256861198B4204BF19685B689D
:20538000636004BF491921605460C7E703B030BD501B0020F8B5CD1C25F0030508350C2DEE
:2053A00038BF0C25002D064601DBA94203D90C2333600020F8BD00F09BF821490A68144659
:2053C0009CB9204F3B6823B92146304600F03CF838602946304600F037F8431C23D10C236B
:2053E0003360304600F08AF8E3E723685B1B17D40B2B03D923601C44256004E06368A2426F
:205400000CBF0B605360304600F078F804F10B00231D20F00700C21ACCD01B1AA350C9E726
:2054200022466468CCE7C41C24F00304A042E3D0211A304600F008F80130DDD1CFE700BF00
:20544000501B0020541B002038B5064D0023044608462B6000F06AF8431C02D12B6803B1E1
:20546000236038BD5C1B00201F2938B504460D4604D9162303604FF0FF3038BD426C12B1FE
:2054800052F821304BB9204600F030F82A4601462046BDE8384000F017B8012B0AD0591C7B
:2054A00003D1162303600120E7E7002442F82540284698470020E0E7024B01461868FFF78C
:2054C000D3BF00BFA811002038B5074D00230446084611462B6000F021F8431C02D12B68F6
:2054E00003B1236038BD00BF5C1B002000F00EB8014800F009B800BF641B0020014800F0E3
:2055000004B800BF641B002070477047024B58221A604FF0FF3070475C1B0020024B58223F
:205520001A604FF0FF3070475C1B0020044A05491368002B08BF0B461844106018467047FA
:20554000581B0020701B0020FEE700BFF8B500BFF8BC08BC9E467047F8B500BFF8BC08BC06
:205560009E467047000000005FF800F05F0000205FF800F0610000205FF800F01700002084
:20558000000002400200000000000000000000000000000000000000000002400400000081
:2055A0000000000000000000000000000000000000000240080000000000000000000000A1
:2055C000000000000000000000000240100000000000000000000000000000000000000079
:2055E0000000024020000000000000000000000000000000000000000000024040000000C7
:205600000000000000000000000000000000000000000240800000000000000000000000C8
:20562000000000000000000000040240010000000000000000000000000000000000000023
:205640000004024002000000000000000000000000000000000000000000024001000000BF
:205660000000000000000000000000000000000000040240040000000000000000000000E0
:205680000000000000000000000402400004000000000000000000000000000000000000C0
:2056A00000040240001000000000000000000000000000000000000000040240002000002E
:2056C000000000000000000000000000000000000004024000400000000000000000000044
:2056E0000000000000000000000402400080000000000000000000000000000000000000E4
:20570000000002400001000000000000000000000000000000000000000002400080000084
:2057200000000000000000000000000000000000000402400800000000000000000000001B
:205740000000000000000000000402401000000000000000000000000000000000000000F3
:2057600000040240200000000000000000000000000000000000000000040240000100007C
:205780000000000000000000000000000000000000040240000200000000000000000000C1
:2057A00000000000000000000008024000200000000000000000000000000000000000007F
:2057C000000802400040000000000000000000000000000000000000000802400080000075
:2057E000000000000000000000000000000000000000000000000000010203040607080981
:2058000000000000000000009F3B0008333C00083D3C0008433C0008673C0008000002403A
:20582000000400000200000000000000030000000700000000000240000200000200000012
:205840000000000003000000070000000000000000000000793C00080D3D0008173D0008D3
:205860001D3D0008413D0008000002400800000002000000000000000300000007000000EA
:205880000000024004000000020000000000000003000000070000000000000000000000B6
:2058A000533D0008E73D0008F13D0008F73D00081B3E000800000240000800000200000005
:2058C000000000000300000008000000000002400010000002000000000000000300000066
:2058E0000800000000000000000000002D3E0008C13E0008CB3E0008D13E0008F53E0008C3
:20590000000402404000000012000000010000000300000004000000000402408000000021
:20592000120000000100000003000000040000000000000000000000073F00089B3F00081D
:20594000A53F0008AB3F0008CF3F00080004024000040000120000000100000003000000F3
:205960000400000000040240080000001200000001000000030000000400000000000000BB
:2059800000000000E13F0008754000087F40000885400008A940000800000240000100005A
:2059A000120000000100000003000000040000000004024010000000120000000100000064
:2059C00003000000040000000000000000000000594B00085F4B0008654B00086F4B0008E8
:2059E000754B000827490008000000007F49000800000000C9490008000000006F4A0008BC
:205A000000000000090265000201008032090400000001010000092401000109000101090F
:205A200004010002010300000724010001410006240201010006240202020009240301035B
:205A40000102010009240302040101010009050202400005000005250101010905810240B4
:205A600000050000052501010300120100020000004009127384010001020301040309046F
:205A800022035300680061006E00740065006100200043006F006E00740072006F006C001C
:205AA000730000001A034F00700065006E004400650063006B00200044004600550000004E
:205AC0004CA7FF7F01000000C1010008BB400008794B00089D010008000000000024F400FD
:205AE000100000000100D0B502AF86B001210491CDE90210022005900020019000F05CF8FE
:205B0000044650B943F60C40C4F20200F321016001A8694600F058F8044600F051F80098CD
:205B200064EA0000B0FA80F0400906B0D0BD7047F0B503AF4DF804BD0C46054600F03CF89C
:205B4000064660B943F60C40C4F20200F3210160012029462246002300F02AF8064600F0C5
:205B60002FF8B6FA86F040095DF804BBF0BDF0B503AF4DF804BD0C46054600F01DF8064683
:205B800060B943F60C40C4F20200F3210160022029462246002300F00BF8064600F010F8E7
:205BA000B6FA86F040095DF804BBF0BD000000005FF800F0A31800085FF800F0CF1A000873
:205BC0005FF800F0FD1A00085FF800F0D52500080000000800400000004000080040000046
:205BE000008000080040000000C000080040000000000108000001000000020800000100C0
:205C00000000040800000100000006080000010001000000D0590008000000000000000036
:205C2000000000000000000000000000000000000000000000000000000000000000000064
:205C4000000000000000000000000000000000000000000000000000000000000000000044
:205C6000000000000000000000000000000000000000000000000000000000000000000024
:205C8000000000000000000000000000000000000000000000000000000000000000000004
:206C0000000000000000000000000000000000000000000000000000000000000010000064
:206C200000000000A7500008AD500008B3500008B9500008BF500008DB500008E1500008B1
:206C4000E75000082F51000800000000000000000000000053510008655100080000000003
:206C60000000000000000000000000001F5200080000000000000000AC11002000000000BE
:206C80000000000000000000000000000000000000000000000000000000000000000000F4
:206CA0000000000000000000000000000000000000000000000000000000000000000000D4
:1C6CC00000000000000000000000000000000000000000000000000000000000B8
:2080000000000220D9E5000837E6000839E600083DE6000841E6000845E60008000000009F
:2080200000000000000000000000000047E6000849E60008000000004BE600084DE6000860
:2080400029E6000829E6000829E6000829E6000829E6000829E6000829E6000829E6000868
:2080600029E6000829E6000829E6000829E6000829E6000829E6000829E6000829E6000848
:2080800029E6000829E6000803DB00080000000000000000000000000000000029E60008B5
:2080A00029E6000829E6000829E6000829E6000829E6000829E6000829E6000829E6000808
:2080C00029E6000829E6000829E6000829E6000829E60008F1DA0008F7DA00080000000081
:2080E00029E6000829E6000829E600080000000000000000000000000000000029E6000824
:208100000000000029E60008DDDA000829E600080000000000000000000000000000000072
:2081200029E6000829E6000829E6000829E6000829E60008000000000000000000000000CC
:208140000000000000000000000000002BE6000829E6000829E6000829E60008FDDA0008E2
:2081600029E6000829E60008000000000000000000000000000000000000000000000000D1
:208180000000000029E60008000000000000000018B9010829E60008FFFFFFFFFFFFFFFFDF
:2081A0000000000010B5054C237833B9044B13B10448AFF300800123237010BD001B0020E2
:2081C000000000007890010808B5034B1BB103490348AFF3008008BD00000000041B0020FA
:2081E0007890010853B94AB9002908BF00281CBF4FF0FF314FF0FF3000F06EB9ADF1080CC6
:208200006DE904CE00F006F8DDF804E0DDE9022304B070472DE9F047089D04468C46002B00
:2082200040F083808A42174647D9B2FA82F242B1C2F1200024FA00F09140974040EA010CEF
:2082400094404FEA1748230CBCFBF8F61FFA87FE08FB16C143EA014306FB0EF1994209D938
:20826000FB1806F1FF3080F01981994240F21681023E3B445B1AA4B2B3FBF8F008FB1033B1
:2082800044EA034400FB0EFEA64509D93C1900F1FF3380F00581A64540F2028102383C44CD
:2082A00040EA0640A4EB0E0400261DB1D4400023C5E900433146BDE8F08702B9FFDEB2FABA
:2082C00082F2002A50D1CB1B4FEA174E1FFA87F80126B3FBFEFC210C0EFB1C3341EA034100
:2082E00008FB0CF38B4207D979180CF1FF3002D28B4200F2E9808446C91AA3B2B1FBFEF07A
:208300000EFB101143EA014408FB00F8A04507D93C1900F1FF3302D2A04500F2D980184627
:20832000A4EB080440EA0C40BFE78B4209D9002D00F0B1800026C5E9000130463146BDE822
:20834000F087B3FA83F6002E4AD18B4202D3824200F2B880841A61EB030101208C46002D99
:20836000A8D0C5E9004CA5E7C2F1200320FA03F6974001FA02F04FEA174ED9403043030C19
:20838000B1FBFEF61FFA87F80EFB161143EA014306FB08F1994204FA02F409D9FB1806F14F
:2083A000FF3C80F08D80994240F28A80023E3B445B1A81B2B3FBFEF00EFB103341EA034130
:2083C00000FB08F38B4207D9791800F1FF3C73D28B4271D902383944CB1A40EA064678E770
:2083E000C6F1200C03FA06F422FA0CF31C4320FA0CF701FA06F34FEA144E21FA0CF11F4303
:208400003B0CB1FBFEF91FFA84F80EFB191143EA014109FB08FA8A4502FA06F200FA06F37F
:2084200008D9611809F1FF3048D28A4546D9A9F102092144A1EB0A01BFB2B1FBFEF00EFBFC
:20844000101147EA014700FB08F8B84507D9E71900F1FF312ED2B8452CD90238274440EAB8
:208460000940A7EB0807A0FB02894F45C64649461AD317D05DB1B3EB0E0267EB010707FAD2
:208480000CFCF2404CEA0202F740C5E9002700263146BDE8F0872E4628460BE70646E9E6B4
:2084A0001846FDE64345E5D2B8EB020E69EB04010138DFE70846D2E760468DE78146B9E7A9
:2084C000664675E730464AE7ACF1020C394413E702383C4424E700BF704700BF884210B443
:2084E0000DD98B1898420AD2811832B19A1A13F8014D9A4201F8014DF9D110BC7047002A1A
:20850000FBD00A44431E11F8014B8A4203F8014FF9D110BC704770B4840746D04C1E0029D0
:2085200041D0D5B2034602E0611EE4B30C4603F8015B9907F8D1032C2ED9D5B245EA05253A
:208540000F2C45EA054519D9264603F11001103E0F2E41F8105C41F80C5C41F8085C41F85D
:20856000045C01F11001F2D8A4F1100121F00F0104F00F041031032C0B440DD91E46214690
:208580000439032946F8045BFAD8211F21F0030104310B4404F003042CB1D2B21C4403F873
:2085A000012BA342FBD170BC70470C460346C2E7034613F8012B002AFBD1181A013870471F
:2085C00001F0FF01102A2BDB10F0070F08D010F8013B013A8B422DD010F0070F42B3F6D161
:2085E000F0B441EA012141EA014122F007047FF000070023F0E80256083C85EA010586EA0E
:20860000010685FA47F5A3FA87F586FA47F6A5FA87F68EB9EED1F0BC01F0FF0102F0070208
:2086200032B110F8013B013A83EA010313B1F8D10020704701387047002D06BF354603386B
:20864000073815F0010F07D1013015F4807F02BF013015F4C03F0130F0BC0138704700BF2F
:2086600080B56F4682B049F2A80100EB4000C0F6010101EBC00C0CF1040E51F830009EE851
:208680000E40DCF814C0CDE900EC05F04FFB02B080BDB0B502AF49F2A80201EB4101C0F635
:2086A000010202EBC10191E83C5080E83C50B0BD7047B0B502AF49F2801201EB4101C0F624
:2086C000010202EBC10191E83C5080E83C50B0BD7047B0B502AF49F2402201EB4101C0F634
:2086E000010202EBC10191E83C5080E83C50B0BD704780B56F4613460A460221C0F8941297
:208700000021C0E9063300F05AFD002080BD80B56F4613460A46002100F051FD002080BD63
:2087200080B56F4613460A46002100F05BFD002080BD80B56F460421C0F894120021002230
:20874000002300F03CFD002080BD80B56F460521C0F8941200210022002300F043FD00204C
:2087600080BD0000B0B502AF82B00D460978044611F060010DD0402902D0202940F0B7802C
:20878000D4F8B80229468268204602B0BDE8B04010476878092800F2AA80DFE800F0051BF2
:2087A000A829A85571A8304294F89C020138022800F29D80E888022840F09980D4F8A4026F
:2087C0000322002808BF0122214641F80C2F2046022231E194F89C020138022800F2878065
:2087E00068880025012840F08B80C4F8A452F3E06888012859D10120C4F8A40220E1E88844
:20880000012840F0748094F89C02411E022968D20025214641F8085F20460122FFF769FF0A
:208820006EE0688841F61C35C1B2C2F20005022928703CD32046802100F078FC2046002182
:2088400000F074FC03255BE0A88800284FD1E88800284CD168887F2849D894F89C1203290A
:2088600045D0C5B284F89E022046294600F094FC2046FFF75EFF002D14BF02200120B3E06C
:2088800068884FF0FF3101EB10210022062927F80A2C00F2DA80DFE801F0046536D8D872F1
:2088A0007C00D4F8B4020268B6E0002528E094F89C02032834D0022840F07880002900F0C9
:2088C000BF8001206060204600F0E7F9002800F0878005462046802100F028FC2046002136
:2088E0000CE0032803D1211D20460122A4E02046802100F01BFC20460021002500F016FC86
:20890000284602B0B0BDC0B2052800F29E80DFE800F0036F73777B7FD4F8B40242687AE088
:20892000002951D06068012800F08A80C1B2204600F0BBF929782046616000F0AEF90028FE
:208940007ED005462046802100F0F0FB2046002100F0ECFB2179204600F0A7F9022084F810
:208960009C02CDE7217CD4F8B80200290CBF816AC16AA7F10A0088470146022014E0207C0E
:20898000002862D1D4F8B802416BA7F10A00884746E0207C002858D1D4F8B802016BA7F13C
:2089A0000A0088470146072048703AE02046802100F0BCFB2046002100F0B8FB29782046BF
:2089C00000F073F903259BE7022084F89C0200252046656000F069F92046FFF7AAFE8FE739
:2089E0002046FFF7A6FE032084F89C02002587E7D4F8B40282680EE0D4F8B402C2680AE0B7
:208A0000D4F8B402026906E0D4F8B402426902E0D4F8B4028269C2B1207CA7F10A0190477E
:208A20000146EA8862B137F80A0C70B1904238BF024627F80A2C2046FFF75BFE00255FE77E
:208A40002046FFF776FE00255AE72046802100F06DFB2046002100F069FB002550E7F0B5A5
:208A600003AF4DF804BD0D460978044611F0600118BF402917D194F89C020138022814D81D
:208A8000A88810F0FE0F10D1D4F8B8022946826820469047064688B9E88878B92046FFF712
:208AA00048FE00260AE02029E5D02046802100F03DFB20460021002600F038FB30465DF898
:208AC00004BBF0BDB0B502AF0D460978044611F060010BD0402901D020296CD1D4F8B80273
:208AE000294682682046BDE8B040104768782979B8B1012830D003285DD194F89C02032809
:208B00002ED1688840B941F08000802804D0E88810B9204600F00AFB2046FFF70AFE002028
:208B2000B0BD94F89C02032826D0022843D141F0800080283FD101F07F0000EB800004EB0C
:208B4000800000F11402090658BF00F5AA72002010602046114653E094F89C02032834D07E
:208B6000022828D141F08000802824D0204600F0DDFA2046802124E001F00F0202EB8202DA
:208B800011F0800004EB820214BF928CB2F864218AB101F07F0202EB820204EB820202F13D
:208BA0001405002841F0800008BF02F5AA7580281DD1002021E02046802100F0B7FA204621
