:020000040000FA
:20000000BEC20000E6C20000E4C20000E2C20000E0C20000DEC20000DCC20000DAC20000F2
:20002000D8C20000D6C200000C945709D7C60000D0C20000CEC20000CCC20000CAC20000B5
:20004000C8C20000C6C20000C4C20000C2C20000C0C20000E7C40000BCC20000BAC200005D
:20006000B8C20000A5C4000064C4000053C40000B0C20000DEC50000ACC20000AAC200006F
:20008000A8C20000A6C20000A4C20000A2C20000A0C200009EC20000AA9400005465656E38
:2000A00073792B2B20322E30001201000200000008091272840100010200010902650002A9
:2000C000010080320904000000010100000924010001090001010904010002010300000709
:2000E0002401000141000624020101000624020202000924030103010201000924030204CD
:20010000010101000905020240000500000525010101090581024000050000052501010353
:200120000403090422035300680061006E00740065006100200043006F006E00740072009C
:200140006F006C007300000012034F00700065006E004400650063006B000000420041238D
:200160000041004723004700462300460045004423004400432300430050726573657400D2
:200180004E52504E004D4D43205265636F7264204F6666004D4D43205265636F7264204FBF
:2001A0006E004D4D43205061757365004D4D432053746F70004D4D4320506C6179005254FA
:2001C00020537973527374005254204153656E730052542053746F7000525420436F6E7421
:2001E000696E756500525420537461727400525420436C6F636B00537973457820436F6E8C
:20020000660050697463682042656E64004154004348204154005043004343004E6F746563
:20022000204F6E004E6F7465204F6666007701740172016F016D016B0168016601630161D1
:20024000015E015C0124021C021902160210020D020202F7010000000000000000EE01E579
:2002600001D901D101C801BE01B501AC01A2019401850180017901207F010100000000008C
:200280000000000000065F5F0600000003070000070300147F7F147F7F140000242E6B6B20
:2002A0003A1200466630180C666200307A4F5D377A4800000004070300000000001C3E6310
:2002C000410000000041633E1C0000082A3E1C1C3E2A080008083E3E080800000080E0606B
:2002E000000000000808080808080000000060600000006030180C060301001C3E634963E7
:200300003E1C000040427F7F40400042637159496F660022634949497F3600181C16537FC5
:200320007F50002F6F4949497931003C7E4B4949783000030371790D070300367F494949F5
:200340007F3600064F4949693F1E000000006666000000000080E6660000000000081C3649
:20036000634100002424242424240000004163361C0800020301595D0702003E7F415D5D86
:200380001F1E007C7E0B090B7E7C00417F7F49497F36001C3E634141632200417F7F4163E0
:2003A0003E1C00417F7F495D416300417F7F491D0103001C3E6341513372007F7F080808A7
:2003C0007F7F000000417F7F410000307040417F3F0100417F7F081C776300417F7F4140C2
:2003E0006070007F7F0E1C0E7F7F007F7F060C187F7F003E7F4141417F3E00417F7F490905
:200400000F06003E7F4141E1FFBE00417F7F09197766000022674D597322000003417F7FA6
:200420004103003F7F4040407F3F001F3F6040603F1F003F7F6038607F3F0063771C081CF2
:2004400077630000074F78784F0700476371594D67730000007F7F414100000103060C18DD
:20046000306000000041417F7F0000080C0603060C0800808080808080808000000103062B
:20048000040000207454543C784000417F3F44447C3800387C4444446C2800387C44453F5D
:2004A0007F4000387C5454545C1800487E7F490903020098BCA4A4F87C0400417F7F08045E
:2004C0007C78000000447D7D4000000060E08080FD7D00417F7F10386C44000000417F7F7A
:2004E0004000007C7C0C780C7C7800047C7804047C7800387C4444447C380084FCF8A424D8
:200500003C1800183C24A4F8FC8400447C784C040C0800485C54545474240004043F7F4415
:200520006420003C7C40403C7C40001C3C6040603C1C003C7C6038607C3C00446C381038BF
:200540006C44009CBCA0A0A0FC7C00004C64745C4C64000008083E77414100000000EFEFE6
:20056000000000004141773E080800020301030203010070784C464C787000002F421124D1
:200580001FBECFEFD0E2DEBFCDBF15E0A0E0B1E0E2E5F0E900E00BBF02C007900D92A835C0
:2005A000B107D9F72AE0A8E5B5E001C01D92AD38B207E1F712E0CFEBD2E004C02197FE01C8
:2005C0000E943945CE3BD107C9F70E9411330C94274816CDFFCF2091E4003091E50095E6FE
:2005E0004091EC00842F817040FF23C08091E80080FD1DC080915B05882399F0853099F042
:200600008091EB0085FD11C04091E4005091E5002417350729F3915011F09A01E1CF84E0EC
:20062000089582E0089583E0089581E0089580E008954091E80042FFDDCF08950F931F938C
:20064000CF93DF9320915B05243009F03FC08C0180915D058F708093E900BDDF811136C04A
:20066000E80104E010E08091E80085FD09C08091E8008E778093E800AEDF8823A1F326C0CE
:2006800089918093F1000150110969F78091E80085FD05C08091E8008E778093E800809127
:2006A0005B05843089F480915D058F708093E9008091F2009091F300892B31F08091E80056
:2006C0008E778093E80087DF81E001C080E0DF91CF911F910F9108950F931F93CF93DF934D
:2006E00020915B05243011F080E02DC022E02093E9002091E80022FFF7CF8C016CDF8111BF
:2007000016C0E80104E010E006C08091F10089930150110961F08091E80085FDF6CF809155
:20072000E8008B778093E80056DF8823A1F38091F2009091F300892B29F48091E8008B777D
:200740008093E80081E0DF91CF911F910F91089580918D0587FF11C08091E80082FD05C049
:2007600080915B058111F8CF11C08091E8008B770BC080915B05882349F08091E80080FF4B
:20078000F8CF8091E8008E778093E80008950F93DC01CB01BA01033030F0033041F4B90181
:2007A0000E949A4407C0622F0E94804403C0A9010E94924481E00F910895CF93DF93DC01C7
:2007C000CB01E901433028F0433069F40E947B4403C00E946E4490E0A0E0B0E088839983E9
:2007E000AA83BB8306C00E947644688379838A839B8381E0DF91CF910895982F969596956F
:200800009695E92FF0E0E658FA4F208130E048E0949F80191124A90102C0559547958A9513
:20082000E2F7CA01817008959FB7F894E82FF0E0E056FA4F608381E080939F059FBF089548
:200840000F931F93CF93DF937FB7F894EC01CC5BDF4F48815981DC01AE5BBF4F2D913C914A
:2008600011977FBF42175307E8F44FB7F8948C01005C1F4FF80120813181FC01E20FF31FCE
:200880006083C90101966D917C910E94E444F80191838083888199810196998388834FBF40
:2008A00081E001C080E0DF91CF911F910F910895CF93DF939C01EB014FB7F894FC01EC5BC6
:2008C000FF4F808191814FBF892B01F14FB7F894D901AE5BBF4F6D917C91119712978D9106
:2008E0009C91860F971FA081B1818A1B9B0B0E94E444D901A80FB91F8C9188838081918174
:200900000197918380834FBF81E001C080E0DF91CF9108951F920F920FB60F9211248F931C
:2009200081E0809314068F910F900FBE0F901F9018951F920F920FB60F9211240BB60F9253
:200940002F933F934F935F936F937F938F939F93AF93BF93EF93FF93CF93DF931F92CDB716
:20096000DEB7BE016F5F7F4F87E39AE0A1DF811106C08091C9008F7D8093C90003C089813C
:200980008093CE000F90DF91CF91FF91EF91BF91AF919F918F917F916F915F914F913F9167
:2009A0002F910F900BBE0F900FBE0F901F9018951F920F920FB60F9211240BB60F922F9397
:2009C0003F934F935F936F937F938F939F93AF93BF93EF93FF936091CE00809113068111E6
:2009E00004C081EF99E02CDF0AC087E39AE028DF882329F08091C90080628093C900FF919E
:200A0000EF91BF91AF919F918F917F916F915F914F913F912F910F900BBE0F900FBE0F9093
:200A20001F9018951F920F920FB60F9211240BB60F928F929F92AF92BF92CF92DF92EF92D4
:200A4000FF920F931F932F933F934F935F936F937F938F939F93AF93BF93CF93DF93EF93F7
:200A6000FF939091EC0181E089278093EC01882309F449C08091890A90918A0AA0918B0AF5
:200A8000B0918C0A0196A11DB11D8093890A90938A0AA0938B0AB0938C0A80919F058823FE
:200AA00091F1A8E3B3E0C0EAD5E068E773E041E050E0CD90DD90ED90FD90F601C09296058C
:200AC000D0929705E0929805F0929905899120919805882341F03081CA0101C0880F2A9512
:200AE000EAF7832B0AC090818A0102C0000F111F2A95E2F7802F8095892380836A177B07F2
:200B0000C1F610929F0580918605853008F072C080919E058F5F80939E05853011F41092A9
:200B20009E0560E040E050E0C12CD12C7601C39420E030E0E62FE20F14E0E19FF00111241A
:200B4000E858FC4F80819181A281B381FC0180939A0590939B05A0939C05B0939D053297AC
:200B6000808190E000909C0502C0959587950A94E2F770919E0580FD15C0CA01870F911D4F
:200B8000870F911DFC01E458FA4F7081D701C601022E04C0880F991FAA1FBB1F0A94D2F7B2
:200BA000872B16C0CA01870F911D870F911DFC01E458FA4F908146015701022E04C0880CA0
:200BC000991CAA1CBB1C0A94D2F78094882D892380832F5F3F4F2830310509F0ABCF4F5F19
:200BE0005F4F685F603109F0A3CF809186058F5F80938605FF91EF91DF91CF91BF91AF91EC
:200C00009F918F917F916F915F914F913F912F911F910F91FF90EF90DF90CF90BF90AF905A
:200C20009F908F900F900BBE0F900FBE0F901F9018951F920F920FB60F9211240BB60F9248
:200C40002F933F934F935F938F939F93EF93FF93209178003091790080919505833021F0F2
:200C60008F5F8093950528C01092950580917805E82FF0E0EE0FFF1FE859FA4F4081518108
:200C8000240F351F318320838F5F883019F08093780505C01092780581E080937905809150
:200CA0007C00E0917805F0E0E05DFC4F90819F70807F892B80937C0080917905811105C02A
:200CC00080917A00806480937A00FF91EF919F918F915F914F913F912F910F900BBE0F9051
:200CE0000FBE0F901F901895F89484B7877F84BF80916000806180936000109260008FE1E5
:200D00009EE40197F1F700C000001FBA10BE1CBC1DBA1092680010927A0010926E001092E3
:200D20006F0010927000109271001092C8001092C9001092CA001092BC0012B815B818B819
:200D40001BB81EB811BA11B814B817B81AB81DB810BA8091E00081608093E00098E088E1A4
:200D60000FB6F894A895809360000FBE90936000FFCF982F973068F59093E900981739F085
:200D80007091EC002091ED005091F00003C0242F762F50E021FD02C09F5FECCF3091EB00C7
:200DA0003E7F3093EB003091ED003D7F3093ED003091EB0031603093EB007093EC00209321
:200DC000ED005093F0002091EE0027FDE5CF80E008958F708093E90081E008951F920F9294
:200DE0000FB60F9211240BB60F920F931F932F933F934F935F936F937F938F939F93AF9390
:200E0000BF93EF93FF93CF93DF93CDB7DEB7AA97DEBFCDBF1091E9001F709091EC00892F37
:200E2000817090FD80E8182B1092E9008091F000877F8093F0007894EDE8F5E08091F1003C
:200E4000819325E0E539F207C9F78091E80083FFF4C180918D0590918E05953009F480C019
:200E600030F49130A9F168F0933091F1E6C1983009F4A8C1993009F4B7C1963009F0DDC1E6
:200E800091C0803821F0823809F0D7C108C08091580590915905992389F082600FC0809141
:200EA00091058F70873008F0C8C18093E9008091EB0085FB882780F91092E9009091E80031
:200EC000977F9093E8008093F1001092F10085C1282F2D7F09F0B1C1882319F0823061F0EF
:200EE000ACC180918F05813009F0A7C1933009F080E0809359052EC080918F0581112AC032
:200F0000809191058F702FEF280F263008F095C18093E9002091EB0020FF1CC0933021F4C7
:200F20008091EB00806214C09091EB0090619093EB0021E030E0A90102C0440F551F8A9591
:200F4000E2F74093EA001092EA008091EB0088608093EB001092E9008091E800877F40C102
:200F600081116BC100918F050F778091E3008078802B8093E3008091E800877F8093E80081
:200F8000E7DB8091E80080FFFCCF8091E30080688093E300011102C082E001C083E080930D
:200FA0005B054BC18058823008F047C180918F05909190058C3D53E0950709F079C083E0B3
:200FC0008A838AE289834FB7F894DE01139620E03EE051E2E32FF0E050935700E49120FF71
:200FE00003C0E295EF703F5FEF708E2F90E0EA3010F0C79601C0C0968D939D932F5F24316D
:2010000049F74FBF8091E800877F8093E80080919305909194058A32910510F08AE290E0F7
:2010200040E0FE013196009779F120915B05222309F4C2C0253009F4BFC02091E80023FD6A
:20104000BBC02091E80022FD2EC02091E80020FFEACF2091F2003091F300009751F0283077
:20106000310538F441914093F10001972F5F3F4FF4CF41E02830310509F040E02091E800A0
:201080002E772093E800CFCF4111CFCF0CC080915B05882309F490C0853009F48DC080913D
:2010A000E80083FD89C08091E80082FFF0CF84C0292F33272230310541F02330310551F0CD
:2010C0002130310509F0B9C0EDC085E690E0EBEBF0E022C0992781309105A1F058F002978E
:2010E00009F0ABC0E8E4F1E0E4918E2F90E0E8E4F1E00FC0E0E2F1E0E4918E2F90E0E0E2EA
:20110000F1E007C0E4E2F1E0E4918E2F90E0E4E2F1E0009709F491C02091E800277F209390
:20112000E80020919305309194058217930708F49C0140E02115310571F180915B0588234E
:20114000D9F18530C9F18091E80083FD35C08091E80082FD2DC08091E80080FFEBCF809140
:20116000F2009091F3002115310559F08830910540F444914093F100319621503109019690
:20118000F2CF41E0089709F040E08091E8008E778093E800CFCF4111D0CF0AC080915B05F2
:2011A000882351F0853041F08091E80083FD04C08091E80082FFF2CF8091E8008B778093D7
:2011C000E8003BC08038C9F58091E800877F8093E80080915A058093F1008091E8008E774A
:2011E0008093E800B5DA29C0811127C080918F05909190059927029704F58091E800877F57
:201200008093E80080918F0580935A05A1DA80915A05882361F084E080935B0542E361E890
:2012200081E0A7DD42E360E882E0A3DD06C08091E30087FDF0CF81E0EFCF8091E80083FFE3
:201240000AC08091E800877F8093E8008091EB0080628093EB001092E9008091F00088607A
:201260008093F0001F701093E900AA960FB6F894DEBF0FBECDBFDF91CF91FF91EF91BF9199
:20128000AF919F918F917F916F915F914F913F912F911F910F910F900BBE0F900FBE0F908B
:2012A0001F90189582E190E0E9EAF0E035CF1F920F920FB60F9211240BB60F922F933F9375
:2012C0004F935F936F937F938F939F93AF93BF93EF93FF938091E10082FF09C08091E200FB
:2012E00082FF05C08091E1008B7F8093E1008091DA0080FF1BC08091D80080FF17C0809123
:20130000DA008E7F8093DA008091D90080FF0BC084E189BD86E189BD09B400FEFDCF81E085
:2013200080935B0503C019BC10925B058091E10080FF17C08091E20080FF13C08091E20020
:201340008E7F8093E2008091E20080618093E2008091D80080628093D80019BC85E08093BF
:201360005B058091E10084FF2EC08091E20084FF2AC084E189BD86E189BD09B400FEFDCF6B
:201380008091D8008F7D8093D8008091E1008F7E8093E1008091E2008F7E8093E200809174
:2013A000E20081608093E20080915A05882311F084E007C08091E30087FD02C081E001C0D2
:2013C00083E080935B058091E10083FF26C08091E20083FF22C08091E100877F8093E1009A
:2013E00082E080935B0510925A058091E1008E7F8093E1008091E2008E7F8093E20080911E
:20140000E20080618093E20042E060E080E0B1DC8091F00088608093F000FF91EF91BF9179
:20142000AF919F918F917F916F915F914F913F912F910F900BBE0F900FBE0F901F901895DD
:20144000EF920F931F93CF93DF93C82FEE24E39400E020E0482F60EC8EE397E00E946A25A7
:2014600021E030E041E065E08AEC99E00E942318D62F20E030E041E065E08AEC99E00E941D
:20148000231821E04D2F83E997E00E94CE1323E030E040E065E08AEC99E00E94231821E0E9
:2014A000672B682B692B09F420E0622F83E997E04DD725E030E040E065E08AEC99E00E94D3
:2014C00023189B01AC01A8EEB3E00E942F45AB01BC0183E997E015D724E030E040E065E098
:2014E0008AEC99E00E94231821E0672B682B692B09F420E020930F092C2F30E0E12C00E046
:2015000010E048E160E083E997E00E94D614DF91CF911F910F91EF90089591E0693E7340FC
:2015200008F490E0692F805F0C9482198F929F92AF92BF92DF92EF92FF920F931F93CF9370
:20154000DF9300D01F92CDB7DEB7F0901706FF2009F47CC0D62EE82E0E94092E24E0E29E13
:20156000800111240F5B194FF80180809180A280B380DC01CB0188199909AA09BB09853F5D
:201580009140A105B10508F461C089E48983EA82DB82E0913406F0913506CF01C696909309
:2015A00026068093250680EF86AB17AA83E580AF83E090E090932E0680932D0683E481AFC2
:2015C00080912D0690912E06019690932E0680932D062091250630912606F901E80FF91F6C
:2015E00021E0208380912D0690912E06019690932E0680932D062091250630912606F901B7
:20160000E80FF91F108280912D0690912E06019690932E0680932D0669E485E196E00E9491
:201620006A246A8185E196E00E946A246B8185E196E00E946A2485E196E00E94901C0E9461
:20164000092EF80160837183828393838F2D0F900F900F90DF91CF911F910F91FF90EF90A1
:20166000DF90BF90AF909F908F9008952F923F924F925F926F927F928F929F92AF92BF9228
:20168000CF92DF92EF92FF920F931F93CF93DF93CDB7DEB727970FB6F894DEBF0FBECDBF20
:2016A000882329F0813031F410917D090DC010914B0907C0882321F0813049F410E004C082
:2016C00010E0D0904C090CC0D0907E090CC0882329F0813059F410E0D12C05C010E0D12C85
:2016E000C0904D090FC0C0907F0914C0882339F0813009F029C410E0D12CC12C0BC010E0C9
:20170000D12CC12CF0904A09FF2069F08091B009F81A0BC0F0907C09FF2009F462C3809196
:20172000B009F81A60C3FF24FA94103C31F52FE02F1538F0D7FC05C0EF2DF0E0EC51FA4F13
:20174000D082E12C0F2D2C2D4D2D60EC8EE397E00E946A25EE24E394EF0C0C2D10E02D2DAF
:2017600030E043E060E083E997E00E94D6146D2D8AEC99E00E944731E7C3113C08F438C3F6
:20178000183F21F481E00E940F1CDEC31A3F09F4D0C3103F09F0D8C320914C0930914D0925
:2017A0002E32310510F02DE230E0EEE4F9E010922F064091190650911A064115510509F458
:2017C000C3C3B0911B06BB2309F4BEC38FE080931C0683E080931D0682E080931E0610924D
:2017E0001F061092200610922106109223061092220610922406F0932606E09325063093C2
:201800002C0620932B0666E070E070932E0660932D062830310508F497C39181911194C3D0
:201820009281933509F090C39381933409F08CC394819111FDC02830310509F4C1C02B3083
:20184000310508F496C080911706811102C083E040C1858180932106968190931D06678195
:2018600060931E06708570931F06D184D0922006933010F084E02DC17B1710F086E029C160
:201880008A01A3E07A9F000D111D1124D8017C91D71610F087E01DC1623010F085E019C1C8
:2018A000911116C072E8780F723008F45BC0D80111960D911C911297D80175E0D79EA00D52
:2018C000B11D112414967C91871708F07AC14AC0923029F472E8780F723008F443C0A5E08D
:2018E000DA9E70011124D80111960D911C911297D701A00FB11F613031F414961C91149747
:20190000811768F05EC114966C91861708F059C1992311F0923019F58CE090E027C0992356
:2019200019F1923009F16D917C9161327105A0F090E07C01BFEFEB1AFB0AA12FB0E0EA1638
:20194000FB0641F4A5E0880F991FAA95E1F7681B790B02C060E270E0CB010B9607C08DE06A
:2019600090E004C06623A1F28BE090E08217930711F08BE0AEC081E0848380911E06811100
:2019800018C0E0912506F091260680912106228530E2839FC0011124820F911D9093230692
:2019A0008093220680911D06813019F483858093240680912B0690912C06089709F08BC03D
:2019C000E0912506F091260686818230B1F128F48823A9F0813021F105C0843009F1A8F134
:2019E000853041F1E0902906F0902A06A0902706B0902806950140E050E090E03DC0809182
:201A00001706882309F45AC01092170681E0848380911806882309F4CBC010921806C8C016
:201A200091E090931706843011F49093180681E08483BEC010921806FACF809117068823B3
:201A4000E9F181E0848361E0AFC0809117068823A9F181E0848360E2A7C0B9016A197B094F
:201A600089012D5F3F4FD801CD90DC901197C816D90631F04F5F5F4FE416F50671F720C001
:201A800080911706811104C012968C91811116C081E08483E0912706F0912806E60FF71FD5
:201AA0006081718185E196E00E943C2D811180C0E0912506F09126068EE0BACF83E0B8CF70
:201AC00084E0B6CF811106C1E0912506F09126068EE0848370C140902D0690911D06892FD6
:201AE0008D7F09F074C02091210682E8820F823008F069C030911F0680912006FA01B3E05C
:201B00003B9FE00DF11D11240180F281E02D35E0839FE00DF11D1124848141E04A832E37FB
:201B200009F01A8251E05E83923081F4E0912506F09126061482E0912506F091260691E02E
:201B4000968310921D0640902B064A94A12CB12C88248394912CE12CF12C282E312C512C44
:201B6000A214B304C4F1EA80EE2031F110922E0610922D0660EF85E196E00E946A2460E063
:201B800085E196E00E946A2463E585E196E00E946A2463E485E196E00E946A2461E085E1EB
:201BA00096E00E946A246EE785E196E00E946A2485E196E00E94901C109226061092250659
:201BC000C3C188E086CF1E821A8281E0ADCF1E821A8281E0BBCF50922E0640922D066E817A
:201BE000662339F0A0922106E0912506F0912606A58280911E06813021F5E090210670E285
:201C0000E79E7001112490911F0680912006E0911906F0911A06A3E09A9FE00DF11D1124FF
:201C20000180F281E02DB5E08B9FE00DF11D112480819181F701B0964F018E179F0708F4CC
:201C40004C016701C814D90408F0ADC090911D0680911E06911144C0811124C02091220643
:201C60003091230660911F0640912006E0911906F0911A0653E0659FE00DF11D1124018054
:201C8000F281E02D75E0479FE00DF11D1124808191812817390708F044C019828E010F5F33
:201CA0001F4F09C019828E010F5F1F4F96014091200660911F0685E196E00E94252E909151
:201CC0002F06992309F4FECEE0912506F0912606948371C0698185E196E00E946A245FC0A4
:201CE000811135C0609022067090230680911F068F8310912006E0911906F0911A0693E069
:201D0000899FE00DF11D11240180F281E02DA5E01A9FE00DF11D11248081918168167906EC
:201D200030F0E0912506F091260689E0D2CE0E94AB1C811106C0E0912506F09126068AE0BD
:201D4000C8CE009124069301412F6F8118C060902506709026068C2D8E19F301E80FF11DC6
:201D60000285009324060E94AB1C811103C08AE0F301AFCE96014091200660911F0685E17C
:201D800096E00E94F01C81110AC080912F06E0912506F091260681119CCE8CE09ACEFFEF76
:201DA000CF1ADF0A4FCF85E196E00E94901C2FEFA21AB20AD5CE8FE080931C0683E08093B6
:201DC0001D0682E080931E0610921F0610922006109221061092230610922206109224068E
:201DE000E7CEFF24FA94103C09F4A1CC08F093C0103909F089C0E12C0F2D2C2D4D2D612F45
:201E00008EE397E00E946A25103969F0103BC1F0103819F5EE24E394EF0C0C2D10E02D2DAE
:201E200030E040E008C0EE24E394EF0C0C2D10E02D2D30E041E060E083E997E0B7D584C07F
:201E40000C2D10E02D2D30E0EE24E394EF0C42E060E083E997E0AAD503C0103B09F074C06C
:201E600009E516E0A12CB12C4F2C512C612C712C4D2D50E060E070E04A835B836C837D83DE
:201E8000D12C950147E062E08AEC99E00E942318672B682B692B69F1950142E062E08AECF7
:201EA00099E00E942318633071058105910509F5950144E062E08AEC99E00E942318641568
:201EC000750586059705A9F4950143E062E08AEC99E00E9423182A813B814C815D81621772
:201EE00073078407950729F4D8011996DC92CE921897BFEFAB1ABB0A0E5F1F4FE8E0AE1680
:201F0000B10409F0BECF20C0103B09F474CF1038D9F4C12C70CF183F09F434CC1A3F49F0F4
:201F2000103F91F42091BB093091BC09E0E8F9E03ECCE9E7F7E024E837E081E0119286874C
:201F40002E173F07D9F71ECC27960FB6F894DEBF0FBECDBFDF91CF911F910F91FF90EF900A
:201F6000DF90CF90BF90AF909F908F907F906F905F904F903F902F900895CF92DF92EF925D
:201F8000FF920F931F93CF93DF93EC018F89988DA98DBA8D892B8A2B8B2B21F01D821E8272
:201FA0001F82188647E06DE073E0CE010E946E22EDE0F3E080E090E000E010E0608170E0A9
:201FC00020E030E02617370784F4A181B281A80FB91F1296FC9012974D915C914F0D511DA8
:201FE000040F151F2F5F3F4FEDCF359609968F33910521F746E062E173E0CE010E946E222B
:20200000CCA0DDA0E12CF12C88A199A1AAA1BBA19C01AD012C193D094E095F09AEA1B0E02F
:202020000E942F45C60ED71EE81EF91E8F89988DA98DBA8DC816D906EA06FB0620F4CD82D9
:20204000DE82EF82F886C80121E0822727E19227DF91CF911F910F91FF90EF90DF90CF9001
:202060000895CF92DF92EF92FF921F93CF93DF93EC018F89988DA98DBA8D892B8A2B8B2B93
:2020800021F01D821E821F82188647E06DE073E0CE010E946E2221E030E041E060E0CE01A8
:2020A000D2D711E0672B682B692B09F410E046E062E173E0CE010E946E22CCA0DDA0E12C2D
:2020C000F12C88A199A1AAA1BBA19C01AD012C193D094E095F09AEA1B0E00E942F45C60E7B
:2020E000D71EE81EF91E8F89988DA98DBA8DC816D906EA06FB0620F4CD82DE82EF82F886B4
:20210000812FDF91CF911F91FF90EF90DF90CF90089580E00895673191F060F4643109F01E
:202120004EC01092B90088E48093B80084E08093BC0035C06831C1F0693199F140C0F9016F
:2021400050E084E8BF01621B730B641775073CF591919093BB008093BC009091BC0097FFBE
:20216000FCCF9091B900EECFFC01968984EA8093BC008091BC0087FFFCCF8091B900887FB5
:20218000883011F0803159F49093BB0084EA8093BC008091BC0087FFFCCF8091B90081E024
:2021A00008958091BC0082FFFACF8091BC0080618093BC008091BC0084FDFCCFF0CF80E0B6
:2021C000089580E00895DC011696ED91FC91179720E030E040E068E109949A01DC011696E9
:2021E000ED91FC911797462F67E10994462FDC011696ED91FC91179720E030E066E1099421
:20220000462FDC011696ED91FC91179720E030E065E10994DC011896ED91FC91199720E0CE
:2022200030E040E069E10994DC011896ED91FC91199720E030E040E068E10994CF93DF9357
:202240001F92CDB7DEB76983BE016F5F7F4F0E94A02B0F90DF91CF910895CF93DF93EC0133
:20226000EA85FB8520E030E040E068E20995EE81FF8120E030E040E064E1CE01099541E065
:202280006BE4CE010E94A92BE881F981448169E2CE010E94A92B40E06BE4CE010E94A92BBE
:2022A000E881F981448169E2CE010E94A92B41E06BE4CE010E94A92BE881F981458169E23D
:2022C000CE01DF91CF910C94A92BCF93DF93CDB7DEB728970FB6F894DEBF0FBECDBFCE0129
:2022E000019628E0FC0111922A95E9F70E946E2B28960FB6F894DEBF0FBECDBFDF91CF91F0
:2023000008950F931F93CF93DF938A019B010150110921093109053011052105310588F4DF
:20232000EC014A875B876C877D870E94092E688379838A839B830E94092E6C837D838E8342
:202340009F83DF91CF911F910F910895FC01E058FE4F6083611109C0FC0110821182128248
:202360001382148215821682178208952F923F924F925F926F927F928F929F92AF92BF9273
:20238000CF92DF92EF92FF920F931F93CF93DF9300D000D000D0CDB7DEB7FC01E158FE4F25
:2023A0003081332309F472C17C010DE7E01A0EEFF00AD7010D900020E9F711971D012E1803
:2023C0003F08A22FB0E0FD01E20DF11DB6971CF036E2232E221A9C838B83FC01E358FE4FAA
:2023E0008081882339F1922E5701312CCB80DC8012E8C11A1EEFD10A062F10E0C5018E199C
:202400009F09821593050CF041C1F50141915F01F6018081EB81FC8124E0829FE00DF11DBE
:202420001124E00FF11FE555FE4F6081892D35D69394E4CF442361F0413009F027C1F8E281
:202440006F9FA001112480E090E070E020E2ADC0FE82ED8238E2639F80011124C8018A0FE6
:202460009B1F9A83898380E090E0312C462F50E04B805C8034E0639F400C511C1124B20149
:20248000695A7E4F812C912C540183948215930564F5ED81FE813191FE83ED83E980FA80CB
:2024A000E80EF91E4B805C80E40CF51CF701378B7D01E80EF91E2401350104C0440C551C42
:2024C000661C771CEA94D2F773016201FB014080518062807380C428D528E628F728C0820F
:2024E000D182E282F3820196D1CFA0E030E080E290E0FC01E00FF11F4B805C80E40DF51D71
:2025000067896F7D11F03F5FA1E001968732910581F7BA01660F771F660F771FAA2331F1A1
:202520006B807C80660D771DFB01E959FE4F80818111ACC03083FA01E65AFF4FEE0FFF1FCC
:20254000EE0FFF1FE60DF71D2083FB01E759FE4F1082319610820E94092E830109581E4F17
:20256000F801608371838283938390C02B813C81260F371FF901E959FE4F8081882309F4FA
:2025800085C01082465A5F4F440F551F440F551F4B805C80440E551EF2011082F901E7595D
:2025A000FE4F10823196108271C0FC01E40FF51FE954FF4F4B805C80E40DF51D208301963F
:2025C0008E31910591F788E2869FF001879FF00D1124E40DF51DEA52FF4F108267014A0F66
:2025E0005B1F20E030E0312C221533058CF4F60111916F01C901840F951F89549F4F4B8055
:202600005C80840D951DFC0110832F5F3F4FECCF28E2269FC001279F900D11244B805C8065
:20262000840D951DA80FB91FA20DB31DA954BF4F1C9281E0F201868B0E94092EEB81FC8169
:2026400066877787808B918BE95AFE4F8FEF9FEFDC0180839183A283B383EB81FC81E55A55
:20266000FE4F80839183A283B383EB81FC81E15AFE4F80839183A283B3830B811C810D5929
:202680001E4FF80180839183A283B38326960FB6F894DEBF0FBECDBFDF91CF911F910F913F
:2026A000FF90EF90DF90CF90BF90AF909F908F907F906F905F904F903F902F900895CF93F9
:2026C000DF93DC011296FD0101900020E9F73197EA1BFB0B9F01260F371FDC014D915C91CE
:2026E0004150510924173507A8F4E80FF91FDF0140E2ED01CE1BDF0BC617D70728F412968B
:202700004C9312971196F5CFFC01E20FF31F128281E001C080E0DF91CF910895CF93DF936F
:20272000CDB7DEB79E01275F3F4F4F81588568E270E08D819E8102960E944245DF91CF91C8
:2027400008950F931F93CF93DF938C01BEDDE801CF57DE4F82E395E09F938F93DF93CF934E
:20276000DDDF20E040E060E0C80100DE87E395E09F938F93DF93CF93D1DF8DB79EB70896A8
:202780000FB6F8949EBF0FBE8DBF20E040E062E0C801DF91CF911F910F91E8CDAF92BF92E0
:2027A000DF92EF92FF920F931F93CF93DF93EC01062F142FD22E7C0181E8E81A8EEFF80AA2
:2027C000D7018C91811181DD1092F5051092F40589E890E19093F9058093F8059093FB05A7
:2027E0008093FA059093FD058093FC059093FF058093FE051092090610920C0610920D0637
:20280000109200061092010610920206109203068FEF80930A0680930F061130F9F40130EA
:2028200009F0B7C08CE79CE29093F9058093F8058FED98E29093FB058093FA058BE890E1F7
:202840009093FD058093FC0581EE90E19093FF058093FE0584E08093E30520C0123009F0A8
:2028600098C0013009F095C08EEF9BE29093F9058093F8058FED98E29093FB058093FA052B
:202880008BE890E19093FD058093FC0581EE90E19093FF058093FE051093E30580E18093FF
:2028A000E205E091F805F091F90520E030E040E069E084EF95E00995E091F805F091F90558
:2028C00020E030E040E06AE084EF95E00995FDDCE091F805F091F90520E030E040E06BE0B7
:2028E00084EF95E00995E091F805F091F90520E030E040E06BE084EF95E00995E091F805F6
:20290000F091F90520E030E040E06DE084EF95E00995FE01E258FE4F108387E792E0909319
:20292000050680930406D1DCFE01E959FE4F5E0187E1A80EB11CBE0169587E4F40E29501E5
:2029400080E090E0D9014D939D018D0101561F4FD8014C93019686329105A1F7D5019796C4
:202960001C92C50189539F4FDC011C9210821182128213823496B8E2AB0EB11CE617F7075B
:20298000F1F681E0F7018083DD2029F0CE01D9DE02C080E001C081E0DF91CF911F910F91F4
:2029A000FF90EF90DF90BF90AF9008953F924F925F926F927F928F929F92AF92BF92CF9275
:2029C000DF92EF92FF920F931F93CF93DF93FC01E158FE4F5081552309F476C1662329F0AA
:2029E000E2E0FE2EF5E03F2E03C0F12C74E0372E412E632E722E142F562E6C01E42FF0E057
:202A0000EE0FFF1FEB5BFD4F6591749180EB95E00E946744E601CF57DE4F50EB852E55E084
:202A2000952E9F928F928FE295E09F938F93DF93CF9374DE5E0182E0A80EB11CF501019056
:202A40000020E9F73197EA19FB096091E20570E0631971096E1B7F0BCE0131DE232D40E028
:202A60006F2DC60183DC0F900F900F900F900F900F90123170F41C3008F0DDC0123009F413
:202A8000ABC0A0F0133009F47FC0173009F4D3C008C1173109F4A0C008F4C8C0183109F0B1
:202AA00000C16F927F9288E295E0DCC0F601E458FE4F8081811110C06F927F9288E295E0F4
:202AC0009F938F93DF93CF9329DE0F900F900F900F900F900F9030C0872D8F776CE00E9475
:202AE000D744E92FD601A558BE4F9C91182F190F612E012E000C77080E2E000CFF0BEE0F8E
:202B0000FF1FE35DFD4F6591749180EB95E00E9467447F921F939F928F928DE395E09F93B7
:202B20008F93DF93CF93FADD8DB79EB708960FB6F8949EBF0FBE8DBF1F92EF924F920F9315
:202B400082E495E09F938F93DF93CF930BD3F50101900020E9F73197EA19FB096091E20566
:202B600070E06E1B7F0BCE01AADD61E06F0D20E040E0C601FBDB8DB79EB708960FB6F8949A
:202B80009EBF0FBE8DBF8DC01F92EF926F927F928FE495E09F938F93DF93CF93BFDDF5018C
:202BA00001900020E9F73197EA19FB096091E20570E06E1B7F0BCE0182DD61E06F0D20E08F
:202BC00040E0C601D3DB8DB79EB708960FB6F8949EBF0FBE8DBF65C01F92EF924F920F9388
:202BE0006F927F928CE495E09F938F93DF93CF9395DDF50101900020E9F73197EA19FB09EE
:202C00006091E20570E06E1B7F0BCE0158DD61E06F0D20E040E0C601A9DB8DB79EB70A9614
:202C20000FB6F8949EBF0FBE8DBF3BC06F927F9282E595E017C086E395E09F938F93DF9369
:202C4000CF936CDD6091E20570E0CE0138DD61E06F0D20E040E0C60189DB0F900F900F90D8
:202C60000F901FC09F938F93DF93CF9357DDF50101900020E9F73197EA19FB096091E2054C
:202C800070E06E1B7F0BCE011ADD61E06F0D20E040E0C6016BDB0F900F900F900F900F9006
:202CA0000F90C52DD0E00E94092EFE01EE0FFF1FEE0FFF1FEC0DFD1D6083718382839383C0
:202CC000CC0DDD1D81E08887DF91CF911F910F91FF90EF90DF90CF90BF90AF909F908F90D9
:202CE0007F906F905F904F903F9008954F925F926F927F928F929F92AF92BF92CF92DF92F2
:202D0000EF92FF920F931F93CF93DF93CDB7DEB728970FB6F894DEBF0FBECDBFDC01519696
:202D2000ED91FC915297309709F452C0DC015C91651708F04DC0B5E06B9FE00DF11D1124AF
:202D40005081451708F044C0A181B28159E0459FA00DB11D11244D915C911197241735073E
:202D6000B8F56701780189015C014380548017968D919C911897480E591EF5012581368180
:202D8000420E531E12968C91823021F108F0EEC08111CAC08FEF9FEFD5015D969C938E9302
:202DA0005C97480153E0969487945A95E1F7480C511C612C712C5396ED91FC9154979E012F
:202DC0002F5F3F4F40E0C301B201099581116CC080E022C18FEF9FEFF501958F848F9801CF
:202DE00036952795420E531E612C712C0388F489E02D9E012F5F3F4F42E0C301B20109955A
:202E0000882331F3FFE0CF22DD24EE24FF2489819A81AB81BC8100FF0CC08F709927AA27F4
:202E2000BB2724E0CC0CDD1CEE1CFF1C2A95D1F704C0807F9927AA27BB27C82AD92AEA2AF0
:202E4000FB2AC982DA82EB82FC8229813A814B815C81D5015596ED91FC91569702E0C3014E
:202E6000B2010995882309F4B3CFD5015396ED91FC9154979E012B5F3F4F42E0C301B201D2
:202E80000995882309F4A4CF81E009811A812B813C814D815E816F8178850417150726078C
:202EA000370709F095CFB8C0B8E08B9E0019112410E049815A816B817C81F501E00FF11F7D
:202EC000C0FE07C081858A019B01082BD901C8010DC0218530E0C90180959095092E000CA0
:202EE000AA0BBB0B84239523A623B72389839A83AB83BC8329813A814B815C81D5015596F0
:202F0000ED91FC91569700E0C301B2010995882309F45ECFD5015396ED91FC9154979E019B
:202F20002B5F3F4F40E0AACF813009F051CFDD24EE24FF24400E511E612C712CD501559638
:202F4000ED91FC91569701E0A7019601C301B2010995882309F43CCFD5015396ED91FC91C7
:202F600054979E012B5F3F4F41E021C0833089F5EE24FF24000F111F400E511E612C712C21
:202F8000D5015596ED91FC91569703E0A7019601C301B2010995882309F41ACFD5015396F1
:202FA000ED91FC9154979E012B5F3F4F43E0C301B2010995882309F40BCF81E04D815E819C
:202FC0006F8178854C155D056E057F0509F000CF23C0843009F0FCCE000F111F000F111FAA
:202FE000400E511E612C712CD5015596ED91FC91569704E0A7019601C301B201099588234E
:2030000009F4E6CED5015396ED91FC9154979E012B5F3F4F44E0CBCF28960FB6F894DEBF29
:203020000FBECDBFDF91CF911F910F91FF90EF90DF90CF90BF90AF909F908F907F906F9051
:203040005F904F900895CF92DF92EF92FF920F931F93CF93DF9300D000D0CDB7DEB7CC2450
:20306000CA94DC2C7601C982DA82EB82FC828E010F5F1F4F0E94162169817A818B819C818F
:203080000F900F900F900F90DF91CF911F910F91FF90EF90DF90CF9008956F927F928F92E8
:2030A0009F92AF92BF92CF92DF92EF92FF920F931F93CF93DF93CDB7DEB72D970FB6F89413
:2030C000DEBF0FBECDBFC82EF62EB42E8091040690910506FC013296049131961491702E53
:2030E0007C0C160F81E08C0D781608F401E0D12CCE0101964C0166246394AD2CEC2C4A2D25
:20310000B4018B2D0E946828EC86FD866B869A868986E091F805F091F9059E01275F3F4F5B
:2031200041E06FE084EF95E00995A394E394E71430F3F394D00EF11600F32D960FB6F8945A
:20314000DEBF0FBECDBFDF91CF911F910F91FF90EF90DF90CF90BF90AF909F908F907F9092
:203160006F9008950F931F93CF93DF93CDB7DEB70F811885D8011296FD0101900020E9F735
:20318000CF018A1B9B0B01969E01255F3F4F42E455E068E270E0800F911F0E944245DF91FF
:2031A000CF911F910F9108956F927F928F929F92AF92BF92CF92DF92EF92FF920F931F9394
:2031C000CF93DF9300D000D0CDB7DEB77C016B018A013C0186E7680E711CD3018D919C9122
:2031E000892BB9F05A014A01860E971EA814B90441F0D301ED91FC91D5018D915D0109950A
:20320000F5CFF701EC59FF4F8081882311F034961082BAE7EB0EF11CF70180819181892BF0
:2032200009F44AC084E0B82EF4E0CF16D104B8F0D8012C9111969C91119712968C91B982F5
:203240002A839B838C83D701ED91FC91CE01019609950D5F1F4FB3E0CB1AD108E5CFE3E00B
:20326000CE16D10469F4D8012C9111969C91119712968C9137E039832A839B838C8316C0DE
:20328000B2E0CB16D10441F4F8019081818126E029839A838B8309C0CA94CD2869F4F80156
:2032A000808195E099838A831B821C82D701ED91FC91CE01019609950F900F900F900F90D1
:2032C000DF91CF911F910F91FF90EF90DF90CF90BF90AF909F908F907F906F9008950F93C9
:2032E000042FFC01ED58FF4F2081213021F420E0462F60E803C020E0462F60E90E94E12320
:203300000F910895AF92BF92CF92DF92EF92FF920F931F93CF93DF93A82EE62E982F9695F6
:2033200096959695092F10E00152194FF80182A1DA2DF8E09F9FD0191124282F30E00D2E5B
:2033400002C0359527950A94E2F72170621709F45BC241E050E060E070E00D2E04C0440F57
:20336000551F661F771F0A94D2F7EE2021F0482BF80142A304C040958423F80182A3CA2C93
:20338000D12C960141E061E08091DF069091E0065ADEC62F603109F425C2960140E061E0A0
:2033A0008091DF069091E0064EDEC63038F4C430E0F58FEF8C0F823048F437C0C03118F4FE
:2033C000C73030F032C0C13109F4FCC1613069F5EE2009F407C2F80126A1822F90E00D2E59
:2033E00002C0959587950A94E2F780FF10C081E090E0A0E0B0E004C0880F991FAA1FBB1F68
:20340000DA95D2F78095822386A3E12C0EC081E090E0A0E0B0E004C0880F991FAA1FBB1F1F
:20342000DA95D2F7822BF80186A3960142E061E08091DF069091E00606DEF62E960144E0CB
:2034400061E08091DF069091E006FDDDD62F960143E061E08091DF069091E006F4DDB62EA2
:20346000C33149F4960141E061E08091DF069091E006E9DDC62FF0920B07EE2009F437C1D3
:20348000C73009F4D2C020F5C43048F4C23008F0A0C0CC23E1F1C13009F47FC0A3C18091B4
:2034A000E1069091E206C53009F4AFC008F00FC121E020930D0749E057E066E070E074DEE3
:2034C00020910B0730E0E12C00E010E043E173C1CB3009F4D2C098F48091E1069091E206CD
:2034E000C93009F4B6C008F0BEC068EF0E94A523E12C00E010E020E030E04CE05CC1CD30F6
:2035000009F4D7C008F4C7C0C03100F16BC10D2F2B2D4F2D60E98091E1069091E2060E948A
:20352000E123EE24E394ED0E0B2D10E02F2D30E041E061E08091E5069091E60637DAEE24E1
:20354000E3940D2F2B2D4F2D60E91BC1C13029F1CE3061F4D03108F045C1ED2FF0E0EC5139
:20356000FA4F80818F3780F48F5F0BC0D03108F039C1ED2FF0E0EC51FA4F8081882321F0EC
:203580008150808381E001C080E0ED2FF0E0EC51FA4FF080882309F425C10D2F20E04F2DAD
:2035A00060EC8091E1069091E2060E94E123EE24E39420E04F2D60EC8091E3069091E406C2
:2035C0000E946A25ED0E2F2D30E000E010E043E0F2C02D2F4B2D6F2D8091E1069091E2063D
:2035E0000E946224EE24E394ED0E0B2D10E02F2D30E042E061E08091E5069091E606D6D970
:20360000EE24E3940D2F2B2DBAC022E020930D0749E057E066E070E0C7DD20910B0730E0DD
:20362000E12C00E010E042E1C6C089E080930D0749E057E066E070E08091E1069091E2067D
:20364000B3DD20910B0730E0E12C00E010E044E1B2C06AEF0E94A523E12C00E010E020E0F3
:2036600030E04DE0A8C06BEF0E94A523E12C00E010E020E030E04EE09EC06CEF8091E10615
:203680009091E2060E94A523E12C00E010E020E030E04FE090C06EEF8091E1069091E206ED
:2036A0000E94A523E12C00E010E020E030E040E182C06FEF8091E1069091E2060E94A52387
:2036C000E12C00E010E020E030E041E174C026E020930D0749E057E066E070E065DD2091F1
:2036E0000B0730E0E12C00E010E045E164C0C33059F1C63009F44CC0C11174C04D2F6F2D27
:203700008091E1069091E206EADDEE24E394ED0E2F2D30E0E091E106F091E206ED58FF4F9D
:2037200041E08081813009F440E000E010E061E08091E5069091E60639D9EE24E3940D2FA8
:2037400020E04F2D60E81DC02D2F40E06F2D8091E1069091E2060E946224EE24E394ED0E03
:203760002F2D30E000E010E042E061E08091E5069091E6061BD9EE24E3940D2F20E04F2D6C
:2037800060EB8091E3069091E4060E946A252AC087E080930D0749E057E066E070E0809129
:2037A000E1069091E20600DD20910B0730E0E12C00E010E046E161E08091E5069091E6061B
:2037C000F5D810C0EE2071F0960142E061E08091DF069091E00637DC8091DF069091E006D6
:2037E0000E9447314A2D61E08091E7069091E806DF91CF911F910F91FF90EF90DF90CF90EE
:20380000BF90AF900C94E126DF91CF911F910F91FF90EF90DF90CF90BF90AF900895CF92EB
:20382000DF92EF92FF920F931F93CF93DF932091610730916207232B09F469C0909160079E
:20384000992321F0913009F460C061C00E94092E00918407109185072091860730918707ED
:20386000DC01CB01801B910BA20BB30B84369105A105B10508F44BC00E94092E60938407F3
:20388000709385078093860790938707C9E7D7E0E12CF12CCC24C39488818F5F8883E091FD
:2038A0006107F0916207EE0DFF1D9081891748F48FEFE81AF80A2196EBE0EE16F10461F75D
:2038C00026C08F858C258F8718820EE317E0D12CF801828181FF12C0228930E02E153F0518
:2038E00069F49F85992311F0846002C08B7FF80182836D2D8EE397E00E9483240F5F1F4F35
:20390000D394F0E1DF12E4CFD3CF8111BFCFDF91CF911F910F91FF90EF90DF90CF90089570
:20392000FC01A089B189808D918DA80FB91F87EF8C93408D518D4F5F5F4F518F408F83811E
:20394000882319F08085811105C060897189CF010C941130089590911F0680912006E09138
:203960001906F0911A0623E0929FE00DF11D11240180F281E02D95E0899FE00DF11D112455
:2039800082812381821741F090912406981730F081E0291720F402C081E0089580E008952A
:2039A000982F8F7C803849F0903D39F081E0903E31F0903C21F080E0089581E00895089589
:2039C00087FF0CC09CE0980F923040F0982F9B7F993F21F0803F18F4807F089580E0089552
:2039E0004F925F926F927F928F929F92AF92BF92CF92DF92EF92FF920F931F93CF93DF93F3
:203A000000D000D0CDB7DEB76C01842E5901902E623009F436C330F4662369F0613009F49A
:203A2000ECC289C3643009F425C108F4B6C0653009F43FC280C3411162C02130310541F0A1
:203A4000A0F02230310519F123303105D9F0CBC3DC015F96ED91FC919097EC59FF4F81E06C
:203A6000011101C080E08083C0C3F601878D90A1FC01ED58FF4F002319F021E02083B5C379
:203A80001082B3C301111FC00E940D28AEC323E030E040E060E0F601858D968DD4DA672B06
:203AA000682B692B11F4011165C3D6015F96ED91FC919097EB59FF4F81E0911001C080E0ED
:203AC000808391105BC362E17AE780E090E00E942A28D6015F96ED91FC919097EC58FF4F2C
:203AE0008AE090E3918380835F96ED91FC919097EA58FF4F88E090E39183808376C3F1E01F
:203B00004F1325C02115310529F02330310508F06AC320C323E030E040E060E0DC015D9605
:203B20008D919C915E978FDA672B682B692B09F421C322E030E040E060E0F601858D968DA4
:203B400082DA672B682B692B09F025C313C3B2E04B1349C32115310571F4FC01058D168D9A
:203B6000C8010E941331981608F0D0C0692DC8010E944731EFC22130310509F034C3E1E0FE
:203B8000E01708F430C3602F6170DC015D968D919C915E970E94BB30DDC2B2E04B1709F4B2
:203BA0003FC0FC01858D968D242F30E04B1708F452C0F8E0F41708F44EC0F901E053FC4F9C
:203BC00070809501472D63E03EDA7C836B83CE0101960E94152E45E0841631F087E0881673
:203BE00019F0A3E08A1202C09A8201C0098389819A8180FF02C0906801C09F779A8390E0B0
:203C0000959587958983E12CF12CF82E8A81E82AFC82EB8200E010E09501472D63E091C28A
:203C2000DC0195968D919C919697DC01A20FB31F94961C929497F9013696EE0FFF1FE80FC9
:203C4000F91F118210825C961C92E02EF12C00E010E042E0E3CFF9E08F1201C09A94E92C3A
:203C6000F12C00E010E0F901E053FC4F9501408163E06AC243E0841609F4D2C0481560F020
:203C800081E08816A1F08815F8F0402F622FF60187A190A545D65EC2A5E08A1609F4C0C0DE
:203CA0008A16C8F1B7E08B12F9C09A94B9C0011102C040E001C045E06A2DD60197968D9184
:203CC0009C9198978FD646C2B1E02B17F9F02B1720F0E2E02E17A9F086C2F1E0F01708F451
:203CE00082C2D6019796ED91FC919897B1E0CF010B1711F0C09601C0859694A383A392A2FB
:203D000059C2E1E0E01708F46EC254C28DE0D6015A968C9368C22BEAA29E212D1124722E99
:203D20007694B4E0B71510F444E0742E872C880C870C40E0682DF60187A190A5F1D561E065
:203D4000680D40E0D60197968D919C919897E8D562E0680D40E0F60187A190A5E1D5E92C9D
:203D6000F12C00E010E0272D30E042E064E0D6015D968D919C915E970E947616182F992054
:203D800009F4E5C1882309F42EC2912C950141E064E0F601858D968D56D9682C690C712C2F
:203DA0007B018C01930141E064E0D6015D968D919C915E970E947616882309F414C29501B5
:203DC00043E064E0F601858D968D3DD97B018C01930143E064E0D6015D968D919C915E972C
:203DE0000E947616882309F4FEC1950145E064E0F601858D968D27D97B018C01930145E041
:203E000064E0D6015D968D919C915E970E947616882309F4E8C19394B3E09B12B7CF9AC18D
:203E20001BEAA19E112D11241695153008F014E0212F30E042E064E0F601858D968D03D921
:203E4000E82DF0E0492C512C612C712C672B682B692BE9F0B12EBB0CB10EA12CE853FC4F17
:203E600090802A2D2B0D30E083017201492D64E0D6015D968D919C915E970E9476168823FF
:203E800009F4B1C1A394B3E0AB12EBCF63C1E853FC4F830172019501408192C1E02EF12CFC
:203EA00000E010E0E82DF0E0E853FC4F408164E094C1442329F0B1E04B1709F46FC093C17A
:203EC0002330310520F42130310558F02FC02430310509F43EC078F12530310509F448C009
:203EE00082C1B1E0B01708F47EC10023B1F021E030E041E065E0FC01858D968DA4D8162FBE
:203F000020E030E041E065E0D6015D968D919C915E9799D821E0412F6AC021E043E062E0AF
:203F2000DC0199968D919C919A9764C0B1E0B01708F459C147C1E1E0E01708F454C1602F07
:203F40006170D60199968D919C919A970E94A61139C1B1E0B01708F446C1DC019996ED91D6
:203F6000FC919A97E458FE4F802F817080832AC18FEF800F853008F036C188EE93E0089F2B
:203F8000A001099F500D1124052E000C660B770BF60181A592A50E94811114C1211531054B
:203FA00021F02130310599F01EC142E0401708F41AC121E030E041E065E0DC015D968D914C
:203FC0009C915E9740D8462F21E0602F10C0F3E0F01708F408C120E030E041E065E0DC01E0
:203FE0005D968D919C915E972ED821E0402FF60181A592A50E94CE13E5C0F4E04F1301C0A5
:204000009A94E92CF12C00E010E0E82DF0E0EF53FC4F9501408161E0D6015D968D919C9151
:204020005E970E947616882309F4DDC0B1E0B81508F490C0D6019196ED91FC919297DF015C
:20404000AA0DB11D1A961C922A2D269526952695B8E02B9FA018112481E090E0A0E0B0E0C5
:2040600004C0880F991FAA1FBB1FAA94D2F78095E20FF11D92A1982392A396A1892386A340
:2040800069C0E4E04E1301C09A94E92CF12C00E010E0E82DF0E0E854FC4F9501408162E0DC
:2040A000D6015D968D919C915E970E947616182FF601E3A0F4A0BB24950142E062E0D701C2
:2040C0008D919C910E94231895012C5F3F4F653071058105910559F4C901880F991FF70184
:2040E000E80FF91F80E090E29183808308C0C901880F991FF701E80FF91F11821082F501C5
:204100003696EE0FFF1FEE0FFF1FEE0DFF1D1082118212821382F701EA0DFB1D10AEDF0193
:20412000A85BBF4F1C9218961C9218961C92E05AFF4F10820CC0E92CF12C00E010E095018A
:20414000482DF601858D968D0E947616182F112309F449C0E12C00E010E020E030E047E0FB
:2041600060E0D60199968D919C919A970E94D61481E047C08CE0F601828F35C020E030E010
:2041800041E060E0F601858D968D0E942318633059F464E009C0B4E0B01750F0F3E09F12A9
:2041A00002C074E0972E692DC6010E9419301DC08AE0ADCDE92CF12C00E010E0950140E063
:2041C00064E0BFCFE92CF12C00E010E0E82DF0E0EA53FC4F9501408165E0D6015D968D911A
:2041E0009C915E97B1CF80E00CC0E92CF12C00E010E0E82DF0E0E652FC4F9501408160E0F0
:20420000A0CF0F900F900F900F90DF91CF911F910F91FF90EF90DF90CF90BF90AF909F90FA
:204220008F907F906F905F904F9008958F929F92AF92BF92CF92DF92EF92FF920F931F93CA
:20424000CF93DF93DC015C91651708F032C151960D90BC91A02DE5E06E9FA00DB11D112439
:204260005C91451708F025C11196ED91FC91129759E0459FE00DF11D1124408151812417A1
:20428000350708F016C1E9017C011396CD90DC90149787819085C80ED91ED70115966D9124
:2042A0007C911697C60ED71E82818130C9F4CC0EDD1EB60180E090E0D7015396ED91FC91E2
:2042C0005497980141E00995882309F4F2C0F80180819181A281B3819927AA27BB2720C08B
:2042E000813018F1823009F487C05396ED91FC915497833009F0B6C0CC0FDD1FCC0EDD1E61
:20430000B60180E090E0980143E00995882309F4D0C0F80180819181A281B381AA27BB276E
:2043200080839183A283B383C6C05E0163E0B694A7946A95E1F7BB24CA0CDB1CD7015C9611
:204340008D919C915D97C816D906D9F453E0AA0CBB1C5A95E1F7CA19DB09CE0DDF1D998551
:204360005B968C91892341E050E060E070E019F440E050E0BA01F80140835183628373831F
:204380009AC0C601A0E0B0E0F70183889488980140E0BC01CD01F4010995882309F489C005
:2043A000D8018C91F701838F43E0AA0CBB1C4A95E1F7CA19DB09CE0DDF1D898590E0A0E0FA
:2043C000B0E0F801408151816281738184239523A623B72341E050E060E070E0892B8A2B9E
:2043E0008B2B19F440E050E0BA01D8014D935D936D937C9313975FC0BE0176956795C60ED4
:20440000D71ED7015C968D919C915D97C816D90641F45B968C9190E0A0E0B0E0C0FF3AC065
:2044200019C0C601A0E0B0E0F701A388B488980142E0BC01CD01F50109958823D1F1D8014D
:204440008C91F701838FC0FF2AC08D919D910D90BC91A02D24E0B595A795979587952A95F8
:20446000D1F718C0CC0FDD1FCC0FDD1FCC0DDD1DBE0180E090E0980144E0DF91CF911F914F
:204480000F91FF90EF90DF90CF90BF90AF909F908F900994F80180839183A283B383F801C3
:2044A00080819181A281B3818F709927AA27BB2737CF80E006C0D7015D96DC92CE925C9768
:2044C00081E0DF91CF911F910F91FF90EF90DF90CF90BF90AF909F908F900895AF92BF9274
:2044E000CF92DF92EF92FF920F931F93CF93DF93DC0111961D921D921D921C921497611550
:20450000710509F414C1442309F411C152967C936E9351974C9365E070E080E090E02C913C
:2045200030E0821793070CF004C18B0105501109E12CF12C40E050E05196CD91DC91529767
:20454000FE01E00FF11F2081C22ED12C0180F281E02D4C155D050CF074C04115510519F422
:204560001086178268C05F01AE0CBF1C950129503109E901DA803FEF340FD9E03D9F9001CB
:204580001124C1E0DC1669F1DC1690F0D2E0DD1689F1C3E0DC123FC0E20FF31F2081318182
:2045A000220F331F0780F085E02D2E0F3F1F2FC0E20FF31FC080D1809601D3E03695279580
:2045C000DA95E1F70780F085E02DE20FF31FD7E0CD22DD2421E030E0CD2841F520E030E095
:2045E00025C0E20FF31FC080D180278130852C0D3D1D0DC0E20FF31F208131816901D1E014
:20460000CD22DD24369527952C0D3D1D0CC0E50138872F8310C0E20FF31F20813181220F16
:20462000331F220F331F0780F085E02D2E0F3F1FF501308727834F5F5F4FF9E0EF0EF11C6B
:204640007BCF215039E0239FE00DF11D1124228140815181C780D084213051F138F02230B6
:20466000C9F0233009F5440F551F22C09A01E3E036952795EA95E1F7C20ED31E4770552757
:2046800021E030E0452B11F420E030E0A601420F531F10C0FA01E170FF279A0136952795B6
:2046A0002E0F3F1FA90104C0440F551F440F551F4C0D5D1D6A01E12CF12C009711F41C82C1
:2046C0001B822C9130E0215031098217930784F451962D913C915297F901E60FF71FE901D0
:2046E000C00FD11F2B813C812C0D3D1D3483238311960D911D912D913C911497C00ED11EBC
:20470000E21EF31E1196CD92DD92ED92FC9214976B5F7F4F57960D911D912D913C915A970E
:20472000C016D106E206F30610F40196F8CE80E001C081E0DF91CF911F910F91FF90EF90DA
:20474000DF90CF90BF90AF900895FF920F931F93CF93DF9300D000D0CDB7DEB78C01F62E3D
:20476000FC01EA58FF4F0190F081E02D309711F0862F0995F801E658FF4F0190F081E02DEE
:20478000309751F019821A821B821C828FE08983FA82CE01019609950F900F900F900F9028
:2047A000DF91CF911F910F91FF9008956D3F28F46A3F28F4683F19F008956E3F08F0C5CF9A
:2047C0000895AF92BF92CF92DF92EF92FF920F931F93CF93DF9300D000D0CDB7DEB77C0168
:2047E000162FFC01EA59FF4F8081882321F0003130F40F5F0EC08FEF800F803150F0F701A2
:20480000EC59FF4F8081882309F44DC0349610824AC017FFF4CF113E08F040C04F77D42E01
:204820002F77C22E0150012B570186E7A80EB11CD501ED91FC9111973097C9F052978C910E
:20484000882329F014968C91801719F00C93802F0995D501ED91FC918D2D0995812F8F7E4B
:20486000803C29F0D501ED91FC918C2D0995F701E658FF4F0190F081E02D3097A1F0612FB0
:2048800070E084E0759567958A95E1F769830A83DB82CC82CE010196099505C0163F18F01D
:2048A000612FC70183DF0F900F900F900F90DF91CF911F910F91FF90EF90DF90CF90BF9077
:2048C000AF9008950F93022F242F462F60EB79DF0F910895FC01A089B189109791F0603F5A
:2048E00021F0673F11F067FD6FE7808D918DA80FB91F6C93808D918D0196918F808F81E03B
:20490000089580E00895262F860F911DFC018281857061E0853009F060E0822F0C941404D8
:20492000FF920F931F93CF93DF938C01D62FF42ECBEA6C9FC12D1124C695C53008F0C4E03B
:204940002C2F30E042E064E0F801808191810E942318672B682B692B41F18C2F880F8C0FC5
:20496000D1E0D80FC2E0C80F282F30E0F801E20FF31FFF2039F092819D619283682FC801F5
:20498000C2DF04C0128260E00E941404F801ED0FF11D128260E08D2F0E941404F801EC0FE3
:2049A000F11D128260E08C2F16C08D2F90E0F801E80FF91FFF2061F08281877F85608283ED
:2049C0006D2FC801DF91CF911F910F91FF909BCF128260E08D2FDF91CF911F910F91FF901A
:2049E0000C9414047F928F929F92AF92BF92CF92DF92EF92FF920F931F93CF93DF9300D02E
:204A00001F92CDB7DEB77C01B62E742E1BEA619F112D11241695153008F014E0212F30E015
:204A200042E064E0F701808191810E942318672B682B692B59F0812F880F180F198381E0BB
:204A4000810F8A831E5F1B8383E004C0B982BA82BB8281E09E012F5F3F4F49018901C82EDD
:204A6000D12CC7018B0D911D5C0192E1A90EB11CC801881999098C159D05DCF4F8016081DE
:204A8000F701E60FF11D8281772011F0866009C0982F9D7F928380FF03C09460928302C0CC
:204AA000897F8283C7012FDFF50170820F5F1F4FDFCF0F900F900F90DF91CF911F910F91A4
:204AC000FF90EF90DF90CF90BF90AF909F908F907F9008952F923F924F925F926F927F92FC
:204AE0008F929F92AF92BF92CF92DF92EF92FF920F931F93CF93DF93CDB7DEB72F970FB622
:204B0000F894DEBF0FBECDBF5C01162FF22E242F22952F702D833F2C32949FE039228F2D31
:204B20006BE00E94CB44882E3AE0381710F48AE0882EC12CD12C802F90E0A0E0B0E08E830C
:204B40009F83A887B987842F90E0A0E0B0E089839A83AB83BC83222423942F0C2F2D30E057
:204B600040E050E02A873B874C875D87012F0F7E960145E064E0D5018D919C910E94231800
:204B80002E813F8148855985621773078407950709F0F6C0960143E064E0D5018D919C9113
:204BA0000E942318EE2051F1663050F46430A8F4613059F0633009F04CC0E1E0EE8737C01F
:204BC000663071F0683099F044C0103909F43FC0B1E0BE871038C1F538C0F1E0FE8732C060
:204BE0000038B9F581E08F8791E09E8745C0103B81F5A1E0AF87B1E0BE873EC0663038F4AF
:204C00006430F0F4662341F0623069F022C0663089F0683091F01DC00038E9F021E02F87C8
:204C2000103BB9F41EC00038D1F031E03E87103B59F40BC0003869F416C0103B51F418C099
:204C400041E04E87103C09F01E861F8615C01F8611C01F8606C01F86E1E0EE870DC0F1E0A1
:204C6000FF871E8609C021E02F8731E03E8704C041E04F8751E05E879C2C8BEAC89E212DF2
:204C800011242695253009F424E030E042E064E0D5018D919C910E9423182B013C01BE85AE
:204CA000BB2309F444C0960141E064E0F501808191810E94231829813A814B815C816217AC
:204CC00073078407950769F5103C31F4452846284728F1F07D8020C0452846284728D9F445
:204CE0003F85311118C0960144E064E0D5018D919C910E942318772473942A853B854C85F7
:204D00005D85261737074807590731F0712C04C07724739401C0732C472D692DC50100DE55
:204D200007C0103C21F440E0692DC501F9DD712C3F85332329F1960141E064E0D5018D9138
:204D40009C910E94231829813A814B815C816217730784079507A1F43E85332369F0FF20FB
:204D600049F0772039F0422D50E1759E401911244B3018F040E001C0482D692DC50132DEB4
:204D80008FEFC81AD80A90E1C916D10409F0F0CE2F960FB6F894DEBF0FBECDBFDF91CF9119
:204DA0001F910F91FF90EF90DF90CF90BF90AF909F908F907F906F905F904F903F902F9081
:204DC0000895FC01862F0190F081E02D309711F0642F09940895EF92FF920F931F93CF9318
:204DE000DF93CDB7DEB728970FB6F894DEBF0FBECDBF88E0EDEDF3E0DE01119601900D9257
:204E00008A95E1F78E010F5F1F4F7E0189E0E80EF11CF80181918F0122D00E151F05C9F7B1
:204E2000809114068823E1F328960FB6F894DEBF0FBECDBFDF91CF911F910F91FF90EF9095
:204E400008958FB7F8941092C8001092C9001092CA001092CD001092CC008FBF0895CF9378
:204E6000C82F80911406882349F02FB7F89480917B0A90917C0A2FBF892B79F06C2F87E36D
:204E80009AE00E9420048823C9F3109214068091C90080628093C90007C0109214068FB74E
:204EA000F894C093CE008FBF81E0CF910895CF93DF93EC01862FD3DF8881D1DF8981CFDF00
:204EC0008A81CDDF8B81CBDF9881898189279A8189279B818927C3DF81E0DF91CF9108958B
:204EE000AF92BF92CF92DF92EF92FF920F931F93CF93DF931F92CDB7DEB78C017B0186E0DB
:204F0000C82ED12C92E8A92E9AE0B92E1982BE016F5F7F4F81EF99E00E945804882369F10A
:204F20008981E091880AE630C0F023E83AE04DE75AE0DA01F90191919F019D93AA16BB06C3
:204F4000C9F7A2E8BAE0FA019191AF019D93AE16BF06C9F78093870A08C091E09E0F90937A
:204F6000880AF0E0EE57F54F80838091880A863021F0F1E0CF1AD10849F68091880A8630AE
:204F8000E9F58091820A982F9D7F913F11F0823FA9F5F70180838091830A3091840A2091EA
:204FA000850A9091860AF80180833183228393833827232792272091870A29131FC01092E5
:204FC000880A1092820A1092830A1092840A1092850A1092860A1092870AF7019081923F42
:204FE00079F4823021F0833059F46FEF01C067E48FEF9FE00E949E440E94740680E001C059
:2050000081E00F90DF91CF911F910F91FF90EF90DF90CF90BF90AF9008951092130611DFBE
:205020008FB7F8941092320A1092310A1092360A1092350A8FBF8FB7F8941092780A10923A
:20504000770A10927C0A10927B0A8FBF81E0809314060895CF92DF92EF92FF926B017C013A
:20506000DCDFEFDED701C601B695A79597958795BC01CD0160587B47814E9F4FA701960139
:205080000E94F84420FF0AC0213080E138074105510524F482E08093C80009C01092C80034
:2050A000DA01C901B595A795979587959C01215031093093CD002093CC0086E08093CA00E3
:2050C00088ED8093C900FF90EF90DF90CF900895CF932091040630910506F901C491319607
:2050E000549131969491319624918C1710F0581720F4FB01CB0108962EC0A82FB0E0AC1BBB
:20510000B109929FE02D1124EA9FC001EB9F900D1124840F911D23E0880F991F2A95E1F792
:205120009C012C5F3F4FDB010C96E0910406F0910506E20FF31FE491ED932F5F3F4F2817E1
:20514000390799F780910906882381F0FB019B01285F3F4F05C01192E817F907E1F7F2CF96
:20516000808180958193E217F307D1F7CF910895DC011696ED91FC91179720E030E040E0DB
:2051800069E10994EF92FF921F93CF93DF93EC01162F7A010E94141160E4CE010E941E1138
:2051A000E885F9859701412F67E1CE010995CE01DF91CF911F91FF90EF900C940A11EF92AE
:2051C000FF921F93CF93DF93EC01142F7901673128F4653140F4643121F134C0673191F0DC
:2051E0006A3170F02FC00E94141160E0CE010E941E11612FCE010E941E11CE010E940A1162
:2052000081E021C0A701193140F068E1CE01BADF185188E1E80EF11CF5CF612FCE01B2DFF0
:20522000EFCF8E898F3F11F488E78E8BE885F9859701412F64E1CE01DF91CF911F91FF9028
:20524000EF90099480E0DF91CF911F91FF90EF900895DF92EF92FF920F931F93CF93DF93FC
:205260001F92CDB7DEB7811170C1E091BE09F091BF09309709F427C21982CE0101960995D4
:20528000082F882309F41FC219818091B9099091BA09009709F0A7C01093B409F090B1096C
:2052A0008F2D0E94E01C0E94D01C882361F017FD0AC0F092B4091093B50981E090E0909398
:2052C000BA098093B9091091B409812F0E94E01C813F09F44AC020F5803B09F449C050F4A9
:2052E000803909F445C0803A09F442C0803809F0CAC03EC0803DC9F118F4803CB1F1C3C09D
:20530000803EB1F1803F09F0BEC02DE230E03093B8092093B7091092B10980934E092EC02D
:20532000883F79F030F4833F01F110F1863F49F0AAC08A3F08F4A7C08D3F18F08E3F08F433
:20534000A2C080934B0910924A0910924C0910924D0981E080937B091092BA091092B909DF
:205360001092B8091092B709AFC122E030E002C023E030E03093B8092093B7092091B909A7
:205380003091BA094091B7095091B809BA01615071092617370700F180934B091F701F5F90
:2053A0008091B009181B10934A098091B50980934C094330510529F48091B60980934D09A4
:2053C00002C010924D091092BA091092B9091092B8091092B7091CC02F5F3F4F3093BA0907
:2053E0002093B909A9C017FF36C01D3F38F41A3F38F4173F89F0183F71F502C01E3F58F1C2
:2054000010934B0910924C0910924D0910924A0981E080937B0958C140914E09403F99F56B
:205420009C012F5F3F4FFC01E65BF64F148340934B0920934C0930934D0910924A0981E0FB
:2054400080937B091092BA091092B9091092B8091092B70969C02091B409FC01E65BF64F0D
:20546000203FE1F41483E090B709F090B8099701215031098217930708F459C0D090B40948
:2054800080EFD8120FC01092BA091092B9091092B8091092B7091092B10915C1E659FF4F97
:2054A0001083E1CF8D2D0E94E01C182F80934B090E94D01C882349F08D2D8F708F5F909169
:2054C000B009891B80934A0902C010924A098091B50980934C0983E0E816F10429F4809197
:2054E000B60980934D0902C010924D091092BA091092B9091092B8091092B70981E08093C8
:205500007B09103B71F038F4103959F0103A49F0103851F406C0103D21F0103E11F0103CCE
:2055200019F4D092B109D0C01092B109CDC001969093BA098093B9098091AF09882309F406
:20554000C2C080E086DE082FBFC0813009F0BBC0E091C209F091C30986EC99E00995082FE1
:20556000882309F4B0C08091C6098295807F803909F458C010F5803589F138F4803209F440
:2055800042C0803409F45FC09EC0803709F477C0803809F447C0803609F095C08091BB095B
:2055A0009091BC09FC01E65BF64F2091C70926AB2091C80927AB029679C0803C21F130F419
:2055C000803A81F1803B09F07EC02CC0803F31F0823F41F1803E09F076C024C02091C7099C
:2055E000273F39F020937D0910927C0910927E0916C08091BB099091BC09FC01E65BF64F7F
:2056000026AB019653C08091C70980937D098F708F5F80937C098091C80980937E091092F2
:205620007F094DC080937D098091C7098F708F5F80937C098091C80980937E098091C90977
:2056400080937F093CC02091C709203F21F41092BC091092BB098091BB099091BC09FC0139
:20566000E65BF64F26AB2091C80927AB2091C90920AF03969093BC098093BB0924C0209140
:20568000C709203F21F41092BC091092BB098091BB099091BC09FC01E65BF64F26AB209139
:2056A000C80927AB2091C90920AF03969093BC098093BB0980EF80937D0910927C0981E00D
:2056C0008093AD0901C000E0802F0F90DF91CF911F910F91FF90EF90DF9008951F93CF93C4
:2056E000DF9300D000D01F92CDB7DEB71C8221E02B839A838983E091F405F091F5051189D9
:205700001D82A091F405B091F505E091F805F091F9059E012F5F3F4F50964C916FE084EF58
:2057200095E009958D818F5F8D83811750F30F900F900F900F900F90DF91CF911F91089537
:205740009B01DC011896ED91FC91199741E067E10994DC011A96ED91FC911B9720E030E007
:205760000994EF92FF920F931F93CF93DF931F92CDB7DEB77C018B01D8016C916731D9F048
:2057800078F4653198F1F80141814983D7011696ED91FC91179720E030E0C701099523C061
:2057A0006A31A0F06E3F11F5F8014181498369E2C701CFDF18C0F80181818983AE014F5F87
:2057C0005F4F61E0C7010E94ED100DC00F5F1F4FD7011696ED91FC91179720E030E040E05D
:2057E000C7010995C9CF0E5F1F4FC6CF0F90DF91CF911F910F91FF90EF900895EF92FF92BF
:205800000F931F93CF93DF93EC01142F7901693031F485EE94E0998388831C8A63C06D3084
:20582000B9F128F46A3029F16B3041F15DC06E3009F43FC06F3009F057C00E94E310F7012E
:2058400083810C89F8E08F9F000D1124602F62956F706061CE010E940011602F6F70CE0182
:205860000E940011F7016481606BCE010E9400112BC00E942D1160EB74E007C0411103C005
:205880006BEA74E002C066EA74E0CE016ADF2AC0411107C06FE974E064DFE881F981828901
:2058A00006C068E974E05DDFE881F98183898C8B19C00E94E31061E8CE010E940011612F72
:2058C000CE010E94F6100CC0F701408151816281660F660F660FCE010E94ED101150A1F751
:2058E000CE0146DC81E001C080E0DF91CF911F910F91FF90EF900895EF92FF920F931F9304
:20590000CF93DF93EC01142F79016D30A1F118F46B3039F15BC06E3009F43EC06F3009F0BD
:2059200055C00E94E310F70183810C89F8E08F9F000D112460E4CE010E940011602F629598
:205940006F706061CE010E940011602F6F70CE010E94F610F7016481606BCE010E94F61021
:2059600026C0411103C066E474E002C061E474E0CE01F7DE3DC0411107C06AE374E0F1DE09
:20598000E881F981828906C063E374E0EADEE881F98183898C8B2CC00E94E31061E8CE0152
:2059A0000E940011612FCE010E94F6100CC0F701408151816281660F660F660FCE010E9423
:2059C000ED101150A1F7CE01D3DB12C0693031F480E894E0998388831C8A0AC06A3031F492
:2059E000CE010E942D116BE474E0C2CF80E001C081E0DF91CF911F910F91FF90EF90089577
:205A0000CF93DF93EC0161E0888199810E946A2464E6888199810E946A2468E08881998129
:205A20000E946A2464E0888199810E946A2461E0888199810E946A2460E0888199810E9406
:205A40006A2460E088819981DF91CF910C946A24CF93DF93EC0164E0888199810E946A24FF
:205A600060E0888199810E946A2468E088819981DF91CF910C946A24AF92BF92CF92DF92C6
:205A8000EF92FF920F931F93CF93DF9300D000D0CDB7DEB76C018B019A8389839C838B83C4
:205AA0006535710509F43DC0E8F464347105C9F158F46234710589F16334710509F08BC015
:205AC000CE010196C5DF29C06D34710509F45EC06035710509F07FC0FC01858D968DA3D3B6
:205AE000682F60C06536710509F471C050F46635710579F06436710509F06DC0FC0113A606
:205B00006CC06D36710509F451C06F37710549F062C0CE0101969CDF60C0CE01039670DF03
:205B20005CC0F601A7A0B0A4F2E0AF0EB11CF12CF50111925F0160E08F2D0E941404F39408
:205B4000F0E1FF12F5CF80E090E00196853C29E0920739F0EFE9FFE03197F1F700C0000085
:205B6000F4CF0434110531F460E0F601858D968DF8D305C00535110511F467E401C06FEF34
:205B80008FEF9FE00E949E440E94740668E10E946A2468E0C6010E946A2468E0C6010E94FF
:205BA0006A2460E1C6010E946A2417C020E030E041E060E0FC01858D968D0E942318633035
:205BC00061F4C60108D963E0C60133D206C081E0F60183A702C080E00DC0E12C00E010E0A5
:205BE00020E030E047E060E0F60181A592A50E94D61481E00F900F900F900F90DF91CF91A1
:205C00001F910F91FF90EF90DF90CF90BF90AF9008952FB7F8946091890A70918A0A809191
:205C20008B0A90918C0A2FBF0895FC018281238130E0220F331F87FF03C02F77216001C025
:205C40002E7720838F77818308959F92AF92BF92CF92DF92EF92FF920F931F93CF93DF9386
:205C6000CDB7DEB728970FB6F894DEBF0FBECDBF6C01F42E58011D821E821F82188662300D
:205C800009F40EC130F46623D9F0613009F4F0C03CC16430E9F1DC015D968D919C915E9709
:205CA000643008F4AAC0653009F02FC1E42FF0E0EA53FC4F8E010B5F1F4F408165E02EC1A5
:205CC000B1E0B41720F4E2E04E1731F02BC18E010B5F1F4F60E01DC12115310539F4DC0125
:205CE0005D96ED91FC915E9786A108C02130310561F4FC01858D968D0E94311090E0A0E0E1
:205D0000B0E08D839E83AF83B887992493940BC141E0F41609F44CC0DC01F41688F05D961B
:205D20008D919C915E97B4E0FB1609F44EC0E7E0FE1259C08E010B5F1F4F45E064E08AC069
:205D400097964D915C919897FA01E20FF11D828180FF2AC083FF2AC08BEA289F212D11248B
:205D60002695253008F024E0822F880F280F82E0820FFA01E80FF11D828186FB882780F9F9
:205D8000880F91E0920FFA01E90FF11D928195FB992790F9892B880FFA01E20FF11D928115
:205DA00092959170892BAACF80E0A8CF81E0A6CFFC01A7A1B0A5A20FB11D12968C9181FB87
:205DC000EE27E0F9F0E0CF019ACF3BEA239F212D11242695253008F024E030E08E010B5F4D
:205DE0001F4F42E008C0EF2DF0E0E853FC4F8E010B5F1F4F408164E091C0F3E04F1770F182
:205E000048E04F1548F4A9E0FA1228C08E010B5F1F4F46E063E01EC0EF2DF0E0E053FC4F25
:205E20008E010B5F1F4F408163E00E941621982E882309F477C08D819E819C838B83CE0150
:205E40000196F3DEB5E0FB1609F44EC0E7E0FE1243C04AC00E941621982E1EC0EF2DF0E0DC
:205E6000E053FC4F8E010B5F1F4F408163E056C0E42FF0E0EF53FC4F8E010B5F1F4F40818B
:205E800061E0DC015D968D919C915E970E941621982EB4E0FB1247C0992009F443C029C0C8
:205EA000E42FF0E0E854FC4F8E010B5F1F4F408162E0FC01858D968D0E941621982E882392
:205EC00089F18F2D8B7F833089F48D819E819C838B83CE010196A9DEF3E0FF1629F0898100
:205EE00090E0A0E0B0E00CC08A81FACF44E0F4120CCF8D819E81AF81B8850196A11DB11DC0
:205F00008D839E83AF83B8870EC08E010B5F1F4F4F2DD6015D968D919C915E970E9416214B
:205F2000982E01C0912CE12C00E010E020E030E047E060E0F60181A592A50E94D614992030
:205F400029F08D81D5018C9381E003C0F501108280E028960FB6F894DEBF0FBECDBFDF91A4
:205F6000CF911F910F91FF90EF90DF90CF90BF90AF909F90089561EF0C9457270F931F9379
:205F8000CF93DF931F92CDB7DEB78C01BE016F5F7F4F0E947027882341F06981623F21F0CA
:205FA000C8010E94572701C080E00F90DF91CF911F910F9108950F931F93CF93DF9300D083
:205FC00000D01F92CDB7DEB78C01BE016B5F7F4FCE0101960E947027882339F08D81813F02
:205FE00021F4CE0101960E941E03C8010E946C03882321F063EFC8010E9457270F900F9054
:206000000F900F900F90DF91CF911F910F9108950C942F27FC011082BC0181EF99E00C941B
:2060200058049A01AB01B901FC01878D90A10C94D4181F93CF93DF93EC01162F623091F169
:20604000E8F4662309F46DC0613009F090C062E17AE780E090E00E942A28EF8DF8A1EC5816
:20606000FF4F11821082EF8DF8A1EA58FF4F88E090E3918380831093130679C0633061F13C
:20608000643009F074C060E076E980E090E00E942A28EF8DF8A1EC58FF4F8AE090E3918344
:2060A000808338C01092130660E076E980E090E00E942A28CE010E94EB26EF8DF8A1E858F0
:2060C000FF4F8BED9FE291838083EF8DF8A1E658FF4F8EE193E016C01092130660E076E9AF
:2060E00080E090E00E942A28EF8DF8A1E858FF4F8EEB9FE291838083EF8DF8A1E658FF4F87
:206100008BEB9FE291838083EF8DF8A1EC58FF4F11821082EF8DF8A1EA58FF4F11821082DB
:2061200026C0EF8DF8A1E858FF4F8CE693E091838083EF8DF8A1E658FF4F8EE193E0918343
:20614000808362E17AE780E090E00E942A28EF8DF8A1EC58FF4F8AE090E391838083EF8DBD
:20616000F8A1EA58FF4F88E090E391838083DF91CF911F910895CF92DF92EF92FF920F9361
:206180001F93CF93DF93EC01E62E8F89988DA98DBA8D892B8A2B8B2B21F01D821E821F82AE
:2061A000188647E06DE073E0CE010E946E22F12C00E010E021E030E041E060E0CE010E94A9
:2061C000761646E062E173E0CE010E946E22CCA0DDA0E12CF12C88A199A1AAA1BBA19C01BC
:2061E000AD012C193D094E095F09AEA1B0E00E942F45C60ED71EE81EF91E8F89988DA98D59
:20620000BA8DC816D906EA06FB0620F4CD82DE82EF82F886DF91CF911F910F91FF90EF90A9
:20622000DF90CF9008958F929F92AF92BF92CF92DF92EF92FF920F931F93FC0144A155A1FF
:206240008A0120E030E0C788D08CE18CF28CC701B601601B710B820B930BC0A0D1A0E2A019
:20626000F3A046015701801A910AA20AB30AA50194010E94F844822F1F910F91FF90EF9026
:20628000DF90CF90BF90AF909F908F900895BF92CF92DF92EF92FF920F931F93CF93DF935A
:2062A000EC01B62EC0DFB81608F04EC0BEA28F89988DA98DBA8D892B8A2B8B2B21F01D82B1
:2062C0001E821F82188647E06DE073E0CE010E946E22EB2CF12C00E010E020E030E041E0E2
:2062E00060E0CE010E94761646E062E173E0CE010E946E22CCA0DDA0E12CF12C88A199A12E
:20630000AAA1BBA19C01AD012C193D094E095F09AEA1B0E00E942F45C60ED71EE81EF91E66
:206320008F89988DA98DBA8DC816D906EA06FB0620F4CD82DE82EF82F886EE8DFF8D309775
:2063400029F08B2D099502C080E001C081E0DF91CF911F910F91FF90EF90DF90CF90BF903F
:2063600008952F923F924F925F926F927F928F929F92AF92BF92CF92DF92EF92FF920F93A0
:206380001F93CF93DF93CDB7DEB729970FB6F894DEBF0FBECDBF998788876B83613009F5AB
:2063A000C12CD12C7601E885F9858789908DA18DB28DC816D906EA06FB0698F40588F689B1
:2063C000E02D01E020E030E0A901C701B6010995882309F40DC1FFEFCF1ADF0AEF0AFF0AC0
:2063E000E2CF888599850E94BD0F7C01E885F9858789908DA18DB28D892B8A2B8B2B21F021
:20640000158216821782108647E06DE073E0888599850E946E2200E010E020E030E040E0FA
:2064200060E0888599850E94761646E062E173E0888599850E946E22E885F985C4A0D5A0E6
:20644000E12CF12C80A191A1A2A1B3A19C01AD012C193D094E095F09A6A1B0E00E942F45A6
:20646000C60ED71EE81EF91E8789908DA18DB28DC816D906EA06FB0620F4C582D682E782D2
:20648000F086A12CB12C88859985CDDE90E0A816B9060CF0A4C06A2D88859985F8DED12C24
:2064A000E885F9858081D81608F089C0F5E0DF9E10011124C12CA885B9855196ED91FC91DF
:2064C0005297E20DF31D8081C81608F076C0B9E0CB9E300111240180F281E02DE60DF71D57
:2064E0008381882321F08B81882309F464C044805580A081B181BA83A9838281823099F071
:2065000028F4882381F0813021F055C0853008F052C0812C912CC201A0E0B0E08C839D8341
:20652000AE83BF8325C0812C912C612C712C3EC0A885B9855196ED91FC915297E20DF31D2C
:206540000180F281E02DE60DF71D86818823B1F07201E80CF91C00E010E094014C2D6D2DEC
:20656000CD010E947616882351F1BFEF8B1A9B0AA981BA81A815B905D9F61DC0EC80FD80C5
:206580000E811F8194014C2D6D2D88859985E9CF8301720194014C2D6D2D888599850E94D5
:2065A0007616882361F0FFEF8F1A9F0AE981FA81E815F90569F7C3947ECFD39471CFE12C7B
:2065C000F12C8701E39425E030E040E065E0888599850E9476168FEFA81AB80A54CF60E067
:2065E0008885998554DE60E088859985C4DD81E029960FB6F894DEBF0FBECDBFDF91CF91FB
:206600001F910F91FF90EF90DF90CF90BF90AF909F908F907F906F905F904F903F902F9008
:206620000895CF93DF93CDB7DEB76D970FB6F894DEBF0FBECDBFF89484B78D7F84BF84B734
:20664000877F84BF0FB6F894A89580916000886180936000109260000FBE90E080E80FB62A
:20666000F89480936100909361000FBE26982E9A25982D9A24982C9A23982B9A22982A9A3F
:206680002198299A2098289A6F98779A6E98769A0898109A0D98159A0998119A0E98169A96
:2066A0000A98129A0F98179A0B98139A279A2F98549A5C98559A5D98569A5E98579A5F98C8
:2066C000689A7098699A7198389A4098399A41983A9A42983B9A43983C9A44983D9A45988A
:2066E0003E9A46983F9A47980C9A1498809888988198899882988A9883988B9884988C98AE
:2067000085988D9886988E9887988F986C98749A10927C0010927A0080917A0087608093DC
:206720007A0080917C00806480937C0080917A00806880937A0080917C00807F80937C00C4
:2067400083E0E82EF12C80917A00806480937A0080917A0086FDFCCF8091780090917900AB
:2067600021E0E21AF10879F780917A00886080937A0080917A00806480937A0081E0809343
:206780005C0591E890935D0520E430E030935F0520935E058093610592E090936205309311
:2067A000640520936305809366059091D8009F7E9093D8009091D70091609093D7008093D0
:2067C00087058091D8008C7F8093D8001092E2001092DA001092E1008091D8008F778093C9
:2067E000D8008091D80080688093D8008091D8008F7D8093D8008091D70080688093D7006B
:2068000019BC10925B0510925A0510925905109258058091E0008B7F8093E0008091D800CA
:2068200081608093D80042E060E080E00E94B9068091E1008E7F8093E1008091E2008160A2
:206840008093E2008091E20088608093E2008091E0008E7F8093E0008091D80080618093A5
:20686000D80014BC15BC10926E0084B5826084BD85B5836085BD8CE787BD80916E008260BC
:2068800080936E0078948091E1099091E209A091E309B091E409892B8A2B8B2B41F0109227
:2068A000CF091092D0091092D1091092D20947E06DE073E08AEC99E00E946E22882309F4FC
:2068C000EEC08091CB099091CC09A091CD09B091CE098093EA099093EB09A093EC09B09388
:2068E000ED0980911503909116039093EF098093EE098091E1099091E209A091E309B091B5
:20690000E409892B8A2B8B2B41F01092CF091092D0091092D1091092D20947E06DE073E085
