:020000040000FA
:2000000064C200008CC200008AC2000088C2000086C2000084C2000082C2000080C20000C2
:200020007EC200007CC200000C9489400C94544176C2000074C2000072C2000070C20000D0
:200040006EC200006CC200006AC2000068C2000066C200000C94734362C2000060C2000028
:200060005EC200000C945B440C9497440C94DB4456C200000C94174352C2000050C20000AF
:200080004EC200004CC200004AC2000048C2000046C2000044C20000E4B9000042004123DB
:2000A000004100472300470046230046004500442300440043230043005072657365740093
:2000C0004E52504E004D4D43205265636F7264204F6666004D4D43205265636F7264204F80
:2000E0006E004D4D43205061757365004D4D432053746F70004D4D4320506C6179005254BB
:2001000020537973527374005254204153656E730052542053746F7000525420436F6E74E1
:20012000696E756500525420537461727400525420436C6F636B00537973457820436F6E4C
:20014000660050697463682042656E64004154004348204154005043004343004E6F746524
:20016000204F6E004E6F7465204F666600B700B400B200AF00AD00AB00A800A600A300A11B
:20018000009E009C0064015C015901560150014D014201370100000000000000002E012544
:2001A00001190111010801FE00F500EC00E200D400C500C000B9005465656E73792B2B2048
:2001C000322E3000207F010100000000000000000000065F5F060000000307000007030010
:2001E000147F7F147F7F140000242E6B6B3A1200466630180C666200307A4F5D377A48003C
:20020000000004070300000000001C3E63410000000041633E1C0000082A3E1C1C3E2A08BC
:200220000008083E3E080800000080E0600000000008080808080800000000606000000072
:200240006030180C060301001C3E6349633E1C000040427F7F40400042637159496F660090
:2002600022634949497F3600181C16537F7F50002F6F4949497931003C7E4B49497830001C
:20028000030371790D070300367F4949497F3600064F4949693F1E00000000666600000099
:2002A000000080E6660000000000081C36634100002424242424240000004163361C08009E
:2002C000020301595D0702003E7F415D5D1F1E007C7E0B090B7E7C00417F7F49497F3600CB
:2002E0001C3E634141632200417F7F41633E1C00417F7F495D416300417F7F491D010300CB
:200300001C3E6341513372007F7F0808087F7F000000417F7F410000307040417F3F010075
:20032000417F7F081C776300417F7F41406070007F7F0E1C0E7F7F007F7F060C187F7F0096
:200340003E7F4141417F3E00417F7F49090F06003E7F4141E1FFBE00417F7F09197766009F
:200360000022674D597322000003417F7F4103003F7F4040407F3F001F3F6040603F1F003B
:200380003F7F6038607F3F0063771C081C77630000074F78784F0700476371594D677300BE
:2003A00000007F7F414100000103060C18306000000041417F7F0000080C0603060C080048
:2003C00080808080808080800000010306040000207454543C784000417F3F44447C3800A4
:2003E000387C4444446C2800387C44453F7F4000387C5454545C1800487E7F4909030200EE
:2004000098BCA4A4F87C0400417F7F08047C78000000447D7D4000000060E08080FD7D0051
:20042000417F7F10386C44000000417F7F4000007C7C0C780C7C7800047C7804047C780096
:20044000387C4444447C380084FCF8A4243C1800183C24A4F8FC8400447C784C040C0800A4
:20046000485C54545474240004043F7F446420003C7C40403C7C40001C3C6040603C1C00D6
:200480003C7C6038607C3C00446C3810386C44009CBCA0A0A0FC7C00004C64745C4C640034
:2004A0000008083E77414100000000EFEF000000004141773E0808000203010302030100C1
:2004C00070784C464C787000C14F11241FBECFEFD0E2DEBFCDBF18E0A0E0B1E0ECE8F2EBF9
:2004E00000E00BBF02C007900D92A433B107D9F720E1A4E3B8E001C01D92AC31B207E1F7FD
:2005000012E0C5E6D2E004C02197FE010E940D54C436D107C9F70E94E1440C94445970CD3B
:20052000FC01CB0120911A1030911B102617370790F0009729F42091E8002E772093E800A3
:2005400040E0009751F4411108C08091E80082FF31C080E00895C901F3CF20911310222378
:20056000A9F12530A9F12091E80023FD2DC02091E80022FDEACF2091E80020FFE2CF2091C1
:20058000F2003091F300009719F02830310558F041E02830310509F040E02091E8002E7739
:2005A0002093E800CECF41914093F10001972F5F3F4FE9CF80911310882341F0853041F00B
:2005C0008091E80083FFC1CF81E0089582E0089583E008958091141087FF13C08091E8008C
:2005E00082FF06C08091E8008B778093E80004C0809113108111F2CF0895809113108823F7
:20060000D9F38091E80080FFF8CF8091E8008E77ECCF2091E4003091E50095E6A901209105
:20062000EC00822F817020FF06C08091E80080FF06C080E008952091E80022FD1AC0809169
:200640001310882389F0853089F08091EB0085FD0FC02091E4003091E50042175307F9F2FF
:200660009150E1F684E0089582E0089583E0089581E00895DC011296ED91FC91309711F06C
:20068000862F09940895DC011496ED91FC91309709F009940895DC011696ED91FC91309784
:2006A00009F009940895DC011896ED91FC91309709F00994089581E008956FEF7FE080E05C
:2006C00090E00895633029F0643031F484E090E0089582E090E0089581E090E0089581E0F9
:2006E00008950F931F93CF93DF93EB0180911310843031F080E0DF91CF911F910F91089523
:2007000082E08093E9008091E80082FFF3CF81DF81110EC004E010E08091E80085FD15C05B
:200720008091E8008B778093E80073DF8823A1F38091F2009091F300892B29F48091E80051
:200740008B778093E80081E0D6CF8091F10089930150110909F7ECCF0F931F93CF93DF932A
:20076000EB0180911310843031F080E0DF91CF911F910F9108958091E90E8F708093E90064
:2007800048DF8111F2CF04E010E08091E80085FD09C08091E8008E778093E8003ADF88230A
:2007A000A1F3E3CF89918093F1000150110969F78091E80085FD05C08091E8008E778093B9
:2007C000E80080911310843011F081E0CFCF8091E90E8F708093E9008091F2009091F3002F
:2007E000892B99F38091E8008E778093E80011DFECCFFC01CB01642F0280F381E02D3097EF
:2008000009F009940895423028F0423021F090E080E0089540E0862F880F860F840F90E027
:20082000089584E06F3028F48BEA689F812D1124869590E008950895660F771F660F771FC2
:20084000860F971F41E050E060E070E0FC0142835383648375830895FC0140815181FB01CC
:20086000208131814217530738F081E02417350708F080E090E008958FEF9FEF0895FB0168
:20088000EE0FFF1FE80FF91FDF01A159BF4F1D921C9210AA17A608951092B90088E48093FB
:2008A000B80084E08093BC0081E008951092BC0081E00895FF920F931F93CF93DF93EC014D
:2008C000EAE4F4E090E080E0008110E030E020E050E040E04017510794F4A181B281A20F98
:2008E000B31F1296FC9012976D917C916F0D711D860F971F4F5F5F4F255F3F4FEBCF3796F4
:2009000024E0E238F20701F72DA53EA5820F931F21E0822727E19227DF91CF911F910F9145
:20092000FF900895FC012281838190E0880F991F8F7727FD816080832F7721830895FC0136
:200940009081818190FF0CC080688183892F8695808391818927982789279383828308957E
:200960008F77F3CF80E00895CF93DF93FC01CB012081213029F02230D9F0DF91CF91089582
:20098000A381B4812D913C911197A901415051094638510590F70180F281E02D4E5F5F4F7F
:2009A0004D935C93E20FF31F8F7799278083E5CFC381D48128813981A901425051094638D8
:2009C0005105D8F6A181B2814D5F5F4F59834883A20FB31F962F991F9927991F9C93218154
:2009E0003281A381B481ED91FC911197AF014F5F5F4F4D935C93E20FF31F8F77D7CFCF934C
:200A0000DF93EC0165E070E088819981ADDF70E060E088819981A8DF6AE070E0888199813C
:200A2000DF91CF91A1CFCF93DF93EC0160E770E08881998199DF6BE070E08881998194DF52
:200A400060E470E0888199818FDF6EE170E088819981DF91CF9188CF9C01CB01892B81F0FA
:200A600061307105D1F42D553F4FD9018D919C91DC01ED91FC910680F781E02D61E00994A4
:200A80002D553F4FF90180819181DC01ED91FC910680F781E02D60E0F2CF0895FC01862FF6
:200AA000E831F105C8F4E75DF44F608167FF0DC06F77861738F4681B862F90819078982B0D
:200AC00090830895608380E0F8CF860F87FFF5CF606860838FE7F1CF8FEF08959C01FC01E7
:200AE000EA56FF4F808136970190F081E02D93E0899FE00DF11D1124D901A956BF4F8C91BC
:200B00000180F281E02D97E0899FE00DF11D112482819381448155818417950771F0255640
:200B20003F4FF901208131812817390720F081E04217530708F480E0089581E00895FC0143
:200B400060FF06C040686695562F5183408308954F77F9CF3F924F925F926F927F928F92B0
:200B60009F92AF92BF92CF92DF92EF92FF920F931F93CF93DF9300D000D000D0CDB7DEB71D
:200B80008D839E83AD81BE8111961D921D921D921C921497FD011582168217821086768B4D
:200BA000658B408337E0432E512CD12CC12C4BE0342EAD81BE818C918C151D0409F00CF4C1
:200BC000BAC1820107501109F12CE12C712C612C812C912C5401AD81BE815596ED91FC9130
:200BE000E00FF11F80818615170409F00CF4F3C0A181B2816114710409F055C017961D92EA
:200C00001D921D921C921A97ED81FE81A589B689A00FB11F1196ED91FC911297EE0DFF1DCC
:200C200080819181ED81FE814581568167817085480F591F611D711D4583568367837087DD
:200C40001196ED91FC91EE0DFF1D6281AD81BE8157968D919C91DC01ED91FC91662309F4D5
:200C600062C0623009F494C00284F385E02D0995AC01AD81BE815596ED91FC91E00FF11FB7
:200C80000180F281E02DEE0DFF1D20813181429FC001439F900D529F900D1124880E991EB8
:200CA000A11CB11C6EC08FEF860DFD01839DE00DF11D1124228180819181478150856185E4
:200CC0007285FD01EE0DFF1D223011F1D0F421110FC0A1E0B0E09C0127703327232B09F405
:200CE000A0E023E0969587952A95E1F78A0F9B1F480F591F611D711D4783508761877287E3
:200D000083CF233069F0880F991F880F991FF0CF9C012170332796958795820F931FE8CFAF
:200D2000880F991FE5CF0284F385E02D60E00995BC01AD81BE815596ED91FC91E00FF11FA8
:200D40000180F281E02DEE0DFF1D808191819C012770332741E050E0232B09F440E0F3E04B
:200D600096958795FA95E1F7840F951F869F9001879F300D969F300D1124820E931EA11CC0
:200D8000B11CBFEF6B1A7B0AEBE0EE0EF11C23CF0284F385E02D62E00995AC01AD81BE8103
:200DA0005596ED91FC91E00FF11F0180F281E02DEE0DFF1D808191819C0121703327969560
:200DC0008795820F931F849F9001859F300D949F300D1124D2CFED81FE8181819281A38133
:200DE000B481880E991EAA1EBB1E81829282A382B4828789908DDC01ED91FC910280F38153
:200E0000E02D099569837A838B839C8386169706A806B90608F0A8C0ED81FE81E588F68833
:200E20000E0D1F1DD8018C918150990B389EA001399E500D112411968D919C91DC01A40F8E
:200E4000B51F17968D909D90AD90BC901A97F80183819481A581B681880D991DAA1DBB1D34
:200E6000ED81FE81868F978FA0A3B1A3F80121813281240F351FF90142812081318142305C
:200E800009F44AC008F041C041114DC041E050E0B90167707727672B09F440E073E03695A6
:200EA00027957A95E1F7420F531F840F951FA11DB11DED81FE81868F978FA0A3B1A3C11465
:200EC000D10439F4D70113961D921D921D921C921697ED81FE8180818150990BC816D90607
:200EE0006CF4868D978DA0A1B1A125893689F901E40DF51D83839483A583B683FFEFCF1A09
:200F0000DF0A87E0480E511C54CE433089F0220F331F220F331F07C0A90141705527369541
:200F20002795240F351F820F931FA11DB11DC1CF220F331FF8CF81E026960FB6F894DEBFBA
:200F40000FBECDBFDF91CF911F910F91FF90EF90DF90CF90BF90AF909F908F907F906F9052
:200F60005F904F903F90089580E0E6CF0F931F93CF93DF9300D000D0CDB7DEB7DC01559679
:200F8000ED91FC91569707E0609FE00DF11D112419968D919D910D90BC91A02D0381148178
:200FA00025813681800F911FA21FB31F218132811BE0419F200D311D1124F901478150858B
:200FC000618572858C019D01040F151F261F371FC901B8010F900F900F900F90DF91CF9158
:200FE0001F910F9108958F929F92AF92BF92CF92DF92EF92FF920F931F93CF93DF934C01C7
:20100000E9015801DC018C91681770F080E0DF91CF911F910F91FF90EF90DF90CF90BF9009
:20102000AF909F908F9008955596ED91FC91B7E06B9FE00DF11D11248081481738F7E180CF
:20104000F280EBE04E9FE00CF11C1124D7018D919C9128173907D0F6C40188DF462F572FA9
:20106000BC01F7012281223009F4A9C0A0F5211181C0CE01F3E096958795FA95E1F76A019D
:201080007B01C80ED11CE11CF11CF401828D938DA48DB58DC816D906EA06FB06A9F5C770ED
:2010A000D87FC80DD91D8D85918D892341E050E060E070E019F440E050E0BA01D5014D9383
:2010C0005D936D937C931397F401C28ED38EE48EF58E81E09CCFD40157968D919C912330A0
:2010E00009F4C0C0CC0FDD1FCC0FDD1F4C0F5D1F611D711DDC01ED91FC910680F781E02DEF
:2011000004E09501099583CF8789908DDC01ED91FC910680F781E02D00E09501B701A60170
:201120000995882309F472CFF5018081D40159968C93C770D87FC80DD91D8D8590E0B0E0E3
:20114000A0E0408151816281738184239523A623B72341E050E060E070E0892B8A2B8B2BA3
:2011600019F440E050E0BA01F5014083518362837383AACF6A017C01CC0EDD1EE11CF11CAF
:20118000D40157968D919C91DC01ED91FC910680F781E02D01E09501B701A6010995882330
:2011A00009F434CFF50180819181A281B3819927AA27BB2780839183A283B38385CFCE01C7
:2011C000969587956A017B01C80ED91EE11CF11CF401828D938DA48DB58DC816D906EA06C6
:2011E000FB06E9F4818D90E0B0E0A0E0C0FD0FC0F50180839183A283B383F5018081918186
:20120000A281B3818F709927AA27BB27D3CF54E0B595A795979587955A95D1F7E9CF8789E2
:20122000908DDC01ED91FC910680F781E02D02E09501B701A6010995882309F4E7CEF501D6
:201240008081D40159968C93C0FFD7CF80819181A281B38144E0B595A795979587954A950A
:20126000D1F7C7CFCC0FDD1F6A017B01CC0EDD1EE11CF11CDC01ED91FC910680F781E02D80
:2012800003E09501B701A6010995882309F4BECEF50180819181A281B381AA27BB278ACF38
:2012A000CF92DF92EF92FF920F931F93CF93DF93CDB7DEB728970FB6F894DEBF0FBECDBF03
:2012C000CC24CA94DC2C7601C982DA82EB82FC828E010F5F1F4F87DE89819A81AB81BC8151
:2012E000BC01CD0128960FB6F894DEBF0FBECDBFDF91CF911F910F91FF90EF90DF90CF9062
:2013000008959A01462F62E0CBCF9A01462F64E0C7CFFC0170E0DC01A60FB71F14961C924D
:2013200080819181DC01ED91FC910190F081E02D40E00994CF93C0E06C2F8CE59EE0E9DF92
:20134000CF5FC031C9F7CF9108950F931F93CF93DF9300D000D000D0CDB7DEB78D839E83CF
:20136000062F10E0A80162E0ED81FE8182819381C8DF69837A838B839C83C801059629818E
:201380003A814B815C81880F991FED81FE81E80FF91F253031054105510561F580E090E24F
:2013A00091838083F801EE0FFF1FEE0FFF1F4D815E81E40FF51F128E138E148E158E400F5E
:2013C000511FFA0112AEE65BFF4F108238961082389610829A012E593F4FF9011082269609
:2013E0000FB6F894DEBF0FBECDBFDF91CF911F910F91089511821082D5CF282F803188F49C
:20140000E82FE695E695E695F0E0ED54F14F808190E0277002C0959587952A95E2F781705A
:20142000089580E00895CF93DF93C62FCC0F8C2FE4DFD82FDD0F81E08C0FDFDF8D2BDF911B
:20144000CF910895CF93DF9300D000D00F92CDB7DEB76D83462F469550E060E087EB9EE0C1
:2014600050DF69837A838B839C83672B682B692B49F48D810F900F900F900F900F90DF9198
:20148000CF91BBCF80E00F900F900F900F900F90DF91CF91089580E00895CF93DF93EC01BC
:2014A000DA0188899989FC01549131964491319634910396FC018491651750F1461740F11E
:2014C000651B770B389FE02D1124E69FC001E79F900D1124820F911D23E0880F991F2A9503
:2014E000E1F704969D01AD01485F5F4FE889F989E80FF91F6491F90161939F010196E417C2
:20150000F507A1F78D89811109C0DF91CF91089588E0FD0111928A95E9F7F4CF9D01285F69
:201520003F4F8D91FD013197809580832A173B07C1F7EBCF3F924F925F926F927F928F9256
:201540009F92AF92BF92CF92DF92EF92FF920F931F93CF93DF93CDB7DEB72D970FB6F8948E
:20156000DEBF0FBECDBF6C01F62E042F922EDC0150968D919C91FC013296649031961491BE
:20158000660E140F812CFE0131965F015524539444244394460E762E7094760CEF2C382C45
:2015A0003F18232D2E0DA501692DC60176DFEC860D875B86BA86A986D6011496ED91FC910F
:2015C0009E01275F3F4F41E06FE0C6010995E394E61438F3872D641408F480E08F5F880EDB
:2015E0000F5F0117D8F22D960FB6F894DEBF0FBECDBFDF91CF911F910F91FF90EF90DF90F4
:20160000CF90BF90AF909F908F907F906F905F904F903F900895CF92DF92FF920F931F9390
:20162000CF93DF9300D000D00F92CDB7DEB78C011C8281E08B837A836983D801ED91FC9115
:20164000F1881D82F801A081B181C480D5809E012F5F3F4F50964C916FE0C801F601099562
:201660008D818F5F8D838F1568F30F900F900F900F900F90DF91CF911F910F91FF90DF9026
:20168000CF900895CF93DF93CDB7DEB728970FB6F894DEBF0FBECDBF28E0E1E9F4E0DE01D6
:2016A000119601900D922A95E1F7BE016F5F7F4FB2DF28960FB6F894DEBF0FBECDBFDF915B
:2016C000CF910895DC011A96ED91FC9130E020E00994CF93DF93EC01EA85FB8530E020E008
:2016E00040E068E20995EE81FF8130E020E040E064E1CE01099541E06BE4CE01E3DFE881A7
:20170000F981448169E2CE01DDDF40E06BE4CE01D9DFE881F981448169E2CE01D3DF41E029
:201720006BE4CE01CFDFE881F981458169E2CE01DF91CF91C7CF87FF0CC09CE0980F92307D
:2017400040F0982F9B7F993F21F0803F18F4807F089580E00895982F9F7E282F2F7C2038ED
:2017600039F0803E29F081E0903C19F080E0089581E008957F928F929F92AF92BF92CF92E2
:20178000DF92EF92FF920F931F93CF93DF930F92CDB7DEB78C016111C8C11982FC01E8518B
:2017A000FF4F8081811102C0F12CC4C0D8018D919C91DC01ED91FC910280F381E02DBE0117
:2017C0006F5F7F4F0995F82E882371F3E9806801B3EECB0ED11CF60180819181009709F0C7
:2017E000DAC04801FEED8F0E911CD401EC925801BBEDAB0EB11CF5017080872D9CDFABDF58
:20180000882369F0E7FC0BC0D4017C92F801E152FF4FE08281E090E0F60191838083D401A3
:20182000EC908E2D88DFF801EF51FF4F803F09F494C0E0F4803C29F1A0F4803A29F038F436
:20184000982F9F7E903829F423E030E01CC0803BD9F3D6011D921C9211821082F501108268
:20186000A3CF803D71F0803E79F3F3CF863F09F44BC008F042C0823F39F3982F9D7F913F85
:2018800041F722E030E031832083D6012D913C9140815181BA01615071092617370708F455
:2018A00069C0D80113968C93BE2DBF70EB2EE394D801A652BF4F8C91E81AD8011296EC92B7
:2018C0001297A152BF4F8C91D80114968C9314974330510509F04BC0A052BF4F8C91D80131
:2018E00015968C93D6011D921C9211821082F801E659FF4F81E080831DC08D3F58F58A3F1C
:2019000018F4883F09F0A5CFD80113968C93139712961C92129714961C92149715961C92E1
:201920001597A659BF4F81E08C93D6011D921C92118210828F2D0F90DF91CF911F910F919A
:20194000FF90EF90DF90CF90BF90AF909F908F907F9008958E3FC0F67CCF24E630E0318387
:201960002083D5011C92D80116968C938ECF15961C92B8CF2F5F3F4FF60131832083F801FC
:20198000E752FF4F8081882309F40ECF60E0C801F1DEF82ECFCFE7FE0BC0F8EFEF1609F405
:2019A0006EC0FE1508F464C027EFE21609F478C0D801A252BF4F2C91F801E80FF91F203F84
:2019C00009F09AC0E6825801E1EEAE0EB11CF501808091809401215031098217930708F425
:2019E0009FC07C90F0EF7F1609F47CC0872DA3DEE82ED80113968C93AEDE882309F480C06F
:201A0000872D8F708F5FF801E652FF4F9081891BF8018283F801E152FF4F8081F801848378
:201A2000F3E08F16910409F06FC0F801E052FF4F8081D80115968C93D6011D921C92F5012A
:201A400011821082F801E659FF4F81E08083EF58FF4F20EBE21651F02E1508F458C080EADD
:201A6000E81621F08E2D8F7E8038D1F5708262CFACEFAE1588F0B9EFEB1609F499CFD80131
:201A80001396EC92139714961C92149715961C92159712961C922BCFEEEFEE1680F788CF6E
:201AA000F8012681203FF1F4E80FF91FE682D80113962C931397019615969C938E931497A3
:201AC00012961C92F801E659FF4F81E08083F60111821082F801EF51FF4F11821082369731
:201AE000108228CFD6011D921C92F801EF51FF4F118210823697B3CEE252FF4FE08263CF19
:201B0000D80112961C9286CFF801158295CFA0EEEA1609F4ABCF8E2D8F7E803C09F7A6CF4F
:201B20000196F601918380832ACFFC01E751FF4F8081882309F438CED8018D919C91680148
:201B4000B4EDCB0ED11CDC01ED91FC910680F781E02DB6010995F82E882309F425CEF6011E
:201B600080818295807F803609F4AEC010F5803409F481C0803509F44EC0803209F014CEE9
:201B8000F801EB52FF4F8081E956F109808331978F708F5FD801A652BF4F9C91891B80831C
:201BA000329614978C91808331961082EB59FF4FA1CE803B71F028F5803709F4ABC0803729
:201BC00008F4F2CD803A29F0982F9F7E903809F0EBCDF801E459FF4F80833197D801AB52F5
:201BE000BF4F8C918F708F5F15969C91891B8083329614978C918083319611968C9180832D
:201C0000D5CF803F41F008F0CFCD803C09F4B8CF803EF9F2C9CDF801EB52FF4FE080A80190
:201C200044595F4F980125593F4FD801AD52BF4FF7EFEF1659F0FA01E082F90110823296E9
:201C400010823196108281E08C9374CEB8016B517F4FFB0180819181080F191FF801E15903
:201C6000FF4FE0820196FB019183808380EFFA018083F901E7CFF801EB52FF4F40817096A2
:201C8000403F11F41182108220813181C801820F931FDC01A159BF4F4C93BC0160597F4F34
:201CA000A8014A525F4FDA014C91DB014C938F589F4FD801A952BF4F4C91DC014C932D5FE2
:201CC0003F4F3183208370CDF801EB51FF4F808191819801280F391FB90161597F4FA80139
:201CE0004B525F4FDA014C91DB014C9320593F4FD801AA52BF4F4C91D9014C9302969183FA
:201D00008083E957F10980EF808331971082E859FF4FF0CDF801EB52FF4F40817096403FA4
:201D200011F41182108220813181C801820F931FDC01A159BF4F4C93BC0160597F4FA80169
:201D40004A525F4FDA014C91DB014C938F589F4FD801A952BF4F4C91DC014C932D5F3F4F5C
:201D600031832083F801E459FF4FCDCFFC01862FE831F10598F4E75DF44F90818F77692F69
:201D80006F77860F21E087FF02C020E08FE79078211102C090830895982BFCCF8FEF0895B4
:201DA000FC01DC01A457BF4F8D919C911197AC014F5F5F4F4D935C938E0F9F1F27EFDC0127
:201DC00016962C93DF01A157BF4F8C91882349F0611107C08285823080F415968C918111F1
:201DE0000CC080819181BF016A5F7F4FDC01ED91FC910680F781E02D09940895EF92FF926E
:201E00000F931F93CF93DF93FC018A0180EF8683C281D381DF01A457BF4F82E090E01196A1
:201E20009C938E938881878383E090E011969C938E938981808784E090E011969C938E9399
:201E40008A818187222359F181E0828786E090E011969C938E9313867B0130E020E0E7019C
:201E60004881D2E0ED0EF11C8D919C911197BC016F5F7F4F11967C936E938E0F9F1FEC0194
:201E80004E832F5F3F4F0217130749F761E0CF01DF91CF911F910F91FF90EF9081CF1286BB
:201EA000D5CF0F931F93CF93DF93EC01E62FF0E08C010E0F1F1FD80114963C9181E090E07B
:201EC000A0E0B0E004C0880F991FAA1FBB1F4A95D2F7BF012223C1F0832BF8018483A88107
:201EE000B981F8019481957041E0953009F040E0ED91FC9111970190F081E02DCD01DF9196
:201F0000CF911F910F91099480958323D80114968C93E5CF6F927F929F92AF92BF92CF922D
:201F2000DF92EF92FF920F931F93CF93DF9300D000D000D00F92CDB7DEB78C01F62E942E59
:201F4000DC018D919C91662E712CDC01ED91FC910480F581E02DB3010995C82ED12CA6014D
:201F600062E0F80182819381D0D96C837D838E839F83672B682B692B09F45CC0D8018D917B
:201F80009C91DC01ED91FC910280F381E02D40E0B60109958983F80180819181DC01ED9141
:201FA000FC910280F381E02D41E0B60109958A83F80180819181DC01ED91FC910280F38124
:201FC000E02D42E0B60109958B8383E0FE0131966F015F01A80EB11C7801E60CF71CF4E1A0
:201FE000EF0EF11CD6016D916D01F801E60FF11D2481992021F12260248321E042E0C80113
:2020000050DFF7019082AC14BD0461F727960FB6F894DEBF0FBECDBFDF91CF911F910F918A
:20202000FF90EF90DF90CF90BF90AF909F907F906F900895F982FA82FB8281E0C7CF822F40
:202040008D7F84832170DACFDC019B011896ED91FC9141E067E10994DC011696ED91FC9167
:2020600030E020E040E069E10994DC011696ED91FC9130E020E040E068E10994DC019A0127
:202080001696ED91FC91462F67E10994EF92FF920F931F93CF93DF930F92CDB7DEB77C01BE
:2020A0008B01D8016C916A31A0F4683130F56731D1F0653180F0F80141814983D701169667
:2020C000ED91FC9130E020E0C70109950E5F1F4FE8CF6E3FF1F00F90DF91CF911F910F91A0
:2020E000FF90EF900895F80181818983AE014F5F5F4F61E0C701C2DFE9CF0F5F1F4FD7010D
:202100001696ED91FC9130E020E040E0C7010995C8CFF8014181498369E2C701D3DAD6CFEF
:20212000DC01462F1696ED91FC9130E020E066E10994DC01462F1696ED91FC9130E020E089
:2021400065E10994EF92FF920F931F93CF93DF93EC01142F79016E3099F168F46B30A9F000
:202160006D30E1F0693009F45BC06A3031F4B1DA6AE376E010C06F3069F180E0DF91CF915A
:202180001F910F91FF90EF90089565E376E0442311F060E376E0CE0179DF09C0411109C09A
:2021A00069E276E073DFE881F98182898C8B81E0E5CF62E276E06ADFE881F9818389F6CF7B
:2021C00054DF61E8CE01B5DF612FCE01A9DFCE0143DFEDCF4ADFF7010381000F000F000FBA
:2021E0006C89060F60E4CE01A4DF602F62956F706061CE019EDF602F6F70CE0191DFF70128
:202200006481606BCE018CDFF701408151816281660F660F660FCE0131DF1150A9F7D7CF81
:202220008FE696E0998388831C8AC1CFEF92FF920F931F93CF93DF93EC01142F79016930D9
:2022400039F48AE096E0998388831C8A81E009C06D3009F442C060F46A3091F16B30B1F131
:2022600080E0DF91CF911F910F91FF90EF9008956E3009F443C06F3099F7F7DEF701038115
:20228000000F000F000F6C89060F602F62956F706061CE014EDF602F6F70CE014ADFF70187
:2022A0006481606BCE0145DFF701408151816281660F660F660FCE01E1DE1150A9F725C03A
:2022C00008DA65ED75E0CE01E1DEC0CF60ED75E04423C9F36BEC75E0F6CF411108C064ECB8
:2022E00075E0D4DEE881F98182898C8BAFCF6DEB75E0CCDEE881F9818389F7CFB6DE61E86B
:20230000CE0117DF612FCE010BDFCE01A5DE9ECFDC011896ED91FC9130E020E040E069E1E0
:202320000994DC011896ED91FC9130E020E040E068E10994CF93DF930F92CDB7DEB76983DA
:20234000BE016F5F7F4F80DE0F90DF91CF910895FF920F931F93CF93DF93EC01162FF42EAB
:20236000052FDFDF60E4CE01E5DFE885F9852F2D302F412F67E1CE010995CE01DF91CF912A
:202380001F910F91FF90C4CFEF92FF921F93CF93DF93EC01142F7901673119F1A8F46431B6
:2023A00039F165516230A0F4BCDF60E0CE01C2DF612FCE01BFDFCE01ABDF81E0DF91CF9145
:2023C0001F91FF90EF900895685181E06230B0F380E0F4CF68E1CE01BBDF185188E1E80EB6
:2023E000F11CA7011931B0F7612FCE01B1DFE5CF8E898F3F11F488E78E8BE885F98597019F
:20240000412F64E1CE01DF91CF911F91FF90EF900994DC01ED91FC910480F581E02D099481
:20242000DC01ED91FC910280F381E02D0994FC01862FBA01309709F009940895CF92DF92DB
:20244000EF92FF92CF93DF9300D000D000D0CDB7DEB78D839E836A017B01AD81BE8157969B
:202460008D919C91DC01ED91FC910280F381E02D0995C616D706E806F90630F4ED81FE81D1
:20248000C186D286E386F48626960FB6F894DEBF0FBECDBFDF91CF91FF90EF90DF90CF900B
:2024A0000895CF93DF9300D000D0CDB7DEB7FC0185A596A56817190618F567A721A532A53A
:2024C00043A554A5A62FB0E00E94035469837A838B839C8345A156A167A170A589819A8188
:2024E000AB81BC81480F591F6A1F7B1FCF01A6DF81E00F900F900F900F90DF91CF910895E2
:2025000080E0F7CFCF92DF92EF92FF92CF93DF9300D000D000D0CDB7DEB78D839E8340E003
:2025200050E0BA018D819E8189DF48E06AE474E08D819E810E94AA0521E030E041E060E061
:202540008D819E810E9450096B017C0147E061E574E08D819E810E94AA05ED81FE81A7A5F2
:2025600021A532A543A554A5B0E00E94035469837A838B839C8345A156A167A170A589813A
:202580009A81AB81BC81480F591F6A1F7B1FCF0155DF81E0CD28CE28CF2809F480E0269665
:2025A0000FB6F894DEBF0FBECDBFDF91CF91FF90EF90DF90CF9008954F925F926F927F92A7
:2025C0008F929F92AF92BF92CF92DF92EF92FF920F931F93CF93DF9300D000D0CDB7DEB752
:2025E0006C01542E652E762EF72E48015901DC01ED91FC910084F185E02D09958823E9F0DC
:20260000D601ED91FC910680F781E02D0E2D9E012F5F3F4F452D562D672D7F2DC60109953D
:20262000882359F081E049815A816B817C81481559056A057B0509F080E00F900F900F90D7
:202640000F90DF91CF911F910F91FF90EF90DF90CF90BF90AF909F908F907F906F905F9006
:202660004F9008952F923F924F925F926F927F928F929F92AF92BF92CF92DF92EF92FF92A0
:202680000F931F93CF93DF9300D000D0CDB7DEB71C01690147015801DC015596ED91FC915E
:2026A00056973097C1F480E00F900F900F900F90DF91CF911F910F91FF90EF90DF90CF90D9
:2026C000BF90AF909F908F907F906F905F904F903F902F9008958C91681728F7B7E06B9FBB
:2026E000E00DF11D112480814817E8F661807280EBE04E9F600C711C1124D3018D919C9194
:202700002817390780F6C1010E94B607462F572FBC01F3018281823009F478C008F046C00F
:20272000811163C08FEF9FEFDC01F101828F938FA48FB58F7601B3E0F694E794BA95E1F729
:202740002A013B014E0C511C611C711C8789908DDC01ED91FC910680F781E02D00E09E01A2
:202760002F5F3F4FB301A2010995882309F49BCFEE0CEE0CEE0CCE18F101EC0DF11D2585BF
:2027800089819A81AB81BC8180FE23C0822B89839A83AB83BC8309811A812B813C81E12C6C
:2027A000B301A201F1018789908D2EC0833009F47BC0843009F077CFCC0CDD1CCC0CDD1C35
:2027C0004C0D5D1D611D711D94E0E92E98018401E9CF30E020953095A901330F660B770B50
:2027E00084239523A623B723D2CF980187011127222733274C0D5D1D611D711DEE24E394D2
:20280000D10157968D919C91D7DE4ECF8FEF9FEFDC01F101828F938FA48FB58FC601969565
:2028200087952A013B01480E591E611C711C8789908DDC01ED91FC910680F781E02D02E03C
:202840009E012F5F3F4FB301A2010995882309F42ACF950187010F701127222733278981A5
:202860009A81AB81BC81C0FE1AC08F709927AA27BB2744E0000F111F221F331F4A95D1F72D
:20288000802B912BA22BB32B89839A83AB83BC8309811A812B813C81A2E0EA2E81CF807F19
:2028A0009927AA27BB27ECCF9801870122273327CC0CDD1C4C0D5D1D611D711DF3E0EF2E86
:2028C0009FCFDF92EF92FF920F931F93CF93DF9300D000D000D0CDB7DEB78D839E83D62E21
:2028E000AD81BE819D968D919C916817190680F010E0812F26960FB6F894DEBF0FBECDBF3C
:20290000DF91CF911F910F91FF90EF90DF900895ED81FE8167A740E050E0BA01CF018EDD3C
:2029200048E06AE474E08D819E810E94AA058D2D90E0B0E0A0E089839A83AB83BC837C0102
:202940008D0130E020E041E060E08D819E818ADE182F47E061E574E08D819E810E94AA055D
:20296000ED81FE81A7A521A532A543A554A5B0E00E94035469837A838B839C8345A156A124
:2029800067A170A589819A81AB81BC81480F591F6A1F7B1FCF0152DD112309F4A9CFAD81C4
:2029A000BE8192968D919C91DC01ED91FC910190F081E02D6D2D09959CCFEF92FF920F9317
:2029C0001F93CF93DF9300D000D000D0CDB7DEB78D839E83162F40E050E0BA018D819E813A
:2029E0002DDD48E06AE474E08D819E810E94AA05812F90E0B0E0A0E089839A83AB83BC83BF
:202A00007C018D0121E030E041E060E08D819E8129DE182F47E061E574E08D819E810E942E
:202A2000AA05ED81FE81A7A521A532A543A554A5B0E00E94035469837A838B839C8345A1AB
:202A400056A167A170A589819A81AB81BC81480F591F6A1F7B1FCF01F1DC812F26960FB614
:202A6000F894DEBF0FBECDBFDF91CF911F910F91FF90EF9008952F923F924F925F926F92A4
:202A80007F928F929F92AF92BF92CF92DF92EF92FF920F931F93CF93DF93CDB7DEB7609725
:202AA0000FB6F894DEBF0FBECDBF8F87988BAF85B88992968D919C91DC01ED91FC91028044
:202AC000F381E02D0995EF85F8898789908DDC01ED91FC910480F581E02D09958A87811185
:202AE0001BC01A868A8560960FB6F894DEBF0FBECDBFDF91CF911F910F91FF90EF90DF9072
:202B0000CF90BF90AF909F908F907F906F905F904F903F902F900895EF85F88984A18823AE
:202B200009F4DBC185A596A59C0121503109398728878885998597FD6CC168858F859889D2
:202B4000B0DC882371F21F82AF85B8898C91BF81B81708F017C1E7E0BE9FF0011124FC87FC
:202B6000EB87F12CAF85B8895596ED91FC9156972B853C85E20FF31F8081F81608F0FEC035
:202B80009BE0F99EC00111249E878D87C180D280C80ED91E4F2D6F81CD010E94B6072B01CF
:202BA0003C01D6011296BC91B983F6010480F581E02DFE83ED83D6012D903C90B981B23065
:202BC00009F49CC0E8F5BB2309F456C0D12CC12CED81FE814F01B12CA12CAF85B88955969D
:202BE000ED91FC9156972B853C85E20FF31F2C143D0451F157968D919C910180F281E02D6D
:202C0000AD85BE85EA0FFB1F26812223F9F00D811E810C0D1D1D30E020E0E980B301A20107
:202C2000CBDC882309F45DCFB981B13099F4EFEF4E1A5E0A6E0A7E0A9FEFC91AD90ACDCFD3
:202C400089818350823010F2F3948CCFE98095018401E4CFF981F33031F422E0420E511C49
:202C6000611C711CE9CF3981343031F784E0480E511C611C711CE0CF81E090E09101277072
:202C80003327232B09F480E0410153E0969487945A95E1F7880E991EB12CA12CD12CC12CCD
:202CA0008C149D0489F200E090E080E09501280F391F2215330538F4000FAD810A2B0196DF
:202CC0008830910599F710E030E020E0EE24E394B301A201EF85F8898789908D6DDCF8E0F3
:202CE000AF0EB11C882309F4FCCE2FEF421A520A620A720A3FEFC31AD30AD2CFC1018170DE
:202D00009927410196948794880E991E8D8189838295807F9D81982B9D83AA24A394B12C0C
:202D2000D12CC12C8C149D0409F48ECFC601880F991F00E08215930528F40981A214B304D6
:202D400008F40D8110E030E020E0EE24E394B301A201AF85B88957968D919C912DDCB2E0C1
:202D6000AB0EB11C882309F4BCCEEFEF4E1A5E0A6E0A7E0AFFEFCF1ADF0AD4CF2F812F5F4C
:202D80002F83E2CE812C912C540185017401940142E061E08F85988965DC3FEF831A930A41
:202DA000A30AB30A80E188169104A104B10469F7812C912C54019401205F3F4F85017401FF
:202DC00042E061E08F8598894DDC9FEF891A990AA90AB90AA8E08A169104A104B10459F781
:202DE000812C912C540185017401940141E064E08F85988937DCBFEF8B1A9B0AAB0ABB0A65
:202E0000E0E18E169104A104B10469F7288539858CCE60E08F859889D0DD882309F461CE40
:202E20008F8598890E945A048C0140E050E0BA018F85988903DB48E06AE474E08F859889B3
:202E40000E94AA05C801B0E0A0E089839A83AB83BC8378018D0130E020E040E060E08F8527
:202E6000988900DC182F47E061E574E08F8598890E94AA05EF85F889A7A521A532A543A501
:202E800054A5B0E00E94035469837A838B839C8345A156A167A170A589819A81AB81BC8112
:202EA000480F591F6A1F7B1FCF01C8DA112309F418CE60E08F85988904DD882309F411CEBA
:202EC000AF85B88992968D919C91DC01ED91FC910480F581E02D099505CE60E08F85988935
:202EE000E0DAEBCFFC01DC01A751BF4F8C91882349F080819181DC01ED91FC910084F18588
:202F0000E02D09940895FC01DC01A851BF4F8C91882349F080819181DC01ED91FC91048009
:202F2000F581E02D09940895FF920F931F93CF93DF9300D000D0CDB7DEB78C01F62EE3DFEF
:202F40001C821B828FE08983FA82BE016F5F7F4FC801C8DF0F900F900F900F90DF91CF9128
:202F60001F910F91FF9008956D3F28F46A3F10F4683F19F4D9CF6E3FE8F70895CF92DF9209
:202F8000EF92FF920F931F93CF93DF9300D000D0CDB7DEB77C01162FFC01E652FF4F8081F8
:202FA0008823A1F10031B0F50F5F17FF33C0113E08F045C0C42EE894C7F8D22EE894D7F8C3
:202FC0000150012BF701E852FF4F8081882329F034968081801721F00083602FC70193DF70
:202FE0006C2DC70190DF812F8F7E803C19F06D2DC70189DF12951F7019830A83CB82DC82AB
:20300000BE016F5F7F4FC7016DDF0CC08FEF800F803158F2F701E852FF4F8081882311F040
:20302000349610820F900F900F900F90DF91CF911F910F91FF90EF90DF90CF900895163FCA
:2030400088F3612FC7010F900F900F900F90DF91CF911F910F91FF90EF90DF90CF9084CFD2
:203060000F93022F242F462F60EB88DF0F9108950F93042FFC01E951FF4F2081213031F455
:2030800020E0462F60E87ADF0F91089520E0462F60E9F9CFFC01CB012481DF01A457BF4F00
:2030A000223091F4462F990F9E7787FD91602D913C911197E20FF31F96832E5F3F4F2D9368
:2030C0003C934F7747830895603F710541F0673F710529F06038710510F08FE790E02D91C7
:2030E0003C911197A9014F5F5F4F4D935C93E20FF31F868308952F923F924F925F926F9278
:203100007F928F929F92AF92BF92CF92DF92EF92FF920F931F93CF93DF93CDB7DEB7A69758
:203120000FB6F894DEBF0FBECDBF7C018B016A019C0120573F4F3C8B2B8BD9018D919C9190
:20314000009709F46CC4F701EE56FF4F4080442009F465C44830510508F461C4FB0120814B
:20316000203F09F05CC49A0121503109E20FF31F4081473F09F053C4F6E8CF16D10408F0A7
:203180004EC4A7014D565F4F5A8F498F41E0A98DBA8D4C93F701EC56FF4FFF83EE8343E048
:2031A0004083A7014B565F4F5987488742E0A885B9854C933701B6E96B0E711CF3011082D7
:2031C0004701F7E98F0E911CD4011C925701B8E9AB0EB11CF501108231961182108232963F
:2031E00011821082DB01E559F109A601460F571FBF015D9051924A175B07D9F71701FCE805
:203200002F0E311CD1012D933C93D7011296ED91FC91139717963C91179720813213FFC3BE
:2032200018963C91189721813213F9C319963C91199722813213F3C31A962C911A97222394
:2032400021F082E01A968C932CC1B8E0CB16D10409F4A9C3EBE0CE16D10428F48BE0D701A5
:203260001A968C9309C0F701E257FF4F5080511011C083E0F701828783E0EE81FF8180837C
:2032800082E0A885B9858C93F3011082D4011C92F501DBC0D80115966C911597F5016083A2
:2032A00016962C91AE81BF812C93D8011796EC91A885B985EC93D80118964C91D3014C9373
:2032C000D80119963C91D4013C93233010F084E0D1CF441510F086E0C2CFDC01F3E04F9FB0
:2032E000A00DB11D11248C91381710F087E0B7CFE23010F085E0BECF82E8860F823008F018
:2033000045C02D7F09F07BC0D70114968C9190E0880F991F0B96C816D90609F09FCF81E044
:20332000D7011A968C931A97E11120C0F801628514962C91C70187569F4F223009F063C01B
:2033400043850E949F05EE81FF818081813071F4D70114962C91C70185569F4FF80122303E
:2033600009F056C0458564850E949F05F701E457FF4F4080AE81BF818C91982F9D7F09F498
:20338000FCC0512C1C86B1E0B98B2DC1E130A1F511960D90BC91A02DF7E03F9FA00DB11D5A
:2033A00011241696FC9116976F1748F52E2720FDABCF2D913C91D70115964C9150E04217CF
:2033C000530788F4862F90E0BC016F5F7F4FF6171706B9F4849FB001859F700D949F700D9D
:2033E0001124261B370BD70114964C91429FC001439F900D11248ECF662309F485CF88E0C1
:203400002ECF9A01F0CF70E0DC016D937C939BCFE20FF11D228530E0DC012D933C93A6CF18
:20342000F701E257FF4F8081811104C083E0F701828737C0108281E0D7011A968C93F701C9
:20344000E157FF4F8081882361F110822AC091E0F701E257FF4F9083843011F431969083D6
:2034600081E0E5CFF701E257FF4F80818823F1F281E0F70182872481223031F488E090E0D3
:20348000D1018D939C931586F10180819181AC014F5F5F4F518340838E0D9F1DDC011696EB
:2034A0002C9360E0C701A6960FB6F894DEBF0FBECDBFDF91CF911F910F91FF90EF90DF9025
:2034C000CF90BF90AF909F908F907F906F905F904F903F902F900C94D00EF701E257FF4F4A
:2034E0008081882309F4A2CF81E0F70182878481823021F4D101CD92DC921586F101808157
:2035000091819C012F5F3F4F318320838E0D9F1DD70115962C91FC012683C3CFD701A257E9
:20352000BF4F8C91811103C0828181117FCF81E0D7011A968C931A9714968C9114978983F1
:203540006A837B833D822C828D919C9160817181DC01ED91FC910480F581E02DAE014F5FA9
:203560005F4F0995813029F0823009F09ACF8DE054C28EE05CCF84E05ACFD5019C9122E86B
:20358000290F223008F0D7C0F3012081AB89BC89ED91FC91B3E02B9FE00DF11D1124D40197
:2035A0002C910180F281E02DB7E02B9FE00DF11D11242681298B31E03C879E3709F01C861D
:2035C000823089F4D7011A961C921A9781E01C968C931C97EE81FF811082CA9414968C914A
:2035E000880F4C2C481A712C612CAA24A394B12C912C812C970124573F4F3AA329A3A701F2
:203600004B565F4F5E8F4D8FC7018A569F4F9E878D87D701A956BF4FB88BAF87F701EC562B
:20362000FF4FFCA3EBA3215F3F4F3B872A874C5F5F4F58A34F8F5A855DA38B858EA399891A
:203640009615170409F00CF452C1842D90E0A9A1BAA18D939C93552031F0F701E856FF4F69
:203660006082F7016386AD8DBE8D8C91813041F5F7018581E856FF4F9081989F40011124B6
:20368000AD85BE859C91AB89BC89ED91FC91B3E09B9FE00DF11D1124AF85B8899C910180E4
:2036A000F281E02DB7E09B9FE00DF11D1124880D992D911DA080B1808A159B0508F45C0197
:2036C0006401EAE0EA8B970120573F4F3C8F2B8FCA14DB0408F003C1AD8DBE8D8C91EBA17D
:2036E000FCA1908191117BC0AF85B8894C91ED85FE856081811145C0AF8DB8A12D913C9160
:20370000AB8DBC8DED91FC91B3E06B9FE00DF11D11240180F281E02D57E0459FE00DF11D39
:203720001124808191812817390750F089E0D7011A968C9339C0512C1C8641E0498B40CF56
:203740001A821982F70180819181DC01ED91FC910190F081E02D8E010F5F1F4F0995813076
:2037600001F1823009F485C0811104C069817A81C70190DCBFEFCB1ADB0AEA89EE5FEA8B47
:20378000A7CF1A821982F70180819181DC01ED91FC910190F081E02D8E010F5F1F4F960178
:2037A000DDCF8EE0F701828781E0A98DBA8D8C9383E0EE81FF81808382E0A885B9858C93B0
:2037C000F701EA56FF4F1082319610823196108231961182108232961182108262CE811184
:2037E0004CC0EF8DF8A10190F081E02DFE8BED8BAD85BE85BC91BF8BEF85F889F081F88F9F
:20380000AB8DBC8DED91FC91BF8923E0B29FE00DF11D11240180F281E02D388D47E0349F90
:20382000E00DF11D112480819181AD89BE89A817B90708F07BCFC7010E946E05811102C0D6
:203840008AE0B0CFD7018D919C91EA85FB8500811181DC01ED91FC910280F381E02D2D89B9
:203860003E89488D6F890995813029F0823009F081CF8DE05CCF8CE095CF8C2D8819F70197
:203880009481923019F52A89E20FF11D478166818DA19EA10E949F05C7010E946E058823A7
:2038A00079F2F70180819181AA85BB850D911C91DC01ED91FC910280F381E02D9601AF8522
:2038C000B8894C91AD85BE856C91CDCFE80FF11D808990E0AA85BB858D939C93DDCF60E094
:2038E000C7010E94D00EFFEF6F1A7F0AA8CE2C85222309F494C080EFD70116968C93169704
:203900001296ED91FC9182E090E0D1018D939C938081D70117968C9383E090E0D1018D9397
:203920009C938181D70118968C9384E090E0D1018D939C938281F701818781E082878EE7DA
:203940008387AE81BF818C918487E885F9858081D7011D968C931D97F701EA56FF4F8081F5
:20396000F7018687E956FF4F80811F968C931F9750961C9250978CE090E0F10191838083CA
:2039800051961C92519714968C911497823009F088CD52961C9252978EE090E091838083C4
:2039A00053961C927ECDF7018485833009F495CD50F5813009F44BCD823009F453CD88238D
:2039C00009F42ECDF701E156FF4F0081118150E040E030E020E0D701A356BF4F90E0021797
:2039E000130709F4C8CDED91FC911197E40FF51F4D5F5F4FC080D180C816D90609F48ECD61
:203A00002F5F3F4FECCF843009F421CD8530D1F6F701E157FF4F108281E0D70113CCA69650
:203A20000FB6F894DEBF0FBECDBFDF91CF911F910F91FF90EF90DF90CF90BF90AF909F9086
:203A40008F907F906F905F904F903F902F90089530E020E041E060E00E945009CB0108956B
:203A6000CF93DF9300D000D0CDB7DEB7262F30E040E060E00E94500969837A838B839C83E3
:203A800081E029813A814B815C81232B242B252B09F480E00F900F900F900F90DF91CF9121
:203AA00008958FBF08958FB7F8941092C8001092C9001092CA001092CD001092CC00F1DFBE
:203AC00081E00895CF92DF92EF92FF920F931F93CF93DF93EC018B018FB7F8947E0198E694
:203AE000E90EF11CF701C080D180DBDF80E0CD2809F12FB7F894FE01EA59FF4F608171815B
:203B0000329780819181860F971FF70140815181841B950B0E943059C80FD91F8881F801B8
:203B20008083F70180819181019791838083822FB8DF81E0DF91CF911F910F91FF90EF90F1
:203B4000DF90CF900895FB01108280E69FE0BACF8F929F92AF92BF92DF92EF92FF920F93F5
:203B60001F93CF93DF93EC01D62E8FB7F8948E0108591F4FD8018D909C907E01B6E6EB0E68
:203B8000F11CF701A080B1808CDF80E08A149B04D8F42FB7F894FE01EC59FF4F80819181E4
:203BA000C80FD91FD8820196D7016D917C910E94305991838083F801808191810196918369
:203BC0008083822F6EDF81E0DF91CF911F910F91FF90EF90DF90BF90AF909F908F9008956D
:203BE000CF93C62F6C2F86EF9EE0B2DF8823D1F31092F50E8091C90080628093C90081E042
:203C0000CF9108951092CA0F8FB7F8941092C50F1092C40F1092C90F1092C80F42DF8FB715
:203C2000F89410925B0F10925A0F10925F0F10925E0F37DF81E08093F50E1092F40E0895F4
:203C4000CF93DF93EC018A81882329F02CDF8111D9DF1A821B82DF91CF9108951F93CF93C5
:203C6000DF93EC01162F8A81882339F08B81861322C0DF91CF911F9108958091F40E811178
:203C80001AC011DF8823B9F0BDDF8823A1F00BDF882389F01092C8008FE190E09093CD00E6
:203CA0008093CC0086E08093CA0088ED8093C90081E08093F40E1093CA0F81E08A831B8393
:203CC000D8CFCF93DF9300D000D0CDB7DEB78FB7F8942091FA0F3091FB0F4091FC0F50919C
:203CE000FD0F29833A834B835C83DBDE69817A818B819C810F900F900F900F90DF91CF918F
:203D00000895CF92DF92EF92FF920F931F93CF93DF9300D000D000D0CDB7DEB78C016983F8
:203D20007A83790189819A81409790F0D9014C9381E026960FB6F894DEBF0FBECDBFDF9103
:203D4000CF911F910F91FF90EF90DF90CF900895E981FA81EE0FFF1FEE0FFF1FFE83ED832E
:203D6000442351F081E0D9018C93E00FF11F1282138214821582DCCFCD80DE80C00ED11ED9
:203D8000F60182819381A481B581892B8A2B8B2B41F497DFD60112966D937D938D939C9312
:203DA00015978FDF69837A838B839C83ED81FE81E00FF11F82819381A481B58129813A8110
:203DC0004B815C81281B390B4A0B5B0BDA01C9010697A105B10518F0D7011C92A9CF81E0F3
:203DE000F7018083A5CF0F931F93CF93DF9300D000D000D0CDB7DEB7FC0120813181428190
:203E00005381DA018D919C91D901A80FB91FA956BF4F1C924081518122813381D9012D9102
:203E20003C9164817581DB018C91DA01A20FB31FA158BF4F8C934081518122813381D90199
:203E40008D919C9166817781DB012D913C91880F991FDA01A80FB91FA957BF4F2D933C937B
:203E60002081318142815381DA018D919C91880F991FD901A80FB91FA159BF4F1D921C9215
:203E8000208131813E832D830280F381E02D0081118117DF69837A838B839C83000F111FFD
:203EA000000F111F8D819E81800F911F81569F4FFC0189819A81AB81BC8180839183A283CB
:203EC000B38326960FB6F894DEBF0FBECDBFDF91CF911F910F9108958F929F92AF92BF9208
:203EE000CF92DF92EF92FF921F93CF93DF9300D000D000D0CDB7DEB76D836A01790184EA8C
:203F00008093BC00DEDEDDDE4B015C018091BC0087FD22C0D6DE69837A838B839C83DC01D8
:203F2000CB0188199909AA09BB090B97A105B10568F380E026960FB6F894DEBF0FBECDBF3F
:203F4000DF91CF911F91FF90EF90DF90CF90BF90AF909F908F9008958091B900887F883003
:203F600011F0803131F78D818093BB0084EA8093BC00A7DE4B015C018091BC0087FD10C0FF
:203F8000A0DE69837A838B839C83DC01CB0188199909AA09BB090B97A105B10568F3C9CF39
:203FA0008091B900887F883119F0803409F0C1CFCD82DE82AD80BE80AE0CBF1C14E8ED8118
:203FC000FE81EA15FB0541F18191FE83ED838093BB001093BC008091BC0087FFFCCF71DE94
:203FE0006B017C018091BC0087FD10C06ADE69837A838B839C83DC01CB018C199D09AE09AE
:20400000BF090B97A105B10568F393CF8091B900887F8832A1F28DCF8091BC0080618093E2
:20402000BC004FDE6B017C018091BC0084FD10C048DE69837A838B839C83DC01CB018C1906
:204040009D09AE09BF090B97A105B10568F371CF81E070CFDF92EF92FF920F931F93CF93C9
:20406000DF93CDB7DEB72C970FB6F894DEBF0FBECDBF082FF62ED72EE090250CEE2009F49F
:2040800048C01FDE69877A878B879C87202F30E044E0049F80011124F801EC5AF34F808197
:2040A0009181A281B38149855A856B857C85481B590B6A0B7B0BDB01CA01853F9140A10555
:2040C000B10538F189E490E09A8389833C832B838D2D90E0880F991F8F77F7FC816090E0CB
:2040E0009E838D836F2D6F7770E078876F8321E044E050E0BE016F5F7F4F87E99BE00E948F
:20410000FE0EDFDDF801EC5AF34F60837183828393838E2D2C960FB6F894DEBF0FBECDBFA0
:20412000DF91CF911F910F91FF90EF90DF9008958F929F92AF92BF92CF92DF92EF92FF927D
:204140000F931F93CF93DF9300D000D000D0CDB7DEB74C01DC0195968D919C919697892B2D
:2041600039F094968C918823B1F0813009F476C026960FB6F894DEBF0FBECDBFDF91CF91CC
:204180001F910F91FF90EF90DF90CF90BF90AF909F908F90089595DD69837A838B839C83F2
:2041A0008401085B1F4FF80180819181A281B38129813A814B815C81281B390B4A0B5B0BF6
:2041C000DA01C90184369105A105B10588F279DDD8016D937D938D939C9313978401035CF8
:2041E0001F4FF12CE12CCC24C394F80181918F018F5F8293D40195962D913C91D901AE0D22
:20420000BF1D9C91891710F1D8011E968C911E978C251E968C9310825401B4E0AB0EB11C10
:20422000D12CF50181915F0181FF0CC087858E151F0441F4D8011E962C9142E06D2DC401FB
:204240000E94510FD394B0E1DB12EBCFEFEFEE1AFE0AFBE0EF16F10441F68ACF6111BECF6B
:2042600087CFCF93DF93EC01CA01DB014E855F856889798984179507A607B70740F41C8262
:204280001D821E821F82188619861A861B868E879F87A88BB98B15DD6C837D838E839F83FA
:2042A00010DD688779878A879B87DF91CF910895CF93DF93FB01EA01683020F080E0DF914F
:2042C000CF9108958FB7F894FF27EE0FFF1FE250F04F2081318139832883208131813F779A
:2042E00031832083DEDB8881998197FFE7CF9F779983888381E0E3CF8091F90F882339F101
:204300008FB7F8949091B60E9F5F9093B60E9A3011F41092B60EE091B60EF0E0EE0FFF1FAC
:20432000E052F04F90819093B30EE091B60EF0E0EE0FFF1FE052F04F91819093B40E90916E
:20434000F90F91509093F90FACDB81E0089580E008959C01803158F48FB7F8943327F90107
:20436000E553F04F608391E09093DF0F9ACB0895982F9093E900242F762F50E0891731F0A3
:204380007091EC002091ED005091F00021FD06C09F5F973071F78093E90008953091EB006B
:2043A0003E7F3093EB003091ED003D7F3093ED003091EB0031603093EB007093EC002093EB
:2043C000ED005093F0002091EE0027FDE1CF0895F89484B7877F84BF809160008061809398
:2043E0006000109260008FE19EE40197F1F700C000001FBA10BE1CBC1DBA10926800109227
:204400007A0010926E0010926F0010927000109271001092C8001092C9001092CA001092F9
:20442000BC0012B815B818B81BB81EB811BA11B814B817B81AB81DB810BA8091E00081603E
:204440008093E00088E198E00FB6F894A895809360000FBE90936000FFCF8091E70E8111D1
:20446000B7CF0895CB0130E020E0EFE9FFE03197F1F700C000002F5F3F4F28173907A9F7DB
:204480000895EF92FF920F931F93CF93DF93F89484B78D7F84BF84B7877F84BF0FB6F8945A
:2044A000A89580916000886180936000109260000FBE80E890E00FB6F89480936100909363
:2044C00061000FBEE7ECF6E047E057E061E070E0A081B181ED018A9192819B0101C0220F19
:2044E0009A95EAF7922F9095982398838C91822B8C9334964E175F0759F7E7E8F6E041E05C
:2045000050E0A081B181ED012A918281BA0102C0660F771F8A95E2F7CB01922F982B988381
:204520009C91809589238C93349676E0E73CF70741F7E7E0F7E047E257E0DF0101E010E046
:20454000ED90FC901197E7016A919E0112968C911297E80102C0CC0FDD1F8A95E2F7CE0171
:204560008095962F9823E9019883E70198818923888314964A175B0719F76C98749A21E059
:2045800030E0A081B18192816C9181B368130CC0983050F480917E00B90101C0660F9A9573
:2045A000EAF7862B80937E0034964E175F0749F710927C0010927A0080917A008760809344
:2045C0007A0080917C00806480937C0080917A00806880937A0091B381B39813BDC090E051
:2045E00080917C00807F9F70892B80937C0083E090E020917A00206420937A0020917A0003
:2046000026FDFCCF2091780030917900019789F780917A00886080937A0080917A008064C2
:2046200080937A0081E08093E80E91E89093E90E20E430E03093EB0E2093EA0E8093ED0E67
:2046400092E09093EE0E3093F00E2093EF0E8093F20E9091D8009F7E9093D8009091D7003C
:2046600091609093D7008093B50E8091D8008C7F8093D8001092E2001092DA001092E10017
:204680008091D8008F778093D8008091D80080688093D8008091D8008F7D8093D800809193
:2046A000D70080688093D70019BC109213101092121010921110109210108091E0008B7F73
:2046C0008093E0008091D80081608093D80042E060E080E04DDE8091E1008E7F8093E10052
:2046E0008091E20081608093E2008091E20088608093E2008091E0008E7F8093E00080911F
:20470000D80080618093D80014BC15BC10926E0084B5826084BD85B5836085BD8CE787BDD2
:2047200080916E00826080936E0078946AE070E080E090E097DE8FB7F8941092F80F10928F
:20474000B60E1092F90FADD981E0DF91CF911F910F91FF90EF9008959FEF42CFCF93DF93C6
:20476000D0E0C0E060E0CE010E94F4582196CF3F8FE0D807B9F781E0DF91CF910895CF92FA
:20478000DF92EF92FF920F931F93CF93DF9300D000D000D0CDB7DEB78D839E83F62EE42E7E
:2047A000AD81BE818D919C91C62ED12CDC01ED91FC910480F581E02DB6010995082F10E0E5
:2047C000A80162E0ED81FE81828193810E94850969837A838B839C83672B682B692B09F4EE
:2047E00058C0AD81BE818D919C91DC01ED91FC910280F381E02D40E0B8010995F82EED81F3
:20480000FE8180819181DC01ED91FC910280F381E02D41E0B8010995D82EED81FE818081AF
:204820009181DC01ED91FC910280F381E02D42E0B8010995182FEE2031F1ED81FE81EF0DA2
:20484000F11D84818D60848321E044E06F2D8D819E810E94510F6D2D8D819E810E94890966
:20486000612F8D819E8126960FB6F894DEBF0FBECDBFDF91CF911F910F91FF90EF90DF90DB
:20488000CF900C9489096F2D8D819E810E948909E2CFEE20E1F0ED81FE81EC0DFD1D8481F5
:2048A0008560848320E043E06F2D8D819E8126960FB6F894DEBF0FBECDBFDF91CF911F919D
:2048C0000F91FF90EF90DF90CF900C94510F6F2DC8CF3F924F925F926F927F928F929F9222
:2048E000AF92BF92CF92DF92EF92FF920F931F93CF93DF93CDB7DEB763970FB6F894DEBF19
:204900000FBECDBF6C01162FB22E8E2CA22EA2949FE0A922342E32942FE0322228E72B15C8
:2049200008F44EC08B2D6BE00E94A6538D83F12CE12C802F90E0B0E0A0E08A879B87AC8700
:20494000BD87842F90E0B0E0A0E08E839F83A887B987992493949B0C2B2D30E050E040E0FB
:204960002E873F87488B598B012F0F7EA70165E0D60112968D919C910E94850969837A8378
:204980008B839C832A853B854C855D85621773078407950709F0C6C0A70163E0D6011296C5
:2049A0008D919C910E948509882081F1663058F46430F8F4613091F06330B1F01B8A3FC016
:2049C0003AE03D83B4CF6730D1F06930B9F7103BA9F781E08B8B91E09A8B32C0B1E0BA8B19
:2049E000003859F01A8A09C0E1E0EA8B103BD1F704C0F1E0FA8B103CA9F71B8A21C00038BC
:204A0000E9F641E04B8B51E05A8B1AC0663058F4643078F7662361F0623081F6003869F176
:204A200031E03A8BE3CF663051F3683081F2C6CF0038F9F021E02B8B103B09F0BFCF1A8A26
:204A4000F6016280738080819181DC01ED91FC910480F581E02DB7010995AC0162E0C3017F
:204A60000E9485092B013C01BA89B1110AC0712C2AC01B8AA1E0AA8BE3CF1A8AB1E0BB8BBF
:204A8000DFCFA70161E0F601828193810E94850969837A838B839C832E813F814885598511
:204AA000621773078407950709F082C0103C09F059C045284628472809F475C0732C472DB4
:204AC0006E2DC6015CDE3B89332361F1A70161E0D60112968D919C910E94850969837A8302
:204AE0008B839C832E813F81488559856217730784079507B9F46E2D3A89332309F460C0D7
:204B0000BB2059F0772051F0729480EF7822492D4719742E5AE0541708F4712C472DC60199
:204B20000E948A0F8FEFE81AF80A90E1E916F10409F01CCF63960FB6F894DEBF0FBECDBF2F
:204B4000DF91CF911F910F91FF90EF90DF90CF90BF90AF909F908F907F906F905F904F90A1
:204B60003F90089545284628472801F53B8931111DC0A70164E0D60112968D919C910E944E
:204B8000850969837A838B839C83772473942E853F8548895989261737074807590709F47E
:204BA0008ECF712C8CCF7724739489CF7A2C87CF103C09F05CCF40E06E2DC601E0DD57CFD5
:204BC0004D81ADCF8F929F92AF92BF92CF92DF92EF92FF920F931F93CF93DF9300D000D0FB
:204BE000CDB7DEB77C016B018A015A014B01840E951E8A149B0439F0F50161915F01C701C6
:204C00000E948317F6CFF701E852FF4F8081882311F03496108284E0B82EF4E0CF16D10432
:204C2000A0F0F801208191818281B9822A839B838C83BE016F5F7F4FC7010E9472170D5F66
:204C40001F4FF3E0CF1AD108E8CF83E0C816D10401F5F80120819181828137E039832A835F
:204C60009B838C83BE016F5F7F4FC7010E9472170F900F900F900F90DF91CF911F910F911D
:204C8000FF90EF90DF90CF90BF90AF909F908F900895F2E0CF16D10449F4F80190818181EA
:204CA00026E029839A838B831C82DCCFCA94CD28F9F6F801808195E099838A831B82F4CF94
:204CC000CF93DF9300D000D000D0CDB7DEB78D839E83962F872FBA01AD81BE811296ED917D
:204CE000FC911397E955FF4F0190F081E02DE851FF4F10821296ED91FC91E955FF4F492F12
:204D0000582F808191815EDFAD81BE811296ED91FC91EB55FF4F23E030E040E060E080819A
:204D200091810E94500969837A838B839C83672B682B692B71F0AD81BE811296ED91FC9116
:204D4000E955FF4F0190F081E02DE851FF4F81E0808326960FB6F894DEBF0FBECDBFDF915A
:204D6000CF9108958F929F92AF92BF92CF92DF92EF92FF920F931F93CF93DF93EC01B62E75
:204D8000042F7C018DEDE80EF11CD7018C91823179F410E0812FDF91CF911F910F91FF9082
:204DA000EF90DF90CF90BF90AF909F908F900895CE010E94BA0B182F882359F3F7018081C0
:204DC000F1E0BF1681F12A819B81992341F09058913630F4821721F011E0813109F010E0FE
:204DE000FE0132960023B1F26E0188EEC80ED11CD6018C907E01B9EEEB0EF11CD7019C905B
:204E0000023041F51C92618180E8860F813620F5008123814281CE010E94BE17F6018082AA
:204E2000D7019C92B7CFFE01E459FF4F9081992351F09058913640F431979081891721F0E1
:204E400011E0813109F010E0FE01E559FF4F0111CBCFA0CFD601D6CF623F09F455C0A8F455
:204E6000603F29F1613FD1F6628190E1699FB00111246077B380AB2DAF70BA2EB62A61EFB7
:204E8000CE010E9483176B2D31C0633F41F16D3F58F46A3F28F4663F19F0683F09F0BECF12
:204EA000CE010E94B417BACF6E3FD0F7B7CFB1E0AE01BB1661F04A5F5F4F6C817D816536F4
:204EC000710510F064E670E0CE017CDEA7CF41595F4FFE01EB51FF4F60817181F0CF02813D
:204EE00063EFCE010E948317602F6F77CE010E948317FE01E852FF4F8081882309F48ECF48
:204F0000C452DF4F18828ACFA38080E8A89E500111248281A82A62EFCE010E9483176A2D3B
:204F20006F77CE010E948317B501660F672F661F770B7195DACF0F93CF93DF93E901033076
:204F400039F0043079F0CA010E94E25890E003C0CA010E94EF58B0E0A0E088839983AA8399
:204F6000BB8307C0CA010E94EA58688379838A839B8381E0DF91CF910F910895EF920F93DA
:204F80001F93E42F952FA801B9018E2D833049F0843091F0602F2E2F392FC9010E94F4583D
:204FA00006C0B8012E2F392FC9010E940E5981E01F910F91EF9008952E2F392FC9010E94DC
:204FC0000659F5CF2F923F924F925F926F927F928F929F92AF92BF92CF92DF92EF92FF9270
:204FE0000F931F93CF93DF93CDB7DEB76B970FB6F894DEBF0FBECDBF1C017B876A874A8F3E
:205000007901088B198BDC0196968C91813049F4C90186569E408239914018F4E8E0EE0EEB
:20502000F11CFA8DF33071F5D1019796ED91FC9180899189E816F906F8F481E090E0E889FB
:20504000F989918380836B960FB6F894DEBF0FBECDBFDF91CF911F910F91FF90EF90DF90D2
:20506000CF90BF90AF909F908F907F906F905F904F903F902F900895A889B9891D921C921E
:2050800081E0E1CF0E94611E6C877D878E879F872A853B85F901EE0FFF1FEE0FFF1FE20D1E
:2050A000F31DE156FF4F80819181A281B3814C855D856E857F85481B590B6A0B7B0BDB01A9
:2050C000CA01F10143A554A565A576A5481759076A077B0708F0C4C0F901EE0FFF1FD101F8
:2050E000AE0FBF1FA159BF4F6D917C911197AB014F5F5F4F4D935C93E20FF31FE60FF71F75
:20510000EE0FFF1FE20DF31DFF96F182E0824330510511F080E097CF16E0129FC001139F61
:20512000900D1124CF962CE234E042E050E063E070E0820D931D0E9464548A859B85FC016C
:20514000EE0FFF1FE20DF31DE159FF4F11821082189FF001199FF00D1124E20DF31DEF5BAD
:20516000FF4F80819181A889B9898D939C931B8E4A845B84A889B9892D913C91ACE3B0E099
:205180000E94F4536C877D878E879F878201000F111F4101800E911EF40127A530A9A8E28F
:2051A000B0E00E94F4532C853D854E855F85260F371F481F591F2C873D874E875F87CA01E5
:2051C000B90124E630E040E050E00E94D253B901CA0169017A01A901D401D0967C936E9385
:2051E0009F97E889F98971836083F101A7A1B0A52A8D25502330D8F112962D913C911397FB
:20520000EFE76E2E712C020D131DF801E957FF4F00811181992493944017510710F0E2E051
:205220009E2E9986420C531CF201E158FF4FB080BA8ABB2029F1B91421F016962D913C91CE
:205240001797401B510B57FF03C051954195510942175307A8F4F201E956FF4F10825ACF30
:20526000E889F989F182E082F1E0FB8F81CF14962D913C91159766246A94FFE37F2EC3CF31
:20528000930150E040E02C873D874E875F878D909C90B12CA12C281539054A055B05D1F01A
:2052A000281539054A055B0508F0C5C0D30111969B01AC010E9403546E8B7F8B888F998F48
:2052C000A50194012F5F3F4F4F4F5F4F0E94D25369017A01980150E040E06C857D858E8590
:2052E0009F85681579058A059B05C1F09301681579058A059B0508F0ABC02F5F3F4FD80199
:205300000E94F4536E8B7F8B888F998FA50194012F5F3F4F4F4F5F4F0E94D2532C153D0575
:205320004E055F0519F4BA88B11095CF3A822982CE010A969C838B8301979E838D832889C5
:20534000398938872F83BB8CBB2009F48BC0CE0101960E94F31E2A8D223009F09CC0D10167
:205360009796ED91FC91828593854C01B12CA12C608571852B01712C612CE889F9894081FA
:2053800051814617570708F47CC04817590708F4CA019C0150E040E0411451046104710451
:2053A00031F4FFE78F169104A104B10411F184189508A608B708241935094609570960E834
:2053C00086169104A104B10408F45EC0DA01C90127E0880F991FAA1FBB1F2A95D1F7A5015D
:2053E00094012F5F3F4F4F4F5F4FBC01CD010E94D253A889B9892D933C93C114D104E104CD
:20540000F10451F02C853D854E855F852C153D054E055F0509F034CEEA85FB85EE0FFF1FED
:20542000EE0FFF1FE20DF31DE156FF4F108211821282138225CE2C853D854E855F850E94C0
:2054400097536E8B7F8B888F998FA50194013ECFD8010E94F4536E8B7F8B888F998FA5012E
:2054600094015ACFF201E956FF4F80818F5F8083D10199962D913C918217130608F44ACEAA
:2054800066CFA3019B0188CFAFE7B0E00E940354A5019401ACCFE889F989D182C082ADCF67
:2054A000611107C06FEF8FEF9FE00E9412590E94E82167E4F8CF2F923F924F925F926F9229
:2054C0007F929F92AF92BF92CF92DF92EF92FF920F931F93CF93DF93CDB7DEB760970FB617
:2054E000F894DEBF0FBECDBF8D839E83922EED81FE81ED57FE4F9081992309F4D5C0AD812E
:20550000BE81AA57BE4FFD0101900020E9F73197EA1BFB0BA22EB12C95012E0F311D2632B6
:20552000310514F0E6E2E919AD81BE81AF57BE4F8C912D813E812A573E4F69016E2E712CAC
:20554000882361F1F12CE12CAD80BE803EE7A31A3EEFB30A062F10E0E614F7040CF0A4C073
:20556000D6012D916D01D501EC91B4E0EB9FF00111242D803E80E20DF31DE00FF11FE255F1
:20558000FE4F692D6E0DD1018D919C91408105960E949A0ABFEFEB1AFB0ADECFE62EF12C58
:2055A000E8E26E9F80011124413009F4AEC0D901B88AAF8630E020E0B701660F771F660FE9
:2055C000771F2D803E80620D731D655A7E4F261537055CF55D91EF85F889E00FF11F4D80C8
:2055E0005E80E40DF51D538FA12CB12C6501A3940F8404C0AA0CBB1CCC1CDD1C0A94D2F775
:20560000FB0120803180428053802A283B284C285D2820823182428253822F5F3F4FEF857C
:20562000F8893196F88BEF87D2CF055C1F4FED81FE81E00FF11F20E230E051915F7D11F0FC
:205640004F5F892F2F5F3F4F27323105B1F79701220F331F220F331F2D803E80220D331D09
:20566000F901E559FE4F90818823B1F191111CC04083F701E55AFF4FEE0FFF1FEE0FFF1F4B
:20568000E20DF31D9082F901E359FE4F108222593E4FD9011C920E94611EF101E558FE4FB7
:2056A000608371838283938360960FB6F894DEBF0FBECDBFDF91CF911F910F91FF90EF908D
:2056C000DF90CF90BF90AF909F907F906F905F904F903F902F900895992331F31082BBE526
:2056E000EB0EF11CEE0CFF1CEE0CFF1C2D803E802E0C3F1CD1011C92F901E359FE4F1082E5
:2057000022593E4FF9011082CFCFC80185549F4F4EE150E060E270E02D803E80820D931D2C
:205720000E941156F101E00FF11FE652FF4F1082D60190E080E00C5C1109861597054CF4B7
:205740002D91F501EA0FFB1FE00FF11F20830196F4CF88E28E9DF0018F9DF00D11244D80D5
:205760005E80E40DF51DEA0DFB1DE60DF71DE554FF4F108281E0D2015A968C930E94611EB5
:20578000ED81FE81628B738B848B958BE55AFE4F8FEF9FEFDC0180839183A283B383ED81AD
:2057A000FE81E15AFE4F80839183A283B383ED81FE81ED59FE4F80839183A283B3832D81D0
:2057C0003E8129593E4FF90180839183A283B3836BCF0F931F93CF93DF93EC01AB01DC01B7
:2057E0001296FD0101900020E9F73197EA1BFB0B8F01060F171F88819981019708171907CA
:2058000058F4329660E270E0CE018E0F9F1F0E941156C00FD11F1A82DF91CF911F910F9134
:2058200008950F931F93CF93DF93DC01862FB9018831C1F150F4843199F18731F9F080E068
:20584000DF91CF911F910F9108958931C1F78091050B9091060B2091270B3091280BEC0102
:20586000E881F9810480F581E02D47E05BE056966C91DF91CF911F910F910994C42FD0E093
:205880000091270B1091280BAE01C801895F944F0E940856C00FD11FD093280BC093270B54
:2058A00081E0CECF1092280B1092270BF9CFCF93DF93CDB7DEB79E01275F3F4F4F8158852C
:2058C00068E270E08D819E8102960E941856DF91CF910895DF92EF92FF920F931F93CF93B3
:2058E000DF93EC01D62EFC01ED57FE4F8081882309F450C08E010C571E4F780182E0E80ECE
:20590000F11C91E0691709F44DC08AED97E09F938F931F930F93CBDFF70101900020E9F7B6
:205920003197EE19FF09A881B98195966D917C9177276E1B7F0BC8014CDF20E040E060E0F2
:20594000CE01B9DD8EED97E09F938F931F930F93AEDFF70101900020E9F73197EE19FF095B
:20596000A881B98195966D917C9177276E1B7F0BC8012FDF20E040E061E0CE019CDD8DB719
:205980009EB708960FB6F8949EBF0FBE8DBFCD0DD11D1C86DF91CF911F910F91FF90EF90B5
:2059A000DF9008958FED97E09F938F931F930F937EDFF70101900020E9F73197EE19FF0983
:2059C000A881B98195966D917C9177276E1B7F0BC801FFDE20E040E062E0CE016CDD8EEDE2
:2059E00097E09F938F931F930F9361DFF70101900020E9F73197EE19FF09A881B98195965A
:205A00006D917C9177276E1B7F0BC801E2DE20E040E063E0CE014FDD8DB79EB708960FB6E7
:205A2000F8949EBF0FBE8DBFB2CF2F923F924F925F926F927F928F929F92AF92BF92CF9228
:205A4000DF92EF92FF920F931F93CF93DF93CDB7DEB728970FB6F894DEBF0FBECDBF8F836A
:205A60009887962E30E020E040E065E0AF81B88512968D919C910E94500969837A838B837C
:205A80009C83672B682B692BD9F4712C872D28960FB6F894DEBF0FBECDBFDF91CF911F918B
:205AA0000F91FF90EF90DF90CF90BF90AF909F908F907F906F905F904F903F902F90089587
:205AC00030E020E041E065E0EF81F885828193810E945009562E21E030E041E065E0AF8126
:205AE000B88512968D919C910E945009662E24E030E041E065E0EF81F885828193810E94C7
:205B0000500991101DC0EF81F885ED57FE4F70807720B1F0EF81F885E654FE4F8081581229
:205B20000FC0EF81F885E554FE4F8081681208C0EF81F885E454FE4F8081681709F4A6CF7C
:205B4000AF81B8850D911C91F8011682158282EB94E0928781879487838796878587908BFA
:205B60008787128E158E118A128A138A148A8FEF838F878F838194819093060B8093050B4C
:205B8000B1E06B121FC05B1291C122EA30E13287218724EC31E13487238721E13CE2368777
:205BA00025872BE43AE0308B278724E030E034A323A320E130E036A325A3633008F083C175
:205BC00021E078C1F2E06F1271C121E052126EC126E131E1D8011A963C932E93199724EC80
:205BE00031E11C963C932E931B9721E13CE21E963C932E931D972BE43AE050963C932E93E8
:205C00001F9722E030E094963C932E93939720E130E096963C932E939597CFCF68EE73E098
:205C200080E090E00E9432228EEE97E09F938F93FF92EF923CDEF80101900020E9F73197D9
:205C4000CF01801B910BEF81F885A081B1819596FC90F694E82FE695FE1A0F900F900F9035
:205C60000F902394312CF801E40DF11D20812223F9F0D501EC91B4E0EB9FF00111244F8143
:205C80005885E40FF51FE20DF31DE255FE4F642D6F0DDA018D919C91408105960E949A0AC8
:205CA00062E370E080E090E00E9432224394DBCF60ED77E080E090E00E94322222E030E08C
:205CC00040E065E0EF81F885828193810E94500969837A838B839C83672B682B692B09F494
:205CE00098C0D6018C91882309F493C0EF81F8858081918105960E94420BAF81B885ED91E8
:205D0000FC91DD24D39483A1843009F0D12CEF80F884BCE7EB1ABEEFFB0A87EF97E09F935C
:205D20008F93FF92EF92C3DD87010E5F1F4FF80101900020E9F73197CF01801B910BEF8163
:205D4000F885A081B18195962C912695E82FE6952E1B41E06D2D8F819885ADDB1F928AE06A
:205D60008F931F921F921F9285E08F9385E098E09F938F93FF92EF929ADDF8010190002003
:205D8000E9F73197CF01801B910BEF81F885A081B18195962C912695E82FE6952E1B61E055
:205DA0006D0D41E08F81988586DB67EB71E083ED9AE00E94015683ED9AE09F938F9383E192
:205DC00098E09F938F93FF92EF9271DDF80101900020E9F73197CF01801B910BEF81F88551
:205DE000A081B18195962C912695E82FE6952E1B62E06D0D41E08F8198855DDB60ED77E0EC
:205E000080E090E00E9432220FB6F894DEBF0FBECDBFD4011C9223E030E040E065E0EF810A
:205E2000F885828193810E94500969837A838B839C83EF81F885E058FE4F81E029813A8185
:205E40004B815C81232B242B252B09F480E0808322E030E041E065E0AF81B88512968D91A1
:205E60009C910E945009A8EEB3E09B01AC010E94035469837A838B839C83AB01BC018F8100
:205E800098850E94312160E08F81988523DD61E08F8198851FDDEF81F885E654FE4F5082D4
:205EA000EF81F885E554FE4F6082F0CD633008F0ECCD20E0F801E60FF11D3081F801338F24
:205EC000222309F4E2CDDC01ED91FC910190F081E02D0995782E882309F4D7CD7801B5E03C
:205EE000EB0EF11CD8011996ED91FC9130E020E040E069E0C7010995D8011996ED91FC9197
:205F000030E020E040E06AE0C7010995C7010E94420BD8011996ED91FC9130E020E040E027
:205F20006BE0C7010995EF81F8858081918105960E94420BAF81B8858D919C91DC011996E2
:205F4000ED91FC9130E020E040E06BE005960995EF81F88580819181DC011996ED91FC91EB
:205F600030E020E040E06DE005960995AF80B884BEE7AB1ABEEFBB0AF5016082AF81B885DF
:205F8000ED91FC91119784EC91E0968B858B8D919C9105960E94420B0F811885055E1F4F69
:205FA000CF80D884B5E9CB1ABEEFDB0AEF80F884EBEBEE0EF11C46E250E060E270E0C801A4
:205FC0000E94115646E250E060E270E0C80180569F4F0E941156D80197961C92F801E9534F
:205FE000FF4F1082F6011082118212821382085D1F4FF4E0CF0ED11CE016F106E1F6CF80F8
:20600000D8842DE7C21A2EEFD20A91E0D6019C93992009F400CFAF81B8851296ED91FC911F
:2060200013974D01BFE78B1ABEEF9B0AD4019C9321E030E040E065E0CF010E94500969839A
:206040007A838B839C83672B682B692B09F436CEF6018081882309F431CEAF81B8858D9132
:206060009C9105960E94420BAF81B885ED91FC912224239483A1843009F0212CEF80F884EB
:20608000BCE7EB1ABEEFFB0A85EE97E09F938F93FF92EF920CDC87010E5F1F4FF801019081
:2060A0000020E9F731979F01201B310BEF81F885A081B18195968C918695E22FE6958E1B29
:2060C00089830F900F900F900F90312C222D30E03E832D83F801E30DF11D4080442009F4F3
:2060E0009DCDD501EC91B4E0EB9FF00111242F813885E20FF31F4D815E81E40FF51FE25544
:20610000FE4F6981630DD9018D919C91242D408105960E949A0A3394DDCF0F931F93CF9397
:20612000DF93CDB7DEB70F811885D8011296FD0101900020E9F7CF018A1B9B0B01969E0146
:20614000255F3F4F4AE158E068E270E0800F911F0E941856DF91CF911F910F9108953F9253
:206160004F925F926F927F928F929F92AF92BF92CF92DF92EF92FF920F931F93CF93DF934B
:2061800000D000D000D0CDB7DEB76C01562EB42EF22EA32E412EFC01ED57FE4F8081882309
:2061A00009F480C010E074E0372E662319F012E065E0362EC6018C579E4F9A838983EB2DF4
:2061C000F0E0EE0FFF1FEB57FE4F6591749183ED9AE00E94015653ED652E5AE0752E7F92A6
:2061E0006F9287E198E09F938F939A819F93A981AF935DDB89809A80B2E08B0E911CF40189
:2062000001900020E9F73197CF0188199909F601A081B18195966C916319770B681B790B9B
:2062200089819A81D6DA232D40E0612FC60143D90F900F900F900F900F900F90F1E1FB150A
:2062400008F468C08BE08B1508F447C093E0B91609F410C19B15F0F1A1E0AB1508F091C0E1
:20626000B2E0BB1609F414C1852D90E09E838D830E94611E69837A838B839C83ED81FE8172
:206280003196EE0FFF1FEE0FFF1FEC0DFD1D6083718382839383AD81BE81AC0DBD1D81E09B
:2062A0001C968C9326960FB6F894DEBF0FBECDBFDF91CF911F910F91FF90EF90DF90CF900E
:2062C000BF90AF909F908F907F906F905F904F903F900895E7E0BE12C7CF8EED97E09F9349
:2062E0008F93FA81FF9389818F93E1DAD601ED91FC9165A176A1772789819A816ADA61E041
:20630000610F20E040E0C601D6D80F900F900F900F90AACFF7E1BF1609F4BAC088E1B81628
:2063200009F4C6C0BF1609F49FCFAF92FF928FE298E09F938F939A819F93A981AF93B7DA41
:20634000F40101900020E9F73197CF0188199909F601A081B18195966D917C917727681B3B
:20636000790B89819A8135DA61E0610F20E040E0C601A1D80F900F900F900F900F900F909A
:2063800073CFF601E058FE4F808181113EC0AF92FF9280E198E09F938F939A819F93A98138
:2063A000AF9385DA0F900F900F900F900F900F901F92EF924F920F938AE198E09F938F9396
:2063C0009A819F93A981AF93A8DEF40101900020E9F73197CF0188199909F601A081B181D3
:2063E00095966D917C917727681B790B89819A81F0D961E0610F20E040E0C6015CD80FB643
:20640000F894DEBF0FBECDBF2FCF2F2D2F77822F6CE00E94B253F601E158FE4F9081382E62
:20642000390EA32C032C000CBB08822F220F990B6CE070E00E94BF53FC01EE0FFF1FE3591E
:20644000FE4F6591749183ED9AE00E940156BF923F927F926F9284E298E09F938F93BA8170
:20646000BF93E981EF9323DA0FB6F894DEBF0FBECDBF9ECF1F92EF92AF92FF928CE298E043
:206480009F938F939A819F93A981AF9310DA9DCF1F92EF924F920F93AF92FF9289E298E02F
:2064A0009F938F939A819F93A981AF9300DA8DCFAF92FF9280E198E09F938F93BA81BF930D
:2064C000E981EF933CCFEF920F931F93CF93C82FEE24E39400E020E0482F60EC8CE59EE07C
:2064E0000E94692460E08FE99CE09FDA882351F02C2F30E0E12C10E000E048E160E08FE9AB
:206500009CE02DDECF911F910F91EF9008952F923F924F925F926F927F928F929F92AF921F
:20652000BF92CF92DF92EF92FF920F931F93CF93DF93CDB7DEB760970FB6F894DEBF0FBE33
:20654000CDBF8B879C87542E49015801AB85BC851296CD90DC90633009F4AEC158F4613097
:2065600009F4F6C0623009F44CC1662389F082E0582E35C2643009F421C26530C1F74423C3
:2065800009F436C4B1E04B1709F44CC4712C5DC4B1E04B1709F493C0E2E04E1709F4B3C06C
:2065A0004111B5C0223009F44BC078F4F601E955FF4F211125C00190F081E02DE951FF4F1D
:2065C000012B09F461C081E024C0233021F1C501B0E0A0E08D839E83AF83B887F601E50D66
:2065E000F11DE652FF4FD601AB55BF4FED80FE800F8118859401408160E08D919C91D8C28F
:206600000190F081E02DE852FF4F81E0012B09F480E08083DCCFF601ED55FF4F80819181B1
:20662000DC01ED91FC91012B31F00680F781E02D60E00995CCCF0084F185E02D0995C7CF66
:2066400086010B551F4FF8018081918163E0A114B104E1F40E94301D882309F4B8CFF60142
:20666000ED55FF4F80819181DC01ED91FC910680F781E02D60E00995F601E955FF4F019092
:20668000F081E02DE752FF4F1082A1CF0E94301D882309F49CCFF601E955FF4F0190F0816C
:2066A000E02DE752FF4F81E08083F801808191810E94281DBC01C6010E942C0588CF2223FC
:2066C00039F06FEF620F623008F089C1512C87C10230110508F04BCF86010B551F4F63E037
:2066E000D8018D919C910E94301D882309F46FCF62E0F801808191810E94301D882309F4BC
:2067000066CFB501D8CF222329F02130A1F05524539465C1F601EB55FF4F80819181DC01AC
:206720009D962C912017110609F008F458C1602F0E946114CBCF0230110548F7602F6170E6
:20674000F601EB55FF4F808191810E94DD14BECF94E0491303C0A1E0AA1AB108C501B0E09A
:20676000A0E08D839E83AF83B887F601E50DF11DE352FF4F75018D019401408161E0F601EB
:20678000EB55FF4F808191810E943213882309F4BECF91E0951508F499CFF601E755FF4F3C
:2067A0000190F081E02D282D269526952695382D377081E090E0A0E0B0E004C0880F991F44
:2067C000AA1FBB1F3A95D2F78095DF01A20FB11D1E969C911E9798231E969C931E97529639
:2067E0009C915297892352968C9382819381B4017727DC01ED91FC910280F381E02D0995DD
:2068000065CFB3E04B1749F0E7E04E134EC0D60114968C91823009F4AACEF601848181306E
:20682000F1F4E50DF11DEE51FF4FA4016081F601EB55FF4F808191810E9481097C836B83AF
:206840008E010F5F1F4FC8010E949204C801F3E05F1229C0AA820E949F04AB80BC80C50138
:20686000B0E0A0E08D839E83AF83B887F601E50DF11DEE51FF4F75018D019401408162E046
:20688000F601EB55FF4F808191810E943213882309F43DCFF601E555FF4F682D808191819E
:2068A0000E94A50913CFA982D6CF24E04213D7CF31E0A31AB108D3CF9EEF940F973068F45B
:2068C00081E001C0880F9A95EAF7982F9A7291F4982F947549F480FD52C0B9E05B1236C0FF
:2068E000E1E0AE1AB10832C0D60114968C91823009F43DCEF6011481113041F5E50DF11D09
:20690000E551FF4F9401408163E0F601EB55FF4F808191810E9450097C836B839E012F5FAD
